{
	"contracts/CollateralManager.sol": {
		"CollateralManager": {
			"abi": [
				{
					"inputs": [
						{
							"internalType": "contract IERC20",
							"name": "_collateralToken",
							"type": "address"
						},
						{
							"internalType": "address",
							"name": "_priceOracleAddress",
							"type": "address"
						}
					],
					"stateMutability": "nonpayable",
					"type": "constructor"
				},
				{
					"inputs": [],
					"name": "EnforcedPause",
					"type": "error"
				},
				{
					"inputs": [],
					"name": "ExpectedPause",
					"type": "error"
				},
				{
					"inputs": [
						{
							"internalType": "address",
							"name": "owner",
							"type": "address"
						}
					],
					"name": "OwnableInvalidOwner",
					"type": "error"
				},
				{
					"inputs": [
						{
							"internalType": "address",
							"name": "account",
							"type": "address"
						}
					],
					"name": "OwnableUnauthorizedAccount",
					"type": "error"
				},
				{
					"inputs": [],
					"name": "ReentrancyGuardReentrantCall",
					"type": "error"
				},
				{
					"anonymous": false,
					"inputs": [
						{
							"indexed": true,
							"internalType": "address",
							"name": "user",
							"type": "address"
						},
						{
							"indexed": false,
							"internalType": "uint256",
							"name": "amount",
							"type": "uint256"
						}
					],
					"name": "CeloCollateralDeposited",
					"type": "event"
				},
				{
					"anonymous": false,
					"inputs": [
						{
							"indexed": true,
							"internalType": "address",
							"name": "user",
							"type": "address"
						},
						{
							"indexed": false,
							"internalType": "uint256",
							"name": "amount",
							"type": "uint256"
						}
					],
					"name": "CeloCollateralWithdrawn",
					"type": "event"
				},
				{
					"anonymous": false,
					"inputs": [
						{
							"indexed": true,
							"internalType": "address",
							"name": "previousOwner",
							"type": "address"
						},
						{
							"indexed": true,
							"internalType": "address",
							"name": "newOwner",
							"type": "address"
						}
					],
					"name": "OwnershipTransferred",
					"type": "event"
				},
				{
					"anonymous": false,
					"inputs": [
						{
							"indexed": false,
							"internalType": "address",
							"name": "account",
							"type": "address"
						}
					],
					"name": "Paused",
					"type": "event"
				},
				{
					"anonymous": false,
					"inputs": [
						{
							"indexed": false,
							"internalType": "address",
							"name": "account",
							"type": "address"
						}
					],
					"name": "Unpaused",
					"type": "event"
				},
				{
					"anonymous": false,
					"inputs": [
						{
							"indexed": true,
							"internalType": "address",
							"name": "user",
							"type": "address"
						},
						{
							"indexed": false,
							"internalType": "uint256",
							"name": "amount",
							"type": "uint256"
						}
					],
					"name": "UsdtCollateralDeposited",
					"type": "event"
				},
				{
					"anonymous": false,
					"inputs": [
						{
							"indexed": true,
							"internalType": "address",
							"name": "user",
							"type": "address"
						},
						{
							"indexed": false,
							"internalType": "uint256",
							"name": "amount",
							"type": "uint256"
						}
					],
					"name": "UsdtCollateralWithdrawn",
					"type": "event"
				},
				{
					"inputs": [],
					"name": "depositCeloCollateral",
					"outputs": [],
					"stateMutability": "payable",
					"type": "function"
				},
				{
					"inputs": [
						{
							"internalType": "uint256",
							"name": "_amount",
							"type": "uint256"
						}
					],
					"name": "depositUsdtCollateral",
					"outputs": [],
					"stateMutability": "nonpayable",
					"type": "function"
				},
				{
					"inputs": [
						{
							"internalType": "address",
							"name": "_user",
							"type": "address"
						}
					],
					"name": "getCollateralBalance",
					"outputs": [
						{
							"internalType": "uint256",
							"name": "celo",
							"type": "uint256"
						},
						{
							"internalType": "uint256",
							"name": "usdt",
							"type": "uint256"
						}
					],
					"stateMutability": "view",
					"type": "function"
				},
				{
					"inputs": [
						{
							"internalType": "address",
							"name": "_user",
							"type": "address"
						}
					],
					"name": "getCollateralBalanceinUSD",
					"outputs": [
						{
							"internalType": "uint256",
							"name": "",
							"type": "uint256"
						}
					],
					"stateMutability": "view",
					"type": "function"
				},
				{
					"inputs": [],
					"name": "maxCollateralAmount",
					"outputs": [
						{
							"internalType": "uint256",
							"name": "",
							"type": "uint256"
						}
					],
					"stateMutability": "view",
					"type": "function"
				},
				{
					"inputs": [],
					"name": "minCollateralAmount",
					"outputs": [
						{
							"internalType": "uint256",
							"name": "",
							"type": "uint256"
						}
					],
					"stateMutability": "view",
					"type": "function"
				},
				{
					"inputs": [],
					"name": "owner",
					"outputs": [
						{
							"internalType": "address",
							"name": "",
							"type": "address"
						}
					],
					"stateMutability": "view",
					"type": "function"
				},
				{
					"inputs": [],
					"name": "pause",
					"outputs": [],
					"stateMutability": "nonpayable",
					"type": "function"
				},
				{
					"inputs": [],
					"name": "paused",
					"outputs": [
						{
							"internalType": "bool",
							"name": "",
							"type": "bool"
						}
					],
					"stateMutability": "view",
					"type": "function"
				},
				{
					"inputs": [],
					"name": "priceOracle",
					"outputs": [
						{
							"internalType": "contract MellowFiPriceOracle",
							"name": "",
							"type": "address"
						}
					],
					"stateMutability": "view",
					"type": "function"
				},
				{
					"inputs": [
						{
							"internalType": "address",
							"name": "user",
							"type": "address"
						}
					],
					"name": "releaseFunds",
					"outputs": [],
					"stateMutability": "nonpayable",
					"type": "function"
				},
				{
					"inputs": [],
					"name": "renounceOwnership",
					"outputs": [],
					"stateMutability": "nonpayable",
					"type": "function"
				},
				{
					"inputs": [],
					"name": "totalCollateralCelo",
					"outputs": [
						{
							"internalType": "uint256",
							"name": "",
							"type": "uint256"
						}
					],
					"stateMutability": "view",
					"type": "function"
				},
				{
					"inputs": [],
					"name": "totalCollateralUsdt",
					"outputs": [
						{
							"internalType": "uint256",
							"name": "",
							"type": "uint256"
						}
					],
					"stateMutability": "view",
					"type": "function"
				},
				{
					"inputs": [
						{
							"internalType": "address",
							"name": "newOwner",
							"type": "address"
						}
					],
					"name": "transferOwnership",
					"outputs": [],
					"stateMutability": "nonpayable",
					"type": "function"
				},
				{
					"inputs": [],
					"name": "unpause",
					"outputs": [],
					"stateMutability": "nonpayable",
					"type": "function"
				},
				{
					"inputs": [],
					"name": "usdtToken",
					"outputs": [
						{
							"internalType": "contract IERC20",
							"name": "",
							"type": "address"
						}
					],
					"stateMutability": "view",
					"type": "function"
				},
				{
					"inputs": [
						{
							"internalType": "address",
							"name": "",
							"type": "address"
						}
					],
					"name": "userCollateralCelo",
					"outputs": [
						{
							"internalType": "uint256",
							"name": "",
							"type": "uint256"
						}
					],
					"stateMutability": "view",
					"type": "function"
				},
				{
					"inputs": [
						{
							"internalType": "address",
							"name": "",
							"type": "address"
						}
					],
					"name": "userCollateralUsdt",
					"outputs": [
						{
							"internalType": "uint256",
							"name": "",
							"type": "uint256"
						}
					],
					"stateMutability": "view",
					"type": "function"
				},
				{
					"inputs": [
						{
							"internalType": "uint256",
							"name": "_amount",
							"type": "uint256"
						}
					],
					"name": "withdrawCeloCollateral",
					"outputs": [],
					"stateMutability": "nonpayable",
					"type": "function"
				},
				{
					"inputs": [
						{
							"internalType": "uint256",
							"name": "_amount",
							"type": "uint256"
						}
					],
					"name": "withdrawUsdtCollateral",
					"outputs": [],
					"stateMutability": "nonpayable",
					"type": "function"
				}
			],
			"devdoc": {
				"errors": {
					"EnforcedPause()": [
						{
							"details": "The operation failed because the contract is paused."
						}
					],
					"ExpectedPause()": [
						{
							"details": "The operation failed because the contract is not paused."
						}
					],
					"OwnableInvalidOwner(address)": [
						{
							"details": "The owner is not a valid owner account. (eg. `address(0)`)"
						}
					],
					"OwnableUnauthorizedAccount(address)": [
						{
							"details": "The caller account is not authorized to perform an operation."
						}
					],
					"ReentrancyGuardReentrantCall()": [
						{
							"details": "Unauthorized reentrant call."
						}
					]
				},
				"events": {
					"Paused(address)": {
						"details": "Emitted when the pause is triggered by `account`."
					},
					"Unpaused(address)": {
						"details": "Emitted when the pause is lifted by `account`."
					}
				},
				"kind": "dev",
				"methods": {
					"owner()": {
						"details": "Returns the address of the current owner."
					},
					"paused()": {
						"details": "Returns true if the contract is paused, and false otherwise."
					},
					"renounceOwnership()": {
						"details": "Leaves the contract without owner. It will not be possible to call `onlyOwner` functions. Can only be called by the current owner. NOTE: Renouncing ownership will leave the contract without an owner, thereby disabling any functionality that is only available to the owner."
					},
					"transferOwnership(address)": {
						"details": "Transfers ownership of the contract to a new account (`newOwner`). Can only be called by the current owner."
					}
				},
				"version": 1
			},
			"evm": {
				"assembly": "    /* \"contracts/CollateralManager.sol\":318:4325  contract CollateralManager is ReentrancyGuard, Pausable, Ownable {... */\n  mstore(0x40, 0x80)\n    /* \"contracts/CollateralManager.sol\":580:587  1 ether */\n  0x0de0b6b3a7640000\n    /* \"contracts/CollateralManager.sol\":543:587  uint256 public minCollateralAmount = 1 ether */\n  0x06\n  sstore\n    /* \"contracts/CollateralManager.sol\":631:639  10 ether */\n  0x8ac7230489e80000\n    /* \"contracts/CollateralManager.sol\":594:639  uint256 public maxCollateralAmount = 10 ether */\n  0x07\n  sstore\n    /* \"contracts/CollateralManager.sol\":1121:1319  constructor(IERC20 _collateralToken,... */\n  callvalue\n  dup1\n  iszero\n  tag_1\n  jumpi\n  0x00\n  dup1\n  revert\ntag_1:\n  pop\n  mload(0x40)\n  sub(codesize, bytecodeSize)\n  dup1\n  bytecodeSize\n  dup4\n  codecopy\n  dup2\n  dup2\n  add\n  0x40\n  mstore\n  dup2\n  add\n  swap1\n  tag_2\n  swap2\n  swap1\n  tag_3\n  jump\t// in\ntag_2:\n    /* \"contracts/CollateralManager.sol\":1199:1209  msg.sender */\n  caller\n    /* \"@openzeppelin/contracts/utils/ReentrancyGuard.sol\":1713:1714  1 */\n  0x01\n    /* \"@openzeppelin/contracts/utils/ReentrancyGuard.sol\":1917:1924  _status */\n  0x00\n    /* \"@openzeppelin/contracts/utils/ReentrancyGuard.sol\":1917:1938  _status = NOT_ENTERED */\n  dup2\n  swap1\n  sstore\n  pop\n    /* \"@openzeppelin/contracts/utils/Pausable.sol\":1241:1246  false */\n  0x00\n    /* \"@openzeppelin/contracts/utils/Pausable.sol\":1231:1238  _paused */\n  0x01\n  0x00\n    /* \"@openzeppelin/contracts/utils/Pausable.sol\":1231:1246  _paused = false */\n  0x0100\n  exp\n  dup2\n  sload\n  dup2\n  0xff\n  mul\n  not\n  and\n  swap1\n  dup4\n  iszero\n  iszero\n  mul\n  or\n  swap1\n  sstore\n  pop\n    /* \"@openzeppelin/contracts/access/Ownable.sol\":1297:1298  0 */\n  0x00\n    /* \"@openzeppelin/contracts/access/Ownable.sol\":1273:1299  initialOwner == address(0) */\n  0xffffffffffffffffffffffffffffffffffffffff\n  and\n    /* \"@openzeppelin/contracts/access/Ownable.sol\":1273:1285  initialOwner */\n  dup2\n    /* \"@openzeppelin/contracts/access/Ownable.sol\":1273:1299  initialOwner == address(0) */\n  0xffffffffffffffffffffffffffffffffffffffff\n  and\n  sub\n    /* \"@openzeppelin/contracts/access/Ownable.sol\":1269:1364  if (initialOwner == address(0)) {... */\n  tag_11\n  jumpi\n    /* \"@openzeppelin/contracts/access/Ownable.sol\":1350:1351  0 */\n  0x00\n    /* \"@openzeppelin/contracts/access/Ownable.sol\":1322:1353  OwnableInvalidOwner(address(0)) */\n  mload(0x40)\n  0x1e4fbdf700000000000000000000000000000000000000000000000000000000\n  dup2\n  mstore\n  0x04\n  add\n  tag_12\n  swap2\n  swap1\n  tag_13\n  jump\t// in\ntag_12:\n  mload(0x40)\n  dup1\n  swap2\n  sub\n  swap1\n  revert\n    /* \"@openzeppelin/contracts/access/Ownable.sol\":1269:1364  if (initialOwner == address(0)) {... */\ntag_11:\n    /* \"@openzeppelin/contracts/access/Ownable.sol\":1373:1405  _transferOwnership(initialOwner) */\n  tag_14\n    /* \"@openzeppelin/contracts/access/Ownable.sol\":1392:1404  initialOwner */\n  dup2\n    /* \"@openzeppelin/contracts/access/Ownable.sol\":1373:1391  _transferOwnership */\n  shl(0x20, tag_15)\n    /* \"@openzeppelin/contracts/access/Ownable.sol\":1373:1405  _transferOwnership(initialOwner) */\n  0x20\n  shr\n  jump\t// in\ntag_14:\n    /* \"@openzeppelin/contracts/access/Ownable.sol\":1225:1412  constructor(address initialOwner) {... */\n  pop\n    /* \"contracts/CollateralManager.sol\":1232:1248  _collateralToken */\n  dup2\n    /* \"contracts/CollateralManager.sol\":1220:1229  usdtToken */\n  0x02\n  0x00\n    /* \"contracts/CollateralManager.sol\":1220:1248  usdtToken = _collateralToken */\n  0x0100\n  exp\n  dup2\n  sload\n  dup2\n  0xffffffffffffffffffffffffffffffffffffffff\n  mul\n  not\n  and\n  swap1\n  dup4\n  0xffffffffffffffffffffffffffffffffffffffff\n  and\n  mul\n  or\n  swap1\n  sstore\n  pop\n    /* \"contracts/CollateralManager.sol\":1292:1311  _priceOracleAddress */\n  dup1\n    /* \"contracts/CollateralManager.sol\":1258:1269  priceOracle */\n  0x03\n  0x00\n    /* \"contracts/CollateralManager.sol\":1258:1312  priceOracle = MellowFiPriceOracle(_priceOracleAddress) */\n  0x0100\n  exp\n  dup2\n  sload\n  dup2\n  0xffffffffffffffffffffffffffffffffffffffff\n  mul\n  not\n  and\n  swap1\n  dup4\n  0xffffffffffffffffffffffffffffffffffffffff\n  and\n  mul\n  or\n  swap1\n  sstore\n  pop\n    /* \"contracts/CollateralManager.sol\":1121:1319  constructor(IERC20 _collateralToken,... */\n  pop\n  pop\n    /* \"contracts/CollateralManager.sol\":318:4325  contract CollateralManager is ReentrancyGuard, Pausable, Ownable {... */\n  jump(tag_17)\n    /* \"@openzeppelin/contracts/access/Ownable.sol\":2912:3099  function _transferOwnership(address newOwner) internal virtual {... */\ntag_15:\n    /* \"@openzeppelin/contracts/access/Ownable.sol\":2985:3001  address oldOwner */\n  0x00\n    /* \"@openzeppelin/contracts/access/Ownable.sol\":3004:3010  _owner */\n  0x01\n  dup1\n  sload\n  swap1\n  0x0100\n  exp\n  swap1\n  div\n  0xffffffffffffffffffffffffffffffffffffffff\n  and\n    /* \"@openzeppelin/contracts/access/Ownable.sol\":2985:3010  address oldOwner = _owner */\n  swap1\n  pop\n    /* \"@openzeppelin/contracts/access/Ownable.sol\":3029:3037  newOwner */\n  dup2\n    /* \"@openzeppelin/contracts/access/Ownable.sol\":3020:3026  _owner */\n  0x01\n  dup1\n    /* \"@openzeppelin/contracts/access/Ownable.sol\":3020:3037  _owner = newOwner */\n  0x0100\n  exp\n  dup2\n  sload\n  dup2\n  0xffffffffffffffffffffffffffffffffffffffff\n  mul\n  not\n  and\n  swap1\n  dup4\n  0xffffffffffffffffffffffffffffffffffffffff\n  and\n  mul\n  or\n  swap1\n  sstore\n  pop\n    /* \"@openzeppelin/contracts/access/Ownable.sol\":3083:3091  newOwner */\n  dup2\n    /* \"@openzeppelin/contracts/access/Ownable.sol\":3052:3092  OwnershipTransferred(oldOwner, newOwner) */\n  0xffffffffffffffffffffffffffffffffffffffff\n  and\n    /* \"@openzeppelin/contracts/access/Ownable.sol\":3073:3081  oldOwner */\n  dup2\n    /* \"@openzeppelin/contracts/access/Ownable.sol\":3052:3092  OwnershipTransferred(oldOwner, newOwner) */\n  0xffffffffffffffffffffffffffffffffffffffff\n  and\n  0x8be0079c531659141344cd1fd0a4f28419497f9722a3daafe3b4186f6b6457e0\n  mload(0x40)\n  mload(0x40)\n  dup1\n  swap2\n  sub\n  swap1\n  log3\n    /* \"@openzeppelin/contracts/access/Ownable.sol\":2975:3099  {... */\n  pop\n    /* \"@openzeppelin/contracts/access/Ownable.sol\":2912:3099  function _transferOwnership(address newOwner) internal virtual {... */\n  pop\n  jump\t// out\n    /* \"#utility.yul\":88:205   */\ntag_20:\n    /* \"#utility.yul\":197:198   */\n  0x00\n    /* \"#utility.yul\":194:195   */\n  dup1\n    /* \"#utility.yul\":187:199   */\n  revert\n    /* \"#utility.yul\":334:460   */\ntag_22:\n    /* \"#utility.yul\":371:378   */\n  0x00\n    /* \"#utility.yul\":411:453   */\n  0xffffffffffffffffffffffffffffffffffffffff\n    /* \"#utility.yul\":404:409   */\n  dup3\n    /* \"#utility.yul\":400:454   */\n  and\n    /* \"#utility.yul\":389:454   */\n  swap1\n  pop\n    /* \"#utility.yul\":334:460   */\n  swap2\n  swap1\n  pop\n  jump\t// out\n    /* \"#utility.yul\":466:562   */\ntag_23:\n    /* \"#utility.yul\":503:510   */\n  0x00\n    /* \"#utility.yul\":532:556   */\n  tag_36\n    /* \"#utility.yul\":550:555   */\n  dup3\n    /* \"#utility.yul\":532:556   */\n  tag_22\n  jump\t// in\ntag_36:\n    /* \"#utility.yul\":521:556   */\n  swap1\n  pop\n    /* \"#utility.yul\":466:562   */\n  swap2\n  swap1\n  pop\n  jump\t// out\n    /* \"#utility.yul\":568:678   */\ntag_24:\n    /* \"#utility.yul\":619:626   */\n  0x00\n    /* \"#utility.yul\":648:672   */\n  tag_38\n    /* \"#utility.yul\":666:671   */\n  dup3\n    /* \"#utility.yul\":648:672   */\n  tag_23\n  jump\t// in\ntag_38:\n    /* \"#utility.yul\":637:672   */\n  swap1\n  pop\n    /* \"#utility.yul\":568:678   */\n  swap2\n  swap1\n  pop\n  jump\t// out\n    /* \"#utility.yul\":684:834   */\ntag_25:\n    /* \"#utility.yul\":771:809   */\n  tag_40\n    /* \"#utility.yul\":803:808   */\n  dup2\n    /* \"#utility.yul\":771:809   */\n  tag_24\n  jump\t// in\ntag_40:\n    /* \"#utility.yul\":764:769   */\n  dup2\n    /* \"#utility.yul\":761:810   */\n  eq\n    /* \"#utility.yul\":751:828   */\n  tag_41\n  jumpi\n    /* \"#utility.yul\":824:825   */\n  0x00\n    /* \"#utility.yul\":821:822   */\n  dup1\n    /* \"#utility.yul\":814:826   */\n  revert\n    /* \"#utility.yul\":751:828   */\ntag_41:\n    /* \"#utility.yul\":684:834   */\n  pop\n  jump\t// out\n    /* \"#utility.yul\":840:1011   */\ntag_26:\n    /* \"#utility.yul\":911:916   */\n  0x00\n    /* \"#utility.yul\":942:948   */\n  dup2\n    /* \"#utility.yul\":936:949   */\n  mload\n    /* \"#utility.yul\":927:949   */\n  swap1\n  pop\n    /* \"#utility.yul\":958:1005   */\n  tag_43\n    /* \"#utility.yul\":999:1004   */\n  dup2\n    /* \"#utility.yul\":958:1005   */\n  tag_25\n  jump\t// in\ntag_43:\n    /* \"#utility.yul\":840:1011   */\n  swap3\n  swap2\n  pop\n  pop\n  jump\t// out\n    /* \"#utility.yul\":1017:1139   */\ntag_27:\n    /* \"#utility.yul\":1090:1114   */\n  tag_45\n    /* \"#utility.yul\":1108:1113   */\n  dup2\n    /* \"#utility.yul\":1090:1114   */\n  tag_23\n  jump\t// in\ntag_45:\n    /* \"#utility.yul\":1083:1088   */\n  dup2\n    /* \"#utility.yul\":1080:1115   */\n  eq\n    /* \"#utility.yul\":1070:1133   */\n  tag_46\n  jumpi\n    /* \"#utility.yul\":1129:1130   */\n  0x00\n    /* \"#utility.yul\":1126:1127   */\n  dup1\n    /* \"#utility.yul\":1119:1131   */\n  revert\n    /* \"#utility.yul\":1070:1133   */\ntag_46:\n    /* \"#utility.yul\":1017:1139   */\n  pop\n  jump\t// out\n    /* \"#utility.yul\":1145:1288   */\ntag_28:\n    /* \"#utility.yul\":1202:1207   */\n  0x00\n    /* \"#utility.yul\":1233:1239   */\n  dup2\n    /* \"#utility.yul\":1227:1240   */\n  mload\n    /* \"#utility.yul\":1218:1240   */\n  swap1\n  pop\n    /* \"#utility.yul\":1249:1282   */\n  tag_48\n    /* \"#utility.yul\":1276:1281   */\n  dup2\n    /* \"#utility.yul\":1249:1282   */\n  tag_27\n  jump\t// in\ntag_48:\n    /* \"#utility.yul\":1145:1288   */\n  swap3\n  swap2\n  pop\n  pop\n  jump\t// out\n    /* \"#utility.yul\":1294:1829   */\ntag_3:\n    /* \"#utility.yul\":1387:1393   */\n  0x00\n    /* \"#utility.yul\":1395:1401   */\n  dup1\n    /* \"#utility.yul\":1444:1446   */\n  0x40\n    /* \"#utility.yul\":1432:1441   */\n  dup4\n    /* \"#utility.yul\":1423:1430   */\n  dup6\n    /* \"#utility.yul\":1419:1442   */\n  sub\n    /* \"#utility.yul\":1415:1447   */\n  slt\n    /* \"#utility.yul\":1412:1531   */\n  iszero\n  tag_50\n  jumpi\n    /* \"#utility.yul\":1450:1529   */\n  tag_51\n  tag_20\n  jump\t// in\ntag_51:\n    /* \"#utility.yul\":1412:1531   */\ntag_50:\n    /* \"#utility.yul\":1570:1571   */\n  0x00\n    /* \"#utility.yul\":1595:1673   */\n  tag_52\n    /* \"#utility.yul\":1665:1672   */\n  dup6\n    /* \"#utility.yul\":1656:1662   */\n  dup3\n    /* \"#utility.yul\":1645:1654   */\n  dup7\n    /* \"#utility.yul\":1641:1663   */\n  add\n    /* \"#utility.yul\":1595:1673   */\n  tag_26\n  jump\t// in\ntag_52:\n    /* \"#utility.yul\":1585:1673   */\n  swap3\n  pop\n    /* \"#utility.yul\":1541:1683   */\n  pop\n    /* \"#utility.yul\":1722:1724   */\n  0x20\n    /* \"#utility.yul\":1748:1812   */\n  tag_53\n    /* \"#utility.yul\":1804:1811   */\n  dup6\n    /* \"#utility.yul\":1795:1801   */\n  dup3\n    /* \"#utility.yul\":1784:1793   */\n  dup7\n    /* \"#utility.yul\":1780:1802   */\n  add\n    /* \"#utility.yul\":1748:1812   */\n  tag_28\n  jump\t// in\ntag_53:\n    /* \"#utility.yul\":1738:1812   */\n  swap2\n  pop\n    /* \"#utility.yul\":1693:1822   */\n  pop\n    /* \"#utility.yul\":1294:1829   */\n  swap3\n  pop\n  swap3\n  swap1\n  pop\n  jump\t// out\n    /* \"#utility.yul\":1835:1953   */\ntag_29:\n    /* \"#utility.yul\":1922:1946   */\n  tag_55\n    /* \"#utility.yul\":1940:1945   */\n  dup2\n    /* \"#utility.yul\":1922:1946   */\n  tag_23\n  jump\t// in\ntag_55:\n    /* \"#utility.yul\":1917:1920   */\n  dup3\n    /* \"#utility.yul\":1910:1947   */\n  mstore\n    /* \"#utility.yul\":1835:1953   */\n  pop\n  pop\n  jump\t// out\n    /* \"#utility.yul\":1959:2181   */\ntag_13:\n    /* \"#utility.yul\":2052:2056   */\n  0x00\n    /* \"#utility.yul\":2090:2092   */\n  0x20\n    /* \"#utility.yul\":2079:2088   */\n  dup3\n    /* \"#utility.yul\":2075:2093   */\n  add\n    /* \"#utility.yul\":2067:2093   */\n  swap1\n  pop\n    /* \"#utility.yul\":2103:2174   */\n  tag_57\n    /* \"#utility.yul\":2171:2172   */\n  0x00\n    /* \"#utility.yul\":2160:2169   */\n  dup4\n    /* \"#utility.yul\":2156:2173   */\n  add\n    /* \"#utility.yul\":2147:2153   */\n  dup5\n    /* \"#utility.yul\":2103:2174   */\n  tag_29\n  jump\t// in\ntag_57:\n    /* \"#utility.yul\":1959:2181   */\n  swap3\n  swap2\n  pop\n  pop\n  jump\t// out\n    /* \"contracts/CollateralManager.sol\":318:4325  contract CollateralManager is ReentrancyGuard, Pausable, Ownable {... */\ntag_17:\n  dataSize(sub_0)\n  dup1\n  dataOffset(sub_0)\n  0x00\n  codecopy\n  0x00\n  return\nstop\n\nsub_0: assembly {\n        /* \"contracts/CollateralManager.sol\":318:4325  contract CollateralManager is ReentrancyGuard, Pausable, Ownable {... */\n      mstore(0x40, 0x80)\n      jumpi(tag_1, lt(calldatasize, 0x04))\n      shr(0xe0, calldataload(0x00))\n      dup1\n      0x60b3b338\n      gt\n      tag_23\n      jumpi\n      dup1\n      0x9083baa6\n      gt\n      tag_24\n      jumpi\n      dup1\n      0x9083baa6\n      eq\n      tag_17\n      jumpi\n      dup1\n      0x9e30bce7\n      eq\n      tag_18\n      jumpi\n      dup1\n      0xa98ad46c\n      eq\n      tag_19\n      jumpi\n      dup1\n      0xc3b2a4a4\n      eq\n      tag_20\n      jumpi\n      dup1\n      0xd57ac70d\n      eq\n      tag_21\n      jumpi\n      dup1\n      0xf2fde38b\n      eq\n      tag_22\n      jumpi\n      jump(tag_1)\n    tag_24:\n      dup1\n      0x60b3b338\n      eq\n      tag_12\n      jumpi\n      dup1\n      0x715018a6\n      eq\n      tag_13\n      jumpi\n      dup1\n      0x8456cb59\n      eq\n      tag_14\n      jumpi\n      dup1\n      0x8da5cb5b\n      eq\n      tag_15\n      jumpi\n      dup1\n      0x8e817efe\n      eq\n      tag_16\n      jumpi\n      jump(tag_1)\n    tag_23:\n      dup1\n      0x2f5723d5\n      gt\n      tag_25\n      jumpi\n      dup1\n      0x2f5723d5\n      eq\n      tag_7\n      jumpi\n      dup1\n      0x3f4ba83a\n      eq\n      tag_8\n      jumpi\n      dup1\n      0x5269384e\n      eq\n      tag_9\n      jumpi\n      dup1\n      0x52ce9714\n      eq\n      tag_10\n      jumpi\n      dup1\n      0x5c975abb\n      eq\n      tag_11\n      jumpi\n      jump(tag_1)\n    tag_25:\n      dup1\n      0x04885115\n      eq\n      tag_2\n      jumpi\n      dup1\n      0x09b8aafd\n      eq\n      tag_3\n      jumpi\n      dup1\n      0x192e7a7b\n      eq\n      tag_4\n      jumpi\n      dup1\n      0x2630c12f\n      eq\n      tag_5\n      jumpi\n      dup1\n      0x2703ee85\n      eq\n      tag_6\n      jumpi\n    tag_1:\n      0x00\n      dup1\n      revert\n        /* \"contracts/CollateralManager.sol\":594:639  uint256 public maxCollateralAmount = 10 ether */\n    tag_2:\n      callvalue\n      dup1\n      iszero\n      tag_26\n      jumpi\n      0x00\n      dup1\n      revert\n    tag_26:\n      pop\n      tag_27\n      tag_28\n      jump\t// in\n    tag_27:\n      mload(0x40)\n      tag_29\n      swap2\n      swap1\n      tag_30\n      jump\t// in\n    tag_29:\n      mload(0x40)\n      dup1\n      swap2\n      sub\n      swap1\n      return\n        /* \"contracts/CollateralManager.sol\":3561:3973  function getCollateralBalanceinUSD(address _user) external view returns (uint256) {... */\n    tag_3:\n      callvalue\n      dup1\n      iszero\n      tag_31\n      jumpi\n      0x00\n      dup1\n      revert\n    tag_31:\n      pop\n      tag_32\n      0x04\n      dup1\n      calldatasize\n      sub\n      dup2\n      add\n      swap1\n      tag_33\n      swap2\n      swap1\n      tag_34\n      jump\t// in\n    tag_33:\n      tag_35\n      jump\t// in\n    tag_32:\n      mload(0x40)\n      tag_36\n      swap2\n      swap1\n      tag_30\n      jump\t// in\n    tag_36:\n      mload(0x40)\n      dup1\n      swap2\n      sub\n      swap1\n      return\n        /* \"contracts/CollateralManager.sol\":3979:4161  function releaseFunds(address user) external nonReentrant{... */\n    tag_4:\n      callvalue\n      dup1\n      iszero\n      tag_37\n      jumpi\n      0x00\n      dup1\n      revert\n    tag_37:\n      pop\n      tag_38\n      0x04\n      dup1\n      calldatasize\n      sub\n      dup2\n      add\n      swap1\n      tag_39\n      swap2\n      swap1\n      tag_34\n      jump\t// in\n    tag_39:\n      tag_40\n      jump\t// in\n    tag_38:\n      stop\n        /* \"contracts/CollateralManager.sol\":419:457  MellowFiPriceOracle public priceOracle */\n    tag_5:\n      callvalue\n      dup1\n      iszero\n      tag_41\n      jumpi\n      0x00\n      dup1\n      revert\n    tag_41:\n      pop\n      tag_42\n      tag_43\n      jump\t// in\n    tag_42:\n      mload(0x40)\n      tag_44\n      swap2\n      swap1\n      tag_45\n      jump\t// in\n    tag_44:\n      mload(0x40)\n      dup1\n      swap2\n      sub\n      swap1\n      return\n        /* \"contracts/CollateralManager.sol\":3343:3517  function getCollateralBalance(address _user) external view returns (uint256 celo, uint256 usdt) {... */\n    tag_6:\n      callvalue\n      dup1\n      iszero\n      tag_46\n      jumpi\n      0x00\n      dup1\n      revert\n    tag_46:\n      pop\n      tag_47\n      0x04\n      dup1\n      calldatasize\n      sub\n      dup2\n      add\n      swap1\n      tag_48\n      swap2\n      swap1\n      tag_34\n      jump\t// in\n    tag_48:\n      tag_49\n      jump\t// in\n    tag_47:\n      mload(0x40)\n      tag_50\n      swap3\n      swap2\n      swap1\n      tag_51\n      jump\t// in\n    tag_50:\n      mload(0x40)\n      dup1\n      swap2\n      sub\n      swap1\n      return\n        /* \"contracts/CollateralManager.sol\":2323:2764  function depositUsdtCollateral(uint256 _amount) external nonReentrant whenNotPaused {... */\n    tag_7:\n      callvalue\n      dup1\n      iszero\n      tag_52\n      jumpi\n      0x00\n      dup1\n      revert\n    tag_52:\n      pop\n      tag_53\n      0x04\n      dup1\n      calldatasize\n      sub\n      dup2\n      add\n      swap1\n      tag_54\n      swap2\n      swap1\n      tag_55\n      jump\t// in\n    tag_54:\n      tag_56\n      jump\t// in\n    tag_53:\n      stop\n        /* \"contracts/CollateralManager.sol\":4258:4323  function unpause() external onlyOwner {... */\n    tag_8:\n      callvalue\n      dup1\n      iszero\n      tag_57\n      jumpi\n      0x00\n      dup1\n      revert\n    tag_57:\n      pop\n      tag_58\n      tag_59\n      jump\t// in\n    tag_58:\n      stop\n        /* \"contracts/CollateralManager.sol\":543:587  uint256 public minCollateralAmount = 1 ether */\n    tag_9:\n      callvalue\n      dup1\n      iszero\n      tag_60\n      jumpi\n      0x00\n      dup1\n      revert\n    tag_60:\n      pop\n      tag_61\n      tag_62\n      jump\t// in\n    tag_61:\n      mload(0x40)\n      tag_63\n      swap2\n      swap1\n      tag_30\n      jump\t// in\n    tag_63:\n      mload(0x40)\n      dup1\n      swap2\n      sub\n      swap1\n      return\n        /* \"contracts/CollateralManager.sol\":2770:3337  function withdrawUsdtCollateral(uint256 _amount) external nonReentrant whenNotPaused {... */\n    tag_10:\n      callvalue\n      dup1\n      iszero\n      tag_64\n      jumpi\n      0x00\n      dup1\n      revert\n    tag_64:\n      pop\n      tag_65\n      0x04\n      dup1\n      calldatasize\n      sub\n      dup2\n      add\n      swap1\n      tag_66\n      swap2\n      swap1\n      tag_55\n      jump\t// in\n    tag_66:\n      tag_67\n      jump\t// in\n    tag_65:\n      stop\n        /* \"@openzeppelin/contracts/utils/Pausable.sol\":1850:1934  function paused() public view virtual returns (bool) {... */\n    tag_11:\n      callvalue\n      dup1\n      iszero\n      tag_68\n      jumpi\n      0x00\n      dup1\n      revert\n    tag_68:\n      pop\n      tag_69\n      tag_70\n      jump\t// in\n    tag_69:\n      mload(0x40)\n      tag_71\n      swap2\n      swap1\n      tag_72\n      jump\t// in\n    tag_71:\n      mload(0x40)\n      dup1\n      swap2\n      sub\n      swap1\n      return\n        /* \"contracts/CollateralManager.sol\":463:497  uint256 public totalCollateralCelo */\n    tag_12:\n      callvalue\n      dup1\n      iszero\n      tag_73\n      jumpi\n      0x00\n      dup1\n      revert\n    tag_73:\n      pop\n      tag_74\n      tag_75\n      jump\t// in\n    tag_74:\n      mload(0x40)\n      tag_76\n      swap2\n      swap1\n      tag_30\n      jump\t// in\n    tag_76:\n      mload(0x40)\n      dup1\n      swap2\n      sub\n      swap1\n      return\n        /* \"@openzeppelin/contracts/access/Ownable.sol\":2293:2394  function renounceOwnership() public virtual onlyOwner {... */\n    tag_13:\n      callvalue\n      dup1\n      iszero\n      tag_77\n      jumpi\n      0x00\n      dup1\n      revert\n    tag_77:\n      pop\n      tag_78\n      tag_79\n      jump\t// in\n    tag_78:\n      stop\n        /* \"contracts/CollateralManager.sol\":4191:4252  function pause() external onlyOwner {... */\n    tag_14:\n      callvalue\n      dup1\n      iszero\n      tag_80\n      jumpi\n      0x00\n      dup1\n      revert\n    tag_80:\n      pop\n      tag_81\n      tag_82\n      jump\t// in\n    tag_81:\n      stop\n        /* \"@openzeppelin/contracts/access/Ownable.sol\":1638:1723  function owner() public view virtual returns (address) {... */\n    tag_15:\n      callvalue\n      dup1\n      iszero\n      tag_83\n      jumpi\n      0x00\n      dup1\n      revert\n    tag_83:\n      pop\n      tag_84\n      tag_85\n      jump\t// in\n    tag_84:\n      mload(0x40)\n      tag_86\n      swap2\n      swap1\n      tag_87\n      jump\t// in\n    tag_86:\n      mload(0x40)\n      dup1\n      swap2\n      sub\n      swap1\n      return\n        /* \"contracts/CollateralManager.sol\":1789:2317  function withdrawCeloCollateral(uint256 _amount) external nonReentrant whenNotPaused {... */\n    tag_16:\n      callvalue\n      dup1\n      iszero\n      tag_88\n      jumpi\n      0x00\n      dup1\n      revert\n    tag_88:\n      pop\n      tag_89\n      0x04\n      dup1\n      calldatasize\n      sub\n      dup2\n      add\n      swap1\n      tag_90\n      swap2\n      swap1\n      tag_55\n      jump\t// in\n    tag_90:\n      tag_91\n      jump\t// in\n    tag_89:\n      stop\n        /* \"contracts/CollateralManager.sol\":503:537  uint256 public totalCollateralUsdt */\n    tag_17:\n      callvalue\n      dup1\n      iszero\n      tag_92\n      jumpi\n      0x00\n      dup1\n      revert\n    tag_92:\n      pop\n      tag_93\n      tag_94\n      jump\t// in\n    tag_93:\n      mload(0x40)\n      tag_95\n      swap2\n      swap1\n      tag_30\n      jump\t// in\n    tag_95:\n      mload(0x40)\n      dup1\n      swap2\n      sub\n      swap1\n      return\n        /* \"contracts/CollateralManager.sol\":709:762  mapping(address => uint256) public userCollateralCelo */\n    tag_18:\n      callvalue\n      dup1\n      iszero\n      tag_96\n      jumpi\n      0x00\n      dup1\n      revert\n    tag_96:\n      pop\n      tag_97\n      0x04\n      dup1\n      calldatasize\n      sub\n      dup2\n      add\n      swap1\n      tag_98\n      swap2\n      swap1\n      tag_34\n      jump\t// in\n    tag_98:\n      tag_99\n      jump\t// in\n    tag_97:\n      mload(0x40)\n      tag_100\n      swap2\n      swap1\n      tag_30\n      jump\t// in\n    tag_100:\n      mload(0x40)\n      dup1\n      swap2\n      sub\n      swap1\n      return\n        /* \"contracts/CollateralManager.sol\":390:413  IERC20 public usdtToken */\n    tag_19:\n      callvalue\n      dup1\n      iszero\n      tag_101\n      jumpi\n      0x00\n      dup1\n      revert\n    tag_101:\n      pop\n      tag_102\n      tag_103\n      jump\t// in\n    tag_102:\n      mload(0x40)\n      tag_104\n      swap2\n      swap1\n      tag_105\n      jump\t// in\n    tag_104:\n      mload(0x40)\n      dup1\n      swap2\n      sub\n      swap1\n      return\n        /* \"contracts/CollateralManager.sol\":768:821  mapping(address => uint256) public userCollateralUsdt */\n    tag_20:\n      callvalue\n      dup1\n      iszero\n      tag_106\n      jumpi\n      0x00\n      dup1\n      revert\n    tag_106:\n      pop\n      tag_107\n      0x04\n      dup1\n      calldatasize\n      sub\n      dup2\n      add\n      swap1\n      tag_108\n      swap2\n      swap1\n      tag_34\n      jump\t// in\n    tag_108:\n      tag_109\n      jump\t// in\n    tag_107:\n      mload(0x40)\n      tag_110\n      swap2\n      swap1\n      tag_30\n      jump\t// in\n    tag_110:\n      mload(0x40)\n      dup1\n      swap2\n      sub\n      swap1\n      return\n        /* \"contracts/CollateralManager.sol\":1325:1783  function depositCeloCollateral() external payable nonReentrant whenNotPaused {... */\n    tag_21:\n      tag_111\n      tag_112\n      jump\t// in\n    tag_111:\n      stop\n        /* \"@openzeppelin/contracts/access/Ownable.sol\":2543:2758  function transferOwnership(address newOwner) public virtual onlyOwner {... */\n    tag_22:\n      callvalue\n      dup1\n      iszero\n      tag_113\n      jumpi\n      0x00\n      dup1\n      revert\n    tag_113:\n      pop\n      tag_114\n      0x04\n      dup1\n      calldatasize\n      sub\n      dup2\n      add\n      swap1\n      tag_115\n      swap2\n      swap1\n      tag_34\n      jump\t// in\n    tag_115:\n      tag_116\n      jump\t// in\n    tag_114:\n      stop\n        /* \"contracts/CollateralManager.sol\":594:639  uint256 public maxCollateralAmount = 10 ether */\n    tag_28:\n      sload(0x07)\n      dup2\n      jump\t// out\n        /* \"contracts/CollateralManager.sol\":3561:3973  function getCollateralBalanceinUSD(address _user) external view returns (uint256) {... */\n    tag_35:\n        /* \"contracts/CollateralManager.sol\":3634:3641  uint256 */\n      0x00\n        /* \"contracts/CollateralManager.sol\":3653:3675  uint256 celoPriceInUSD */\n      dup1\n        /* \"contracts/CollateralManager.sol\":3686:3697  priceOracle */\n      0x03\n      0x00\n      swap1\n      sload\n      swap1\n      0x0100\n      exp\n      swap1\n      div\n      0xffffffffffffffffffffffffffffffffffffffff\n      and\n        /* \"contracts/CollateralManager.sol\":3686:3710  priceOracle.getCeloPrice */\n      0xffffffffffffffffffffffffffffffffffffffff\n      and\n      0x73544cfd\n        /* \"contracts/CollateralManager.sol\":3686:3712  priceOracle.getCeloPrice() */\n      mload(0x40)\n      dup2\n      0xffffffff\n      and\n      0xe0\n      shl\n      dup2\n      mstore\n      0x04\n      add\n      0x20\n      mload(0x40)\n      dup1\n      dup4\n      sub\n      dup2\n      dup7\n      gas\n      staticcall\n      iszero\n      dup1\n      iszero\n      tag_119\n      jumpi\n      returndatasize\n      0x00\n      dup1\n      returndatacopy\n      revert(0x00, returndatasize)\n    tag_119:\n      pop\n      pop\n      pop\n      pop\n      mload(0x40)\n      returndatasize\n      not(0x1f)\n      0x1f\n      dup3\n      add\n      and\n      dup3\n      add\n      dup1\n      0x40\n      mstore\n      pop\n      dup2\n      add\n      swap1\n      tag_120\n      swap2\n      swap1\n      tag_121\n      jump\t// in\n    tag_120:\n        /* \"contracts/CollateralManager.sol\":3653:3713  uint256 celoPriceInUSD = uint256(priceOracle.getCeloPrice()) */\n      swap1\n      pop\n        /* \"contracts/CollateralManager.sol\":3723:3745  uint256 usdtPriceInUSD */\n      0x00\n        /* \"contracts/CollateralManager.sol\":3756:3767  priceOracle */\n      0x03\n      0x00\n      swap1\n      sload\n      swap1\n      0x0100\n      exp\n      swap1\n      div\n      0xffffffffffffffffffffffffffffffffffffffff\n      and\n        /* \"contracts/CollateralManager.sol\":3756:3780  priceOracle.getUsdtPrice */\n      0xffffffffffffffffffffffffffffffffffffffff\n      and\n      0x961bdfbf\n        /* \"contracts/CollateralManager.sol\":3756:3782  priceOracle.getUsdtPrice() */\n      mload(0x40)\n      dup2\n      0xffffffff\n      and\n      0xe0\n      shl\n      dup2\n      mstore\n      0x04\n      add\n      0x20\n      mload(0x40)\n      dup1\n      dup4\n      sub\n      dup2\n      dup7\n      gas\n      staticcall\n      iszero\n      dup1\n      iszero\n      tag_123\n      jumpi\n      returndatasize\n      0x00\n      dup1\n      returndatacopy\n      revert(0x00, returndatasize)\n    tag_123:\n      pop\n      pop\n      pop\n      pop\n      mload(0x40)\n      returndatasize\n      not(0x1f)\n      0x1f\n      dup3\n      add\n      and\n      dup3\n      add\n      dup1\n      0x40\n      mstore\n      pop\n      dup2\n      add\n      swap1\n      tag_124\n      swap2\n      swap1\n      tag_121\n      jump\t// in\n    tag_124:\n        /* \"contracts/CollateralManager.sol\":3723:3783  uint256 usdtPriceInUSD = uint256(priceOracle.getUsdtPrice()) */\n      swap1\n      pop\n        /* \"contracts/CollateralManager.sol\":3793:3821  uint256 totalCollateralInUSD */\n      0x00\n        /* \"contracts/CollateralManager.sol\":3924:3928  1e18 */\n      0x0de0b6b3a7640000\n        /* \"contracts/CollateralManager.sol\":3906:3920  usdtPriceInUSD */\n      dup3\n        /* \"contracts/CollateralManager.sol\":3878:3896  userCollateralUsdt */\n      0x09\n        /* \"contracts/CollateralManager.sol\":3878:3903  userCollateralUsdt[_user] */\n      0x00\n        /* \"contracts/CollateralManager.sol\":3897:3902  _user */\n      dup9\n        /* \"contracts/CollateralManager.sol\":3878:3903  userCollateralUsdt[_user] */\n      0xffffffffffffffffffffffffffffffffffffffff\n      and\n      0xffffffffffffffffffffffffffffffffffffffff\n      and\n      dup2\n      mstore\n      0x20\n      add\n      swap1\n      dup2\n      mstore\n      0x20\n      add\n      0x00\n      keccak256\n      sload\n        /* \"contracts/CollateralManager.sol\":3878:3920  userCollateralUsdt[_user] * usdtPriceInUSD */\n      tag_125\n      swap2\n      swap1\n      tag_126\n      jump\t// in\n    tag_125:\n        /* \"contracts/CollateralManager.sol\":3878:3929  userCollateralUsdt[_user] * usdtPriceInUSD / (1e18) */\n      tag_127\n      swap2\n      swap1\n      tag_128\n      jump\t// in\n    tag_127:\n        /* \"contracts/CollateralManager.sol\":3870:3874  1e18 */\n      0x0de0b6b3a7640000\n        /* \"contracts/CollateralManager.sol\":3852:3866  celoPriceInUSD */\n      dup5\n        /* \"contracts/CollateralManager.sol\":3824:3842  userCollateralCelo */\n      0x08\n        /* \"contracts/CollateralManager.sol\":3824:3849  userCollateralCelo[_user] */\n      0x00\n        /* \"contracts/CollateralManager.sol\":3843:3848  _user */\n      dup10\n        /* \"contracts/CollateralManager.sol\":3824:3849  userCollateralCelo[_user] */\n      0xffffffffffffffffffffffffffffffffffffffff\n      and\n      0xffffffffffffffffffffffffffffffffffffffff\n      and\n      dup2\n      mstore\n      0x20\n      add\n      swap1\n      dup2\n      mstore\n      0x20\n      add\n      0x00\n      keccak256\n      sload\n        /* \"contracts/CollateralManager.sol\":3824:3866  userCollateralCelo[_user] * celoPriceInUSD */\n      tag_129\n      swap2\n      swap1\n      tag_126\n      jump\t// in\n    tag_129:\n        /* \"contracts/CollateralManager.sol\":3824:3875  userCollateralCelo[_user] * celoPriceInUSD / (1e18) */\n      tag_130\n      swap2\n      swap1\n      tag_128\n      jump\t// in\n    tag_130:\n        /* \"contracts/CollateralManager.sol\":3824:3929  userCollateralCelo[_user] * celoPriceInUSD / (1e18) + userCollateralUsdt[_user] * usdtPriceInUSD / (1e18) */\n      tag_131\n      swap2\n      swap1\n      tag_132\n      jump\t// in\n    tag_131:\n        /* \"contracts/CollateralManager.sol\":3793:3929  uint256 totalCollateralInUSD = userCollateralCelo[_user] * celoPriceInUSD / (1e18) + userCollateralUsdt[_user] * usdtPriceInUSD / (1e18) */\n      swap1\n      pop\n        /* \"contracts/CollateralManager.sol\":3946:3966  totalCollateralInUSD */\n      dup1\n        /* \"contracts/CollateralManager.sol\":3939:3966  return totalCollateralInUSD */\n      swap4\n      pop\n      pop\n      pop\n      pop\n        /* \"contracts/CollateralManager.sol\":3561:3973  function getCollateralBalanceinUSD(address _user) external view returns (uint256) {... */\n      swap2\n      swap1\n      pop\n      jump\t// out\n        /* \"contracts/CollateralManager.sol\":3979:4161  function releaseFunds(address user) external nonReentrant{... */\n    tag_40:\n        /* \"@openzeppelin/contracts/utils/ReentrancyGuard.sol\":2356:2377  _nonReentrantBefore() */\n      tag_134\n        /* \"@openzeppelin/contracts/utils/ReentrancyGuard.sol\":2356:2375  _nonReentrantBefore */\n      tag_135\n        /* \"@openzeppelin/contracts/utils/ReentrancyGuard.sol\":2356:2377  _nonReentrantBefore() */\n      jump\t// in\n    tag_134:\n        /* \"contracts/CollateralManager.sol\":4054:4058  user */\n      dup1\n        /* \"contracts/CollateralManager.sol\":4046:4068  payable(user).transfer */\n      0xffffffffffffffffffffffffffffffffffffffff\n      and\n        /* \"contracts/CollateralManager.sol\":4046:4094  payable(user).transfer(userCollateralCelo[user]) */\n      0x08fc\n        /* \"contracts/CollateralManager.sol\":4069:4087  userCollateralCelo */\n      0x08\n        /* \"contracts/CollateralManager.sol\":4069:4093  userCollateralCelo[user] */\n      0x00\n        /* \"contracts/CollateralManager.sol\":4088:4092  user */\n      dup5\n        /* \"contracts/CollateralManager.sol\":4069:4093  userCollateralCelo[user] */\n      0xffffffffffffffffffffffffffffffffffffffff\n      and\n      0xffffffffffffffffffffffffffffffffffffffff\n      and\n      dup2\n      mstore\n      0x20\n      add\n      swap1\n      dup2\n      mstore\n      0x20\n      add\n      0x00\n      keccak256\n      sload\n        /* \"contracts/CollateralManager.sol\":4046:4094  payable(user).transfer(userCollateralCelo[user]) */\n      swap1\n      dup2\n      iszero\n      mul\n      swap1\n      mload(0x40)\n      0x00\n      mload(0x40)\n      dup1\n      dup4\n      sub\n      dup2\n      dup6\n      dup9\n      dup9\n      call\n      swap4\n      pop\n      pop\n      pop\n      pop\n      iszero\n      dup1\n      iszero\n      tag_138\n      jumpi\n      returndatasize\n      0x00\n      dup1\n      returndatacopy\n      revert(0x00, returndatasize)\n    tag_138:\n      pop\n        /* \"contracts/CollateralManager.sol\":4104:4113  usdtToken */\n      0x02\n      0x00\n      swap1\n      sload\n      swap1\n      0x0100\n      exp\n      swap1\n      div\n      0xffffffffffffffffffffffffffffffffffffffff\n      and\n        /* \"contracts/CollateralManager.sol\":4104:4122  usdtToken.transfer */\n      0xffffffffffffffffffffffffffffffffffffffff\n      and\n      0xa9059cbb\n        /* \"contracts/CollateralManager.sol\":4123:4127  user */\n      dup3\n        /* \"contracts/CollateralManager.sol\":4129:4147  userCollateralUsdt */\n      0x09\n        /* \"contracts/CollateralManager.sol\":4129:4153  userCollateralUsdt[user] */\n      0x00\n        /* \"contracts/CollateralManager.sol\":4148:4152  user */\n      dup6\n        /* \"contracts/CollateralManager.sol\":4129:4153  userCollateralUsdt[user] */\n      0xffffffffffffffffffffffffffffffffffffffff\n      and\n      0xffffffffffffffffffffffffffffffffffffffff\n      and\n      dup2\n      mstore\n      0x20\n      add\n      swap1\n      dup2\n      mstore\n      0x20\n      add\n      0x00\n      keccak256\n      sload\n        /* \"contracts/CollateralManager.sol\":4104:4154  usdtToken.transfer(user, userCollateralUsdt[user]) */\n      mload(0x40)\n      dup4\n      0xffffffff\n      and\n      0xe0\n      shl\n      dup2\n      mstore\n      0x04\n      add\n      tag_139\n      swap3\n      swap2\n      swap1\n      tag_140\n      jump\t// in\n    tag_139:\n      0x20\n      mload(0x40)\n      dup1\n      dup4\n      sub\n      dup2\n      0x00\n      dup8\n      gas\n      call\n      iszero\n      dup1\n      iszero\n      tag_142\n      jumpi\n      returndatasize\n      0x00\n      dup1\n      returndatacopy\n      revert(0x00, returndatasize)\n    tag_142:\n      pop\n      pop\n      pop\n      pop\n      mload(0x40)\n      returndatasize\n      not(0x1f)\n      0x1f\n      dup3\n      add\n      and\n      dup3\n      add\n      dup1\n      0x40\n      mstore\n      pop\n      dup2\n      add\n      swap1\n      tag_143\n      swap2\n      swap1\n      tag_144\n      jump\t// in\n    tag_143:\n      pop\n        /* \"@openzeppelin/contracts/utils/ReentrancyGuard.sol\":2398:2418  _nonReentrantAfter() */\n      tag_145\n        /* \"@openzeppelin/contracts/utils/ReentrancyGuard.sol\":2398:2416  _nonReentrantAfter */\n      tag_146\n        /* \"@openzeppelin/contracts/utils/ReentrancyGuard.sol\":2398:2418  _nonReentrantAfter() */\n      jump\t// in\n    tag_145:\n        /* \"contracts/CollateralManager.sol\":3979:4161  function releaseFunds(address user) external nonReentrant{... */\n      pop\n      jump\t// out\n        /* \"contracts/CollateralManager.sol\":419:457  MellowFiPriceOracle public priceOracle */\n    tag_43:\n      0x03\n      0x00\n      swap1\n      sload\n      swap1\n      0x0100\n      exp\n      swap1\n      div\n      0xffffffffffffffffffffffffffffffffffffffff\n      and\n      dup2\n      jump\t// out\n        /* \"contracts/CollateralManager.sol\":3343:3517  function getCollateralBalance(address _user) external view returns (uint256 celo, uint256 usdt) {... */\n    tag_49:\n        /* \"contracts/CollateralManager.sol\":3411:3423  uint256 celo */\n      0x00\n        /* \"contracts/CollateralManager.sol\":3425:3437  uint256 usdt */\n      dup1\n        /* \"contracts/CollateralManager.sol\":3457:3475  userCollateralCelo */\n      0x08\n        /* \"contracts/CollateralManager.sol\":3457:3482  userCollateralCelo[_user] */\n      0x00\n        /* \"contracts/CollateralManager.sol\":3476:3481  _user */\n      dup5\n        /* \"contracts/CollateralManager.sol\":3457:3482  userCollateralCelo[_user] */\n      0xffffffffffffffffffffffffffffffffffffffff\n      and\n      0xffffffffffffffffffffffffffffffffffffffff\n      and\n      dup2\n      mstore\n      0x20\n      add\n      swap1\n      dup2\n      mstore\n      0x20\n      add\n      0x00\n      keccak256\n      sload\n        /* \"contracts/CollateralManager.sol\":3484:3502  userCollateralUsdt */\n      0x09\n        /* \"contracts/CollateralManager.sol\":3484:3509  userCollateralUsdt[_user] */\n      0x00\n        /* \"contracts/CollateralManager.sol\":3503:3508  _user */\n      dup6\n        /* \"contracts/CollateralManager.sol\":3484:3509  userCollateralUsdt[_user] */\n      0xffffffffffffffffffffffffffffffffffffffff\n      and\n      0xffffffffffffffffffffffffffffffffffffffff\n      and\n      dup2\n      mstore\n      0x20\n      add\n      swap1\n      dup2\n      mstore\n      0x20\n      add\n      0x00\n      keccak256\n      sload\n        /* \"contracts/CollateralManager.sol\":3449:3510  return (userCollateralCelo[_user], userCollateralUsdt[_user]) */\n      swap2\n      pop\n      swap2\n      pop\n        /* \"contracts/CollateralManager.sol\":3343:3517  function getCollateralBalance(address _user) external view returns (uint256 celo, uint256 usdt) {... */\n      swap2\n      pop\n      swap2\n      jump\t// out\n        /* \"contracts/CollateralManager.sol\":2323:2764  function depositUsdtCollateral(uint256 _amount) external nonReentrant whenNotPaused {... */\n    tag_56:\n        /* \"@openzeppelin/contracts/utils/ReentrancyGuard.sol\":2356:2377  _nonReentrantBefore() */\n      tag_149\n        /* \"@openzeppelin/contracts/utils/ReentrancyGuard.sol\":2356:2375  _nonReentrantBefore */\n      tag_135\n        /* \"@openzeppelin/contracts/utils/ReentrancyGuard.sol\":2356:2377  _nonReentrantBefore() */\n      jump\t// in\n    tag_149:\n        /* \"@openzeppelin/contracts/utils/Pausable.sol\":1474:1493  _requireNotPaused() */\n      tag_151\n        /* \"@openzeppelin/contracts/utils/Pausable.sol\":1474:1491  _requireNotPaused */\n      tag_152\n        /* \"@openzeppelin/contracts/utils/Pausable.sol\":1474:1493  _requireNotPaused() */\n      jump\t// in\n    tag_151:\n        /* \"contracts/CollateralManager.sol\":2435:2454  minCollateralAmount */\n      sload(0x06)\n        /* \"contracts/CollateralManager.sol\":2425:2432  _amount */\n      dup2\n        /* \"contracts/CollateralManager.sol\":2425:2454  _amount > minCollateralAmount */\n      gt\n        /* \"contracts/CollateralManager.sol\":2417:2492  require(_amount > minCollateralAmount, \"CollateralManager: Invalid amount\") */\n      tag_154\n      jumpi\n      mload(0x40)\n      0x08c379a000000000000000000000000000000000000000000000000000000000\n      dup2\n      mstore\n      0x04\n      add\n      tag_155\n      swap1\n      tag_156\n      jump\t// in\n    tag_155:\n      mload(0x40)\n      dup1\n      swap2\n      sub\n      swap1\n      revert\n    tag_154:\n        /* \"contracts/CollateralManager.sol\":2510:2519  usdtToken */\n      0x02\n      0x00\n      swap1\n      sload\n      swap1\n      0x0100\n      exp\n      swap1\n      div\n      0xffffffffffffffffffffffffffffffffffffffff\n      and\n        /* \"contracts/CollateralManager.sol\":2510:2532  usdtToken.transferFrom */\n      0xffffffffffffffffffffffffffffffffffffffff\n      and\n      0x23b872dd\n        /* \"contracts/CollateralManager.sol\":2533:2543  msg.sender */\n      caller\n        /* \"contracts/CollateralManager.sol\":2553:2557  this */\n      address\n        /* \"contracts/CollateralManager.sol\":2560:2567  _amount */\n      dup5\n        /* \"contracts/CollateralManager.sol\":2510:2568  usdtToken.transferFrom(msg.sender, address(this), _amount) */\n      mload(0x40)\n      dup5\n      0xffffffff\n      and\n      0xe0\n      shl\n      dup2\n      mstore\n      0x04\n      add\n      tag_157\n      swap4\n      swap3\n      swap2\n      swap1\n      tag_158\n      jump\t// in\n    tag_157:\n      0x20\n      mload(0x40)\n      dup1\n      dup4\n      sub\n      dup2\n      0x00\n      dup8\n      gas\n      call\n      iszero\n      dup1\n      iszero\n      tag_160\n      jumpi\n      returndatasize\n      0x00\n      dup1\n      returndatacopy\n      revert(0x00, returndatasize)\n    tag_160:\n      pop\n      pop\n      pop\n      pop\n      mload(0x40)\n      returndatasize\n      not(0x1f)\n      0x1f\n      dup3\n      add\n      and\n      dup3\n      add\n      dup1\n      0x40\n      mstore\n      pop\n      dup2\n      add\n      swap1\n      tag_161\n      swap2\n      swap1\n      tag_144\n      jump\t// in\n    tag_161:\n        /* \"contracts/CollateralManager.sol\":2502:2607  require(usdtToken.transferFrom(msg.sender, address(this), _amount), \"CollateralManager: Transfer failed\") */\n      tag_162\n      jumpi\n      mload(0x40)\n      0x08c379a000000000000000000000000000000000000000000000000000000000\n      dup2\n      mstore\n      0x04\n      add\n      tag_163\n      swap1\n      tag_164\n      jump\t// in\n    tag_163:\n      mload(0x40)\n      dup1\n      swap2\n      sub\n      swap1\n      revert\n    tag_162:\n        /* \"contracts/CollateralManager.sol\":2651:2658  _amount */\n      dup1\n        /* \"contracts/CollateralManager.sol\":2617:2635  userCollateralUsdt */\n      0x09\n        /* \"contracts/CollateralManager.sol\":2617:2647  userCollateralUsdt[msg.sender] */\n      0x00\n        /* \"contracts/CollateralManager.sol\":2636:2646  msg.sender */\n      caller\n        /* \"contracts/CollateralManager.sol\":2617:2647  userCollateralUsdt[msg.sender] */\n      0xffffffffffffffffffffffffffffffffffffffff\n      and\n      0xffffffffffffffffffffffffffffffffffffffff\n      and\n      dup2\n      mstore\n      0x20\n      add\n      swap1\n      dup2\n      mstore\n      0x20\n      add\n      0x00\n      keccak256\n      0x00\n        /* \"contracts/CollateralManager.sol\":2617:2658  userCollateralUsdt[msg.sender] += _amount */\n      dup3\n      dup3\n      sload\n      tag_165\n      swap2\n      swap1\n      tag_132\n      jump\t// in\n    tag_165:\n      swap3\n      pop\n      pop\n      dup2\n      swap1\n      sstore\n      pop\n        /* \"contracts/CollateralManager.sol\":2691:2698  _amount */\n      dup1\n        /* \"contracts/CollateralManager.sol\":2668:2687  totalCollateralUsdt */\n      0x05\n      0x00\n        /* \"contracts/CollateralManager.sol\":2668:2698  totalCollateralUsdt += _amount */\n      dup3\n      dup3\n      sload\n      tag_166\n      swap2\n      swap1\n      tag_132\n      jump\t// in\n    tag_166:\n      swap3\n      pop\n      pop\n      dup2\n      swap1\n      sstore\n      pop\n        /* \"contracts/CollateralManager.sol\":2737:2747  msg.sender */\n      caller\n        /* \"contracts/CollateralManager.sol\":2713:2757  UsdtCollateralDeposited(msg.sender, _amount) */\n      0xffffffffffffffffffffffffffffffffffffffff\n      and\n      0x9a4c731ff1518c7a820e31d32e673b031b8974967931afb2eec308066090022d\n        /* \"contracts/CollateralManager.sol\":2749:2756  _amount */\n      dup3\n        /* \"contracts/CollateralManager.sol\":2713:2757  UsdtCollateralDeposited(msg.sender, _amount) */\n      mload(0x40)\n      tag_167\n      swap2\n      swap1\n      tag_30\n      jump\t// in\n    tag_167:\n      mload(0x40)\n      dup1\n      swap2\n      sub\n      swap1\n      log2\n        /* \"@openzeppelin/contracts/utils/ReentrancyGuard.sol\":2398:2418  _nonReentrantAfter() */\n      tag_168\n        /* \"@openzeppelin/contracts/utils/ReentrancyGuard.sol\":2398:2416  _nonReentrantAfter */\n      tag_146\n        /* \"@openzeppelin/contracts/utils/ReentrancyGuard.sol\":2398:2418  _nonReentrantAfter() */\n      jump\t// in\n    tag_168:\n        /* \"contracts/CollateralManager.sol\":2323:2764  function depositUsdtCollateral(uint256 _amount) external nonReentrant whenNotPaused {... */\n      pop\n      jump\t// out\n        /* \"contracts/CollateralManager.sol\":4258:4323  function unpause() external onlyOwner {... */\n    tag_59:\n        /* \"@openzeppelin/contracts/access/Ownable.sol\":1531:1544  _checkOwner() */\n      tag_170\n        /* \"@openzeppelin/contracts/access/Ownable.sol\":1531:1542  _checkOwner */\n      tag_171\n        /* \"@openzeppelin/contracts/access/Ownable.sol\":1531:1544  _checkOwner() */\n      jump\t// in\n    tag_170:\n        /* \"contracts/CollateralManager.sol\":4306:4316  _unpause() */\n      tag_173\n        /* \"contracts/CollateralManager.sol\":4306:4314  _unpause */\n      tag_174\n        /* \"contracts/CollateralManager.sol\":4306:4316  _unpause() */\n      jump\t// in\n    tag_173:\n        /* \"contracts/CollateralManager.sol\":4258:4323  function unpause() external onlyOwner {... */\n      jump\t// out\n        /* \"contracts/CollateralManager.sol\":543:587  uint256 public minCollateralAmount = 1 ether */\n    tag_62:\n      sload(0x06)\n      dup2\n      jump\t// out\n        /* \"contracts/CollateralManager.sol\":2770:3337  function withdrawUsdtCollateral(uint256 _amount) external nonReentrant whenNotPaused {... */\n    tag_67:\n        /* \"@openzeppelin/contracts/utils/ReentrancyGuard.sol\":2356:2377  _nonReentrantBefore() */\n      tag_176\n        /* \"@openzeppelin/contracts/utils/ReentrancyGuard.sol\":2356:2375  _nonReentrantBefore */\n      tag_135\n        /* \"@openzeppelin/contracts/utils/ReentrancyGuard.sol\":2356:2377  _nonReentrantBefore() */\n      jump\t// in\n    tag_176:\n        /* \"@openzeppelin/contracts/utils/Pausable.sol\":1474:1493  _requireNotPaused() */\n      tag_178\n        /* \"@openzeppelin/contracts/utils/Pausable.sol\":1474:1491  _requireNotPaused */\n      tag_152\n        /* \"@openzeppelin/contracts/utils/Pausable.sol\":1474:1493  _requireNotPaused() */\n      jump\t// in\n    tag_178:\n        /* \"contracts/CollateralManager.sol\":2942:2943  0 */\n      0x00\n        /* \"contracts/CollateralManager.sol\":2932:2939  _amount */\n      dup2\n        /* \"contracts/CollateralManager.sol\":2932:2943  _amount > 0 */\n      gt\n        /* \"contracts/CollateralManager.sol\":2924:2981  require(_amount > 0, \"CollateralManager: Invalid amount\") */\n      tag_180\n      jumpi\n      mload(0x40)\n      0x08c379a000000000000000000000000000000000000000000000000000000000\n      dup2\n      mstore\n      0x04\n      add\n      tag_181\n      swap1\n      tag_156\n      jump\t// in\n    tag_181:\n      mload(0x40)\n      dup1\n      swap2\n      sub\n      swap1\n      revert\n    tag_180:\n        /* \"contracts/CollateralManager.sol\":3033:3040  _amount */\n      dup1\n        /* \"contracts/CollateralManager.sol\":2999:3017  userCollateralUsdt */\n      0x09\n        /* \"contracts/CollateralManager.sol\":2999:3029  userCollateralUsdt[msg.sender] */\n      0x00\n        /* \"contracts/CollateralManager.sol\":3018:3028  msg.sender */\n      caller\n        /* \"contracts/CollateralManager.sol\":2999:3029  userCollateralUsdt[msg.sender] */\n      0xffffffffffffffffffffffffffffffffffffffff\n      and\n      0xffffffffffffffffffffffffffffffffffffffff\n      and\n      dup2\n      mstore\n      0x20\n      add\n      swap1\n      dup2\n      mstore\n      0x20\n      add\n      0x00\n      keccak256\n      sload\n        /* \"contracts/CollateralManager.sol\":2999:3040  userCollateralUsdt[msg.sender] >= _amount */\n      lt\n      iszero\n        /* \"contracts/CollateralManager.sol\":2991:3084  require(userCollateralUsdt[msg.sender] >= _amount, \"CollateralManager: Insufficient balance\") */\n      tag_182\n      jumpi\n      mload(0x40)\n      0x08c379a000000000000000000000000000000000000000000000000000000000\n      dup2\n      mstore\n      0x04\n      add\n      tag_183\n      swap1\n      tag_184\n      jump\t// in\n    tag_183:\n      mload(0x40)\n      dup1\n      swap2\n      sub\n      swap1\n      revert\n    tag_182:\n        /* \"contracts/CollateralManager.sol\":3128:3135  _amount */\n      dup1\n        /* \"contracts/CollateralManager.sol\":3094:3112  userCollateralUsdt */\n      0x09\n        /* \"contracts/CollateralManager.sol\":3094:3124  userCollateralUsdt[msg.sender] */\n      0x00\n        /* \"contracts/CollateralManager.sol\":3113:3123  msg.sender */\n      caller\n        /* \"contracts/CollateralManager.sol\":3094:3124  userCollateralUsdt[msg.sender] */\n      0xffffffffffffffffffffffffffffffffffffffff\n      and\n      0xffffffffffffffffffffffffffffffffffffffff\n      and\n      dup2\n      mstore\n      0x20\n      add\n      swap1\n      dup2\n      mstore\n      0x20\n      add\n      0x00\n      keccak256\n      0x00\n        /* \"contracts/CollateralManager.sol\":3094:3135  userCollateralUsdt[msg.sender] -= _amount */\n      dup3\n      dup3\n      sload\n      tag_185\n      swap2\n      swap1\n      tag_186\n      jump\t// in\n    tag_185:\n      swap3\n      pop\n      pop\n      dup2\n      swap1\n      sstore\n      pop\n        /* \"contracts/CollateralManager.sol\":3168:3175  _amount */\n      dup1\n        /* \"contracts/CollateralManager.sol\":3145:3164  totalCollateralUsdt */\n      0x05\n      0x00\n        /* \"contracts/CollateralManager.sol\":3145:3175  totalCollateralUsdt -= _amount */\n      dup3\n      dup3\n      sload\n      tag_187\n      swap2\n      swap1\n      tag_186\n      jump\t// in\n    tag_187:\n      swap3\n      pop\n      pop\n      dup2\n      swap1\n      sstore\n      pop\n        /* \"contracts/CollateralManager.sol\":3193:3202  usdtToken */\n      0x02\n      0x00\n      swap1\n      sload\n      swap1\n      0x0100\n      exp\n      swap1\n      div\n      0xffffffffffffffffffffffffffffffffffffffff\n      and\n        /* \"contracts/CollateralManager.sol\":3193:3211  usdtToken.transfer */\n      0xffffffffffffffffffffffffffffffffffffffff\n      and\n      0xa9059cbb\n        /* \"contracts/CollateralManager.sol\":3212:3222  msg.sender */\n      caller\n        /* \"contracts/CollateralManager.sol\":3224:3231  _amount */\n      dup4\n        /* \"contracts/CollateralManager.sol\":3193:3232  usdtToken.transfer(msg.sender, _amount) */\n      mload(0x40)\n      dup4\n      0xffffffff\n      and\n      0xe0\n      shl\n      dup2\n      mstore\n      0x04\n      add\n      tag_188\n      swap3\n      swap2\n      swap1\n      tag_140\n      jump\t// in\n    tag_188:\n      0x20\n      mload(0x40)\n      dup1\n      dup4\n      sub\n      dup2\n      0x00\n      dup8\n      gas\n      call\n      iszero\n      dup1\n      iszero\n      tag_190\n      jumpi\n      returndatasize\n      0x00\n      dup1\n      returndatacopy\n      revert(0x00, returndatasize)\n    tag_190:\n      pop\n      pop\n      pop\n      pop\n      mload(0x40)\n      returndatasize\n      not(0x1f)\n      0x1f\n      dup3\n      add\n      and\n      dup3\n      add\n      dup1\n      0x40\n      mstore\n      pop\n      dup2\n      add\n      swap1\n      tag_191\n      swap2\n      swap1\n      tag_144\n      jump\t// in\n    tag_191:\n        /* \"contracts/CollateralManager.sol\":3185:3271  require(usdtToken.transfer(msg.sender, _amount), \"CollateralManager: Transfer failed\") */\n      tag_192\n      jumpi\n      mload(0x40)\n      0x08c379a000000000000000000000000000000000000000000000000000000000\n      dup2\n      mstore\n      0x04\n      add\n      tag_193\n      swap1\n      tag_164\n      jump\t// in\n    tag_193:\n      mload(0x40)\n      dup1\n      swap2\n      sub\n      swap1\n      revert\n    tag_192:\n        /* \"contracts/CollateralManager.sol\":3310:3320  msg.sender */\n      caller\n        /* \"contracts/CollateralManager.sol\":3286:3330  UsdtCollateralWithdrawn(msg.sender, _amount) */\n      0xffffffffffffffffffffffffffffffffffffffff\n      and\n      0xc01511ac0a76d7dc4d420282166e32ac9366c3f78e450661d140d248b19a4000\n        /* \"contracts/CollateralManager.sol\":3322:3329  _amount */\n      dup3\n        /* \"contracts/CollateralManager.sol\":3286:3330  UsdtCollateralWithdrawn(msg.sender, _amount) */\n      mload(0x40)\n      tag_194\n      swap2\n      swap1\n      tag_30\n      jump\t// in\n    tag_194:\n      mload(0x40)\n      dup1\n      swap2\n      sub\n      swap1\n      log2\n        /* \"@openzeppelin/contracts/utils/ReentrancyGuard.sol\":2398:2418  _nonReentrantAfter() */\n      tag_195\n        /* \"@openzeppelin/contracts/utils/ReentrancyGuard.sol\":2398:2416  _nonReentrantAfter */\n      tag_146\n        /* \"@openzeppelin/contracts/utils/ReentrancyGuard.sol\":2398:2418  _nonReentrantAfter() */\n      jump\t// in\n    tag_195:\n        /* \"contracts/CollateralManager.sol\":2770:3337  function withdrawUsdtCollateral(uint256 _amount) external nonReentrant whenNotPaused {... */\n      pop\n      jump\t// out\n        /* \"@openzeppelin/contracts/utils/Pausable.sol\":1850:1934  function paused() public view virtual returns (bool) {... */\n    tag_70:\n        /* \"@openzeppelin/contracts/utils/Pausable.sol\":1897:1901  bool */\n      0x00\n        /* \"@openzeppelin/contracts/utils/Pausable.sol\":1920:1927  _paused */\n      0x01\n      0x00\n      swap1\n      sload\n      swap1\n      0x0100\n      exp\n      swap1\n      div\n      0xff\n      and\n        /* \"@openzeppelin/contracts/utils/Pausable.sol\":1913:1927  return _paused */\n      swap1\n      pop\n        /* \"@openzeppelin/contracts/utils/Pausable.sol\":1850:1934  function paused() public view virtual returns (bool) {... */\n      swap1\n      jump\t// out\n        /* \"contracts/CollateralManager.sol\":463:497  uint256 public totalCollateralCelo */\n    tag_75:\n      sload(0x04)\n      dup2\n      jump\t// out\n        /* \"@openzeppelin/contracts/access/Ownable.sol\":2293:2394  function renounceOwnership() public virtual onlyOwner {... */\n    tag_79:\n        /* \"@openzeppelin/contracts/access/Ownable.sol\":1531:1544  _checkOwner() */\n      tag_198\n        /* \"@openzeppelin/contracts/access/Ownable.sol\":1531:1542  _checkOwner */\n      tag_171\n        /* \"@openzeppelin/contracts/access/Ownable.sol\":1531:1544  _checkOwner() */\n      jump\t// in\n    tag_198:\n        /* \"@openzeppelin/contracts/access/Ownable.sol\":2357:2387  _transferOwnership(address(0)) */\n      tag_200\n        /* \"@openzeppelin/contracts/access/Ownable.sol\":2384:2385  0 */\n      0x00\n        /* \"@openzeppelin/contracts/access/Ownable.sol\":2357:2375  _transferOwnership */\n      tag_201\n        /* \"@openzeppelin/contracts/access/Ownable.sol\":2357:2387  _transferOwnership(address(0)) */\n      jump\t// in\n    tag_200:\n        /* \"@openzeppelin/contracts/access/Ownable.sol\":2293:2394  function renounceOwnership() public virtual onlyOwner {... */\n      jump\t// out\n        /* \"contracts/CollateralManager.sol\":4191:4252  function pause() external onlyOwner {... */\n    tag_82:\n        /* \"@openzeppelin/contracts/access/Ownable.sol\":1531:1544  _checkOwner() */\n      tag_203\n        /* \"@openzeppelin/contracts/access/Ownable.sol\":1531:1542  _checkOwner */\n      tag_171\n        /* \"@openzeppelin/contracts/access/Ownable.sol\":1531:1544  _checkOwner() */\n      jump\t// in\n    tag_203:\n        /* \"contracts/CollateralManager.sol\":4237:4245  _pause() */\n      tag_205\n        /* \"contracts/CollateralManager.sol\":4237:4243  _pause */\n      tag_206\n        /* \"contracts/CollateralManager.sol\":4237:4245  _pause() */\n      jump\t// in\n    tag_205:\n        /* \"contracts/CollateralManager.sol\":4191:4252  function pause() external onlyOwner {... */\n      jump\t// out\n        /* \"@openzeppelin/contracts/access/Ownable.sol\":1638:1723  function owner() public view virtual returns (address) {... */\n    tag_85:\n        /* \"@openzeppelin/contracts/access/Ownable.sol\":1684:1691  address */\n      0x00\n        /* \"@openzeppelin/contracts/access/Ownable.sol\":1710:1716  _owner */\n      0x01\n      dup1\n      sload\n      swap1\n      0x0100\n      exp\n      swap1\n      div\n      0xffffffffffffffffffffffffffffffffffffffff\n      and\n        /* \"@openzeppelin/contracts/access/Ownable.sol\":1703:1716  return _owner */\n      swap1\n      pop\n        /* \"@openzeppelin/contracts/access/Ownable.sol\":1638:1723  function owner() public view virtual returns (address) {... */\n      swap1\n      jump\t// out\n        /* \"contracts/CollateralManager.sol\":1789:2317  function withdrawCeloCollateral(uint256 _amount) external nonReentrant whenNotPaused {... */\n    tag_91:\n        /* \"@openzeppelin/contracts/utils/ReentrancyGuard.sol\":2356:2377  _nonReentrantBefore() */\n      tag_209\n        /* \"@openzeppelin/contracts/utils/ReentrancyGuard.sol\":2356:2375  _nonReentrantBefore */\n      tag_135\n        /* \"@openzeppelin/contracts/utils/ReentrancyGuard.sol\":2356:2377  _nonReentrantBefore() */\n      jump\t// in\n    tag_209:\n        /* \"@openzeppelin/contracts/utils/Pausable.sol\":1474:1493  _requireNotPaused() */\n      tag_211\n        /* \"@openzeppelin/contracts/utils/Pausable.sol\":1474:1491  _requireNotPaused */\n      tag_152\n        /* \"@openzeppelin/contracts/utils/Pausable.sol\":1474:1493  _requireNotPaused() */\n      jump\t// in\n    tag_211:\n        /* \"contracts/CollateralManager.sol\":1961:1962  0 */\n      0x00\n        /* \"contracts/CollateralManager.sol\":1951:1958  _amount */\n      dup2\n        /* \"contracts/CollateralManager.sol\":1951:1962  _amount > 0 */\n      gt\n        /* \"contracts/CollateralManager.sol\":1943:2000  require(_amount > 0, \"CollateralManager: Invalid amount\") */\n      tag_213\n      jumpi\n      mload(0x40)\n      0x08c379a000000000000000000000000000000000000000000000000000000000\n      dup2\n      mstore\n      0x04\n      add\n      tag_214\n      swap1\n      tag_156\n      jump\t// in\n    tag_214:\n      mload(0x40)\n      dup1\n      swap2\n      sub\n      swap1\n      revert\n    tag_213:\n        /* \"contracts/CollateralManager.sol\":2052:2059  _amount */\n      dup1\n        /* \"contracts/CollateralManager.sol\":2018:2036  userCollateralCelo */\n      0x08\n        /* \"contracts/CollateralManager.sol\":2018:2048  userCollateralCelo[msg.sender] */\n      0x00\n        /* \"contracts/CollateralManager.sol\":2037:2047  msg.sender */\n      caller\n        /* \"contracts/CollateralManager.sol\":2018:2048  userCollateralCelo[msg.sender] */\n      0xffffffffffffffffffffffffffffffffffffffff\n      and\n      0xffffffffffffffffffffffffffffffffffffffff\n      and\n      dup2\n      mstore\n      0x20\n      add\n      swap1\n      dup2\n      mstore\n      0x20\n      add\n      0x00\n      keccak256\n      sload\n        /* \"contracts/CollateralManager.sol\":2018:2059  userCollateralCelo[msg.sender] >= _amount */\n      lt\n      iszero\n        /* \"contracts/CollateralManager.sol\":2010:2103  require(userCollateralCelo[msg.sender] >= _amount, \"CollateralManager: Insufficient balance\") */\n      tag_215\n      jumpi\n      mload(0x40)\n      0x08c379a000000000000000000000000000000000000000000000000000000000\n      dup2\n      mstore\n      0x04\n      add\n      tag_216\n      swap1\n      tag_184\n      jump\t// in\n    tag_216:\n      mload(0x40)\n      dup1\n      swap2\n      sub\n      swap1\n      revert\n    tag_215:\n        /* \"contracts/CollateralManager.sol\":2147:2154  _amount */\n      dup1\n        /* \"contracts/CollateralManager.sol\":2113:2131  userCollateralCelo */\n      0x08\n        /* \"contracts/CollateralManager.sol\":2113:2143  userCollateralCelo[msg.sender] */\n      0x00\n        /* \"contracts/CollateralManager.sol\":2132:2142  msg.sender */\n      caller\n        /* \"contracts/CollateralManager.sol\":2113:2143  userCollateralCelo[msg.sender] */\n      0xffffffffffffffffffffffffffffffffffffffff\n      and\n      0xffffffffffffffffffffffffffffffffffffffff\n      and\n      dup2\n      mstore\n      0x20\n      add\n      swap1\n      dup2\n      mstore\n      0x20\n      add\n      0x00\n      keccak256\n      0x00\n        /* \"contracts/CollateralManager.sol\":2113:2154  userCollateralCelo[msg.sender] -= _amount */\n      dup3\n      dup3\n      sload\n      tag_217\n      swap2\n      swap1\n      tag_186\n      jump\t// in\n    tag_217:\n      swap3\n      pop\n      pop\n      dup2\n      swap1\n      sstore\n      pop\n        /* \"contracts/CollateralManager.sol\":2187:2194  _amount */\n      dup1\n        /* \"contracts/CollateralManager.sol\":2164:2183  totalCollateralCelo */\n      0x04\n      0x00\n        /* \"contracts/CollateralManager.sol\":2164:2194  totalCollateralCelo -= _amount */\n      dup3\n      dup3\n      sload\n      tag_218\n      swap2\n      swap1\n      tag_186\n      jump\t// in\n    tag_218:\n      swap3\n      pop\n      pop\n      dup2\n      swap1\n      sstore\n      pop\n        /* \"contracts/CollateralManager.sol\":2212:2222  msg.sender */\n      caller\n        /* \"contracts/CollateralManager.sol\":2204:2232  payable(msg.sender).transfer */\n      0xffffffffffffffffffffffffffffffffffffffff\n      and\n        /* \"contracts/CollateralManager.sol\":2204:2241  payable(msg.sender).transfer(_amount) */\n      0x08fc\n        /* \"contracts/CollateralManager.sol\":2233:2240  _amount */\n      dup3\n        /* \"contracts/CollateralManager.sol\":2204:2241  payable(msg.sender).transfer(_amount) */\n      swap1\n      dup2\n      iszero\n      mul\n      swap1\n      mload(0x40)\n      0x00\n      mload(0x40)\n      dup1\n      dup4\n      sub\n      dup2\n      dup6\n      dup9\n      dup9\n      call\n      swap4\n      pop\n      pop\n      pop\n      pop\n      iszero\n      dup1\n      iszero\n      tag_220\n      jumpi\n      returndatasize\n      0x00\n      dup1\n      returndatacopy\n      revert(0x00, returndatasize)\n    tag_220:\n      pop\n        /* \"contracts/CollateralManager.sol\":2280:2290  msg.sender */\n      caller\n        /* \"contracts/CollateralManager.sol\":2256:2300  CeloCollateralWithdrawn(msg.sender, _amount) */\n      0xffffffffffffffffffffffffffffffffffffffff\n      and\n      0x0c3d79d31dc82080baf59ab3c3058c3c7c4f88f9969422caa1b42c51577d640b\n        /* \"contracts/CollateralManager.sol\":2292:2299  _amount */\n      dup3\n        /* \"contracts/CollateralManager.sol\":2256:2300  CeloCollateralWithdrawn(msg.sender, _amount) */\n      mload(0x40)\n      tag_221\n      swap2\n      swap1\n      tag_30\n      jump\t// in\n    tag_221:\n      mload(0x40)\n      dup1\n      swap2\n      sub\n      swap1\n      log2\n        /* \"@openzeppelin/contracts/utils/ReentrancyGuard.sol\":2398:2418  _nonReentrantAfter() */\n      tag_222\n        /* \"@openzeppelin/contracts/utils/ReentrancyGuard.sol\":2398:2416  _nonReentrantAfter */\n      tag_146\n        /* \"@openzeppelin/contracts/utils/ReentrancyGuard.sol\":2398:2418  _nonReentrantAfter() */\n      jump\t// in\n    tag_222:\n        /* \"contracts/CollateralManager.sol\":1789:2317  function withdrawCeloCollateral(uint256 _amount) external nonReentrant whenNotPaused {... */\n      pop\n      jump\t// out\n        /* \"contracts/CollateralManager.sol\":503:537  uint256 public totalCollateralUsdt */\n    tag_94:\n      sload(0x05)\n      dup2\n      jump\t// out\n        /* \"contracts/CollateralManager.sol\":709:762  mapping(address => uint256) public userCollateralCelo */\n    tag_99:\n      mstore(0x20, 0x08)\n      dup1\n      0x00\n      mstore\n      keccak256(0x00, 0x40)\n      0x00\n      swap2\n      pop\n      swap1\n      pop\n      sload\n      dup2\n      jump\t// out\n        /* \"contracts/CollateralManager.sol\":390:413  IERC20 public usdtToken */\n    tag_103:\n      0x02\n      0x00\n      swap1\n      sload\n      swap1\n      0x0100\n      exp\n      swap1\n      div\n      0xffffffffffffffffffffffffffffffffffffffff\n      and\n      dup2\n      jump\t// out\n        /* \"contracts/CollateralManager.sol\":768:821  mapping(address => uint256) public userCollateralUsdt */\n    tag_109:\n      mstore(0x20, 0x09)\n      dup1\n      0x00\n      mstore\n      keccak256(0x00, 0x40)\n      0x00\n      swap2\n      pop\n      swap1\n      pop\n      sload\n      dup2\n      jump\t// out\n        /* \"contracts/CollateralManager.sol\":1325:1783  function depositCeloCollateral() external payable nonReentrant whenNotPaused {... */\n    tag_112:\n        /* \"@openzeppelin/contracts/utils/ReentrancyGuard.sol\":2356:2377  _nonReentrantBefore() */\n      tag_224\n        /* \"@openzeppelin/contracts/utils/ReentrancyGuard.sol\":2356:2375  _nonReentrantBefore */\n      tag_135\n        /* \"@openzeppelin/contracts/utils/ReentrancyGuard.sol\":2356:2377  _nonReentrantBefore() */\n      jump\t// in\n    tag_224:\n        /* \"@openzeppelin/contracts/utils/Pausable.sol\":1474:1493  _requireNotPaused() */\n      tag_226\n        /* \"@openzeppelin/contracts/utils/Pausable.sol\":1474:1491  _requireNotPaused */\n      tag_152\n        /* \"@openzeppelin/contracts/utils/Pausable.sol\":1474:1493  _requireNotPaused() */\n      jump\t// in\n    tag_226:\n        /* \"contracts/CollateralManager.sol\":1432:1451  minCollateralAmount */\n      sload(0x06)\n        /* \"contracts/CollateralManager.sol\":1420:1429  msg.value */\n      callvalue\n        /* \"contracts/CollateralManager.sol\":1420:1451  msg.value > minCollateralAmount */\n      gt\n        /* \"contracts/CollateralManager.sol\":1412:1489  require(msg.value > minCollateralAmount, \"CollateralManager: Invalid amount\") */\n      tag_228\n      jumpi\n      mload(0x40)\n      0x08c379a000000000000000000000000000000000000000000000000000000000\n      dup2\n      mstore\n      0x04\n      add\n      tag_229\n      swap1\n      tag_156\n      jump\t// in\n    tag_229:\n      mload(0x40)\n      dup1\n      swap2\n      sub\n      swap1\n      revert\n    tag_228:\n        /* \"contracts/CollateralManager.sol\":1570:1579  msg.value */\n      callvalue\n        /* \"contracts/CollateralManager.sol\":1536:1554  userCollateralCelo */\n      0x08\n        /* \"contracts/CollateralManager.sol\":1536:1566  userCollateralCelo[msg.sender] */\n      0x00\n        /* \"contracts/CollateralManager.sol\":1555:1565  msg.sender */\n      caller\n        /* \"contracts/CollateralManager.sol\":1536:1566  userCollateralCelo[msg.sender] */\n      0xffffffffffffffffffffffffffffffffffffffff\n      and\n      0xffffffffffffffffffffffffffffffffffffffff\n      and\n      dup2\n      mstore\n      0x20\n      add\n      swap1\n      dup2\n      mstore\n      0x20\n      add\n      0x00\n      keccak256\n      0x00\n        /* \"contracts/CollateralManager.sol\":1536:1579  userCollateralCelo[msg.sender] += msg.value */\n      dup3\n      dup3\n      sload\n      tag_230\n      swap2\n      swap1\n      tag_132\n      jump\t// in\n    tag_230:\n      swap3\n      pop\n      pop\n      dup2\n      swap1\n      sstore\n      pop\n        /* \"contracts/CollateralManager.sol\":1651:1660  msg.value */\n      callvalue\n        /* \"contracts/CollateralManager.sol\":1628:1647  totalCollateralCelo */\n      0x04\n      0x00\n        /* \"contracts/CollateralManager.sol\":1628:1660  totalCollateralCelo += msg.value */\n      dup3\n      dup3\n      sload\n      tag_231\n      swap2\n      swap1\n      tag_132\n      jump\t// in\n    tag_231:\n      swap3\n      pop\n      pop\n      dup2\n      swap1\n      sstore\n      pop\n        /* \"contracts/CollateralManager.sol\":1737:1747  msg.sender */\n      caller\n        /* \"contracts/CollateralManager.sol\":1713:1759  CeloCollateralDeposited(msg.sender, msg.value) */\n      0xffffffffffffffffffffffffffffffffffffffff\n      and\n      0xf5bfa8a3f6a61792f266e3e92249facce14edf2b5fceeba5cb6cd0882593a9da\n        /* \"contracts/CollateralManager.sol\":1749:1758  msg.value */\n      callvalue\n        /* \"contracts/CollateralManager.sol\":1713:1759  CeloCollateralDeposited(msg.sender, msg.value) */\n      mload(0x40)\n      tag_232\n      swap2\n      swap1\n      tag_30\n      jump\t// in\n    tag_232:\n      mload(0x40)\n      dup1\n      swap2\n      sub\n      swap1\n      log2\n        /* \"@openzeppelin/contracts/utils/ReentrancyGuard.sol\":2398:2418  _nonReentrantAfter() */\n      tag_233\n        /* \"@openzeppelin/contracts/utils/ReentrancyGuard.sol\":2398:2416  _nonReentrantAfter */\n      tag_146\n        /* \"@openzeppelin/contracts/utils/ReentrancyGuard.sol\":2398:2418  _nonReentrantAfter() */\n      jump\t// in\n    tag_233:\n        /* \"contracts/CollateralManager.sol\":1325:1783  function depositCeloCollateral() external payable nonReentrant whenNotPaused {... */\n      jump\t// out\n        /* \"@openzeppelin/contracts/access/Ownable.sol\":2543:2758  function transferOwnership(address newOwner) public virtual onlyOwner {... */\n    tag_116:\n        /* \"@openzeppelin/contracts/access/Ownable.sol\":1531:1544  _checkOwner() */\n      tag_235\n        /* \"@openzeppelin/contracts/access/Ownable.sol\":1531:1542  _checkOwner */\n      tag_171\n        /* \"@openzeppelin/contracts/access/Ownable.sol\":1531:1544  _checkOwner() */\n      jump\t// in\n    tag_235:\n        /* \"@openzeppelin/contracts/access/Ownable.sol\":2647:2648  0 */\n      0x00\n        /* \"@openzeppelin/contracts/access/Ownable.sol\":2627:2649  newOwner == address(0) */\n      0xffffffffffffffffffffffffffffffffffffffff\n      and\n        /* \"@openzeppelin/contracts/access/Ownable.sol\":2627:2635  newOwner */\n      dup2\n        /* \"@openzeppelin/contracts/access/Ownable.sol\":2627:2649  newOwner == address(0) */\n      0xffffffffffffffffffffffffffffffffffffffff\n      and\n      sub\n        /* \"@openzeppelin/contracts/access/Ownable.sol\":2623:2714  if (newOwner == address(0)) {... */\n      tag_237\n      jumpi\n        /* \"@openzeppelin/contracts/access/Ownable.sol\":2700:2701  0 */\n      0x00\n        /* \"@openzeppelin/contracts/access/Ownable.sol\":2672:2703  OwnableInvalidOwner(address(0)) */\n      mload(0x40)\n      0x1e4fbdf700000000000000000000000000000000000000000000000000000000\n      dup2\n      mstore\n      0x04\n      add\n      tag_238\n      swap2\n      swap1\n      tag_87\n      jump\t// in\n    tag_238:\n      mload(0x40)\n      dup1\n      swap2\n      sub\n      swap1\n      revert\n        /* \"@openzeppelin/contracts/access/Ownable.sol\":2623:2714  if (newOwner == address(0)) {... */\n    tag_237:\n        /* \"@openzeppelin/contracts/access/Ownable.sol\":2723:2751  _transferOwnership(newOwner) */\n      tag_239\n        /* \"@openzeppelin/contracts/access/Ownable.sol\":2742:2750  newOwner */\n      dup2\n        /* \"@openzeppelin/contracts/access/Ownable.sol\":2723:2741  _transferOwnership */\n      tag_201\n        /* \"@openzeppelin/contracts/access/Ownable.sol\":2723:2751  _transferOwnership(newOwner) */\n      jump\t// in\n    tag_239:\n        /* \"@openzeppelin/contracts/access/Ownable.sol\":2543:2758  function transferOwnership(address newOwner) public virtual onlyOwner {... */\n      pop\n      jump\t// out\n        /* \"@openzeppelin/contracts/utils/ReentrancyGuard.sol\":2431:2738  function _nonReentrantBefore() private {... */\n    tag_135:\n        /* \"@openzeppelin/contracts/utils/ReentrancyGuard.sol\":1755:1756  2 */\n      0x02\n        /* \"@openzeppelin/contracts/utils/ReentrancyGuard.sol\":2558:2565  _status */\n      sload(0x00)\n        /* \"@openzeppelin/contracts/utils/ReentrancyGuard.sol\":2558:2576  _status == ENTERED */\n      sub\n        /* \"@openzeppelin/contracts/utils/ReentrancyGuard.sol\":2554:2640  if (_status == ENTERED) {... */\n      tag_241\n      jumpi\n        /* \"@openzeppelin/contracts/utils/ReentrancyGuard.sol\":2599:2629  ReentrancyGuardReentrantCall() */\n      mload(0x40)\n      0x3ee5aeb500000000000000000000000000000000000000000000000000000000\n      dup2\n      mstore\n      0x04\n      add\n      mload(0x40)\n      dup1\n      swap2\n      sub\n      swap1\n      revert\n        /* \"@openzeppelin/contracts/utils/ReentrancyGuard.sol\":2554:2640  if (_status == ENTERED) {... */\n    tag_241:\n        /* \"@openzeppelin/contracts/utils/ReentrancyGuard.sol\":1755:1756  2 */\n      0x02\n        /* \"@openzeppelin/contracts/utils/ReentrancyGuard.sol\":2714:2721  _status */\n      0x00\n        /* \"@openzeppelin/contracts/utils/ReentrancyGuard.sol\":2714:2731  _status = ENTERED */\n      dup2\n      swap1\n      sstore\n      pop\n        /* \"@openzeppelin/contracts/utils/ReentrancyGuard.sol\":2431:2738  function _nonReentrantBefore() private {... */\n      jump\t// out\n        /* \"@openzeppelin/contracts/utils/ReentrancyGuard.sol\":2744:2952  function _nonReentrantAfter() private {... */\n    tag_146:\n        /* \"@openzeppelin/contracts/utils/ReentrancyGuard.sol\":1713:1714  1 */\n      0x01\n        /* \"@openzeppelin/contracts/utils/ReentrancyGuard.sol\":2924:2931  _status */\n      0x00\n        /* \"@openzeppelin/contracts/utils/ReentrancyGuard.sol\":2924:2945  _status = NOT_ENTERED */\n      dup2\n      swap1\n      sstore\n      pop\n        /* \"@openzeppelin/contracts/utils/ReentrancyGuard.sol\":2744:2952  function _nonReentrantAfter() private {... */\n      jump\t// out\n        /* \"@openzeppelin/contracts/utils/Pausable.sol\":2002:2130  function _requireNotPaused() internal view virtual {... */\n    tag_152:\n        /* \"@openzeppelin/contracts/utils/Pausable.sol\":2067:2075  paused() */\n      tag_244\n        /* \"@openzeppelin/contracts/utils/Pausable.sol\":2067:2073  paused */\n      tag_70\n        /* \"@openzeppelin/contracts/utils/Pausable.sol\":2067:2075  paused() */\n      jump\t// in\n    tag_244:\n        /* \"@openzeppelin/contracts/utils/Pausable.sol\":2063:2124  if (paused()) {... */\n      iszero\n      tag_245\n      jumpi\n        /* \"@openzeppelin/contracts/utils/Pausable.sol\":2098:2113  EnforcedPause() */\n      mload(0x40)\n      0xd93c066500000000000000000000000000000000000000000000000000000000\n      dup2\n      mstore\n      0x04\n      add\n      mload(0x40)\n      dup1\n      swap2\n      sub\n      swap1\n      revert\n        /* \"@openzeppelin/contracts/utils/Pausable.sol\":2063:2124  if (paused()) {... */\n    tag_245:\n        /* \"@openzeppelin/contracts/utils/Pausable.sol\":2002:2130  function _requireNotPaused() internal view virtual {... */\n      jump\t// out\n        /* \"@openzeppelin/contracts/access/Ownable.sol\":1796:1958  function _checkOwner() internal view virtual {... */\n    tag_171:\n        /* \"@openzeppelin/contracts/access/Ownable.sol\":1866:1878  _msgSender() */\n      tag_247\n        /* \"@openzeppelin/contracts/access/Ownable.sol\":1866:1876  _msgSender */\n      tag_248\n        /* \"@openzeppelin/contracts/access/Ownable.sol\":1866:1878  _msgSender() */\n      jump\t// in\n    tag_247:\n        /* \"@openzeppelin/contracts/access/Ownable.sol\":1855:1878  owner() != _msgSender() */\n      0xffffffffffffffffffffffffffffffffffffffff\n      and\n        /* \"@openzeppelin/contracts/access/Ownable.sol\":1855:1862  owner() */\n      tag_249\n        /* \"@openzeppelin/contracts/access/Ownable.sol\":1855:1860  owner */\n      tag_85\n        /* \"@openzeppelin/contracts/access/Ownable.sol\":1855:1862  owner() */\n      jump\t// in\n    tag_249:\n        /* \"@openzeppelin/contracts/access/Ownable.sol\":1855:1878  owner() != _msgSender() */\n      0xffffffffffffffffffffffffffffffffffffffff\n      and\n      eq\n        /* \"@openzeppelin/contracts/access/Ownable.sol\":1851:1952  if (owner() != _msgSender()) {... */\n      tag_250\n      jumpi\n        /* \"@openzeppelin/contracts/access/Ownable.sol\":1928:1940  _msgSender() */\n      tag_251\n        /* \"@openzeppelin/contracts/access/Ownable.sol\":1928:1938  _msgSender */\n      tag_248\n        /* \"@openzeppelin/contracts/access/Ownable.sol\":1928:1940  _msgSender() */\n      jump\t// in\n    tag_251:\n        /* \"@openzeppelin/contracts/access/Ownable.sol\":1901:1941  OwnableUnauthorizedAccount(_msgSender()) */\n      mload(0x40)\n      0x118cdaa700000000000000000000000000000000000000000000000000000000\n      dup2\n      mstore\n      0x04\n      add\n      tag_252\n      swap2\n      swap1\n      tag_87\n      jump\t// in\n    tag_252:\n      mload(0x40)\n      dup1\n      swap2\n      sub\n      swap1\n      revert\n        /* \"@openzeppelin/contracts/access/Ownable.sol\":1851:1952  if (owner() != _msgSender()) {... */\n    tag_250:\n        /* \"@openzeppelin/contracts/access/Ownable.sol\":1796:1958  function _checkOwner() internal view virtual {... */\n      jump\t// out\n        /* \"@openzeppelin/contracts/utils/Pausable.sol\":2710:2827  function _unpause() internal virtual whenPaused {... */\n    tag_174:\n        /* \"@openzeppelin/contracts/utils/Pausable.sol\":1721:1737  _requirePaused() */\n      tag_254\n        /* \"@openzeppelin/contracts/utils/Pausable.sol\":1721:1735  _requirePaused */\n      tag_255\n        /* \"@openzeppelin/contracts/utils/Pausable.sol\":1721:1737  _requirePaused() */\n      jump\t// in\n    tag_254:\n        /* \"@openzeppelin/contracts/utils/Pausable.sol\":2778:2783  false */\n      0x00\n        /* \"@openzeppelin/contracts/utils/Pausable.sol\":2768:2775  _paused */\n      0x01\n      0x00\n        /* \"@openzeppelin/contracts/utils/Pausable.sol\":2768:2783  _paused = false */\n      0x0100\n      exp\n      dup2\n      sload\n      dup2\n      0xff\n      mul\n      not\n      and\n      swap1\n      dup4\n      iszero\n      iszero\n      mul\n      or\n      swap1\n      sstore\n      pop\n        /* \"@openzeppelin/contracts/utils/Pausable.sol\":2798:2820  Unpaused(_msgSender()) */\n      0x5db9ee0a495bf2e6ff9c91a7834c1ba4fdd244a5e8aa4e537bd38aeae4b073aa\n        /* \"@openzeppelin/contracts/utils/Pausable.sol\":2807:2819  _msgSender() */\n      tag_257\n        /* \"@openzeppelin/contracts/utils/Pausable.sol\":2807:2817  _msgSender */\n      tag_248\n        /* \"@openzeppelin/contracts/utils/Pausable.sol\":2807:2819  _msgSender() */\n      jump\t// in\n    tag_257:\n        /* \"@openzeppelin/contracts/utils/Pausable.sol\":2798:2820  Unpaused(_msgSender()) */\n      mload(0x40)\n      tag_258\n      swap2\n      swap1\n      tag_87\n      jump\t// in\n    tag_258:\n      mload(0x40)\n      dup1\n      swap2\n      sub\n      swap1\n      log1\n        /* \"@openzeppelin/contracts/utils/Pausable.sol\":2710:2827  function _unpause() internal virtual whenPaused {... */\n      jump\t// out\n        /* \"@openzeppelin/contracts/access/Ownable.sol\":2912:3099  function _transferOwnership(address newOwner) internal virtual {... */\n    tag_201:\n        /* \"@openzeppelin/contracts/access/Ownable.sol\":2985:3001  address oldOwner */\n      0x00\n        /* \"@openzeppelin/contracts/access/Ownable.sol\":3004:3010  _owner */\n      0x01\n      dup1\n      sload\n      swap1\n      0x0100\n      exp\n      swap1\n      div\n      0xffffffffffffffffffffffffffffffffffffffff\n      and\n        /* \"@openzeppelin/contracts/access/Ownable.sol\":2985:3010  address oldOwner = _owner */\n      swap1\n      pop\n        /* \"@openzeppelin/contracts/access/Ownable.sol\":3029:3037  newOwner */\n      dup2\n        /* \"@openzeppelin/contracts/access/Ownable.sol\":3020:3026  _owner */\n      0x01\n      dup1\n        /* \"@openzeppelin/contracts/access/Ownable.sol\":3020:3037  _owner = newOwner */\n      0x0100\n      exp\n      dup2\n      sload\n      dup2\n      0xffffffffffffffffffffffffffffffffffffffff\n      mul\n      not\n      and\n      swap1\n      dup4\n      0xffffffffffffffffffffffffffffffffffffffff\n      and\n      mul\n      or\n      swap1\n      sstore\n      pop\n        /* \"@openzeppelin/contracts/access/Ownable.sol\":3083:3091  newOwner */\n      dup2\n        /* \"@openzeppelin/contracts/access/Ownable.sol\":3052:3092  OwnershipTransferred(oldOwner, newOwner) */\n      0xffffffffffffffffffffffffffffffffffffffff\n      and\n        /* \"@openzeppelin/contracts/access/Ownable.sol\":3073:3081  oldOwner */\n      dup2\n        /* \"@openzeppelin/contracts/access/Ownable.sol\":3052:3092  OwnershipTransferred(oldOwner, newOwner) */\n      0xffffffffffffffffffffffffffffffffffffffff\n      and\n      0x8be0079c531659141344cd1fd0a4f28419497f9722a3daafe3b4186f6b6457e0\n      mload(0x40)\n      mload(0x40)\n      dup1\n      swap2\n      sub\n      swap1\n      log3\n        /* \"@openzeppelin/contracts/access/Ownable.sol\":2975:3099  {... */\n      pop\n        /* \"@openzeppelin/contracts/access/Ownable.sol\":2912:3099  function _transferOwnership(address newOwner) internal virtual {... */\n      pop\n      jump\t// out\n        /* \"@openzeppelin/contracts/utils/Pausable.sol\":2463:2578  function _pause() internal virtual whenNotPaused {... */\n    tag_206:\n        /* \"@openzeppelin/contracts/utils/Pausable.sol\":1474:1493  _requireNotPaused() */\n      tag_261\n        /* \"@openzeppelin/contracts/utils/Pausable.sol\":1474:1491  _requireNotPaused */\n      tag_152\n        /* \"@openzeppelin/contracts/utils/Pausable.sol\":1474:1493  _requireNotPaused() */\n      jump\t// in\n    tag_261:\n        /* \"@openzeppelin/contracts/utils/Pausable.sol\":2532:2536  true */\n      0x01\n        /* \"@openzeppelin/contracts/utils/Pausable.sol\":2522:2529  _paused */\n      dup1\n      0x00\n        /* \"@openzeppelin/contracts/utils/Pausable.sol\":2522:2536  _paused = true */\n      0x0100\n      exp\n      dup2\n      sload\n      dup2\n      0xff\n      mul\n      not\n      and\n      swap1\n      dup4\n      iszero\n      iszero\n      mul\n      or\n      swap1\n      sstore\n      pop\n        /* \"@openzeppelin/contracts/utils/Pausable.sol\":2551:2571  Paused(_msgSender()) */\n      0x62e78cea01bee320cd4e420270b5ea74000d11b0c9f74754ebdbfc544b05a258\n        /* \"@openzeppelin/contracts/utils/Pausable.sol\":2558:2570  _msgSender() */\n      tag_263\n        /* \"@openzeppelin/contracts/utils/Pausable.sol\":2558:2568  _msgSender */\n      tag_248\n        /* \"@openzeppelin/contracts/utils/Pausable.sol\":2558:2570  _msgSender() */\n      jump\t// in\n    tag_263:\n        /* \"@openzeppelin/contracts/utils/Pausable.sol\":2551:2571  Paused(_msgSender()) */\n      mload(0x40)\n      tag_264\n      swap2\n      swap1\n      tag_87\n      jump\t// in\n    tag_264:\n      mload(0x40)\n      dup1\n      swap2\n      sub\n      swap1\n      log1\n        /* \"@openzeppelin/contracts/utils/Pausable.sol\":2463:2578  function _pause() internal virtual whenNotPaused {... */\n      jump\t// out\n        /* \"@openzeppelin/contracts/utils/Context.sol\":656:752  function _msgSender() internal view virtual returns (address) {... */\n    tag_248:\n        /* \"@openzeppelin/contracts/utils/Context.sol\":709:716  address */\n      0x00\n        /* \"@openzeppelin/contracts/utils/Context.sol\":735:745  msg.sender */\n      caller\n        /* \"@openzeppelin/contracts/utils/Context.sol\":728:745  return msg.sender */\n      swap1\n      pop\n        /* \"@openzeppelin/contracts/utils/Context.sol\":656:752  function _msgSender() internal view virtual returns (address) {... */\n      swap1\n      jump\t// out\n        /* \"@openzeppelin/contracts/utils/Pausable.sol\":2202:2328  function _requirePaused() internal view virtual {... */\n    tag_255:\n        /* \"@openzeppelin/contracts/utils/Pausable.sol\":2265:2273  paused() */\n      tag_267\n        /* \"@openzeppelin/contracts/utils/Pausable.sol\":2265:2271  paused */\n      tag_70\n        /* \"@openzeppelin/contracts/utils/Pausable.sol\":2265:2273  paused() */\n      jump\t// in\n    tag_267:\n        /* \"@openzeppelin/contracts/utils/Pausable.sol\":2260:2322  if (!paused()) {... */\n      tag_268\n      jumpi\n        /* \"@openzeppelin/contracts/utils/Pausable.sol\":2296:2311  ExpectedPause() */\n      mload(0x40)\n      0x8dfc202b00000000000000000000000000000000000000000000000000000000\n      dup2\n      mstore\n      0x04\n      add\n      mload(0x40)\n      dup1\n      swap2\n      sub\n      swap1\n      revert\n        /* \"@openzeppelin/contracts/utils/Pausable.sol\":2260:2322  if (!paused()) {... */\n    tag_268:\n        /* \"@openzeppelin/contracts/utils/Pausable.sol\":2202:2328  function _requirePaused() internal view virtual {... */\n      jump\t// out\n        /* \"#utility.yul\":7:84   */\n    tag_269:\n        /* \"#utility.yul\":44:51   */\n      0x00\n        /* \"#utility.yul\":73:78   */\n      dup2\n        /* \"#utility.yul\":62:78   */\n      swap1\n      pop\n        /* \"#utility.yul\":7:84   */\n      swap2\n      swap1\n      pop\n      jump\t// out\n        /* \"#utility.yul\":90:208   */\n    tag_270:\n        /* \"#utility.yul\":177:201   */\n      tag_307\n        /* \"#utility.yul\":195:200   */\n      dup2\n        /* \"#utility.yul\":177:201   */\n      tag_269\n      jump\t// in\n    tag_307:\n        /* \"#utility.yul\":172:175   */\n      dup3\n        /* \"#utility.yul\":165:202   */\n      mstore\n        /* \"#utility.yul\":90:208   */\n      pop\n      pop\n      jump\t// out\n        /* \"#utility.yul\":214:436   */\n    tag_30:\n        /* \"#utility.yul\":307:311   */\n      0x00\n        /* \"#utility.yul\":345:347   */\n      0x20\n        /* \"#utility.yul\":334:343   */\n      dup3\n        /* \"#utility.yul\":330:348   */\n      add\n        /* \"#utility.yul\":322:348   */\n      swap1\n      pop\n        /* \"#utility.yul\":358:429   */\n      tag_309\n        /* \"#utility.yul\":426:427   */\n      0x00\n        /* \"#utility.yul\":415:424   */\n      dup4\n        /* \"#utility.yul\":411:428   */\n      add\n        /* \"#utility.yul\":402:408   */\n      dup5\n        /* \"#utility.yul\":358:429   */\n      tag_270\n      jump\t// in\n    tag_309:\n        /* \"#utility.yul\":214:436   */\n      swap3\n      swap2\n      pop\n      pop\n      jump\t// out\n        /* \"#utility.yul\":523:640   */\n    tag_272:\n        /* \"#utility.yul\":632:633   */\n      0x00\n        /* \"#utility.yul\":629:630   */\n      dup1\n        /* \"#utility.yul\":622:634   */\n      revert\n        /* \"#utility.yul\":769:895   */\n    tag_274:\n        /* \"#utility.yul\":806:813   */\n      0x00\n        /* \"#utility.yul\":846:888   */\n      0xffffffffffffffffffffffffffffffffffffffff\n        /* \"#utility.yul\":839:844   */\n      dup3\n        /* \"#utility.yul\":835:889   */\n      and\n        /* \"#utility.yul\":824:889   */\n      swap1\n      pop\n        /* \"#utility.yul\":769:895   */\n      swap2\n      swap1\n      pop\n      jump\t// out\n        /* \"#utility.yul\":901:997   */\n    tag_275:\n        /* \"#utility.yul\":938:945   */\n      0x00\n        /* \"#utility.yul\":967:991   */\n      tag_315\n        /* \"#utility.yul\":985:990   */\n      dup3\n        /* \"#utility.yul\":967:991   */\n      tag_274\n      jump\t// in\n    tag_315:\n        /* \"#utility.yul\":956:991   */\n      swap1\n      pop\n        /* \"#utility.yul\":901:997   */\n      swap2\n      swap1\n      pop\n      jump\t// out\n        /* \"#utility.yul\":1003:1125   */\n    tag_276:\n        /* \"#utility.yul\":1076:1100   */\n      tag_317\n        /* \"#utility.yul\":1094:1099   */\n      dup2\n        /* \"#utility.yul\":1076:1100   */\n      tag_275\n      jump\t// in\n    tag_317:\n        /* \"#utility.yul\":1069:1074   */\n      dup2\n        /* \"#utility.yul\":1066:1101   */\n      eq\n        /* \"#utility.yul\":1056:1119   */\n      tag_318\n      jumpi\n        /* \"#utility.yul\":1115:1116   */\n      0x00\n        /* \"#utility.yul\":1112:1113   */\n      dup1\n        /* \"#utility.yul\":1105:1117   */\n      revert\n        /* \"#utility.yul\":1056:1119   */\n    tag_318:\n        /* \"#utility.yul\":1003:1125   */\n      pop\n      jump\t// out\n        /* \"#utility.yul\":1131:1270   */\n    tag_277:\n        /* \"#utility.yul\":1177:1182   */\n      0x00\n        /* \"#utility.yul\":1215:1221   */\n      dup2\n        /* \"#utility.yul\":1202:1222   */\n      calldataload\n        /* \"#utility.yul\":1193:1222   */\n      swap1\n      pop\n        /* \"#utility.yul\":1231:1264   */\n      tag_320\n        /* \"#utility.yul\":1258:1263   */\n      dup2\n        /* \"#utility.yul\":1231:1264   */\n      tag_276\n      jump\t// in\n    tag_320:\n        /* \"#utility.yul\":1131:1270   */\n      swap3\n      swap2\n      pop\n      pop\n      jump\t// out\n        /* \"#utility.yul\":1276:1605   */\n    tag_34:\n        /* \"#utility.yul\":1335:1341   */\n      0x00\n        /* \"#utility.yul\":1384:1386   */\n      0x20\n        /* \"#utility.yul\":1372:1381   */\n      dup3\n        /* \"#utility.yul\":1363:1370   */\n      dup5\n        /* \"#utility.yul\":1359:1382   */\n      sub\n        /* \"#utility.yul\":1355:1387   */\n      slt\n        /* \"#utility.yul\":1352:1471   */\n      iszero\n      tag_322\n      jumpi\n        /* \"#utility.yul\":1390:1469   */\n      tag_323\n      tag_272\n      jump\t// in\n    tag_323:\n        /* \"#utility.yul\":1352:1471   */\n    tag_322:\n        /* \"#utility.yul\":1510:1511   */\n      0x00\n        /* \"#utility.yul\":1535:1588   */\n      tag_324\n        /* \"#utility.yul\":1580:1587   */\n      dup5\n        /* \"#utility.yul\":1571:1577   */\n      dup3\n        /* \"#utility.yul\":1560:1569   */\n      dup6\n        /* \"#utility.yul\":1556:1578   */\n      add\n        /* \"#utility.yul\":1535:1588   */\n      tag_277\n      jump\t// in\n    tag_324:\n        /* \"#utility.yul\":1525:1588   */\n      swap2\n      pop\n        /* \"#utility.yul\":1481:1598   */\n      pop\n        /* \"#utility.yul\":1276:1605   */\n      swap3\n      swap2\n      pop\n      pop\n      jump\t// out\n        /* \"#utility.yul\":1611:1671   */\n    tag_278:\n        /* \"#utility.yul\":1639:1642   */\n      0x00\n        /* \"#utility.yul\":1660:1665   */\n      dup2\n        /* \"#utility.yul\":1653:1665   */\n      swap1\n      pop\n        /* \"#utility.yul\":1611:1671   */\n      swap2\n      swap1\n      pop\n      jump\t// out\n        /* \"#utility.yul\":1677:1819   */\n    tag_279:\n        /* \"#utility.yul\":1727:1736   */\n      0x00\n        /* \"#utility.yul\":1760:1813   */\n      tag_327\n        /* \"#utility.yul\":1778:1812   */\n      tag_328\n        /* \"#utility.yul\":1787:1811   */\n      tag_329\n        /* \"#utility.yul\":1805:1810   */\n      dup5\n        /* \"#utility.yul\":1787:1811   */\n      tag_274\n      jump\t// in\n    tag_329:\n        /* \"#utility.yul\":1778:1812   */\n      tag_278\n      jump\t// in\n    tag_328:\n        /* \"#utility.yul\":1760:1813   */\n      tag_274\n      jump\t// in\n    tag_327:\n        /* \"#utility.yul\":1747:1813   */\n      swap1\n      pop\n        /* \"#utility.yul\":1677:1819   */\n      swap2\n      swap1\n      pop\n      jump\t// out\n        /* \"#utility.yul\":1825:1951   */\n    tag_280:\n        /* \"#utility.yul\":1875:1884   */\n      0x00\n        /* \"#utility.yul\":1908:1945   */\n      tag_331\n        /* \"#utility.yul\":1939:1944   */\n      dup3\n        /* \"#utility.yul\":1908:1945   */\n      tag_279\n      jump\t// in\n    tag_331:\n        /* \"#utility.yul\":1895:1945   */\n      swap1\n      pop\n        /* \"#utility.yul\":1825:1951   */\n      swap2\n      swap1\n      pop\n      jump\t// out\n        /* \"#utility.yul\":1957:2110   */\n    tag_281:\n        /* \"#utility.yul\":2034:2043   */\n      0x00\n        /* \"#utility.yul\":2067:2104   */\n      tag_333\n        /* \"#utility.yul\":2098:2103   */\n      dup3\n        /* \"#utility.yul\":2067:2104   */\n      tag_280\n      jump\t// in\n    tag_333:\n        /* \"#utility.yul\":2054:2104   */\n      swap1\n      pop\n        /* \"#utility.yul\":1957:2110   */\n      swap2\n      swap1\n      pop\n      jump\t// out\n        /* \"#utility.yul\":2116:2301   */\n    tag_282:\n        /* \"#utility.yul\":2230:2294   */\n      tag_335\n        /* \"#utility.yul\":2288:2293   */\n      dup2\n        /* \"#utility.yul\":2230:2294   */\n      tag_281\n      jump\t// in\n    tag_335:\n        /* \"#utility.yul\":2225:2228   */\n      dup3\n        /* \"#utility.yul\":2218:2295   */\n      mstore\n        /* \"#utility.yul\":2116:2301   */\n      pop\n      pop\n      jump\t// out\n        /* \"#utility.yul\":2307:2583   */\n    tag_45:\n        /* \"#utility.yul\":2427:2431   */\n      0x00\n        /* \"#utility.yul\":2465:2467   */\n      0x20\n        /* \"#utility.yul\":2454:2463   */\n      dup3\n        /* \"#utility.yul\":2450:2468   */\n      add\n        /* \"#utility.yul\":2442:2468   */\n      swap1\n      pop\n        /* \"#utility.yul\":2478:2576   */\n      tag_337\n        /* \"#utility.yul\":2573:2574   */\n      0x00\n        /* \"#utility.yul\":2562:2571   */\n      dup4\n        /* \"#utility.yul\":2558:2575   */\n      add\n        /* \"#utility.yul\":2549:2555   */\n      dup5\n        /* \"#utility.yul\":2478:2576   */\n      tag_282\n      jump\t// in\n    tag_337:\n        /* \"#utility.yul\":2307:2583   */\n      swap3\n      swap2\n      pop\n      pop\n      jump\t// out\n        /* \"#utility.yul\":2589:2921   */\n    tag_51:\n        /* \"#utility.yul\":2710:2714   */\n      0x00\n        /* \"#utility.yul\":2748:2750   */\n      0x40\n        /* \"#utility.yul\":2737:2746   */\n      dup3\n        /* \"#utility.yul\":2733:2751   */\n      add\n        /* \"#utility.yul\":2725:2751   */\n      swap1\n      pop\n        /* \"#utility.yul\":2761:2832   */\n      tag_339\n        /* \"#utility.yul\":2829:2830   */\n      0x00\n        /* \"#utility.yul\":2818:2827   */\n      dup4\n        /* \"#utility.yul\":2814:2831   */\n      add\n        /* \"#utility.yul\":2805:2811   */\n      dup6\n        /* \"#utility.yul\":2761:2832   */\n      tag_270\n      jump\t// in\n    tag_339:\n        /* \"#utility.yul\":2842:2914   */\n      tag_340\n        /* \"#utility.yul\":2910:2912   */\n      0x20\n        /* \"#utility.yul\":2899:2908   */\n      dup4\n        /* \"#utility.yul\":2895:2913   */\n      add\n        /* \"#utility.yul\":2886:2892   */\n      dup5\n        /* \"#utility.yul\":2842:2914   */\n      tag_270\n      jump\t// in\n    tag_340:\n        /* \"#utility.yul\":2589:2921   */\n      swap4\n      swap3\n      pop\n      pop\n      pop\n      jump\t// out\n        /* \"#utility.yul\":2927:3049   */\n    tag_283:\n        /* \"#utility.yul\":3000:3024   */\n      tag_342\n        /* \"#utility.yul\":3018:3023   */\n      dup2\n        /* \"#utility.yul\":3000:3024   */\n      tag_269\n      jump\t// in\n    tag_342:\n        /* \"#utility.yul\":2993:2998   */\n      dup2\n        /* \"#utility.yul\":2990:3025   */\n      eq\n        /* \"#utility.yul\":2980:3043   */\n      tag_343\n      jumpi\n        /* \"#utility.yul\":3039:3040   */\n      0x00\n        /* \"#utility.yul\":3036:3037   */\n      dup1\n        /* \"#utility.yul\":3029:3041   */\n      revert\n        /* \"#utility.yul\":2980:3043   */\n    tag_343:\n        /* \"#utility.yul\":2927:3049   */\n      pop\n      jump\t// out\n        /* \"#utility.yul\":3055:3194   */\n    tag_284:\n        /* \"#utility.yul\":3101:3106   */\n      0x00\n        /* \"#utility.yul\":3139:3145   */\n      dup2\n        /* \"#utility.yul\":3126:3146   */\n      calldataload\n        /* \"#utility.yul\":3117:3146   */\n      swap1\n      pop\n        /* \"#utility.yul\":3155:3188   */\n      tag_345\n        /* \"#utility.yul\":3182:3187   */\n      dup2\n        /* \"#utility.yul\":3155:3188   */\n      tag_283\n      jump\t// in\n    tag_345:\n        /* \"#utility.yul\":3055:3194   */\n      swap3\n      swap2\n      pop\n      pop\n      jump\t// out\n        /* \"#utility.yul\":3200:3529   */\n    tag_55:\n        /* \"#utility.yul\":3259:3265   */\n      0x00\n        /* \"#utility.yul\":3308:3310   */\n      0x20\n        /* \"#utility.yul\":3296:3305   */\n      dup3\n        /* \"#utility.yul\":3287:3294   */\n      dup5\n        /* \"#utility.yul\":3283:3306   */\n      sub\n        /* \"#utility.yul\":3279:3311   */\n      slt\n        /* \"#utility.yul\":3276:3395   */\n      iszero\n      tag_347\n      jumpi\n        /* \"#utility.yul\":3314:3393   */\n      tag_348\n      tag_272\n      jump\t// in\n    tag_348:\n        /* \"#utility.yul\":3276:3395   */\n    tag_347:\n        /* \"#utility.yul\":3434:3435   */\n      0x00\n        /* \"#utility.yul\":3459:3512   */\n      tag_349\n        /* \"#utility.yul\":3504:3511   */\n      dup5\n        /* \"#utility.yul\":3495:3501   */\n      dup3\n        /* \"#utility.yul\":3484:3493   */\n      dup6\n        /* \"#utility.yul\":3480:3502   */\n      add\n        /* \"#utility.yul\":3459:3512   */\n      tag_284\n      jump\t// in\n    tag_349:\n        /* \"#utility.yul\":3449:3512   */\n      swap2\n      pop\n        /* \"#utility.yul\":3405:3522   */\n      pop\n        /* \"#utility.yul\":3200:3529   */\n      swap3\n      swap2\n      pop\n      pop\n      jump\t// out\n        /* \"#utility.yul\":3535:3625   */\n    tag_285:\n        /* \"#utility.yul\":3569:3576   */\n      0x00\n        /* \"#utility.yul\":3612:3617   */\n      dup2\n        /* \"#utility.yul\":3605:3618   */\n      iszero\n        /* \"#utility.yul\":3598:3619   */\n      iszero\n        /* \"#utility.yul\":3587:3619   */\n      swap1\n      pop\n        /* \"#utility.yul\":3535:3625   */\n      swap2\n      swap1\n      pop\n      jump\t// out\n        /* \"#utility.yul\":3631:3740   */\n    tag_286:\n        /* \"#utility.yul\":3712:3733   */\n      tag_352\n        /* \"#utility.yul\":3727:3732   */\n      dup2\n        /* \"#utility.yul\":3712:3733   */\n      tag_285\n      jump\t// in\n    tag_352:\n        /* \"#utility.yul\":3707:3710   */\n      dup3\n        /* \"#utility.yul\":3700:3734   */\n      mstore\n        /* \"#utility.yul\":3631:3740   */\n      pop\n      pop\n      jump\t// out\n        /* \"#utility.yul\":3746:3956   */\n    tag_72:\n        /* \"#utility.yul\":3833:3837   */\n      0x00\n        /* \"#utility.yul\":3871:3873   */\n      0x20\n        /* \"#utility.yul\":3860:3869   */\n      dup3\n        /* \"#utility.yul\":3856:3874   */\n      add\n        /* \"#utility.yul\":3848:3874   */\n      swap1\n      pop\n        /* \"#utility.yul\":3884:3949   */\n      tag_354\n        /* \"#utility.yul\":3946:3947   */\n      0x00\n        /* \"#utility.yul\":3935:3944   */\n      dup4\n        /* \"#utility.yul\":3931:3948   */\n      add\n        /* \"#utility.yul\":3922:3928   */\n      dup5\n        /* \"#utility.yul\":3884:3949   */\n      tag_286\n      jump\t// in\n    tag_354:\n        /* \"#utility.yul\":3746:3956   */\n      swap3\n      swap2\n      pop\n      pop\n      jump\t// out\n        /* \"#utility.yul\":3962:4080   */\n    tag_287:\n        /* \"#utility.yul\":4049:4073   */\n      tag_356\n        /* \"#utility.yul\":4067:4072   */\n      dup2\n        /* \"#utility.yul\":4049:4073   */\n      tag_275\n      jump\t// in\n    tag_356:\n        /* \"#utility.yul\":4044:4047   */\n      dup3\n        /* \"#utility.yul\":4037:4074   */\n      mstore\n        /* \"#utility.yul\":3962:4080   */\n      pop\n      pop\n      jump\t// out\n        /* \"#utility.yul\":4086:4308   */\n    tag_87:\n        /* \"#utility.yul\":4179:4183   */\n      0x00\n        /* \"#utility.yul\":4217:4219   */\n      0x20\n        /* \"#utility.yul\":4206:4215   */\n      dup3\n        /* \"#utility.yul\":4202:4220   */\n      add\n        /* \"#utility.yul\":4194:4220   */\n      swap1\n      pop\n        /* \"#utility.yul\":4230:4301   */\n      tag_358\n        /* \"#utility.yul\":4298:4299   */\n      0x00\n        /* \"#utility.yul\":4287:4296   */\n      dup4\n        /* \"#utility.yul\":4283:4300   */\n      add\n        /* \"#utility.yul\":4274:4280   */\n      dup5\n        /* \"#utility.yul\":4230:4301   */\n      tag_287\n      jump\t// in\n    tag_358:\n        /* \"#utility.yul\":4086:4308   */\n      swap3\n      swap2\n      pop\n      pop\n      jump\t// out\n        /* \"#utility.yul\":4314:4454   */\n    tag_288:\n        /* \"#utility.yul\":4378:4387   */\n      0x00\n        /* \"#utility.yul\":4411:4448   */\n      tag_360\n        /* \"#utility.yul\":4442:4447   */\n      dup3\n        /* \"#utility.yul\":4411:4448   */\n      tag_280\n      jump\t// in\n    tag_360:\n        /* \"#utility.yul\":4398:4448   */\n      swap1\n      pop\n        /* \"#utility.yul\":4314:4454   */\n      swap2\n      swap1\n      pop\n      jump\t// out\n        /* \"#utility.yul\":4460:4619   */\n    tag_289:\n        /* \"#utility.yul\":4561:4612   */\n      tag_362\n        /* \"#utility.yul\":4606:4611   */\n      dup2\n        /* \"#utility.yul\":4561:4612   */\n      tag_288\n      jump\t// in\n    tag_362:\n        /* \"#utility.yul\":4556:4559   */\n      dup3\n        /* \"#utility.yul\":4549:4613   */\n      mstore\n        /* \"#utility.yul\":4460:4619   */\n      pop\n      pop\n      jump\t// out\n        /* \"#utility.yul\":4625:4875   */\n    tag_105:\n        /* \"#utility.yul\":4732:4736   */\n      0x00\n        /* \"#utility.yul\":4770:4772   */\n      0x20\n        /* \"#utility.yul\":4759:4768   */\n      dup3\n        /* \"#utility.yul\":4755:4773   */\n      add\n        /* \"#utility.yul\":4747:4773   */\n      swap1\n      pop\n        /* \"#utility.yul\":4783:4868   */\n      tag_364\n        /* \"#utility.yul\":4865:4866   */\n      0x00\n        /* \"#utility.yul\":4854:4863   */\n      dup4\n        /* \"#utility.yul\":4850:4867   */\n      add\n        /* \"#utility.yul\":4841:4847   */\n      dup5\n        /* \"#utility.yul\":4783:4868   */\n      tag_289\n      jump\t// in\n    tag_364:\n        /* \"#utility.yul\":4625:4875   */\n      swap3\n      swap2\n      pop\n      pop\n      jump\t// out\n        /* \"#utility.yul\":4881:4957   */\n    tag_290:\n        /* \"#utility.yul\":4917:4924   */\n      0x00\n        /* \"#utility.yul\":4946:4951   */\n      dup2\n        /* \"#utility.yul\":4935:4951   */\n      swap1\n      pop\n        /* \"#utility.yul\":4881:4957   */\n      swap2\n      swap1\n      pop\n      jump\t// out\n        /* \"#utility.yul\":4963:5083   */\n    tag_291:\n        /* \"#utility.yul\":5035:5058   */\n      tag_367\n        /* \"#utility.yul\":5052:5057   */\n      dup2\n        /* \"#utility.yul\":5035:5058   */\n      tag_290\n      jump\t// in\n    tag_367:\n        /* \"#utility.yul\":5028:5033   */\n      dup2\n        /* \"#utility.yul\":5025:5059   */\n      eq\n        /* \"#utility.yul\":5015:5077   */\n      tag_368\n      jumpi\n        /* \"#utility.yul\":5073:5074   */\n      0x00\n        /* \"#utility.yul\":5070:5071   */\n      dup1\n        /* \"#utility.yul\":5063:5075   */\n      revert\n        /* \"#utility.yul\":5015:5077   */\n    tag_368:\n        /* \"#utility.yul\":4963:5083   */\n      pop\n      jump\t// out\n        /* \"#utility.yul\":5089:5230   */\n    tag_292:\n        /* \"#utility.yul\":5145:5150   */\n      0x00\n        /* \"#utility.yul\":5176:5182   */\n      dup2\n        /* \"#utility.yul\":5170:5183   */\n      mload\n        /* \"#utility.yul\":5161:5183   */\n      swap1\n      pop\n        /* \"#utility.yul\":5192:5224   */\n      tag_370\n        /* \"#utility.yul\":5218:5223   */\n      dup2\n        /* \"#utility.yul\":5192:5224   */\n      tag_291\n      jump\t// in\n    tag_370:\n        /* \"#utility.yul\":5089:5230   */\n      swap3\n      swap2\n      pop\n      pop\n      jump\t// out\n        /* \"#utility.yul\":5236:5585   */\n    tag_121:\n        /* \"#utility.yul\":5305:5311   */\n      0x00\n        /* \"#utility.yul\":5354:5356   */\n      0x20\n        /* \"#utility.yul\":5342:5351   */\n      dup3\n        /* \"#utility.yul\":5333:5340   */\n      dup5\n        /* \"#utility.yul\":5329:5352   */\n      sub\n        /* \"#utility.yul\":5325:5357   */\n      slt\n        /* \"#utility.yul\":5322:5441   */\n      iszero\n      tag_372\n      jumpi\n        /* \"#utility.yul\":5360:5439   */\n      tag_373\n      tag_272\n      jump\t// in\n    tag_373:\n        /* \"#utility.yul\":5322:5441   */\n    tag_372:\n        /* \"#utility.yul\":5480:5481   */\n      0x00\n        /* \"#utility.yul\":5505:5568   */\n      tag_374\n        /* \"#utility.yul\":5560:5567   */\n      dup5\n        /* \"#utility.yul\":5551:5557   */\n      dup3\n        /* \"#utility.yul\":5540:5549   */\n      dup6\n        /* \"#utility.yul\":5536:5558   */\n      add\n        /* \"#utility.yul\":5505:5568   */\n      tag_292\n      jump\t// in\n    tag_374:\n        /* \"#utility.yul\":5495:5568   */\n      swap2\n      pop\n        /* \"#utility.yul\":5451:5578   */\n      pop\n        /* \"#utility.yul\":5236:5585   */\n      swap3\n      swap2\n      pop\n      pop\n      jump\t// out\n        /* \"#utility.yul\":5591:5771   */\n    tag_293:\n        /* \"#utility.yul\":5639:5716   */\n      0x4e487b7100000000000000000000000000000000000000000000000000000000\n        /* \"#utility.yul\":5636:5637   */\n      0x00\n        /* \"#utility.yul\":5629:5717   */\n      mstore\n        /* \"#utility.yul\":5736:5740   */\n      0x11\n        /* \"#utility.yul\":5733:5734   */\n      0x04\n        /* \"#utility.yul\":5726:5741   */\n      mstore\n        /* \"#utility.yul\":5760:5764   */\n      0x24\n        /* \"#utility.yul\":5757:5758   */\n      0x00\n        /* \"#utility.yul\":5750:5765   */\n      revert\n        /* \"#utility.yul\":5777:6187   */\n    tag_126:\n        /* \"#utility.yul\":5817:5824   */\n      0x00\n        /* \"#utility.yul\":5840:5860   */\n      tag_377\n        /* \"#utility.yul\":5858:5859   */\n      dup3\n        /* \"#utility.yul\":5840:5860   */\n      tag_269\n      jump\t// in\n    tag_377:\n        /* \"#utility.yul\":5835:5860   */\n      swap2\n      pop\n        /* \"#utility.yul\":5874:5894   */\n      tag_378\n        /* \"#utility.yul\":5892:5893   */\n      dup4\n        /* \"#utility.yul\":5874:5894   */\n      tag_269\n      jump\t// in\n    tag_378:\n        /* \"#utility.yul\":5869:5894   */\n      swap3\n      pop\n        /* \"#utility.yul\":5929:5930   */\n      dup3\n        /* \"#utility.yul\":5926:5927   */\n      dup3\n        /* \"#utility.yul\":5922:5931   */\n      mul\n        /* \"#utility.yul\":5951:5981   */\n      tag_379\n        /* \"#utility.yul\":5969:5980   */\n      dup2\n        /* \"#utility.yul\":5951:5981   */\n      tag_269\n      jump\t// in\n    tag_379:\n        /* \"#utility.yul\":5940:5981   */\n      swap2\n      pop\n        /* \"#utility.yul\":6130:6131   */\n      dup3\n        /* \"#utility.yul\":6121:6128   */\n      dup3\n        /* \"#utility.yul\":6117:6132   */\n      div\n        /* \"#utility.yul\":6114:6115   */\n      dup5\n        /* \"#utility.yul\":6111:6133   */\n      eq\n        /* \"#utility.yul\":6091:6092   */\n      dup4\n        /* \"#utility.yul\":6084:6093   */\n      iszero\n        /* \"#utility.yul\":6064:6147   */\n      or\n        /* \"#utility.yul\":6041:6180   */\n      tag_380\n      jumpi\n        /* \"#utility.yul\":6160:6178   */\n      tag_381\n      tag_293\n      jump\t// in\n    tag_381:\n        /* \"#utility.yul\":6041:6180   */\n    tag_380:\n        /* \"#utility.yul\":5825:6187   */\n      pop\n        /* \"#utility.yul\":5777:6187   */\n      swap3\n      swap2\n      pop\n      pop\n      jump\t// out\n        /* \"#utility.yul\":6193:6373   */\n    tag_294:\n        /* \"#utility.yul\":6241:6318   */\n      0x4e487b7100000000000000000000000000000000000000000000000000000000\n        /* \"#utility.yul\":6238:6239   */\n      0x00\n        /* \"#utility.yul\":6231:6319   */\n      mstore\n        /* \"#utility.yul\":6338:6342   */\n      0x12\n        /* \"#utility.yul\":6335:6336   */\n      0x04\n        /* \"#utility.yul\":6328:6343   */\n      mstore\n        /* \"#utility.yul\":6362:6366   */\n      0x24\n        /* \"#utility.yul\":6359:6360   */\n      0x00\n        /* \"#utility.yul\":6352:6367   */\n      revert\n        /* \"#utility.yul\":6379:6564   */\n    tag_128:\n        /* \"#utility.yul\":6419:6420   */\n      0x00\n        /* \"#utility.yul\":6436:6456   */\n      tag_384\n        /* \"#utility.yul\":6454:6455   */\n      dup3\n        /* \"#utility.yul\":6436:6456   */\n      tag_269\n      jump\t// in\n    tag_384:\n        /* \"#utility.yul\":6431:6456   */\n      swap2\n      pop\n        /* \"#utility.yul\":6470:6490   */\n      tag_385\n        /* \"#utility.yul\":6488:6489   */\n      dup4\n        /* \"#utility.yul\":6470:6490   */\n      tag_269\n      jump\t// in\n    tag_385:\n        /* \"#utility.yul\":6465:6490   */\n      swap3\n      pop\n        /* \"#utility.yul\":6509:6510   */\n      dup3\n        /* \"#utility.yul\":6499:6534   */\n      tag_386\n      jumpi\n        /* \"#utility.yul\":6514:6532   */\n      tag_387\n      tag_294\n      jump\t// in\n    tag_387:\n        /* \"#utility.yul\":6499:6534   */\n    tag_386:\n        /* \"#utility.yul\":6556:6557   */\n      dup3\n        /* \"#utility.yul\":6553:6554   */\n      dup3\n        /* \"#utility.yul\":6549:6558   */\n      div\n        /* \"#utility.yul\":6544:6558   */\n      swap1\n      pop\n        /* \"#utility.yul\":6379:6564   */\n      swap3\n      swap2\n      pop\n      pop\n      jump\t// out\n        /* \"#utility.yul\":6570:6761   */\n    tag_132:\n        /* \"#utility.yul\":6610:6613   */\n      0x00\n        /* \"#utility.yul\":6629:6649   */\n      tag_389\n        /* \"#utility.yul\":6647:6648   */\n      dup3\n        /* \"#utility.yul\":6629:6649   */\n      tag_269\n      jump\t// in\n    tag_389:\n        /* \"#utility.yul\":6624:6649   */\n      swap2\n      pop\n        /* \"#utility.yul\":6663:6683   */\n      tag_390\n        /* \"#utility.yul\":6681:6682   */\n      dup4\n        /* \"#utility.yul\":6663:6683   */\n      tag_269\n      jump\t// in\n    tag_390:\n        /* \"#utility.yul\":6658:6683   */\n      swap3\n      pop\n        /* \"#utility.yul\":6706:6707   */\n      dup3\n        /* \"#utility.yul\":6703:6704   */\n      dup3\n        /* \"#utility.yul\":6699:6708   */\n      add\n        /* \"#utility.yul\":6692:6708   */\n      swap1\n      pop\n        /* \"#utility.yul\":6727:6730   */\n      dup1\n        /* \"#utility.yul\":6724:6725   */\n      dup3\n        /* \"#utility.yul\":6721:6731   */\n      gt\n        /* \"#utility.yul\":6718:6754   */\n      iszero\n      tag_391\n      jumpi\n        /* \"#utility.yul\":6734:6752   */\n      tag_392\n      tag_293\n      jump\t// in\n    tag_392:\n        /* \"#utility.yul\":6718:6754   */\n    tag_391:\n        /* \"#utility.yul\":6570:6761   */\n      swap3\n      swap2\n      pop\n      pop\n      jump\t// out\n        /* \"#utility.yul\":6767:7099   */\n    tag_140:\n        /* \"#utility.yul\":6888:6892   */\n      0x00\n        /* \"#utility.yul\":6926:6928   */\n      0x40\n        /* \"#utility.yul\":6915:6924   */\n      dup3\n        /* \"#utility.yul\":6911:6929   */\n      add\n        /* \"#utility.yul\":6903:6929   */\n      swap1\n      pop\n        /* \"#utility.yul\":6939:7010   */\n      tag_394\n        /* \"#utility.yul\":7007:7008   */\n      0x00\n        /* \"#utility.yul\":6996:7005   */\n      dup4\n        /* \"#utility.yul\":6992:7009   */\n      add\n        /* \"#utility.yul\":6983:6989   */\n      dup6\n        /* \"#utility.yul\":6939:7010   */\n      tag_287\n      jump\t// in\n    tag_394:\n        /* \"#utility.yul\":7020:7092   */\n      tag_395\n        /* \"#utility.yul\":7088:7090   */\n      0x20\n        /* \"#utility.yul\":7077:7086   */\n      dup4\n        /* \"#utility.yul\":7073:7091   */\n      add\n        /* \"#utility.yul\":7064:7070   */\n      dup5\n        /* \"#utility.yul\":7020:7092   */\n      tag_270\n      jump\t// in\n    tag_395:\n        /* \"#utility.yul\":6767:7099   */\n      swap4\n      swap3\n      pop\n      pop\n      pop\n      jump\t// out\n        /* \"#utility.yul\":7105:7221   */\n    tag_295:\n        /* \"#utility.yul\":7175:7196   */\n      tag_397\n        /* \"#utility.yul\":7190:7195   */\n      dup2\n        /* \"#utility.yul\":7175:7196   */\n      tag_285\n      jump\t// in\n    tag_397:\n        /* \"#utility.yul\":7168:7173   */\n      dup2\n        /* \"#utility.yul\":7165:7197   */\n      eq\n        /* \"#utility.yul\":7155:7215   */\n      tag_398\n      jumpi\n        /* \"#utility.yul\":7211:7212   */\n      0x00\n        /* \"#utility.yul\":7208:7209   */\n      dup1\n        /* \"#utility.yul\":7201:7213   */\n      revert\n        /* \"#utility.yul\":7155:7215   */\n    tag_398:\n        /* \"#utility.yul\":7105:7221   */\n      pop\n      jump\t// out\n        /* \"#utility.yul\":7227:7364   */\n    tag_296:\n        /* \"#utility.yul\":7281:7286   */\n      0x00\n        /* \"#utility.yul\":7312:7318   */\n      dup2\n        /* \"#utility.yul\":7306:7319   */\n      mload\n        /* \"#utility.yul\":7297:7319   */\n      swap1\n      pop\n        /* \"#utility.yul\":7328:7358   */\n      tag_400\n        /* \"#utility.yul\":7352:7357   */\n      dup2\n        /* \"#utility.yul\":7328:7358   */\n      tag_295\n      jump\t// in\n    tag_400:\n        /* \"#utility.yul\":7227:7364   */\n      swap3\n      swap2\n      pop\n      pop\n      jump\t// out\n        /* \"#utility.yul\":7370:7715   */\n    tag_144:\n        /* \"#utility.yul\":7437:7443   */\n      0x00\n        /* \"#utility.yul\":7486:7488   */\n      0x20\n        /* \"#utility.yul\":7474:7483   */\n      dup3\n        /* \"#utility.yul\":7465:7472   */\n      dup5\n        /* \"#utility.yul\":7461:7484   */\n      sub\n        /* \"#utility.yul\":7457:7489   */\n      slt\n        /* \"#utility.yul\":7454:7573   */\n      iszero\n      tag_402\n      jumpi\n        /* \"#utility.yul\":7492:7571   */\n      tag_403\n      tag_272\n      jump\t// in\n    tag_403:\n        /* \"#utility.yul\":7454:7573   */\n    tag_402:\n        /* \"#utility.yul\":7612:7613   */\n      0x00\n        /* \"#utility.yul\":7637:7698   */\n      tag_404\n        /* \"#utility.yul\":7690:7697   */\n      dup5\n        /* \"#utility.yul\":7681:7687   */\n      dup3\n        /* \"#utility.yul\":7670:7679   */\n      dup6\n        /* \"#utility.yul\":7666:7688   */\n      add\n        /* \"#utility.yul\":7637:7698   */\n      tag_296\n      jump\t// in\n    tag_404:\n        /* \"#utility.yul\":7627:7698   */\n      swap2\n      pop\n        /* \"#utility.yul\":7583:7708   */\n      pop\n        /* \"#utility.yul\":7370:7715   */\n      swap3\n      swap2\n      pop\n      pop\n      jump\t// out\n        /* \"#utility.yul\":7721:7890   */\n    tag_297:\n        /* \"#utility.yul\":7805:7816   */\n      0x00\n        /* \"#utility.yul\":7839:7845   */\n      dup3\n        /* \"#utility.yul\":7834:7837   */\n      dup3\n        /* \"#utility.yul\":7827:7846   */\n      mstore\n        /* \"#utility.yul\":7879:7883   */\n      0x20\n        /* \"#utility.yul\":7874:7877   */\n      dup3\n        /* \"#utility.yul\":7870:7884   */\n      add\n        /* \"#utility.yul\":7855:7884   */\n      swap1\n      pop\n        /* \"#utility.yul\":7721:7890   */\n      swap3\n      swap2\n      pop\n      pop\n      jump\t// out\n        /* \"#utility.yul\":7896:8116   */\n    tag_298:\n        /* \"#utility.yul\":8036:8070   */\n      0x436f6c6c61746572616c4d616e616765723a20496e76616c696420616d6f756e\n        /* \"#utility.yul\":8032:8033   */\n      0x00\n        /* \"#utility.yul\":8024:8030   */\n      dup3\n        /* \"#utility.yul\":8020:8034   */\n      add\n        /* \"#utility.yul\":8013:8071   */\n      mstore\n        /* \"#utility.yul\":8105:8108   */\n      0x7400000000000000000000000000000000000000000000000000000000000000\n        /* \"#utility.yul\":8100:8102   */\n      0x20\n        /* \"#utility.yul\":8092:8098   */\n      dup3\n        /* \"#utility.yul\":8088:8103   */\n      add\n        /* \"#utility.yul\":8081:8109   */\n      mstore\n        /* \"#utility.yul\":7896:8116   */\n      pop\n      jump\t// out\n        /* \"#utility.yul\":8122:8488   */\n    tag_299:\n        /* \"#utility.yul\":8264:8267   */\n      0x00\n        /* \"#utility.yul\":8285:8352   */\n      tag_408\n        /* \"#utility.yul\":8349:8351   */\n      0x21\n        /* \"#utility.yul\":8344:8347   */\n      dup4\n        /* \"#utility.yul\":8285:8352   */\n      tag_297\n      jump\t// in\n    tag_408:\n        /* \"#utility.yul\":8278:8352   */\n      swap2\n      pop\n        /* \"#utility.yul\":8361:8454   */\n      tag_409\n        /* \"#utility.yul\":8450:8453   */\n      dup3\n        /* \"#utility.yul\":8361:8454   */\n      tag_298\n      jump\t// in\n    tag_409:\n        /* \"#utility.yul\":8479:8481   */\n      0x40\n        /* \"#utility.yul\":8474:8477   */\n      dup3\n        /* \"#utility.yul\":8470:8482   */\n      add\n        /* \"#utility.yul\":8463:8482   */\n      swap1\n      pop\n        /* \"#utility.yul\":8122:8488   */\n      swap2\n      swap1\n      pop\n      jump\t// out\n        /* \"#utility.yul\":8494:8913   */\n    tag_156:\n        /* \"#utility.yul\":8660:8664   */\n      0x00\n        /* \"#utility.yul\":8698:8700   */\n      0x20\n        /* \"#utility.yul\":8687:8696   */\n      dup3\n        /* \"#utility.yul\":8683:8701   */\n      add\n        /* \"#utility.yul\":8675:8701   */\n      swap1\n      pop\n        /* \"#utility.yul\":8747:8756   */\n      dup2\n        /* \"#utility.yul\":8741:8745   */\n      dup2\n        /* \"#utility.yul\":8737:8757   */\n      sub\n        /* \"#utility.yul\":8733:8734   */\n      0x00\n        /* \"#utility.yul\":8722:8731   */\n      dup4\n        /* \"#utility.yul\":8718:8735   */\n      add\n        /* \"#utility.yul\":8711:8758   */\n      mstore\n        /* \"#utility.yul\":8775:8906   */\n      tag_411\n        /* \"#utility.yul\":8901:8905   */\n      dup2\n        /* \"#utility.yul\":8775:8906   */\n      tag_299\n      jump\t// in\n    tag_411:\n        /* \"#utility.yul\":8767:8906   */\n      swap1\n      pop\n        /* \"#utility.yul\":8494:8913   */\n      swap2\n      swap1\n      pop\n      jump\t// out\n        /* \"#utility.yul\":8919:9361   */\n    tag_158:\n        /* \"#utility.yul\":9068:9072   */\n      0x00\n        /* \"#utility.yul\":9106:9108   */\n      0x60\n        /* \"#utility.yul\":9095:9104   */\n      dup3\n        /* \"#utility.yul\":9091:9109   */\n      add\n        /* \"#utility.yul\":9083:9109   */\n      swap1\n      pop\n        /* \"#utility.yul\":9119:9190   */\n      tag_413\n        /* \"#utility.yul\":9187:9188   */\n      0x00\n        /* \"#utility.yul\":9176:9185   */\n      dup4\n        /* \"#utility.yul\":9172:9189   */\n      add\n        /* \"#utility.yul\":9163:9169   */\n      dup7\n        /* \"#utility.yul\":9119:9190   */\n      tag_287\n      jump\t// in\n    tag_413:\n        /* \"#utility.yul\":9200:9272   */\n      tag_414\n        /* \"#utility.yul\":9268:9270   */\n      0x20\n        /* \"#utility.yul\":9257:9266   */\n      dup4\n        /* \"#utility.yul\":9253:9271   */\n      add\n        /* \"#utility.yul\":9244:9250   */\n      dup6\n        /* \"#utility.yul\":9200:9272   */\n      tag_287\n      jump\t// in\n    tag_414:\n        /* \"#utility.yul\":9282:9354   */\n      tag_415\n        /* \"#utility.yul\":9350:9352   */\n      0x40\n        /* \"#utility.yul\":9339:9348   */\n      dup4\n        /* \"#utility.yul\":9335:9353   */\n      add\n        /* \"#utility.yul\":9326:9332   */\n      dup5\n        /* \"#utility.yul\":9282:9354   */\n      tag_270\n      jump\t// in\n    tag_415:\n        /* \"#utility.yul\":8919:9361   */\n      swap5\n      swap4\n      pop\n      pop\n      pop\n      pop\n      jump\t// out\n        /* \"#utility.yul\":9367:9588   */\n    tag_300:\n        /* \"#utility.yul\":9507:9541   */\n      0x436f6c6c61746572616c4d616e616765723a205472616e73666572206661696c\n        /* \"#utility.yul\":9503:9504   */\n      0x00\n        /* \"#utility.yul\":9495:9501   */\n      dup3\n        /* \"#utility.yul\":9491:9505   */\n      add\n        /* \"#utility.yul\":9484:9542   */\n      mstore\n        /* \"#utility.yul\":9576:9580   */\n      0x6564000000000000000000000000000000000000000000000000000000000000\n        /* \"#utility.yul\":9571:9573   */\n      0x20\n        /* \"#utility.yul\":9563:9569   */\n      dup3\n        /* \"#utility.yul\":9559:9574   */\n      add\n        /* \"#utility.yul\":9552:9581   */\n      mstore\n        /* \"#utility.yul\":9367:9588   */\n      pop\n      jump\t// out\n        /* \"#utility.yul\":9594:9960   */\n    tag_301:\n        /* \"#utility.yul\":9736:9739   */\n      0x00\n        /* \"#utility.yul\":9757:9824   */\n      tag_418\n        /* \"#utility.yul\":9821:9823   */\n      0x22\n        /* \"#utility.yul\":9816:9819   */\n      dup4\n        /* \"#utility.yul\":9757:9824   */\n      tag_297\n      jump\t// in\n    tag_418:\n        /* \"#utility.yul\":9750:9824   */\n      swap2\n      pop\n        /* \"#utility.yul\":9833:9926   */\n      tag_419\n        /* \"#utility.yul\":9922:9925   */\n      dup3\n        /* \"#utility.yul\":9833:9926   */\n      tag_300\n      jump\t// in\n    tag_419:\n        /* \"#utility.yul\":9951:9953   */\n      0x40\n        /* \"#utility.yul\":9946:9949   */\n      dup3\n        /* \"#utility.yul\":9942:9954   */\n      add\n        /* \"#utility.yul\":9935:9954   */\n      swap1\n      pop\n        /* \"#utility.yul\":9594:9960   */\n      swap2\n      swap1\n      pop\n      jump\t// out\n        /* \"#utility.yul\":9966:10385   */\n    tag_164:\n        /* \"#utility.yul\":10132:10136   */\n      0x00\n        /* \"#utility.yul\":10170:10172   */\n      0x20\n        /* \"#utility.yul\":10159:10168   */\n      dup3\n        /* \"#utility.yul\":10155:10173   */\n      add\n        /* \"#utility.yul\":10147:10173   */\n      swap1\n      pop\n        /* \"#utility.yul\":10219:10228   */\n      dup2\n        /* \"#utility.yul\":10213:10217   */\n      dup2\n        /* \"#utility.yul\":10209:10229   */\n      sub\n        /* \"#utility.yul\":10205:10206   */\n      0x00\n        /* \"#utility.yul\":10194:10203   */\n      dup4\n        /* \"#utility.yul\":10190:10207   */\n      add\n        /* \"#utility.yul\":10183:10230   */\n      mstore\n        /* \"#utility.yul\":10247:10378   */\n      tag_421\n        /* \"#utility.yul\":10373:10377   */\n      dup2\n        /* \"#utility.yul\":10247:10378   */\n      tag_301\n      jump\t// in\n    tag_421:\n        /* \"#utility.yul\":10239:10378   */\n      swap1\n      pop\n        /* \"#utility.yul\":9966:10385   */\n      swap2\n      swap1\n      pop\n      jump\t// out\n        /* \"#utility.yul\":10391:10617   */\n    tag_302:\n        /* \"#utility.yul\":10531:10565   */\n      0x436f6c6c61746572616c4d616e616765723a20496e73756666696369656e7420\n        /* \"#utility.yul\":10527:10528   */\n      0x00\n        /* \"#utility.yul\":10519:10525   */\n      dup3\n        /* \"#utility.yul\":10515:10529   */\n      add\n        /* \"#utility.yul\":10508:10566   */\n      mstore\n        /* \"#utility.yul\":10600:10609   */\n      0x62616c616e636500000000000000000000000000000000000000000000000000\n        /* \"#utility.yul\":10595:10597   */\n      0x20\n        /* \"#utility.yul\":10587:10593   */\n      dup3\n        /* \"#utility.yul\":10583:10598   */\n      add\n        /* \"#utility.yul\":10576:10610   */\n      mstore\n        /* \"#utility.yul\":10391:10617   */\n      pop\n      jump\t// out\n        /* \"#utility.yul\":10623:10989   */\n    tag_303:\n        /* \"#utility.yul\":10765:10768   */\n      0x00\n        /* \"#utility.yul\":10786:10853   */\n      tag_424\n        /* \"#utility.yul\":10850:10852   */\n      0x27\n        /* \"#utility.yul\":10845:10848   */\n      dup4\n        /* \"#utility.yul\":10786:10853   */\n      tag_297\n      jump\t// in\n    tag_424:\n        /* \"#utility.yul\":10779:10853   */\n      swap2\n      pop\n        /* \"#utility.yul\":10862:10955   */\n      tag_425\n        /* \"#utility.yul\":10951:10954   */\n      dup3\n        /* \"#utility.yul\":10862:10955   */\n      tag_302\n      jump\t// in\n    tag_425:\n        /* \"#utility.yul\":10980:10982   */\n      0x40\n        /* \"#utility.yul\":10975:10978   */\n      dup3\n        /* \"#utility.yul\":10971:10983   */\n      add\n        /* \"#utility.yul\":10964:10983   */\n      swap1\n      pop\n        /* \"#utility.yul\":10623:10989   */\n      swap2\n      swap1\n      pop\n      jump\t// out\n        /* \"#utility.yul\":10995:11414   */\n    tag_184:\n        /* \"#utility.yul\":11161:11165   */\n      0x00\n        /* \"#utility.yul\":11199:11201   */\n      0x20\n        /* \"#utility.yul\":11188:11197   */\n      dup3\n        /* \"#utility.yul\":11184:11202   */\n      add\n        /* \"#utility.yul\":11176:11202   */\n      swap1\n      pop\n        /* \"#utility.yul\":11248:11257   */\n      dup2\n        /* \"#utility.yul\":11242:11246   */\n      dup2\n        /* \"#utility.yul\":11238:11258   */\n      sub\n        /* \"#utility.yul\":11234:11235   */\n      0x00\n        /* \"#utility.yul\":11223:11232   */\n      dup4\n        /* \"#utility.yul\":11219:11236   */\n      add\n        /* \"#utility.yul\":11212:11259   */\n      mstore\n        /* \"#utility.yul\":11276:11407   */\n      tag_427\n        /* \"#utility.yul\":11402:11406   */\n      dup2\n        /* \"#utility.yul\":11276:11407   */\n      tag_303\n      jump\t// in\n    tag_427:\n        /* \"#utility.yul\":11268:11407   */\n      swap1\n      pop\n        /* \"#utility.yul\":10995:11414   */\n      swap2\n      swap1\n      pop\n      jump\t// out\n        /* \"#utility.yul\":11420:11614   */\n    tag_186:\n        /* \"#utility.yul\":11460:11464   */\n      0x00\n        /* \"#utility.yul\":11480:11500   */\n      tag_429\n        /* \"#utility.yul\":11498:11499   */\n      dup3\n        /* \"#utility.yul\":11480:11500   */\n      tag_269\n      jump\t// in\n    tag_429:\n        /* \"#utility.yul\":11475:11500   */\n      swap2\n      pop\n        /* \"#utility.yul\":11514:11534   */\n      tag_430\n        /* \"#utility.yul\":11532:11533   */\n      dup4\n        /* \"#utility.yul\":11514:11534   */\n      tag_269\n      jump\t// in\n    tag_430:\n        /* \"#utility.yul\":11509:11534   */\n      swap3\n      pop\n        /* \"#utility.yul\":11558:11559   */\n      dup3\n        /* \"#utility.yul\":11555:11556   */\n      dup3\n        /* \"#utility.yul\":11551:11560   */\n      sub\n        /* \"#utility.yul\":11543:11560   */\n      swap1\n      pop\n        /* \"#utility.yul\":11582:11583   */\n      dup2\n        /* \"#utility.yul\":11576:11580   */\n      dup2\n        /* \"#utility.yul\":11573:11584   */\n      gt\n        /* \"#utility.yul\":11570:11607   */\n      iszero\n      tag_431\n      jumpi\n        /* \"#utility.yul\":11587:11605   */\n      tag_432\n      tag_293\n      jump\t// in\n    tag_432:\n        /* \"#utility.yul\":11570:11607   */\n    tag_431:\n        /* \"#utility.yul\":11420:11614   */\n      swap3\n      swap2\n      pop\n      pop\n      jump\t// out\n\n    auxdata: 0xa26469706673582212208272beac9a8108e3b3ace9323fa261d1ab6ce9452c1a5836374054289bbe722a64736f6c634300081a0033\n}\n",
				"bytecode": {
					"linkReferences": {},
					"object": "6080604052670de0b6b3a7640000600655678ac7230489e80000600755348015610027575f80fd5b50604051611dd1380380611dd1833981810160405281019061004991906102cc565b3360015f819055505f60015f6101000a81548160ff0219169083151502179055505f73ffffffffffffffffffffffffffffffffffffffff168173ffffffffffffffffffffffffffffffffffffffff16036100da575f6040517f1e4fbdf70000000000000000000000000000000000000000000000000000000081526004016100d19190610319565b60405180910390fd5b6100e98161017160201b60201c565b508160025f6101000a81548173ffffffffffffffffffffffffffffffffffffffff021916908373ffffffffffffffffffffffffffffffffffffffff1602179055508060035f6101000a81548173ffffffffffffffffffffffffffffffffffffffff021916908373ffffffffffffffffffffffffffffffffffffffff1602179055505050610332565b5f60018054906101000a900473ffffffffffffffffffffffffffffffffffffffff169050816001806101000a81548173ffffffffffffffffffffffffffffffffffffffff021916908373ffffffffffffffffffffffffffffffffffffffff1602179055508173ffffffffffffffffffffffffffffffffffffffff168173ffffffffffffffffffffffffffffffffffffffff167f8be0079c531659141344cd1fd0a4f28419497f9722a3daafe3b4186f6b6457e060405160405180910390a35050565b5f80fd5b5f73ffffffffffffffffffffffffffffffffffffffff82169050919050565b5f61026082610237565b9050919050565b5f61027182610256565b9050919050565b61028181610267565b811461028b575f80fd5b50565b5f8151905061029c81610278565b92915050565b6102ab81610256565b81146102b5575f80fd5b50565b5f815190506102c6816102a2565b92915050565b5f80604083850312156102e2576102e1610233565b5b5f6102ef8582860161028e565b9250506020610300858286016102b8565b9150509250929050565b61031381610256565b82525050565b5f60208201905061032c5f83018461030a565b92915050565b611a928061033f5f395ff3fe608060405260043610610129575f3560e01c806360b3b338116100aa5780639083baa61161006e5780639083baa6146103845780639e30bce7146103ae578063a98ad46c146103ea578063c3b2a4a414610414578063d57ac70d14610450578063f2fde38b1461045a57610129565b806360b3b338146102dc578063715018a6146103065780638456cb591461031c5780638da5cb5b146103325780638e817efe1461035c57610129565b80632f5723d5116100f15780632f5723d5146102225780633f4ba83a1461024a5780635269384e1461026057806352ce97141461028a5780635c975abb146102b257610129565b8063048851151461012d57806309b8aafd14610157578063192e7a7b146101935780632630c12f146101bb5780632703ee85146101e5575b5f80fd5b348015610138575f80fd5b50610141610482565b60405161014e919061143c565b60405180910390f35b348015610162575f80fd5b5061017d600480360381019061017891906114b3565b610488565b60405161018a919061143c565b60405180910390f35b34801561019e575f80fd5b506101b960048036038101906101b491906114b3565b61067b565b005b3480156101c6575f80fd5b506101cf6107e9565b6040516101dc9190611539565b60405180910390f35b3480156101f0575f80fd5b5061020b600480360381019061020691906114b3565b61080e565b604051610219929190611552565b60405180910390f35b34801561022d575f80fd5b50610248600480360381019061024391906115a3565b610895565b005b348015610255575f80fd5b5061025e610a8a565b005b34801561026b575f80fd5b50610274610a9c565b604051610281919061143c565b60405180910390f35b348015610295575f80fd5b506102b060048036038101906102ab91906115a3565b610aa2565b005b3480156102bd575f80fd5b506102c6610d13565b6040516102d391906115e8565b60405180910390f35b3480156102e7575f80fd5b506102f0610d28565b6040516102fd919061143c565b60405180910390f35b348015610311575f80fd5b5061031a610d2e565b005b348015610327575f80fd5b50610330610d41565b005b34801561033d575f80fd5b50610346610d53565b6040516103539190611610565b60405180910390f35b348015610367575f80fd5b50610382600480360381019061037d91906115a3565b610d7a565b005b34801561038f575f80fd5b50610398610f54565b6040516103a5919061143c565b60405180910390f35b3480156103b9575f80fd5b506103d460048036038101906103cf91906114b3565b610f5a565b6040516103e1919061143c565b60405180910390f35b3480156103f5575f80fd5b506103fe610f6f565b60405161040b9190611649565b60405180910390f35b34801561041f575f80fd5b5061043a600480360381019061043591906114b3565b610f94565b604051610447919061143c565b60405180910390f35b610458610fa9565b005b348015610465575f80fd5b50610480600480360381019061047b91906114b3565b6110c0565b005b60075481565b5f8060035f9054906101000a900473ffffffffffffffffffffffffffffffffffffffff1673ffffffffffffffffffffffffffffffffffffffff166373544cfd6040518163ffffffff1660e01b8152600401602060405180830381865afa1580156104f4573d5f803e3d5ffd5b505050506040513d601f19601f820116820180604052508101906105189190611695565b90505f60035f9054906101000a900473ffffffffffffffffffffffffffffffffffffffff1673ffffffffffffffffffffffffffffffffffffffff1663961bdfbf6040518163ffffffff1660e01b8152600401602060405180830381865afa158015610585573d5f803e3d5ffd5b505050506040513d601f19601f820116820180604052508101906105a99190611695565b90505f670de0b6b3a76400008260095f8873ffffffffffffffffffffffffffffffffffffffff1673ffffffffffffffffffffffffffffffffffffffff1681526020019081526020015f20546105fe91906116ed565b610608919061175b565b670de0b6b3a76400008460085f8973ffffffffffffffffffffffffffffffffffffffff1673ffffffffffffffffffffffffffffffffffffffff1681526020019081526020015f205461065a91906116ed565b610664919061175b565b61066e919061178b565b9050809350505050919050565b610683611144565b8073ffffffffffffffffffffffffffffffffffffffff166108fc60085f8473ffffffffffffffffffffffffffffffffffffffff1673ffffffffffffffffffffffffffffffffffffffff1681526020019081526020015f205490811502906040515f60405180830381858888f19350505050158015610703573d5f803e3d5ffd5b5060025f9054906101000a900473ffffffffffffffffffffffffffffffffffffffff1673ffffffffffffffffffffffffffffffffffffffff1663a9059cbb8260095f8573ffffffffffffffffffffffffffffffffffffffff1673ffffffffffffffffffffffffffffffffffffffff1681526020019081526020015f20546040518363ffffffff1660e01b815260040161079d9291906117be565b6020604051808303815f875af11580156107b9573d5f803e3d5ffd5b505050506040513d601f19601f820116820180604052508101906107dd919061180f565b506107e6611188565b50565b60035f9054906101000a900473ffffffffffffffffffffffffffffffffffffffff1681565b5f8060085f8473ffffffffffffffffffffffffffffffffffffffff1673ffffffffffffffffffffffffffffffffffffffff1681526020019081526020015f205460095f8573ffffffffffffffffffffffffffffffffffffffff1673ffffffffffffffffffffffffffffffffffffffff1681526020019081526020015f205491509150915091565b61089d611144565b6108a5611191565b60065481116108e9576040517f08c379a00000000000000000000000000000000000000000000000000000000081526004016108e0906118ba565b60405180910390fd5b60025f9054906101000a900473ffffffffffffffffffffffffffffffffffffffff1673ffffffffffffffffffffffffffffffffffffffff166323b872dd3330846040518463ffffffff1660e01b8152600401610947939291906118d8565b6020604051808303815f875af1158015610963573d5f803e3d5ffd5b505050506040513d601f19601f82011682018060405250810190610987919061180f565b6109c6576040517f08c379a00000000000000000000000000000000000000000000000000000000081526004016109bd9061197d565b60405180910390fd5b8060095f3373ffffffffffffffffffffffffffffffffffffffff1673ffffffffffffffffffffffffffffffffffffffff1681526020019081526020015f205f828254610a12919061178b565b925050819055508060055f828254610a2a919061178b565b925050819055503373ffffffffffffffffffffffffffffffffffffffff167f9a4c731ff1518c7a820e31d32e673b031b8974967931afb2eec308066090022d82604051610a77919061143c565b60405180910390a2610a87611188565b50565b610a926111d2565b610a9a611259565b565b60065481565b610aaa611144565b610ab2611191565b5f8111610af4576040517f08c379a0000000000000000000000000000000000000000000000000000000008152600401610aeb906118ba565b60405180910390fd5b8060095f3373ffffffffffffffffffffffffffffffffffffffff1673ffffffffffffffffffffffffffffffffffffffff1681526020019081526020015f20541015610b74576040517f08c379a0000000000000000000000000000000000000000000000000000000008152600401610b6b90611a0b565b60405180910390fd5b8060095f3373ffffffffffffffffffffffffffffffffffffffff1673ffffffffffffffffffffffffffffffffffffffff1681526020019081526020015f205f828254610bc09190611a29565b925050819055508060055f828254610bd89190611a29565b9250508190555060025f9054906101000a900473ffffffffffffffffffffffffffffffffffffffff1673ffffffffffffffffffffffffffffffffffffffff1663a9059cbb33836040518363ffffffff1660e01b8152600401610c3b9291906117be565b6020604051808303815f875af1158015610c57573d5f803e3d5ffd5b505050506040513d601f19601f82011682018060405250810190610c7b919061180f565b610cba576040517f08c379a0000000000000000000000000000000000000000000000000000000008152600401610cb19061197d565b60405180910390fd5b3373ffffffffffffffffffffffffffffffffffffffff167fc01511ac0a76d7dc4d420282166e32ac9366c3f78e450661d140d248b19a400082604051610d00919061143c565b60405180910390a2610d10611188565b50565b5f60015f9054906101000a900460ff16905090565b60045481565b610d366111d2565b610d3f5f6112ba565b565b610d496111d2565b610d5161137c565b565b5f60018054906101000a900473ffffffffffffffffffffffffffffffffffffffff16905090565b610d82611144565b610d8a611191565b5f8111610dcc576040517f08c379a0000000000000000000000000000000000000000000000000000000008152600401610dc3906118ba565b60405180910390fd5b8060085f3373ffffffffffffffffffffffffffffffffffffffff1673ffffffffffffffffffffffffffffffffffffffff1681526020019081526020015f20541015610e4c576040517f08c379a0000000000000000000000000000000000000000000000000000000008152600401610e4390611a0b565b60405180910390fd5b8060085f3373ffffffffffffffffffffffffffffffffffffffff1673ffffffffffffffffffffffffffffffffffffffff1681526020019081526020015f205f828254610e989190611a29565b925050819055508060045f828254610eb09190611a29565b925050819055503373ffffffffffffffffffffffffffffffffffffffff166108fc8290811502906040515f60405180830381858888f19350505050158015610efa573d5f803e3d5ffd5b503373ffffffffffffffffffffffffffffffffffffffff167f0c3d79d31dc82080baf59ab3c3058c3c7c4f88f9969422caa1b42c51577d640b82604051610f41919061143c565b60405180910390a2610f51611188565b50565b60055481565b6008602052805f5260405f205f915090505481565b60025f9054906101000a900473ffffffffffffffffffffffffffffffffffffffff1681565b6009602052805f5260405f205f915090505481565b610fb1611144565b610fb9611191565b6006543411610ffd576040517f08c379a0000000000000000000000000000000000000000000000000000000008152600401610ff4906118ba565b60405180910390fd5b3460085f3373ffffffffffffffffffffffffffffffffffffffff1673ffffffffffffffffffffffffffffffffffffffff1681526020019081526020015f205f828254611049919061178b565b925050819055503460045f828254611061919061178b565b925050819055503373ffffffffffffffffffffffffffffffffffffffff167ff5bfa8a3f6a61792f266e3e92249facce14edf2b5fceeba5cb6cd0882593a9da346040516110ae919061143c565b60405180910390a26110be611188565b565b6110c86111d2565b5f73ffffffffffffffffffffffffffffffffffffffff168173ffffffffffffffffffffffffffffffffffffffff1603611138575f6040517f1e4fbdf700000000000000000000000000000000000000000000000000000000815260040161112f9190611610565b60405180910390fd5b611141816112ba565b50565b60025f540361117f576040517f3ee5aeb500000000000000000000000000000000000000000000000000000000815260040160405180910390fd5b60025f81905550565b60015f81905550565b611199610d13565b156111d0576040517fd93c066500000000000000000000000000000000000000000000000000000000815260040160405180910390fd5b565b6111da6113dd565b73ffffffffffffffffffffffffffffffffffffffff166111f8610d53565b73ffffffffffffffffffffffffffffffffffffffff16146112575761121b6113dd565b6040517f118cdaa700000000000000000000000000000000000000000000000000000000815260040161124e9190611610565b60405180910390fd5b565b6112616113e4565b5f60015f6101000a81548160ff0219169083151502179055507f5db9ee0a495bf2e6ff9c91a7834c1ba4fdd244a5e8aa4e537bd38aeae4b073aa6112a36113dd565b6040516112b09190611610565b60405180910390a1565b5f60018054906101000a900473ffffffffffffffffffffffffffffffffffffffff169050816001806101000a81548173ffffffffffffffffffffffffffffffffffffffff021916908373ffffffffffffffffffffffffffffffffffffffff1602179055508173ffffffffffffffffffffffffffffffffffffffff168173ffffffffffffffffffffffffffffffffffffffff167f8be0079c531659141344cd1fd0a4f28419497f9722a3daafe3b4186f6b6457e060405160405180910390a35050565b611384611191565b6001805f6101000a81548160ff0219169083151502179055507f62e78cea01bee320cd4e420270b5ea74000d11b0c9f74754ebdbfc544b05a2586113c66113dd565b6040516113d39190611610565b60405180910390a1565b5f33905090565b6113ec610d13565b611422576040517f8dfc202b00000000000000000000000000000000000000000000000000000000815260040160405180910390fd5b565b5f819050919050565b61143681611424565b82525050565b5f60208201905061144f5f83018461142d565b92915050565b5f80fd5b5f73ffffffffffffffffffffffffffffffffffffffff82169050919050565b5f61148282611459565b9050919050565b61149281611478565b811461149c575f80fd5b50565b5f813590506114ad81611489565b92915050565b5f602082840312156114c8576114c7611455565b5b5f6114d58482850161149f565b91505092915050565b5f819050919050565b5f6115016114fc6114f784611459565b6114de565b611459565b9050919050565b5f611512826114e7565b9050919050565b5f61152382611508565b9050919050565b61153381611519565b82525050565b5f60208201905061154c5f83018461152a565b92915050565b5f6040820190506115655f83018561142d565b611572602083018461142d565b9392505050565b61158281611424565b811461158c575f80fd5b50565b5f8135905061159d81611579565b92915050565b5f602082840312156115b8576115b7611455565b5b5f6115c58482850161158f565b91505092915050565b5f8115159050919050565b6115e2816115ce565b82525050565b5f6020820190506115fb5f8301846115d9565b92915050565b61160a81611478565b82525050565b5f6020820190506116235f830184611601565b92915050565b5f61163382611508565b9050919050565b61164381611629565b82525050565b5f60208201905061165c5f83018461163a565b92915050565b5f819050919050565b61167481611662565b811461167e575f80fd5b50565b5f8151905061168f8161166b565b92915050565b5f602082840312156116aa576116a9611455565b5b5f6116b784828501611681565b91505092915050565b7f4e487b71000000000000000000000000000000000000000000000000000000005f52601160045260245ffd5b5f6116f782611424565b915061170283611424565b925082820261171081611424565b91508282048414831517611727576117266116c0565b5b5092915050565b7f4e487b71000000000000000000000000000000000000000000000000000000005f52601260045260245ffd5b5f61176582611424565b915061177083611424565b9250826117805761177f61172e565b5b828204905092915050565b5f61179582611424565b91506117a083611424565b92508282019050808211156117b8576117b76116c0565b5b92915050565b5f6040820190506117d15f830185611601565b6117de602083018461142d565b9392505050565b6117ee816115ce565b81146117f8575f80fd5b50565b5f81519050611809816117e5565b92915050565b5f6020828403121561182457611823611455565b5b5f611831848285016117fb565b91505092915050565b5f82825260208201905092915050565b7f436f6c6c61746572616c4d616e616765723a20496e76616c696420616d6f756e5f8201527f7400000000000000000000000000000000000000000000000000000000000000602082015250565b5f6118a460218361183a565b91506118af8261184a565b604082019050919050565b5f6020820190508181035f8301526118d181611898565b9050919050565b5f6060820190506118eb5f830186611601565b6118f86020830185611601565b611905604083018461142d565b949350505050565b7f436f6c6c61746572616c4d616e616765723a205472616e73666572206661696c5f8201527f6564000000000000000000000000000000000000000000000000000000000000602082015250565b5f61196760228361183a565b91506119728261190d565b604082019050919050565b5f6020820190508181035f8301526119948161195b565b9050919050565b7f436f6c6c61746572616c4d616e616765723a20496e73756666696369656e74205f8201527f62616c616e636500000000000000000000000000000000000000000000000000602082015250565b5f6119f560278361183a565b9150611a008261199b565b604082019050919050565b5f6020820190508181035f830152611a22816119e9565b9050919050565b5f611a3382611424565b9150611a3e83611424565b9250828203905081811115611a5657611a556116c0565b5b9291505056fea26469706673582212208272beac9a8108e3b3ace9323fa261d1ab6ce9452c1a5836374054289bbe722a64736f6c634300081a0033",
					"opcodes": "PUSH1 0x80 PUSH1 0x40 MSTORE PUSH8 0xDE0B6B3A7640000 PUSH1 0x6 SSTORE PUSH8 0x8AC7230489E80000 PUSH1 0x7 SSTORE CALLVALUE DUP1 ISZERO PUSH2 0x27 JUMPI PUSH0 DUP1 REVERT JUMPDEST POP PUSH1 0x40 MLOAD PUSH2 0x1DD1 CODESIZE SUB DUP1 PUSH2 0x1DD1 DUP4 CODECOPY DUP2 DUP2 ADD PUSH1 0x40 MSTORE DUP2 ADD SWAP1 PUSH2 0x49 SWAP2 SWAP1 PUSH2 0x2CC JUMP JUMPDEST CALLER PUSH1 0x1 PUSH0 DUP2 SWAP1 SSTORE POP PUSH0 PUSH1 0x1 PUSH0 PUSH2 0x100 EXP DUP2 SLOAD DUP2 PUSH1 0xFF MUL NOT AND SWAP1 DUP4 ISZERO ISZERO MUL OR SWAP1 SSTORE POP PUSH0 PUSH20 0xFFFFFFFFFFFFFFFFFFFFFFFFFFFFFFFFFFFFFFFF AND DUP2 PUSH20 0xFFFFFFFFFFFFFFFFFFFFFFFFFFFFFFFFFFFFFFFF AND SUB PUSH2 0xDA JUMPI PUSH0 PUSH1 0x40 MLOAD PUSH32 0x1E4FBDF700000000000000000000000000000000000000000000000000000000 DUP2 MSTORE PUSH1 0x4 ADD PUSH2 0xD1 SWAP2 SWAP1 PUSH2 0x319 JUMP JUMPDEST PUSH1 0x40 MLOAD DUP1 SWAP2 SUB SWAP1 REVERT JUMPDEST PUSH2 0xE9 DUP2 PUSH2 0x171 PUSH1 0x20 SHL PUSH1 0x20 SHR JUMP JUMPDEST POP DUP2 PUSH1 0x2 PUSH0 PUSH2 0x100 EXP DUP2 SLOAD DUP2 PUSH20 0xFFFFFFFFFFFFFFFFFFFFFFFFFFFFFFFFFFFFFFFF MUL NOT AND SWAP1 DUP4 PUSH20 0xFFFFFFFFFFFFFFFFFFFFFFFFFFFFFFFFFFFFFFFF AND MUL OR SWAP1 SSTORE POP DUP1 PUSH1 0x3 PUSH0 PUSH2 0x100 EXP DUP2 SLOAD DUP2 PUSH20 0xFFFFFFFFFFFFFFFFFFFFFFFFFFFFFFFFFFFFFFFF MUL NOT AND SWAP1 DUP4 PUSH20 0xFFFFFFFFFFFFFFFFFFFFFFFFFFFFFFFFFFFFFFFF AND MUL OR SWAP1 SSTORE POP POP POP PUSH2 0x332 JUMP JUMPDEST PUSH0 PUSH1 0x1 DUP1 SLOAD SWAP1 PUSH2 0x100 EXP SWAP1 DIV PUSH20 0xFFFFFFFFFFFFFFFFFFFFFFFFFFFFFFFFFFFFFFFF AND SWAP1 POP DUP2 PUSH1 0x1 DUP1 PUSH2 0x100 EXP DUP2 SLOAD DUP2 PUSH20 0xFFFFFFFFFFFFFFFFFFFFFFFFFFFFFFFFFFFFFFFF MUL NOT AND SWAP1 DUP4 PUSH20 0xFFFFFFFFFFFFFFFFFFFFFFFFFFFFFFFFFFFFFFFF AND MUL OR SWAP1 SSTORE POP DUP2 PUSH20 0xFFFFFFFFFFFFFFFFFFFFFFFFFFFFFFFFFFFFFFFF AND DUP2 PUSH20 0xFFFFFFFFFFFFFFFFFFFFFFFFFFFFFFFFFFFFFFFF AND PUSH32 0x8BE0079C531659141344CD1FD0A4F28419497F9722A3DAAFE3B4186F6B6457E0 PUSH1 0x40 MLOAD PUSH1 0x40 MLOAD DUP1 SWAP2 SUB SWAP1 LOG3 POP POP JUMP JUMPDEST PUSH0 DUP1 REVERT JUMPDEST PUSH0 PUSH20 0xFFFFFFFFFFFFFFFFFFFFFFFFFFFFFFFFFFFFFFFF DUP3 AND SWAP1 POP SWAP2 SWAP1 POP JUMP JUMPDEST PUSH0 PUSH2 0x260 DUP3 PUSH2 0x237 JUMP JUMPDEST SWAP1 POP SWAP2 SWAP1 POP JUMP JUMPDEST PUSH0 PUSH2 0x271 DUP3 PUSH2 0x256 JUMP JUMPDEST SWAP1 POP SWAP2 SWAP1 POP JUMP JUMPDEST PUSH2 0x281 DUP2 PUSH2 0x267 JUMP JUMPDEST DUP2 EQ PUSH2 0x28B JUMPI PUSH0 DUP1 REVERT JUMPDEST POP JUMP JUMPDEST PUSH0 DUP2 MLOAD SWAP1 POP PUSH2 0x29C DUP2 PUSH2 0x278 JUMP JUMPDEST SWAP3 SWAP2 POP POP JUMP JUMPDEST PUSH2 0x2AB DUP2 PUSH2 0x256 JUMP JUMPDEST DUP2 EQ PUSH2 0x2B5 JUMPI PUSH0 DUP1 REVERT JUMPDEST POP JUMP JUMPDEST PUSH0 DUP2 MLOAD SWAP1 POP PUSH2 0x2C6 DUP2 PUSH2 0x2A2 JUMP JUMPDEST SWAP3 SWAP2 POP POP JUMP JUMPDEST PUSH0 DUP1 PUSH1 0x40 DUP4 DUP6 SUB SLT ISZERO PUSH2 0x2E2 JUMPI PUSH2 0x2E1 PUSH2 0x233 JUMP JUMPDEST JUMPDEST PUSH0 PUSH2 0x2EF DUP6 DUP3 DUP7 ADD PUSH2 0x28E JUMP JUMPDEST SWAP3 POP POP PUSH1 0x20 PUSH2 0x300 DUP6 DUP3 DUP7 ADD PUSH2 0x2B8 JUMP JUMPDEST SWAP2 POP POP SWAP3 POP SWAP3 SWAP1 POP JUMP JUMPDEST PUSH2 0x313 DUP2 PUSH2 0x256 JUMP JUMPDEST DUP3 MSTORE POP POP JUMP JUMPDEST PUSH0 PUSH1 0x20 DUP3 ADD SWAP1 POP PUSH2 0x32C PUSH0 DUP4 ADD DUP5 PUSH2 0x30A JUMP JUMPDEST SWAP3 SWAP2 POP POP JUMP JUMPDEST PUSH2 0x1A92 DUP1 PUSH2 0x33F PUSH0 CODECOPY PUSH0 RETURN INVALID PUSH1 0x80 PUSH1 0x40 MSTORE PUSH1 0x4 CALLDATASIZE LT PUSH2 0x129 JUMPI PUSH0 CALLDATALOAD PUSH1 0xE0 SHR DUP1 PUSH4 0x60B3B338 GT PUSH2 0xAA JUMPI DUP1 PUSH4 0x9083BAA6 GT PUSH2 0x6E JUMPI DUP1 PUSH4 0x9083BAA6 EQ PUSH2 0x384 JUMPI DUP1 PUSH4 0x9E30BCE7 EQ PUSH2 0x3AE JUMPI DUP1 PUSH4 0xA98AD46C EQ PUSH2 0x3EA JUMPI DUP1 PUSH4 0xC3B2A4A4 EQ PUSH2 0x414 JUMPI DUP1 PUSH4 0xD57AC70D EQ PUSH2 0x450 JUMPI DUP1 PUSH4 0xF2FDE38B EQ PUSH2 0x45A JUMPI PUSH2 0x129 JUMP JUMPDEST DUP1 PUSH4 0x60B3B338 EQ PUSH2 0x2DC JUMPI DUP1 PUSH4 0x715018A6 EQ PUSH2 0x306 JUMPI DUP1 PUSH4 0x8456CB59 EQ PUSH2 0x31C JUMPI DUP1 PUSH4 0x8DA5CB5B EQ PUSH2 0x332 JUMPI DUP1 PUSH4 0x8E817EFE EQ PUSH2 0x35C JUMPI PUSH2 0x129 JUMP JUMPDEST DUP1 PUSH4 0x2F5723D5 GT PUSH2 0xF1 JUMPI DUP1 PUSH4 0x2F5723D5 EQ PUSH2 0x222 JUMPI DUP1 PUSH4 0x3F4BA83A EQ PUSH2 0x24A JUMPI DUP1 PUSH4 0x5269384E EQ PUSH2 0x260 JUMPI DUP1 PUSH4 0x52CE9714 EQ PUSH2 0x28A JUMPI DUP1 PUSH4 0x5C975ABB EQ PUSH2 0x2B2 JUMPI PUSH2 0x129 JUMP JUMPDEST DUP1 PUSH4 0x4885115 EQ PUSH2 0x12D JUMPI DUP1 PUSH4 0x9B8AAFD EQ PUSH2 0x157 JUMPI DUP1 PUSH4 0x192E7A7B EQ PUSH2 0x193 JUMPI DUP1 PUSH4 0x2630C12F EQ PUSH2 0x1BB JUMPI DUP1 PUSH4 0x2703EE85 EQ PUSH2 0x1E5 JUMPI JUMPDEST PUSH0 DUP1 REVERT JUMPDEST CALLVALUE DUP1 ISZERO PUSH2 0x138 JUMPI PUSH0 DUP1 REVERT JUMPDEST POP PUSH2 0x141 PUSH2 0x482 JUMP JUMPDEST PUSH1 0x40 MLOAD PUSH2 0x14E SWAP2 SWAP1 PUSH2 0x143C JUMP JUMPDEST PUSH1 0x40 MLOAD DUP1 SWAP2 SUB SWAP1 RETURN JUMPDEST CALLVALUE DUP1 ISZERO PUSH2 0x162 JUMPI PUSH0 DUP1 REVERT JUMPDEST POP PUSH2 0x17D PUSH1 0x4 DUP1 CALLDATASIZE SUB DUP2 ADD SWAP1 PUSH2 0x178 SWAP2 SWAP1 PUSH2 0x14B3 JUMP JUMPDEST PUSH2 0x488 JUMP JUMPDEST PUSH1 0x40 MLOAD PUSH2 0x18A SWAP2 SWAP1 PUSH2 0x143C JUMP JUMPDEST PUSH1 0x40 MLOAD DUP1 SWAP2 SUB SWAP1 RETURN JUMPDEST CALLVALUE DUP1 ISZERO PUSH2 0x19E JUMPI PUSH0 DUP1 REVERT JUMPDEST POP PUSH2 0x1B9 PUSH1 0x4 DUP1 CALLDATASIZE SUB DUP2 ADD SWAP1 PUSH2 0x1B4 SWAP2 SWAP1 PUSH2 0x14B3 JUMP JUMPDEST PUSH2 0x67B JUMP JUMPDEST STOP JUMPDEST CALLVALUE DUP1 ISZERO PUSH2 0x1C6 JUMPI PUSH0 DUP1 REVERT JUMPDEST POP PUSH2 0x1CF PUSH2 0x7E9 JUMP JUMPDEST PUSH1 0x40 MLOAD PUSH2 0x1DC SWAP2 SWAP1 PUSH2 0x1539 JUMP JUMPDEST PUSH1 0x40 MLOAD DUP1 SWAP2 SUB SWAP1 RETURN JUMPDEST CALLVALUE DUP1 ISZERO PUSH2 0x1F0 JUMPI PUSH0 DUP1 REVERT JUMPDEST POP PUSH2 0x20B PUSH1 0x4 DUP1 CALLDATASIZE SUB DUP2 ADD SWAP1 PUSH2 0x206 SWAP2 SWAP1 PUSH2 0x14B3 JUMP JUMPDEST PUSH2 0x80E JUMP JUMPDEST PUSH1 0x40 MLOAD PUSH2 0x219 SWAP3 SWAP2 SWAP1 PUSH2 0x1552 JUMP JUMPDEST PUSH1 0x40 MLOAD DUP1 SWAP2 SUB SWAP1 RETURN JUMPDEST CALLVALUE DUP1 ISZERO PUSH2 0x22D JUMPI PUSH0 DUP1 REVERT JUMPDEST POP PUSH2 0x248 PUSH1 0x4 DUP1 CALLDATASIZE SUB DUP2 ADD SWAP1 PUSH2 0x243 SWAP2 SWAP1 PUSH2 0x15A3 JUMP JUMPDEST PUSH2 0x895 JUMP JUMPDEST STOP JUMPDEST CALLVALUE DUP1 ISZERO PUSH2 0x255 JUMPI PUSH0 DUP1 REVERT JUMPDEST POP PUSH2 0x25E PUSH2 0xA8A JUMP JUMPDEST STOP JUMPDEST CALLVALUE DUP1 ISZERO PUSH2 0x26B JUMPI PUSH0 DUP1 REVERT JUMPDEST POP PUSH2 0x274 PUSH2 0xA9C JUMP JUMPDEST PUSH1 0x40 MLOAD PUSH2 0x281 SWAP2 SWAP1 PUSH2 0x143C JUMP JUMPDEST PUSH1 0x40 MLOAD DUP1 SWAP2 SUB SWAP1 RETURN JUMPDEST CALLVALUE DUP1 ISZERO PUSH2 0x295 JUMPI PUSH0 DUP1 REVERT JUMPDEST POP PUSH2 0x2B0 PUSH1 0x4 DUP1 CALLDATASIZE SUB DUP2 ADD SWAP1 PUSH2 0x2AB SWAP2 SWAP1 PUSH2 0x15A3 JUMP JUMPDEST PUSH2 0xAA2 JUMP JUMPDEST STOP JUMPDEST CALLVALUE DUP1 ISZERO PUSH2 0x2BD JUMPI PUSH0 DUP1 REVERT JUMPDEST POP PUSH2 0x2C6 PUSH2 0xD13 JUMP JUMPDEST PUSH1 0x40 MLOAD PUSH2 0x2D3 SWAP2 SWAP1 PUSH2 0x15E8 JUMP JUMPDEST PUSH1 0x40 MLOAD DUP1 SWAP2 SUB SWAP1 RETURN JUMPDEST CALLVALUE DUP1 ISZERO PUSH2 0x2E7 JUMPI PUSH0 DUP1 REVERT JUMPDEST POP PUSH2 0x2F0 PUSH2 0xD28 JUMP JUMPDEST PUSH1 0x40 MLOAD PUSH2 0x2FD SWAP2 SWAP1 PUSH2 0x143C JUMP JUMPDEST PUSH1 0x40 MLOAD DUP1 SWAP2 SUB SWAP1 RETURN JUMPDEST CALLVALUE DUP1 ISZERO PUSH2 0x311 JUMPI PUSH0 DUP1 REVERT JUMPDEST POP PUSH2 0x31A PUSH2 0xD2E JUMP JUMPDEST STOP JUMPDEST CALLVALUE DUP1 ISZERO PUSH2 0x327 JUMPI PUSH0 DUP1 REVERT JUMPDEST POP PUSH2 0x330 PUSH2 0xD41 JUMP JUMPDEST STOP JUMPDEST CALLVALUE DUP1 ISZERO PUSH2 0x33D JUMPI PUSH0 DUP1 REVERT JUMPDEST POP PUSH2 0x346 PUSH2 0xD53 JUMP JUMPDEST PUSH1 0x40 MLOAD PUSH2 0x353 SWAP2 SWAP1 PUSH2 0x1610 JUMP JUMPDEST PUSH1 0x40 MLOAD DUP1 SWAP2 SUB SWAP1 RETURN JUMPDEST CALLVALUE DUP1 ISZERO PUSH2 0x367 JUMPI PUSH0 DUP1 REVERT JUMPDEST POP PUSH2 0x382 PUSH1 0x4 DUP1 CALLDATASIZE SUB DUP2 ADD SWAP1 PUSH2 0x37D SWAP2 SWAP1 PUSH2 0x15A3 JUMP JUMPDEST PUSH2 0xD7A JUMP JUMPDEST STOP JUMPDEST CALLVALUE DUP1 ISZERO PUSH2 0x38F JUMPI PUSH0 DUP1 REVERT JUMPDEST POP PUSH2 0x398 PUSH2 0xF54 JUMP JUMPDEST PUSH1 0x40 MLOAD PUSH2 0x3A5 SWAP2 SWAP1 PUSH2 0x143C JUMP JUMPDEST PUSH1 0x40 MLOAD DUP1 SWAP2 SUB SWAP1 RETURN JUMPDEST CALLVALUE DUP1 ISZERO PUSH2 0x3B9 JUMPI PUSH0 DUP1 REVERT JUMPDEST POP PUSH2 0x3D4 PUSH1 0x4 DUP1 CALLDATASIZE SUB DUP2 ADD SWAP1 PUSH2 0x3CF SWAP2 SWAP1 PUSH2 0x14B3 JUMP JUMPDEST PUSH2 0xF5A JUMP JUMPDEST PUSH1 0x40 MLOAD PUSH2 0x3E1 SWAP2 SWAP1 PUSH2 0x143C JUMP JUMPDEST PUSH1 0x40 MLOAD DUP1 SWAP2 SUB SWAP1 RETURN JUMPDEST CALLVALUE DUP1 ISZERO PUSH2 0x3F5 JUMPI PUSH0 DUP1 REVERT JUMPDEST POP PUSH2 0x3FE PUSH2 0xF6F JUMP JUMPDEST PUSH1 0x40 MLOAD PUSH2 0x40B SWAP2 SWAP1 PUSH2 0x1649 JUMP JUMPDEST PUSH1 0x40 MLOAD DUP1 SWAP2 SUB SWAP1 RETURN JUMPDEST CALLVALUE DUP1 ISZERO PUSH2 0x41F JUMPI PUSH0 DUP1 REVERT JUMPDEST POP PUSH2 0x43A PUSH1 0x4 DUP1 CALLDATASIZE SUB DUP2 ADD SWAP1 PUSH2 0x435 SWAP2 SWAP1 PUSH2 0x14B3 JUMP JUMPDEST PUSH2 0xF94 JUMP JUMPDEST PUSH1 0x40 MLOAD PUSH2 0x447 SWAP2 SWAP1 PUSH2 0x143C JUMP JUMPDEST PUSH1 0x40 MLOAD DUP1 SWAP2 SUB SWAP1 RETURN JUMPDEST PUSH2 0x458 PUSH2 0xFA9 JUMP JUMPDEST STOP JUMPDEST CALLVALUE DUP1 ISZERO PUSH2 0x465 JUMPI PUSH0 DUP1 REVERT JUMPDEST POP PUSH2 0x480 PUSH1 0x4 DUP1 CALLDATASIZE SUB DUP2 ADD SWAP1 PUSH2 0x47B SWAP2 SWAP1 PUSH2 0x14B3 JUMP JUMPDEST PUSH2 0x10C0 JUMP JUMPDEST STOP JUMPDEST PUSH1 0x7 SLOAD DUP2 JUMP JUMPDEST PUSH0 DUP1 PUSH1 0x3 PUSH0 SWAP1 SLOAD SWAP1 PUSH2 0x100 EXP SWAP1 DIV PUSH20 0xFFFFFFFFFFFFFFFFFFFFFFFFFFFFFFFFFFFFFFFF AND PUSH20 0xFFFFFFFFFFFFFFFFFFFFFFFFFFFFFFFFFFFFFFFF AND PUSH4 0x73544CFD PUSH1 0x40 MLOAD DUP2 PUSH4 0xFFFFFFFF AND PUSH1 0xE0 SHL DUP2 MSTORE PUSH1 0x4 ADD PUSH1 0x20 PUSH1 0x40 MLOAD DUP1 DUP4 SUB DUP2 DUP7 GAS STATICCALL ISZERO DUP1 ISZERO PUSH2 0x4F4 JUMPI RETURNDATASIZE PUSH0 DUP1 RETURNDATACOPY RETURNDATASIZE PUSH0 REVERT JUMPDEST POP POP POP POP PUSH1 0x40 MLOAD RETURNDATASIZE PUSH1 0x1F NOT PUSH1 0x1F DUP3 ADD AND DUP3 ADD DUP1 PUSH1 0x40 MSTORE POP DUP2 ADD SWAP1 PUSH2 0x518 SWAP2 SWAP1 PUSH2 0x1695 JUMP JUMPDEST SWAP1 POP PUSH0 PUSH1 0x3 PUSH0 SWAP1 SLOAD SWAP1 PUSH2 0x100 EXP SWAP1 DIV PUSH20 0xFFFFFFFFFFFFFFFFFFFFFFFFFFFFFFFFFFFFFFFF AND PUSH20 0xFFFFFFFFFFFFFFFFFFFFFFFFFFFFFFFFFFFFFFFF AND PUSH4 0x961BDFBF PUSH1 0x40 MLOAD DUP2 PUSH4 0xFFFFFFFF AND PUSH1 0xE0 SHL DUP2 MSTORE PUSH1 0x4 ADD PUSH1 0x20 PUSH1 0x40 MLOAD DUP1 DUP4 SUB DUP2 DUP7 GAS STATICCALL ISZERO DUP1 ISZERO PUSH2 0x585 JUMPI RETURNDATASIZE PUSH0 DUP1 RETURNDATACOPY RETURNDATASIZE PUSH0 REVERT JUMPDEST POP POP POP POP PUSH1 0x40 MLOAD RETURNDATASIZE PUSH1 0x1F NOT PUSH1 0x1F DUP3 ADD AND DUP3 ADD DUP1 PUSH1 0x40 MSTORE POP DUP2 ADD SWAP1 PUSH2 0x5A9 SWAP2 SWAP1 PUSH2 0x1695 JUMP JUMPDEST SWAP1 POP PUSH0 PUSH8 0xDE0B6B3A7640000 DUP3 PUSH1 0x9 PUSH0 DUP9 PUSH20 0xFFFFFFFFFFFFFFFFFFFFFFFFFFFFFFFFFFFFFFFF AND PUSH20 0xFFFFFFFFFFFFFFFFFFFFFFFFFFFFFFFFFFFFFFFF AND DUP2 MSTORE PUSH1 0x20 ADD SWAP1 DUP2 MSTORE PUSH1 0x20 ADD PUSH0 KECCAK256 SLOAD PUSH2 0x5FE SWAP2 SWAP1 PUSH2 0x16ED JUMP JUMPDEST PUSH2 0x608 SWAP2 SWAP1 PUSH2 0x175B JUMP JUMPDEST PUSH8 0xDE0B6B3A7640000 DUP5 PUSH1 0x8 PUSH0 DUP10 PUSH20 0xFFFFFFFFFFFFFFFFFFFFFFFFFFFFFFFFFFFFFFFF AND PUSH20 0xFFFFFFFFFFFFFFFFFFFFFFFFFFFFFFFFFFFFFFFF AND DUP2 MSTORE PUSH1 0x20 ADD SWAP1 DUP2 MSTORE PUSH1 0x20 ADD PUSH0 KECCAK256 SLOAD PUSH2 0x65A SWAP2 SWAP1 PUSH2 0x16ED JUMP JUMPDEST PUSH2 0x664 SWAP2 SWAP1 PUSH2 0x175B JUMP JUMPDEST PUSH2 0x66E SWAP2 SWAP1 PUSH2 0x178B JUMP JUMPDEST SWAP1 POP DUP1 SWAP4 POP POP POP POP SWAP2 SWAP1 POP JUMP JUMPDEST PUSH2 0x683 PUSH2 0x1144 JUMP JUMPDEST DUP1 PUSH20 0xFFFFFFFFFFFFFFFFFFFFFFFFFFFFFFFFFFFFFFFF AND PUSH2 0x8FC PUSH1 0x8 PUSH0 DUP5 PUSH20 0xFFFFFFFFFFFFFFFFFFFFFFFFFFFFFFFFFFFFFFFF AND PUSH20 0xFFFFFFFFFFFFFFFFFFFFFFFFFFFFFFFFFFFFFFFF AND DUP2 MSTORE PUSH1 0x20 ADD SWAP1 DUP2 MSTORE PUSH1 0x20 ADD PUSH0 KECCAK256 SLOAD SWAP1 DUP2 ISZERO MUL SWAP1 PUSH1 0x40 MLOAD PUSH0 PUSH1 0x40 MLOAD DUP1 DUP4 SUB DUP2 DUP6 DUP9 DUP9 CALL SWAP4 POP POP POP POP ISZERO DUP1 ISZERO PUSH2 0x703 JUMPI RETURNDATASIZE PUSH0 DUP1 RETURNDATACOPY RETURNDATASIZE PUSH0 REVERT JUMPDEST POP PUSH1 0x2 PUSH0 SWAP1 SLOAD SWAP1 PUSH2 0x100 EXP SWAP1 DIV PUSH20 0xFFFFFFFFFFFFFFFFFFFFFFFFFFFFFFFFFFFFFFFF AND PUSH20 0xFFFFFFFFFFFFFFFFFFFFFFFFFFFFFFFFFFFFFFFF AND PUSH4 0xA9059CBB DUP3 PUSH1 0x9 PUSH0 DUP6 PUSH20 0xFFFFFFFFFFFFFFFFFFFFFFFFFFFFFFFFFFFFFFFF AND PUSH20 0xFFFFFFFFFFFFFFFFFFFFFFFFFFFFFFFFFFFFFFFF AND DUP2 MSTORE PUSH1 0x20 ADD SWAP1 DUP2 MSTORE PUSH1 0x20 ADD PUSH0 KECCAK256 SLOAD PUSH1 0x40 MLOAD DUP4 PUSH4 0xFFFFFFFF AND PUSH1 0xE0 SHL DUP2 MSTORE PUSH1 0x4 ADD PUSH2 0x79D SWAP3 SWAP2 SWAP1 PUSH2 0x17BE JUMP JUMPDEST PUSH1 0x20 PUSH1 0x40 MLOAD DUP1 DUP4 SUB DUP2 PUSH0 DUP8 GAS CALL ISZERO DUP1 ISZERO PUSH2 0x7B9 JUMPI RETURNDATASIZE PUSH0 DUP1 RETURNDATACOPY RETURNDATASIZE PUSH0 REVERT JUMPDEST POP POP POP POP PUSH1 0x40 MLOAD RETURNDATASIZE PUSH1 0x1F NOT PUSH1 0x1F DUP3 ADD AND DUP3 ADD DUP1 PUSH1 0x40 MSTORE POP DUP2 ADD SWAP1 PUSH2 0x7DD SWAP2 SWAP1 PUSH2 0x180F JUMP JUMPDEST POP PUSH2 0x7E6 PUSH2 0x1188 JUMP JUMPDEST POP JUMP JUMPDEST PUSH1 0x3 PUSH0 SWAP1 SLOAD SWAP1 PUSH2 0x100 EXP SWAP1 DIV PUSH20 0xFFFFFFFFFFFFFFFFFFFFFFFFFFFFFFFFFFFFFFFF AND DUP2 JUMP JUMPDEST PUSH0 DUP1 PUSH1 0x8 PUSH0 DUP5 PUSH20 0xFFFFFFFFFFFFFFFFFFFFFFFFFFFFFFFFFFFFFFFF AND PUSH20 0xFFFFFFFFFFFFFFFFFFFFFFFFFFFFFFFFFFFFFFFF AND DUP2 MSTORE PUSH1 0x20 ADD SWAP1 DUP2 MSTORE PUSH1 0x20 ADD PUSH0 KECCAK256 SLOAD PUSH1 0x9 PUSH0 DUP6 PUSH20 0xFFFFFFFFFFFFFFFFFFFFFFFFFFFFFFFFFFFFFFFF AND PUSH20 0xFFFFFFFFFFFFFFFFFFFFFFFFFFFFFFFFFFFFFFFF AND DUP2 MSTORE PUSH1 0x20 ADD SWAP1 DUP2 MSTORE PUSH1 0x20 ADD PUSH0 KECCAK256 SLOAD SWAP2 POP SWAP2 POP SWAP2 POP SWAP2 JUMP JUMPDEST PUSH2 0x89D PUSH2 0x1144 JUMP JUMPDEST PUSH2 0x8A5 PUSH2 0x1191 JUMP JUMPDEST PUSH1 0x6 SLOAD DUP2 GT PUSH2 0x8E9 JUMPI PUSH1 0x40 MLOAD PUSH32 0x8C379A000000000000000000000000000000000000000000000000000000000 DUP2 MSTORE PUSH1 0x4 ADD PUSH2 0x8E0 SWAP1 PUSH2 0x18BA JUMP JUMPDEST PUSH1 0x40 MLOAD DUP1 SWAP2 SUB SWAP1 REVERT JUMPDEST PUSH1 0x2 PUSH0 SWAP1 SLOAD SWAP1 PUSH2 0x100 EXP SWAP1 DIV PUSH20 0xFFFFFFFFFFFFFFFFFFFFFFFFFFFFFFFFFFFFFFFF AND PUSH20 0xFFFFFFFFFFFFFFFFFFFFFFFFFFFFFFFFFFFFFFFF AND PUSH4 0x23B872DD CALLER ADDRESS DUP5 PUSH1 0x40 MLOAD DUP5 PUSH4 0xFFFFFFFF AND PUSH1 0xE0 SHL DUP2 MSTORE PUSH1 0x4 ADD PUSH2 0x947 SWAP4 SWAP3 SWAP2 SWAP1 PUSH2 0x18D8 JUMP JUMPDEST PUSH1 0x20 PUSH1 0x40 MLOAD DUP1 DUP4 SUB DUP2 PUSH0 DUP8 GAS CALL ISZERO DUP1 ISZERO PUSH2 0x963 JUMPI RETURNDATASIZE PUSH0 DUP1 RETURNDATACOPY RETURNDATASIZE PUSH0 REVERT JUMPDEST POP POP POP POP PUSH1 0x40 MLOAD RETURNDATASIZE PUSH1 0x1F NOT PUSH1 0x1F DUP3 ADD AND DUP3 ADD DUP1 PUSH1 0x40 MSTORE POP DUP2 ADD SWAP1 PUSH2 0x987 SWAP2 SWAP1 PUSH2 0x180F JUMP JUMPDEST PUSH2 0x9C6 JUMPI PUSH1 0x40 MLOAD PUSH32 0x8C379A000000000000000000000000000000000000000000000000000000000 DUP2 MSTORE PUSH1 0x4 ADD PUSH2 0x9BD SWAP1 PUSH2 0x197D JUMP JUMPDEST PUSH1 0x40 MLOAD DUP1 SWAP2 SUB SWAP1 REVERT JUMPDEST DUP1 PUSH1 0x9 PUSH0 CALLER PUSH20 0xFFFFFFFFFFFFFFFFFFFFFFFFFFFFFFFFFFFFFFFF AND PUSH20 0xFFFFFFFFFFFFFFFFFFFFFFFFFFFFFFFFFFFFFFFF AND DUP2 MSTORE PUSH1 0x20 ADD SWAP1 DUP2 MSTORE PUSH1 0x20 ADD PUSH0 KECCAK256 PUSH0 DUP3 DUP3 SLOAD PUSH2 0xA12 SWAP2 SWAP1 PUSH2 0x178B JUMP JUMPDEST SWAP3 POP POP DUP2 SWAP1 SSTORE POP DUP1 PUSH1 0x5 PUSH0 DUP3 DUP3 SLOAD PUSH2 0xA2A SWAP2 SWAP1 PUSH2 0x178B JUMP JUMPDEST SWAP3 POP POP DUP2 SWAP1 SSTORE POP CALLER PUSH20 0xFFFFFFFFFFFFFFFFFFFFFFFFFFFFFFFFFFFFFFFF AND PUSH32 0x9A4C731FF1518C7A820E31D32E673B031B8974967931AFB2EEC308066090022D DUP3 PUSH1 0x40 MLOAD PUSH2 0xA77 SWAP2 SWAP1 PUSH2 0x143C JUMP JUMPDEST PUSH1 0x40 MLOAD DUP1 SWAP2 SUB SWAP1 LOG2 PUSH2 0xA87 PUSH2 0x1188 JUMP JUMPDEST POP JUMP JUMPDEST PUSH2 0xA92 PUSH2 0x11D2 JUMP JUMPDEST PUSH2 0xA9A PUSH2 0x1259 JUMP JUMPDEST JUMP JUMPDEST PUSH1 0x6 SLOAD DUP2 JUMP JUMPDEST PUSH2 0xAAA PUSH2 0x1144 JUMP JUMPDEST PUSH2 0xAB2 PUSH2 0x1191 JUMP JUMPDEST PUSH0 DUP2 GT PUSH2 0xAF4 JUMPI PUSH1 0x40 MLOAD PUSH32 0x8C379A000000000000000000000000000000000000000000000000000000000 DUP2 MSTORE PUSH1 0x4 ADD PUSH2 0xAEB SWAP1 PUSH2 0x18BA JUMP JUMPDEST PUSH1 0x40 MLOAD DUP1 SWAP2 SUB SWAP1 REVERT JUMPDEST DUP1 PUSH1 0x9 PUSH0 CALLER PUSH20 0xFFFFFFFFFFFFFFFFFFFFFFFFFFFFFFFFFFFFFFFF AND PUSH20 0xFFFFFFFFFFFFFFFFFFFFFFFFFFFFFFFFFFFFFFFF AND DUP2 MSTORE PUSH1 0x20 ADD SWAP1 DUP2 MSTORE PUSH1 0x20 ADD PUSH0 KECCAK256 SLOAD LT ISZERO PUSH2 0xB74 JUMPI PUSH1 0x40 MLOAD PUSH32 0x8C379A000000000000000000000000000000000000000000000000000000000 DUP2 MSTORE PUSH1 0x4 ADD PUSH2 0xB6B SWAP1 PUSH2 0x1A0B JUMP JUMPDEST PUSH1 0x40 MLOAD DUP1 SWAP2 SUB SWAP1 REVERT JUMPDEST DUP1 PUSH1 0x9 PUSH0 CALLER PUSH20 0xFFFFFFFFFFFFFFFFFFFFFFFFFFFFFFFFFFFFFFFF AND PUSH20 0xFFFFFFFFFFFFFFFFFFFFFFFFFFFFFFFFFFFFFFFF AND DUP2 MSTORE PUSH1 0x20 ADD SWAP1 DUP2 MSTORE PUSH1 0x20 ADD PUSH0 KECCAK256 PUSH0 DUP3 DUP3 SLOAD PUSH2 0xBC0 SWAP2 SWAP1 PUSH2 0x1A29 JUMP JUMPDEST SWAP3 POP POP DUP2 SWAP1 SSTORE POP DUP1 PUSH1 0x5 PUSH0 DUP3 DUP3 SLOAD PUSH2 0xBD8 SWAP2 SWAP1 PUSH2 0x1A29 JUMP JUMPDEST SWAP3 POP POP DUP2 SWAP1 SSTORE POP PUSH1 0x2 PUSH0 SWAP1 SLOAD SWAP1 PUSH2 0x100 EXP SWAP1 DIV PUSH20 0xFFFFFFFFFFFFFFFFFFFFFFFFFFFFFFFFFFFFFFFF AND PUSH20 0xFFFFFFFFFFFFFFFFFFFFFFFFFFFFFFFFFFFFFFFF AND PUSH4 0xA9059CBB CALLER DUP4 PUSH1 0x40 MLOAD DUP4 PUSH4 0xFFFFFFFF AND PUSH1 0xE0 SHL DUP2 MSTORE PUSH1 0x4 ADD PUSH2 0xC3B SWAP3 SWAP2 SWAP1 PUSH2 0x17BE JUMP JUMPDEST PUSH1 0x20 PUSH1 0x40 MLOAD DUP1 DUP4 SUB DUP2 PUSH0 DUP8 GAS CALL ISZERO DUP1 ISZERO PUSH2 0xC57 JUMPI RETURNDATASIZE PUSH0 DUP1 RETURNDATACOPY RETURNDATASIZE PUSH0 REVERT JUMPDEST POP POP POP POP PUSH1 0x40 MLOAD RETURNDATASIZE PUSH1 0x1F NOT PUSH1 0x1F DUP3 ADD AND DUP3 ADD DUP1 PUSH1 0x40 MSTORE POP DUP2 ADD SWAP1 PUSH2 0xC7B SWAP2 SWAP1 PUSH2 0x180F JUMP JUMPDEST PUSH2 0xCBA JUMPI PUSH1 0x40 MLOAD PUSH32 0x8C379A000000000000000000000000000000000000000000000000000000000 DUP2 MSTORE PUSH1 0x4 ADD PUSH2 0xCB1 SWAP1 PUSH2 0x197D JUMP JUMPDEST PUSH1 0x40 MLOAD DUP1 SWAP2 SUB SWAP1 REVERT JUMPDEST CALLER PUSH20 0xFFFFFFFFFFFFFFFFFFFFFFFFFFFFFFFFFFFFFFFF AND PUSH32 0xC01511AC0A76D7DC4D420282166E32AC9366C3F78E450661D140D248B19A4000 DUP3 PUSH1 0x40 MLOAD PUSH2 0xD00 SWAP2 SWAP1 PUSH2 0x143C JUMP JUMPDEST PUSH1 0x40 MLOAD DUP1 SWAP2 SUB SWAP1 LOG2 PUSH2 0xD10 PUSH2 0x1188 JUMP JUMPDEST POP JUMP JUMPDEST PUSH0 PUSH1 0x1 PUSH0 SWAP1 SLOAD SWAP1 PUSH2 0x100 EXP SWAP1 DIV PUSH1 0xFF AND SWAP1 POP SWAP1 JUMP JUMPDEST PUSH1 0x4 SLOAD DUP2 JUMP JUMPDEST PUSH2 0xD36 PUSH2 0x11D2 JUMP JUMPDEST PUSH2 0xD3F PUSH0 PUSH2 0x12BA JUMP JUMPDEST JUMP JUMPDEST PUSH2 0xD49 PUSH2 0x11D2 JUMP JUMPDEST PUSH2 0xD51 PUSH2 0x137C JUMP JUMPDEST JUMP JUMPDEST PUSH0 PUSH1 0x1 DUP1 SLOAD SWAP1 PUSH2 0x100 EXP SWAP1 DIV PUSH20 0xFFFFFFFFFFFFFFFFFFFFFFFFFFFFFFFFFFFFFFFF AND SWAP1 POP SWAP1 JUMP JUMPDEST PUSH2 0xD82 PUSH2 0x1144 JUMP JUMPDEST PUSH2 0xD8A PUSH2 0x1191 JUMP JUMPDEST PUSH0 DUP2 GT PUSH2 0xDCC JUMPI PUSH1 0x40 MLOAD PUSH32 0x8C379A000000000000000000000000000000000000000000000000000000000 DUP2 MSTORE PUSH1 0x4 ADD PUSH2 0xDC3 SWAP1 PUSH2 0x18BA JUMP JUMPDEST PUSH1 0x40 MLOAD DUP1 SWAP2 SUB SWAP1 REVERT JUMPDEST DUP1 PUSH1 0x8 PUSH0 CALLER PUSH20 0xFFFFFFFFFFFFFFFFFFFFFFFFFFFFFFFFFFFFFFFF AND PUSH20 0xFFFFFFFFFFFFFFFFFFFFFFFFFFFFFFFFFFFFFFFF AND DUP2 MSTORE PUSH1 0x20 ADD SWAP1 DUP2 MSTORE PUSH1 0x20 ADD PUSH0 KECCAK256 SLOAD LT ISZERO PUSH2 0xE4C JUMPI PUSH1 0x40 MLOAD PUSH32 0x8C379A000000000000000000000000000000000000000000000000000000000 DUP2 MSTORE PUSH1 0x4 ADD PUSH2 0xE43 SWAP1 PUSH2 0x1A0B JUMP JUMPDEST PUSH1 0x40 MLOAD DUP1 SWAP2 SUB SWAP1 REVERT JUMPDEST DUP1 PUSH1 0x8 PUSH0 CALLER PUSH20 0xFFFFFFFFFFFFFFFFFFFFFFFFFFFFFFFFFFFFFFFF AND PUSH20 0xFFFFFFFFFFFFFFFFFFFFFFFFFFFFFFFFFFFFFFFF AND DUP2 MSTORE PUSH1 0x20 ADD SWAP1 DUP2 MSTORE PUSH1 0x20 ADD PUSH0 KECCAK256 PUSH0 DUP3 DUP3 SLOAD PUSH2 0xE98 SWAP2 SWAP1 PUSH2 0x1A29 JUMP JUMPDEST SWAP3 POP POP DUP2 SWAP1 SSTORE POP DUP1 PUSH1 0x4 PUSH0 DUP3 DUP3 SLOAD PUSH2 0xEB0 SWAP2 SWAP1 PUSH2 0x1A29 JUMP JUMPDEST SWAP3 POP POP DUP2 SWAP1 SSTORE POP CALLER PUSH20 0xFFFFFFFFFFFFFFFFFFFFFFFFFFFFFFFFFFFFFFFF AND PUSH2 0x8FC DUP3 SWAP1 DUP2 ISZERO MUL SWAP1 PUSH1 0x40 MLOAD PUSH0 PUSH1 0x40 MLOAD DUP1 DUP4 SUB DUP2 DUP6 DUP9 DUP9 CALL SWAP4 POP POP POP POP ISZERO DUP1 ISZERO PUSH2 0xEFA JUMPI RETURNDATASIZE PUSH0 DUP1 RETURNDATACOPY RETURNDATASIZE PUSH0 REVERT JUMPDEST POP CALLER PUSH20 0xFFFFFFFFFFFFFFFFFFFFFFFFFFFFFFFFFFFFFFFF AND PUSH32 0xC3D79D31DC82080BAF59AB3C3058C3C7C4F88F9969422CAA1B42C51577D640B DUP3 PUSH1 0x40 MLOAD PUSH2 0xF41 SWAP2 SWAP1 PUSH2 0x143C JUMP JUMPDEST PUSH1 0x40 MLOAD DUP1 SWAP2 SUB SWAP1 LOG2 PUSH2 0xF51 PUSH2 0x1188 JUMP JUMPDEST POP JUMP JUMPDEST PUSH1 0x5 SLOAD DUP2 JUMP JUMPDEST PUSH1 0x8 PUSH1 0x20 MSTORE DUP1 PUSH0 MSTORE PUSH1 0x40 PUSH0 KECCAK256 PUSH0 SWAP2 POP SWAP1 POP SLOAD DUP2 JUMP JUMPDEST PUSH1 0x2 PUSH0 SWAP1 SLOAD SWAP1 PUSH2 0x100 EXP SWAP1 DIV PUSH20 0xFFFFFFFFFFFFFFFFFFFFFFFFFFFFFFFFFFFFFFFF AND DUP2 JUMP JUMPDEST PUSH1 0x9 PUSH1 0x20 MSTORE DUP1 PUSH0 MSTORE PUSH1 0x40 PUSH0 KECCAK256 PUSH0 SWAP2 POP SWAP1 POP SLOAD DUP2 JUMP JUMPDEST PUSH2 0xFB1 PUSH2 0x1144 JUMP JUMPDEST PUSH2 0xFB9 PUSH2 0x1191 JUMP JUMPDEST PUSH1 0x6 SLOAD CALLVALUE GT PUSH2 0xFFD JUMPI PUSH1 0x40 MLOAD PUSH32 0x8C379A000000000000000000000000000000000000000000000000000000000 DUP2 MSTORE PUSH1 0x4 ADD PUSH2 0xFF4 SWAP1 PUSH2 0x18BA JUMP JUMPDEST PUSH1 0x40 MLOAD DUP1 SWAP2 SUB SWAP1 REVERT JUMPDEST CALLVALUE PUSH1 0x8 PUSH0 CALLER PUSH20 0xFFFFFFFFFFFFFFFFFFFFFFFFFFFFFFFFFFFFFFFF AND PUSH20 0xFFFFFFFFFFFFFFFFFFFFFFFFFFFFFFFFFFFFFFFF AND DUP2 MSTORE PUSH1 0x20 ADD SWAP1 DUP2 MSTORE PUSH1 0x20 ADD PUSH0 KECCAK256 PUSH0 DUP3 DUP3 SLOAD PUSH2 0x1049 SWAP2 SWAP1 PUSH2 0x178B JUMP JUMPDEST SWAP3 POP POP DUP2 SWAP1 SSTORE POP CALLVALUE PUSH1 0x4 PUSH0 DUP3 DUP3 SLOAD PUSH2 0x1061 SWAP2 SWAP1 PUSH2 0x178B JUMP JUMPDEST SWAP3 POP POP DUP2 SWAP1 SSTORE POP CALLER PUSH20 0xFFFFFFFFFFFFFFFFFFFFFFFFFFFFFFFFFFFFFFFF AND PUSH32 0xF5BFA8A3F6A61792F266E3E92249FACCE14EDF2B5FCEEBA5CB6CD0882593A9DA CALLVALUE PUSH1 0x40 MLOAD PUSH2 0x10AE SWAP2 SWAP1 PUSH2 0x143C JUMP JUMPDEST PUSH1 0x40 MLOAD DUP1 SWAP2 SUB SWAP1 LOG2 PUSH2 0x10BE PUSH2 0x1188 JUMP JUMPDEST JUMP JUMPDEST PUSH2 0x10C8 PUSH2 0x11D2 JUMP JUMPDEST PUSH0 PUSH20 0xFFFFFFFFFFFFFFFFFFFFFFFFFFFFFFFFFFFFFFFF AND DUP2 PUSH20 0xFFFFFFFFFFFFFFFFFFFFFFFFFFFFFFFFFFFFFFFF AND SUB PUSH2 0x1138 JUMPI PUSH0 PUSH1 0x40 MLOAD PUSH32 0x1E4FBDF700000000000000000000000000000000000000000000000000000000 DUP2 MSTORE PUSH1 0x4 ADD PUSH2 0x112F SWAP2 SWAP1 PUSH2 0x1610 JUMP JUMPDEST PUSH1 0x40 MLOAD DUP1 SWAP2 SUB SWAP1 REVERT JUMPDEST PUSH2 0x1141 DUP2 PUSH2 0x12BA JUMP JUMPDEST POP JUMP JUMPDEST PUSH1 0x2 PUSH0 SLOAD SUB PUSH2 0x117F JUMPI PUSH1 0x40 MLOAD PUSH32 0x3EE5AEB500000000000000000000000000000000000000000000000000000000 DUP2 MSTORE PUSH1 0x4 ADD PUSH1 0x40 MLOAD DUP1 SWAP2 SUB SWAP1 REVERT JUMPDEST PUSH1 0x2 PUSH0 DUP2 SWAP1 SSTORE POP JUMP JUMPDEST PUSH1 0x1 PUSH0 DUP2 SWAP1 SSTORE POP JUMP JUMPDEST PUSH2 0x1199 PUSH2 0xD13 JUMP JUMPDEST ISZERO PUSH2 0x11D0 JUMPI PUSH1 0x40 MLOAD PUSH32 0xD93C066500000000000000000000000000000000000000000000000000000000 DUP2 MSTORE PUSH1 0x4 ADD PUSH1 0x40 MLOAD DUP1 SWAP2 SUB SWAP1 REVERT JUMPDEST JUMP JUMPDEST PUSH2 0x11DA PUSH2 0x13DD JUMP JUMPDEST PUSH20 0xFFFFFFFFFFFFFFFFFFFFFFFFFFFFFFFFFFFFFFFF AND PUSH2 0x11F8 PUSH2 0xD53 JUMP JUMPDEST PUSH20 0xFFFFFFFFFFFFFFFFFFFFFFFFFFFFFFFFFFFFFFFF AND EQ PUSH2 0x1257 JUMPI PUSH2 0x121B PUSH2 0x13DD JUMP JUMPDEST PUSH1 0x40 MLOAD PUSH32 0x118CDAA700000000000000000000000000000000000000000000000000000000 DUP2 MSTORE PUSH1 0x4 ADD PUSH2 0x124E SWAP2 SWAP1 PUSH2 0x1610 JUMP JUMPDEST PUSH1 0x40 MLOAD DUP1 SWAP2 SUB SWAP1 REVERT JUMPDEST JUMP JUMPDEST PUSH2 0x1261 PUSH2 0x13E4 JUMP JUMPDEST PUSH0 PUSH1 0x1 PUSH0 PUSH2 0x100 EXP DUP2 SLOAD DUP2 PUSH1 0xFF MUL NOT AND SWAP1 DUP4 ISZERO ISZERO MUL OR SWAP1 SSTORE POP PUSH32 0x5DB9EE0A495BF2E6FF9C91A7834C1BA4FDD244A5E8AA4E537BD38AEAE4B073AA PUSH2 0x12A3 PUSH2 0x13DD JUMP JUMPDEST PUSH1 0x40 MLOAD PUSH2 0x12B0 SWAP2 SWAP1 PUSH2 0x1610 JUMP JUMPDEST PUSH1 0x40 MLOAD DUP1 SWAP2 SUB SWAP1 LOG1 JUMP JUMPDEST PUSH0 PUSH1 0x1 DUP1 SLOAD SWAP1 PUSH2 0x100 EXP SWAP1 DIV PUSH20 0xFFFFFFFFFFFFFFFFFFFFFFFFFFFFFFFFFFFFFFFF AND SWAP1 POP DUP2 PUSH1 0x1 DUP1 PUSH2 0x100 EXP DUP2 SLOAD DUP2 PUSH20 0xFFFFFFFFFFFFFFFFFFFFFFFFFFFFFFFFFFFFFFFF MUL NOT AND SWAP1 DUP4 PUSH20 0xFFFFFFFFFFFFFFFFFFFFFFFFFFFFFFFFFFFFFFFF AND MUL OR SWAP1 SSTORE POP DUP2 PUSH20 0xFFFFFFFFFFFFFFFFFFFFFFFFFFFFFFFFFFFFFFFF AND DUP2 PUSH20 0xFFFFFFFFFFFFFFFFFFFFFFFFFFFFFFFFFFFFFFFF AND PUSH32 0x8BE0079C531659141344CD1FD0A4F28419497F9722A3DAAFE3B4186F6B6457E0 PUSH1 0x40 MLOAD PUSH1 0x40 MLOAD DUP1 SWAP2 SUB SWAP1 LOG3 POP POP JUMP JUMPDEST PUSH2 0x1384 PUSH2 0x1191 JUMP JUMPDEST PUSH1 0x1 DUP1 PUSH0 PUSH2 0x100 EXP DUP2 SLOAD DUP2 PUSH1 0xFF MUL NOT AND SWAP1 DUP4 ISZERO ISZERO MUL OR SWAP1 SSTORE POP PUSH32 0x62E78CEA01BEE320CD4E420270B5EA74000D11B0C9F74754EBDBFC544B05A258 PUSH2 0x13C6 PUSH2 0x13DD JUMP JUMPDEST PUSH1 0x40 MLOAD PUSH2 0x13D3 SWAP2 SWAP1 PUSH2 0x1610 JUMP JUMPDEST PUSH1 0x40 MLOAD DUP1 SWAP2 SUB SWAP1 LOG1 JUMP JUMPDEST PUSH0 CALLER SWAP1 POP SWAP1 JUMP JUMPDEST PUSH2 0x13EC PUSH2 0xD13 JUMP JUMPDEST PUSH2 0x1422 JUMPI PUSH1 0x40 MLOAD PUSH32 0x8DFC202B00000000000000000000000000000000000000000000000000000000 DUP2 MSTORE PUSH1 0x4 ADD PUSH1 0x40 MLOAD DUP1 SWAP2 SUB SWAP1 REVERT JUMPDEST JUMP JUMPDEST PUSH0 DUP2 SWAP1 POP SWAP2 SWAP1 POP JUMP JUMPDEST PUSH2 0x1436 DUP2 PUSH2 0x1424 JUMP JUMPDEST DUP3 MSTORE POP POP JUMP JUMPDEST PUSH0 PUSH1 0x20 DUP3 ADD SWAP1 POP PUSH2 0x144F PUSH0 DUP4 ADD DUP5 PUSH2 0x142D JUMP JUMPDEST SWAP3 SWAP2 POP POP JUMP JUMPDEST PUSH0 DUP1 REVERT JUMPDEST PUSH0 PUSH20 0xFFFFFFFFFFFFFFFFFFFFFFFFFFFFFFFFFFFFFFFF DUP3 AND SWAP1 POP SWAP2 SWAP1 POP JUMP JUMPDEST PUSH0 PUSH2 0x1482 DUP3 PUSH2 0x1459 JUMP JUMPDEST SWAP1 POP SWAP2 SWAP1 POP JUMP JUMPDEST PUSH2 0x1492 DUP2 PUSH2 0x1478 JUMP JUMPDEST DUP2 EQ PUSH2 0x149C JUMPI PUSH0 DUP1 REVERT JUMPDEST POP JUMP JUMPDEST PUSH0 DUP2 CALLDATALOAD SWAP1 POP PUSH2 0x14AD DUP2 PUSH2 0x1489 JUMP JUMPDEST SWAP3 SWAP2 POP POP JUMP JUMPDEST PUSH0 PUSH1 0x20 DUP3 DUP5 SUB SLT ISZERO PUSH2 0x14C8 JUMPI PUSH2 0x14C7 PUSH2 0x1455 JUMP JUMPDEST JUMPDEST PUSH0 PUSH2 0x14D5 DUP5 DUP3 DUP6 ADD PUSH2 0x149F JUMP JUMPDEST SWAP2 POP POP SWAP3 SWAP2 POP POP JUMP JUMPDEST PUSH0 DUP2 SWAP1 POP SWAP2 SWAP1 POP JUMP JUMPDEST PUSH0 PUSH2 0x1501 PUSH2 0x14FC PUSH2 0x14F7 DUP5 PUSH2 0x1459 JUMP JUMPDEST PUSH2 0x14DE JUMP JUMPDEST PUSH2 0x1459 JUMP JUMPDEST SWAP1 POP SWAP2 SWAP1 POP JUMP JUMPDEST PUSH0 PUSH2 0x1512 DUP3 PUSH2 0x14E7 JUMP JUMPDEST SWAP1 POP SWAP2 SWAP1 POP JUMP JUMPDEST PUSH0 PUSH2 0x1523 DUP3 PUSH2 0x1508 JUMP JUMPDEST SWAP1 POP SWAP2 SWAP1 POP JUMP JUMPDEST PUSH2 0x1533 DUP2 PUSH2 0x1519 JUMP JUMPDEST DUP3 MSTORE POP POP JUMP JUMPDEST PUSH0 PUSH1 0x20 DUP3 ADD SWAP1 POP PUSH2 0x154C PUSH0 DUP4 ADD DUP5 PUSH2 0x152A JUMP JUMPDEST SWAP3 SWAP2 POP POP JUMP JUMPDEST PUSH0 PUSH1 0x40 DUP3 ADD SWAP1 POP PUSH2 0x1565 PUSH0 DUP4 ADD DUP6 PUSH2 0x142D JUMP JUMPDEST PUSH2 0x1572 PUSH1 0x20 DUP4 ADD DUP5 PUSH2 0x142D JUMP JUMPDEST SWAP4 SWAP3 POP POP POP JUMP JUMPDEST PUSH2 0x1582 DUP2 PUSH2 0x1424 JUMP JUMPDEST DUP2 EQ PUSH2 0x158C JUMPI PUSH0 DUP1 REVERT JUMPDEST POP JUMP JUMPDEST PUSH0 DUP2 CALLDATALOAD SWAP1 POP PUSH2 0x159D DUP2 PUSH2 0x1579 JUMP JUMPDEST SWAP3 SWAP2 POP POP JUMP JUMPDEST PUSH0 PUSH1 0x20 DUP3 DUP5 SUB SLT ISZERO PUSH2 0x15B8 JUMPI PUSH2 0x15B7 PUSH2 0x1455 JUMP JUMPDEST JUMPDEST PUSH0 PUSH2 0x15C5 DUP5 DUP3 DUP6 ADD PUSH2 0x158F JUMP JUMPDEST SWAP2 POP POP SWAP3 SWAP2 POP POP JUMP JUMPDEST PUSH0 DUP2 ISZERO ISZERO SWAP1 POP SWAP2 SWAP1 POP JUMP JUMPDEST PUSH2 0x15E2 DUP2 PUSH2 0x15CE JUMP JUMPDEST DUP3 MSTORE POP POP JUMP JUMPDEST PUSH0 PUSH1 0x20 DUP3 ADD SWAP1 POP PUSH2 0x15FB PUSH0 DUP4 ADD DUP5 PUSH2 0x15D9 JUMP JUMPDEST SWAP3 SWAP2 POP POP JUMP JUMPDEST PUSH2 0x160A DUP2 PUSH2 0x1478 JUMP JUMPDEST DUP3 MSTORE POP POP JUMP JUMPDEST PUSH0 PUSH1 0x20 DUP3 ADD SWAP1 POP PUSH2 0x1623 PUSH0 DUP4 ADD DUP5 PUSH2 0x1601 JUMP JUMPDEST SWAP3 SWAP2 POP POP JUMP JUMPDEST PUSH0 PUSH2 0x1633 DUP3 PUSH2 0x1508 JUMP JUMPDEST SWAP1 POP SWAP2 SWAP1 POP JUMP JUMPDEST PUSH2 0x1643 DUP2 PUSH2 0x1629 JUMP JUMPDEST DUP3 MSTORE POP POP JUMP JUMPDEST PUSH0 PUSH1 0x20 DUP3 ADD SWAP1 POP PUSH2 0x165C PUSH0 DUP4 ADD DUP5 PUSH2 0x163A JUMP JUMPDEST SWAP3 SWAP2 POP POP JUMP JUMPDEST PUSH0 DUP2 SWAP1 POP SWAP2 SWAP1 POP JUMP JUMPDEST PUSH2 0x1674 DUP2 PUSH2 0x1662 JUMP JUMPDEST DUP2 EQ PUSH2 0x167E JUMPI PUSH0 DUP1 REVERT JUMPDEST POP JUMP JUMPDEST PUSH0 DUP2 MLOAD SWAP1 POP PUSH2 0x168F DUP2 PUSH2 0x166B JUMP JUMPDEST SWAP3 SWAP2 POP POP JUMP JUMPDEST PUSH0 PUSH1 0x20 DUP3 DUP5 SUB SLT ISZERO PUSH2 0x16AA JUMPI PUSH2 0x16A9 PUSH2 0x1455 JUMP JUMPDEST JUMPDEST PUSH0 PUSH2 0x16B7 DUP5 DUP3 DUP6 ADD PUSH2 0x1681 JUMP JUMPDEST SWAP2 POP POP SWAP3 SWAP2 POP POP JUMP JUMPDEST PUSH32 0x4E487B7100000000000000000000000000000000000000000000000000000000 PUSH0 MSTORE PUSH1 0x11 PUSH1 0x4 MSTORE PUSH1 0x24 PUSH0 REVERT JUMPDEST PUSH0 PUSH2 0x16F7 DUP3 PUSH2 0x1424 JUMP JUMPDEST SWAP2 POP PUSH2 0x1702 DUP4 PUSH2 0x1424 JUMP JUMPDEST SWAP3 POP DUP3 DUP3 MUL PUSH2 0x1710 DUP2 PUSH2 0x1424 JUMP JUMPDEST SWAP2 POP DUP3 DUP3 DIV DUP5 EQ DUP4 ISZERO OR PUSH2 0x1727 JUMPI PUSH2 0x1726 PUSH2 0x16C0 JUMP JUMPDEST JUMPDEST POP SWAP3 SWAP2 POP POP JUMP JUMPDEST PUSH32 0x4E487B7100000000000000000000000000000000000000000000000000000000 PUSH0 MSTORE PUSH1 0x12 PUSH1 0x4 MSTORE PUSH1 0x24 PUSH0 REVERT JUMPDEST PUSH0 PUSH2 0x1765 DUP3 PUSH2 0x1424 JUMP JUMPDEST SWAP2 POP PUSH2 0x1770 DUP4 PUSH2 0x1424 JUMP JUMPDEST SWAP3 POP DUP3 PUSH2 0x1780 JUMPI PUSH2 0x177F PUSH2 0x172E JUMP JUMPDEST JUMPDEST DUP3 DUP3 DIV SWAP1 POP SWAP3 SWAP2 POP POP JUMP JUMPDEST PUSH0 PUSH2 0x1795 DUP3 PUSH2 0x1424 JUMP JUMPDEST SWAP2 POP PUSH2 0x17A0 DUP4 PUSH2 0x1424 JUMP JUMPDEST SWAP3 POP DUP3 DUP3 ADD SWAP1 POP DUP1 DUP3 GT ISZERO PUSH2 0x17B8 JUMPI PUSH2 0x17B7 PUSH2 0x16C0 JUMP JUMPDEST JUMPDEST SWAP3 SWAP2 POP POP JUMP JUMPDEST PUSH0 PUSH1 0x40 DUP3 ADD SWAP1 POP PUSH2 0x17D1 PUSH0 DUP4 ADD DUP6 PUSH2 0x1601 JUMP JUMPDEST PUSH2 0x17DE PUSH1 0x20 DUP4 ADD DUP5 PUSH2 0x142D JUMP JUMPDEST SWAP4 SWAP3 POP POP POP JUMP JUMPDEST PUSH2 0x17EE DUP2 PUSH2 0x15CE JUMP JUMPDEST DUP2 EQ PUSH2 0x17F8 JUMPI PUSH0 DUP1 REVERT JUMPDEST POP JUMP JUMPDEST PUSH0 DUP2 MLOAD SWAP1 POP PUSH2 0x1809 DUP2 PUSH2 0x17E5 JUMP JUMPDEST SWAP3 SWAP2 POP POP JUMP JUMPDEST PUSH0 PUSH1 0x20 DUP3 DUP5 SUB SLT ISZERO PUSH2 0x1824 JUMPI PUSH2 0x1823 PUSH2 0x1455 JUMP JUMPDEST JUMPDEST PUSH0 PUSH2 0x1831 DUP5 DUP3 DUP6 ADD PUSH2 0x17FB JUMP JUMPDEST SWAP2 POP POP SWAP3 SWAP2 POP POP JUMP JUMPDEST PUSH0 DUP3 DUP3 MSTORE PUSH1 0x20 DUP3 ADD SWAP1 POP SWAP3 SWAP2 POP POP JUMP JUMPDEST PUSH32 0x436F6C6C61746572616C4D616E616765723A20496E76616C696420616D6F756E PUSH0 DUP3 ADD MSTORE PUSH32 0x7400000000000000000000000000000000000000000000000000000000000000 PUSH1 0x20 DUP3 ADD MSTORE POP JUMP JUMPDEST PUSH0 PUSH2 0x18A4 PUSH1 0x21 DUP4 PUSH2 0x183A JUMP JUMPDEST SWAP2 POP PUSH2 0x18AF DUP3 PUSH2 0x184A JUMP JUMPDEST PUSH1 0x40 DUP3 ADD SWAP1 POP SWAP2 SWAP1 POP JUMP JUMPDEST PUSH0 PUSH1 0x20 DUP3 ADD SWAP1 POP DUP2 DUP2 SUB PUSH0 DUP4 ADD MSTORE PUSH2 0x18D1 DUP2 PUSH2 0x1898 JUMP JUMPDEST SWAP1 POP SWAP2 SWAP1 POP JUMP JUMPDEST PUSH0 PUSH1 0x60 DUP3 ADD SWAP1 POP PUSH2 0x18EB PUSH0 DUP4 ADD DUP7 PUSH2 0x1601 JUMP JUMPDEST PUSH2 0x18F8 PUSH1 0x20 DUP4 ADD DUP6 PUSH2 0x1601 JUMP JUMPDEST PUSH2 0x1905 PUSH1 0x40 DUP4 ADD DUP5 PUSH2 0x142D JUMP JUMPDEST SWAP5 SWAP4 POP POP POP POP JUMP JUMPDEST PUSH32 0x436F6C6C61746572616C4D616E616765723A205472616E73666572206661696C PUSH0 DUP3 ADD MSTORE PUSH32 0x6564000000000000000000000000000000000000000000000000000000000000 PUSH1 0x20 DUP3 ADD MSTORE POP JUMP JUMPDEST PUSH0 PUSH2 0x1967 PUSH1 0x22 DUP4 PUSH2 0x183A JUMP JUMPDEST SWAP2 POP PUSH2 0x1972 DUP3 PUSH2 0x190D JUMP JUMPDEST PUSH1 0x40 DUP3 ADD SWAP1 POP SWAP2 SWAP1 POP JUMP JUMPDEST PUSH0 PUSH1 0x20 DUP3 ADD SWAP1 POP DUP2 DUP2 SUB PUSH0 DUP4 ADD MSTORE PUSH2 0x1994 DUP2 PUSH2 0x195B JUMP JUMPDEST SWAP1 POP SWAP2 SWAP1 POP JUMP JUMPDEST PUSH32 0x436F6C6C61746572616C4D616E616765723A20496E73756666696369656E7420 PUSH0 DUP3 ADD MSTORE PUSH32 0x62616C616E636500000000000000000000000000000000000000000000000000 PUSH1 0x20 DUP3 ADD MSTORE POP JUMP JUMPDEST PUSH0 PUSH2 0x19F5 PUSH1 0x27 DUP4 PUSH2 0x183A JUMP JUMPDEST SWAP2 POP PUSH2 0x1A00 DUP3 PUSH2 0x199B JUMP JUMPDEST PUSH1 0x40 DUP3 ADD SWAP1 POP SWAP2 SWAP1 POP JUMP JUMPDEST PUSH0 PUSH1 0x20 DUP3 ADD SWAP1 POP DUP2 DUP2 SUB PUSH0 DUP4 ADD MSTORE PUSH2 0x1A22 DUP2 PUSH2 0x19E9 JUMP JUMPDEST SWAP1 POP SWAP2 SWAP1 POP JUMP JUMPDEST PUSH0 PUSH2 0x1A33 DUP3 PUSH2 0x1424 JUMP JUMPDEST SWAP2 POP PUSH2 0x1A3E DUP4 PUSH2 0x1424 JUMP JUMPDEST SWAP3 POP DUP3 DUP3 SUB SWAP1 POP DUP2 DUP2 GT ISZERO PUSH2 0x1A56 JUMPI PUSH2 0x1A55 PUSH2 0x16C0 JUMP JUMPDEST JUMPDEST SWAP3 SWAP2 POP POP JUMP INVALID LOG2 PUSH5 0x6970667358 0x22 SLT KECCAK256 DUP3 PUSH19 0xBEAC9A8108E3B3ACE9323FA261D1AB6CE9452C BYTE PC CALLDATASIZE CALLDATACOPY BLOCKHASH SLOAD 0x28 SWAP12 0xBE PUSH19 0x2A64736F6C634300081A003300000000000000 "
				},
				"gasEstimates": {
					"creation": {
						"codeDepositCost": "1360400",
						"executionCost": "infinite",
						"totalCost": "infinite"
					},
					"external": {
						"depositCeloCollateral()": "infinite",
						"depositUsdtCollateral(uint256)": "infinite",
						"getCollateralBalance(address)": "infinite",
						"getCollateralBalanceinUSD(address)": "infinite",
						"maxCollateralAmount()": "2449",
						"minCollateralAmount()": "2492",
						"owner()": "2652",
						"pause()": "infinite",
						"paused()": "2584",
						"priceOracle()": "infinite",
						"releaseFunds(address)": "infinite",
						"renounceOwnership()": "infinite",
						"totalCollateralCelo()": "2448",
						"totalCollateralUsdt()": "2447",
						"transferOwnership(address)": "infinite",
						"unpause()": "infinite",
						"usdtToken()": "infinite",
						"userCollateralCelo(address)": "2846",
						"userCollateralUsdt(address)": "2890",
						"withdrawCeloCollateral(uint256)": "infinite",
						"withdrawUsdtCollateral(uint256)": "infinite"
					}
				},
				"methodIdentifiers": {
					"depositCeloCollateral()": "d57ac70d",
					"depositUsdtCollateral(uint256)": "2f5723d5",
					"getCollateralBalance(address)": "2703ee85",
					"getCollateralBalanceinUSD(address)": "09b8aafd",
					"maxCollateralAmount()": "04885115",
					"minCollateralAmount()": "5269384e",
					"owner()": "8da5cb5b",
					"pause()": "8456cb59",
					"paused()": "5c975abb",
					"priceOracle()": "2630c12f",
					"releaseFunds(address)": "192e7a7b",
					"renounceOwnership()": "715018a6",
					"totalCollateralCelo()": "60b3b338",
					"totalCollateralUsdt()": "9083baa6",
					"transferOwnership(address)": "f2fde38b",
					"unpause()": "3f4ba83a",
					"usdtToken()": "a98ad46c",
					"userCollateralCelo(address)": "9e30bce7",
					"userCollateralUsdt(address)": "c3b2a4a4",
					"withdrawCeloCollateral(uint256)": "8e817efe",
					"withdrawUsdtCollateral(uint256)": "52ce9714"
				}
			},
			"storageLayout": {
				"storage": [
					{
						"astId": 429,
						"contract": "contracts/CollateralManager.sol:CollateralManager",
						"label": "_status",
						"offset": 0,
						"slot": "0",
						"type": "t_uint256"
					},
					{
						"astId": 310,
						"contract": "contracts/CollateralManager.sol:CollateralManager",
						"label": "_paused",
						"offset": 0,
						"slot": "1",
						"type": "t_bool"
					},
					{
						"astId": 54,
						"contract": "contracts/CollateralManager.sol:CollateralManager",
						"label": "_owner",
						"offset": 1,
						"slot": "1",
						"type": "t_address"
					},
					{
						"astId": 503,
						"contract": "contracts/CollateralManager.sol:CollateralManager",
						"label": "usdtToken",
						"offset": 0,
						"slot": "2",
						"type": "t_contract(IERC20)271"
					},
					{
						"astId": 506,
						"contract": "contracts/CollateralManager.sol:CollateralManager",
						"label": "priceOracle",
						"offset": 0,
						"slot": "3",
						"type": "t_contract(MellowFiPriceOracle)933"
					},
					{
						"astId": 508,
						"contract": "contracts/CollateralManager.sol:CollateralManager",
						"label": "totalCollateralCelo",
						"offset": 0,
						"slot": "4",
						"type": "t_uint256"
					},
					{
						"astId": 510,
						"contract": "contracts/CollateralManager.sol:CollateralManager",
						"label": "totalCollateralUsdt",
						"offset": 0,
						"slot": "5",
						"type": "t_uint256"
					},
					{
						"astId": 513,
						"contract": "contracts/CollateralManager.sol:CollateralManager",
						"label": "minCollateralAmount",
						"offset": 0,
						"slot": "6",
						"type": "t_uint256"
					},
					{
						"astId": 516,
						"contract": "contracts/CollateralManager.sol:CollateralManager",
						"label": "maxCollateralAmount",
						"offset": 0,
						"slot": "7",
						"type": "t_uint256"
					},
					{
						"astId": 520,
						"contract": "contracts/CollateralManager.sol:CollateralManager",
						"label": "userCollateralCelo",
						"offset": 0,
						"slot": "8",
						"type": "t_mapping(t_address,t_uint256)"
					},
					{
						"astId": 524,
						"contract": "contracts/CollateralManager.sol:CollateralManager",
						"label": "userCollateralUsdt",
						"offset": 0,
						"slot": "9",
						"type": "t_mapping(t_address,t_uint256)"
					}
				],
				"types": {
					"t_address": {
						"encoding": "inplace",
						"label": "address",
						"numberOfBytes": "20"
					},
					"t_bool": {
						"encoding": "inplace",
						"label": "bool",
						"numberOfBytes": "1"
					},
					"t_contract(IERC20)271": {
						"encoding": "inplace",
						"label": "contract IERC20",
						"numberOfBytes": "20"
					},
					"t_contract(MellowFiPriceOracle)933": {
						"encoding": "inplace",
						"label": "contract MellowFiPriceOracle",
						"numberOfBytes": "20"
					},
					"t_mapping(t_address,t_uint256)": {
						"encoding": "mapping",
						"key": "t_address",
						"label": "mapping(address => uint256)",
						"numberOfBytes": "32",
						"value": "t_uint256"
					},
					"t_uint256": {
						"encoding": "inplace",
						"label": "uint256",
						"numberOfBytes": "32"
					}
				}
			},
			"userdoc": {
				"kind": "user",
				"methods": {},
				"version": 1
			}
		}
	}
}