{
	"contracts/CollateralManager.sol": {
		"CollateralManager": {
			"abi": [
				{
					"inputs": [
						{
							"internalType": "contract ERC20",
							"name": "_collateralToken",
							"type": "address"
						}
					],
					"stateMutability": "nonpayable",
					"type": "constructor"
				},
				{
					"inputs": [],
					"name": "EnforcedPause",
					"type": "error"
				},
				{
					"inputs": [],
					"name": "ExpectedPause",
					"type": "error"
				},
				{
					"inputs": [
						{
							"internalType": "address",
							"name": "owner",
							"type": "address"
						}
					],
					"name": "OwnableInvalidOwner",
					"type": "error"
				},
				{
					"inputs": [
						{
							"internalType": "address",
							"name": "account",
							"type": "address"
						}
					],
					"name": "OwnableUnauthorizedAccount",
					"type": "error"
				},
				{
					"inputs": [],
					"name": "ReentrancyGuardReentrantCall",
					"type": "error"
				},
				{
					"anonymous": false,
					"inputs": [
						{
							"indexed": true,
							"internalType": "address",
							"name": "user",
							"type": "address"
						},
						{
							"indexed": false,
							"internalType": "uint256",
							"name": "amount",
							"type": "uint256"
						}
					],
					"name": "CeloCollateralDeposited",
					"type": "event"
				},
				{
					"anonymous": false,
					"inputs": [
						{
							"indexed": true,
							"internalType": "address",
							"name": "user",
							"type": "address"
						},
						{
							"indexed": false,
							"internalType": "uint256",
							"name": "amount",
							"type": "uint256"
						}
					],
					"name": "CeloCollateralWithdrawn",
					"type": "event"
				},
				{
					"anonymous": false,
					"inputs": [
						{
							"indexed": true,
							"internalType": "address",
							"name": "previousOwner",
							"type": "address"
						},
						{
							"indexed": true,
							"internalType": "address",
							"name": "newOwner",
							"type": "address"
						}
					],
					"name": "OwnershipTransferred",
					"type": "event"
				},
				{
					"anonymous": false,
					"inputs": [
						{
							"indexed": false,
							"internalType": "address",
							"name": "account",
							"type": "address"
						}
					],
					"name": "Paused",
					"type": "event"
				},
				{
					"anonymous": false,
					"inputs": [
						{
							"indexed": false,
							"internalType": "address",
							"name": "account",
							"type": "address"
						}
					],
					"name": "Unpaused",
					"type": "event"
				},
				{
					"anonymous": false,
					"inputs": [
						{
							"indexed": true,
							"internalType": "address",
							"name": "user",
							"type": "address"
						},
						{
							"indexed": false,
							"internalType": "uint256",
							"name": "amount",
							"type": "uint256"
						}
					],
					"name": "UsdtCollateralDeposited",
					"type": "event"
				},
				{
					"anonymous": false,
					"inputs": [
						{
							"indexed": true,
							"internalType": "address",
							"name": "user",
							"type": "address"
						},
						{
							"indexed": false,
							"internalType": "uint256",
							"name": "amount",
							"type": "uint256"
						}
					],
					"name": "UsdtCollateralWithdrawn",
					"type": "event"
				},
				{
					"inputs": [],
					"name": "depositCeloCollateral",
					"outputs": [],
					"stateMutability": "payable",
					"type": "function"
				},
				{
					"inputs": [
						{
							"internalType": "uint256",
							"name": "_amount",
							"type": "uint256"
						}
					],
					"name": "depositUsdtCollateral",
					"outputs": [],
					"stateMutability": "nonpayable",
					"type": "function"
				},
				{
					"inputs": [
						{
							"internalType": "address",
							"name": "_user",
							"type": "address"
						}
					],
					"name": "getCollateralBalance",
					"outputs": [
						{
							"internalType": "uint256",
							"name": "celo",
							"type": "uint256"
						},
						{
							"internalType": "uint256",
							"name": "usdt",
							"type": "uint256"
						}
					],
					"stateMutability": "view",
					"type": "function"
				},
				{
					"inputs": [
						{
							"internalType": "address",
							"name": "user",
							"type": "address"
						}
					],
					"name": "liquidateCollateral",
					"outputs": [],
					"stateMutability": "nonpayable",
					"type": "function"
				},
				{
					"inputs": [],
					"name": "owner",
					"outputs": [
						{
							"internalType": "address",
							"name": "",
							"type": "address"
						}
					],
					"stateMutability": "view",
					"type": "function"
				},
				{
					"inputs": [],
					"name": "pause",
					"outputs": [],
					"stateMutability": "nonpayable",
					"type": "function"
				},
				{
					"inputs": [],
					"name": "paused",
					"outputs": [
						{
							"internalType": "bool",
							"name": "",
							"type": "bool"
						}
					],
					"stateMutability": "view",
					"type": "function"
				},
				{
					"inputs": [
						{
							"internalType": "address",
							"name": "user",
							"type": "address"
						}
					],
					"name": "releaseFunds",
					"outputs": [],
					"stateMutability": "nonpayable",
					"type": "function"
				},
				{
					"inputs": [],
					"name": "renounceOwnership",
					"outputs": [],
					"stateMutability": "nonpayable",
					"type": "function"
				},
				{
					"inputs": [],
					"name": "totalCollateralCelo",
					"outputs": [
						{
							"internalType": "uint256",
							"name": "",
							"type": "uint256"
						}
					],
					"stateMutability": "view",
					"type": "function"
				},
				{
					"inputs": [],
					"name": "totalCollateralUsdt",
					"outputs": [
						{
							"internalType": "uint256",
							"name": "",
							"type": "uint256"
						}
					],
					"stateMutability": "view",
					"type": "function"
				},
				{
					"inputs": [
						{
							"internalType": "address",
							"name": "newOwner",
							"type": "address"
						}
					],
					"name": "transferOwnership",
					"outputs": [],
					"stateMutability": "nonpayable",
					"type": "function"
				},
				{
					"inputs": [],
					"name": "unpause",
					"outputs": [],
					"stateMutability": "nonpayable",
					"type": "function"
				},
				{
					"inputs": [],
					"name": "usdtToken",
					"outputs": [
						{
							"internalType": "contract ERC20",
							"name": "",
							"type": "address"
						}
					],
					"stateMutability": "view",
					"type": "function"
				},
				{
					"inputs": [
						{
							"internalType": "address",
							"name": "",
							"type": "address"
						}
					],
					"name": "userCollateralCelo",
					"outputs": [
						{
							"internalType": "uint256",
							"name": "",
							"type": "uint256"
						}
					],
					"stateMutability": "view",
					"type": "function"
				},
				{
					"inputs": [
						{
							"internalType": "address",
							"name": "",
							"type": "address"
						}
					],
					"name": "userCollateralUsdt",
					"outputs": [
						{
							"internalType": "uint256",
							"name": "",
							"type": "uint256"
						}
					],
					"stateMutability": "view",
					"type": "function"
				},
				{
					"inputs": [
						{
							"internalType": "uint256",
							"name": "_amount",
							"type": "uint256"
						}
					],
					"name": "withdrawCeloCollateral",
					"outputs": [],
					"stateMutability": "nonpayable",
					"type": "function"
				},
				{
					"inputs": [
						{
							"internalType": "uint256",
							"name": "_amount",
							"type": "uint256"
						}
					],
					"name": "withdrawUsdtCollateral",
					"outputs": [],
					"stateMutability": "nonpayable",
					"type": "function"
				}
			],
			"devdoc": {
				"errors": {
					"EnforcedPause()": [
						{
							"details": "The operation failed because the contract is paused."
						}
					],
					"ExpectedPause()": [
						{
							"details": "The operation failed because the contract is not paused."
						}
					],
					"OwnableInvalidOwner(address)": [
						{
							"details": "The owner is not a valid owner account. (eg. `address(0)`)"
						}
					],
					"OwnableUnauthorizedAccount(address)": [
						{
							"details": "The caller account is not authorized to perform an operation."
						}
					],
					"ReentrancyGuardReentrantCall()": [
						{
							"details": "Unauthorized reentrant call."
						}
					]
				},
				"events": {
					"Paused(address)": {
						"details": "Emitted when the pause is triggered by `account`."
					},
					"Unpaused(address)": {
						"details": "Emitted when the pause is lifted by `account`."
					}
				},
				"kind": "dev",
				"methods": {
					"owner()": {
						"details": "Returns the address of the current owner."
					},
					"paused()": {
						"details": "Returns true if the contract is paused, and false otherwise."
					},
					"renounceOwnership()": {
						"details": "Leaves the contract without owner. It will not be possible to call `onlyOwner` functions. Can only be called by the current owner. NOTE: Renouncing ownership will leave the contract without an owner, thereby disabling any functionality that is only available to the owner."
					},
					"transferOwnership(address)": {
						"details": "Transfers ownership of the contract to a new account (`newOwner`). Can only be called by the current owner."
					}
				},
				"version": 1
			},
			"evm": {
				"assembly": "    /* \"contracts/CollateralManager.sol\":284:4195  contract CollateralManager is ReentrancyGuard, Pausable, Ownable {... */\n  mstore(0x40, 0x80)\n    /* \"contracts/CollateralManager.sol\":943:1043  constructor(ERC20 _collateralToken) Ownable(msg.sender){... */\n  callvalue\n  dup1\n  iszero\n  tag_1\n  jumpi\n  0x00\n  dup1\n  revert\ntag_1:\n  pop\n  mload(0x40)\n  sub(codesize, bytecodeSize)\n  dup1\n  bytecodeSize\n  dup4\n  codecopy\n  dup2\n  dup2\n  add\n  0x40\n  mstore\n  dup2\n  add\n  swap1\n  tag_2\n  swap2\n  swap1\n  tag_3\n  jump\t// in\ntag_2:\n    /* \"contracts/CollateralManager.sol\":987:997  msg.sender */\n  caller\n    /* \"@openzeppelin/contracts/utils/ReentrancyGuard.sol\":1713:1714  1 */\n  0x01\n    /* \"@openzeppelin/contracts/utils/ReentrancyGuard.sol\":1917:1924  _status */\n  0x00\n    /* \"@openzeppelin/contracts/utils/ReentrancyGuard.sol\":1917:1938  _status = NOT_ENTERED */\n  dup2\n  swap1\n  sstore\n  pop\n    /* \"@openzeppelin/contracts/utils/Pausable.sol\":1241:1246  false */\n  0x00\n    /* \"@openzeppelin/contracts/utils/Pausable.sol\":1231:1238  _paused */\n  0x01\n  0x00\n    /* \"@openzeppelin/contracts/utils/Pausable.sol\":1231:1246  _paused = false */\n  0x0100\n  exp\n  dup2\n  sload\n  dup2\n  0xff\n  mul\n  not\n  and\n  swap1\n  dup4\n  iszero\n  iszero\n  mul\n  or\n  swap1\n  sstore\n  pop\n    /* \"@openzeppelin/contracts/access/Ownable.sol\":1297:1298  0 */\n  0x00\n    /* \"@openzeppelin/contracts/access/Ownable.sol\":1273:1299  initialOwner == address(0) */\n  0xffffffffffffffffffffffffffffffffffffffff\n  and\n    /* \"@openzeppelin/contracts/access/Ownable.sol\":1273:1285  initialOwner */\n  dup2\n    /* \"@openzeppelin/contracts/access/Ownable.sol\":1273:1299  initialOwner == address(0) */\n  0xffffffffffffffffffffffffffffffffffffffff\n  and\n  sub\n    /* \"@openzeppelin/contracts/access/Ownable.sol\":1269:1364  if (initialOwner == address(0)) {... */\n  tag_11\n  jumpi\n    /* \"@openzeppelin/contracts/access/Ownable.sol\":1350:1351  0 */\n  0x00\n    /* \"@openzeppelin/contracts/access/Ownable.sol\":1322:1353  OwnableInvalidOwner(address(0)) */\n  mload(0x40)\n  0x1e4fbdf700000000000000000000000000000000000000000000000000000000\n  dup2\n  mstore\n  0x04\n  add\n  tag_12\n  swap2\n  swap1\n  tag_13\n  jump\t// in\ntag_12:\n  mload(0x40)\n  dup1\n  swap2\n  sub\n  swap1\n  revert\n    /* \"@openzeppelin/contracts/access/Ownable.sol\":1269:1364  if (initialOwner == address(0)) {... */\ntag_11:\n    /* \"@openzeppelin/contracts/access/Ownable.sol\":1373:1405  _transferOwnership(initialOwner) */\n  tag_14\n    /* \"@openzeppelin/contracts/access/Ownable.sol\":1392:1404  initialOwner */\n  dup2\n    /* \"@openzeppelin/contracts/access/Ownable.sol\":1373:1391  _transferOwnership */\n  shl(0x20, tag_15)\n    /* \"@openzeppelin/contracts/access/Ownable.sol\":1373:1405  _transferOwnership(initialOwner) */\n  0x20\n  shr\n  jump\t// in\ntag_14:\n    /* \"@openzeppelin/contracts/access/Ownable.sol\":1225:1412  constructor(address initialOwner) {... */\n  pop\n    /* \"contracts/CollateralManager.sol\":1020:1036  _collateralToken */\n  dup1\n    /* \"contracts/CollateralManager.sol\":1008:1017  usdtToken */\n  0x02\n  0x00\n    /* \"contracts/CollateralManager.sol\":1008:1036  usdtToken = _collateralToken */\n  0x0100\n  exp\n  dup2\n  sload\n  dup2\n  0xffffffffffffffffffffffffffffffffffffffff\n  mul\n  not\n  and\n  swap1\n  dup4\n  0xffffffffffffffffffffffffffffffffffffffff\n  and\n  mul\n  or\n  swap1\n  sstore\n  pop\n    /* \"contracts/CollateralManager.sol\":943:1043  constructor(ERC20 _collateralToken) Ownable(msg.sender){... */\n  pop\n    /* \"contracts/CollateralManager.sol\":284:4195  contract CollateralManager is ReentrancyGuard, Pausable, Ownable {... */\n  jump(tag_17)\n    /* \"@openzeppelin/contracts/access/Ownable.sol\":2912:3099  function _transferOwnership(address newOwner) internal virtual {... */\ntag_15:\n    /* \"@openzeppelin/contracts/access/Ownable.sol\":2985:3001  address oldOwner */\n  0x00\n    /* \"@openzeppelin/contracts/access/Ownable.sol\":3004:3010  _owner */\n  0x01\n  dup1\n  sload\n  swap1\n  0x0100\n  exp\n  swap1\n  div\n  0xffffffffffffffffffffffffffffffffffffffff\n  and\n    /* \"@openzeppelin/contracts/access/Ownable.sol\":2985:3010  address oldOwner = _owner */\n  swap1\n  pop\n    /* \"@openzeppelin/contracts/access/Ownable.sol\":3029:3037  newOwner */\n  dup2\n    /* \"@openzeppelin/contracts/access/Ownable.sol\":3020:3026  _owner */\n  0x01\n  dup1\n    /* \"@openzeppelin/contracts/access/Ownable.sol\":3020:3037  _owner = newOwner */\n  0x0100\n  exp\n  dup2\n  sload\n  dup2\n  0xffffffffffffffffffffffffffffffffffffffff\n  mul\n  not\n  and\n  swap1\n  dup4\n  0xffffffffffffffffffffffffffffffffffffffff\n  and\n  mul\n  or\n  swap1\n  sstore\n  pop\n    /* \"@openzeppelin/contracts/access/Ownable.sol\":3083:3091  newOwner */\n  dup2\n    /* \"@openzeppelin/contracts/access/Ownable.sol\":3052:3092  OwnershipTransferred(oldOwner, newOwner) */\n  0xffffffffffffffffffffffffffffffffffffffff\n  and\n    /* \"@openzeppelin/contracts/access/Ownable.sol\":3073:3081  oldOwner */\n  dup2\n    /* \"@openzeppelin/contracts/access/Ownable.sol\":3052:3092  OwnershipTransferred(oldOwner, newOwner) */\n  0xffffffffffffffffffffffffffffffffffffffff\n  and\n  0x8be0079c531659141344cd1fd0a4f28419497f9722a3daafe3b4186f6b6457e0\n  mload(0x40)\n  mload(0x40)\n  dup1\n  swap2\n  sub\n  swap1\n  log3\n    /* \"@openzeppelin/contracts/access/Ownable.sol\":2975:3099  {... */\n  pop\n    /* \"@openzeppelin/contracts/access/Ownable.sol\":2912:3099  function _transferOwnership(address newOwner) internal virtual {... */\n  pop\n  jump\t// out\n    /* \"#utility.yul\":88:205   */\ntag_20:\n    /* \"#utility.yul\":197:198   */\n  0x00\n    /* \"#utility.yul\":194:195   */\n  dup1\n    /* \"#utility.yul\":187:199   */\n  revert\n    /* \"#utility.yul\":334:460   */\ntag_22:\n    /* \"#utility.yul\":371:378   */\n  0x00\n    /* \"#utility.yul\":411:453   */\n  0xffffffffffffffffffffffffffffffffffffffff\n    /* \"#utility.yul\":404:409   */\n  dup3\n    /* \"#utility.yul\":400:454   */\n  and\n    /* \"#utility.yul\":389:454   */\n  swap1\n  pop\n    /* \"#utility.yul\":334:460   */\n  swap2\n  swap1\n  pop\n  jump\t// out\n    /* \"#utility.yul\":466:562   */\ntag_23:\n    /* \"#utility.yul\":503:510   */\n  0x00\n    /* \"#utility.yul\":532:556   */\n  tag_34\n    /* \"#utility.yul\":550:555   */\n  dup3\n    /* \"#utility.yul\":532:556   */\n  tag_22\n  jump\t// in\ntag_34:\n    /* \"#utility.yul\":521:556   */\n  swap1\n  pop\n    /* \"#utility.yul\":466:562   */\n  swap2\n  swap1\n  pop\n  jump\t// out\n    /* \"#utility.yul\":568:677   */\ntag_24:\n    /* \"#utility.yul\":618:625   */\n  0x00\n    /* \"#utility.yul\":647:671   */\n  tag_36\n    /* \"#utility.yul\":665:670   */\n  dup3\n    /* \"#utility.yul\":647:671   */\n  tag_23\n  jump\t// in\ntag_36:\n    /* \"#utility.yul\":636:671   */\n  swap1\n  pop\n    /* \"#utility.yul\":568:677   */\n  swap2\n  swap1\n  pop\n  jump\t// out\n    /* \"#utility.yul\":683:831   */\ntag_25:\n    /* \"#utility.yul\":769:806   */\n  tag_38\n    /* \"#utility.yul\":800:805   */\n  dup2\n    /* \"#utility.yul\":769:806   */\n  tag_24\n  jump\t// in\ntag_38:\n    /* \"#utility.yul\":762:767   */\n  dup2\n    /* \"#utility.yul\":759:807   */\n  eq\n    /* \"#utility.yul\":749:825   */\n  tag_39\n  jumpi\n    /* \"#utility.yul\":821:822   */\n  0x00\n    /* \"#utility.yul\":818:819   */\n  dup1\n    /* \"#utility.yul\":811:823   */\n  revert\n    /* \"#utility.yul\":749:825   */\ntag_39:\n    /* \"#utility.yul\":683:831   */\n  pop\n  jump\t// out\n    /* \"#utility.yul\":837:1006   */\ntag_26:\n    /* \"#utility.yul\":907:912   */\n  0x00\n    /* \"#utility.yul\":938:944   */\n  dup2\n    /* \"#utility.yul\":932:945   */\n  mload\n    /* \"#utility.yul\":923:945   */\n  swap1\n  pop\n    /* \"#utility.yul\":954:1000   */\n  tag_41\n    /* \"#utility.yul\":994:999   */\n  dup2\n    /* \"#utility.yul\":954:1000   */\n  tag_25\n  jump\t// in\ntag_41:\n    /* \"#utility.yul\":837:1006   */\n  swap3\n  swap2\n  pop\n  pop\n  jump\t// out\n    /* \"#utility.yul\":1012:1389   */\ntag_3:\n    /* \"#utility.yul\":1095:1101   */\n  0x00\n    /* \"#utility.yul\":1144:1146   */\n  0x20\n    /* \"#utility.yul\":1132:1141   */\n  dup3\n    /* \"#utility.yul\":1123:1130   */\n  dup5\n    /* \"#utility.yul\":1119:1142   */\n  sub\n    /* \"#utility.yul\":1115:1147   */\n  slt\n    /* \"#utility.yul\":1112:1231   */\n  iszero\n  tag_43\n  jumpi\n    /* \"#utility.yul\":1150:1229   */\n  tag_44\n  tag_20\n  jump\t// in\ntag_44:\n    /* \"#utility.yul\":1112:1231   */\ntag_43:\n    /* \"#utility.yul\":1270:1271   */\n  0x00\n    /* \"#utility.yul\":1295:1372   */\n  tag_45\n    /* \"#utility.yul\":1364:1371   */\n  dup5\n    /* \"#utility.yul\":1355:1361   */\n  dup3\n    /* \"#utility.yul\":1344:1353   */\n  dup6\n    /* \"#utility.yul\":1340:1362   */\n  add\n    /* \"#utility.yul\":1295:1372   */\n  tag_26\n  jump\t// in\ntag_45:\n    /* \"#utility.yul\":1285:1372   */\n  swap2\n  pop\n    /* \"#utility.yul\":1241:1382   */\n  pop\n    /* \"#utility.yul\":1012:1389   */\n  swap3\n  swap2\n  pop\n  pop\n  jump\t// out\n    /* \"#utility.yul\":1395:1513   */\ntag_27:\n    /* \"#utility.yul\":1482:1506   */\n  tag_47\n    /* \"#utility.yul\":1500:1505   */\n  dup2\n    /* \"#utility.yul\":1482:1506   */\n  tag_23\n  jump\t// in\ntag_47:\n    /* \"#utility.yul\":1477:1480   */\n  dup3\n    /* \"#utility.yul\":1470:1507   */\n  mstore\n    /* \"#utility.yul\":1395:1513   */\n  pop\n  pop\n  jump\t// out\n    /* \"#utility.yul\":1519:1741   */\ntag_13:\n    /* \"#utility.yul\":1612:1616   */\n  0x00\n    /* \"#utility.yul\":1650:1652   */\n  0x20\n    /* \"#utility.yul\":1639:1648   */\n  dup3\n    /* \"#utility.yul\":1635:1653   */\n  add\n    /* \"#utility.yul\":1627:1653   */\n  swap1\n  pop\n    /* \"#utility.yul\":1663:1734   */\n  tag_49\n    /* \"#utility.yul\":1731:1732   */\n  0x00\n    /* \"#utility.yul\":1720:1729   */\n  dup4\n    /* \"#utility.yul\":1716:1733   */\n  add\n    /* \"#utility.yul\":1707:1713   */\n  dup5\n    /* \"#utility.yul\":1663:1734   */\n  tag_27\n  jump\t// in\ntag_49:\n    /* \"#utility.yul\":1519:1741   */\n  swap3\n  swap2\n  pop\n  pop\n  jump\t// out\n    /* \"contracts/CollateralManager.sol\":284:4195  contract CollateralManager is ReentrancyGuard, Pausable, Ownable {... */\ntag_17:\n  dataSize(sub_0)\n  dup1\n  dataOffset(sub_0)\n  0x00\n  codecopy\n  0x00\n  return\nstop\n\nsub_0: assembly {\n        /* \"contracts/CollateralManager.sol\":284:4195  contract CollateralManager is ReentrancyGuard, Pausable, Ownable {... */\n      mstore(0x40, 0x80)\n      jumpi(tag_1, lt(calldatasize, 0x04))\n      shr(0xe0, calldataload(0x00))\n      dup1\n      0x8456cb59\n      gt\n      tag_20\n      jumpi\n      dup1\n      0x9e30bce7\n      gt\n      tag_21\n      jumpi\n      dup1\n      0x9e30bce7\n      eq\n      tag_15\n      jumpi\n      dup1\n      0xa98ad46c\n      eq\n      tag_16\n      jumpi\n      dup1\n      0xc3b2a4a4\n      eq\n      tag_17\n      jumpi\n      dup1\n      0xd57ac70d\n      eq\n      tag_18\n      jumpi\n      dup1\n      0xf2fde38b\n      eq\n      tag_19\n      jumpi\n      jump(tag_1)\n    tag_21:\n      dup1\n      0x8456cb59\n      eq\n      tag_11\n      jumpi\n      dup1\n      0x8da5cb5b\n      eq\n      tag_12\n      jumpi\n      dup1\n      0x8e817efe\n      eq\n      tag_13\n      jumpi\n      dup1\n      0x9083baa6\n      eq\n      tag_14\n      jumpi\n      jump(tag_1)\n    tag_20:\n      dup1\n      0x3f4ba83a\n      gt\n      tag_22\n      jumpi\n      dup1\n      0x3f4ba83a\n      eq\n      tag_6\n      jumpi\n      dup1\n      0x52ce9714\n      eq\n      tag_7\n      jumpi\n      dup1\n      0x5c975abb\n      eq\n      tag_8\n      jumpi\n      dup1\n      0x60b3b338\n      eq\n      tag_9\n      jumpi\n      dup1\n      0x715018a6\n      eq\n      tag_10\n      jumpi\n      jump(tag_1)\n    tag_22:\n      dup1\n      0x192e7a7b\n      eq\n      tag_2\n      jumpi\n      dup1\n      0x1fea5a6b\n      eq\n      tag_3\n      jumpi\n      dup1\n      0x2703ee85\n      eq\n      tag_4\n      jumpi\n      dup1\n      0x2f5723d5\n      eq\n      tag_5\n      jumpi\n    tag_1:\n      0x00\n      dup1\n      revert\n        /* \"contracts/CollateralManager.sol\":3687:3869  function releaseFunds(address user) external nonReentrant{... */\n    tag_2:\n      callvalue\n      dup1\n      iszero\n      tag_23\n      jumpi\n      0x00\n      dup1\n      revert\n    tag_23:\n      pop\n      tag_24\n      0x04\n      dup1\n      calldatasize\n      sub\n      dup2\n      add\n      swap1\n      tag_25\n      swap2\n      swap1\n      tag_26\n      jump\t// in\n    tag_25:\n      tag_27\n      jump\t// in\n    tag_24:\n      stop\n        /* \"contracts/CollateralManager.sol\":3875:4031  function liquidateCollateral(address user) external nonReentrant{... */\n    tag_3:\n      callvalue\n      dup1\n      iszero\n      tag_28\n      jumpi\n      0x00\n      dup1\n      revert\n    tag_28:\n      pop\n      tag_29\n      0x04\n      dup1\n      calldatasize\n      sub\n      dup2\n      add\n      swap1\n      tag_30\n      swap2\n      swap1\n      tag_26\n      jump\t// in\n    tag_30:\n      tag_31\n      jump\t// in\n    tag_29:\n      stop\n        /* \"contracts/CollateralManager.sol\":3031:3205  function getCollateralBalance(address _user) external view returns (uint256 celo, uint256 usdt) {... */\n    tag_4:\n      callvalue\n      dup1\n      iszero\n      tag_32\n      jumpi\n      0x00\n      dup1\n      revert\n    tag_32:\n      pop\n      tag_33\n      0x04\n      dup1\n      calldatasize\n      sub\n      dup2\n      add\n      swap1\n      tag_34\n      swap2\n      swap1\n      tag_26\n      jump\t// in\n    tag_34:\n      tag_35\n      jump\t// in\n    tag_33:\n      mload(0x40)\n      tag_36\n      swap3\n      swap2\n      swap1\n      tag_37\n      jump\t// in\n    tag_36:\n      mload(0x40)\n      dup1\n      swap2\n      sub\n      swap1\n      return\n        /* \"contracts/CollateralManager.sol\":2029:2452  function depositUsdtCollateral(uint256 _amount) external nonReentrant whenNotPaused {... */\n    tag_5:\n      callvalue\n      dup1\n      iszero\n      tag_38\n      jumpi\n      0x00\n      dup1\n      revert\n    tag_38:\n      pop\n      tag_39\n      0x04\n      dup1\n      calldatasize\n      sub\n      dup2\n      add\n      swap1\n      tag_40\n      swap2\n      swap1\n      tag_41\n      jump\t// in\n    tag_40:\n      tag_42\n      jump\t// in\n    tag_39:\n      stop\n        /* \"contracts/CollateralManager.sol\":4128:4193  function unpause() external onlyOwner {... */\n    tag_6:\n      callvalue\n      dup1\n      iszero\n      tag_43\n      jumpi\n      0x00\n      dup1\n      revert\n    tag_43:\n      pop\n      tag_44\n      tag_45\n      jump\t// in\n    tag_44:\n      stop\n        /* \"contracts/CollateralManager.sol\":2458:3025  function withdrawUsdtCollateral(uint256 _amount) external nonReentrant whenNotPaused {... */\n    tag_7:\n      callvalue\n      dup1\n      iszero\n      tag_46\n      jumpi\n      0x00\n      dup1\n      revert\n    tag_46:\n      pop\n      tag_47\n      0x04\n      dup1\n      calldatasize\n      sub\n      dup2\n      add\n      swap1\n      tag_48\n      swap2\n      swap1\n      tag_41\n      jump\t// in\n    tag_48:\n      tag_49\n      jump\t// in\n    tag_47:\n      stop\n        /* \"@openzeppelin/contracts/utils/Pausable.sol\":1850:1934  function paused() public view virtual returns (bool) {... */\n    tag_8:\n      callvalue\n      dup1\n      iszero\n      tag_50\n      jumpi\n      0x00\n      dup1\n      revert\n    tag_50:\n      pop\n      tag_51\n      tag_52\n      jump\t// in\n    tag_51:\n      mload(0x40)\n      tag_53\n      swap2\n      swap1\n      tag_54\n      jump\t// in\n    tag_53:\n      mload(0x40)\n      dup1\n      swap2\n      sub\n      swap1\n      return\n        /* \"contracts/CollateralManager.sol\":384:418  uint256 public totalCollateralCelo */\n    tag_9:\n      callvalue\n      dup1\n      iszero\n      tag_55\n      jumpi\n      0x00\n      dup1\n      revert\n    tag_55:\n      pop\n      tag_56\n      tag_57\n      jump\t// in\n    tag_56:\n      mload(0x40)\n      tag_58\n      swap2\n      swap1\n      tag_59\n      jump\t// in\n    tag_58:\n      mload(0x40)\n      dup1\n      swap2\n      sub\n      swap1\n      return\n        /* \"@openzeppelin/contracts/access/Ownable.sol\":2293:2394  function renounceOwnership() public virtual onlyOwner {... */\n    tag_10:\n      callvalue\n      dup1\n      iszero\n      tag_60\n      jumpi\n      0x00\n      dup1\n      revert\n    tag_60:\n      pop\n      tag_61\n      tag_62\n      jump\t// in\n    tag_61:\n      stop\n        /* \"contracts/CollateralManager.sol\":4061:4122  function pause() external onlyOwner {... */\n    tag_11:\n      callvalue\n      dup1\n      iszero\n      tag_63\n      jumpi\n      0x00\n      dup1\n      revert\n    tag_63:\n      pop\n      tag_64\n      tag_65\n      jump\t// in\n    tag_64:\n      stop\n        /* \"@openzeppelin/contracts/access/Ownable.sol\":1638:1723  function owner() public view virtual returns (address) {... */\n    tag_12:\n      callvalue\n      dup1\n      iszero\n      tag_66\n      jumpi\n      0x00\n      dup1\n      revert\n    tag_66:\n      pop\n      tag_67\n      tag_68\n      jump\t// in\n    tag_67:\n      mload(0x40)\n      tag_69\n      swap2\n      swap1\n      tag_70\n      jump\t// in\n    tag_69:\n      mload(0x40)\n      dup1\n      swap2\n      sub\n      swap1\n      return\n        /* \"contracts/CollateralManager.sol\":1495:2023  function withdrawCeloCollateral(uint256 _amount) external nonReentrant whenNotPaused {... */\n    tag_13:\n      callvalue\n      dup1\n      iszero\n      tag_71\n      jumpi\n      0x00\n      dup1\n      revert\n    tag_71:\n      pop\n      tag_72\n      0x04\n      dup1\n      calldatasize\n      sub\n      dup2\n      add\n      swap1\n      tag_73\n      swap2\n      swap1\n      tag_41\n      jump\t// in\n    tag_73:\n      tag_74\n      jump\t// in\n    tag_72:\n      stop\n        /* \"contracts/CollateralManager.sol\":424:458  uint256 public totalCollateralUsdt */\n    tag_14:\n      callvalue\n      dup1\n      iszero\n      tag_75\n      jumpi\n      0x00\n      dup1\n      revert\n    tag_75:\n      pop\n      tag_76\n      tag_77\n      jump\t// in\n    tag_76:\n      mload(0x40)\n      tag_78\n      swap2\n      swap1\n      tag_59\n      jump\t// in\n    tag_78:\n      mload(0x40)\n      dup1\n      swap2\n      sub\n      swap1\n      return\n        /* \"contracts/CollateralManager.sol\":531:584  mapping(address => uint256) public userCollateralCelo */\n    tag_15:\n      callvalue\n      dup1\n      iszero\n      tag_79\n      jumpi\n      0x00\n      dup1\n      revert\n    tag_79:\n      pop\n      tag_80\n      0x04\n      dup1\n      calldatasize\n      sub\n      dup2\n      add\n      swap1\n      tag_81\n      swap2\n      swap1\n      tag_26\n      jump\t// in\n    tag_81:\n      tag_82\n      jump\t// in\n    tag_80:\n      mload(0x40)\n      tag_83\n      swap2\n      swap1\n      tag_59\n      jump\t// in\n    tag_83:\n      mload(0x40)\n      dup1\n      swap2\n      sub\n      swap1\n      return\n        /* \"contracts/CollateralManager.sol\":356:378  ERC20 public usdtToken */\n    tag_16:\n      callvalue\n      dup1\n      iszero\n      tag_84\n      jumpi\n      0x00\n      dup1\n      revert\n    tag_84:\n      pop\n      tag_85\n      tag_86\n      jump\t// in\n    tag_85:\n      mload(0x40)\n      tag_87\n      swap2\n      swap1\n      tag_88\n      jump\t// in\n    tag_87:\n      mload(0x40)\n      dup1\n      swap2\n      sub\n      swap1\n      return\n        /* \"contracts/CollateralManager.sol\":590:643  mapping(address => uint256) public userCollateralUsdt */\n    tag_17:\n      callvalue\n      dup1\n      iszero\n      tag_89\n      jumpi\n      0x00\n      dup1\n      revert\n    tag_89:\n      pop\n      tag_90\n      0x04\n      dup1\n      calldatasize\n      sub\n      dup2\n      add\n      swap1\n      tag_91\n      swap2\n      swap1\n      tag_26\n      jump\t// in\n    tag_91:\n      tag_92\n      jump\t// in\n    tag_90:\n      mload(0x40)\n      tag_93\n      swap2\n      swap1\n      tag_59\n      jump\t// in\n    tag_93:\n      mload(0x40)\n      dup1\n      swap2\n      sub\n      swap1\n      return\n        /* \"contracts/CollateralManager.sol\":1049:1489  function depositCeloCollateral() external payable nonReentrant whenNotPaused {... */\n    tag_18:\n      tag_94\n      tag_95\n      jump\t// in\n    tag_94:\n      stop\n        /* \"@openzeppelin/contracts/access/Ownable.sol\":2543:2758  function transferOwnership(address newOwner) public virtual onlyOwner {... */\n    tag_19:\n      callvalue\n      dup1\n      iszero\n      tag_96\n      jumpi\n      0x00\n      dup1\n      revert\n    tag_96:\n      pop\n      tag_97\n      0x04\n      dup1\n      calldatasize\n      sub\n      dup2\n      add\n      swap1\n      tag_98\n      swap2\n      swap1\n      tag_26\n      jump\t// in\n    tag_98:\n      tag_99\n      jump\t// in\n    tag_97:\n      stop\n        /* \"contracts/CollateralManager.sol\":3687:3869  function releaseFunds(address user) external nonReentrant{... */\n    tag_27:\n        /* \"@openzeppelin/contracts/utils/ReentrancyGuard.sol\":2356:2377  _nonReentrantBefore() */\n      tag_101\n        /* \"@openzeppelin/contracts/utils/ReentrancyGuard.sol\":2356:2375  _nonReentrantBefore */\n      tag_102\n        /* \"@openzeppelin/contracts/utils/ReentrancyGuard.sol\":2356:2377  _nonReentrantBefore() */\n      jump\t// in\n    tag_101:\n        /* \"contracts/CollateralManager.sol\":3762:3766  user */\n      dup1\n        /* \"contracts/CollateralManager.sol\":3754:3776  payable(user).transfer */\n      0xffffffffffffffffffffffffffffffffffffffff\n      and\n        /* \"contracts/CollateralManager.sol\":3754:3802  payable(user).transfer(userCollateralCelo[user]) */\n      0x08fc\n        /* \"contracts/CollateralManager.sol\":3777:3795  userCollateralCelo */\n      0x05\n        /* \"contracts/CollateralManager.sol\":3777:3801  userCollateralCelo[user] */\n      0x00\n        /* \"contracts/CollateralManager.sol\":3796:3800  user */\n      dup5\n        /* \"contracts/CollateralManager.sol\":3777:3801  userCollateralCelo[user] */\n      0xffffffffffffffffffffffffffffffffffffffff\n      and\n      0xffffffffffffffffffffffffffffffffffffffff\n      and\n      dup2\n      mstore\n      0x20\n      add\n      swap1\n      dup2\n      mstore\n      0x20\n      add\n      0x00\n      keccak256\n      sload\n        /* \"contracts/CollateralManager.sol\":3754:3802  payable(user).transfer(userCollateralCelo[user]) */\n      swap1\n      dup2\n      iszero\n      mul\n      swap1\n      mload(0x40)\n      0x00\n      mload(0x40)\n      dup1\n      dup4\n      sub\n      dup2\n      dup6\n      dup9\n      dup9\n      call\n      swap4\n      pop\n      pop\n      pop\n      pop\n      iszero\n      dup1\n      iszero\n      tag_105\n      jumpi\n      returndatasize\n      0x00\n      dup1\n      returndatacopy\n      revert(0x00, returndatasize)\n    tag_105:\n      pop\n        /* \"contracts/CollateralManager.sol\":3812:3821  usdtToken */\n      0x02\n      0x00\n      swap1\n      sload\n      swap1\n      0x0100\n      exp\n      swap1\n      div\n      0xffffffffffffffffffffffffffffffffffffffff\n      and\n        /* \"contracts/CollateralManager.sol\":3812:3830  usdtToken.transfer */\n      0xffffffffffffffffffffffffffffffffffffffff\n      and\n      0xa9059cbb\n        /* \"contracts/CollateralManager.sol\":3831:3835  user */\n      dup3\n        /* \"contracts/CollateralManager.sol\":3837:3855  userCollateralUsdt */\n      0x06\n        /* \"contracts/CollateralManager.sol\":3837:3861  userCollateralUsdt[user] */\n      0x00\n        /* \"contracts/CollateralManager.sol\":3856:3860  user */\n      dup6\n        /* \"contracts/CollateralManager.sol\":3837:3861  userCollateralUsdt[user] */\n      0xffffffffffffffffffffffffffffffffffffffff\n      and\n      0xffffffffffffffffffffffffffffffffffffffff\n      and\n      dup2\n      mstore\n      0x20\n      add\n      swap1\n      dup2\n      mstore\n      0x20\n      add\n      0x00\n      keccak256\n      sload\n        /* \"contracts/CollateralManager.sol\":3812:3862  usdtToken.transfer(user, userCollateralUsdt[user]) */\n      mload(0x40)\n      dup4\n      0xffffffff\n      and\n      0xe0\n      shl\n      dup2\n      mstore\n      0x04\n      add\n      tag_106\n      swap3\n      swap2\n      swap1\n      tag_107\n      jump\t// in\n    tag_106:\n      0x20\n      mload(0x40)\n      dup1\n      dup4\n      sub\n      dup2\n      0x00\n      dup8\n      gas\n      call\n      iszero\n      dup1\n      iszero\n      tag_109\n      jumpi\n      returndatasize\n      0x00\n      dup1\n      returndatacopy\n      revert(0x00, returndatasize)\n    tag_109:\n      pop\n      pop\n      pop\n      pop\n      mload(0x40)\n      returndatasize\n      not(0x1f)\n      0x1f\n      dup3\n      add\n      and\n      dup3\n      add\n      dup1\n      0x40\n      mstore\n      pop\n      dup2\n      add\n      swap1\n      tag_110\n      swap2\n      swap1\n      tag_111\n      jump\t// in\n    tag_110:\n      pop\n        /* \"@openzeppelin/contracts/utils/ReentrancyGuard.sol\":2398:2418  _nonReentrantAfter() */\n      tag_112\n        /* \"@openzeppelin/contracts/utils/ReentrancyGuard.sol\":2398:2416  _nonReentrantAfter */\n      tag_113\n        /* \"@openzeppelin/contracts/utils/ReentrancyGuard.sol\":2398:2418  _nonReentrantAfter() */\n      jump\t// in\n    tag_112:\n        /* \"contracts/CollateralManager.sol\":3687:3869  function releaseFunds(address user) external nonReentrant{... */\n      pop\n      jump\t// out\n        /* \"contracts/CollateralManager.sol\":3875:4031  function liquidateCollateral(address user) external nonReentrant{... */\n    tag_31:\n        /* \"@openzeppelin/contracts/utils/ReentrancyGuard.sol\":2356:2377  _nonReentrantBefore() */\n      tag_115\n        /* \"@openzeppelin/contracts/utils/ReentrancyGuard.sol\":2356:2375  _nonReentrantBefore */\n      tag_102\n        /* \"@openzeppelin/contracts/utils/ReentrancyGuard.sol\":2356:2377  _nonReentrantBefore() */\n      jump\t// in\n    tag_115:\n        /* \"contracts/CollateralManager.sol\":3985:3986  0 */\n      0x00\n        /* \"contracts/CollateralManager.sol\":3958:3976  userCollateralCelo */\n      0x05\n        /* \"contracts/CollateralManager.sol\":3958:3982  userCollateralCelo[user] */\n      0x00\n        /* \"contracts/CollateralManager.sol\":3977:3981  user */\n      dup4\n        /* \"contracts/CollateralManager.sol\":3958:3982  userCollateralCelo[user] */\n      0xffffffffffffffffffffffffffffffffffffffff\n      and\n      0xffffffffffffffffffffffffffffffffffffffff\n      and\n      dup2\n      mstore\n      0x20\n      add\n      swap1\n      dup2\n      mstore\n      0x20\n      add\n      0x00\n      keccak256\n        /* \"contracts/CollateralManager.sol\":3958:3986  userCollateralCelo[user] = 0 */\n      dup2\n      swap1\n      sstore\n      pop\n        /* \"contracts/CollateralManager.sol\":4023:4024  0 */\n      0x00\n        /* \"contracts/CollateralManager.sol\":3996:4014  userCollateralUsdt */\n      0x06\n        /* \"contracts/CollateralManager.sol\":3996:4020  userCollateralUsdt[user] */\n      0x00\n        /* \"contracts/CollateralManager.sol\":4015:4019  user */\n      dup4\n        /* \"contracts/CollateralManager.sol\":3996:4020  userCollateralUsdt[user] */\n      0xffffffffffffffffffffffffffffffffffffffff\n      and\n      0xffffffffffffffffffffffffffffffffffffffff\n      and\n      dup2\n      mstore\n      0x20\n      add\n      swap1\n      dup2\n      mstore\n      0x20\n      add\n      0x00\n      keccak256\n        /* \"contracts/CollateralManager.sol\":3996:4024  userCollateralUsdt[user] = 0 */\n      dup2\n      swap1\n      sstore\n      pop\n        /* \"@openzeppelin/contracts/utils/ReentrancyGuard.sol\":2398:2418  _nonReentrantAfter() */\n      tag_117\n        /* \"@openzeppelin/contracts/utils/ReentrancyGuard.sol\":2398:2416  _nonReentrantAfter */\n      tag_113\n        /* \"@openzeppelin/contracts/utils/ReentrancyGuard.sol\":2398:2418  _nonReentrantAfter() */\n      jump\t// in\n    tag_117:\n        /* \"contracts/CollateralManager.sol\":3875:4031  function liquidateCollateral(address user) external nonReentrant{... */\n      pop\n      jump\t// out\n        /* \"contracts/CollateralManager.sol\":3031:3205  function getCollateralBalance(address _user) external view returns (uint256 celo, uint256 usdt) {... */\n    tag_35:\n        /* \"contracts/CollateralManager.sol\":3099:3111  uint256 celo */\n      0x00\n        /* \"contracts/CollateralManager.sol\":3113:3125  uint256 usdt */\n      dup1\n        /* \"contracts/CollateralManager.sol\":3145:3163  userCollateralCelo */\n      0x05\n        /* \"contracts/CollateralManager.sol\":3145:3170  userCollateralCelo[_user] */\n      0x00\n        /* \"contracts/CollateralManager.sol\":3164:3169  _user */\n      dup5\n        /* \"contracts/CollateralManager.sol\":3145:3170  userCollateralCelo[_user] */\n      0xffffffffffffffffffffffffffffffffffffffff\n      and\n      0xffffffffffffffffffffffffffffffffffffffff\n      and\n      dup2\n      mstore\n      0x20\n      add\n      swap1\n      dup2\n      mstore\n      0x20\n      add\n      0x00\n      keccak256\n      sload\n        /* \"contracts/CollateralManager.sol\":3172:3190  userCollateralUsdt */\n      0x06\n        /* \"contracts/CollateralManager.sol\":3172:3197  userCollateralUsdt[_user] */\n      0x00\n        /* \"contracts/CollateralManager.sol\":3191:3196  _user */\n      dup6\n        /* \"contracts/CollateralManager.sol\":3172:3197  userCollateralUsdt[_user] */\n      0xffffffffffffffffffffffffffffffffffffffff\n      and\n      0xffffffffffffffffffffffffffffffffffffffff\n      and\n      dup2\n      mstore\n      0x20\n      add\n      swap1\n      dup2\n      mstore\n      0x20\n      add\n      0x00\n      keccak256\n      sload\n        /* \"contracts/CollateralManager.sol\":3137:3198  return (userCollateralCelo[_user], userCollateralUsdt[_user]) */\n      swap2\n      pop\n      swap2\n      pop\n        /* \"contracts/CollateralManager.sol\":3031:3205  function getCollateralBalance(address _user) external view returns (uint256 celo, uint256 usdt) {... */\n      swap2\n      pop\n      swap2\n      jump\t// out\n        /* \"contracts/CollateralManager.sol\":2029:2452  function depositUsdtCollateral(uint256 _amount) external nonReentrant whenNotPaused {... */\n    tag_42:\n        /* \"@openzeppelin/contracts/utils/ReentrancyGuard.sol\":2356:2377  _nonReentrantBefore() */\n      tag_120\n        /* \"@openzeppelin/contracts/utils/ReentrancyGuard.sol\":2356:2375  _nonReentrantBefore */\n      tag_102\n        /* \"@openzeppelin/contracts/utils/ReentrancyGuard.sol\":2356:2377  _nonReentrantBefore() */\n      jump\t// in\n    tag_120:\n        /* \"@openzeppelin/contracts/utils/Pausable.sol\":1474:1493  _requireNotPaused() */\n      tag_122\n        /* \"@openzeppelin/contracts/utils/Pausable.sol\":1474:1491  _requireNotPaused */\n      tag_123\n        /* \"@openzeppelin/contracts/utils/Pausable.sol\":1474:1493  _requireNotPaused() */\n      jump\t// in\n    tag_122:\n        /* \"contracts/CollateralManager.sol\":2141:2142  0 */\n      0x00\n        /* \"contracts/CollateralManager.sol\":2131:2138  _amount */\n      dup2\n        /* \"contracts/CollateralManager.sol\":2131:2142  _amount > 0 */\n      gt\n        /* \"contracts/CollateralManager.sol\":2123:2180  require(_amount > 0, \"CollateralManager: Invalid amount\") */\n      tag_125\n      jumpi\n      mload(0x40)\n      0x08c379a000000000000000000000000000000000000000000000000000000000\n      dup2\n      mstore\n      0x04\n      add\n      tag_126\n      swap1\n      tag_127\n      jump\t// in\n    tag_126:\n      mload(0x40)\n      dup1\n      swap2\n      sub\n      swap1\n      revert\n    tag_125:\n        /* \"contracts/CollateralManager.sol\":2198:2207  usdtToken */\n      0x02\n      0x00\n      swap1\n      sload\n      swap1\n      0x0100\n      exp\n      swap1\n      div\n      0xffffffffffffffffffffffffffffffffffffffff\n      and\n        /* \"contracts/CollateralManager.sol\":2198:2220  usdtToken.transferFrom */\n      0xffffffffffffffffffffffffffffffffffffffff\n      and\n      0x23b872dd\n        /* \"contracts/CollateralManager.sol\":2221:2231  msg.sender */\n      caller\n        /* \"contracts/CollateralManager.sol\":2241:2245  this */\n      address\n        /* \"contracts/CollateralManager.sol\":2248:2255  _amount */\n      dup5\n        /* \"contracts/CollateralManager.sol\":2198:2256  usdtToken.transferFrom(msg.sender, address(this), _amount) */\n      mload(0x40)\n      dup5\n      0xffffffff\n      and\n      0xe0\n      shl\n      dup2\n      mstore\n      0x04\n      add\n      tag_128\n      swap4\n      swap3\n      swap2\n      swap1\n      tag_129\n      jump\t// in\n    tag_128:\n      0x20\n      mload(0x40)\n      dup1\n      dup4\n      sub\n      dup2\n      0x00\n      dup8\n      gas\n      call\n      iszero\n      dup1\n      iszero\n      tag_131\n      jumpi\n      returndatasize\n      0x00\n      dup1\n      returndatacopy\n      revert(0x00, returndatasize)\n    tag_131:\n      pop\n      pop\n      pop\n      pop\n      mload(0x40)\n      returndatasize\n      not(0x1f)\n      0x1f\n      dup3\n      add\n      and\n      dup3\n      add\n      dup1\n      0x40\n      mstore\n      pop\n      dup2\n      add\n      swap1\n      tag_132\n      swap2\n      swap1\n      tag_111\n      jump\t// in\n    tag_132:\n        /* \"contracts/CollateralManager.sol\":2190:2295  require(usdtToken.transferFrom(msg.sender, address(this), _amount), \"CollateralManager: Transfer failed\") */\n      tag_133\n      jumpi\n      mload(0x40)\n      0x08c379a000000000000000000000000000000000000000000000000000000000\n      dup2\n      mstore\n      0x04\n      add\n      tag_134\n      swap1\n      tag_135\n      jump\t// in\n    tag_134:\n      mload(0x40)\n      dup1\n      swap2\n      sub\n      swap1\n      revert\n    tag_133:\n        /* \"contracts/CollateralManager.sol\":2339:2346  _amount */\n      dup1\n        /* \"contracts/CollateralManager.sol\":2305:2323  userCollateralUsdt */\n      0x06\n        /* \"contracts/CollateralManager.sol\":2305:2335  userCollateralUsdt[msg.sender] */\n      0x00\n        /* \"contracts/CollateralManager.sol\":2324:2334  msg.sender */\n      caller\n        /* \"contracts/CollateralManager.sol\":2305:2335  userCollateralUsdt[msg.sender] */\n      0xffffffffffffffffffffffffffffffffffffffff\n      and\n      0xffffffffffffffffffffffffffffffffffffffff\n      and\n      dup2\n      mstore\n      0x20\n      add\n      swap1\n      dup2\n      mstore\n      0x20\n      add\n      0x00\n      keccak256\n      0x00\n        /* \"contracts/CollateralManager.sol\":2305:2346  userCollateralUsdt[msg.sender] += _amount */\n      dup3\n      dup3\n      sload\n      tag_136\n      swap2\n      swap1\n      tag_137\n      jump\t// in\n    tag_136:\n      swap3\n      pop\n      pop\n      dup2\n      swap1\n      sstore\n      pop\n        /* \"contracts/CollateralManager.sol\":2379:2386  _amount */\n      dup1\n        /* \"contracts/CollateralManager.sol\":2356:2375  totalCollateralUsdt */\n      0x04\n      0x00\n        /* \"contracts/CollateralManager.sol\":2356:2386  totalCollateralUsdt += _amount */\n      dup3\n      dup3\n      sload\n      tag_138\n      swap2\n      swap1\n      tag_137\n      jump\t// in\n    tag_138:\n      swap3\n      pop\n      pop\n      dup2\n      swap1\n      sstore\n      pop\n        /* \"contracts/CollateralManager.sol\":2425:2435  msg.sender */\n      caller\n        /* \"contracts/CollateralManager.sol\":2401:2445  UsdtCollateralDeposited(msg.sender, _amount) */\n      0xffffffffffffffffffffffffffffffffffffffff\n      and\n      0x9a4c731ff1518c7a820e31d32e673b031b8974967931afb2eec308066090022d\n        /* \"contracts/CollateralManager.sol\":2437:2444  _amount */\n      dup3\n        /* \"contracts/CollateralManager.sol\":2401:2445  UsdtCollateralDeposited(msg.sender, _amount) */\n      mload(0x40)\n      tag_139\n      swap2\n      swap1\n      tag_59\n      jump\t// in\n    tag_139:\n      mload(0x40)\n      dup1\n      swap2\n      sub\n      swap1\n      log2\n        /* \"@openzeppelin/contracts/utils/ReentrancyGuard.sol\":2398:2418  _nonReentrantAfter() */\n      tag_140\n        /* \"@openzeppelin/contracts/utils/ReentrancyGuard.sol\":2398:2416  _nonReentrantAfter */\n      tag_113\n        /* \"@openzeppelin/contracts/utils/ReentrancyGuard.sol\":2398:2418  _nonReentrantAfter() */\n      jump\t// in\n    tag_140:\n        /* \"contracts/CollateralManager.sol\":2029:2452  function depositUsdtCollateral(uint256 _amount) external nonReentrant whenNotPaused {... */\n      pop\n      jump\t// out\n        /* \"contracts/CollateralManager.sol\":4128:4193  function unpause() external onlyOwner {... */\n    tag_45:\n        /* \"@openzeppelin/contracts/access/Ownable.sol\":1531:1544  _checkOwner() */\n      tag_142\n        /* \"@openzeppelin/contracts/access/Ownable.sol\":1531:1542  _checkOwner */\n      tag_143\n        /* \"@openzeppelin/contracts/access/Ownable.sol\":1531:1544  _checkOwner() */\n      jump\t// in\n    tag_142:\n        /* \"contracts/CollateralManager.sol\":4176:4186  _unpause() */\n      tag_145\n        /* \"contracts/CollateralManager.sol\":4176:4184  _unpause */\n      tag_146\n        /* \"contracts/CollateralManager.sol\":4176:4186  _unpause() */\n      jump\t// in\n    tag_145:\n        /* \"contracts/CollateralManager.sol\":4128:4193  function unpause() external onlyOwner {... */\n      jump\t// out\n        /* \"contracts/CollateralManager.sol\":2458:3025  function withdrawUsdtCollateral(uint256 _amount) external nonReentrant whenNotPaused {... */\n    tag_49:\n        /* \"@openzeppelin/contracts/utils/ReentrancyGuard.sol\":2356:2377  _nonReentrantBefore() */\n      tag_148\n        /* \"@openzeppelin/contracts/utils/ReentrancyGuard.sol\":2356:2375  _nonReentrantBefore */\n      tag_102\n        /* \"@openzeppelin/contracts/utils/ReentrancyGuard.sol\":2356:2377  _nonReentrantBefore() */\n      jump\t// in\n    tag_148:\n        /* \"@openzeppelin/contracts/utils/Pausable.sol\":1474:1493  _requireNotPaused() */\n      tag_150\n        /* \"@openzeppelin/contracts/utils/Pausable.sol\":1474:1491  _requireNotPaused */\n      tag_123\n        /* \"@openzeppelin/contracts/utils/Pausable.sol\":1474:1493  _requireNotPaused() */\n      jump\t// in\n    tag_150:\n        /* \"contracts/CollateralManager.sol\":2630:2631  0 */\n      0x00\n        /* \"contracts/CollateralManager.sol\":2620:2627  _amount */\n      dup2\n        /* \"contracts/CollateralManager.sol\":2620:2631  _amount > 0 */\n      gt\n        /* \"contracts/CollateralManager.sol\":2612:2669  require(_amount > 0, \"CollateralManager: Invalid amount\") */\n      tag_152\n      jumpi\n      mload(0x40)\n      0x08c379a000000000000000000000000000000000000000000000000000000000\n      dup2\n      mstore\n      0x04\n      add\n      tag_153\n      swap1\n      tag_127\n      jump\t// in\n    tag_153:\n      mload(0x40)\n      dup1\n      swap2\n      sub\n      swap1\n      revert\n    tag_152:\n        /* \"contracts/CollateralManager.sol\":2721:2728  _amount */\n      dup1\n        /* \"contracts/CollateralManager.sol\":2687:2705  userCollateralUsdt */\n      0x06\n        /* \"contracts/CollateralManager.sol\":2687:2717  userCollateralUsdt[msg.sender] */\n      0x00\n        /* \"contracts/CollateralManager.sol\":2706:2716  msg.sender */\n      caller\n        /* \"contracts/CollateralManager.sol\":2687:2717  userCollateralUsdt[msg.sender] */\n      0xffffffffffffffffffffffffffffffffffffffff\n      and\n      0xffffffffffffffffffffffffffffffffffffffff\n      and\n      dup2\n      mstore\n      0x20\n      add\n      swap1\n      dup2\n      mstore\n      0x20\n      add\n      0x00\n      keccak256\n      sload\n        /* \"contracts/CollateralManager.sol\":2687:2728  userCollateralUsdt[msg.sender] >= _amount */\n      lt\n      iszero\n        /* \"contracts/CollateralManager.sol\":2679:2772  require(userCollateralUsdt[msg.sender] >= _amount, \"CollateralManager: Insufficient balance\") */\n      tag_154\n      jumpi\n      mload(0x40)\n      0x08c379a000000000000000000000000000000000000000000000000000000000\n      dup2\n      mstore\n      0x04\n      add\n      tag_155\n      swap1\n      tag_156\n      jump\t// in\n    tag_155:\n      mload(0x40)\n      dup1\n      swap2\n      sub\n      swap1\n      revert\n    tag_154:\n        /* \"contracts/CollateralManager.sol\":2816:2823  _amount */\n      dup1\n        /* \"contracts/CollateralManager.sol\":2782:2800  userCollateralUsdt */\n      0x06\n        /* \"contracts/CollateralManager.sol\":2782:2812  userCollateralUsdt[msg.sender] */\n      0x00\n        /* \"contracts/CollateralManager.sol\":2801:2811  msg.sender */\n      caller\n        /* \"contracts/CollateralManager.sol\":2782:2812  userCollateralUsdt[msg.sender] */\n      0xffffffffffffffffffffffffffffffffffffffff\n      and\n      0xffffffffffffffffffffffffffffffffffffffff\n      and\n      dup2\n      mstore\n      0x20\n      add\n      swap1\n      dup2\n      mstore\n      0x20\n      add\n      0x00\n      keccak256\n      0x00\n        /* \"contracts/CollateralManager.sol\":2782:2823  userCollateralUsdt[msg.sender] -= _amount */\n      dup3\n      dup3\n      sload\n      tag_157\n      swap2\n      swap1\n      tag_158\n      jump\t// in\n    tag_157:\n      swap3\n      pop\n      pop\n      dup2\n      swap1\n      sstore\n      pop\n        /* \"contracts/CollateralManager.sol\":2856:2863  _amount */\n      dup1\n        /* \"contracts/CollateralManager.sol\":2833:2852  totalCollateralUsdt */\n      0x04\n      0x00\n        /* \"contracts/CollateralManager.sol\":2833:2863  totalCollateralUsdt -= _amount */\n      dup3\n      dup3\n      sload\n      tag_159\n      swap2\n      swap1\n      tag_158\n      jump\t// in\n    tag_159:\n      swap3\n      pop\n      pop\n      dup2\n      swap1\n      sstore\n      pop\n        /* \"contracts/CollateralManager.sol\":2881:2890  usdtToken */\n      0x02\n      0x00\n      swap1\n      sload\n      swap1\n      0x0100\n      exp\n      swap1\n      div\n      0xffffffffffffffffffffffffffffffffffffffff\n      and\n        /* \"contracts/CollateralManager.sol\":2881:2899  usdtToken.transfer */\n      0xffffffffffffffffffffffffffffffffffffffff\n      and\n      0xa9059cbb\n        /* \"contracts/CollateralManager.sol\":2900:2910  msg.sender */\n      caller\n        /* \"contracts/CollateralManager.sol\":2912:2919  _amount */\n      dup4\n        /* \"contracts/CollateralManager.sol\":2881:2920  usdtToken.transfer(msg.sender, _amount) */\n      mload(0x40)\n      dup4\n      0xffffffff\n      and\n      0xe0\n      shl\n      dup2\n      mstore\n      0x04\n      add\n      tag_160\n      swap3\n      swap2\n      swap1\n      tag_107\n      jump\t// in\n    tag_160:\n      0x20\n      mload(0x40)\n      dup1\n      dup4\n      sub\n      dup2\n      0x00\n      dup8\n      gas\n      call\n      iszero\n      dup1\n      iszero\n      tag_162\n      jumpi\n      returndatasize\n      0x00\n      dup1\n      returndatacopy\n      revert(0x00, returndatasize)\n    tag_162:\n      pop\n      pop\n      pop\n      pop\n      mload(0x40)\n      returndatasize\n      not(0x1f)\n      0x1f\n      dup3\n      add\n      and\n      dup3\n      add\n      dup1\n      0x40\n      mstore\n      pop\n      dup2\n      add\n      swap1\n      tag_163\n      swap2\n      swap1\n      tag_111\n      jump\t// in\n    tag_163:\n        /* \"contracts/CollateralManager.sol\":2873:2959  require(usdtToken.transfer(msg.sender, _amount), \"CollateralManager: Transfer failed\") */\n      tag_164\n      jumpi\n      mload(0x40)\n      0x08c379a000000000000000000000000000000000000000000000000000000000\n      dup2\n      mstore\n      0x04\n      add\n      tag_165\n      swap1\n      tag_135\n      jump\t// in\n    tag_165:\n      mload(0x40)\n      dup1\n      swap2\n      sub\n      swap1\n      revert\n    tag_164:\n        /* \"contracts/CollateralManager.sol\":2998:3008  msg.sender */\n      caller\n        /* \"contracts/CollateralManager.sol\":2974:3018  UsdtCollateralWithdrawn(msg.sender, _amount) */\n      0xffffffffffffffffffffffffffffffffffffffff\n      and\n      0xc01511ac0a76d7dc4d420282166e32ac9366c3f78e450661d140d248b19a4000\n        /* \"contracts/CollateralManager.sol\":3010:3017  _amount */\n      dup3\n        /* \"contracts/CollateralManager.sol\":2974:3018  UsdtCollateralWithdrawn(msg.sender, _amount) */\n      mload(0x40)\n      tag_166\n      swap2\n      swap1\n      tag_59\n      jump\t// in\n    tag_166:\n      mload(0x40)\n      dup1\n      swap2\n      sub\n      swap1\n      log2\n        /* \"@openzeppelin/contracts/utils/ReentrancyGuard.sol\":2398:2418  _nonReentrantAfter() */\n      tag_167\n        /* \"@openzeppelin/contracts/utils/ReentrancyGuard.sol\":2398:2416  _nonReentrantAfter */\n      tag_113\n        /* \"@openzeppelin/contracts/utils/ReentrancyGuard.sol\":2398:2418  _nonReentrantAfter() */\n      jump\t// in\n    tag_167:\n        /* \"contracts/CollateralManager.sol\":2458:3025  function withdrawUsdtCollateral(uint256 _amount) external nonReentrant whenNotPaused {... */\n      pop\n      jump\t// out\n        /* \"@openzeppelin/contracts/utils/Pausable.sol\":1850:1934  function paused() public view virtual returns (bool) {... */\n    tag_52:\n        /* \"@openzeppelin/contracts/utils/Pausable.sol\":1897:1901  bool */\n      0x00\n        /* \"@openzeppelin/contracts/utils/Pausable.sol\":1920:1927  _paused */\n      0x01\n      0x00\n      swap1\n      sload\n      swap1\n      0x0100\n      exp\n      swap1\n      div\n      0xff\n      and\n        /* \"@openzeppelin/contracts/utils/Pausable.sol\":1913:1927  return _paused */\n      swap1\n      pop\n        /* \"@openzeppelin/contracts/utils/Pausable.sol\":1850:1934  function paused() public view virtual returns (bool) {... */\n      swap1\n      jump\t// out\n        /* \"contracts/CollateralManager.sol\":384:418  uint256 public totalCollateralCelo */\n    tag_57:\n      sload(0x03)\n      dup2\n      jump\t// out\n        /* \"@openzeppelin/contracts/access/Ownable.sol\":2293:2394  function renounceOwnership() public virtual onlyOwner {... */\n    tag_62:\n        /* \"@openzeppelin/contracts/access/Ownable.sol\":1531:1544  _checkOwner() */\n      tag_170\n        /* \"@openzeppelin/contracts/access/Ownable.sol\":1531:1542  _checkOwner */\n      tag_143\n        /* \"@openzeppelin/contracts/access/Ownable.sol\":1531:1544  _checkOwner() */\n      jump\t// in\n    tag_170:\n        /* \"@openzeppelin/contracts/access/Ownable.sol\":2357:2387  _transferOwnership(address(0)) */\n      tag_172\n        /* \"@openzeppelin/contracts/access/Ownable.sol\":2384:2385  0 */\n      0x00\n        /* \"@openzeppelin/contracts/access/Ownable.sol\":2357:2375  _transferOwnership */\n      tag_173\n        /* \"@openzeppelin/contracts/access/Ownable.sol\":2357:2387  _transferOwnership(address(0)) */\n      jump\t// in\n    tag_172:\n        /* \"@openzeppelin/contracts/access/Ownable.sol\":2293:2394  function renounceOwnership() public virtual onlyOwner {... */\n      jump\t// out\n        /* \"contracts/CollateralManager.sol\":4061:4122  function pause() external onlyOwner {... */\n    tag_65:\n        /* \"@openzeppelin/contracts/access/Ownable.sol\":1531:1544  _checkOwner() */\n      tag_175\n        /* \"@openzeppelin/contracts/access/Ownable.sol\":1531:1542  _checkOwner */\n      tag_143\n        /* \"@openzeppelin/contracts/access/Ownable.sol\":1531:1544  _checkOwner() */\n      jump\t// in\n    tag_175:\n        /* \"contracts/CollateralManager.sol\":4107:4115  _pause() */\n      tag_177\n        /* \"contracts/CollateralManager.sol\":4107:4113  _pause */\n      tag_178\n        /* \"contracts/CollateralManager.sol\":4107:4115  _pause() */\n      jump\t// in\n    tag_177:\n        /* \"contracts/CollateralManager.sol\":4061:4122  function pause() external onlyOwner {... */\n      jump\t// out\n        /* \"@openzeppelin/contracts/access/Ownable.sol\":1638:1723  function owner() public view virtual returns (address) {... */\n    tag_68:\n        /* \"@openzeppelin/contracts/access/Ownable.sol\":1684:1691  address */\n      0x00\n        /* \"@openzeppelin/contracts/access/Ownable.sol\":1710:1716  _owner */\n      0x01\n      dup1\n      sload\n      swap1\n      0x0100\n      exp\n      swap1\n      div\n      0xffffffffffffffffffffffffffffffffffffffff\n      and\n        /* \"@openzeppelin/contracts/access/Ownable.sol\":1703:1716  return _owner */\n      swap1\n      pop\n        /* \"@openzeppelin/contracts/access/Ownable.sol\":1638:1723  function owner() public view virtual returns (address) {... */\n      swap1\n      jump\t// out\n        /* \"contracts/CollateralManager.sol\":1495:2023  function withdrawCeloCollateral(uint256 _amount) external nonReentrant whenNotPaused {... */\n    tag_74:\n        /* \"@openzeppelin/contracts/utils/ReentrancyGuard.sol\":2356:2377  _nonReentrantBefore() */\n      tag_181\n        /* \"@openzeppelin/contracts/utils/ReentrancyGuard.sol\":2356:2375  _nonReentrantBefore */\n      tag_102\n        /* \"@openzeppelin/contracts/utils/ReentrancyGuard.sol\":2356:2377  _nonReentrantBefore() */\n      jump\t// in\n    tag_181:\n        /* \"@openzeppelin/contracts/utils/Pausable.sol\":1474:1493  _requireNotPaused() */\n      tag_183\n        /* \"@openzeppelin/contracts/utils/Pausable.sol\":1474:1491  _requireNotPaused */\n      tag_123\n        /* \"@openzeppelin/contracts/utils/Pausable.sol\":1474:1493  _requireNotPaused() */\n      jump\t// in\n    tag_183:\n        /* \"contracts/CollateralManager.sol\":1667:1668  0 */\n      0x00\n        /* \"contracts/CollateralManager.sol\":1657:1664  _amount */\n      dup2\n        /* \"contracts/CollateralManager.sol\":1657:1668  _amount > 0 */\n      gt\n        /* \"contracts/CollateralManager.sol\":1649:1706  require(_amount > 0, \"CollateralManager: Invalid amount\") */\n      tag_185\n      jumpi\n      mload(0x40)\n      0x08c379a000000000000000000000000000000000000000000000000000000000\n      dup2\n      mstore\n      0x04\n      add\n      tag_186\n      swap1\n      tag_127\n      jump\t// in\n    tag_186:\n      mload(0x40)\n      dup1\n      swap2\n      sub\n      swap1\n      revert\n    tag_185:\n        /* \"contracts/CollateralManager.sol\":1758:1765  _amount */\n      dup1\n        /* \"contracts/CollateralManager.sol\":1724:1742  userCollateralCelo */\n      0x05\n        /* \"contracts/CollateralManager.sol\":1724:1754  userCollateralCelo[msg.sender] */\n      0x00\n        /* \"contracts/CollateralManager.sol\":1743:1753  msg.sender */\n      caller\n        /* \"contracts/CollateralManager.sol\":1724:1754  userCollateralCelo[msg.sender] */\n      0xffffffffffffffffffffffffffffffffffffffff\n      and\n      0xffffffffffffffffffffffffffffffffffffffff\n      and\n      dup2\n      mstore\n      0x20\n      add\n      swap1\n      dup2\n      mstore\n      0x20\n      add\n      0x00\n      keccak256\n      sload\n        /* \"contracts/CollateralManager.sol\":1724:1765  userCollateralCelo[msg.sender] >= _amount */\n      lt\n      iszero\n        /* \"contracts/CollateralManager.sol\":1716:1809  require(userCollateralCelo[msg.sender] >= _amount, \"CollateralManager: Insufficient balance\") */\n      tag_187\n      jumpi\n      mload(0x40)\n      0x08c379a000000000000000000000000000000000000000000000000000000000\n      dup2\n      mstore\n      0x04\n      add\n      tag_188\n      swap1\n      tag_156\n      jump\t// in\n    tag_188:\n      mload(0x40)\n      dup1\n      swap2\n      sub\n      swap1\n      revert\n    tag_187:\n        /* \"contracts/CollateralManager.sol\":1853:1860  _amount */\n      dup1\n        /* \"contracts/CollateralManager.sol\":1819:1837  userCollateralCelo */\n      0x05\n        /* \"contracts/CollateralManager.sol\":1819:1849  userCollateralCelo[msg.sender] */\n      0x00\n        /* \"contracts/CollateralManager.sol\":1838:1848  msg.sender */\n      caller\n        /* \"contracts/CollateralManager.sol\":1819:1849  userCollateralCelo[msg.sender] */\n      0xffffffffffffffffffffffffffffffffffffffff\n      and\n      0xffffffffffffffffffffffffffffffffffffffff\n      and\n      dup2\n      mstore\n      0x20\n      add\n      swap1\n      dup2\n      mstore\n      0x20\n      add\n      0x00\n      keccak256\n      0x00\n        /* \"contracts/CollateralManager.sol\":1819:1860  userCollateralCelo[msg.sender] -= _amount */\n      dup3\n      dup3\n      sload\n      tag_189\n      swap2\n      swap1\n      tag_158\n      jump\t// in\n    tag_189:\n      swap3\n      pop\n      pop\n      dup2\n      swap1\n      sstore\n      pop\n        /* \"contracts/CollateralManager.sol\":1893:1900  _amount */\n      dup1\n        /* \"contracts/CollateralManager.sol\":1870:1889  totalCollateralCelo */\n      0x03\n      0x00\n        /* \"contracts/CollateralManager.sol\":1870:1900  totalCollateralCelo -= _amount */\n      dup3\n      dup3\n      sload\n      tag_190\n      swap2\n      swap1\n      tag_158\n      jump\t// in\n    tag_190:\n      swap3\n      pop\n      pop\n      dup2\n      swap1\n      sstore\n      pop\n        /* \"contracts/CollateralManager.sol\":1918:1928  msg.sender */\n      caller\n        /* \"contracts/CollateralManager.sol\":1910:1938  payable(msg.sender).transfer */\n      0xffffffffffffffffffffffffffffffffffffffff\n      and\n        /* \"contracts/CollateralManager.sol\":1910:1947  payable(msg.sender).transfer(_amount) */\n      0x08fc\n        /* \"contracts/CollateralManager.sol\":1939:1946  _amount */\n      dup3\n        /* \"contracts/CollateralManager.sol\":1910:1947  payable(msg.sender).transfer(_amount) */\n      swap1\n      dup2\n      iszero\n      mul\n      swap1\n      mload(0x40)\n      0x00\n      mload(0x40)\n      dup1\n      dup4\n      sub\n      dup2\n      dup6\n      dup9\n      dup9\n      call\n      swap4\n      pop\n      pop\n      pop\n      pop\n      iszero\n      dup1\n      iszero\n      tag_192\n      jumpi\n      returndatasize\n      0x00\n      dup1\n      returndatacopy\n      revert(0x00, returndatasize)\n    tag_192:\n      pop\n        /* \"contracts/CollateralManager.sol\":1986:1996  msg.sender */\n      caller\n        /* \"contracts/CollateralManager.sol\":1962:2006  CeloCollateralWithdrawn(msg.sender, _amount) */\n      0xffffffffffffffffffffffffffffffffffffffff\n      and\n      0x0c3d79d31dc82080baf59ab3c3058c3c7c4f88f9969422caa1b42c51577d640b\n        /* \"contracts/CollateralManager.sol\":1998:2005  _amount */\n      dup3\n        /* \"contracts/CollateralManager.sol\":1962:2006  CeloCollateralWithdrawn(msg.sender, _amount) */\n      mload(0x40)\n      tag_193\n      swap2\n      swap1\n      tag_59\n      jump\t// in\n    tag_193:\n      mload(0x40)\n      dup1\n      swap2\n      sub\n      swap1\n      log2\n        /* \"@openzeppelin/contracts/utils/ReentrancyGuard.sol\":2398:2418  _nonReentrantAfter() */\n      tag_194\n        /* \"@openzeppelin/contracts/utils/ReentrancyGuard.sol\":2398:2416  _nonReentrantAfter */\n      tag_113\n        /* \"@openzeppelin/contracts/utils/ReentrancyGuard.sol\":2398:2418  _nonReentrantAfter() */\n      jump\t// in\n    tag_194:\n        /* \"contracts/CollateralManager.sol\":1495:2023  function withdrawCeloCollateral(uint256 _amount) external nonReentrant whenNotPaused {... */\n      pop\n      jump\t// out\n        /* \"contracts/CollateralManager.sol\":424:458  uint256 public totalCollateralUsdt */\n    tag_77:\n      sload(0x04)\n      dup2\n      jump\t// out\n        /* \"contracts/CollateralManager.sol\":531:584  mapping(address => uint256) public userCollateralCelo */\n    tag_82:\n      mstore(0x20, 0x05)\n      dup1\n      0x00\n      mstore\n      keccak256(0x00, 0x40)\n      0x00\n      swap2\n      pop\n      swap1\n      pop\n      sload\n      dup2\n      jump\t// out\n        /* \"contracts/CollateralManager.sol\":356:378  ERC20 public usdtToken */\n    tag_86:\n      0x02\n      0x00\n      swap1\n      sload\n      swap1\n      0x0100\n      exp\n      swap1\n      div\n      0xffffffffffffffffffffffffffffffffffffffff\n      and\n      dup2\n      jump\t// out\n        /* \"contracts/CollateralManager.sol\":590:643  mapping(address => uint256) public userCollateralUsdt */\n    tag_92:\n      mstore(0x20, 0x06)\n      dup1\n      0x00\n      mstore\n      keccak256(0x00, 0x40)\n      0x00\n      swap2\n      pop\n      swap1\n      pop\n      sload\n      dup2\n      jump\t// out\n        /* \"contracts/CollateralManager.sol\":1049:1489  function depositCeloCollateral() external payable nonReentrant whenNotPaused {... */\n    tag_95:\n        /* \"@openzeppelin/contracts/utils/ReentrancyGuard.sol\":2356:2377  _nonReentrantBefore() */\n      tag_196\n        /* \"@openzeppelin/contracts/utils/ReentrancyGuard.sol\":2356:2375  _nonReentrantBefore */\n      tag_102\n        /* \"@openzeppelin/contracts/utils/ReentrancyGuard.sol\":2356:2377  _nonReentrantBefore() */\n      jump\t// in\n    tag_196:\n        /* \"@openzeppelin/contracts/utils/Pausable.sol\":1474:1493  _requireNotPaused() */\n      tag_198\n        /* \"@openzeppelin/contracts/utils/Pausable.sol\":1474:1491  _requireNotPaused */\n      tag_123\n        /* \"@openzeppelin/contracts/utils/Pausable.sol\":1474:1493  _requireNotPaused() */\n      jump\t// in\n    tag_198:\n        /* \"contracts/CollateralManager.sol\":1156:1157  0 */\n      0x00\n        /* \"contracts/CollateralManager.sol\":1144:1153  msg.value */\n      callvalue\n        /* \"contracts/CollateralManager.sol\":1144:1157  msg.value > 0 */\n      gt\n        /* \"contracts/CollateralManager.sol\":1136:1195  require(msg.value > 0, \"CollateralManager: Invalid amount\") */\n      tag_200\n      jumpi\n      mload(0x40)\n      0x08c379a000000000000000000000000000000000000000000000000000000000\n      dup2\n      mstore\n      0x04\n      add\n      tag_201\n      swap1\n      tag_127\n      jump\t// in\n    tag_201:\n      mload(0x40)\n      dup1\n      swap2\n      sub\n      swap1\n      revert\n    tag_200:\n        /* \"contracts/CollateralManager.sol\":1276:1285  msg.value */\n      callvalue\n        /* \"contracts/CollateralManager.sol\":1242:1260  userCollateralCelo */\n      0x05\n        /* \"contracts/CollateralManager.sol\":1242:1272  userCollateralCelo[msg.sender] */\n      0x00\n        /* \"contracts/CollateralManager.sol\":1261:1271  msg.sender */\n      caller\n        /* \"contracts/CollateralManager.sol\":1242:1272  userCollateralCelo[msg.sender] */\n      0xffffffffffffffffffffffffffffffffffffffff\n      and\n      0xffffffffffffffffffffffffffffffffffffffff\n      and\n      dup2\n      mstore\n      0x20\n      add\n      swap1\n      dup2\n      mstore\n      0x20\n      add\n      0x00\n      keccak256\n      0x00\n        /* \"contracts/CollateralManager.sol\":1242:1285  userCollateralCelo[msg.sender] += msg.value */\n      dup3\n      dup3\n      sload\n      tag_202\n      swap2\n      swap1\n      tag_137\n      jump\t// in\n    tag_202:\n      swap3\n      pop\n      pop\n      dup2\n      swap1\n      sstore\n      pop\n        /* \"contracts/CollateralManager.sol\":1357:1366  msg.value */\n      callvalue\n        /* \"contracts/CollateralManager.sol\":1334:1353  totalCollateralCelo */\n      0x03\n      0x00\n        /* \"contracts/CollateralManager.sol\":1334:1366  totalCollateralCelo += msg.value */\n      dup3\n      dup3\n      sload\n      tag_203\n      swap2\n      swap1\n      tag_137\n      jump\t// in\n    tag_203:\n      swap3\n      pop\n      pop\n      dup2\n      swap1\n      sstore\n      pop\n        /* \"contracts/CollateralManager.sol\":1443:1453  msg.sender */\n      caller\n        /* \"contracts/CollateralManager.sol\":1419:1465  CeloCollateralDeposited(msg.sender, msg.value) */\n      0xffffffffffffffffffffffffffffffffffffffff\n      and\n      0xf5bfa8a3f6a61792f266e3e92249facce14edf2b5fceeba5cb6cd0882593a9da\n        /* \"contracts/CollateralManager.sol\":1455:1464  msg.value */\n      callvalue\n        /* \"contracts/CollateralManager.sol\":1419:1465  CeloCollateralDeposited(msg.sender, msg.value) */\n      mload(0x40)\n      tag_204\n      swap2\n      swap1\n      tag_59\n      jump\t// in\n    tag_204:\n      mload(0x40)\n      dup1\n      swap2\n      sub\n      swap1\n      log2\n        /* \"@openzeppelin/contracts/utils/ReentrancyGuard.sol\":2398:2418  _nonReentrantAfter() */\n      tag_205\n        /* \"@openzeppelin/contracts/utils/ReentrancyGuard.sol\":2398:2416  _nonReentrantAfter */\n      tag_113\n        /* \"@openzeppelin/contracts/utils/ReentrancyGuard.sol\":2398:2418  _nonReentrantAfter() */\n      jump\t// in\n    tag_205:\n        /* \"contracts/CollateralManager.sol\":1049:1489  function depositCeloCollateral() external payable nonReentrant whenNotPaused {... */\n      jump\t// out\n        /* \"@openzeppelin/contracts/access/Ownable.sol\":2543:2758  function transferOwnership(address newOwner) public virtual onlyOwner {... */\n    tag_99:\n        /* \"@openzeppelin/contracts/access/Ownable.sol\":1531:1544  _checkOwner() */\n      tag_207\n        /* \"@openzeppelin/contracts/access/Ownable.sol\":1531:1542  _checkOwner */\n      tag_143\n        /* \"@openzeppelin/contracts/access/Ownable.sol\":1531:1544  _checkOwner() */\n      jump\t// in\n    tag_207:\n        /* \"@openzeppelin/contracts/access/Ownable.sol\":2647:2648  0 */\n      0x00\n        /* \"@openzeppelin/contracts/access/Ownable.sol\":2627:2649  newOwner == address(0) */\n      0xffffffffffffffffffffffffffffffffffffffff\n      and\n        /* \"@openzeppelin/contracts/access/Ownable.sol\":2627:2635  newOwner */\n      dup2\n        /* \"@openzeppelin/contracts/access/Ownable.sol\":2627:2649  newOwner == address(0) */\n      0xffffffffffffffffffffffffffffffffffffffff\n      and\n      sub\n        /* \"@openzeppelin/contracts/access/Ownable.sol\":2623:2714  if (newOwner == address(0)) {... */\n      tag_209\n      jumpi\n        /* \"@openzeppelin/contracts/access/Ownable.sol\":2700:2701  0 */\n      0x00\n        /* \"@openzeppelin/contracts/access/Ownable.sol\":2672:2703  OwnableInvalidOwner(address(0)) */\n      mload(0x40)\n      0x1e4fbdf700000000000000000000000000000000000000000000000000000000\n      dup2\n      mstore\n      0x04\n      add\n      tag_210\n      swap2\n      swap1\n      tag_70\n      jump\t// in\n    tag_210:\n      mload(0x40)\n      dup1\n      swap2\n      sub\n      swap1\n      revert\n        /* \"@openzeppelin/contracts/access/Ownable.sol\":2623:2714  if (newOwner == address(0)) {... */\n    tag_209:\n        /* \"@openzeppelin/contracts/access/Ownable.sol\":2723:2751  _transferOwnership(newOwner) */\n      tag_211\n        /* \"@openzeppelin/contracts/access/Ownable.sol\":2742:2750  newOwner */\n      dup2\n        /* \"@openzeppelin/contracts/access/Ownable.sol\":2723:2741  _transferOwnership */\n      tag_173\n        /* \"@openzeppelin/contracts/access/Ownable.sol\":2723:2751  _transferOwnership(newOwner) */\n      jump\t// in\n    tag_211:\n        /* \"@openzeppelin/contracts/access/Ownable.sol\":2543:2758  function transferOwnership(address newOwner) public virtual onlyOwner {... */\n      pop\n      jump\t// out\n        /* \"@openzeppelin/contracts/utils/ReentrancyGuard.sol\":2431:2738  function _nonReentrantBefore() private {... */\n    tag_102:\n        /* \"@openzeppelin/contracts/utils/ReentrancyGuard.sol\":1755:1756  2 */\n      0x02\n        /* \"@openzeppelin/contracts/utils/ReentrancyGuard.sol\":2558:2565  _status */\n      sload(0x00)\n        /* \"@openzeppelin/contracts/utils/ReentrancyGuard.sol\":2558:2576  _status == ENTERED */\n      sub\n        /* \"@openzeppelin/contracts/utils/ReentrancyGuard.sol\":2554:2640  if (_status == ENTERED) {... */\n      tag_213\n      jumpi\n        /* \"@openzeppelin/contracts/utils/ReentrancyGuard.sol\":2599:2629  ReentrancyGuardReentrantCall() */\n      mload(0x40)\n      0x3ee5aeb500000000000000000000000000000000000000000000000000000000\n      dup2\n      mstore\n      0x04\n      add\n      mload(0x40)\n      dup1\n      swap2\n      sub\n      swap1\n      revert\n        /* \"@openzeppelin/contracts/utils/ReentrancyGuard.sol\":2554:2640  if (_status == ENTERED) {... */\n    tag_213:\n        /* \"@openzeppelin/contracts/utils/ReentrancyGuard.sol\":1755:1756  2 */\n      0x02\n        /* \"@openzeppelin/contracts/utils/ReentrancyGuard.sol\":2714:2721  _status */\n      0x00\n        /* \"@openzeppelin/contracts/utils/ReentrancyGuard.sol\":2714:2731  _status = ENTERED */\n      dup2\n      swap1\n      sstore\n      pop\n        /* \"@openzeppelin/contracts/utils/ReentrancyGuard.sol\":2431:2738  function _nonReentrantBefore() private {... */\n      jump\t// out\n        /* \"@openzeppelin/contracts/utils/ReentrancyGuard.sol\":2744:2952  function _nonReentrantAfter() private {... */\n    tag_113:\n        /* \"@openzeppelin/contracts/utils/ReentrancyGuard.sol\":1713:1714  1 */\n      0x01\n        /* \"@openzeppelin/contracts/utils/ReentrancyGuard.sol\":2924:2931  _status */\n      0x00\n        /* \"@openzeppelin/contracts/utils/ReentrancyGuard.sol\":2924:2945  _status = NOT_ENTERED */\n      dup2\n      swap1\n      sstore\n      pop\n        /* \"@openzeppelin/contracts/utils/ReentrancyGuard.sol\":2744:2952  function _nonReentrantAfter() private {... */\n      jump\t// out\n        /* \"@openzeppelin/contracts/utils/Pausable.sol\":2002:2130  function _requireNotPaused() internal view virtual {... */\n    tag_123:\n        /* \"@openzeppelin/contracts/utils/Pausable.sol\":2067:2075  paused() */\n      tag_216\n        /* \"@openzeppelin/contracts/utils/Pausable.sol\":2067:2073  paused */\n      tag_52\n        /* \"@openzeppelin/contracts/utils/Pausable.sol\":2067:2075  paused() */\n      jump\t// in\n    tag_216:\n        /* \"@openzeppelin/contracts/utils/Pausable.sol\":2063:2124  if (paused()) {... */\n      iszero\n      tag_217\n      jumpi\n        /* \"@openzeppelin/contracts/utils/Pausable.sol\":2098:2113  EnforcedPause() */\n      mload(0x40)\n      0xd93c066500000000000000000000000000000000000000000000000000000000\n      dup2\n      mstore\n      0x04\n      add\n      mload(0x40)\n      dup1\n      swap2\n      sub\n      swap1\n      revert\n        /* \"@openzeppelin/contracts/utils/Pausable.sol\":2063:2124  if (paused()) {... */\n    tag_217:\n        /* \"@openzeppelin/contracts/utils/Pausable.sol\":2002:2130  function _requireNotPaused() internal view virtual {... */\n      jump\t// out\n        /* \"@openzeppelin/contracts/access/Ownable.sol\":1796:1958  function _checkOwner() internal view virtual {... */\n    tag_143:\n        /* \"@openzeppelin/contracts/access/Ownable.sol\":1866:1878  _msgSender() */\n      tag_219\n        /* \"@openzeppelin/contracts/access/Ownable.sol\":1866:1876  _msgSender */\n      tag_220\n        /* \"@openzeppelin/contracts/access/Ownable.sol\":1866:1878  _msgSender() */\n      jump\t// in\n    tag_219:\n        /* \"@openzeppelin/contracts/access/Ownable.sol\":1855:1878  owner() != _msgSender() */\n      0xffffffffffffffffffffffffffffffffffffffff\n      and\n        /* \"@openzeppelin/contracts/access/Ownable.sol\":1855:1862  owner() */\n      tag_221\n        /* \"@openzeppelin/contracts/access/Ownable.sol\":1855:1860  owner */\n      tag_68\n        /* \"@openzeppelin/contracts/access/Ownable.sol\":1855:1862  owner() */\n      jump\t// in\n    tag_221:\n        /* \"@openzeppelin/contracts/access/Ownable.sol\":1855:1878  owner() != _msgSender() */\n      0xffffffffffffffffffffffffffffffffffffffff\n      and\n      eq\n        /* \"@openzeppelin/contracts/access/Ownable.sol\":1851:1952  if (owner() != _msgSender()) {... */\n      tag_222\n      jumpi\n        /* \"@openzeppelin/contracts/access/Ownable.sol\":1928:1940  _msgSender() */\n      tag_223\n        /* \"@openzeppelin/contracts/access/Ownable.sol\":1928:1938  _msgSender */\n      tag_220\n        /* \"@openzeppelin/contracts/access/Ownable.sol\":1928:1940  _msgSender() */\n      jump\t// in\n    tag_223:\n        /* \"@openzeppelin/contracts/access/Ownable.sol\":1901:1941  OwnableUnauthorizedAccount(_msgSender()) */\n      mload(0x40)\n      0x118cdaa700000000000000000000000000000000000000000000000000000000\n      dup2\n      mstore\n      0x04\n      add\n      tag_224\n      swap2\n      swap1\n      tag_70\n      jump\t// in\n    tag_224:\n      mload(0x40)\n      dup1\n      swap2\n      sub\n      swap1\n      revert\n        /* \"@openzeppelin/contracts/access/Ownable.sol\":1851:1952  if (owner() != _msgSender()) {... */\n    tag_222:\n        /* \"@openzeppelin/contracts/access/Ownable.sol\":1796:1958  function _checkOwner() internal view virtual {... */\n      jump\t// out\n        /* \"@openzeppelin/contracts/utils/Pausable.sol\":2710:2827  function _unpause() internal virtual whenPaused {... */\n    tag_146:\n        /* \"@openzeppelin/contracts/utils/Pausable.sol\":1721:1737  _requirePaused() */\n      tag_226\n        /* \"@openzeppelin/contracts/utils/Pausable.sol\":1721:1735  _requirePaused */\n      tag_227\n        /* \"@openzeppelin/contracts/utils/Pausable.sol\":1721:1737  _requirePaused() */\n      jump\t// in\n    tag_226:\n        /* \"@openzeppelin/contracts/utils/Pausable.sol\":2778:2783  false */\n      0x00\n        /* \"@openzeppelin/contracts/utils/Pausable.sol\":2768:2775  _paused */\n      0x01\n      0x00\n        /* \"@openzeppelin/contracts/utils/Pausable.sol\":2768:2783  _paused = false */\n      0x0100\n      exp\n      dup2\n      sload\n      dup2\n      0xff\n      mul\n      not\n      and\n      swap1\n      dup4\n      iszero\n      iszero\n      mul\n      or\n      swap1\n      sstore\n      pop\n        /* \"@openzeppelin/contracts/utils/Pausable.sol\":2798:2820  Unpaused(_msgSender()) */\n      0x5db9ee0a495bf2e6ff9c91a7834c1ba4fdd244a5e8aa4e537bd38aeae4b073aa\n        /* \"@openzeppelin/contracts/utils/Pausable.sol\":2807:2819  _msgSender() */\n      tag_229\n        /* \"@openzeppelin/contracts/utils/Pausable.sol\":2807:2817  _msgSender */\n      tag_220\n        /* \"@openzeppelin/contracts/utils/Pausable.sol\":2807:2819  _msgSender() */\n      jump\t// in\n    tag_229:\n        /* \"@openzeppelin/contracts/utils/Pausable.sol\":2798:2820  Unpaused(_msgSender()) */\n      mload(0x40)\n      tag_230\n      swap2\n      swap1\n      tag_70\n      jump\t// in\n    tag_230:\n      mload(0x40)\n      dup1\n      swap2\n      sub\n      swap1\n      log1\n        /* \"@openzeppelin/contracts/utils/Pausable.sol\":2710:2827  function _unpause() internal virtual whenPaused {... */\n      jump\t// out\n        /* \"@openzeppelin/contracts/access/Ownable.sol\":2912:3099  function _transferOwnership(address newOwner) internal virtual {... */\n    tag_173:\n        /* \"@openzeppelin/contracts/access/Ownable.sol\":2985:3001  address oldOwner */\n      0x00\n        /* \"@openzeppelin/contracts/access/Ownable.sol\":3004:3010  _owner */\n      0x01\n      dup1\n      sload\n      swap1\n      0x0100\n      exp\n      swap1\n      div\n      0xffffffffffffffffffffffffffffffffffffffff\n      and\n        /* \"@openzeppelin/contracts/access/Ownable.sol\":2985:3010  address oldOwner = _owner */\n      swap1\n      pop\n        /* \"@openzeppelin/contracts/access/Ownable.sol\":3029:3037  newOwner */\n      dup2\n        /* \"@openzeppelin/contracts/access/Ownable.sol\":3020:3026  _owner */\n      0x01\n      dup1\n        /* \"@openzeppelin/contracts/access/Ownable.sol\":3020:3037  _owner = newOwner */\n      0x0100\n      exp\n      dup2\n      sload\n      dup2\n      0xffffffffffffffffffffffffffffffffffffffff\n      mul\n      not\n      and\n      swap1\n      dup4\n      0xffffffffffffffffffffffffffffffffffffffff\n      and\n      mul\n      or\n      swap1\n      sstore\n      pop\n        /* \"@openzeppelin/contracts/access/Ownable.sol\":3083:3091  newOwner */\n      dup2\n        /* \"@openzeppelin/contracts/access/Ownable.sol\":3052:3092  OwnershipTransferred(oldOwner, newOwner) */\n      0xffffffffffffffffffffffffffffffffffffffff\n      and\n        /* \"@openzeppelin/contracts/access/Ownable.sol\":3073:3081  oldOwner */\n      dup2\n        /* \"@openzeppelin/contracts/access/Ownable.sol\":3052:3092  OwnershipTransferred(oldOwner, newOwner) */\n      0xffffffffffffffffffffffffffffffffffffffff\n      and\n      0x8be0079c531659141344cd1fd0a4f28419497f9722a3daafe3b4186f6b6457e0\n      mload(0x40)\n      mload(0x40)\n      dup1\n      swap2\n      sub\n      swap1\n      log3\n        /* \"@openzeppelin/contracts/access/Ownable.sol\":2975:3099  {... */\n      pop\n        /* \"@openzeppelin/contracts/access/Ownable.sol\":2912:3099  function _transferOwnership(address newOwner) internal virtual {... */\n      pop\n      jump\t// out\n        /* \"@openzeppelin/contracts/utils/Pausable.sol\":2463:2578  function _pause() internal virtual whenNotPaused {... */\n    tag_178:\n        /* \"@openzeppelin/contracts/utils/Pausable.sol\":1474:1493  _requireNotPaused() */\n      tag_233\n        /* \"@openzeppelin/contracts/utils/Pausable.sol\":1474:1491  _requireNotPaused */\n      tag_123\n        /* \"@openzeppelin/contracts/utils/Pausable.sol\":1474:1493  _requireNotPaused() */\n      jump\t// in\n    tag_233:\n        /* \"@openzeppelin/contracts/utils/Pausable.sol\":2532:2536  true */\n      0x01\n        /* \"@openzeppelin/contracts/utils/Pausable.sol\":2522:2529  _paused */\n      dup1\n      0x00\n        /* \"@openzeppelin/contracts/utils/Pausable.sol\":2522:2536  _paused = true */\n      0x0100\n      exp\n      dup2\n      sload\n      dup2\n      0xff\n      mul\n      not\n      and\n      swap1\n      dup4\n      iszero\n      iszero\n      mul\n      or\n      swap1\n      sstore\n      pop\n        /* \"@openzeppelin/contracts/utils/Pausable.sol\":2551:2571  Paused(_msgSender()) */\n      0x62e78cea01bee320cd4e420270b5ea74000d11b0c9f74754ebdbfc544b05a258\n        /* \"@openzeppelin/contracts/utils/Pausable.sol\":2558:2570  _msgSender() */\n      tag_235\n        /* \"@openzeppelin/contracts/utils/Pausable.sol\":2558:2568  _msgSender */\n      tag_220\n        /* \"@openzeppelin/contracts/utils/Pausable.sol\":2558:2570  _msgSender() */\n      jump\t// in\n    tag_235:\n        /* \"@openzeppelin/contracts/utils/Pausable.sol\":2551:2571  Paused(_msgSender()) */\n      mload(0x40)\n      tag_236\n      swap2\n      swap1\n      tag_70\n      jump\t// in\n    tag_236:\n      mload(0x40)\n      dup1\n      swap2\n      sub\n      swap1\n      log1\n        /* \"@openzeppelin/contracts/utils/Pausable.sol\":2463:2578  function _pause() internal virtual whenNotPaused {... */\n      jump\t// out\n        /* \"@openzeppelin/contracts/utils/Context.sol\":656:752  function _msgSender() internal view virtual returns (address) {... */\n    tag_220:\n        /* \"@openzeppelin/contracts/utils/Context.sol\":709:716  address */\n      0x00\n        /* \"@openzeppelin/contracts/utils/Context.sol\":735:745  msg.sender */\n      caller\n        /* \"@openzeppelin/contracts/utils/Context.sol\":728:745  return msg.sender */\n      swap1\n      pop\n        /* \"@openzeppelin/contracts/utils/Context.sol\":656:752  function _msgSender() internal view virtual returns (address) {... */\n      swap1\n      jump\t// out\n        /* \"@openzeppelin/contracts/utils/Pausable.sol\":2202:2328  function _requirePaused() internal view virtual {... */\n    tag_227:\n        /* \"@openzeppelin/contracts/utils/Pausable.sol\":2265:2273  paused() */\n      tag_239\n        /* \"@openzeppelin/contracts/utils/Pausable.sol\":2265:2271  paused */\n      tag_52\n        /* \"@openzeppelin/contracts/utils/Pausable.sol\":2265:2273  paused() */\n      jump\t// in\n    tag_239:\n        /* \"@openzeppelin/contracts/utils/Pausable.sol\":2260:2322  if (!paused()) {... */\n      tag_240\n      jumpi\n        /* \"@openzeppelin/contracts/utils/Pausable.sol\":2296:2311  ExpectedPause() */\n      mload(0x40)\n      0x8dfc202b00000000000000000000000000000000000000000000000000000000\n      dup2\n      mstore\n      0x04\n      add\n      mload(0x40)\n      dup1\n      swap2\n      sub\n      swap1\n      revert\n        /* \"@openzeppelin/contracts/utils/Pausable.sol\":2260:2322  if (!paused()) {... */\n    tag_240:\n        /* \"@openzeppelin/contracts/utils/Pausable.sol\":2202:2328  function _requirePaused() internal view virtual {... */\n      jump\t// out\n        /* \"#utility.yul\":88:205   */\n    tag_242:\n        /* \"#utility.yul\":197:198   */\n      0x00\n        /* \"#utility.yul\":194:195   */\n      dup1\n        /* \"#utility.yul\":187:199   */\n      revert\n        /* \"#utility.yul\":334:460   */\n    tag_244:\n        /* \"#utility.yul\":371:378   */\n      0x00\n        /* \"#utility.yul\":411:453   */\n      0xffffffffffffffffffffffffffffffffffffffff\n        /* \"#utility.yul\":404:409   */\n      dup3\n        /* \"#utility.yul\":400:454   */\n      and\n        /* \"#utility.yul\":389:454   */\n      swap1\n      pop\n        /* \"#utility.yul\":334:460   */\n      swap2\n      swap1\n      pop\n      jump\t// out\n        /* \"#utility.yul\":466:562   */\n    tag_245:\n        /* \"#utility.yul\":503:510   */\n      0x00\n        /* \"#utility.yul\":532:556   */\n      tag_276\n        /* \"#utility.yul\":550:555   */\n      dup3\n        /* \"#utility.yul\":532:556   */\n      tag_244\n      jump\t// in\n    tag_276:\n        /* \"#utility.yul\":521:556   */\n      swap1\n      pop\n        /* \"#utility.yul\":466:562   */\n      swap2\n      swap1\n      pop\n      jump\t// out\n        /* \"#utility.yul\":568:690   */\n    tag_246:\n        /* \"#utility.yul\":641:665   */\n      tag_278\n        /* \"#utility.yul\":659:664   */\n      dup2\n        /* \"#utility.yul\":641:665   */\n      tag_245\n      jump\t// in\n    tag_278:\n        /* \"#utility.yul\":634:639   */\n      dup2\n        /* \"#utility.yul\":631:666   */\n      eq\n        /* \"#utility.yul\":621:684   */\n      tag_279\n      jumpi\n        /* \"#utility.yul\":680:681   */\n      0x00\n        /* \"#utility.yul\":677:678   */\n      dup1\n        /* \"#utility.yul\":670:682   */\n      revert\n        /* \"#utility.yul\":621:684   */\n    tag_279:\n        /* \"#utility.yul\":568:690   */\n      pop\n      jump\t// out\n        /* \"#utility.yul\":696:835   */\n    tag_247:\n        /* \"#utility.yul\":742:747   */\n      0x00\n        /* \"#utility.yul\":780:786   */\n      dup2\n        /* \"#utility.yul\":767:787   */\n      calldataload\n        /* \"#utility.yul\":758:787   */\n      swap1\n      pop\n        /* \"#utility.yul\":796:829   */\n      tag_281\n        /* \"#utility.yul\":823:828   */\n      dup2\n        /* \"#utility.yul\":796:829   */\n      tag_246\n      jump\t// in\n    tag_281:\n        /* \"#utility.yul\":696:835   */\n      swap3\n      swap2\n      pop\n      pop\n      jump\t// out\n        /* \"#utility.yul\":841:1170   */\n    tag_26:\n        /* \"#utility.yul\":900:906   */\n      0x00\n        /* \"#utility.yul\":949:951   */\n      0x20\n        /* \"#utility.yul\":937:946   */\n      dup3\n        /* \"#utility.yul\":928:935   */\n      dup5\n        /* \"#utility.yul\":924:947   */\n      sub\n        /* \"#utility.yul\":920:952   */\n      slt\n        /* \"#utility.yul\":917:1036   */\n      iszero\n      tag_283\n      jumpi\n        /* \"#utility.yul\":955:1034   */\n      tag_284\n      tag_242\n      jump\t// in\n    tag_284:\n        /* \"#utility.yul\":917:1036   */\n    tag_283:\n        /* \"#utility.yul\":1075:1076   */\n      0x00\n        /* \"#utility.yul\":1100:1153   */\n      tag_285\n        /* \"#utility.yul\":1145:1152   */\n      dup5\n        /* \"#utility.yul\":1136:1142   */\n      dup3\n        /* \"#utility.yul\":1125:1134   */\n      dup6\n        /* \"#utility.yul\":1121:1143   */\n      add\n        /* \"#utility.yul\":1100:1153   */\n      tag_247\n      jump\t// in\n    tag_285:\n        /* \"#utility.yul\":1090:1153   */\n      swap2\n      pop\n        /* \"#utility.yul\":1046:1163   */\n      pop\n        /* \"#utility.yul\":841:1170   */\n      swap3\n      swap2\n      pop\n      pop\n      jump\t// out\n        /* \"#utility.yul\":1176:1253   */\n    tag_248:\n        /* \"#utility.yul\":1213:1220   */\n      0x00\n        /* \"#utility.yul\":1242:1247   */\n      dup2\n        /* \"#utility.yul\":1231:1247   */\n      swap1\n      pop\n        /* \"#utility.yul\":1176:1253   */\n      swap2\n      swap1\n      pop\n      jump\t// out\n        /* \"#utility.yul\":1259:1377   */\n    tag_249:\n        /* \"#utility.yul\":1346:1370   */\n      tag_288\n        /* \"#utility.yul\":1364:1369   */\n      dup2\n        /* \"#utility.yul\":1346:1370   */\n      tag_248\n      jump\t// in\n    tag_288:\n        /* \"#utility.yul\":1341:1344   */\n      dup3\n        /* \"#utility.yul\":1334:1371   */\n      mstore\n        /* \"#utility.yul\":1259:1377   */\n      pop\n      pop\n      jump\t// out\n        /* \"#utility.yul\":1383:1715   */\n    tag_37:\n        /* \"#utility.yul\":1504:1508   */\n      0x00\n        /* \"#utility.yul\":1542:1544   */\n      0x40\n        /* \"#utility.yul\":1531:1540   */\n      dup3\n        /* \"#utility.yul\":1527:1545   */\n      add\n        /* \"#utility.yul\":1519:1545   */\n      swap1\n      pop\n        /* \"#utility.yul\":1555:1626   */\n      tag_290\n        /* \"#utility.yul\":1623:1624   */\n      0x00\n        /* \"#utility.yul\":1612:1621   */\n      dup4\n        /* \"#utility.yul\":1608:1625   */\n      add\n        /* \"#utility.yul\":1599:1605   */\n      dup6\n        /* \"#utility.yul\":1555:1626   */\n      tag_249\n      jump\t// in\n    tag_290:\n        /* \"#utility.yul\":1636:1708   */\n      tag_291\n        /* \"#utility.yul\":1704:1706   */\n      0x20\n        /* \"#utility.yul\":1693:1702   */\n      dup4\n        /* \"#utility.yul\":1689:1707   */\n      add\n        /* \"#utility.yul\":1680:1686   */\n      dup5\n        /* \"#utility.yul\":1636:1708   */\n      tag_249\n      jump\t// in\n    tag_291:\n        /* \"#utility.yul\":1383:1715   */\n      swap4\n      swap3\n      pop\n      pop\n      pop\n      jump\t// out\n        /* \"#utility.yul\":1721:1843   */\n    tag_250:\n        /* \"#utility.yul\":1794:1818   */\n      tag_293\n        /* \"#utility.yul\":1812:1817   */\n      dup2\n        /* \"#utility.yul\":1794:1818   */\n      tag_248\n      jump\t// in\n    tag_293:\n        /* \"#utility.yul\":1787:1792   */\n      dup2\n        /* \"#utility.yul\":1784:1819   */\n      eq\n        /* \"#utility.yul\":1774:1837   */\n      tag_294\n      jumpi\n        /* \"#utility.yul\":1833:1834   */\n      0x00\n        /* \"#utility.yul\":1830:1831   */\n      dup1\n        /* \"#utility.yul\":1823:1835   */\n      revert\n        /* \"#utility.yul\":1774:1837   */\n    tag_294:\n        /* \"#utility.yul\":1721:1843   */\n      pop\n      jump\t// out\n        /* \"#utility.yul\":1849:1988   */\n    tag_251:\n        /* \"#utility.yul\":1895:1900   */\n      0x00\n        /* \"#utility.yul\":1933:1939   */\n      dup2\n        /* \"#utility.yul\":1920:1940   */\n      calldataload\n        /* \"#utility.yul\":1911:1940   */\n      swap1\n      pop\n        /* \"#utility.yul\":1949:1982   */\n      tag_296\n        /* \"#utility.yul\":1976:1981   */\n      dup2\n        /* \"#utility.yul\":1949:1982   */\n      tag_250\n      jump\t// in\n    tag_296:\n        /* \"#utility.yul\":1849:1988   */\n      swap3\n      swap2\n      pop\n      pop\n      jump\t// out\n        /* \"#utility.yul\":1994:2323   */\n    tag_41:\n        /* \"#utility.yul\":2053:2059   */\n      0x00\n        /* \"#utility.yul\":2102:2104   */\n      0x20\n        /* \"#utility.yul\":2090:2099   */\n      dup3\n        /* \"#utility.yul\":2081:2088   */\n      dup5\n        /* \"#utility.yul\":2077:2100   */\n      sub\n        /* \"#utility.yul\":2073:2105   */\n      slt\n        /* \"#utility.yul\":2070:2189   */\n      iszero\n      tag_298\n      jumpi\n        /* \"#utility.yul\":2108:2187   */\n      tag_299\n      tag_242\n      jump\t// in\n    tag_299:\n        /* \"#utility.yul\":2070:2189   */\n    tag_298:\n        /* \"#utility.yul\":2228:2229   */\n      0x00\n        /* \"#utility.yul\":2253:2306   */\n      tag_300\n        /* \"#utility.yul\":2298:2305   */\n      dup5\n        /* \"#utility.yul\":2289:2295   */\n      dup3\n        /* \"#utility.yul\":2278:2287   */\n      dup6\n        /* \"#utility.yul\":2274:2296   */\n      add\n        /* \"#utility.yul\":2253:2306   */\n      tag_251\n      jump\t// in\n    tag_300:\n        /* \"#utility.yul\":2243:2306   */\n      swap2\n      pop\n        /* \"#utility.yul\":2199:2316   */\n      pop\n        /* \"#utility.yul\":1994:2323   */\n      swap3\n      swap2\n      pop\n      pop\n      jump\t// out\n        /* \"#utility.yul\":2329:2419   */\n    tag_252:\n        /* \"#utility.yul\":2363:2370   */\n      0x00\n        /* \"#utility.yul\":2406:2411   */\n      dup2\n        /* \"#utility.yul\":2399:2412   */\n      iszero\n        /* \"#utility.yul\":2392:2413   */\n      iszero\n        /* \"#utility.yul\":2381:2413   */\n      swap1\n      pop\n        /* \"#utility.yul\":2329:2419   */\n      swap2\n      swap1\n      pop\n      jump\t// out\n        /* \"#utility.yul\":2425:2534   */\n    tag_253:\n        /* \"#utility.yul\":2506:2527   */\n      tag_303\n        /* \"#utility.yul\":2521:2526   */\n      dup2\n        /* \"#utility.yul\":2506:2527   */\n      tag_252\n      jump\t// in\n    tag_303:\n        /* \"#utility.yul\":2501:2504   */\n      dup3\n        /* \"#utility.yul\":2494:2528   */\n      mstore\n        /* \"#utility.yul\":2425:2534   */\n      pop\n      pop\n      jump\t// out\n        /* \"#utility.yul\":2540:2750   */\n    tag_54:\n        /* \"#utility.yul\":2627:2631   */\n      0x00\n        /* \"#utility.yul\":2665:2667   */\n      0x20\n        /* \"#utility.yul\":2654:2663   */\n      dup3\n        /* \"#utility.yul\":2650:2668   */\n      add\n        /* \"#utility.yul\":2642:2668   */\n      swap1\n      pop\n        /* \"#utility.yul\":2678:2743   */\n      tag_305\n        /* \"#utility.yul\":2740:2741   */\n      0x00\n        /* \"#utility.yul\":2729:2738   */\n      dup4\n        /* \"#utility.yul\":2725:2742   */\n      add\n        /* \"#utility.yul\":2716:2722   */\n      dup5\n        /* \"#utility.yul\":2678:2743   */\n      tag_253\n      jump\t// in\n    tag_305:\n        /* \"#utility.yul\":2540:2750   */\n      swap3\n      swap2\n      pop\n      pop\n      jump\t// out\n        /* \"#utility.yul\":2756:2978   */\n    tag_59:\n        /* \"#utility.yul\":2849:2853   */\n      0x00\n        /* \"#utility.yul\":2887:2889   */\n      0x20\n        /* \"#utility.yul\":2876:2885   */\n      dup3\n        /* \"#utility.yul\":2872:2890   */\n      add\n        /* \"#utility.yul\":2864:2890   */\n      swap1\n      pop\n        /* \"#utility.yul\":2900:2971   */\n      tag_307\n        /* \"#utility.yul\":2968:2969   */\n      0x00\n        /* \"#utility.yul\":2957:2966   */\n      dup4\n        /* \"#utility.yul\":2953:2970   */\n      add\n        /* \"#utility.yul\":2944:2950   */\n      dup5\n        /* \"#utility.yul\":2900:2971   */\n      tag_249\n      jump\t// in\n    tag_307:\n        /* \"#utility.yul\":2756:2978   */\n      swap3\n      swap2\n      pop\n      pop\n      jump\t// out\n        /* \"#utility.yul\":2984:3102   */\n    tag_254:\n        /* \"#utility.yul\":3071:3095   */\n      tag_309\n        /* \"#utility.yul\":3089:3094   */\n      dup2\n        /* \"#utility.yul\":3071:3095   */\n      tag_245\n      jump\t// in\n    tag_309:\n        /* \"#utility.yul\":3066:3069   */\n      dup3\n        /* \"#utility.yul\":3059:3096   */\n      mstore\n        /* \"#utility.yul\":2984:3102   */\n      pop\n      pop\n      jump\t// out\n        /* \"#utility.yul\":3108:3330   */\n    tag_70:\n        /* \"#utility.yul\":3201:3205   */\n      0x00\n        /* \"#utility.yul\":3239:3241   */\n      0x20\n        /* \"#utility.yul\":3228:3237   */\n      dup3\n        /* \"#utility.yul\":3224:3242   */\n      add\n        /* \"#utility.yul\":3216:3242   */\n      swap1\n      pop\n        /* \"#utility.yul\":3252:3323   */\n      tag_311\n        /* \"#utility.yul\":3320:3321   */\n      0x00\n        /* \"#utility.yul\":3309:3318   */\n      dup4\n        /* \"#utility.yul\":3305:3322   */\n      add\n        /* \"#utility.yul\":3296:3302   */\n      dup5\n        /* \"#utility.yul\":3252:3323   */\n      tag_254\n      jump\t// in\n    tag_311:\n        /* \"#utility.yul\":3108:3330   */\n      swap3\n      swap2\n      pop\n      pop\n      jump\t// out\n        /* \"#utility.yul\":3336:3396   */\n    tag_255:\n        /* \"#utility.yul\":3364:3367   */\n      0x00\n        /* \"#utility.yul\":3385:3390   */\n      dup2\n        /* \"#utility.yul\":3378:3390   */\n      swap1\n      pop\n        /* \"#utility.yul\":3336:3396   */\n      swap2\n      swap1\n      pop\n      jump\t// out\n        /* \"#utility.yul\":3402:3544   */\n    tag_256:\n        /* \"#utility.yul\":3452:3461   */\n      0x00\n        /* \"#utility.yul\":3485:3538   */\n      tag_314\n        /* \"#utility.yul\":3503:3537   */\n      tag_315\n        /* \"#utility.yul\":3512:3536   */\n      tag_316\n        /* \"#utility.yul\":3530:3535   */\n      dup5\n        /* \"#utility.yul\":3512:3536   */\n      tag_244\n      jump\t// in\n    tag_316:\n        /* \"#utility.yul\":3503:3537   */\n      tag_255\n      jump\t// in\n    tag_315:\n        /* \"#utility.yul\":3485:3538   */\n      tag_244\n      jump\t// in\n    tag_314:\n        /* \"#utility.yul\":3472:3538   */\n      swap1\n      pop\n        /* \"#utility.yul\":3402:3544   */\n      swap2\n      swap1\n      pop\n      jump\t// out\n        /* \"#utility.yul\":3550:3676   */\n    tag_257:\n        /* \"#utility.yul\":3600:3609   */\n      0x00\n        /* \"#utility.yul\":3633:3670   */\n      tag_318\n        /* \"#utility.yul\":3664:3669   */\n      dup3\n        /* \"#utility.yul\":3633:3670   */\n      tag_256\n      jump\t// in\n    tag_318:\n        /* \"#utility.yul\":3620:3670   */\n      swap1\n      pop\n        /* \"#utility.yul\":3550:3676   */\n      swap2\n      swap1\n      pop\n      jump\t// out\n        /* \"#utility.yul\":3682:3821   */\n    tag_258:\n        /* \"#utility.yul\":3745:3754   */\n      0x00\n        /* \"#utility.yul\":3778:3815   */\n      tag_320\n        /* \"#utility.yul\":3809:3814   */\n      dup3\n        /* \"#utility.yul\":3778:3815   */\n      tag_257\n      jump\t// in\n    tag_320:\n        /* \"#utility.yul\":3765:3815   */\n      swap1\n      pop\n        /* \"#utility.yul\":3682:3821   */\n      swap2\n      swap1\n      pop\n      jump\t// out\n        /* \"#utility.yul\":3827:3984   */\n    tag_259:\n        /* \"#utility.yul\":3927:3977   */\n      tag_322\n        /* \"#utility.yul\":3971:3976   */\n      dup2\n        /* \"#utility.yul\":3927:3977   */\n      tag_258\n      jump\t// in\n    tag_322:\n        /* \"#utility.yul\":3922:3925   */\n      dup3\n        /* \"#utility.yul\":3915:3978   */\n      mstore\n        /* \"#utility.yul\":3827:3984   */\n      pop\n      pop\n      jump\t// out\n        /* \"#utility.yul\":3990:4238   */\n    tag_88:\n        /* \"#utility.yul\":4096:4100   */\n      0x00\n        /* \"#utility.yul\":4134:4136   */\n      0x20\n        /* \"#utility.yul\":4123:4132   */\n      dup3\n        /* \"#utility.yul\":4119:4137   */\n      add\n        /* \"#utility.yul\":4111:4137   */\n      swap1\n      pop\n        /* \"#utility.yul\":4147:4231   */\n      tag_324\n        /* \"#utility.yul\":4228:4229   */\n      0x00\n        /* \"#utility.yul\":4217:4226   */\n      dup4\n        /* \"#utility.yul\":4213:4230   */\n      add\n        /* \"#utility.yul\":4204:4210   */\n      dup5\n        /* \"#utility.yul\":4147:4231   */\n      tag_259\n      jump\t// in\n    tag_324:\n        /* \"#utility.yul\":3990:4238   */\n      swap3\n      swap2\n      pop\n      pop\n      jump\t// out\n        /* \"#utility.yul\":4244:4576   */\n    tag_107:\n        /* \"#utility.yul\":4365:4369   */\n      0x00\n        /* \"#utility.yul\":4403:4405   */\n      0x40\n        /* \"#utility.yul\":4392:4401   */\n      dup3\n        /* \"#utility.yul\":4388:4406   */\n      add\n        /* \"#utility.yul\":4380:4406   */\n      swap1\n      pop\n        /* \"#utility.yul\":4416:4487   */\n      tag_326\n        /* \"#utility.yul\":4484:4485   */\n      0x00\n        /* \"#utility.yul\":4473:4482   */\n      dup4\n        /* \"#utility.yul\":4469:4486   */\n      add\n        /* \"#utility.yul\":4460:4466   */\n      dup6\n        /* \"#utility.yul\":4416:4487   */\n      tag_254\n      jump\t// in\n    tag_326:\n        /* \"#utility.yul\":4497:4569   */\n      tag_327\n        /* \"#utility.yul\":4565:4567   */\n      0x20\n        /* \"#utility.yul\":4554:4563   */\n      dup4\n        /* \"#utility.yul\":4550:4568   */\n      add\n        /* \"#utility.yul\":4541:4547   */\n      dup5\n        /* \"#utility.yul\":4497:4569   */\n      tag_249\n      jump\t// in\n    tag_327:\n        /* \"#utility.yul\":4244:4576   */\n      swap4\n      swap3\n      pop\n      pop\n      pop\n      jump\t// out\n        /* \"#utility.yul\":4582:4698   */\n    tag_260:\n        /* \"#utility.yul\":4652:4673   */\n      tag_329\n        /* \"#utility.yul\":4667:4672   */\n      dup2\n        /* \"#utility.yul\":4652:4673   */\n      tag_252\n      jump\t// in\n    tag_329:\n        /* \"#utility.yul\":4645:4650   */\n      dup2\n        /* \"#utility.yul\":4642:4674   */\n      eq\n        /* \"#utility.yul\":4632:4692   */\n      tag_330\n      jumpi\n        /* \"#utility.yul\":4688:4689   */\n      0x00\n        /* \"#utility.yul\":4685:4686   */\n      dup1\n        /* \"#utility.yul\":4678:4690   */\n      revert\n        /* \"#utility.yul\":4632:4692   */\n    tag_330:\n        /* \"#utility.yul\":4582:4698   */\n      pop\n      jump\t// out\n        /* \"#utility.yul\":4704:4841   */\n    tag_261:\n        /* \"#utility.yul\":4758:4763   */\n      0x00\n        /* \"#utility.yul\":4789:4795   */\n      dup2\n        /* \"#utility.yul\":4783:4796   */\n      mload\n        /* \"#utility.yul\":4774:4796   */\n      swap1\n      pop\n        /* \"#utility.yul\":4805:4835   */\n      tag_332\n        /* \"#utility.yul\":4829:4834   */\n      dup2\n        /* \"#utility.yul\":4805:4835   */\n      tag_260\n      jump\t// in\n    tag_332:\n        /* \"#utility.yul\":4704:4841   */\n      swap3\n      swap2\n      pop\n      pop\n      jump\t// out\n        /* \"#utility.yul\":4847:5192   */\n    tag_111:\n        /* \"#utility.yul\":4914:4920   */\n      0x00\n        /* \"#utility.yul\":4963:4965   */\n      0x20\n        /* \"#utility.yul\":4951:4960   */\n      dup3\n        /* \"#utility.yul\":4942:4949   */\n      dup5\n        /* \"#utility.yul\":4938:4961   */\n      sub\n        /* \"#utility.yul\":4934:4966   */\n      slt\n        /* \"#utility.yul\":4931:5050   */\n      iszero\n      tag_334\n      jumpi\n        /* \"#utility.yul\":4969:5048   */\n      tag_335\n      tag_242\n      jump\t// in\n    tag_335:\n        /* \"#utility.yul\":4931:5050   */\n    tag_334:\n        /* \"#utility.yul\":5089:5090   */\n      0x00\n        /* \"#utility.yul\":5114:5175   */\n      tag_336\n        /* \"#utility.yul\":5167:5174   */\n      dup5\n        /* \"#utility.yul\":5158:5164   */\n      dup3\n        /* \"#utility.yul\":5147:5156   */\n      dup6\n        /* \"#utility.yul\":5143:5165   */\n      add\n        /* \"#utility.yul\":5114:5175   */\n      tag_261\n      jump\t// in\n    tag_336:\n        /* \"#utility.yul\":5104:5175   */\n      swap2\n      pop\n        /* \"#utility.yul\":5060:5185   */\n      pop\n        /* \"#utility.yul\":4847:5192   */\n      swap3\n      swap2\n      pop\n      pop\n      jump\t// out\n        /* \"#utility.yul\":5198:5367   */\n    tag_262:\n        /* \"#utility.yul\":5282:5293   */\n      0x00\n        /* \"#utility.yul\":5316:5322   */\n      dup3\n        /* \"#utility.yul\":5311:5314   */\n      dup3\n        /* \"#utility.yul\":5304:5323   */\n      mstore\n        /* \"#utility.yul\":5356:5360   */\n      0x20\n        /* \"#utility.yul\":5351:5354   */\n      dup3\n        /* \"#utility.yul\":5347:5361   */\n      add\n        /* \"#utility.yul\":5332:5361   */\n      swap1\n      pop\n        /* \"#utility.yul\":5198:5367   */\n      swap3\n      swap2\n      pop\n      pop\n      jump\t// out\n        /* \"#utility.yul\":5373:5593   */\n    tag_263:\n        /* \"#utility.yul\":5513:5547   */\n      0x436f6c6c61746572616c4d616e616765723a20496e76616c696420616d6f756e\n        /* \"#utility.yul\":5509:5510   */\n      0x00\n        /* \"#utility.yul\":5501:5507   */\n      dup3\n        /* \"#utility.yul\":5497:5511   */\n      add\n        /* \"#utility.yul\":5490:5548   */\n      mstore\n        /* \"#utility.yul\":5582:5585   */\n      0x7400000000000000000000000000000000000000000000000000000000000000\n        /* \"#utility.yul\":5577:5579   */\n      0x20\n        /* \"#utility.yul\":5569:5575   */\n      dup3\n        /* \"#utility.yul\":5565:5580   */\n      add\n        /* \"#utility.yul\":5558:5586   */\n      mstore\n        /* \"#utility.yul\":5373:5593   */\n      pop\n      jump\t// out\n        /* \"#utility.yul\":5599:5965   */\n    tag_264:\n        /* \"#utility.yul\":5741:5744   */\n      0x00\n        /* \"#utility.yul\":5762:5829   */\n      tag_340\n        /* \"#utility.yul\":5826:5828   */\n      0x21\n        /* \"#utility.yul\":5821:5824   */\n      dup4\n        /* \"#utility.yul\":5762:5829   */\n      tag_262\n      jump\t// in\n    tag_340:\n        /* \"#utility.yul\":5755:5829   */\n      swap2\n      pop\n        /* \"#utility.yul\":5838:5931   */\n      tag_341\n        /* \"#utility.yul\":5927:5930   */\n      dup3\n        /* \"#utility.yul\":5838:5931   */\n      tag_263\n      jump\t// in\n    tag_341:\n        /* \"#utility.yul\":5956:5958   */\n      0x40\n        /* \"#utility.yul\":5951:5954   */\n      dup3\n        /* \"#utility.yul\":5947:5959   */\n      add\n        /* \"#utility.yul\":5940:5959   */\n      swap1\n      pop\n        /* \"#utility.yul\":5599:5965   */\n      swap2\n      swap1\n      pop\n      jump\t// out\n        /* \"#utility.yul\":5971:6390   */\n    tag_127:\n        /* \"#utility.yul\":6137:6141   */\n      0x00\n        /* \"#utility.yul\":6175:6177   */\n      0x20\n        /* \"#utility.yul\":6164:6173   */\n      dup3\n        /* \"#utility.yul\":6160:6178   */\n      add\n        /* \"#utility.yul\":6152:6178   */\n      swap1\n      pop\n        /* \"#utility.yul\":6224:6233   */\n      dup2\n        /* \"#utility.yul\":6218:6222   */\n      dup2\n        /* \"#utility.yul\":6214:6234   */\n      sub\n        /* \"#utility.yul\":6210:6211   */\n      0x00\n        /* \"#utility.yul\":6199:6208   */\n      dup4\n        /* \"#utility.yul\":6195:6212   */\n      add\n        /* \"#utility.yul\":6188:6235   */\n      mstore\n        /* \"#utility.yul\":6252:6383   */\n      tag_343\n        /* \"#utility.yul\":6378:6382   */\n      dup2\n        /* \"#utility.yul\":6252:6383   */\n      tag_264\n      jump\t// in\n    tag_343:\n        /* \"#utility.yul\":6244:6383   */\n      swap1\n      pop\n        /* \"#utility.yul\":5971:6390   */\n      swap2\n      swap1\n      pop\n      jump\t// out\n        /* \"#utility.yul\":6396:6838   */\n    tag_129:\n        /* \"#utility.yul\":6545:6549   */\n      0x00\n        /* \"#utility.yul\":6583:6585   */\n      0x60\n        /* \"#utility.yul\":6572:6581   */\n      dup3\n        /* \"#utility.yul\":6568:6586   */\n      add\n        /* \"#utility.yul\":6560:6586   */\n      swap1\n      pop\n        /* \"#utility.yul\":6596:6667   */\n      tag_345\n        /* \"#utility.yul\":6664:6665   */\n      0x00\n        /* \"#utility.yul\":6653:6662   */\n      dup4\n        /* \"#utility.yul\":6649:6666   */\n      add\n        /* \"#utility.yul\":6640:6646   */\n      dup7\n        /* \"#utility.yul\":6596:6667   */\n      tag_254\n      jump\t// in\n    tag_345:\n        /* \"#utility.yul\":6677:6749   */\n      tag_346\n        /* \"#utility.yul\":6745:6747   */\n      0x20\n        /* \"#utility.yul\":6734:6743   */\n      dup4\n        /* \"#utility.yul\":6730:6748   */\n      add\n        /* \"#utility.yul\":6721:6727   */\n      dup6\n        /* \"#utility.yul\":6677:6749   */\n      tag_254\n      jump\t// in\n    tag_346:\n        /* \"#utility.yul\":6759:6831   */\n      tag_347\n        /* \"#utility.yul\":6827:6829   */\n      0x40\n        /* \"#utility.yul\":6816:6825   */\n      dup4\n        /* \"#utility.yul\":6812:6830   */\n      add\n        /* \"#utility.yul\":6803:6809   */\n      dup5\n        /* \"#utility.yul\":6759:6831   */\n      tag_249\n      jump\t// in\n    tag_347:\n        /* \"#utility.yul\":6396:6838   */\n      swap5\n      swap4\n      pop\n      pop\n      pop\n      pop\n      jump\t// out\n        /* \"#utility.yul\":6844:7065   */\n    tag_265:\n        /* \"#utility.yul\":6984:7018   */\n      0x436f6c6c61746572616c4d616e616765723a205472616e73666572206661696c\n        /* \"#utility.yul\":6980:6981   */\n      0x00\n        /* \"#utility.yul\":6972:6978   */\n      dup3\n        /* \"#utility.yul\":6968:6982   */\n      add\n        /* \"#utility.yul\":6961:7019   */\n      mstore\n        /* \"#utility.yul\":7053:7057   */\n      0x6564000000000000000000000000000000000000000000000000000000000000\n        /* \"#utility.yul\":7048:7050   */\n      0x20\n        /* \"#utility.yul\":7040:7046   */\n      dup3\n        /* \"#utility.yul\":7036:7051   */\n      add\n        /* \"#utility.yul\":7029:7058   */\n      mstore\n        /* \"#utility.yul\":6844:7065   */\n      pop\n      jump\t// out\n        /* \"#utility.yul\":7071:7437   */\n    tag_266:\n        /* \"#utility.yul\":7213:7216   */\n      0x00\n        /* \"#utility.yul\":7234:7301   */\n      tag_350\n        /* \"#utility.yul\":7298:7300   */\n      0x22\n        /* \"#utility.yul\":7293:7296   */\n      dup4\n        /* \"#utility.yul\":7234:7301   */\n      tag_262\n      jump\t// in\n    tag_350:\n        /* \"#utility.yul\":7227:7301   */\n      swap2\n      pop\n        /* \"#utility.yul\":7310:7403   */\n      tag_351\n        /* \"#utility.yul\":7399:7402   */\n      dup3\n        /* \"#utility.yul\":7310:7403   */\n      tag_265\n      jump\t// in\n    tag_351:\n        /* \"#utility.yul\":7428:7430   */\n      0x40\n        /* \"#utility.yul\":7423:7426   */\n      dup3\n        /* \"#utility.yul\":7419:7431   */\n      add\n        /* \"#utility.yul\":7412:7431   */\n      swap1\n      pop\n        /* \"#utility.yul\":7071:7437   */\n      swap2\n      swap1\n      pop\n      jump\t// out\n        /* \"#utility.yul\":7443:7862   */\n    tag_135:\n        /* \"#utility.yul\":7609:7613   */\n      0x00\n        /* \"#utility.yul\":7647:7649   */\n      0x20\n        /* \"#utility.yul\":7636:7645   */\n      dup3\n        /* \"#utility.yul\":7632:7650   */\n      add\n        /* \"#utility.yul\":7624:7650   */\n      swap1\n      pop\n        /* \"#utility.yul\":7696:7705   */\n      dup2\n        /* \"#utility.yul\":7690:7694   */\n      dup2\n        /* \"#utility.yul\":7686:7706   */\n      sub\n        /* \"#utility.yul\":7682:7683   */\n      0x00\n        /* \"#utility.yul\":7671:7680   */\n      dup4\n        /* \"#utility.yul\":7667:7684   */\n      add\n        /* \"#utility.yul\":7660:7707   */\n      mstore\n        /* \"#utility.yul\":7724:7855   */\n      tag_353\n        /* \"#utility.yul\":7850:7854   */\n      dup2\n        /* \"#utility.yul\":7724:7855   */\n      tag_266\n      jump\t// in\n    tag_353:\n        /* \"#utility.yul\":7716:7855   */\n      swap1\n      pop\n        /* \"#utility.yul\":7443:7862   */\n      swap2\n      swap1\n      pop\n      jump\t// out\n        /* \"#utility.yul\":7868:8048   */\n    tag_267:\n        /* \"#utility.yul\":7916:7993   */\n      0x4e487b7100000000000000000000000000000000000000000000000000000000\n        /* \"#utility.yul\":7913:7914   */\n      0x00\n        /* \"#utility.yul\":7906:7994   */\n      mstore\n        /* \"#utility.yul\":8013:8017   */\n      0x11\n        /* \"#utility.yul\":8010:8011   */\n      0x04\n        /* \"#utility.yul\":8003:8018   */\n      mstore\n        /* \"#utility.yul\":8037:8041   */\n      0x24\n        /* \"#utility.yul\":8034:8035   */\n      0x00\n        /* \"#utility.yul\":8027:8042   */\n      revert\n        /* \"#utility.yul\":8054:8245   */\n    tag_137:\n        /* \"#utility.yul\":8094:8097   */\n      0x00\n        /* \"#utility.yul\":8113:8133   */\n      tag_356\n        /* \"#utility.yul\":8131:8132   */\n      dup3\n        /* \"#utility.yul\":8113:8133   */\n      tag_248\n      jump\t// in\n    tag_356:\n        /* \"#utility.yul\":8108:8133   */\n      swap2\n      pop\n        /* \"#utility.yul\":8147:8167   */\n      tag_357\n        /* \"#utility.yul\":8165:8166   */\n      dup4\n        /* \"#utility.yul\":8147:8167   */\n      tag_248\n      jump\t// in\n    tag_357:\n        /* \"#utility.yul\":8142:8167   */\n      swap3\n      pop\n        /* \"#utility.yul\":8190:8191   */\n      dup3\n        /* \"#utility.yul\":8187:8188   */\n      dup3\n        /* \"#utility.yul\":8183:8192   */\n      add\n        /* \"#utility.yul\":8176:8192   */\n      swap1\n      pop\n        /* \"#utility.yul\":8211:8214   */\n      dup1\n        /* \"#utility.yul\":8208:8209   */\n      dup3\n        /* \"#utility.yul\":8205:8215   */\n      gt\n        /* \"#utility.yul\":8202:8238   */\n      iszero\n      tag_358\n      jumpi\n        /* \"#utility.yul\":8218:8236   */\n      tag_359\n      tag_267\n      jump\t// in\n    tag_359:\n        /* \"#utility.yul\":8202:8238   */\n    tag_358:\n        /* \"#utility.yul\":8054:8245   */\n      swap3\n      swap2\n      pop\n      pop\n      jump\t// out\n        /* \"#utility.yul\":8251:8477   */\n    tag_268:\n        /* \"#utility.yul\":8391:8425   */\n      0x436f6c6c61746572616c4d616e616765723a20496e73756666696369656e7420\n        /* \"#utility.yul\":8387:8388   */\n      0x00\n        /* \"#utility.yul\":8379:8385   */\n      dup3\n        /* \"#utility.yul\":8375:8389   */\n      add\n        /* \"#utility.yul\":8368:8426   */\n      mstore\n        /* \"#utility.yul\":8460:8469   */\n      0x62616c616e636500000000000000000000000000000000000000000000000000\n        /* \"#utility.yul\":8455:8457   */\n      0x20\n        /* \"#utility.yul\":8447:8453   */\n      dup3\n        /* \"#utility.yul\":8443:8458   */\n      add\n        /* \"#utility.yul\":8436:8470   */\n      mstore\n        /* \"#utility.yul\":8251:8477   */\n      pop\n      jump\t// out\n        /* \"#utility.yul\":8483:8849   */\n    tag_269:\n        /* \"#utility.yul\":8625:8628   */\n      0x00\n        /* \"#utility.yul\":8646:8713   */\n      tag_362\n        /* \"#utility.yul\":8710:8712   */\n      0x27\n        /* \"#utility.yul\":8705:8708   */\n      dup4\n        /* \"#utility.yul\":8646:8713   */\n      tag_262\n      jump\t// in\n    tag_362:\n        /* \"#utility.yul\":8639:8713   */\n      swap2\n      pop\n        /* \"#utility.yul\":8722:8815   */\n      tag_363\n        /* \"#utility.yul\":8811:8814   */\n      dup3\n        /* \"#utility.yul\":8722:8815   */\n      tag_268\n      jump\t// in\n    tag_363:\n        /* \"#utility.yul\":8840:8842   */\n      0x40\n        /* \"#utility.yul\":8835:8838   */\n      dup3\n        /* \"#utility.yul\":8831:8843   */\n      add\n        /* \"#utility.yul\":8824:8843   */\n      swap1\n      pop\n        /* \"#utility.yul\":8483:8849   */\n      swap2\n      swap1\n      pop\n      jump\t// out\n        /* \"#utility.yul\":8855:9274   */\n    tag_156:\n        /* \"#utility.yul\":9021:9025   */\n      0x00\n        /* \"#utility.yul\":9059:9061   */\n      0x20\n        /* \"#utility.yul\":9048:9057   */\n      dup3\n        /* \"#utility.yul\":9044:9062   */\n      add\n        /* \"#utility.yul\":9036:9062   */\n      swap1\n      pop\n        /* \"#utility.yul\":9108:9117   */\n      dup2\n        /* \"#utility.yul\":9102:9106   */\n      dup2\n        /* \"#utility.yul\":9098:9118   */\n      sub\n        /* \"#utility.yul\":9094:9095   */\n      0x00\n        /* \"#utility.yul\":9083:9092   */\n      dup4\n        /* \"#utility.yul\":9079:9096   */\n      add\n        /* \"#utility.yul\":9072:9119   */\n      mstore\n        /* \"#utility.yul\":9136:9267   */\n      tag_365\n        /* \"#utility.yul\":9262:9266   */\n      dup2\n        /* \"#utility.yul\":9136:9267   */\n      tag_269\n      jump\t// in\n    tag_365:\n        /* \"#utility.yul\":9128:9267   */\n      swap1\n      pop\n        /* \"#utility.yul\":8855:9274   */\n      swap2\n      swap1\n      pop\n      jump\t// out\n        /* \"#utility.yul\":9280:9474   */\n    tag_158:\n        /* \"#utility.yul\":9320:9324   */\n      0x00\n        /* \"#utility.yul\":9340:9360   */\n      tag_367\n        /* \"#utility.yul\":9358:9359   */\n      dup3\n        /* \"#utility.yul\":9340:9360   */\n      tag_248\n      jump\t// in\n    tag_367:\n        /* \"#utility.yul\":9335:9360   */\n      swap2\n      pop\n        /* \"#utility.yul\":9374:9394   */\n      tag_368\n        /* \"#utility.yul\":9392:9393   */\n      dup4\n        /* \"#utility.yul\":9374:9394   */\n      tag_248\n      jump\t// in\n    tag_368:\n        /* \"#utility.yul\":9369:9394   */\n      swap3\n      pop\n        /* \"#utility.yul\":9418:9419   */\n      dup3\n        /* \"#utility.yul\":9415:9416   */\n      dup3\n        /* \"#utility.yul\":9411:9420   */\n      sub\n        /* \"#utility.yul\":9403:9420   */\n      swap1\n      pop\n        /* \"#utility.yul\":9442:9443   */\n      dup2\n        /* \"#utility.yul\":9436:9440   */\n      dup2\n        /* \"#utility.yul\":9433:9444   */\n      gt\n        /* \"#utility.yul\":9430:9467   */\n      iszero\n      tag_369\n      jumpi\n        /* \"#utility.yul\":9447:9465   */\n      tag_370\n      tag_267\n      jump\t// in\n    tag_370:\n        /* \"#utility.yul\":9430:9467   */\n    tag_369:\n        /* \"#utility.yul\":9280:9474   */\n      swap3\n      swap2\n      pop\n      pop\n      jump\t// out\n\n    auxdata: 0xa26469706673582212206673ca50e8f3b62f96d5df015bd3d0e13aa6d18377d8807c3f6325224257a29c64736f6c63430008140033\n}\n",
				"bytecode": {
					"linkReferences": {},
					"object": "608060405234801562000010575f80fd5b50604051620019e0380380620019e083398181016040528101906200003691906200025d565b3360015f819055505f60015f6101000a81548160ff0219169083151502179055505f73ffffffffffffffffffffffffffffffffffffffff168173ffffffffffffffffffffffffffffffffffffffff1603620000ca575f6040517f1e4fbdf7000000000000000000000000000000000000000000000000000000008152600401620000c191906200029e565b60405180910390fd5b620000db816200012360201b60201c565b508060025f6101000a81548173ffffffffffffffffffffffffffffffffffffffff021916908373ffffffffffffffffffffffffffffffffffffffff16021790555050620002b9565b5f60018054906101000a900473ffffffffffffffffffffffffffffffffffffffff169050816001806101000a81548173ffffffffffffffffffffffffffffffffffffffff021916908373ffffffffffffffffffffffffffffffffffffffff1602179055508173ffffffffffffffffffffffffffffffffffffffff168173ffffffffffffffffffffffffffffffffffffffff167f8be0079c531659141344cd1fd0a4f28419497f9722a3daafe3b4186f6b6457e060405160405180910390a35050565b5f80fd5b5f73ffffffffffffffffffffffffffffffffffffffff82169050919050565b5f6200021482620001e9565b9050919050565b5f620002278262000208565b9050919050565b62000239816200021b565b811462000244575f80fd5b50565b5f8151905062000257816200022e565b92915050565b5f60208284031215620002755762000274620001e5565b5b5f620002848482850162000247565b91505092915050565b620002988162000208565b82525050565b5f602082019050620002b35f8301846200028d565b92915050565b61171980620002c75f395ff3fe608060405260043610610108575f3560e01c80638456cb59116100945780639e30bce7116100635780639e30bce7146102fb578063a98ad46c14610337578063c3b2a4a414610361578063d57ac70d1461039d578063f2fde38b146103a757610108565b80638456cb59146102695780638da5cb5b1461027f5780638e817efe146102a95780639083baa6146102d157610108565b80633f4ba83a116100db5780633f4ba83a146101c157806352ce9714146101d75780635c975abb146101ff57806360b3b33814610229578063715018a61461025357610108565b8063192e7a7b1461010c5780631fea5a6b146101345780632703ee851461015c5780632f5723d514610199575b5f80fd5b348015610117575f80fd5b50610132600480360381019061012d919061123e565b6103cf565b005b34801561013f575f80fd5b5061015a6004803603810190610155919061123e565b61053d565b005b348015610167575f80fd5b50610182600480360381019061017d919061123e565b6105d4565b604051610190929190611281565b60405180910390f35b3480156101a4575f80fd5b506101bf60048036038101906101ba91906112d2565b61065b565b005b3480156101cc575f80fd5b506101d561084e565b005b3480156101e2575f80fd5b506101fd60048036038101906101f891906112d2565b610860565b005b34801561020a575f80fd5b50610213610ad1565b6040516102209190611317565b60405180910390f35b348015610234575f80fd5b5061023d610ae6565b60405161024a9190611330565b60405180910390f35b34801561025e575f80fd5b50610267610aec565b005b348015610274575f80fd5b5061027d610aff565b005b34801561028a575f80fd5b50610293610b11565b6040516102a09190611358565b60405180910390f35b3480156102b4575f80fd5b506102cf60048036038101906102ca91906112d2565b610b38565b005b3480156102dc575f80fd5b506102e5610d12565b6040516102f29190611330565b60405180910390f35b348015610306575f80fd5b50610321600480360381019061031c919061123e565b610d18565b60405161032e9190611330565b60405180910390f35b348015610342575f80fd5b5061034b610d2d565b60405161035891906113cc565b60405180910390f35b34801561036c575f80fd5b506103876004803603810190610382919061123e565b610d52565b6040516103949190611330565b60405180910390f35b6103a5610d67565b005b3480156103b2575f80fd5b506103cd60048036038101906103c8919061123e565b610e7c565b005b6103d7610f00565b8073ffffffffffffffffffffffffffffffffffffffff166108fc60055f8473ffffffffffffffffffffffffffffffffffffffff1673ffffffffffffffffffffffffffffffffffffffff1681526020019081526020015f205490811502906040515f60405180830381858888f19350505050158015610457573d5f803e3d5ffd5b5060025f9054906101000a900473ffffffffffffffffffffffffffffffffffffffff1673ffffffffffffffffffffffffffffffffffffffff1663a9059cbb8260065f8573ffffffffffffffffffffffffffffffffffffffff1673ffffffffffffffffffffffffffffffffffffffff1681526020019081526020015f20546040518363ffffffff1660e01b81526004016104f19291906113e5565b6020604051808303815f875af115801561050d573d5f803e3d5ffd5b505050506040513d601f19601f820116820180604052508101906105319190611436565b5061053a610f44565b50565b610545610f00565b5f60055f8373ffffffffffffffffffffffffffffffffffffffff1673ffffffffffffffffffffffffffffffffffffffff1681526020019081526020015f20819055505f60065f8373ffffffffffffffffffffffffffffffffffffffff1673ffffffffffffffffffffffffffffffffffffffff1681526020019081526020015f20819055506105d1610f44565b50565b5f8060055f8473ffffffffffffffffffffffffffffffffffffffff1673ffffffffffffffffffffffffffffffffffffffff1681526020019081526020015f205460065f8573ffffffffffffffffffffffffffffffffffffffff1673ffffffffffffffffffffffffffffffffffffffff1681526020019081526020015f205491509150915091565b610663610f00565b61066b610f4d565b5f81116106ad576040517f08c379a00000000000000000000000000000000000000000000000000000000081526004016106a4906114e1565b60405180910390fd5b60025f9054906101000a900473ffffffffffffffffffffffffffffffffffffffff1673ffffffffffffffffffffffffffffffffffffffff166323b872dd3330846040518463ffffffff1660e01b815260040161070b939291906114ff565b6020604051808303815f875af1158015610727573d5f803e3d5ffd5b505050506040513d601f19601f8201168201806040525081019061074b9190611436565b61078a576040517f08c379a0000000000000000000000000000000000000000000000000000000008152600401610781906115a4565b60405180910390fd5b8060065f3373ffffffffffffffffffffffffffffffffffffffff1673ffffffffffffffffffffffffffffffffffffffff1681526020019081526020015f205f8282546107d691906115ef565b925050819055508060045f8282546107ee91906115ef565b925050819055503373ffffffffffffffffffffffffffffffffffffffff167f9a4c731ff1518c7a820e31d32e673b031b8974967931afb2eec308066090022d8260405161083b9190611330565b60405180910390a261084b610f44565b50565b610856610f8e565b61085e611015565b565b610868610f00565b610870610f4d565b5f81116108b2576040517f08c379a00000000000000000000000000000000000000000000000000000000081526004016108a9906114e1565b60405180910390fd5b8060065f3373ffffffffffffffffffffffffffffffffffffffff1673ffffffffffffffffffffffffffffffffffffffff1681526020019081526020015f20541015610932576040517f08c379a000000000000000000000000000000000000000000000000000000000815260040161092990611692565b60405180910390fd5b8060065f3373ffffffffffffffffffffffffffffffffffffffff1673ffffffffffffffffffffffffffffffffffffffff1681526020019081526020015f205f82825461097e91906116b0565b925050819055508060045f82825461099691906116b0565b9250508190555060025f9054906101000a900473ffffffffffffffffffffffffffffffffffffffff1673ffffffffffffffffffffffffffffffffffffffff1663a9059cbb33836040518363ffffffff1660e01b81526004016109f99291906113e5565b6020604051808303815f875af1158015610a15573d5f803e3d5ffd5b505050506040513d601f19601f82011682018060405250810190610a399190611436565b610a78576040517f08c379a0000000000000000000000000000000000000000000000000000000008152600401610a6f906115a4565b60405180910390fd5b3373ffffffffffffffffffffffffffffffffffffffff167fc01511ac0a76d7dc4d420282166e32ac9366c3f78e450661d140d248b19a400082604051610abe9190611330565b60405180910390a2610ace610f44565b50565b5f60015f9054906101000a900460ff16905090565b60035481565b610af4610f8e565b610afd5f611076565b565b610b07610f8e565b610b0f611138565b565b5f60018054906101000a900473ffffffffffffffffffffffffffffffffffffffff16905090565b610b40610f00565b610b48610f4d565b5f8111610b8a576040517f08c379a0000000000000000000000000000000000000000000000000000000008152600401610b81906114e1565b60405180910390fd5b8060055f3373ffffffffffffffffffffffffffffffffffffffff1673ffffffffffffffffffffffffffffffffffffffff1681526020019081526020015f20541015610c0a576040517f08c379a0000000000000000000000000000000000000000000000000000000008152600401610c0190611692565b60405180910390fd5b8060055f3373ffffffffffffffffffffffffffffffffffffffff1673ffffffffffffffffffffffffffffffffffffffff1681526020019081526020015f205f828254610c5691906116b0565b925050819055508060035f828254610c6e91906116b0565b925050819055503373ffffffffffffffffffffffffffffffffffffffff166108fc8290811502906040515f60405180830381858888f19350505050158015610cb8573d5f803e3d5ffd5b503373ffffffffffffffffffffffffffffffffffffffff167f0c3d79d31dc82080baf59ab3c3058c3c7c4f88f9969422caa1b42c51577d640b82604051610cff9190611330565b60405180910390a2610d0f610f44565b50565b60045481565b6005602052805f5260405f205f915090505481565b60025f9054906101000a900473ffffffffffffffffffffffffffffffffffffffff1681565b6006602052805f5260405f205f915090505481565b610d6f610f00565b610d77610f4d565b5f3411610db9576040517f08c379a0000000000000000000000000000000000000000000000000000000008152600401610db0906114e1565b60405180910390fd5b3460055f3373ffffffffffffffffffffffffffffffffffffffff1673ffffffffffffffffffffffffffffffffffffffff1681526020019081526020015f205f828254610e0591906115ef565b925050819055503460035f828254610e1d91906115ef565b925050819055503373ffffffffffffffffffffffffffffffffffffffff167ff5bfa8a3f6a61792f266e3e92249facce14edf2b5fceeba5cb6cd0882593a9da34604051610e6a9190611330565b60405180910390a2610e7a610f44565b565b610e84610f8e565b5f73ffffffffffffffffffffffffffffffffffffffff168173ffffffffffffffffffffffffffffffffffffffff1603610ef4575f6040517f1e4fbdf7000000000000000000000000000000000000000000000000000000008152600401610eeb9190611358565b60405180910390fd5b610efd81611076565b50565b60025f5403610f3b576040517f3ee5aeb500000000000000000000000000000000000000000000000000000000815260040160405180910390fd5b60025f81905550565b60015f81905550565b610f55610ad1565b15610f8c576040517fd93c066500000000000000000000000000000000000000000000000000000000815260040160405180910390fd5b565b610f96611199565b73ffffffffffffffffffffffffffffffffffffffff16610fb4610b11565b73ffffffffffffffffffffffffffffffffffffffff161461101357610fd7611199565b6040517f118cdaa700000000000000000000000000000000000000000000000000000000815260040161100a9190611358565b60405180910390fd5b565b61101d6111a0565b5f60015f6101000a81548160ff0219169083151502179055507f5db9ee0a495bf2e6ff9c91a7834c1ba4fdd244a5e8aa4e537bd38aeae4b073aa61105f611199565b60405161106c9190611358565b60405180910390a1565b5f60018054906101000a900473ffffffffffffffffffffffffffffffffffffffff169050816001806101000a81548173ffffffffffffffffffffffffffffffffffffffff021916908373ffffffffffffffffffffffffffffffffffffffff1602179055508173ffffffffffffffffffffffffffffffffffffffff168173ffffffffffffffffffffffffffffffffffffffff167f8be0079c531659141344cd1fd0a4f28419497f9722a3daafe3b4186f6b6457e060405160405180910390a35050565b611140610f4d565b6001805f6101000a81548160ff0219169083151502179055507f62e78cea01bee320cd4e420270b5ea74000d11b0c9f74754ebdbfc544b05a258611182611199565b60405161118f9190611358565b60405180910390a1565b5f33905090565b6111a8610ad1565b6111de576040517f8dfc202b00000000000000000000000000000000000000000000000000000000815260040160405180910390fd5b565b5f80fd5b5f73ffffffffffffffffffffffffffffffffffffffff82169050919050565b5f61120d826111e4565b9050919050565b61121d81611203565b8114611227575f80fd5b50565b5f8135905061123881611214565b92915050565b5f60208284031215611253576112526111e0565b5b5f6112608482850161122a565b91505092915050565b5f819050919050565b61127b81611269565b82525050565b5f6040820190506112945f830185611272565b6112a16020830184611272565b9392505050565b6112b181611269565b81146112bb575f80fd5b50565b5f813590506112cc816112a8565b92915050565b5f602082840312156112e7576112e66111e0565b5b5f6112f4848285016112be565b91505092915050565b5f8115159050919050565b611311816112fd565b82525050565b5f60208201905061132a5f830184611308565b92915050565b5f6020820190506113435f830184611272565b92915050565b61135281611203565b82525050565b5f60208201905061136b5f830184611349565b92915050565b5f819050919050565b5f61139461138f61138a846111e4565b611371565b6111e4565b9050919050565b5f6113a58261137a565b9050919050565b5f6113b68261139b565b9050919050565b6113c6816113ac565b82525050565b5f6020820190506113df5f8301846113bd565b92915050565b5f6040820190506113f85f830185611349565b6114056020830184611272565b9392505050565b611415816112fd565b811461141f575f80fd5b50565b5f815190506114308161140c565b92915050565b5f6020828403121561144b5761144a6111e0565b5b5f61145884828501611422565b91505092915050565b5f82825260208201905092915050565b7f436f6c6c61746572616c4d616e616765723a20496e76616c696420616d6f756e5f8201527f7400000000000000000000000000000000000000000000000000000000000000602082015250565b5f6114cb602183611461565b91506114d682611471565b604082019050919050565b5f6020820190508181035f8301526114f8816114bf565b9050919050565b5f6060820190506115125f830186611349565b61151f6020830185611349565b61152c6040830184611272565b949350505050565b7f436f6c6c61746572616c4d616e616765723a205472616e73666572206661696c5f8201527f6564000000000000000000000000000000000000000000000000000000000000602082015250565b5f61158e602283611461565b915061159982611534565b604082019050919050565b5f6020820190508181035f8301526115bb81611582565b9050919050565b7f4e487b71000000000000000000000000000000000000000000000000000000005f52601160045260245ffd5b5f6115f982611269565b915061160483611269565b925082820190508082111561161c5761161b6115c2565b5b92915050565b7f436f6c6c61746572616c4d616e616765723a20496e73756666696369656e74205f8201527f62616c616e636500000000000000000000000000000000000000000000000000602082015250565b5f61167c602783611461565b915061168782611622565b604082019050919050565b5f6020820190508181035f8301526116a981611670565b9050919050565b5f6116ba82611269565b91506116c583611269565b92508282039050818111156116dd576116dc6115c2565b5b9291505056fea26469706673582212206673ca50e8f3b62f96d5df015bd3d0e13aa6d18377d8807c3f6325224257a29c64736f6c63430008140033",
					"opcodes": "PUSH1 0x80 PUSH1 0x40 MSTORE CALLVALUE DUP1 ISZERO PUSH3 0x10 JUMPI PUSH0 DUP1 REVERT JUMPDEST POP PUSH1 0x40 MLOAD PUSH3 0x19E0 CODESIZE SUB DUP1 PUSH3 0x19E0 DUP4 CODECOPY DUP2 DUP2 ADD PUSH1 0x40 MSTORE DUP2 ADD SWAP1 PUSH3 0x36 SWAP2 SWAP1 PUSH3 0x25D JUMP JUMPDEST CALLER PUSH1 0x1 PUSH0 DUP2 SWAP1 SSTORE POP PUSH0 PUSH1 0x1 PUSH0 PUSH2 0x100 EXP DUP2 SLOAD DUP2 PUSH1 0xFF MUL NOT AND SWAP1 DUP4 ISZERO ISZERO MUL OR SWAP1 SSTORE POP PUSH0 PUSH20 0xFFFFFFFFFFFFFFFFFFFFFFFFFFFFFFFFFFFFFFFF AND DUP2 PUSH20 0xFFFFFFFFFFFFFFFFFFFFFFFFFFFFFFFFFFFFFFFF AND SUB PUSH3 0xCA JUMPI PUSH0 PUSH1 0x40 MLOAD PUSH32 0x1E4FBDF700000000000000000000000000000000000000000000000000000000 DUP2 MSTORE PUSH1 0x4 ADD PUSH3 0xC1 SWAP2 SWAP1 PUSH3 0x29E JUMP JUMPDEST PUSH1 0x40 MLOAD DUP1 SWAP2 SUB SWAP1 REVERT JUMPDEST PUSH3 0xDB DUP2 PUSH3 0x123 PUSH1 0x20 SHL PUSH1 0x20 SHR JUMP JUMPDEST POP DUP1 PUSH1 0x2 PUSH0 PUSH2 0x100 EXP DUP2 SLOAD DUP2 PUSH20 0xFFFFFFFFFFFFFFFFFFFFFFFFFFFFFFFFFFFFFFFF MUL NOT AND SWAP1 DUP4 PUSH20 0xFFFFFFFFFFFFFFFFFFFFFFFFFFFFFFFFFFFFFFFF AND MUL OR SWAP1 SSTORE POP POP PUSH3 0x2B9 JUMP JUMPDEST PUSH0 PUSH1 0x1 DUP1 SLOAD SWAP1 PUSH2 0x100 EXP SWAP1 DIV PUSH20 0xFFFFFFFFFFFFFFFFFFFFFFFFFFFFFFFFFFFFFFFF AND SWAP1 POP DUP2 PUSH1 0x1 DUP1 PUSH2 0x100 EXP DUP2 SLOAD DUP2 PUSH20 0xFFFFFFFFFFFFFFFFFFFFFFFFFFFFFFFFFFFFFFFF MUL NOT AND SWAP1 DUP4 PUSH20 0xFFFFFFFFFFFFFFFFFFFFFFFFFFFFFFFFFFFFFFFF AND MUL OR SWAP1 SSTORE POP DUP2 PUSH20 0xFFFFFFFFFFFFFFFFFFFFFFFFFFFFFFFFFFFFFFFF AND DUP2 PUSH20 0xFFFFFFFFFFFFFFFFFFFFFFFFFFFFFFFFFFFFFFFF AND PUSH32 0x8BE0079C531659141344CD1FD0A4F28419497F9722A3DAAFE3B4186F6B6457E0 PUSH1 0x40 MLOAD PUSH1 0x40 MLOAD DUP1 SWAP2 SUB SWAP1 LOG3 POP POP JUMP JUMPDEST PUSH0 DUP1 REVERT JUMPDEST PUSH0 PUSH20 0xFFFFFFFFFFFFFFFFFFFFFFFFFFFFFFFFFFFFFFFF DUP3 AND SWAP1 POP SWAP2 SWAP1 POP JUMP JUMPDEST PUSH0 PUSH3 0x214 DUP3 PUSH3 0x1E9 JUMP JUMPDEST SWAP1 POP SWAP2 SWAP1 POP JUMP JUMPDEST PUSH0 PUSH3 0x227 DUP3 PUSH3 0x208 JUMP JUMPDEST SWAP1 POP SWAP2 SWAP1 POP JUMP JUMPDEST PUSH3 0x239 DUP2 PUSH3 0x21B JUMP JUMPDEST DUP2 EQ PUSH3 0x244 JUMPI PUSH0 DUP1 REVERT JUMPDEST POP JUMP JUMPDEST PUSH0 DUP2 MLOAD SWAP1 POP PUSH3 0x257 DUP2 PUSH3 0x22E JUMP JUMPDEST SWAP3 SWAP2 POP POP JUMP JUMPDEST PUSH0 PUSH1 0x20 DUP3 DUP5 SUB SLT ISZERO PUSH3 0x275 JUMPI PUSH3 0x274 PUSH3 0x1E5 JUMP JUMPDEST JUMPDEST PUSH0 PUSH3 0x284 DUP5 DUP3 DUP6 ADD PUSH3 0x247 JUMP JUMPDEST SWAP2 POP POP SWAP3 SWAP2 POP POP JUMP JUMPDEST PUSH3 0x298 DUP2 PUSH3 0x208 JUMP JUMPDEST DUP3 MSTORE POP POP JUMP JUMPDEST PUSH0 PUSH1 0x20 DUP3 ADD SWAP1 POP PUSH3 0x2B3 PUSH0 DUP4 ADD DUP5 PUSH3 0x28D JUMP JUMPDEST SWAP3 SWAP2 POP POP JUMP JUMPDEST PUSH2 0x1719 DUP1 PUSH3 0x2C7 PUSH0 CODECOPY PUSH0 RETURN INVALID PUSH1 0x80 PUSH1 0x40 MSTORE PUSH1 0x4 CALLDATASIZE LT PUSH2 0x108 JUMPI PUSH0 CALLDATALOAD PUSH1 0xE0 SHR DUP1 PUSH4 0x8456CB59 GT PUSH2 0x94 JUMPI DUP1 PUSH4 0x9E30BCE7 GT PUSH2 0x63 JUMPI DUP1 PUSH4 0x9E30BCE7 EQ PUSH2 0x2FB JUMPI DUP1 PUSH4 0xA98AD46C EQ PUSH2 0x337 JUMPI DUP1 PUSH4 0xC3B2A4A4 EQ PUSH2 0x361 JUMPI DUP1 PUSH4 0xD57AC70D EQ PUSH2 0x39D JUMPI DUP1 PUSH4 0xF2FDE38B EQ PUSH2 0x3A7 JUMPI PUSH2 0x108 JUMP JUMPDEST DUP1 PUSH4 0x8456CB59 EQ PUSH2 0x269 JUMPI DUP1 PUSH4 0x8DA5CB5B EQ PUSH2 0x27F JUMPI DUP1 PUSH4 0x8E817EFE EQ PUSH2 0x2A9 JUMPI DUP1 PUSH4 0x9083BAA6 EQ PUSH2 0x2D1 JUMPI PUSH2 0x108 JUMP JUMPDEST DUP1 PUSH4 0x3F4BA83A GT PUSH2 0xDB JUMPI DUP1 PUSH4 0x3F4BA83A EQ PUSH2 0x1C1 JUMPI DUP1 PUSH4 0x52CE9714 EQ PUSH2 0x1D7 JUMPI DUP1 PUSH4 0x5C975ABB EQ PUSH2 0x1FF JUMPI DUP1 PUSH4 0x60B3B338 EQ PUSH2 0x229 JUMPI DUP1 PUSH4 0x715018A6 EQ PUSH2 0x253 JUMPI PUSH2 0x108 JUMP JUMPDEST DUP1 PUSH4 0x192E7A7B EQ PUSH2 0x10C JUMPI DUP1 PUSH4 0x1FEA5A6B EQ PUSH2 0x134 JUMPI DUP1 PUSH4 0x2703EE85 EQ PUSH2 0x15C JUMPI DUP1 PUSH4 0x2F5723D5 EQ PUSH2 0x199 JUMPI JUMPDEST PUSH0 DUP1 REVERT JUMPDEST CALLVALUE DUP1 ISZERO PUSH2 0x117 JUMPI PUSH0 DUP1 REVERT JUMPDEST POP PUSH2 0x132 PUSH1 0x4 DUP1 CALLDATASIZE SUB DUP2 ADD SWAP1 PUSH2 0x12D SWAP2 SWAP1 PUSH2 0x123E JUMP JUMPDEST PUSH2 0x3CF JUMP JUMPDEST STOP JUMPDEST CALLVALUE DUP1 ISZERO PUSH2 0x13F JUMPI PUSH0 DUP1 REVERT JUMPDEST POP PUSH2 0x15A PUSH1 0x4 DUP1 CALLDATASIZE SUB DUP2 ADD SWAP1 PUSH2 0x155 SWAP2 SWAP1 PUSH2 0x123E JUMP JUMPDEST PUSH2 0x53D JUMP JUMPDEST STOP JUMPDEST CALLVALUE DUP1 ISZERO PUSH2 0x167 JUMPI PUSH0 DUP1 REVERT JUMPDEST POP PUSH2 0x182 PUSH1 0x4 DUP1 CALLDATASIZE SUB DUP2 ADD SWAP1 PUSH2 0x17D SWAP2 SWAP1 PUSH2 0x123E JUMP JUMPDEST PUSH2 0x5D4 JUMP JUMPDEST PUSH1 0x40 MLOAD PUSH2 0x190 SWAP3 SWAP2 SWAP1 PUSH2 0x1281 JUMP JUMPDEST PUSH1 0x40 MLOAD DUP1 SWAP2 SUB SWAP1 RETURN JUMPDEST CALLVALUE DUP1 ISZERO PUSH2 0x1A4 JUMPI PUSH0 DUP1 REVERT JUMPDEST POP PUSH2 0x1BF PUSH1 0x4 DUP1 CALLDATASIZE SUB DUP2 ADD SWAP1 PUSH2 0x1BA SWAP2 SWAP1 PUSH2 0x12D2 JUMP JUMPDEST PUSH2 0x65B JUMP JUMPDEST STOP JUMPDEST CALLVALUE DUP1 ISZERO PUSH2 0x1CC JUMPI PUSH0 DUP1 REVERT JUMPDEST POP PUSH2 0x1D5 PUSH2 0x84E JUMP JUMPDEST STOP JUMPDEST CALLVALUE DUP1 ISZERO PUSH2 0x1E2 JUMPI PUSH0 DUP1 REVERT JUMPDEST POP PUSH2 0x1FD PUSH1 0x4 DUP1 CALLDATASIZE SUB DUP2 ADD SWAP1 PUSH2 0x1F8 SWAP2 SWAP1 PUSH2 0x12D2 JUMP JUMPDEST PUSH2 0x860 JUMP JUMPDEST STOP JUMPDEST CALLVALUE DUP1 ISZERO PUSH2 0x20A JUMPI PUSH0 DUP1 REVERT JUMPDEST POP PUSH2 0x213 PUSH2 0xAD1 JUMP JUMPDEST PUSH1 0x40 MLOAD PUSH2 0x220 SWAP2 SWAP1 PUSH2 0x1317 JUMP JUMPDEST PUSH1 0x40 MLOAD DUP1 SWAP2 SUB SWAP1 RETURN JUMPDEST CALLVALUE DUP1 ISZERO PUSH2 0x234 JUMPI PUSH0 DUP1 REVERT JUMPDEST POP PUSH2 0x23D PUSH2 0xAE6 JUMP JUMPDEST PUSH1 0x40 MLOAD PUSH2 0x24A SWAP2 SWAP1 PUSH2 0x1330 JUMP JUMPDEST PUSH1 0x40 MLOAD DUP1 SWAP2 SUB SWAP1 RETURN JUMPDEST CALLVALUE DUP1 ISZERO PUSH2 0x25E JUMPI PUSH0 DUP1 REVERT JUMPDEST POP PUSH2 0x267 PUSH2 0xAEC JUMP JUMPDEST STOP JUMPDEST CALLVALUE DUP1 ISZERO PUSH2 0x274 JUMPI PUSH0 DUP1 REVERT JUMPDEST POP PUSH2 0x27D PUSH2 0xAFF JUMP JUMPDEST STOP JUMPDEST CALLVALUE DUP1 ISZERO PUSH2 0x28A JUMPI PUSH0 DUP1 REVERT JUMPDEST POP PUSH2 0x293 PUSH2 0xB11 JUMP JUMPDEST PUSH1 0x40 MLOAD PUSH2 0x2A0 SWAP2 SWAP1 PUSH2 0x1358 JUMP JUMPDEST PUSH1 0x40 MLOAD DUP1 SWAP2 SUB SWAP1 RETURN JUMPDEST CALLVALUE DUP1 ISZERO PUSH2 0x2B4 JUMPI PUSH0 DUP1 REVERT JUMPDEST POP PUSH2 0x2CF PUSH1 0x4 DUP1 CALLDATASIZE SUB DUP2 ADD SWAP1 PUSH2 0x2CA SWAP2 SWAP1 PUSH2 0x12D2 JUMP JUMPDEST PUSH2 0xB38 JUMP JUMPDEST STOP JUMPDEST CALLVALUE DUP1 ISZERO PUSH2 0x2DC JUMPI PUSH0 DUP1 REVERT JUMPDEST POP PUSH2 0x2E5 PUSH2 0xD12 JUMP JUMPDEST PUSH1 0x40 MLOAD PUSH2 0x2F2 SWAP2 SWAP1 PUSH2 0x1330 JUMP JUMPDEST PUSH1 0x40 MLOAD DUP1 SWAP2 SUB SWAP1 RETURN JUMPDEST CALLVALUE DUP1 ISZERO PUSH2 0x306 JUMPI PUSH0 DUP1 REVERT JUMPDEST POP PUSH2 0x321 PUSH1 0x4 DUP1 CALLDATASIZE SUB DUP2 ADD SWAP1 PUSH2 0x31C SWAP2 SWAP1 PUSH2 0x123E JUMP JUMPDEST PUSH2 0xD18 JUMP JUMPDEST PUSH1 0x40 MLOAD PUSH2 0x32E SWAP2 SWAP1 PUSH2 0x1330 JUMP JUMPDEST PUSH1 0x40 MLOAD DUP1 SWAP2 SUB SWAP1 RETURN JUMPDEST CALLVALUE DUP1 ISZERO PUSH2 0x342 JUMPI PUSH0 DUP1 REVERT JUMPDEST POP PUSH2 0x34B PUSH2 0xD2D JUMP JUMPDEST PUSH1 0x40 MLOAD PUSH2 0x358 SWAP2 SWAP1 PUSH2 0x13CC JUMP JUMPDEST PUSH1 0x40 MLOAD DUP1 SWAP2 SUB SWAP1 RETURN JUMPDEST CALLVALUE DUP1 ISZERO PUSH2 0x36C JUMPI PUSH0 DUP1 REVERT JUMPDEST POP PUSH2 0x387 PUSH1 0x4 DUP1 CALLDATASIZE SUB DUP2 ADD SWAP1 PUSH2 0x382 SWAP2 SWAP1 PUSH2 0x123E JUMP JUMPDEST PUSH2 0xD52 JUMP JUMPDEST PUSH1 0x40 MLOAD PUSH2 0x394 SWAP2 SWAP1 PUSH2 0x1330 JUMP JUMPDEST PUSH1 0x40 MLOAD DUP1 SWAP2 SUB SWAP1 RETURN JUMPDEST PUSH2 0x3A5 PUSH2 0xD67 JUMP JUMPDEST STOP JUMPDEST CALLVALUE DUP1 ISZERO PUSH2 0x3B2 JUMPI PUSH0 DUP1 REVERT JUMPDEST POP PUSH2 0x3CD PUSH1 0x4 DUP1 CALLDATASIZE SUB DUP2 ADD SWAP1 PUSH2 0x3C8 SWAP2 SWAP1 PUSH2 0x123E JUMP JUMPDEST PUSH2 0xE7C JUMP JUMPDEST STOP JUMPDEST PUSH2 0x3D7 PUSH2 0xF00 JUMP JUMPDEST DUP1 PUSH20 0xFFFFFFFFFFFFFFFFFFFFFFFFFFFFFFFFFFFFFFFF AND PUSH2 0x8FC PUSH1 0x5 PUSH0 DUP5 PUSH20 0xFFFFFFFFFFFFFFFFFFFFFFFFFFFFFFFFFFFFFFFF AND PUSH20 0xFFFFFFFFFFFFFFFFFFFFFFFFFFFFFFFFFFFFFFFF AND DUP2 MSTORE PUSH1 0x20 ADD SWAP1 DUP2 MSTORE PUSH1 0x20 ADD PUSH0 KECCAK256 SLOAD SWAP1 DUP2 ISZERO MUL SWAP1 PUSH1 0x40 MLOAD PUSH0 PUSH1 0x40 MLOAD DUP1 DUP4 SUB DUP2 DUP6 DUP9 DUP9 CALL SWAP4 POP POP POP POP ISZERO DUP1 ISZERO PUSH2 0x457 JUMPI RETURNDATASIZE PUSH0 DUP1 RETURNDATACOPY RETURNDATASIZE PUSH0 REVERT JUMPDEST POP PUSH1 0x2 PUSH0 SWAP1 SLOAD SWAP1 PUSH2 0x100 EXP SWAP1 DIV PUSH20 0xFFFFFFFFFFFFFFFFFFFFFFFFFFFFFFFFFFFFFFFF AND PUSH20 0xFFFFFFFFFFFFFFFFFFFFFFFFFFFFFFFFFFFFFFFF AND PUSH4 0xA9059CBB DUP3 PUSH1 0x6 PUSH0 DUP6 PUSH20 0xFFFFFFFFFFFFFFFFFFFFFFFFFFFFFFFFFFFFFFFF AND PUSH20 0xFFFFFFFFFFFFFFFFFFFFFFFFFFFFFFFFFFFFFFFF AND DUP2 MSTORE PUSH1 0x20 ADD SWAP1 DUP2 MSTORE PUSH1 0x20 ADD PUSH0 KECCAK256 SLOAD PUSH1 0x40 MLOAD DUP4 PUSH4 0xFFFFFFFF AND PUSH1 0xE0 SHL DUP2 MSTORE PUSH1 0x4 ADD PUSH2 0x4F1 SWAP3 SWAP2 SWAP1 PUSH2 0x13E5 JUMP JUMPDEST PUSH1 0x20 PUSH1 0x40 MLOAD DUP1 DUP4 SUB DUP2 PUSH0 DUP8 GAS CALL ISZERO DUP1 ISZERO PUSH2 0x50D JUMPI RETURNDATASIZE PUSH0 DUP1 RETURNDATACOPY RETURNDATASIZE PUSH0 REVERT JUMPDEST POP POP POP POP PUSH1 0x40 MLOAD RETURNDATASIZE PUSH1 0x1F NOT PUSH1 0x1F DUP3 ADD AND DUP3 ADD DUP1 PUSH1 0x40 MSTORE POP DUP2 ADD SWAP1 PUSH2 0x531 SWAP2 SWAP1 PUSH2 0x1436 JUMP JUMPDEST POP PUSH2 0x53A PUSH2 0xF44 JUMP JUMPDEST POP JUMP JUMPDEST PUSH2 0x545 PUSH2 0xF00 JUMP JUMPDEST PUSH0 PUSH1 0x5 PUSH0 DUP4 PUSH20 0xFFFFFFFFFFFFFFFFFFFFFFFFFFFFFFFFFFFFFFFF AND PUSH20 0xFFFFFFFFFFFFFFFFFFFFFFFFFFFFFFFFFFFFFFFF AND DUP2 MSTORE PUSH1 0x20 ADD SWAP1 DUP2 MSTORE PUSH1 0x20 ADD PUSH0 KECCAK256 DUP2 SWAP1 SSTORE POP PUSH0 PUSH1 0x6 PUSH0 DUP4 PUSH20 0xFFFFFFFFFFFFFFFFFFFFFFFFFFFFFFFFFFFFFFFF AND PUSH20 0xFFFFFFFFFFFFFFFFFFFFFFFFFFFFFFFFFFFFFFFF AND DUP2 MSTORE PUSH1 0x20 ADD SWAP1 DUP2 MSTORE PUSH1 0x20 ADD PUSH0 KECCAK256 DUP2 SWAP1 SSTORE POP PUSH2 0x5D1 PUSH2 0xF44 JUMP JUMPDEST POP JUMP JUMPDEST PUSH0 DUP1 PUSH1 0x5 PUSH0 DUP5 PUSH20 0xFFFFFFFFFFFFFFFFFFFFFFFFFFFFFFFFFFFFFFFF AND PUSH20 0xFFFFFFFFFFFFFFFFFFFFFFFFFFFFFFFFFFFFFFFF AND DUP2 MSTORE PUSH1 0x20 ADD SWAP1 DUP2 MSTORE PUSH1 0x20 ADD PUSH0 KECCAK256 SLOAD PUSH1 0x6 PUSH0 DUP6 PUSH20 0xFFFFFFFFFFFFFFFFFFFFFFFFFFFFFFFFFFFFFFFF AND PUSH20 0xFFFFFFFFFFFFFFFFFFFFFFFFFFFFFFFFFFFFFFFF AND DUP2 MSTORE PUSH1 0x20 ADD SWAP1 DUP2 MSTORE PUSH1 0x20 ADD PUSH0 KECCAK256 SLOAD SWAP2 POP SWAP2 POP SWAP2 POP SWAP2 JUMP JUMPDEST PUSH2 0x663 PUSH2 0xF00 JUMP JUMPDEST PUSH2 0x66B PUSH2 0xF4D JUMP JUMPDEST PUSH0 DUP2 GT PUSH2 0x6AD JUMPI PUSH1 0x40 MLOAD PUSH32 0x8C379A000000000000000000000000000000000000000000000000000000000 DUP2 MSTORE PUSH1 0x4 ADD PUSH2 0x6A4 SWAP1 PUSH2 0x14E1 JUMP JUMPDEST PUSH1 0x40 MLOAD DUP1 SWAP2 SUB SWAP1 REVERT JUMPDEST PUSH1 0x2 PUSH0 SWAP1 SLOAD SWAP1 PUSH2 0x100 EXP SWAP1 DIV PUSH20 0xFFFFFFFFFFFFFFFFFFFFFFFFFFFFFFFFFFFFFFFF AND PUSH20 0xFFFFFFFFFFFFFFFFFFFFFFFFFFFFFFFFFFFFFFFF AND PUSH4 0x23B872DD CALLER ADDRESS DUP5 PUSH1 0x40 MLOAD DUP5 PUSH4 0xFFFFFFFF AND PUSH1 0xE0 SHL DUP2 MSTORE PUSH1 0x4 ADD PUSH2 0x70B SWAP4 SWAP3 SWAP2 SWAP1 PUSH2 0x14FF JUMP JUMPDEST PUSH1 0x20 PUSH1 0x40 MLOAD DUP1 DUP4 SUB DUP2 PUSH0 DUP8 GAS CALL ISZERO DUP1 ISZERO PUSH2 0x727 JUMPI RETURNDATASIZE PUSH0 DUP1 RETURNDATACOPY RETURNDATASIZE PUSH0 REVERT JUMPDEST POP POP POP POP PUSH1 0x40 MLOAD RETURNDATASIZE PUSH1 0x1F NOT PUSH1 0x1F DUP3 ADD AND DUP3 ADD DUP1 PUSH1 0x40 MSTORE POP DUP2 ADD SWAP1 PUSH2 0x74B SWAP2 SWAP1 PUSH2 0x1436 JUMP JUMPDEST PUSH2 0x78A JUMPI PUSH1 0x40 MLOAD PUSH32 0x8C379A000000000000000000000000000000000000000000000000000000000 DUP2 MSTORE PUSH1 0x4 ADD PUSH2 0x781 SWAP1 PUSH2 0x15A4 JUMP JUMPDEST PUSH1 0x40 MLOAD DUP1 SWAP2 SUB SWAP1 REVERT JUMPDEST DUP1 PUSH1 0x6 PUSH0 CALLER PUSH20 0xFFFFFFFFFFFFFFFFFFFFFFFFFFFFFFFFFFFFFFFF AND PUSH20 0xFFFFFFFFFFFFFFFFFFFFFFFFFFFFFFFFFFFFFFFF AND DUP2 MSTORE PUSH1 0x20 ADD SWAP1 DUP2 MSTORE PUSH1 0x20 ADD PUSH0 KECCAK256 PUSH0 DUP3 DUP3 SLOAD PUSH2 0x7D6 SWAP2 SWAP1 PUSH2 0x15EF JUMP JUMPDEST SWAP3 POP POP DUP2 SWAP1 SSTORE POP DUP1 PUSH1 0x4 PUSH0 DUP3 DUP3 SLOAD PUSH2 0x7EE SWAP2 SWAP1 PUSH2 0x15EF JUMP JUMPDEST SWAP3 POP POP DUP2 SWAP1 SSTORE POP CALLER PUSH20 0xFFFFFFFFFFFFFFFFFFFFFFFFFFFFFFFFFFFFFFFF AND PUSH32 0x9A4C731FF1518C7A820E31D32E673B031B8974967931AFB2EEC308066090022D DUP3 PUSH1 0x40 MLOAD PUSH2 0x83B SWAP2 SWAP1 PUSH2 0x1330 JUMP JUMPDEST PUSH1 0x40 MLOAD DUP1 SWAP2 SUB SWAP1 LOG2 PUSH2 0x84B PUSH2 0xF44 JUMP JUMPDEST POP JUMP JUMPDEST PUSH2 0x856 PUSH2 0xF8E JUMP JUMPDEST PUSH2 0x85E PUSH2 0x1015 JUMP JUMPDEST JUMP JUMPDEST PUSH2 0x868 PUSH2 0xF00 JUMP JUMPDEST PUSH2 0x870 PUSH2 0xF4D JUMP JUMPDEST PUSH0 DUP2 GT PUSH2 0x8B2 JUMPI PUSH1 0x40 MLOAD PUSH32 0x8C379A000000000000000000000000000000000000000000000000000000000 DUP2 MSTORE PUSH1 0x4 ADD PUSH2 0x8A9 SWAP1 PUSH2 0x14E1 JUMP JUMPDEST PUSH1 0x40 MLOAD DUP1 SWAP2 SUB SWAP1 REVERT JUMPDEST DUP1 PUSH1 0x6 PUSH0 CALLER PUSH20 0xFFFFFFFFFFFFFFFFFFFFFFFFFFFFFFFFFFFFFFFF AND PUSH20 0xFFFFFFFFFFFFFFFFFFFFFFFFFFFFFFFFFFFFFFFF AND DUP2 MSTORE PUSH1 0x20 ADD SWAP1 DUP2 MSTORE PUSH1 0x20 ADD PUSH0 KECCAK256 SLOAD LT ISZERO PUSH2 0x932 JUMPI PUSH1 0x40 MLOAD PUSH32 0x8C379A000000000000000000000000000000000000000000000000000000000 DUP2 MSTORE PUSH1 0x4 ADD PUSH2 0x929 SWAP1 PUSH2 0x1692 JUMP JUMPDEST PUSH1 0x40 MLOAD DUP1 SWAP2 SUB SWAP1 REVERT JUMPDEST DUP1 PUSH1 0x6 PUSH0 CALLER PUSH20 0xFFFFFFFFFFFFFFFFFFFFFFFFFFFFFFFFFFFFFFFF AND PUSH20 0xFFFFFFFFFFFFFFFFFFFFFFFFFFFFFFFFFFFFFFFF AND DUP2 MSTORE PUSH1 0x20 ADD SWAP1 DUP2 MSTORE PUSH1 0x20 ADD PUSH0 KECCAK256 PUSH0 DUP3 DUP3 SLOAD PUSH2 0x97E SWAP2 SWAP1 PUSH2 0x16B0 JUMP JUMPDEST SWAP3 POP POP DUP2 SWAP1 SSTORE POP DUP1 PUSH1 0x4 PUSH0 DUP3 DUP3 SLOAD PUSH2 0x996 SWAP2 SWAP1 PUSH2 0x16B0 JUMP JUMPDEST SWAP3 POP POP DUP2 SWAP1 SSTORE POP PUSH1 0x2 PUSH0 SWAP1 SLOAD SWAP1 PUSH2 0x100 EXP SWAP1 DIV PUSH20 0xFFFFFFFFFFFFFFFFFFFFFFFFFFFFFFFFFFFFFFFF AND PUSH20 0xFFFFFFFFFFFFFFFFFFFFFFFFFFFFFFFFFFFFFFFF AND PUSH4 0xA9059CBB CALLER DUP4 PUSH1 0x40 MLOAD DUP4 PUSH4 0xFFFFFFFF AND PUSH1 0xE0 SHL DUP2 MSTORE PUSH1 0x4 ADD PUSH2 0x9F9 SWAP3 SWAP2 SWAP1 PUSH2 0x13E5 JUMP JUMPDEST PUSH1 0x20 PUSH1 0x40 MLOAD DUP1 DUP4 SUB DUP2 PUSH0 DUP8 GAS CALL ISZERO DUP1 ISZERO PUSH2 0xA15 JUMPI RETURNDATASIZE PUSH0 DUP1 RETURNDATACOPY RETURNDATASIZE PUSH0 REVERT JUMPDEST POP POP POP POP PUSH1 0x40 MLOAD RETURNDATASIZE PUSH1 0x1F NOT PUSH1 0x1F DUP3 ADD AND DUP3 ADD DUP1 PUSH1 0x40 MSTORE POP DUP2 ADD SWAP1 PUSH2 0xA39 SWAP2 SWAP1 PUSH2 0x1436 JUMP JUMPDEST PUSH2 0xA78 JUMPI PUSH1 0x40 MLOAD PUSH32 0x8C379A000000000000000000000000000000000000000000000000000000000 DUP2 MSTORE PUSH1 0x4 ADD PUSH2 0xA6F SWAP1 PUSH2 0x15A4 JUMP JUMPDEST PUSH1 0x40 MLOAD DUP1 SWAP2 SUB SWAP1 REVERT JUMPDEST CALLER PUSH20 0xFFFFFFFFFFFFFFFFFFFFFFFFFFFFFFFFFFFFFFFF AND PUSH32 0xC01511AC0A76D7DC4D420282166E32AC9366C3F78E450661D140D248B19A4000 DUP3 PUSH1 0x40 MLOAD PUSH2 0xABE SWAP2 SWAP1 PUSH2 0x1330 JUMP JUMPDEST PUSH1 0x40 MLOAD DUP1 SWAP2 SUB SWAP1 LOG2 PUSH2 0xACE PUSH2 0xF44 JUMP JUMPDEST POP JUMP JUMPDEST PUSH0 PUSH1 0x1 PUSH0 SWAP1 SLOAD SWAP1 PUSH2 0x100 EXP SWAP1 DIV PUSH1 0xFF AND SWAP1 POP SWAP1 JUMP JUMPDEST PUSH1 0x3 SLOAD DUP2 JUMP JUMPDEST PUSH2 0xAF4 PUSH2 0xF8E JUMP JUMPDEST PUSH2 0xAFD PUSH0 PUSH2 0x1076 JUMP JUMPDEST JUMP JUMPDEST PUSH2 0xB07 PUSH2 0xF8E JUMP JUMPDEST PUSH2 0xB0F PUSH2 0x1138 JUMP JUMPDEST JUMP JUMPDEST PUSH0 PUSH1 0x1 DUP1 SLOAD SWAP1 PUSH2 0x100 EXP SWAP1 DIV PUSH20 0xFFFFFFFFFFFFFFFFFFFFFFFFFFFFFFFFFFFFFFFF AND SWAP1 POP SWAP1 JUMP JUMPDEST PUSH2 0xB40 PUSH2 0xF00 JUMP JUMPDEST PUSH2 0xB48 PUSH2 0xF4D JUMP JUMPDEST PUSH0 DUP2 GT PUSH2 0xB8A JUMPI PUSH1 0x40 MLOAD PUSH32 0x8C379A000000000000000000000000000000000000000000000000000000000 DUP2 MSTORE PUSH1 0x4 ADD PUSH2 0xB81 SWAP1 PUSH2 0x14E1 JUMP JUMPDEST PUSH1 0x40 MLOAD DUP1 SWAP2 SUB SWAP1 REVERT JUMPDEST DUP1 PUSH1 0x5 PUSH0 CALLER PUSH20 0xFFFFFFFFFFFFFFFFFFFFFFFFFFFFFFFFFFFFFFFF AND PUSH20 0xFFFFFFFFFFFFFFFFFFFFFFFFFFFFFFFFFFFFFFFF AND DUP2 MSTORE PUSH1 0x20 ADD SWAP1 DUP2 MSTORE PUSH1 0x20 ADD PUSH0 KECCAK256 SLOAD LT ISZERO PUSH2 0xC0A JUMPI PUSH1 0x40 MLOAD PUSH32 0x8C379A000000000000000000000000000000000000000000000000000000000 DUP2 MSTORE PUSH1 0x4 ADD PUSH2 0xC01 SWAP1 PUSH2 0x1692 JUMP JUMPDEST PUSH1 0x40 MLOAD DUP1 SWAP2 SUB SWAP1 REVERT JUMPDEST DUP1 PUSH1 0x5 PUSH0 CALLER PUSH20 0xFFFFFFFFFFFFFFFFFFFFFFFFFFFFFFFFFFFFFFFF AND PUSH20 0xFFFFFFFFFFFFFFFFFFFFFFFFFFFFFFFFFFFFFFFF AND DUP2 MSTORE PUSH1 0x20 ADD SWAP1 DUP2 MSTORE PUSH1 0x20 ADD PUSH0 KECCAK256 PUSH0 DUP3 DUP3 SLOAD PUSH2 0xC56 SWAP2 SWAP1 PUSH2 0x16B0 JUMP JUMPDEST SWAP3 POP POP DUP2 SWAP1 SSTORE POP DUP1 PUSH1 0x3 PUSH0 DUP3 DUP3 SLOAD PUSH2 0xC6E SWAP2 SWAP1 PUSH2 0x16B0 JUMP JUMPDEST SWAP3 POP POP DUP2 SWAP1 SSTORE POP CALLER PUSH20 0xFFFFFFFFFFFFFFFFFFFFFFFFFFFFFFFFFFFFFFFF AND PUSH2 0x8FC DUP3 SWAP1 DUP2 ISZERO MUL SWAP1 PUSH1 0x40 MLOAD PUSH0 PUSH1 0x40 MLOAD DUP1 DUP4 SUB DUP2 DUP6 DUP9 DUP9 CALL SWAP4 POP POP POP POP ISZERO DUP1 ISZERO PUSH2 0xCB8 JUMPI RETURNDATASIZE PUSH0 DUP1 RETURNDATACOPY RETURNDATASIZE PUSH0 REVERT JUMPDEST POP CALLER PUSH20 0xFFFFFFFFFFFFFFFFFFFFFFFFFFFFFFFFFFFFFFFF AND PUSH32 0xC3D79D31DC82080BAF59AB3C3058C3C7C4F88F9969422CAA1B42C51577D640B DUP3 PUSH1 0x40 MLOAD PUSH2 0xCFF SWAP2 SWAP1 PUSH2 0x1330 JUMP JUMPDEST PUSH1 0x40 MLOAD DUP1 SWAP2 SUB SWAP1 LOG2 PUSH2 0xD0F PUSH2 0xF44 JUMP JUMPDEST POP JUMP JUMPDEST PUSH1 0x4 SLOAD DUP2 JUMP JUMPDEST PUSH1 0x5 PUSH1 0x20 MSTORE DUP1 PUSH0 MSTORE PUSH1 0x40 PUSH0 KECCAK256 PUSH0 SWAP2 POP SWAP1 POP SLOAD DUP2 JUMP JUMPDEST PUSH1 0x2 PUSH0 SWAP1 SLOAD SWAP1 PUSH2 0x100 EXP SWAP1 DIV PUSH20 0xFFFFFFFFFFFFFFFFFFFFFFFFFFFFFFFFFFFFFFFF AND DUP2 JUMP JUMPDEST PUSH1 0x6 PUSH1 0x20 MSTORE DUP1 PUSH0 MSTORE PUSH1 0x40 PUSH0 KECCAK256 PUSH0 SWAP2 POP SWAP1 POP SLOAD DUP2 JUMP JUMPDEST PUSH2 0xD6F PUSH2 0xF00 JUMP JUMPDEST PUSH2 0xD77 PUSH2 0xF4D JUMP JUMPDEST PUSH0 CALLVALUE GT PUSH2 0xDB9 JUMPI PUSH1 0x40 MLOAD PUSH32 0x8C379A000000000000000000000000000000000000000000000000000000000 DUP2 MSTORE PUSH1 0x4 ADD PUSH2 0xDB0 SWAP1 PUSH2 0x14E1 JUMP JUMPDEST PUSH1 0x40 MLOAD DUP1 SWAP2 SUB SWAP1 REVERT JUMPDEST CALLVALUE PUSH1 0x5 PUSH0 CALLER PUSH20 0xFFFFFFFFFFFFFFFFFFFFFFFFFFFFFFFFFFFFFFFF AND PUSH20 0xFFFFFFFFFFFFFFFFFFFFFFFFFFFFFFFFFFFFFFFF AND DUP2 MSTORE PUSH1 0x20 ADD SWAP1 DUP2 MSTORE PUSH1 0x20 ADD PUSH0 KECCAK256 PUSH0 DUP3 DUP3 SLOAD PUSH2 0xE05 SWAP2 SWAP1 PUSH2 0x15EF JUMP JUMPDEST SWAP3 POP POP DUP2 SWAP1 SSTORE POP CALLVALUE PUSH1 0x3 PUSH0 DUP3 DUP3 SLOAD PUSH2 0xE1D SWAP2 SWAP1 PUSH2 0x15EF JUMP JUMPDEST SWAP3 POP POP DUP2 SWAP1 SSTORE POP CALLER PUSH20 0xFFFFFFFFFFFFFFFFFFFFFFFFFFFFFFFFFFFFFFFF AND PUSH32 0xF5BFA8A3F6A61792F266E3E92249FACCE14EDF2B5FCEEBA5CB6CD0882593A9DA CALLVALUE PUSH1 0x40 MLOAD PUSH2 0xE6A SWAP2 SWAP1 PUSH2 0x1330 JUMP JUMPDEST PUSH1 0x40 MLOAD DUP1 SWAP2 SUB SWAP1 LOG2 PUSH2 0xE7A PUSH2 0xF44 JUMP JUMPDEST JUMP JUMPDEST PUSH2 0xE84 PUSH2 0xF8E JUMP JUMPDEST PUSH0 PUSH20 0xFFFFFFFFFFFFFFFFFFFFFFFFFFFFFFFFFFFFFFFF AND DUP2 PUSH20 0xFFFFFFFFFFFFFFFFFFFFFFFFFFFFFFFFFFFFFFFF AND SUB PUSH2 0xEF4 JUMPI PUSH0 PUSH1 0x40 MLOAD PUSH32 0x1E4FBDF700000000000000000000000000000000000000000000000000000000 DUP2 MSTORE PUSH1 0x4 ADD PUSH2 0xEEB SWAP2 SWAP1 PUSH2 0x1358 JUMP JUMPDEST PUSH1 0x40 MLOAD DUP1 SWAP2 SUB SWAP1 REVERT JUMPDEST PUSH2 0xEFD DUP2 PUSH2 0x1076 JUMP JUMPDEST POP JUMP JUMPDEST PUSH1 0x2 PUSH0 SLOAD SUB PUSH2 0xF3B JUMPI PUSH1 0x40 MLOAD PUSH32 0x3EE5AEB500000000000000000000000000000000000000000000000000000000 DUP2 MSTORE PUSH1 0x4 ADD PUSH1 0x40 MLOAD DUP1 SWAP2 SUB SWAP1 REVERT JUMPDEST PUSH1 0x2 PUSH0 DUP2 SWAP1 SSTORE POP JUMP JUMPDEST PUSH1 0x1 PUSH0 DUP2 SWAP1 SSTORE POP JUMP JUMPDEST PUSH2 0xF55 PUSH2 0xAD1 JUMP JUMPDEST ISZERO PUSH2 0xF8C JUMPI PUSH1 0x40 MLOAD PUSH32 0xD93C066500000000000000000000000000000000000000000000000000000000 DUP2 MSTORE PUSH1 0x4 ADD PUSH1 0x40 MLOAD DUP1 SWAP2 SUB SWAP1 REVERT JUMPDEST JUMP JUMPDEST PUSH2 0xF96 PUSH2 0x1199 JUMP JUMPDEST PUSH20 0xFFFFFFFFFFFFFFFFFFFFFFFFFFFFFFFFFFFFFFFF AND PUSH2 0xFB4 PUSH2 0xB11 JUMP JUMPDEST PUSH20 0xFFFFFFFFFFFFFFFFFFFFFFFFFFFFFFFFFFFFFFFF AND EQ PUSH2 0x1013 JUMPI PUSH2 0xFD7 PUSH2 0x1199 JUMP JUMPDEST PUSH1 0x40 MLOAD PUSH32 0x118CDAA700000000000000000000000000000000000000000000000000000000 DUP2 MSTORE PUSH1 0x4 ADD PUSH2 0x100A SWAP2 SWAP1 PUSH2 0x1358 JUMP JUMPDEST PUSH1 0x40 MLOAD DUP1 SWAP2 SUB SWAP1 REVERT JUMPDEST JUMP JUMPDEST PUSH2 0x101D PUSH2 0x11A0 JUMP JUMPDEST PUSH0 PUSH1 0x1 PUSH0 PUSH2 0x100 EXP DUP2 SLOAD DUP2 PUSH1 0xFF MUL NOT AND SWAP1 DUP4 ISZERO ISZERO MUL OR SWAP1 SSTORE POP PUSH32 0x5DB9EE0A495BF2E6FF9C91A7834C1BA4FDD244A5E8AA4E537BD38AEAE4B073AA PUSH2 0x105F PUSH2 0x1199 JUMP JUMPDEST PUSH1 0x40 MLOAD PUSH2 0x106C SWAP2 SWAP1 PUSH2 0x1358 JUMP JUMPDEST PUSH1 0x40 MLOAD DUP1 SWAP2 SUB SWAP1 LOG1 JUMP JUMPDEST PUSH0 PUSH1 0x1 DUP1 SLOAD SWAP1 PUSH2 0x100 EXP SWAP1 DIV PUSH20 0xFFFFFFFFFFFFFFFFFFFFFFFFFFFFFFFFFFFFFFFF AND SWAP1 POP DUP2 PUSH1 0x1 DUP1 PUSH2 0x100 EXP DUP2 SLOAD DUP2 PUSH20 0xFFFFFFFFFFFFFFFFFFFFFFFFFFFFFFFFFFFFFFFF MUL NOT AND SWAP1 DUP4 PUSH20 0xFFFFFFFFFFFFFFFFFFFFFFFFFFFFFFFFFFFFFFFF AND MUL OR SWAP1 SSTORE POP DUP2 PUSH20 0xFFFFFFFFFFFFFFFFFFFFFFFFFFFFFFFFFFFFFFFF AND DUP2 PUSH20 0xFFFFFFFFFFFFFFFFFFFFFFFFFFFFFFFFFFFFFFFF AND PUSH32 0x8BE0079C531659141344CD1FD0A4F28419497F9722A3DAAFE3B4186F6B6457E0 PUSH1 0x40 MLOAD PUSH1 0x40 MLOAD DUP1 SWAP2 SUB SWAP1 LOG3 POP POP JUMP JUMPDEST PUSH2 0x1140 PUSH2 0xF4D JUMP JUMPDEST PUSH1 0x1 DUP1 PUSH0 PUSH2 0x100 EXP DUP2 SLOAD DUP2 PUSH1 0xFF MUL NOT AND SWAP1 DUP4 ISZERO ISZERO MUL OR SWAP1 SSTORE POP PUSH32 0x62E78CEA01BEE320CD4E420270B5EA74000D11B0C9F74754EBDBFC544B05A258 PUSH2 0x1182 PUSH2 0x1199 JUMP JUMPDEST PUSH1 0x40 MLOAD PUSH2 0x118F SWAP2 SWAP1 PUSH2 0x1358 JUMP JUMPDEST PUSH1 0x40 MLOAD DUP1 SWAP2 SUB SWAP1 LOG1 JUMP JUMPDEST PUSH0 CALLER SWAP1 POP SWAP1 JUMP JUMPDEST PUSH2 0x11A8 PUSH2 0xAD1 JUMP JUMPDEST PUSH2 0x11DE JUMPI PUSH1 0x40 MLOAD PUSH32 0x8DFC202B00000000000000000000000000000000000000000000000000000000 DUP2 MSTORE PUSH1 0x4 ADD PUSH1 0x40 MLOAD DUP1 SWAP2 SUB SWAP1 REVERT JUMPDEST JUMP JUMPDEST PUSH0 DUP1 REVERT JUMPDEST PUSH0 PUSH20 0xFFFFFFFFFFFFFFFFFFFFFFFFFFFFFFFFFFFFFFFF DUP3 AND SWAP1 POP SWAP2 SWAP1 POP JUMP JUMPDEST PUSH0 PUSH2 0x120D DUP3 PUSH2 0x11E4 JUMP JUMPDEST SWAP1 POP SWAP2 SWAP1 POP JUMP JUMPDEST PUSH2 0x121D DUP2 PUSH2 0x1203 JUMP JUMPDEST DUP2 EQ PUSH2 0x1227 JUMPI PUSH0 DUP1 REVERT JUMPDEST POP JUMP JUMPDEST PUSH0 DUP2 CALLDATALOAD SWAP1 POP PUSH2 0x1238 DUP2 PUSH2 0x1214 JUMP JUMPDEST SWAP3 SWAP2 POP POP JUMP JUMPDEST PUSH0 PUSH1 0x20 DUP3 DUP5 SUB SLT ISZERO PUSH2 0x1253 JUMPI PUSH2 0x1252 PUSH2 0x11E0 JUMP JUMPDEST JUMPDEST PUSH0 PUSH2 0x1260 DUP5 DUP3 DUP6 ADD PUSH2 0x122A JUMP JUMPDEST SWAP2 POP POP SWAP3 SWAP2 POP POP JUMP JUMPDEST PUSH0 DUP2 SWAP1 POP SWAP2 SWAP1 POP JUMP JUMPDEST PUSH2 0x127B DUP2 PUSH2 0x1269 JUMP JUMPDEST DUP3 MSTORE POP POP JUMP JUMPDEST PUSH0 PUSH1 0x40 DUP3 ADD SWAP1 POP PUSH2 0x1294 PUSH0 DUP4 ADD DUP6 PUSH2 0x1272 JUMP JUMPDEST PUSH2 0x12A1 PUSH1 0x20 DUP4 ADD DUP5 PUSH2 0x1272 JUMP JUMPDEST SWAP4 SWAP3 POP POP POP JUMP JUMPDEST PUSH2 0x12B1 DUP2 PUSH2 0x1269 JUMP JUMPDEST DUP2 EQ PUSH2 0x12BB JUMPI PUSH0 DUP1 REVERT JUMPDEST POP JUMP JUMPDEST PUSH0 DUP2 CALLDATALOAD SWAP1 POP PUSH2 0x12CC DUP2 PUSH2 0x12A8 JUMP JUMPDEST SWAP3 SWAP2 POP POP JUMP JUMPDEST PUSH0 PUSH1 0x20 DUP3 DUP5 SUB SLT ISZERO PUSH2 0x12E7 JUMPI PUSH2 0x12E6 PUSH2 0x11E0 JUMP JUMPDEST JUMPDEST PUSH0 PUSH2 0x12F4 DUP5 DUP3 DUP6 ADD PUSH2 0x12BE JUMP JUMPDEST SWAP2 POP POP SWAP3 SWAP2 POP POP JUMP JUMPDEST PUSH0 DUP2 ISZERO ISZERO SWAP1 POP SWAP2 SWAP1 POP JUMP JUMPDEST PUSH2 0x1311 DUP2 PUSH2 0x12FD JUMP JUMPDEST DUP3 MSTORE POP POP JUMP JUMPDEST PUSH0 PUSH1 0x20 DUP3 ADD SWAP1 POP PUSH2 0x132A PUSH0 DUP4 ADD DUP5 PUSH2 0x1308 JUMP JUMPDEST SWAP3 SWAP2 POP POP JUMP JUMPDEST PUSH0 PUSH1 0x20 DUP3 ADD SWAP1 POP PUSH2 0x1343 PUSH0 DUP4 ADD DUP5 PUSH2 0x1272 JUMP JUMPDEST SWAP3 SWAP2 POP POP JUMP JUMPDEST PUSH2 0x1352 DUP2 PUSH2 0x1203 JUMP JUMPDEST DUP3 MSTORE POP POP JUMP JUMPDEST PUSH0 PUSH1 0x20 DUP3 ADD SWAP1 POP PUSH2 0x136B PUSH0 DUP4 ADD DUP5 PUSH2 0x1349 JUMP JUMPDEST SWAP3 SWAP2 POP POP JUMP JUMPDEST PUSH0 DUP2 SWAP1 POP SWAP2 SWAP1 POP JUMP JUMPDEST PUSH0 PUSH2 0x1394 PUSH2 0x138F PUSH2 0x138A DUP5 PUSH2 0x11E4 JUMP JUMPDEST PUSH2 0x1371 JUMP JUMPDEST PUSH2 0x11E4 JUMP JUMPDEST SWAP1 POP SWAP2 SWAP1 POP JUMP JUMPDEST PUSH0 PUSH2 0x13A5 DUP3 PUSH2 0x137A JUMP JUMPDEST SWAP1 POP SWAP2 SWAP1 POP JUMP JUMPDEST PUSH0 PUSH2 0x13B6 DUP3 PUSH2 0x139B JUMP JUMPDEST SWAP1 POP SWAP2 SWAP1 POP JUMP JUMPDEST PUSH2 0x13C6 DUP2 PUSH2 0x13AC JUMP JUMPDEST DUP3 MSTORE POP POP JUMP JUMPDEST PUSH0 PUSH1 0x20 DUP3 ADD SWAP1 POP PUSH2 0x13DF PUSH0 DUP4 ADD DUP5 PUSH2 0x13BD JUMP JUMPDEST SWAP3 SWAP2 POP POP JUMP JUMPDEST PUSH0 PUSH1 0x40 DUP3 ADD SWAP1 POP PUSH2 0x13F8 PUSH0 DUP4 ADD DUP6 PUSH2 0x1349 JUMP JUMPDEST PUSH2 0x1405 PUSH1 0x20 DUP4 ADD DUP5 PUSH2 0x1272 JUMP JUMPDEST SWAP4 SWAP3 POP POP POP JUMP JUMPDEST PUSH2 0x1415 DUP2 PUSH2 0x12FD JUMP JUMPDEST DUP2 EQ PUSH2 0x141F JUMPI PUSH0 DUP1 REVERT JUMPDEST POP JUMP JUMPDEST PUSH0 DUP2 MLOAD SWAP1 POP PUSH2 0x1430 DUP2 PUSH2 0x140C JUMP JUMPDEST SWAP3 SWAP2 POP POP JUMP JUMPDEST PUSH0 PUSH1 0x20 DUP3 DUP5 SUB SLT ISZERO PUSH2 0x144B JUMPI PUSH2 0x144A PUSH2 0x11E0 JUMP JUMPDEST JUMPDEST PUSH0 PUSH2 0x1458 DUP5 DUP3 DUP6 ADD PUSH2 0x1422 JUMP JUMPDEST SWAP2 POP POP SWAP3 SWAP2 POP POP JUMP JUMPDEST PUSH0 DUP3 DUP3 MSTORE PUSH1 0x20 DUP3 ADD SWAP1 POP SWAP3 SWAP2 POP POP JUMP JUMPDEST PUSH32 0x436F6C6C61746572616C4D616E616765723A20496E76616C696420616D6F756E PUSH0 DUP3 ADD MSTORE PUSH32 0x7400000000000000000000000000000000000000000000000000000000000000 PUSH1 0x20 DUP3 ADD MSTORE POP JUMP JUMPDEST PUSH0 PUSH2 0x14CB PUSH1 0x21 DUP4 PUSH2 0x1461 JUMP JUMPDEST SWAP2 POP PUSH2 0x14D6 DUP3 PUSH2 0x1471 JUMP JUMPDEST PUSH1 0x40 DUP3 ADD SWAP1 POP SWAP2 SWAP1 POP JUMP JUMPDEST PUSH0 PUSH1 0x20 DUP3 ADD SWAP1 POP DUP2 DUP2 SUB PUSH0 DUP4 ADD MSTORE PUSH2 0x14F8 DUP2 PUSH2 0x14BF JUMP JUMPDEST SWAP1 POP SWAP2 SWAP1 POP JUMP JUMPDEST PUSH0 PUSH1 0x60 DUP3 ADD SWAP1 POP PUSH2 0x1512 PUSH0 DUP4 ADD DUP7 PUSH2 0x1349 JUMP JUMPDEST PUSH2 0x151F PUSH1 0x20 DUP4 ADD DUP6 PUSH2 0x1349 JUMP JUMPDEST PUSH2 0x152C PUSH1 0x40 DUP4 ADD DUP5 PUSH2 0x1272 JUMP JUMPDEST SWAP5 SWAP4 POP POP POP POP JUMP JUMPDEST PUSH32 0x436F6C6C61746572616C4D616E616765723A205472616E73666572206661696C PUSH0 DUP3 ADD MSTORE PUSH32 0x6564000000000000000000000000000000000000000000000000000000000000 PUSH1 0x20 DUP3 ADD MSTORE POP JUMP JUMPDEST PUSH0 PUSH2 0x158E PUSH1 0x22 DUP4 PUSH2 0x1461 JUMP JUMPDEST SWAP2 POP PUSH2 0x1599 DUP3 PUSH2 0x1534 JUMP JUMPDEST PUSH1 0x40 DUP3 ADD SWAP1 POP SWAP2 SWAP1 POP JUMP JUMPDEST PUSH0 PUSH1 0x20 DUP3 ADD SWAP1 POP DUP2 DUP2 SUB PUSH0 DUP4 ADD MSTORE PUSH2 0x15BB DUP2 PUSH2 0x1582 JUMP JUMPDEST SWAP1 POP SWAP2 SWAP1 POP JUMP JUMPDEST PUSH32 0x4E487B7100000000000000000000000000000000000000000000000000000000 PUSH0 MSTORE PUSH1 0x11 PUSH1 0x4 MSTORE PUSH1 0x24 PUSH0 REVERT JUMPDEST PUSH0 PUSH2 0x15F9 DUP3 PUSH2 0x1269 JUMP JUMPDEST SWAP2 POP PUSH2 0x1604 DUP4 PUSH2 0x1269 JUMP JUMPDEST SWAP3 POP DUP3 DUP3 ADD SWAP1 POP DUP1 DUP3 GT ISZERO PUSH2 0x161C JUMPI PUSH2 0x161B PUSH2 0x15C2 JUMP JUMPDEST JUMPDEST SWAP3 SWAP2 POP POP JUMP JUMPDEST PUSH32 0x436F6C6C61746572616C4D616E616765723A20496E73756666696369656E7420 PUSH0 DUP3 ADD MSTORE PUSH32 0x62616C616E636500000000000000000000000000000000000000000000000000 PUSH1 0x20 DUP3 ADD MSTORE POP JUMP JUMPDEST PUSH0 PUSH2 0x167C PUSH1 0x27 DUP4 PUSH2 0x1461 JUMP JUMPDEST SWAP2 POP PUSH2 0x1687 DUP3 PUSH2 0x1622 JUMP JUMPDEST PUSH1 0x40 DUP3 ADD SWAP1 POP SWAP2 SWAP1 POP JUMP JUMPDEST PUSH0 PUSH1 0x20 DUP3 ADD SWAP1 POP DUP2 DUP2 SUB PUSH0 DUP4 ADD MSTORE PUSH2 0x16A9 DUP2 PUSH2 0x1670 JUMP JUMPDEST SWAP1 POP SWAP2 SWAP1 POP JUMP JUMPDEST PUSH0 PUSH2 0x16BA DUP3 PUSH2 0x1269 JUMP JUMPDEST SWAP2 POP PUSH2 0x16C5 DUP4 PUSH2 0x1269 JUMP JUMPDEST SWAP3 POP DUP3 DUP3 SUB SWAP1 POP DUP2 DUP2 GT ISZERO PUSH2 0x16DD JUMPI PUSH2 0x16DC PUSH2 0x15C2 JUMP JUMPDEST JUMPDEST SWAP3 SWAP2 POP POP JUMP INVALID LOG2 PUSH5 0x6970667358 0x22 SLT KECCAK256 PUSH7 0x73CA50E8F3B62F SWAP7 0xD5 0xDF ADD JUMPDEST 0xD3 0xD0 0xE1 GASPRICE 0xA6 0xD1 DUP4 PUSH24 0xD8807C3F6325224257A29C64736F6C634300081400330000 "
				},
				"gasEstimates": {
					"creation": {
						"codeDepositCost": "1182600",
						"executionCost": "infinite",
						"totalCost": "infinite"
					},
					"external": {
						"depositCeloCollateral()": "infinite",
						"depositUsdtCollateral(uint256)": "infinite",
						"getCollateralBalance(address)": "infinite",
						"liquidateCollateral(address)": "57093",
						"owner()": "2608",
						"pause()": "infinite",
						"paused()": "2540",
						"releaseFunds(address)": "infinite",
						"renounceOwnership()": "infinite",
						"totalCollateralCelo()": "2514",
						"totalCollateralUsdt()": "2514",
						"transferOwnership(address)": "infinite",
						"unpause()": "infinite",
						"usdtToken()": "infinite",
						"userCollateralCelo(address)": "2824",
						"userCollateralUsdt(address)": "2868",
						"withdrawCeloCollateral(uint256)": "infinite",
						"withdrawUsdtCollateral(uint256)": "infinite"
					}
				},
				"methodIdentifiers": {
					"depositCeloCollateral()": "d57ac70d",
					"depositUsdtCollateral(uint256)": "2f5723d5",
					"getCollateralBalance(address)": "2703ee85",
					"liquidateCollateral(address)": "1fea5a6b",
					"owner()": "8da5cb5b",
					"pause()": "8456cb59",
					"paused()": "5c975abb",
					"releaseFunds(address)": "192e7a7b",
					"renounceOwnership()": "715018a6",
					"totalCollateralCelo()": "60b3b338",
					"totalCollateralUsdt()": "9083baa6",
					"transferOwnership(address)": "f2fde38b",
					"unpause()": "3f4ba83a",
					"usdtToken()": "a98ad46c",
					"userCollateralCelo(address)": "9e30bce7",
					"userCollateralUsdt(address)": "c3b2a4a4",
					"withdrawCeloCollateral(uint256)": "8e817efe",
					"withdrawUsdtCollateral(uint256)": "52ce9714"
				}
			},
			"storageLayout": {
				"storage": [
					{
						"astId": 1107,
						"contract": "contracts/CollateralManager.sol:CollateralManager",
						"label": "_status",
						"offset": 0,
						"slot": "0",
						"type": "t_uint256"
					},
					{
						"astId": 988,
						"contract": "contracts/CollateralManager.sol:CollateralManager",
						"label": "_paused",
						"offset": 0,
						"slot": "1",
						"type": "t_bool"
					},
					{
						"astId": 54,
						"contract": "contracts/CollateralManager.sol:CollateralManager",
						"label": "_owner",
						"offset": 1,
						"slot": "1",
						"type": "t_address"
					},
					{
						"astId": 1180,
						"contract": "contracts/CollateralManager.sol:CollateralManager",
						"label": "usdtToken",
						"offset": 0,
						"slot": "2",
						"type": "t_contract(ERC20)845"
					},
					{
						"astId": 1182,
						"contract": "contracts/CollateralManager.sol:CollateralManager",
						"label": "totalCollateralCelo",
						"offset": 0,
						"slot": "3",
						"type": "t_uint256"
					},
					{
						"astId": 1184,
						"contract": "contracts/CollateralManager.sol:CollateralManager",
						"label": "totalCollateralUsdt",
						"offset": 0,
						"slot": "4",
						"type": "t_uint256"
					},
					{
						"astId": 1188,
						"contract": "contracts/CollateralManager.sol:CollateralManager",
						"label": "userCollateralCelo",
						"offset": 0,
						"slot": "5",
						"type": "t_mapping(t_address,t_uint256)"
					},
					{
						"astId": 1192,
						"contract": "contracts/CollateralManager.sol:CollateralManager",
						"label": "userCollateralUsdt",
						"offset": 0,
						"slot": "6",
						"type": "t_mapping(t_address,t_uint256)"
					}
				],
				"types": {
					"t_address": {
						"encoding": "inplace",
						"label": "address",
						"numberOfBytes": "20"
					},
					"t_bool": {
						"encoding": "inplace",
						"label": "bool",
						"numberOfBytes": "1"
					},
					"t_contract(ERC20)845": {
						"encoding": "inplace",
						"label": "contract ERC20",
						"numberOfBytes": "20"
					},
					"t_mapping(t_address,t_uint256)": {
						"encoding": "mapping",
						"key": "t_address",
						"label": "mapping(address => uint256)",
						"numberOfBytes": "32",
						"value": "t_uint256"
					},
					"t_uint256": {
						"encoding": "inplace",
						"label": "uint256",
						"numberOfBytes": "32"
					}
				}
			},
			"userdoc": {
				"kind": "user",
				"methods": {},
				"version": 1
			}
		}
	}
}