{
	"contracts/CollateralManager.sol": {
		"CollateralManager": {
			"abi": [
				{
					"inputs": [
						{
							"internalType": "contract IERC20",
							"name": "_collateralToken",
							"type": "address"
						},
						{
							"internalType": "address",
							"name": "_priceOracleAddress",
							"type": "address"
						}
					],
					"stateMutability": "nonpayable",
					"type": "constructor"
				},
				{
					"inputs": [],
					"name": "EnforcedPause",
					"type": "error"
				},
				{
					"inputs": [],
					"name": "ExpectedPause",
					"type": "error"
				},
				{
					"inputs": [
						{
							"internalType": "address",
							"name": "owner",
							"type": "address"
						}
					],
					"name": "OwnableInvalidOwner",
					"type": "error"
				},
				{
					"inputs": [
						{
							"internalType": "address",
							"name": "account",
							"type": "address"
						}
					],
					"name": "OwnableUnauthorizedAccount",
					"type": "error"
				},
				{
					"inputs": [],
					"name": "ReentrancyGuardReentrantCall",
					"type": "error"
				},
				{
					"anonymous": false,
					"inputs": [
						{
							"indexed": true,
							"internalType": "address",
							"name": "user",
							"type": "address"
						},
						{
							"indexed": false,
							"internalType": "uint256",
							"name": "amount",
							"type": "uint256"
						}
					],
					"name": "CeloCollateralDeposited",
					"type": "event"
				},
				{
					"anonymous": false,
					"inputs": [
						{
							"indexed": true,
							"internalType": "address",
							"name": "user",
							"type": "address"
						},
						{
							"indexed": false,
							"internalType": "uint256",
							"name": "amount",
							"type": "uint256"
						}
					],
					"name": "CeloCollateralWithdrawn",
					"type": "event"
				},
				{
					"anonymous": false,
					"inputs": [
						{
							"indexed": true,
							"internalType": "address",
							"name": "previousOwner",
							"type": "address"
						},
						{
							"indexed": true,
							"internalType": "address",
							"name": "newOwner",
							"type": "address"
						}
					],
					"name": "OwnershipTransferred",
					"type": "event"
				},
				{
					"anonymous": false,
					"inputs": [
						{
							"indexed": false,
							"internalType": "address",
							"name": "account",
							"type": "address"
						}
					],
					"name": "Paused",
					"type": "event"
				},
				{
					"anonymous": false,
					"inputs": [
						{
							"indexed": false,
							"internalType": "address",
							"name": "account",
							"type": "address"
						}
					],
					"name": "Unpaused",
					"type": "event"
				},
				{
					"anonymous": false,
					"inputs": [
						{
							"indexed": true,
							"internalType": "address",
							"name": "user",
							"type": "address"
						},
						{
							"indexed": false,
							"internalType": "uint256",
							"name": "amount",
							"type": "uint256"
						}
					],
					"name": "UsdtCollateralDeposited",
					"type": "event"
				},
				{
					"anonymous": false,
					"inputs": [
						{
							"indexed": true,
							"internalType": "address",
							"name": "user",
							"type": "address"
						},
						{
							"indexed": false,
							"internalType": "uint256",
							"name": "amount",
							"type": "uint256"
						}
					],
					"name": "UsdtCollateralWithdrawn",
					"type": "event"
				},
				{
					"inputs": [],
					"name": "depositCeloCollateral",
					"outputs": [],
					"stateMutability": "payable",
					"type": "function"
				},
				{
					"inputs": [
						{
							"internalType": "uint256",
							"name": "_amount",
							"type": "uint256"
						}
					],
					"name": "depositUsdtCollateral",
					"outputs": [],
					"stateMutability": "nonpayable",
					"type": "function"
				},
				{
					"inputs": [
						{
							"internalType": "address",
							"name": "_user",
							"type": "address"
						}
					],
					"name": "getCollateralBalance",
					"outputs": [
						{
							"internalType": "uint256",
							"name": "celo",
							"type": "uint256"
						},
						{
							"internalType": "uint256",
							"name": "usdt",
							"type": "uint256"
						}
					],
					"stateMutability": "view",
					"type": "function"
				},
				{
					"inputs": [
						{
							"internalType": "address",
							"name": "_user",
							"type": "address"
						}
					],
					"name": "getCollateralBalanceinUSD",
					"outputs": [
						{
							"internalType": "uint256",
							"name": "",
							"type": "uint256"
						}
					],
					"stateMutability": "view",
					"type": "function"
				},
				{
					"inputs": [],
					"name": "maxCollateralAmount",
					"outputs": [
						{
							"internalType": "uint256",
							"name": "",
							"type": "uint256"
						}
					],
					"stateMutability": "view",
					"type": "function"
				},
				{
					"inputs": [],
					"name": "minCollateralAmount",
					"outputs": [
						{
							"internalType": "uint256",
							"name": "",
							"type": "uint256"
						}
					],
					"stateMutability": "view",
					"type": "function"
				},
				{
					"inputs": [],
					"name": "owner",
					"outputs": [
						{
							"internalType": "address",
							"name": "",
							"type": "address"
						}
					],
					"stateMutability": "view",
					"type": "function"
				},
				{
					"inputs": [],
					"name": "pause",
					"outputs": [],
					"stateMutability": "nonpayable",
					"type": "function"
				},
				{
					"inputs": [],
					"name": "paused",
					"outputs": [
						{
							"internalType": "bool",
							"name": "",
							"type": "bool"
						}
					],
					"stateMutability": "view",
					"type": "function"
				},
				{
					"inputs": [],
					"name": "priceOracle",
					"outputs": [
						{
							"internalType": "contract MellowFiPriceOracle",
							"name": "",
							"type": "address"
						}
					],
					"stateMutability": "view",
					"type": "function"
				},
				{
					"inputs": [
						{
							"internalType": "address",
							"name": "user",
							"type": "address"
						}
					],
					"name": "releaseFunds",
					"outputs": [],
					"stateMutability": "nonpayable",
					"type": "function"
				},
				{
					"inputs": [],
					"name": "renounceOwnership",
					"outputs": [],
					"stateMutability": "nonpayable",
					"type": "function"
				},
				{
					"inputs": [],
					"name": "totalCollateralCelo",
					"outputs": [
						{
							"internalType": "uint256",
							"name": "",
							"type": "uint256"
						}
					],
					"stateMutability": "view",
					"type": "function"
				},
				{
					"inputs": [],
					"name": "totalCollateralUsdt",
					"outputs": [
						{
							"internalType": "uint256",
							"name": "",
							"type": "uint256"
						}
					],
					"stateMutability": "view",
					"type": "function"
				},
				{
					"inputs": [
						{
							"internalType": "address",
							"name": "newOwner",
							"type": "address"
						}
					],
					"name": "transferOwnership",
					"outputs": [],
					"stateMutability": "nonpayable",
					"type": "function"
				},
				{
					"inputs": [],
					"name": "unpause",
					"outputs": [],
					"stateMutability": "nonpayable",
					"type": "function"
				},
				{
					"inputs": [],
					"name": "usdtToken",
					"outputs": [
						{
							"internalType": "contract IERC20",
							"name": "",
							"type": "address"
						}
					],
					"stateMutability": "view",
					"type": "function"
				},
				{
					"inputs": [
						{
							"internalType": "address",
							"name": "",
							"type": "address"
						}
					],
					"name": "userCollateralCelo",
					"outputs": [
						{
							"internalType": "uint256",
							"name": "",
							"type": "uint256"
						}
					],
					"stateMutability": "view",
					"type": "function"
				},
				{
					"inputs": [
						{
							"internalType": "address",
							"name": "",
							"type": "address"
						}
					],
					"name": "userCollateralUsdt",
					"outputs": [
						{
							"internalType": "uint256",
							"name": "",
							"type": "uint256"
						}
					],
					"stateMutability": "view",
					"type": "function"
				},
				{
					"inputs": [
						{
							"internalType": "uint256",
							"name": "_amount",
							"type": "uint256"
						}
					],
					"name": "withdrawCeloCollateral",
					"outputs": [],
					"stateMutability": "nonpayable",
					"type": "function"
				},
				{
					"inputs": [
						{
							"internalType": "uint256",
							"name": "_amount",
							"type": "uint256"
						}
					],
					"name": "withdrawUsdtCollateral",
					"outputs": [],
					"stateMutability": "nonpayable",
					"type": "function"
				}
			],
			"devdoc": {
				"errors": {
					"EnforcedPause()": [
						{
							"details": "The operation failed because the contract is paused."
						}
					],
					"ExpectedPause()": [
						{
							"details": "The operation failed because the contract is not paused."
						}
					],
					"OwnableInvalidOwner(address)": [
						{
							"details": "The owner is not a valid owner account. (eg. `address(0)`)"
						}
					],
					"OwnableUnauthorizedAccount(address)": [
						{
							"details": "The caller account is not authorized to perform an operation."
						}
					],
					"ReentrancyGuardReentrantCall()": [
						{
							"details": "Unauthorized reentrant call."
						}
					]
				},
				"events": {
					"Paused(address)": {
						"details": "Emitted when the pause is triggered by `account`."
					},
					"Unpaused(address)": {
						"details": "Emitted when the pause is lifted by `account`."
					}
				},
				"kind": "dev",
				"methods": {
					"owner()": {
						"details": "Returns the address of the current owner."
					},
					"paused()": {
						"details": "Returns true if the contract is paused, and false otherwise."
					},
					"renounceOwnership()": {
						"details": "Leaves the contract without owner. It will not be possible to call `onlyOwner` functions. Can only be called by the current owner. NOTE: Renouncing ownership will leave the contract without an owner, thereby disabling any functionality that is only available to the owner."
					},
					"transferOwnership(address)": {
						"details": "Transfers ownership of the contract to a new account (`newOwner`). Can only be called by the current owner."
					}
				},
				"version": 1
			},
			"evm": {
				"assembly": "    /* \"contracts/CollateralManager.sol\":318:4327  contract CollateralManager is ReentrancyGuard, Pausable, Ownable {... */\n  mstore(0x40, 0x80)\n    /* \"contracts/CollateralManager.sol\":580:587  1 ether */\n  0x0de0b6b3a7640000\n    /* \"contracts/CollateralManager.sol\":543:587  uint256 public minCollateralAmount = 1 ether */\n  0x06\n  sstore\n    /* \"contracts/CollateralManager.sol\":631:641  1000 ether */\n  0x3635c9adc5dea00000\n    /* \"contracts/CollateralManager.sol\":594:641  uint256 public maxCollateralAmount = 1000 ether */\n  0x07\n  sstore\n    /* \"contracts/CollateralManager.sol\":1123:1321  constructor(IERC20 _collateralToken,... */\n  callvalue\n  dup1\n  iszero\n  tag_1\n  jumpi\n  0x00\n  dup1\n  revert\ntag_1:\n  pop\n  mload(0x40)\n  sub(codesize, bytecodeSize)\n  dup1\n  bytecodeSize\n  dup4\n  codecopy\n  dup2\n  dup2\n  add\n  0x40\n  mstore\n  dup2\n  add\n  swap1\n  tag_2\n  swap2\n  swap1\n  tag_3\n  jump\t// in\ntag_2:\n    /* \"contracts/CollateralManager.sol\":1201:1211  msg.sender */\n  caller\n    /* \"@openzeppelin/contracts/utils/ReentrancyGuard.sol\":1713:1714  1 */\n  0x01\n    /* \"@openzeppelin/contracts/utils/ReentrancyGuard.sol\":1917:1924  _status */\n  0x00\n    /* \"@openzeppelin/contracts/utils/ReentrancyGuard.sol\":1917:1938  _status = NOT_ENTERED */\n  dup2\n  swap1\n  sstore\n  pop\n    /* \"@openzeppelin/contracts/utils/Pausable.sol\":1241:1246  false */\n  0x00\n    /* \"@openzeppelin/contracts/utils/Pausable.sol\":1231:1238  _paused */\n  0x01\n  0x00\n    /* \"@openzeppelin/contracts/utils/Pausable.sol\":1231:1246  _paused = false */\n  0x0100\n  exp\n  dup2\n  sload\n  dup2\n  0xff\n  mul\n  not\n  and\n  swap1\n  dup4\n  iszero\n  iszero\n  mul\n  or\n  swap1\n  sstore\n  pop\n    /* \"@openzeppelin/contracts/access/Ownable.sol\":1297:1298  0 */\n  0x00\n    /* \"@openzeppelin/contracts/access/Ownable.sol\":1273:1299  initialOwner == address(0) */\n  0xffffffffffffffffffffffffffffffffffffffff\n  and\n    /* \"@openzeppelin/contracts/access/Ownable.sol\":1273:1285  initialOwner */\n  dup2\n    /* \"@openzeppelin/contracts/access/Ownable.sol\":1273:1299  initialOwner == address(0) */\n  0xffffffffffffffffffffffffffffffffffffffff\n  and\n  sub\n    /* \"@openzeppelin/contracts/access/Ownable.sol\":1269:1364  if (initialOwner == address(0)) {... */\n  tag_11\n  jumpi\n    /* \"@openzeppelin/contracts/access/Ownable.sol\":1350:1351  0 */\n  0x00\n    /* \"@openzeppelin/contracts/access/Ownable.sol\":1322:1353  OwnableInvalidOwner(address(0)) */\n  mload(0x40)\n  0x1e4fbdf700000000000000000000000000000000000000000000000000000000\n  dup2\n  mstore\n  0x04\n  add\n  tag_12\n  swap2\n  swap1\n  tag_13\n  jump\t// in\ntag_12:\n  mload(0x40)\n  dup1\n  swap2\n  sub\n  swap1\n  revert\n    /* \"@openzeppelin/contracts/access/Ownable.sol\":1269:1364  if (initialOwner == address(0)) {... */\ntag_11:\n    /* \"@openzeppelin/contracts/access/Ownable.sol\":1373:1405  _transferOwnership(initialOwner) */\n  tag_14\n    /* \"@openzeppelin/contracts/access/Ownable.sol\":1392:1404  initialOwner */\n  dup2\n    /* \"@openzeppelin/contracts/access/Ownable.sol\":1373:1391  _transferOwnership */\n  shl(0x20, tag_15)\n    /* \"@openzeppelin/contracts/access/Ownable.sol\":1373:1405  _transferOwnership(initialOwner) */\n  0x20\n  shr\n  jump\t// in\ntag_14:\n    /* \"@openzeppelin/contracts/access/Ownable.sol\":1225:1412  constructor(address initialOwner) {... */\n  pop\n    /* \"contracts/CollateralManager.sol\":1234:1250  _collateralToken */\n  dup2\n    /* \"contracts/CollateralManager.sol\":1222:1231  usdtToken */\n  0x02\n  0x00\n    /* \"contracts/CollateralManager.sol\":1222:1250  usdtToken = _collateralToken */\n  0x0100\n  exp\n  dup2\n  sload\n  dup2\n  0xffffffffffffffffffffffffffffffffffffffff\n  mul\n  not\n  and\n  swap1\n  dup4\n  0xffffffffffffffffffffffffffffffffffffffff\n  and\n  mul\n  or\n  swap1\n  sstore\n  pop\n    /* \"contracts/CollateralManager.sol\":1294:1313  _priceOracleAddress */\n  dup1\n    /* \"contracts/CollateralManager.sol\":1260:1271  priceOracle */\n  0x03\n  0x00\n    /* \"contracts/CollateralManager.sol\":1260:1314  priceOracle = MellowFiPriceOracle(_priceOracleAddress) */\n  0x0100\n  exp\n  dup2\n  sload\n  dup2\n  0xffffffffffffffffffffffffffffffffffffffff\n  mul\n  not\n  and\n  swap1\n  dup4\n  0xffffffffffffffffffffffffffffffffffffffff\n  and\n  mul\n  or\n  swap1\n  sstore\n  pop\n    /* \"contracts/CollateralManager.sol\":1123:1321  constructor(IERC20 _collateralToken,... */\n  pop\n  pop\n    /* \"contracts/CollateralManager.sol\":318:4327  contract CollateralManager is ReentrancyGuard, Pausable, Ownable {... */\n  jump(tag_17)\n    /* \"@openzeppelin/contracts/access/Ownable.sol\":2912:3099  function _transferOwnership(address newOwner) internal virtual {... */\ntag_15:\n    /* \"@openzeppelin/contracts/access/Ownable.sol\":2985:3001  address oldOwner */\n  0x00\n    /* \"@openzeppelin/contracts/access/Ownable.sol\":3004:3010  _owner */\n  0x01\n  dup1\n  sload\n  swap1\n  0x0100\n  exp\n  swap1\n  div\n  0xffffffffffffffffffffffffffffffffffffffff\n  and\n    /* \"@openzeppelin/contracts/access/Ownable.sol\":2985:3010  address oldOwner = _owner */\n  swap1\n  pop\n    /* \"@openzeppelin/contracts/access/Ownable.sol\":3029:3037  newOwner */\n  dup2\n    /* \"@openzeppelin/contracts/access/Ownable.sol\":3020:3026  _owner */\n  0x01\n  dup1\n    /* \"@openzeppelin/contracts/access/Ownable.sol\":3020:3037  _owner = newOwner */\n  0x0100\n  exp\n  dup2\n  sload\n  dup2\n  0xffffffffffffffffffffffffffffffffffffffff\n  mul\n  not\n  and\n  swap1\n  dup4\n  0xffffffffffffffffffffffffffffffffffffffff\n  and\n  mul\n  or\n  swap1\n  sstore\n  pop\n    /* \"@openzeppelin/contracts/access/Ownable.sol\":3083:3091  newOwner */\n  dup2\n    /* \"@openzeppelin/contracts/access/Ownable.sol\":3052:3092  OwnershipTransferred(oldOwner, newOwner) */\n  0xffffffffffffffffffffffffffffffffffffffff\n  and\n    /* \"@openzeppelin/contracts/access/Ownable.sol\":3073:3081  oldOwner */\n  dup2\n    /* \"@openzeppelin/contracts/access/Ownable.sol\":3052:3092  OwnershipTransferred(oldOwner, newOwner) */\n  0xffffffffffffffffffffffffffffffffffffffff\n  and\n  0x8be0079c531659141344cd1fd0a4f28419497f9722a3daafe3b4186f6b6457e0\n  mload(0x40)\n  mload(0x40)\n  dup1\n  swap2\n  sub\n  swap1\n  log3\n    /* \"@openzeppelin/contracts/access/Ownable.sol\":2975:3099  {... */\n  pop\n    /* \"@openzeppelin/contracts/access/Ownable.sol\":2912:3099  function _transferOwnership(address newOwner) internal virtual {... */\n  pop\n  jump\t// out\n    /* \"#utility.yul\":88:205   */\ntag_20:\n    /* \"#utility.yul\":197:198   */\n  0x00\n    /* \"#utility.yul\":194:195   */\n  dup1\n    /* \"#utility.yul\":187:199   */\n  revert\n    /* \"#utility.yul\":334:460   */\ntag_22:\n    /* \"#utility.yul\":371:378   */\n  0x00\n    /* \"#utility.yul\":411:453   */\n  0xffffffffffffffffffffffffffffffffffffffff\n    /* \"#utility.yul\":404:409   */\n  dup3\n    /* \"#utility.yul\":400:454   */\n  and\n    /* \"#utility.yul\":389:454   */\n  swap1\n  pop\n    /* \"#utility.yul\":334:460   */\n  swap2\n  swap1\n  pop\n  jump\t// out\n    /* \"#utility.yul\":466:562   */\ntag_23:\n    /* \"#utility.yul\":503:510   */\n  0x00\n    /* \"#utility.yul\":532:556   */\n  tag_36\n    /* \"#utility.yul\":550:555   */\n  dup3\n    /* \"#utility.yul\":532:556   */\n  tag_22\n  jump\t// in\ntag_36:\n    /* \"#utility.yul\":521:556   */\n  swap1\n  pop\n    /* \"#utility.yul\":466:562   */\n  swap2\n  swap1\n  pop\n  jump\t// out\n    /* \"#utility.yul\":568:678   */\ntag_24:\n    /* \"#utility.yul\":619:626   */\n  0x00\n    /* \"#utility.yul\":648:672   */\n  tag_38\n    /* \"#utility.yul\":666:671   */\n  dup3\n    /* \"#utility.yul\":648:672   */\n  tag_23\n  jump\t// in\ntag_38:\n    /* \"#utility.yul\":637:672   */\n  swap1\n  pop\n    /* \"#utility.yul\":568:678   */\n  swap2\n  swap1\n  pop\n  jump\t// out\n    /* \"#utility.yul\":684:834   */\ntag_25:\n    /* \"#utility.yul\":771:809   */\n  tag_40\n    /* \"#utility.yul\":803:808   */\n  dup2\n    /* \"#utility.yul\":771:809   */\n  tag_24\n  jump\t// in\ntag_40:\n    /* \"#utility.yul\":764:769   */\n  dup2\n    /* \"#utility.yul\":761:810   */\n  eq\n    /* \"#utility.yul\":751:828   */\n  tag_41\n  jumpi\n    /* \"#utility.yul\":824:825   */\n  0x00\n    /* \"#utility.yul\":821:822   */\n  dup1\n    /* \"#utility.yul\":814:826   */\n  revert\n    /* \"#utility.yul\":751:828   */\ntag_41:\n    /* \"#utility.yul\":684:834   */\n  pop\n  jump\t// out\n    /* \"#utility.yul\":840:1011   */\ntag_26:\n    /* \"#utility.yul\":911:916   */\n  0x00\n    /* \"#utility.yul\":942:948   */\n  dup2\n    /* \"#utility.yul\":936:949   */\n  mload\n    /* \"#utility.yul\":927:949   */\n  swap1\n  pop\n    /* \"#utility.yul\":958:1005   */\n  tag_43\n    /* \"#utility.yul\":999:1004   */\n  dup2\n    /* \"#utility.yul\":958:1005   */\n  tag_25\n  jump\t// in\ntag_43:\n    /* \"#utility.yul\":840:1011   */\n  swap3\n  swap2\n  pop\n  pop\n  jump\t// out\n    /* \"#utility.yul\":1017:1139   */\ntag_27:\n    /* \"#utility.yul\":1090:1114   */\n  tag_45\n    /* \"#utility.yul\":1108:1113   */\n  dup2\n    /* \"#utility.yul\":1090:1114   */\n  tag_23\n  jump\t// in\ntag_45:\n    /* \"#utility.yul\":1083:1088   */\n  dup2\n    /* \"#utility.yul\":1080:1115   */\n  eq\n    /* \"#utility.yul\":1070:1133   */\n  tag_46\n  jumpi\n    /* \"#utility.yul\":1129:1130   */\n  0x00\n    /* \"#utility.yul\":1126:1127   */\n  dup1\n    /* \"#utility.yul\":1119:1131   */\n  revert\n    /* \"#utility.yul\":1070:1133   */\ntag_46:\n    /* \"#utility.yul\":1017:1139   */\n  pop\n  jump\t// out\n    /* \"#utility.yul\":1145:1288   */\ntag_28:\n    /* \"#utility.yul\":1202:1207   */\n  0x00\n    /* \"#utility.yul\":1233:1239   */\n  dup2\n    /* \"#utility.yul\":1227:1240   */\n  mload\n    /* \"#utility.yul\":1218:1240   */\n  swap1\n  pop\n    /* \"#utility.yul\":1249:1282   */\n  tag_48\n    /* \"#utility.yul\":1276:1281   */\n  dup2\n    /* \"#utility.yul\":1249:1282   */\n  tag_27\n  jump\t// in\ntag_48:\n    /* \"#utility.yul\":1145:1288   */\n  swap3\n  swap2\n  pop\n  pop\n  jump\t// out\n    /* \"#utility.yul\":1294:1829   */\ntag_3:\n    /* \"#utility.yul\":1387:1393   */\n  0x00\n    /* \"#utility.yul\":1395:1401   */\n  dup1\n    /* \"#utility.yul\":1444:1446   */\n  0x40\n    /* \"#utility.yul\":1432:1441   */\n  dup4\n    /* \"#utility.yul\":1423:1430   */\n  dup6\n    /* \"#utility.yul\":1419:1442   */\n  sub\n    /* \"#utility.yul\":1415:1447   */\n  slt\n    /* \"#utility.yul\":1412:1531   */\n  iszero\n  tag_50\n  jumpi\n    /* \"#utility.yul\":1450:1529   */\n  tag_51\n  tag_20\n  jump\t// in\ntag_51:\n    /* \"#utility.yul\":1412:1531   */\ntag_50:\n    /* \"#utility.yul\":1570:1571   */\n  0x00\n    /* \"#utility.yul\":1595:1673   */\n  tag_52\n    /* \"#utility.yul\":1665:1672   */\n  dup6\n    /* \"#utility.yul\":1656:1662   */\n  dup3\n    /* \"#utility.yul\":1645:1654   */\n  dup7\n    /* \"#utility.yul\":1641:1663   */\n  add\n    /* \"#utility.yul\":1595:1673   */\n  tag_26\n  jump\t// in\ntag_52:\n    /* \"#utility.yul\":1585:1673   */\n  swap3\n  pop\n    /* \"#utility.yul\":1541:1683   */\n  pop\n    /* \"#utility.yul\":1722:1724   */\n  0x20\n    /* \"#utility.yul\":1748:1812   */\n  tag_53\n    /* \"#utility.yul\":1804:1811   */\n  dup6\n    /* \"#utility.yul\":1795:1801   */\n  dup3\n    /* \"#utility.yul\":1784:1793   */\n  dup7\n    /* \"#utility.yul\":1780:1802   */\n  add\n    /* \"#utility.yul\":1748:1812   */\n  tag_28\n  jump\t// in\ntag_53:\n    /* \"#utility.yul\":1738:1812   */\n  swap2\n  pop\n    /* \"#utility.yul\":1693:1822   */\n  pop\n    /* \"#utility.yul\":1294:1829   */\n  swap3\n  pop\n  swap3\n  swap1\n  pop\n  jump\t// out\n    /* \"#utility.yul\":1835:1953   */\ntag_29:\n    /* \"#utility.yul\":1922:1946   */\n  tag_55\n    /* \"#utility.yul\":1940:1945   */\n  dup2\n    /* \"#utility.yul\":1922:1946   */\n  tag_23\n  jump\t// in\ntag_55:\n    /* \"#utility.yul\":1917:1920   */\n  dup3\n    /* \"#utility.yul\":1910:1947   */\n  mstore\n    /* \"#utility.yul\":1835:1953   */\n  pop\n  pop\n  jump\t// out\n    /* \"#utility.yul\":1959:2181   */\ntag_13:\n    /* \"#utility.yul\":2052:2056   */\n  0x00\n    /* \"#utility.yul\":2090:2092   */\n  0x20\n    /* \"#utility.yul\":2079:2088   */\n  dup3\n    /* \"#utility.yul\":2075:2093   */\n  add\n    /* \"#utility.yul\":2067:2093   */\n  swap1\n  pop\n    /* \"#utility.yul\":2103:2174   */\n  tag_57\n    /* \"#utility.yul\":2171:2172   */\n  0x00\n    /* \"#utility.yul\":2160:2169   */\n  dup4\n    /* \"#utility.yul\":2156:2173   */\n  add\n    /* \"#utility.yul\":2147:2153   */\n  dup5\n    /* \"#utility.yul\":2103:2174   */\n  tag_29\n  jump\t// in\ntag_57:\n    /* \"#utility.yul\":1959:2181   */\n  swap3\n  swap2\n  pop\n  pop\n  jump\t// out\n    /* \"contracts/CollateralManager.sol\":318:4327  contract CollateralManager is ReentrancyGuard, Pausable, Ownable {... */\ntag_17:\n  dataSize(sub_0)\n  dup1\n  dataOffset(sub_0)\n  0x00\n  codecopy\n  0x00\n  return\nstop\n\nsub_0: assembly {\n        /* \"contracts/CollateralManager.sol\":318:4327  contract CollateralManager is ReentrancyGuard, Pausable, Ownable {... */\n      mstore(0x40, 0x80)\n      jumpi(tag_1, lt(calldatasize, 0x04))\n      shr(0xe0, calldataload(0x00))\n      dup1\n      0x60b3b338\n      gt\n      tag_23\n      jumpi\n      dup1\n      0x9083baa6\n      gt\n      tag_24\n      jumpi\n      dup1\n      0x9083baa6\n      eq\n      tag_17\n      jumpi\n      dup1\n      0x9e30bce7\n      eq\n      tag_18\n      jumpi\n      dup1\n      0xa98ad46c\n      eq\n      tag_19\n      jumpi\n      dup1\n      0xc3b2a4a4\n      eq\n      tag_20\n      jumpi\n      dup1\n      0xd57ac70d\n      eq\n      tag_21\n      jumpi\n      dup1\n      0xf2fde38b\n      eq\n      tag_22\n      jumpi\n      jump(tag_1)\n    tag_24:\n      dup1\n      0x60b3b338\n      eq\n      tag_12\n      jumpi\n      dup1\n      0x715018a6\n      eq\n      tag_13\n      jumpi\n      dup1\n      0x8456cb59\n      eq\n      tag_14\n      jumpi\n      dup1\n      0x8da5cb5b\n      eq\n      tag_15\n      jumpi\n      dup1\n      0x8e817efe\n      eq\n      tag_16\n      jumpi\n      jump(tag_1)\n    tag_23:\n      dup1\n      0x2f5723d5\n      gt\n      tag_25\n      jumpi\n      dup1\n      0x2f5723d5\n      eq\n      tag_7\n      jumpi\n      dup1\n      0x3f4ba83a\n      eq\n      tag_8\n      jumpi\n      dup1\n      0x5269384e\n      eq\n      tag_9\n      jumpi\n      dup1\n      0x52ce9714\n      eq\n      tag_10\n      jumpi\n      dup1\n      0x5c975abb\n      eq\n      tag_11\n      jumpi\n      jump(tag_1)\n    tag_25:\n      dup1\n      0x04885115\n      eq\n      tag_2\n      jumpi\n      dup1\n      0x09b8aafd\n      eq\n      tag_3\n      jumpi\n      dup1\n      0x192e7a7b\n      eq\n      tag_4\n      jumpi\n      dup1\n      0x2630c12f\n      eq\n      tag_5\n      jumpi\n      dup1\n      0x2703ee85\n      eq\n      tag_6\n      jumpi\n    tag_1:\n      0x00\n      dup1\n      revert\n        /* \"contracts/CollateralManager.sol\":594:641  uint256 public maxCollateralAmount = 1000 ether */\n    tag_2:\n      callvalue\n      dup1\n      iszero\n      tag_26\n      jumpi\n      0x00\n      dup1\n      revert\n    tag_26:\n      pop\n      tag_27\n      tag_28\n      jump\t// in\n    tag_27:\n      mload(0x40)\n      tag_29\n      swap2\n      swap1\n      tag_30\n      jump\t// in\n    tag_29:\n      mload(0x40)\n      dup1\n      swap2\n      sub\n      swap1\n      return\n        /* \"contracts/CollateralManager.sol\":3563:3975  function getCollateralBalanceinUSD(address _user) external view returns (uint256) {... */\n    tag_3:\n      callvalue\n      dup1\n      iszero\n      tag_31\n      jumpi\n      0x00\n      dup1\n      revert\n    tag_31:\n      pop\n      tag_32\n      0x04\n      dup1\n      calldatasize\n      sub\n      dup2\n      add\n      swap1\n      tag_33\n      swap2\n      swap1\n      tag_34\n      jump\t// in\n    tag_33:\n      tag_35\n      jump\t// in\n    tag_32:\n      mload(0x40)\n      tag_36\n      swap2\n      swap1\n      tag_30\n      jump\t// in\n    tag_36:\n      mload(0x40)\n      dup1\n      swap2\n      sub\n      swap1\n      return\n        /* \"contracts/CollateralManager.sol\":3981:4163  function releaseFunds(address user) external nonReentrant{... */\n    tag_4:\n      callvalue\n      dup1\n      iszero\n      tag_37\n      jumpi\n      0x00\n      dup1\n      revert\n    tag_37:\n      pop\n      tag_38\n      0x04\n      dup1\n      calldatasize\n      sub\n      dup2\n      add\n      swap1\n      tag_39\n      swap2\n      swap1\n      tag_34\n      jump\t// in\n    tag_39:\n      tag_40\n      jump\t// in\n    tag_38:\n      stop\n        /* \"contracts/CollateralManager.sol\":419:457  MellowFiPriceOracle public priceOracle */\n    tag_5:\n      callvalue\n      dup1\n      iszero\n      tag_41\n      jumpi\n      0x00\n      dup1\n      revert\n    tag_41:\n      pop\n      tag_42\n      tag_43\n      jump\t// in\n    tag_42:\n      mload(0x40)\n      tag_44\n      swap2\n      swap1\n      tag_45\n      jump\t// in\n    tag_44:\n      mload(0x40)\n      dup1\n      swap2\n      sub\n      swap1\n      return\n        /* \"contracts/CollateralManager.sol\":3345:3519  function getCollateralBalance(address _user) external view returns (uint256 celo, uint256 usdt) {... */\n    tag_6:\n      callvalue\n      dup1\n      iszero\n      tag_46\n      jumpi\n      0x00\n      dup1\n      revert\n    tag_46:\n      pop\n      tag_47\n      0x04\n      dup1\n      calldatasize\n      sub\n      dup2\n      add\n      swap1\n      tag_48\n      swap2\n      swap1\n      tag_34\n      jump\t// in\n    tag_48:\n      tag_49\n      jump\t// in\n    tag_47:\n      mload(0x40)\n      tag_50\n      swap3\n      swap2\n      swap1\n      tag_51\n      jump\t// in\n    tag_50:\n      mload(0x40)\n      dup1\n      swap2\n      sub\n      swap1\n      return\n        /* \"contracts/CollateralManager.sol\":2325:2766  function depositUsdtCollateral(uint256 _amount) external nonReentrant whenNotPaused {... */\n    tag_7:\n      callvalue\n      dup1\n      iszero\n      tag_52\n      jumpi\n      0x00\n      dup1\n      revert\n    tag_52:\n      pop\n      tag_53\n      0x04\n      dup1\n      calldatasize\n      sub\n      dup2\n      add\n      swap1\n      tag_54\n      swap2\n      swap1\n      tag_55\n      jump\t// in\n    tag_54:\n      tag_56\n      jump\t// in\n    tag_53:\n      stop\n        /* \"contracts/CollateralManager.sol\":4260:4325  function unpause() external onlyOwner {... */\n    tag_8:\n      callvalue\n      dup1\n      iszero\n      tag_57\n      jumpi\n      0x00\n      dup1\n      revert\n    tag_57:\n      pop\n      tag_58\n      tag_59\n      jump\t// in\n    tag_58:\n      stop\n        /* \"contracts/CollateralManager.sol\":543:587  uint256 public minCollateralAmount = 1 ether */\n    tag_9:\n      callvalue\n      dup1\n      iszero\n      tag_60\n      jumpi\n      0x00\n      dup1\n      revert\n    tag_60:\n      pop\n      tag_61\n      tag_62\n      jump\t// in\n    tag_61:\n      mload(0x40)\n      tag_63\n      swap2\n      swap1\n      tag_30\n      jump\t// in\n    tag_63:\n      mload(0x40)\n      dup1\n      swap2\n      sub\n      swap1\n      return\n        /* \"contracts/CollateralManager.sol\":2772:3339  function withdrawUsdtCollateral(uint256 _amount) external nonReentrant whenNotPaused {... */\n    tag_10:\n      callvalue\n      dup1\n      iszero\n      tag_64\n      jumpi\n      0x00\n      dup1\n      revert\n    tag_64:\n      pop\n      tag_65\n      0x04\n      dup1\n      calldatasize\n      sub\n      dup2\n      add\n      swap1\n      tag_66\n      swap2\n      swap1\n      tag_55\n      jump\t// in\n    tag_66:\n      tag_67\n      jump\t// in\n    tag_65:\n      stop\n        /* \"@openzeppelin/contracts/utils/Pausable.sol\":1850:1934  function paused() public view virtual returns (bool) {... */\n    tag_11:\n      callvalue\n      dup1\n      iszero\n      tag_68\n      jumpi\n      0x00\n      dup1\n      revert\n    tag_68:\n      pop\n      tag_69\n      tag_70\n      jump\t// in\n    tag_69:\n      mload(0x40)\n      tag_71\n      swap2\n      swap1\n      tag_72\n      jump\t// in\n    tag_71:\n      mload(0x40)\n      dup1\n      swap2\n      sub\n      swap1\n      return\n        /* \"contracts/CollateralManager.sol\":463:497  uint256 public totalCollateralCelo */\n    tag_12:\n      callvalue\n      dup1\n      iszero\n      tag_73\n      jumpi\n      0x00\n      dup1\n      revert\n    tag_73:\n      pop\n      tag_74\n      tag_75\n      jump\t// in\n    tag_74:\n      mload(0x40)\n      tag_76\n      swap2\n      swap1\n      tag_30\n      jump\t// in\n    tag_76:\n      mload(0x40)\n      dup1\n      swap2\n      sub\n      swap1\n      return\n        /* \"@openzeppelin/contracts/access/Ownable.sol\":2293:2394  function renounceOwnership() public virtual onlyOwner {... */\n    tag_13:\n      callvalue\n      dup1\n      iszero\n      tag_77\n      jumpi\n      0x00\n      dup1\n      revert\n    tag_77:\n      pop\n      tag_78\n      tag_79\n      jump\t// in\n    tag_78:\n      stop\n        /* \"contracts/CollateralManager.sol\":4193:4254  function pause() external onlyOwner {... */\n    tag_14:\n      callvalue\n      dup1\n      iszero\n      tag_80\n      jumpi\n      0x00\n      dup1\n      revert\n    tag_80:\n      pop\n      tag_81\n      tag_82\n      jump\t// in\n    tag_81:\n      stop\n        /* \"@openzeppelin/contracts/access/Ownable.sol\":1638:1723  function owner() public view virtual returns (address) {... */\n    tag_15:\n      callvalue\n      dup1\n      iszero\n      tag_83\n      jumpi\n      0x00\n      dup1\n      revert\n    tag_83:\n      pop\n      tag_84\n      tag_85\n      jump\t// in\n    tag_84:\n      mload(0x40)\n      tag_86\n      swap2\n      swap1\n      tag_87\n      jump\t// in\n    tag_86:\n      mload(0x40)\n      dup1\n      swap2\n      sub\n      swap1\n      return\n        /* \"contracts/CollateralManager.sol\":1791:2319  function withdrawCeloCollateral(uint256 _amount) external nonReentrant whenNotPaused {... */\n    tag_16:\n      callvalue\n      dup1\n      iszero\n      tag_88\n      jumpi\n      0x00\n      dup1\n      revert\n    tag_88:\n      pop\n      tag_89\n      0x04\n      dup1\n      calldatasize\n      sub\n      dup2\n      add\n      swap1\n      tag_90\n      swap2\n      swap1\n      tag_55\n      jump\t// in\n    tag_90:\n      tag_91\n      jump\t// in\n    tag_89:\n      stop\n        /* \"contracts/CollateralManager.sol\":503:537  uint256 public totalCollateralUsdt */\n    tag_17:\n      callvalue\n      dup1\n      iszero\n      tag_92\n      jumpi\n      0x00\n      dup1\n      revert\n    tag_92:\n      pop\n      tag_93\n      tag_94\n      jump\t// in\n    tag_93:\n      mload(0x40)\n      tag_95\n      swap2\n      swap1\n      tag_30\n      jump\t// in\n    tag_95:\n      mload(0x40)\n      dup1\n      swap2\n      sub\n      swap1\n      return\n        /* \"contracts/CollateralManager.sol\":711:764  mapping(address => uint256) public userCollateralCelo */\n    tag_18:\n      callvalue\n      dup1\n      iszero\n      tag_96\n      jumpi\n      0x00\n      dup1\n      revert\n    tag_96:\n      pop\n      tag_97\n      0x04\n      dup1\n      calldatasize\n      sub\n      dup2\n      add\n      swap1\n      tag_98\n      swap2\n      swap1\n      tag_34\n      jump\t// in\n    tag_98:\n      tag_99\n      jump\t// in\n    tag_97:\n      mload(0x40)\n      tag_100\n      swap2\n      swap1\n      tag_30\n      jump\t// in\n    tag_100:\n      mload(0x40)\n      dup1\n      swap2\n      sub\n      swap1\n      return\n        /* \"contracts/CollateralManager.sol\":390:413  IERC20 public usdtToken */\n    tag_19:\n      callvalue\n      dup1\n      iszero\n      tag_101\n      jumpi\n      0x00\n      dup1\n      revert\n    tag_101:\n      pop\n      tag_102\n      tag_103\n      jump\t// in\n    tag_102:\n      mload(0x40)\n      tag_104\n      swap2\n      swap1\n      tag_105\n      jump\t// in\n    tag_104:\n      mload(0x40)\n      dup1\n      swap2\n      sub\n      swap1\n      return\n        /* \"contracts/CollateralManager.sol\":770:823  mapping(address => uint256) public userCollateralUsdt */\n    tag_20:\n      callvalue\n      dup1\n      iszero\n      tag_106\n      jumpi\n      0x00\n      dup1\n      revert\n    tag_106:\n      pop\n      tag_107\n      0x04\n      dup1\n      calldatasize\n      sub\n      dup2\n      add\n      swap1\n      tag_108\n      swap2\n      swap1\n      tag_34\n      jump\t// in\n    tag_108:\n      tag_109\n      jump\t// in\n    tag_107:\n      mload(0x40)\n      tag_110\n      swap2\n      swap1\n      tag_30\n      jump\t// in\n    tag_110:\n      mload(0x40)\n      dup1\n      swap2\n      sub\n      swap1\n      return\n        /* \"contracts/CollateralManager.sol\":1327:1785  function depositCeloCollateral() external payable nonReentrant whenNotPaused {... */\n    tag_21:\n      tag_111\n      tag_112\n      jump\t// in\n    tag_111:\n      stop\n        /* \"@openzeppelin/contracts/access/Ownable.sol\":2543:2758  function transferOwnership(address newOwner) public virtual onlyOwner {... */\n    tag_22:\n      callvalue\n      dup1\n      iszero\n      tag_113\n      jumpi\n      0x00\n      dup1\n      revert\n    tag_113:\n      pop\n      tag_114\n      0x04\n      dup1\n      calldatasize\n      sub\n      dup2\n      add\n      swap1\n      tag_115\n      swap2\n      swap1\n      tag_34\n      jump\t// in\n    tag_115:\n      tag_116\n      jump\t// in\n    tag_114:\n      stop\n        /* \"contracts/CollateralManager.sol\":594:641  uint256 public maxCollateralAmount = 1000 ether */\n    tag_28:\n      sload(0x07)\n      dup2\n      jump\t// out\n        /* \"contracts/CollateralManager.sol\":3563:3975  function getCollateralBalanceinUSD(address _user) external view returns (uint256) {... */\n    tag_35:\n        /* \"contracts/CollateralManager.sol\":3636:3643  uint256 */\n      0x00\n        /* \"contracts/CollateralManager.sol\":3655:3677  uint256 celoPriceInUSD */\n      dup1\n        /* \"contracts/CollateralManager.sol\":3688:3699  priceOracle */\n      0x03\n      0x00\n      swap1\n      sload\n      swap1\n      0x0100\n      exp\n      swap1\n      div\n      0xffffffffffffffffffffffffffffffffffffffff\n      and\n        /* \"contracts/CollateralManager.sol\":3688:3712  priceOracle.getCeloPrice */\n      0xffffffffffffffffffffffffffffffffffffffff\n      and\n      0x73544cfd\n        /* \"contracts/CollateralManager.sol\":3688:3714  priceOracle.getCeloPrice() */\n      mload(0x40)\n      dup2\n      0xffffffff\n      and\n      0xe0\n      shl\n      dup2\n      mstore\n      0x04\n      add\n      0x20\n      mload(0x40)\n      dup1\n      dup4\n      sub\n      dup2\n      dup7\n      gas\n      staticcall\n      iszero\n      dup1\n      iszero\n      tag_119\n      jumpi\n      returndatasize\n      0x00\n      dup1\n      returndatacopy\n      revert(0x00, returndatasize)\n    tag_119:\n      pop\n      pop\n      pop\n      pop\n      mload(0x40)\n      returndatasize\n      not(0x1f)\n      0x1f\n      dup3\n      add\n      and\n      dup3\n      add\n      dup1\n      0x40\n      mstore\n      pop\n      dup2\n      add\n      swap1\n      tag_120\n      swap2\n      swap1\n      tag_121\n      jump\t// in\n    tag_120:\n        /* \"contracts/CollateralManager.sol\":3655:3715  uint256 celoPriceInUSD = uint256(priceOracle.getCeloPrice()) */\n      swap1\n      pop\n        /* \"contracts/CollateralManager.sol\":3725:3747  uint256 usdtPriceInUSD */\n      0x00\n        /* \"contracts/CollateralManager.sol\":3758:3769  priceOracle */\n      0x03\n      0x00\n      swap1\n      sload\n      swap1\n      0x0100\n      exp\n      swap1\n      div\n      0xffffffffffffffffffffffffffffffffffffffff\n      and\n        /* \"contracts/CollateralManager.sol\":3758:3782  priceOracle.getUsdtPrice */\n      0xffffffffffffffffffffffffffffffffffffffff\n      and\n      0x961bdfbf\n        /* \"contracts/CollateralManager.sol\":3758:3784  priceOracle.getUsdtPrice() */\n      mload(0x40)\n      dup2\n      0xffffffff\n      and\n      0xe0\n      shl\n      dup2\n      mstore\n      0x04\n      add\n      0x20\n      mload(0x40)\n      dup1\n      dup4\n      sub\n      dup2\n      dup7\n      gas\n      staticcall\n      iszero\n      dup1\n      iszero\n      tag_123\n      jumpi\n      returndatasize\n      0x00\n      dup1\n      returndatacopy\n      revert(0x00, returndatasize)\n    tag_123:\n      pop\n      pop\n      pop\n      pop\n      mload(0x40)\n      returndatasize\n      not(0x1f)\n      0x1f\n      dup3\n      add\n      and\n      dup3\n      add\n      dup1\n      0x40\n      mstore\n      pop\n      dup2\n      add\n      swap1\n      tag_124\n      swap2\n      swap1\n      tag_121\n      jump\t// in\n    tag_124:\n        /* \"contracts/CollateralManager.sol\":3725:3785  uint256 usdtPriceInUSD = uint256(priceOracle.getUsdtPrice()) */\n      swap1\n      pop\n        /* \"contracts/CollateralManager.sol\":3795:3823  uint256 totalCollateralInUSD */\n      0x00\n        /* \"contracts/CollateralManager.sol\":3926:3930  1e18 */\n      0x0de0b6b3a7640000\n        /* \"contracts/CollateralManager.sol\":3908:3922  usdtPriceInUSD */\n      dup3\n        /* \"contracts/CollateralManager.sol\":3880:3898  userCollateralUsdt */\n      0x09\n        /* \"contracts/CollateralManager.sol\":3880:3905  userCollateralUsdt[_user] */\n      0x00\n        /* \"contracts/CollateralManager.sol\":3899:3904  _user */\n      dup9\n        /* \"contracts/CollateralManager.sol\":3880:3905  userCollateralUsdt[_user] */\n      0xffffffffffffffffffffffffffffffffffffffff\n      and\n      0xffffffffffffffffffffffffffffffffffffffff\n      and\n      dup2\n      mstore\n      0x20\n      add\n      swap1\n      dup2\n      mstore\n      0x20\n      add\n      0x00\n      keccak256\n      sload\n        /* \"contracts/CollateralManager.sol\":3880:3922  userCollateralUsdt[_user] * usdtPriceInUSD */\n      tag_125\n      swap2\n      swap1\n      tag_126\n      jump\t// in\n    tag_125:\n        /* \"contracts/CollateralManager.sol\":3880:3931  userCollateralUsdt[_user] * usdtPriceInUSD / (1e18) */\n      tag_127\n      swap2\n      swap1\n      tag_128\n      jump\t// in\n    tag_127:\n        /* \"contracts/CollateralManager.sol\":3872:3876  1e18 */\n      0x0de0b6b3a7640000\n        /* \"contracts/CollateralManager.sol\":3854:3868  celoPriceInUSD */\n      dup5\n        /* \"contracts/CollateralManager.sol\":3826:3844  userCollateralCelo */\n      0x08\n        /* \"contracts/CollateralManager.sol\":3826:3851  userCollateralCelo[_user] */\n      0x00\n        /* \"contracts/CollateralManager.sol\":3845:3850  _user */\n      dup10\n        /* \"contracts/CollateralManager.sol\":3826:3851  userCollateralCelo[_user] */\n      0xffffffffffffffffffffffffffffffffffffffff\n      and\n      0xffffffffffffffffffffffffffffffffffffffff\n      and\n      dup2\n      mstore\n      0x20\n      add\n      swap1\n      dup2\n      mstore\n      0x20\n      add\n      0x00\n      keccak256\n      sload\n        /* \"contracts/CollateralManager.sol\":3826:3868  userCollateralCelo[_user] * celoPriceInUSD */\n      tag_129\n      swap2\n      swap1\n      tag_126\n      jump\t// in\n    tag_129:\n        /* \"contracts/CollateralManager.sol\":3826:3877  userCollateralCelo[_user] * celoPriceInUSD / (1e18) */\n      tag_130\n      swap2\n      swap1\n      tag_128\n      jump\t// in\n    tag_130:\n        /* \"contracts/CollateralManager.sol\":3826:3931  userCollateralCelo[_user] * celoPriceInUSD / (1e18) + userCollateralUsdt[_user] * usdtPriceInUSD / (1e18) */\n      tag_131\n      swap2\n      swap1\n      tag_132\n      jump\t// in\n    tag_131:\n        /* \"contracts/CollateralManager.sol\":3795:3931  uint256 totalCollateralInUSD = userCollateralCelo[_user] * celoPriceInUSD / (1e18) + userCollateralUsdt[_user] * usdtPriceInUSD / (1e18) */\n      swap1\n      pop\n        /* \"contracts/CollateralManager.sol\":3948:3968  totalCollateralInUSD */\n      dup1\n        /* \"contracts/CollateralManager.sol\":3941:3968  return totalCollateralInUSD */\n      swap4\n      pop\n      pop\n      pop\n      pop\n        /* \"contracts/CollateralManager.sol\":3563:3975  function getCollateralBalanceinUSD(address _user) external view returns (uint256) {... */\n      swap2\n      swap1\n      pop\n      jump\t// out\n        /* \"contracts/CollateralManager.sol\":3981:4163  function releaseFunds(address user) external nonReentrant{... */\n    tag_40:\n        /* \"@openzeppelin/contracts/utils/ReentrancyGuard.sol\":2356:2377  _nonReentrantBefore() */\n      tag_134\n        /* \"@openzeppelin/contracts/utils/ReentrancyGuard.sol\":2356:2375  _nonReentrantBefore */\n      tag_135\n        /* \"@openzeppelin/contracts/utils/ReentrancyGuard.sol\":2356:2377  _nonReentrantBefore() */\n      jump\t// in\n    tag_134:\n        /* \"contracts/CollateralManager.sol\":4056:4060  user */\n      dup1\n        /* \"contracts/CollateralManager.sol\":4048:4070  payable(user).transfer */\n      0xffffffffffffffffffffffffffffffffffffffff\n      and\n        /* \"contracts/CollateralManager.sol\":4048:4096  payable(user).transfer(userCollateralCelo[user]) */\n      0x08fc\n        /* \"contracts/CollateralManager.sol\":4071:4089  userCollateralCelo */\n      0x08\n        /* \"contracts/CollateralManager.sol\":4071:4095  userCollateralCelo[user] */\n      0x00\n        /* \"contracts/CollateralManager.sol\":4090:4094  user */\n      dup5\n        /* \"contracts/CollateralManager.sol\":4071:4095  userCollateralCelo[user] */\n      0xffffffffffffffffffffffffffffffffffffffff\n      and\n      0xffffffffffffffffffffffffffffffffffffffff\n      and\n      dup2\n      mstore\n      0x20\n      add\n      swap1\n      dup2\n      mstore\n      0x20\n      add\n      0x00\n      keccak256\n      sload\n        /* \"contracts/CollateralManager.sol\":4048:4096  payable(user).transfer(userCollateralCelo[user]) */\n      swap1\n      dup2\n      iszero\n      mul\n      swap1\n      mload(0x40)\n      0x00\n      mload(0x40)\n      dup1\n      dup4\n      sub\n      dup2\n      dup6\n      dup9\n      dup9\n      call\n      swap4\n      pop\n      pop\n      pop\n      pop\n      iszero\n      dup1\n      iszero\n      tag_138\n      jumpi\n      returndatasize\n      0x00\n      dup1\n      returndatacopy\n      revert(0x00, returndatasize)\n    tag_138:\n      pop\n        /* \"contracts/CollateralManager.sol\":4106:4115  usdtToken */\n      0x02\n      0x00\n      swap1\n      sload\n      swap1\n      0x0100\n      exp\n      swap1\n      div\n      0xffffffffffffffffffffffffffffffffffffffff\n      and\n        /* \"contracts/CollateralManager.sol\":4106:4124  usdtToken.transfer */\n      0xffffffffffffffffffffffffffffffffffffffff\n      and\n      0xa9059cbb\n        /* \"contracts/CollateralManager.sol\":4125:4129  user */\n      dup3\n        /* \"contracts/CollateralManager.sol\":4131:4149  userCollateralUsdt */\n      0x09\n        /* \"contracts/CollateralManager.sol\":4131:4155  userCollateralUsdt[user] */\n      0x00\n        /* \"contracts/CollateralManager.sol\":4150:4154  user */\n      dup6\n        /* \"contracts/CollateralManager.sol\":4131:4155  userCollateralUsdt[user] */\n      0xffffffffffffffffffffffffffffffffffffffff\n      and\n      0xffffffffffffffffffffffffffffffffffffffff\n      and\n      dup2\n      mstore\n      0x20\n      add\n      swap1\n      dup2\n      mstore\n      0x20\n      add\n      0x00\n      keccak256\n      sload\n        /* \"contracts/CollateralManager.sol\":4106:4156  usdtToken.transfer(user, userCollateralUsdt[user]) */\n      mload(0x40)\n      dup4\n      0xffffffff\n      and\n      0xe0\n      shl\n      dup2\n      mstore\n      0x04\n      add\n      tag_139\n      swap3\n      swap2\n      swap1\n      tag_140\n      jump\t// in\n    tag_139:\n      0x20\n      mload(0x40)\n      dup1\n      dup4\n      sub\n      dup2\n      0x00\n      dup8\n      gas\n      call\n      iszero\n      dup1\n      iszero\n      tag_142\n      jumpi\n      returndatasize\n      0x00\n      dup1\n      returndatacopy\n      revert(0x00, returndatasize)\n    tag_142:\n      pop\n      pop\n      pop\n      pop\n      mload(0x40)\n      returndatasize\n      not(0x1f)\n      0x1f\n      dup3\n      add\n      and\n      dup3\n      add\n      dup1\n      0x40\n      mstore\n      pop\n      dup2\n      add\n      swap1\n      tag_143\n      swap2\n      swap1\n      tag_144\n      jump\t// in\n    tag_143:\n      pop\n        /* \"@openzeppelin/contracts/utils/ReentrancyGuard.sol\":2398:2418  _nonReentrantAfter() */\n      tag_145\n        /* \"@openzeppelin/contracts/utils/ReentrancyGuard.sol\":2398:2416  _nonReentrantAfter */\n      tag_146\n        /* \"@openzeppelin/contracts/utils/ReentrancyGuard.sol\":2398:2418  _nonReentrantAfter() */\n      jump\t// in\n    tag_145:\n        /* \"contracts/CollateralManager.sol\":3981:4163  function releaseFunds(address user) external nonReentrant{... */\n      pop\n      jump\t// out\n        /* \"contracts/CollateralManager.sol\":419:457  MellowFiPriceOracle public priceOracle */\n    tag_43:\n      0x03\n      0x00\n      swap1\n      sload\n      swap1\n      0x0100\n      exp\n      swap1\n      div\n      0xffffffffffffffffffffffffffffffffffffffff\n      and\n      dup2\n      jump\t// out\n        /* \"contracts/CollateralManager.sol\":3345:3519  function getCollateralBalance(address _user) external view returns (uint256 celo, uint256 usdt) {... */\n    tag_49:\n        /* \"contracts/CollateralManager.sol\":3413:3425  uint256 celo */\n      0x00\n        /* \"contracts/CollateralManager.sol\":3427:3439  uint256 usdt */\n      dup1\n        /* \"contracts/CollateralManager.sol\":3459:3477  userCollateralCelo */\n      0x08\n        /* \"contracts/CollateralManager.sol\":3459:3484  userCollateralCelo[_user] */\n      0x00\n        /* \"contracts/CollateralManager.sol\":3478:3483  _user */\n      dup5\n        /* \"contracts/CollateralManager.sol\":3459:3484  userCollateralCelo[_user] */\n      0xffffffffffffffffffffffffffffffffffffffff\n      and\n      0xffffffffffffffffffffffffffffffffffffffff\n      and\n      dup2\n      mstore\n      0x20\n      add\n      swap1\n      dup2\n      mstore\n      0x20\n      add\n      0x00\n      keccak256\n      sload\n        /* \"contracts/CollateralManager.sol\":3486:3504  userCollateralUsdt */\n      0x09\n        /* \"contracts/CollateralManager.sol\":3486:3511  userCollateralUsdt[_user] */\n      0x00\n        /* \"contracts/CollateralManager.sol\":3505:3510  _user */\n      dup6\n        /* \"contracts/CollateralManager.sol\":3486:3511  userCollateralUsdt[_user] */\n      0xffffffffffffffffffffffffffffffffffffffff\n      and\n      0xffffffffffffffffffffffffffffffffffffffff\n      and\n      dup2\n      mstore\n      0x20\n      add\n      swap1\n      dup2\n      mstore\n      0x20\n      add\n      0x00\n      keccak256\n      sload\n        /* \"contracts/CollateralManager.sol\":3451:3512  return (userCollateralCelo[_user], userCollateralUsdt[_user]) */\n      swap2\n      pop\n      swap2\n      pop\n        /* \"contracts/CollateralManager.sol\":3345:3519  function getCollateralBalance(address _user) external view returns (uint256 celo, uint256 usdt) {... */\n      swap2\n      pop\n      swap2\n      jump\t// out\n        /* \"contracts/CollateralManager.sol\":2325:2766  function depositUsdtCollateral(uint256 _amount) external nonReentrant whenNotPaused {... */\n    tag_56:\n        /* \"@openzeppelin/contracts/utils/ReentrancyGuard.sol\":2356:2377  _nonReentrantBefore() */\n      tag_149\n        /* \"@openzeppelin/contracts/utils/ReentrancyGuard.sol\":2356:2375  _nonReentrantBefore */\n      tag_135\n        /* \"@openzeppelin/contracts/utils/ReentrancyGuard.sol\":2356:2377  _nonReentrantBefore() */\n      jump\t// in\n    tag_149:\n        /* \"@openzeppelin/contracts/utils/Pausable.sol\":1474:1493  _requireNotPaused() */\n      tag_151\n        /* \"@openzeppelin/contracts/utils/Pausable.sol\":1474:1491  _requireNotPaused */\n      tag_152\n        /* \"@openzeppelin/contracts/utils/Pausable.sol\":1474:1493  _requireNotPaused() */\n      jump\t// in\n    tag_151:\n        /* \"contracts/CollateralManager.sol\":2437:2456  minCollateralAmount */\n      sload(0x06)\n        /* \"contracts/CollateralManager.sol\":2427:2434  _amount */\n      dup2\n        /* \"contracts/CollateralManager.sol\":2427:2456  _amount > minCollateralAmount */\n      gt\n        /* \"contracts/CollateralManager.sol\":2419:2494  require(_amount > minCollateralAmount, \"CollateralManager: Invalid amount\") */\n      tag_154\n      jumpi\n      mload(0x40)\n      0x08c379a000000000000000000000000000000000000000000000000000000000\n      dup2\n      mstore\n      0x04\n      add\n      tag_155\n      swap1\n      tag_156\n      jump\t// in\n    tag_155:\n      mload(0x40)\n      dup1\n      swap2\n      sub\n      swap1\n      revert\n    tag_154:\n        /* \"contracts/CollateralManager.sol\":2512:2521  usdtToken */\n      0x02\n      0x00\n      swap1\n      sload\n      swap1\n      0x0100\n      exp\n      swap1\n      div\n      0xffffffffffffffffffffffffffffffffffffffff\n      and\n        /* \"contracts/CollateralManager.sol\":2512:2534  usdtToken.transferFrom */\n      0xffffffffffffffffffffffffffffffffffffffff\n      and\n      0x23b872dd\n        /* \"contracts/CollateralManager.sol\":2535:2545  msg.sender */\n      caller\n        /* \"contracts/CollateralManager.sol\":2555:2559  this */\n      address\n        /* \"contracts/CollateralManager.sol\":2562:2569  _amount */\n      dup5\n        /* \"contracts/CollateralManager.sol\":2512:2570  usdtToken.transferFrom(msg.sender, address(this), _amount) */\n      mload(0x40)\n      dup5\n      0xffffffff\n      and\n      0xe0\n      shl\n      dup2\n      mstore\n      0x04\n      add\n      tag_157\n      swap4\n      swap3\n      swap2\n      swap1\n      tag_158\n      jump\t// in\n    tag_157:\n      0x20\n      mload(0x40)\n      dup1\n      dup4\n      sub\n      dup2\n      0x00\n      dup8\n      gas\n      call\n      iszero\n      dup1\n      iszero\n      tag_160\n      jumpi\n      returndatasize\n      0x00\n      dup1\n      returndatacopy\n      revert(0x00, returndatasize)\n    tag_160:\n      pop\n      pop\n      pop\n      pop\n      mload(0x40)\n      returndatasize\n      not(0x1f)\n      0x1f\n      dup3\n      add\n      and\n      dup3\n      add\n      dup1\n      0x40\n      mstore\n      pop\n      dup2\n      add\n      swap1\n      tag_161\n      swap2\n      swap1\n      tag_144\n      jump\t// in\n    tag_161:\n        /* \"contracts/CollateralManager.sol\":2504:2609  require(usdtToken.transferFrom(msg.sender, address(this), _amount), \"CollateralManager: Transfer failed\") */\n      tag_162\n      jumpi\n      mload(0x40)\n      0x08c379a000000000000000000000000000000000000000000000000000000000\n      dup2\n      mstore\n      0x04\n      add\n      tag_163\n      swap1\n      tag_164\n      jump\t// in\n    tag_163:\n      mload(0x40)\n      dup1\n      swap2\n      sub\n      swap1\n      revert\n    tag_162:\n        /* \"contracts/CollateralManager.sol\":2653:2660  _amount */\n      dup1\n        /* \"contracts/CollateralManager.sol\":2619:2637  userCollateralUsdt */\n      0x09\n        /* \"contracts/CollateralManager.sol\":2619:2649  userCollateralUsdt[msg.sender] */\n      0x00\n        /* \"contracts/CollateralManager.sol\":2638:2648  msg.sender */\n      caller\n        /* \"contracts/CollateralManager.sol\":2619:2649  userCollateralUsdt[msg.sender] */\n      0xffffffffffffffffffffffffffffffffffffffff\n      and\n      0xffffffffffffffffffffffffffffffffffffffff\n      and\n      dup2\n      mstore\n      0x20\n      add\n      swap1\n      dup2\n      mstore\n      0x20\n      add\n      0x00\n      keccak256\n      0x00\n        /* \"contracts/CollateralManager.sol\":2619:2660  userCollateralUsdt[msg.sender] += _amount */\n      dup3\n      dup3\n      sload\n      tag_165\n      swap2\n      swap1\n      tag_132\n      jump\t// in\n    tag_165:\n      swap3\n      pop\n      pop\n      dup2\n      swap1\n      sstore\n      pop\n        /* \"contracts/CollateralManager.sol\":2693:2700  _amount */\n      dup1\n        /* \"contracts/CollateralManager.sol\":2670:2689  totalCollateralUsdt */\n      0x05\n      0x00\n        /* \"contracts/CollateralManager.sol\":2670:2700  totalCollateralUsdt += _amount */\n      dup3\n      dup3\n      sload\n      tag_166\n      swap2\n      swap1\n      tag_132\n      jump\t// in\n    tag_166:\n      swap3\n      pop\n      pop\n      dup2\n      swap1\n      sstore\n      pop\n        /* \"contracts/CollateralManager.sol\":2739:2749  msg.sender */\n      caller\n        /* \"contracts/CollateralManager.sol\":2715:2759  UsdtCollateralDeposited(msg.sender, _amount) */\n      0xffffffffffffffffffffffffffffffffffffffff\n      and\n      0x9a4c731ff1518c7a820e31d32e673b031b8974967931afb2eec308066090022d\n        /* \"contracts/CollateralManager.sol\":2751:2758  _amount */\n      dup3\n        /* \"contracts/CollateralManager.sol\":2715:2759  UsdtCollateralDeposited(msg.sender, _amount) */\n      mload(0x40)\n      tag_167\n      swap2\n      swap1\n      tag_30\n      jump\t// in\n    tag_167:\n      mload(0x40)\n      dup1\n      swap2\n      sub\n      swap1\n      log2\n        /* \"@openzeppelin/contracts/utils/ReentrancyGuard.sol\":2398:2418  _nonReentrantAfter() */\n      tag_168\n        /* \"@openzeppelin/contracts/utils/ReentrancyGuard.sol\":2398:2416  _nonReentrantAfter */\n      tag_146\n        /* \"@openzeppelin/contracts/utils/ReentrancyGuard.sol\":2398:2418  _nonReentrantAfter() */\n      jump\t// in\n    tag_168:\n        /* \"contracts/CollateralManager.sol\":2325:2766  function depositUsdtCollateral(uint256 _amount) external nonReentrant whenNotPaused {... */\n      pop\n      jump\t// out\n        /* \"contracts/CollateralManager.sol\":4260:4325  function unpause() external onlyOwner {... */\n    tag_59:\n        /* \"@openzeppelin/contracts/access/Ownable.sol\":1531:1544  _checkOwner() */\n      tag_170\n        /* \"@openzeppelin/contracts/access/Ownable.sol\":1531:1542  _checkOwner */\n      tag_171\n        /* \"@openzeppelin/contracts/access/Ownable.sol\":1531:1544  _checkOwner() */\n      jump\t// in\n    tag_170:\n        /* \"contracts/CollateralManager.sol\":4308:4318  _unpause() */\n      tag_173\n        /* \"contracts/CollateralManager.sol\":4308:4316  _unpause */\n      tag_174\n        /* \"contracts/CollateralManager.sol\":4308:4318  _unpause() */\n      jump\t// in\n    tag_173:\n        /* \"contracts/CollateralManager.sol\":4260:4325  function unpause() external onlyOwner {... */\n      jump\t// out\n        /* \"contracts/CollateralManager.sol\":543:587  uint256 public minCollateralAmount = 1 ether */\n    tag_62:\n      sload(0x06)\n      dup2\n      jump\t// out\n        /* \"contracts/CollateralManager.sol\":2772:3339  function withdrawUsdtCollateral(uint256 _amount) external nonReentrant whenNotPaused {... */\n    tag_67:\n        /* \"@openzeppelin/contracts/utils/ReentrancyGuard.sol\":2356:2377  _nonReentrantBefore() */\n      tag_176\n        /* \"@openzeppelin/contracts/utils/ReentrancyGuard.sol\":2356:2375  _nonReentrantBefore */\n      tag_135\n        /* \"@openzeppelin/contracts/utils/ReentrancyGuard.sol\":2356:2377  _nonReentrantBefore() */\n      jump\t// in\n    tag_176:\n        /* \"@openzeppelin/contracts/utils/Pausable.sol\":1474:1493  _requireNotPaused() */\n      tag_178\n        /* \"@openzeppelin/contracts/utils/Pausable.sol\":1474:1491  _requireNotPaused */\n      tag_152\n        /* \"@openzeppelin/contracts/utils/Pausable.sol\":1474:1493  _requireNotPaused() */\n      jump\t// in\n    tag_178:\n        /* \"contracts/CollateralManager.sol\":2944:2945  0 */\n      0x00\n        /* \"contracts/CollateralManager.sol\":2934:2941  _amount */\n      dup2\n        /* \"contracts/CollateralManager.sol\":2934:2945  _amount > 0 */\n      gt\n        /* \"contracts/CollateralManager.sol\":2926:2983  require(_amount > 0, \"CollateralManager: Invalid amount\") */\n      tag_180\n      jumpi\n      mload(0x40)\n      0x08c379a000000000000000000000000000000000000000000000000000000000\n      dup2\n      mstore\n      0x04\n      add\n      tag_181\n      swap1\n      tag_156\n      jump\t// in\n    tag_181:\n      mload(0x40)\n      dup1\n      swap2\n      sub\n      swap1\n      revert\n    tag_180:\n        /* \"contracts/CollateralManager.sol\":3035:3042  _amount */\n      dup1\n        /* \"contracts/CollateralManager.sol\":3001:3019  userCollateralUsdt */\n      0x09\n        /* \"contracts/CollateralManager.sol\":3001:3031  userCollateralUsdt[msg.sender] */\n      0x00\n        /* \"contracts/CollateralManager.sol\":3020:3030  msg.sender */\n      caller\n        /* \"contracts/CollateralManager.sol\":3001:3031  userCollateralUsdt[msg.sender] */\n      0xffffffffffffffffffffffffffffffffffffffff\n      and\n      0xffffffffffffffffffffffffffffffffffffffff\n      and\n      dup2\n      mstore\n      0x20\n      add\n      swap1\n      dup2\n      mstore\n      0x20\n      add\n      0x00\n      keccak256\n      sload\n        /* \"contracts/CollateralManager.sol\":3001:3042  userCollateralUsdt[msg.sender] >= _amount */\n      lt\n      iszero\n        /* \"contracts/CollateralManager.sol\":2993:3086  require(userCollateralUsdt[msg.sender] >= _amount, \"CollateralManager: Insufficient balance\") */\n      tag_182\n      jumpi\n      mload(0x40)\n      0x08c379a000000000000000000000000000000000000000000000000000000000\n      dup2\n      mstore\n      0x04\n      add\n      tag_183\n      swap1\n      tag_184\n      jump\t// in\n    tag_183:\n      mload(0x40)\n      dup1\n      swap2\n      sub\n      swap1\n      revert\n    tag_182:\n        /* \"contracts/CollateralManager.sol\":3130:3137  _amount */\n      dup1\n        /* \"contracts/CollateralManager.sol\":3096:3114  userCollateralUsdt */\n      0x09\n        /* \"contracts/CollateralManager.sol\":3096:3126  userCollateralUsdt[msg.sender] */\n      0x00\n        /* \"contracts/CollateralManager.sol\":3115:3125  msg.sender */\n      caller\n        /* \"contracts/CollateralManager.sol\":3096:3126  userCollateralUsdt[msg.sender] */\n      0xffffffffffffffffffffffffffffffffffffffff\n      and\n      0xffffffffffffffffffffffffffffffffffffffff\n      and\n      dup2\n      mstore\n      0x20\n      add\n      swap1\n      dup2\n      mstore\n      0x20\n      add\n      0x00\n      keccak256\n      0x00\n        /* \"contracts/CollateralManager.sol\":3096:3137  userCollateralUsdt[msg.sender] -= _amount */\n      dup3\n      dup3\n      sload\n      tag_185\n      swap2\n      swap1\n      tag_186\n      jump\t// in\n    tag_185:\n      swap3\n      pop\n      pop\n      dup2\n      swap1\n      sstore\n      pop\n        /* \"contracts/CollateralManager.sol\":3170:3177  _amount */\n      dup1\n        /* \"contracts/CollateralManager.sol\":3147:3166  totalCollateralUsdt */\n      0x05\n      0x00\n        /* \"contracts/CollateralManager.sol\":3147:3177  totalCollateralUsdt -= _amount */\n      dup3\n      dup3\n      sload\n      tag_187\n      swap2\n      swap1\n      tag_186\n      jump\t// in\n    tag_187:\n      swap3\n      pop\n      pop\n      dup2\n      swap1\n      sstore\n      pop\n        /* \"contracts/CollateralManager.sol\":3195:3204  usdtToken */\n      0x02\n      0x00\n      swap1\n      sload\n      swap1\n      0x0100\n      exp\n      swap1\n      div\n      0xffffffffffffffffffffffffffffffffffffffff\n      and\n        /* \"contracts/CollateralManager.sol\":3195:3213  usdtToken.transfer */\n      0xffffffffffffffffffffffffffffffffffffffff\n      and\n      0xa9059cbb\n        /* \"contracts/CollateralManager.sol\":3214:3224  msg.sender */\n      caller\n        /* \"contracts/CollateralManager.sol\":3226:3233  _amount */\n      dup4\n        /* \"contracts/CollateralManager.sol\":3195:3234  usdtToken.transfer(msg.sender, _amount) */\n      mload(0x40)\n      dup4\n      0xffffffff\n      and\n      0xe0\n      shl\n      dup2\n      mstore\n      0x04\n      add\n      tag_188\n      swap3\n      swap2\n      swap1\n      tag_140\n      jump\t// in\n    tag_188:\n      0x20\n      mload(0x40)\n      dup1\n      dup4\n      sub\n      dup2\n      0x00\n      dup8\n      gas\n      call\n      iszero\n      dup1\n      iszero\n      tag_190\n      jumpi\n      returndatasize\n      0x00\n      dup1\n      returndatacopy\n      revert(0x00, returndatasize)\n    tag_190:\n      pop\n      pop\n      pop\n      pop\n      mload(0x40)\n      returndatasize\n      not(0x1f)\n      0x1f\n      dup3\n      add\n      and\n      dup3\n      add\n      dup1\n      0x40\n      mstore\n      pop\n      dup2\n      add\n      swap1\n      tag_191\n      swap2\n      swap1\n      tag_144\n      jump\t// in\n    tag_191:\n        /* \"contracts/CollateralManager.sol\":3187:3273  require(usdtToken.transfer(msg.sender, _amount), \"CollateralManager: Transfer failed\") */\n      tag_192\n      jumpi\n      mload(0x40)\n      0x08c379a000000000000000000000000000000000000000000000000000000000\n      dup2\n      mstore\n      0x04\n      add\n      tag_193\n      swap1\n      tag_164\n      jump\t// in\n    tag_193:\n      mload(0x40)\n      dup1\n      swap2\n      sub\n      swap1\n      revert\n    tag_192:\n        /* \"contracts/CollateralManager.sol\":3312:3322  msg.sender */\n      caller\n        /* \"contracts/CollateralManager.sol\":3288:3332  UsdtCollateralWithdrawn(msg.sender, _amount) */\n      0xffffffffffffffffffffffffffffffffffffffff\n      and\n      0xc01511ac0a76d7dc4d420282166e32ac9366c3f78e450661d140d248b19a4000\n        /* \"contracts/CollateralManager.sol\":3324:3331  _amount */\n      dup3\n        /* \"contracts/CollateralManager.sol\":3288:3332  UsdtCollateralWithdrawn(msg.sender, _amount) */\n      mload(0x40)\n      tag_194\n      swap2\n      swap1\n      tag_30\n      jump\t// in\n    tag_194:\n      mload(0x40)\n      dup1\n      swap2\n      sub\n      swap1\n      log2\n        /* \"@openzeppelin/contracts/utils/ReentrancyGuard.sol\":2398:2418  _nonReentrantAfter() */\n      tag_195\n        /* \"@openzeppelin/contracts/utils/ReentrancyGuard.sol\":2398:2416  _nonReentrantAfter */\n      tag_146\n        /* \"@openzeppelin/contracts/utils/ReentrancyGuard.sol\":2398:2418  _nonReentrantAfter() */\n      jump\t// in\n    tag_195:\n        /* \"contracts/CollateralManager.sol\":2772:3339  function withdrawUsdtCollateral(uint256 _amount) external nonReentrant whenNotPaused {... */\n      pop\n      jump\t// out\n        /* \"@openzeppelin/contracts/utils/Pausable.sol\":1850:1934  function paused() public view virtual returns (bool) {... */\n    tag_70:\n        /* \"@openzeppelin/contracts/utils/Pausable.sol\":1897:1901  bool */\n      0x00\n        /* \"@openzeppelin/contracts/utils/Pausable.sol\":1920:1927  _paused */\n      0x01\n      0x00\n      swap1\n      sload\n      swap1\n      0x0100\n      exp\n      swap1\n      div\n      0xff\n      and\n        /* \"@openzeppelin/contracts/utils/Pausable.sol\":1913:1927  return _paused */\n      swap1\n      pop\n        /* \"@openzeppelin/contracts/utils/Pausable.sol\":1850:1934  function paused() public view virtual returns (bool) {... */\n      swap1\n      jump\t// out\n        /* \"contracts/CollateralManager.sol\":463:497  uint256 public totalCollateralCelo */\n    tag_75:\n      sload(0x04)\n      dup2\n      jump\t// out\n        /* \"@openzeppelin/contracts/access/Ownable.sol\":2293:2394  function renounceOwnership() public virtual onlyOwner {... */\n    tag_79:\n        /* \"@openzeppelin/contracts/access/Ownable.sol\":1531:1544  _checkOwner() */\n      tag_198\n        /* \"@openzeppelin/contracts/access/Ownable.sol\":1531:1542  _checkOwner */\n      tag_171\n        /* \"@openzeppelin/contracts/access/Ownable.sol\":1531:1544  _checkOwner() */\n      jump\t// in\n    tag_198:\n        /* \"@openzeppelin/contracts/access/Ownable.sol\":2357:2387  _transferOwnership(address(0)) */\n      tag_200\n        /* \"@openzeppelin/contracts/access/Ownable.sol\":2384:2385  0 */\n      0x00\n        /* \"@openzeppelin/contracts/access/Ownable.sol\":2357:2375  _transferOwnership */\n      tag_201\n        /* \"@openzeppelin/contracts/access/Ownable.sol\":2357:2387  _transferOwnership(address(0)) */\n      jump\t// in\n    tag_200:\n        /* \"@openzeppelin/contracts/access/Ownable.sol\":2293:2394  function renounceOwnership() public virtual onlyOwner {... */\n      jump\t// out\n        /* \"contracts/CollateralManager.sol\":4193:4254  function pause() external onlyOwner {... */\n    tag_82:\n        /* \"@openzeppelin/contracts/access/Ownable.sol\":1531:1544  _checkOwner() */\n      tag_203\n        /* \"@openzeppelin/contracts/access/Ownable.sol\":1531:1542  _checkOwner */\n      tag_171\n        /* \"@openzeppelin/contracts/access/Ownable.sol\":1531:1544  _checkOwner() */\n      jump\t// in\n    tag_203:\n        /* \"contracts/CollateralManager.sol\":4239:4247  _pause() */\n      tag_205\n        /* \"contracts/CollateralManager.sol\":4239:4245  _pause */\n      tag_206\n        /* \"contracts/CollateralManager.sol\":4239:4247  _pause() */\n      jump\t// in\n    tag_205:\n        /* \"contracts/CollateralManager.sol\":4193:4254  function pause() external onlyOwner {... */\n      jump\t// out\n        /* \"@openzeppelin/contracts/access/Ownable.sol\":1638:1723  function owner() public view virtual returns (address) {... */\n    tag_85:\n        /* \"@openzeppelin/contracts/access/Ownable.sol\":1684:1691  address */\n      0x00\n        /* \"@openzeppelin/contracts/access/Ownable.sol\":1710:1716  _owner */\n      0x01\n      dup1\n      sload\n      swap1\n      0x0100\n      exp\n      swap1\n      div\n      0xffffffffffffffffffffffffffffffffffffffff\n      and\n        /* \"@openzeppelin/contracts/access/Ownable.sol\":1703:1716  return _owner */\n      swap1\n      pop\n        /* \"@openzeppelin/contracts/access/Ownable.sol\":1638:1723  function owner() public view virtual returns (address) {... */\n      swap1\n      jump\t// out\n        /* \"contracts/CollateralManager.sol\":1791:2319  function withdrawCeloCollateral(uint256 _amount) external nonReentrant whenNotPaused {... */\n    tag_91:\n        /* \"@openzeppelin/contracts/utils/ReentrancyGuard.sol\":2356:2377  _nonReentrantBefore() */\n      tag_209\n        /* \"@openzeppelin/contracts/utils/ReentrancyGuard.sol\":2356:2375  _nonReentrantBefore */\n      tag_135\n        /* \"@openzeppelin/contracts/utils/ReentrancyGuard.sol\":2356:2377  _nonReentrantBefore() */\n      jump\t// in\n    tag_209:\n        /* \"@openzeppelin/contracts/utils/Pausable.sol\":1474:1493  _requireNotPaused() */\n      tag_211\n        /* \"@openzeppelin/contracts/utils/Pausable.sol\":1474:1491  _requireNotPaused */\n      tag_152\n        /* \"@openzeppelin/contracts/utils/Pausable.sol\":1474:1493  _requireNotPaused() */\n      jump\t// in\n    tag_211:\n        /* \"contracts/CollateralManager.sol\":1963:1964  0 */\n      0x00\n        /* \"contracts/CollateralManager.sol\":1953:1960  _amount */\n      dup2\n        /* \"contracts/CollateralManager.sol\":1953:1964  _amount > 0 */\n      gt\n        /* \"contracts/CollateralManager.sol\":1945:2002  require(_amount > 0, \"CollateralManager: Invalid amount\") */\n      tag_213\n      jumpi\n      mload(0x40)\n      0x08c379a000000000000000000000000000000000000000000000000000000000\n      dup2\n      mstore\n      0x04\n      add\n      tag_214\n      swap1\n      tag_156\n      jump\t// in\n    tag_214:\n      mload(0x40)\n      dup1\n      swap2\n      sub\n      swap1\n      revert\n    tag_213:\n        /* \"contracts/CollateralManager.sol\":2054:2061  _amount */\n      dup1\n        /* \"contracts/CollateralManager.sol\":2020:2038  userCollateralCelo */\n      0x08\n        /* \"contracts/CollateralManager.sol\":2020:2050  userCollateralCelo[msg.sender] */\n      0x00\n        /* \"contracts/CollateralManager.sol\":2039:2049  msg.sender */\n      caller\n        /* \"contracts/CollateralManager.sol\":2020:2050  userCollateralCelo[msg.sender] */\n      0xffffffffffffffffffffffffffffffffffffffff\n      and\n      0xffffffffffffffffffffffffffffffffffffffff\n      and\n      dup2\n      mstore\n      0x20\n      add\n      swap1\n      dup2\n      mstore\n      0x20\n      add\n      0x00\n      keccak256\n      sload\n        /* \"contracts/CollateralManager.sol\":2020:2061  userCollateralCelo[msg.sender] >= _amount */\n      lt\n      iszero\n        /* \"contracts/CollateralManager.sol\":2012:2105  require(userCollateralCelo[msg.sender] >= _amount, \"CollateralManager: Insufficient balance\") */\n      tag_215\n      jumpi\n      mload(0x40)\n      0x08c379a000000000000000000000000000000000000000000000000000000000\n      dup2\n      mstore\n      0x04\n      add\n      tag_216\n      swap1\n      tag_184\n      jump\t// in\n    tag_216:\n      mload(0x40)\n      dup1\n      swap2\n      sub\n      swap1\n      revert\n    tag_215:\n        /* \"contracts/CollateralManager.sol\":2149:2156  _amount */\n      dup1\n        /* \"contracts/CollateralManager.sol\":2115:2133  userCollateralCelo */\n      0x08\n        /* \"contracts/CollateralManager.sol\":2115:2145  userCollateralCelo[msg.sender] */\n      0x00\n        /* \"contracts/CollateralManager.sol\":2134:2144  msg.sender */\n      caller\n        /* \"contracts/CollateralManager.sol\":2115:2145  userCollateralCelo[msg.sender] */\n      0xffffffffffffffffffffffffffffffffffffffff\n      and\n      0xffffffffffffffffffffffffffffffffffffffff\n      and\n      dup2\n      mstore\n      0x20\n      add\n      swap1\n      dup2\n      mstore\n      0x20\n      add\n      0x00\n      keccak256\n      0x00\n        /* \"contracts/CollateralManager.sol\":2115:2156  userCollateralCelo[msg.sender] -= _amount */\n      dup3\n      dup3\n      sload\n      tag_217\n      swap2\n      swap1\n      tag_186\n      jump\t// in\n    tag_217:\n      swap3\n      pop\n      pop\n      dup2\n      swap1\n      sstore\n      pop\n        /* \"contracts/CollateralManager.sol\":2189:2196  _amount */\n      dup1\n        /* \"contracts/CollateralManager.sol\":2166:2185  totalCollateralCelo */\n      0x04\n      0x00\n        /* \"contracts/CollateralManager.sol\":2166:2196  totalCollateralCelo -= _amount */\n      dup3\n      dup3\n      sload\n      tag_218\n      swap2\n      swap1\n      tag_186\n      jump\t// in\n    tag_218:\n      swap3\n      pop\n      pop\n      dup2\n      swap1\n      sstore\n      pop\n        /* \"contracts/CollateralManager.sol\":2214:2224  msg.sender */\n      caller\n        /* \"contracts/CollateralManager.sol\":2206:2234  payable(msg.sender).transfer */\n      0xffffffffffffffffffffffffffffffffffffffff\n      and\n        /* \"contracts/CollateralManager.sol\":2206:2243  payable(msg.sender).transfer(_amount) */\n      0x08fc\n        /* \"contracts/CollateralManager.sol\":2235:2242  _amount */\n      dup3\n        /* \"contracts/CollateralManager.sol\":2206:2243  payable(msg.sender).transfer(_amount) */\n      swap1\n      dup2\n      iszero\n      mul\n      swap1\n      mload(0x40)\n      0x00\n      mload(0x40)\n      dup1\n      dup4\n      sub\n      dup2\n      dup6\n      dup9\n      dup9\n      call\n      swap4\n      pop\n      pop\n      pop\n      pop\n      iszero\n      dup1\n      iszero\n      tag_220\n      jumpi\n      returndatasize\n      0x00\n      dup1\n      returndatacopy\n      revert(0x00, returndatasize)\n    tag_220:\n      pop\n        /* \"contracts/CollateralManager.sol\":2282:2292  msg.sender */\n      caller\n        /* \"contracts/CollateralManager.sol\":2258:2302  CeloCollateralWithdrawn(msg.sender, _amount) */\n      0xffffffffffffffffffffffffffffffffffffffff\n      and\n      0x0c3d79d31dc82080baf59ab3c3058c3c7c4f88f9969422caa1b42c51577d640b\n        /* \"contracts/CollateralManager.sol\":2294:2301  _amount */\n      dup3\n        /* \"contracts/CollateralManager.sol\":2258:2302  CeloCollateralWithdrawn(msg.sender, _amount) */\n      mload(0x40)\n      tag_221\n      swap2\n      swap1\n      tag_30\n      jump\t// in\n    tag_221:\n      mload(0x40)\n      dup1\n      swap2\n      sub\n      swap1\n      log2\n        /* \"@openzeppelin/contracts/utils/ReentrancyGuard.sol\":2398:2418  _nonReentrantAfter() */\n      tag_222\n        /* \"@openzeppelin/contracts/utils/ReentrancyGuard.sol\":2398:2416  _nonReentrantAfter */\n      tag_146\n        /* \"@openzeppelin/contracts/utils/ReentrancyGuard.sol\":2398:2418  _nonReentrantAfter() */\n      jump\t// in\n    tag_222:\n        /* \"contracts/CollateralManager.sol\":1791:2319  function withdrawCeloCollateral(uint256 _amount) external nonReentrant whenNotPaused {... */\n      pop\n      jump\t// out\n        /* \"contracts/CollateralManager.sol\":503:537  uint256 public totalCollateralUsdt */\n    tag_94:\n      sload(0x05)\n      dup2\n      jump\t// out\n        /* \"contracts/CollateralManager.sol\":711:764  mapping(address => uint256) public userCollateralCelo */\n    tag_99:\n      mstore(0x20, 0x08)\n      dup1\n      0x00\n      mstore\n      keccak256(0x00, 0x40)\n      0x00\n      swap2\n      pop\n      swap1\n      pop\n      sload\n      dup2\n      jump\t// out\n        /* \"contracts/CollateralManager.sol\":390:413  IERC20 public usdtToken */\n    tag_103:\n      0x02\n      0x00\n      swap1\n      sload\n      swap1\n      0x0100\n      exp\n      swap1\n      div\n      0xffffffffffffffffffffffffffffffffffffffff\n      and\n      dup2\n      jump\t// out\n        /* \"contracts/CollateralManager.sol\":770:823  mapping(address => uint256) public userCollateralUsdt */\n    tag_109:\n      mstore(0x20, 0x09)\n      dup1\n      0x00\n      mstore\n      keccak256(0x00, 0x40)\n      0x00\n      swap2\n      pop\n      swap1\n      pop\n      sload\n      dup2\n      jump\t// out\n        /* \"contracts/CollateralManager.sol\":1327:1785  function depositCeloCollateral() external payable nonReentrant whenNotPaused {... */\n    tag_112:\n        /* \"@openzeppelin/contracts/utils/ReentrancyGuard.sol\":2356:2377  _nonReentrantBefore() */\n      tag_224\n        /* \"@openzeppelin/contracts/utils/ReentrancyGuard.sol\":2356:2375  _nonReentrantBefore */\n      tag_135\n        /* \"@openzeppelin/contracts/utils/ReentrancyGuard.sol\":2356:2377  _nonReentrantBefore() */\n      jump\t// in\n    tag_224:\n        /* \"@openzeppelin/contracts/utils/Pausable.sol\":1474:1493  _requireNotPaused() */\n      tag_226\n        /* \"@openzeppelin/contracts/utils/Pausable.sol\":1474:1491  _requireNotPaused */\n      tag_152\n        /* \"@openzeppelin/contracts/utils/Pausable.sol\":1474:1493  _requireNotPaused() */\n      jump\t// in\n    tag_226:\n        /* \"contracts/CollateralManager.sol\":1434:1453  minCollateralAmount */\n      sload(0x06)\n        /* \"contracts/CollateralManager.sol\":1422:1431  msg.value */\n      callvalue\n        /* \"contracts/CollateralManager.sol\":1422:1453  msg.value > minCollateralAmount */\n      gt\n        /* \"contracts/CollateralManager.sol\":1414:1491  require(msg.value > minCollateralAmount, \"CollateralManager: Invalid amount\") */\n      tag_228\n      jumpi\n      mload(0x40)\n      0x08c379a000000000000000000000000000000000000000000000000000000000\n      dup2\n      mstore\n      0x04\n      add\n      tag_229\n      swap1\n      tag_156\n      jump\t// in\n    tag_229:\n      mload(0x40)\n      dup1\n      swap2\n      sub\n      swap1\n      revert\n    tag_228:\n        /* \"contracts/CollateralManager.sol\":1572:1581  msg.value */\n      callvalue\n        /* \"contracts/CollateralManager.sol\":1538:1556  userCollateralCelo */\n      0x08\n        /* \"contracts/CollateralManager.sol\":1538:1568  userCollateralCelo[msg.sender] */\n      0x00\n        /* \"contracts/CollateralManager.sol\":1557:1567  msg.sender */\n      caller\n        /* \"contracts/CollateralManager.sol\":1538:1568  userCollateralCelo[msg.sender] */\n      0xffffffffffffffffffffffffffffffffffffffff\n      and\n      0xffffffffffffffffffffffffffffffffffffffff\n      and\n      dup2\n      mstore\n      0x20\n      add\n      swap1\n      dup2\n      mstore\n      0x20\n      add\n      0x00\n      keccak256\n      0x00\n        /* \"contracts/CollateralManager.sol\":1538:1581  userCollateralCelo[msg.sender] += msg.value */\n      dup3\n      dup3\n      sload\n      tag_230\n      swap2\n      swap1\n      tag_132\n      jump\t// in\n    tag_230:\n      swap3\n      pop\n      pop\n      dup2\n      swap1\n      sstore\n      pop\n        /* \"contracts/CollateralManager.sol\":1653:1662  msg.value */\n      callvalue\n        /* \"contracts/CollateralManager.sol\":1630:1649  totalCollateralCelo */\n      0x04\n      0x00\n        /* \"contracts/CollateralManager.sol\":1630:1662  totalCollateralCelo += msg.value */\n      dup3\n      dup3\n      sload\n      tag_231\n      swap2\n      swap1\n      tag_132\n      jump\t// in\n    tag_231:\n      swap3\n      pop\n      pop\n      dup2\n      swap1\n      sstore\n      pop\n        /* \"contracts/CollateralManager.sol\":1739:1749  msg.sender */\n      caller\n        /* \"contracts/CollateralManager.sol\":1715:1761  CeloCollateralDeposited(msg.sender, msg.value) */\n      0xffffffffffffffffffffffffffffffffffffffff\n      and\n      0xf5bfa8a3f6a61792f266e3e92249facce14edf2b5fceeba5cb6cd0882593a9da\n        /* \"contracts/CollateralManager.sol\":1751:1760  msg.value */\n      callvalue\n        /* \"contracts/CollateralManager.sol\":1715:1761  CeloCollateralDeposited(msg.sender, msg.value) */\n      mload(0x40)\n      tag_232\n      swap2\n      swap1\n      tag_30\n      jump\t// in\n    tag_232:\n      mload(0x40)\n      dup1\n      swap2\n      sub\n      swap1\n      log2\n        /* \"@openzeppelin/contracts/utils/ReentrancyGuard.sol\":2398:2418  _nonReentrantAfter() */\n      tag_233\n        /* \"@openzeppelin/contracts/utils/ReentrancyGuard.sol\":2398:2416  _nonReentrantAfter */\n      tag_146\n        /* \"@openzeppelin/contracts/utils/ReentrancyGuard.sol\":2398:2418  _nonReentrantAfter() */\n      jump\t// in\n    tag_233:\n        /* \"contracts/CollateralManager.sol\":1327:1785  function depositCeloCollateral() external payable nonReentrant whenNotPaused {... */\n      jump\t// out\n        /* \"@openzeppelin/contracts/access/Ownable.sol\":2543:2758  function transferOwnership(address newOwner) public virtual onlyOwner {... */\n    tag_116:\n        /* \"@openzeppelin/contracts/access/Ownable.sol\":1531:1544  _checkOwner() */\n      tag_235\n        /* \"@openzeppelin/contracts/access/Ownable.sol\":1531:1542  _checkOwner */\n      tag_171\n        /* \"@openzeppelin/contracts/access/Ownable.sol\":1531:1544  _checkOwner() */\n      jump\t// in\n    tag_235:\n        /* \"@openzeppelin/contracts/access/Ownable.sol\":2647:2648  0 */\n      0x00\n        /* \"@openzeppelin/contracts/access/Ownable.sol\":2627:2649  newOwner == address(0) */\n      0xffffffffffffffffffffffffffffffffffffffff\n      and\n        /* \"@openzeppelin/contracts/access/Ownable.sol\":2627:2635  newOwner */\n      dup2\n        /* \"@openzeppelin/contracts/access/Ownable.sol\":2627:2649  newOwner == address(0) */\n      0xffffffffffffffffffffffffffffffffffffffff\n      and\n      sub\n        /* \"@openzeppelin/contracts/access/Ownable.sol\":2623:2714  if (newOwner == address(0)) {... */\n      tag_237\n      jumpi\n        /* \"@openzeppelin/contracts/access/Ownable.sol\":2700:2701  0 */\n      0x00\n        /* \"@openzeppelin/contracts/access/Ownable.sol\":2672:2703  OwnableInvalidOwner(address(0)) */\n      mload(0x40)\n      0x1e4fbdf700000000000000000000000000000000000000000000000000000000\n      dup2\n      mstore\n      0x04\n      add\n      tag_238\n      swap2\n      swap1\n      tag_87\n      jump\t// in\n    tag_238:\n      mload(0x40)\n      dup1\n      swap2\n      sub\n      swap1\n      revert\n        /* \"@openzeppelin/contracts/access/Ownable.sol\":2623:2714  if (newOwner == address(0)) {... */\n    tag_237:\n        /* \"@openzeppelin/contracts/access/Ownable.sol\":2723:2751  _transferOwnership(newOwner) */\n      tag_239\n        /* \"@openzeppelin/contracts/access/Ownable.sol\":2742:2750  newOwner */\n      dup2\n        /* \"@openzeppelin/contracts/access/Ownable.sol\":2723:2741  _transferOwnership */\n      tag_201\n        /* \"@openzeppelin/contracts/access/Ownable.sol\":2723:2751  _transferOwnership(newOwner) */\n      jump\t// in\n    tag_239:\n        /* \"@openzeppelin/contracts/access/Ownable.sol\":2543:2758  function transferOwnership(address newOwner) public virtual onlyOwner {... */\n      pop\n      jump\t// out\n        /* \"@openzeppelin/contracts/utils/ReentrancyGuard.sol\":2431:2738  function _nonReentrantBefore() private {... */\n    tag_135:\n        /* \"@openzeppelin/contracts/utils/ReentrancyGuard.sol\":1755:1756  2 */\n      0x02\n        /* \"@openzeppelin/contracts/utils/ReentrancyGuard.sol\":2558:2565  _status */\n      sload(0x00)\n        /* \"@openzeppelin/contracts/utils/ReentrancyGuard.sol\":2558:2576  _status == ENTERED */\n      sub\n        /* \"@openzeppelin/contracts/utils/ReentrancyGuard.sol\":2554:2640  if (_status == ENTERED) {... */\n      tag_241\n      jumpi\n        /* \"@openzeppelin/contracts/utils/ReentrancyGuard.sol\":2599:2629  ReentrancyGuardReentrantCall() */\n      mload(0x40)\n      0x3ee5aeb500000000000000000000000000000000000000000000000000000000\n      dup2\n      mstore\n      0x04\n      add\n      mload(0x40)\n      dup1\n      swap2\n      sub\n      swap1\n      revert\n        /* \"@openzeppelin/contracts/utils/ReentrancyGuard.sol\":2554:2640  if (_status == ENTERED) {... */\n    tag_241:\n        /* \"@openzeppelin/contracts/utils/ReentrancyGuard.sol\":1755:1756  2 */\n      0x02\n        /* \"@openzeppelin/contracts/utils/ReentrancyGuard.sol\":2714:2721  _status */\n      0x00\n        /* \"@openzeppelin/contracts/utils/ReentrancyGuard.sol\":2714:2731  _status = ENTERED */\n      dup2\n      swap1\n      sstore\n      pop\n        /* \"@openzeppelin/contracts/utils/ReentrancyGuard.sol\":2431:2738  function _nonReentrantBefore() private {... */\n      jump\t// out\n        /* \"@openzeppelin/contracts/utils/ReentrancyGuard.sol\":2744:2952  function _nonReentrantAfter() private {... */\n    tag_146:\n        /* \"@openzeppelin/contracts/utils/ReentrancyGuard.sol\":1713:1714  1 */\n      0x01\n        /* \"@openzeppelin/contracts/utils/ReentrancyGuard.sol\":2924:2931  _status */\n      0x00\n        /* \"@openzeppelin/contracts/utils/ReentrancyGuard.sol\":2924:2945  _status = NOT_ENTERED */\n      dup2\n      swap1\n      sstore\n      pop\n        /* \"@openzeppelin/contracts/utils/ReentrancyGuard.sol\":2744:2952  function _nonReentrantAfter() private {... */\n      jump\t// out\n        /* \"@openzeppelin/contracts/utils/Pausable.sol\":2002:2130  function _requireNotPaused() internal view virtual {... */\n    tag_152:\n        /* \"@openzeppelin/contracts/utils/Pausable.sol\":2067:2075  paused() */\n      tag_244\n        /* \"@openzeppelin/contracts/utils/Pausable.sol\":2067:2073  paused */\n      tag_70\n        /* \"@openzeppelin/contracts/utils/Pausable.sol\":2067:2075  paused() */\n      jump\t// in\n    tag_244:\n        /* \"@openzeppelin/contracts/utils/Pausable.sol\":2063:2124  if (paused()) {... */\n      iszero\n      tag_245\n      jumpi\n        /* \"@openzeppelin/contracts/utils/Pausable.sol\":2098:2113  EnforcedPause() */\n      mload(0x40)\n      0xd93c066500000000000000000000000000000000000000000000000000000000\n      dup2\n      mstore\n      0x04\n      add\n      mload(0x40)\n      dup1\n      swap2\n      sub\n      swap1\n      revert\n        /* \"@openzeppelin/contracts/utils/Pausable.sol\":2063:2124  if (paused()) {... */\n    tag_245:\n        /* \"@openzeppelin/contracts/utils/Pausable.sol\":2002:2130  function _requireNotPaused() internal view virtual {... */\n      jump\t// out\n        /* \"@openzeppelin/contracts/access/Ownable.sol\":1796:1958  function _checkOwner() internal view virtual {... */\n    tag_171:\n        /* \"@openzeppelin/contracts/access/Ownable.sol\":1866:1878  _msgSender() */\n      tag_247\n        /* \"@openzeppelin/contracts/access/Ownable.sol\":1866:1876  _msgSender */\n      tag_248\n        /* \"@openzeppelin/contracts/access/Ownable.sol\":1866:1878  _msgSender() */\n      jump\t// in\n    tag_247:\n        /* \"@openzeppelin/contracts/access/Ownable.sol\":1855:1878  owner() != _msgSender() */\n      0xffffffffffffffffffffffffffffffffffffffff\n      and\n        /* \"@openzeppelin/contracts/access/Ownable.sol\":1855:1862  owner() */\n      tag_249\n        /* \"@openzeppelin/contracts/access/Ownable.sol\":1855:1860  owner */\n      tag_85\n        /* \"@openzeppelin/contracts/access/Ownable.sol\":1855:1862  owner() */\n      jump\t// in\n    tag_249:\n        /* \"@openzeppelin/contracts/access/Ownable.sol\":1855:1878  owner() != _msgSender() */\n      0xffffffffffffffffffffffffffffffffffffffff\n      and\n      eq\n        /* \"@openzeppelin/contracts/access/Ownable.sol\":1851:1952  if (owner() != _msgSender()) {... */\n      tag_250\n      jumpi\n        /* \"@openzeppelin/contracts/access/Ownable.sol\":1928:1940  _msgSender() */\n      tag_251\n        /* \"@openzeppelin/contracts/access/Ownable.sol\":1928:1938  _msgSender */\n      tag_248\n        /* \"@openzeppelin/contracts/access/Ownable.sol\":1928:1940  _msgSender() */\n      jump\t// in\n    tag_251:\n        /* \"@openzeppelin/contracts/access/Ownable.sol\":1901:1941  OwnableUnauthorizedAccount(_msgSender()) */\n      mload(0x40)\n      0x118cdaa700000000000000000000000000000000000000000000000000000000\n      dup2\n      mstore\n      0x04\n      add\n      tag_252\n      swap2\n      swap1\n      tag_87\n      jump\t// in\n    tag_252:\n      mload(0x40)\n      dup1\n      swap2\n      sub\n      swap1\n      revert\n        /* \"@openzeppelin/contracts/access/Ownable.sol\":1851:1952  if (owner() != _msgSender()) {... */\n    tag_250:\n        /* \"@openzeppelin/contracts/access/Ownable.sol\":1796:1958  function _checkOwner() internal view virtual {... */\n      jump\t// out\n        /* \"@openzeppelin/contracts/utils/Pausable.sol\":2710:2827  function _unpause() internal virtual whenPaused {... */\n    tag_174:\n        /* \"@openzeppelin/contracts/utils/Pausable.sol\":1721:1737  _requirePaused() */\n      tag_254\n        /* \"@openzeppelin/contracts/utils/Pausable.sol\":1721:1735  _requirePaused */\n      tag_255\n        /* \"@openzeppelin/contracts/utils/Pausable.sol\":1721:1737  _requirePaused() */\n      jump\t// in\n    tag_254:\n        /* \"@openzeppelin/contracts/utils/Pausable.sol\":2778:2783  false */\n      0x00\n        /* \"@openzeppelin/contracts/utils/Pausable.sol\":2768:2775  _paused */\n      0x01\n      0x00\n        /* \"@openzeppelin/contracts/utils/Pausable.sol\":2768:2783  _paused = false */\n      0x0100\n      exp\n      dup2\n      sload\n      dup2\n      0xff\n      mul\n      not\n      and\n      swap1\n      dup4\n      iszero\n      iszero\n      mul\n      or\n      swap1\n      sstore\n      pop\n        /* \"@openzeppelin/contracts/utils/Pausable.sol\":2798:2820  Unpaused(_msgSender()) */\n      0x5db9ee0a495bf2e6ff9c91a7834c1ba4fdd244a5e8aa4e537bd38aeae4b073aa\n        /* \"@openzeppelin/contracts/utils/Pausable.sol\":2807:2819  _msgSender() */\n      tag_257\n        /* \"@openzeppelin/contracts/utils/Pausable.sol\":2807:2817  _msgSender */\n      tag_248\n        /* \"@openzeppelin/contracts/utils/Pausable.sol\":2807:2819  _msgSender() */\n      jump\t// in\n    tag_257:\n        /* \"@openzeppelin/contracts/utils/Pausable.sol\":2798:2820  Unpaused(_msgSender()) */\n      mload(0x40)\n      tag_258\n      swap2\n      swap1\n      tag_87\n      jump\t// in\n    tag_258:\n      mload(0x40)\n      dup1\n      swap2\n      sub\n      swap1\n      log1\n        /* \"@openzeppelin/contracts/utils/Pausable.sol\":2710:2827  function _unpause() internal virtual whenPaused {... */\n      jump\t// out\n        /* \"@openzeppelin/contracts/access/Ownable.sol\":2912:3099  function _transferOwnership(address newOwner) internal virtual {... */\n    tag_201:\n        /* \"@openzeppelin/contracts/access/Ownable.sol\":2985:3001  address oldOwner */\n      0x00\n        /* \"@openzeppelin/contracts/access/Ownable.sol\":3004:3010  _owner */\n      0x01\n      dup1\n      sload\n      swap1\n      0x0100\n      exp\n      swap1\n      div\n      0xffffffffffffffffffffffffffffffffffffffff\n      and\n        /* \"@openzeppelin/contracts/access/Ownable.sol\":2985:3010  address oldOwner = _owner */\n      swap1\n      pop\n        /* \"@openzeppelin/contracts/access/Ownable.sol\":3029:3037  newOwner */\n      dup2\n        /* \"@openzeppelin/contracts/access/Ownable.sol\":3020:3026  _owner */\n      0x01\n      dup1\n        /* \"@openzeppelin/contracts/access/Ownable.sol\":3020:3037  _owner = newOwner */\n      0x0100\n      exp\n      dup2\n      sload\n      dup2\n      0xffffffffffffffffffffffffffffffffffffffff\n      mul\n      not\n      and\n      swap1\n      dup4\n      0xffffffffffffffffffffffffffffffffffffffff\n      and\n      mul\n      or\n      swap1\n      sstore\n      pop\n        /* \"@openzeppelin/contracts/access/Ownable.sol\":3083:3091  newOwner */\n      dup2\n        /* \"@openzeppelin/contracts/access/Ownable.sol\":3052:3092  OwnershipTransferred(oldOwner, newOwner) */\n      0xffffffffffffffffffffffffffffffffffffffff\n      and\n        /* \"@openzeppelin/contracts/access/Ownable.sol\":3073:3081  oldOwner */\n      dup2\n        /* \"@openzeppelin/contracts/access/Ownable.sol\":3052:3092  OwnershipTransferred(oldOwner, newOwner) */\n      0xffffffffffffffffffffffffffffffffffffffff\n      and\n      0x8be0079c531659141344cd1fd0a4f28419497f9722a3daafe3b4186f6b6457e0\n      mload(0x40)\n      mload(0x40)\n      dup1\n      swap2\n      sub\n      swap1\n      log3\n        /* \"@openzeppelin/contracts/access/Ownable.sol\":2975:3099  {... */\n      pop\n        /* \"@openzeppelin/contracts/access/Ownable.sol\":2912:3099  function _transferOwnership(address newOwner) internal virtual {... */\n      pop\n      jump\t// out\n        /* \"@openzeppelin/contracts/utils/Pausable.sol\":2463:2578  function _pause() internal virtual whenNotPaused {... */\n    tag_206:\n        /* \"@openzeppelin/contracts/utils/Pausable.sol\":1474:1493  _requireNotPaused() */\n      tag_261\n        /* \"@openzeppelin/contracts/utils/Pausable.sol\":1474:1491  _requireNotPaused */\n      tag_152\n        /* \"@openzeppelin/contracts/utils/Pausable.sol\":1474:1493  _requireNotPaused() */\n      jump\t// in\n    tag_261:\n        /* \"@openzeppelin/contracts/utils/Pausable.sol\":2532:2536  true */\n      0x01\n        /* \"@openzeppelin/contracts/utils/Pausable.sol\":2522:2529  _paused */\n      dup1\n      0x00\n        /* \"@openzeppelin/contracts/utils/Pausable.sol\":2522:2536  _paused = true */\n      0x0100\n      exp\n      dup2\n      sload\n      dup2\n      0xff\n      mul\n      not\n      and\n      swap1\n      dup4\n      iszero\n      iszero\n      mul\n      or\n      swap1\n      sstore\n      pop\n        /* \"@openzeppelin/contracts/utils/Pausable.sol\":2551:2571  Paused(_msgSender()) */\n      0x62e78cea01bee320cd4e420270b5ea74000d11b0c9f74754ebdbfc544b05a258\n        /* \"@openzeppelin/contracts/utils/Pausable.sol\":2558:2570  _msgSender() */\n      tag_263\n        /* \"@openzeppelin/contracts/utils/Pausable.sol\":2558:2568  _msgSender */\n      tag_248\n        /* \"@openzeppelin/contracts/utils/Pausable.sol\":2558:2570  _msgSender() */\n      jump\t// in\n    tag_263:\n        /* \"@openzeppelin/contracts/utils/Pausable.sol\":2551:2571  Paused(_msgSender()) */\n      mload(0x40)\n      tag_264\n      swap2\n      swap1\n      tag_87\n      jump\t// in\n    tag_264:\n      mload(0x40)\n      dup1\n      swap2\n      sub\n      swap1\n      log1\n        /* \"@openzeppelin/contracts/utils/Pausable.sol\":2463:2578  function _pause() internal virtual whenNotPaused {... */\n      jump\t// out\n        /* \"@openzeppelin/contracts/utils/Context.sol\":656:752  function _msgSender() internal view virtual returns (address) {... */\n    tag_248:\n        /* \"@openzeppelin/contracts/utils/Context.sol\":709:716  address */\n      0x00\n        /* \"@openzeppelin/contracts/utils/Context.sol\":735:745  msg.sender */\n      caller\n        /* \"@openzeppelin/contracts/utils/Context.sol\":728:745  return msg.sender */\n      swap1\n      pop\n        /* \"@openzeppelin/contracts/utils/Context.sol\":656:752  function _msgSender() internal view virtual returns (address) {... */\n      swap1\n      jump\t// out\n        /* \"@openzeppelin/contracts/utils/Pausable.sol\":2202:2328  function _requirePaused() internal view virtual {... */\n    tag_255:\n        /* \"@openzeppelin/contracts/utils/Pausable.sol\":2265:2273  paused() */\n      tag_267\n        /* \"@openzeppelin/contracts/utils/Pausable.sol\":2265:2271  paused */\n      tag_70\n        /* \"@openzeppelin/contracts/utils/Pausable.sol\":2265:2273  paused() */\n      jump\t// in\n    tag_267:\n        /* \"@openzeppelin/contracts/utils/Pausable.sol\":2260:2322  if (!paused()) {... */\n      tag_268\n      jumpi\n        /* \"@openzeppelin/contracts/utils/Pausable.sol\":2296:2311  ExpectedPause() */\n      mload(0x40)\n      0x8dfc202b00000000000000000000000000000000000000000000000000000000\n      dup2\n      mstore\n      0x04\n      add\n      mload(0x40)\n      dup1\n      swap2\n      sub\n      swap1\n      revert\n        /* \"@openzeppelin/contracts/utils/Pausable.sol\":2260:2322  if (!paused()) {... */\n    tag_268:\n        /* \"@openzeppelin/contracts/utils/Pausable.sol\":2202:2328  function _requirePaused() internal view virtual {... */\n      jump\t// out\n        /* \"#utility.yul\":7:84   */\n    tag_269:\n        /* \"#utility.yul\":44:51   */\n      0x00\n        /* \"#utility.yul\":73:78   */\n      dup2\n        /* \"#utility.yul\":62:78   */\n      swap1\n      pop\n        /* \"#utility.yul\":7:84   */\n      swap2\n      swap1\n      pop\n      jump\t// out\n        /* \"#utility.yul\":90:208   */\n    tag_270:\n        /* \"#utility.yul\":177:201   */\n      tag_307\n        /* \"#utility.yul\":195:200   */\n      dup2\n        /* \"#utility.yul\":177:201   */\n      tag_269\n      jump\t// in\n    tag_307:\n        /* \"#utility.yul\":172:175   */\n      dup3\n        /* \"#utility.yul\":165:202   */\n      mstore\n        /* \"#utility.yul\":90:208   */\n      pop\n      pop\n      jump\t// out\n        /* \"#utility.yul\":214:436   */\n    tag_30:\n        /* \"#utility.yul\":307:311   */\n      0x00\n        /* \"#utility.yul\":345:347   */\n      0x20\n        /* \"#utility.yul\":334:343   */\n      dup3\n        /* \"#utility.yul\":330:348   */\n      add\n        /* \"#utility.yul\":322:348   */\n      swap1\n      pop\n        /* \"#utility.yul\":358:429   */\n      tag_309\n        /* \"#utility.yul\":426:427   */\n      0x00\n        /* \"#utility.yul\":415:424   */\n      dup4\n        /* \"#utility.yul\":411:428   */\n      add\n        /* \"#utility.yul\":402:408   */\n      dup5\n        /* \"#utility.yul\":358:429   */\n      tag_270\n      jump\t// in\n    tag_309:\n        /* \"#utility.yul\":214:436   */\n      swap3\n      swap2\n      pop\n      pop\n      jump\t// out\n        /* \"#utility.yul\":523:640   */\n    tag_272:\n        /* \"#utility.yul\":632:633   */\n      0x00\n        /* \"#utility.yul\":629:630   */\n      dup1\n        /* \"#utility.yul\":622:634   */\n      revert\n        /* \"#utility.yul\":769:895   */\n    tag_274:\n        /* \"#utility.yul\":806:813   */\n      0x00\n        /* \"#utility.yul\":846:888   */\n      0xffffffffffffffffffffffffffffffffffffffff\n        /* \"#utility.yul\":839:844   */\n      dup3\n        /* \"#utility.yul\":835:889   */\n      and\n        /* \"#utility.yul\":824:889   */\n      swap1\n      pop\n        /* \"#utility.yul\":769:895   */\n      swap2\n      swap1\n      pop\n      jump\t// out\n        /* \"#utility.yul\":901:997   */\n    tag_275:\n        /* \"#utility.yul\":938:945   */\n      0x00\n        /* \"#utility.yul\":967:991   */\n      tag_315\n        /* \"#utility.yul\":985:990   */\n      dup3\n        /* \"#utility.yul\":967:991   */\n      tag_274\n      jump\t// in\n    tag_315:\n        /* \"#utility.yul\":956:991   */\n      swap1\n      pop\n        /* \"#utility.yul\":901:997   */\n      swap2\n      swap1\n      pop\n      jump\t// out\n        /* \"#utility.yul\":1003:1125   */\n    tag_276:\n        /* \"#utility.yul\":1076:1100   */\n      tag_317\n        /* \"#utility.yul\":1094:1099   */\n      dup2\n        /* \"#utility.yul\":1076:1100   */\n      tag_275\n      jump\t// in\n    tag_317:\n        /* \"#utility.yul\":1069:1074   */\n      dup2\n        /* \"#utility.yul\":1066:1101   */\n      eq\n        /* \"#utility.yul\":1056:1119   */\n      tag_318\n      jumpi\n        /* \"#utility.yul\":1115:1116   */\n      0x00\n        /* \"#utility.yul\":1112:1113   */\n      dup1\n        /* \"#utility.yul\":1105:1117   */\n      revert\n        /* \"#utility.yul\":1056:1119   */\n    tag_318:\n        /* \"#utility.yul\":1003:1125   */\n      pop\n      jump\t// out\n        /* \"#utility.yul\":1131:1270   */\n    tag_277:\n        /* \"#utility.yul\":1177:1182   */\n      0x00\n        /* \"#utility.yul\":1215:1221   */\n      dup2\n        /* \"#utility.yul\":1202:1222   */\n      calldataload\n        /* \"#utility.yul\":1193:1222   */\n      swap1\n      pop\n        /* \"#utility.yul\":1231:1264   */\n      tag_320\n        /* \"#utility.yul\":1258:1263   */\n      dup2\n        /* \"#utility.yul\":1231:1264   */\n      tag_276\n      jump\t// in\n    tag_320:\n        /* \"#utility.yul\":1131:1270   */\n      swap3\n      swap2\n      pop\n      pop\n      jump\t// out\n        /* \"#utility.yul\":1276:1605   */\n    tag_34:\n        /* \"#utility.yul\":1335:1341   */\n      0x00\n        /* \"#utility.yul\":1384:1386   */\n      0x20\n        /* \"#utility.yul\":1372:1381   */\n      dup3\n        /* \"#utility.yul\":1363:1370   */\n      dup5\n        /* \"#utility.yul\":1359:1382   */\n      sub\n        /* \"#utility.yul\":1355:1387   */\n      slt\n        /* \"#utility.yul\":1352:1471   */\n      iszero\n      tag_322\n      jumpi\n        /* \"#utility.yul\":1390:1469   */\n      tag_323\n      tag_272\n      jump\t// in\n    tag_323:\n        /* \"#utility.yul\":1352:1471   */\n    tag_322:\n        /* \"#utility.yul\":1510:1511   */\n      0x00\n        /* \"#utility.yul\":1535:1588   */\n      tag_324\n        /* \"#utility.yul\":1580:1587   */\n      dup5\n        /* \"#utility.yul\":1571:1577   */\n      dup3\n        /* \"#utility.yul\":1560:1569   */\n      dup6\n        /* \"#utility.yul\":1556:1578   */\n      add\n        /* \"#utility.yul\":1535:1588   */\n      tag_277\n      jump\t// in\n    tag_324:\n        /* \"#utility.yul\":1525:1588   */\n      swap2\n      pop\n        /* \"#utility.yul\":1481:1598   */\n      pop\n        /* \"#utility.yul\":1276:1605   */\n      swap3\n      swap2\n      pop\n      pop\n      jump\t// out\n        /* \"#utility.yul\":1611:1671   */\n    tag_278:\n        /* \"#utility.yul\":1639:1642   */\n      0x00\n        /* \"#utility.yul\":1660:1665   */\n      dup2\n        /* \"#utility.yul\":1653:1665   */\n      swap1\n      pop\n        /* \"#utility.yul\":1611:1671   */\n      swap2\n      swap1\n      pop\n      jump\t// out\n        /* \"#utility.yul\":1677:1819   */\n    tag_279:\n        /* \"#utility.yul\":1727:1736   */\n      0x00\n        /* \"#utility.yul\":1760:1813   */\n      tag_327\n        /* \"#utility.yul\":1778:1812   */\n      tag_328\n        /* \"#utility.yul\":1787:1811   */\n      tag_329\n        /* \"#utility.yul\":1805:1810   */\n      dup5\n        /* \"#utility.yul\":1787:1811   */\n      tag_274\n      jump\t// in\n    tag_329:\n        /* \"#utility.yul\":1778:1812   */\n      tag_278\n      jump\t// in\n    tag_328:\n        /* \"#utility.yul\":1760:1813   */\n      tag_274\n      jump\t// in\n    tag_327:\n        /* \"#utility.yul\":1747:1813   */\n      swap1\n      pop\n        /* \"#utility.yul\":1677:1819   */\n      swap2\n      swap1\n      pop\n      jump\t// out\n        /* \"#utility.yul\":1825:1951   */\n    tag_280:\n        /* \"#utility.yul\":1875:1884   */\n      0x00\n        /* \"#utility.yul\":1908:1945   */\n      tag_331\n        /* \"#utility.yul\":1939:1944   */\n      dup3\n        /* \"#utility.yul\":1908:1945   */\n      tag_279\n      jump\t// in\n    tag_331:\n        /* \"#utility.yul\":1895:1945   */\n      swap1\n      pop\n        /* \"#utility.yul\":1825:1951   */\n      swap2\n      swap1\n      pop\n      jump\t// out\n        /* \"#utility.yul\":1957:2111   */\n    tag_281:\n        /* \"#utility.yul\":2035:2044   */\n      0x00\n        /* \"#utility.yul\":2068:2105   */\n      tag_333\n        /* \"#utility.yul\":2099:2104   */\n      dup3\n        /* \"#utility.yul\":2068:2105   */\n      tag_280\n      jump\t// in\n    tag_333:\n        /* \"#utility.yul\":2055:2105   */\n      swap1\n      pop\n        /* \"#utility.yul\":1957:2111   */\n      swap2\n      swap1\n      pop\n      jump\t// out\n        /* \"#utility.yul\":2117:2304   */\n    tag_282:\n        /* \"#utility.yul\":2232:2297   */\n      tag_335\n        /* \"#utility.yul\":2291:2296   */\n      dup2\n        /* \"#utility.yul\":2232:2297   */\n      tag_281\n      jump\t// in\n    tag_335:\n        /* \"#utility.yul\":2227:2230   */\n      dup3\n        /* \"#utility.yul\":2220:2298   */\n      mstore\n        /* \"#utility.yul\":2117:2304   */\n      pop\n      pop\n      jump\t// out\n        /* \"#utility.yul\":2310:2588   */\n    tag_45:\n        /* \"#utility.yul\":2431:2435   */\n      0x00\n        /* \"#utility.yul\":2469:2471   */\n      0x20\n        /* \"#utility.yul\":2458:2467   */\n      dup3\n        /* \"#utility.yul\":2454:2472   */\n      add\n        /* \"#utility.yul\":2446:2472   */\n      swap1\n      pop\n        /* \"#utility.yul\":2482:2581   */\n      tag_337\n        /* \"#utility.yul\":2578:2579   */\n      0x00\n        /* \"#utility.yul\":2567:2576   */\n      dup4\n        /* \"#utility.yul\":2563:2580   */\n      add\n        /* \"#utility.yul\":2554:2560   */\n      dup5\n        /* \"#utility.yul\":2482:2581   */\n      tag_282\n      jump\t// in\n    tag_337:\n        /* \"#utility.yul\":2310:2588   */\n      swap3\n      swap2\n      pop\n      pop\n      jump\t// out\n        /* \"#utility.yul\":2594:2926   */\n    tag_51:\n        /* \"#utility.yul\":2715:2719   */\n      0x00\n        /* \"#utility.yul\":2753:2755   */\n      0x40\n        /* \"#utility.yul\":2742:2751   */\n      dup3\n        /* \"#utility.yul\":2738:2756   */\n      add\n        /* \"#utility.yul\":2730:2756   */\n      swap1\n      pop\n        /* \"#utility.yul\":2766:2837   */\n      tag_339\n        /* \"#utility.yul\":2834:2835   */\n      0x00\n        /* \"#utility.yul\":2823:2832   */\n      dup4\n        /* \"#utility.yul\":2819:2836   */\n      add\n        /* \"#utility.yul\":2810:2816   */\n      dup6\n        /* \"#utility.yul\":2766:2837   */\n      tag_270\n      jump\t// in\n    tag_339:\n        /* \"#utility.yul\":2847:2919   */\n      tag_340\n        /* \"#utility.yul\":2915:2917   */\n      0x20\n        /* \"#utility.yul\":2904:2913   */\n      dup4\n        /* \"#utility.yul\":2900:2918   */\n      add\n        /* \"#utility.yul\":2891:2897   */\n      dup5\n        /* \"#utility.yul\":2847:2919   */\n      tag_270\n      jump\t// in\n    tag_340:\n        /* \"#utility.yul\":2594:2926   */\n      swap4\n      swap3\n      pop\n      pop\n      pop\n      jump\t// out\n        /* \"#utility.yul\":2932:3054   */\n    tag_283:\n        /* \"#utility.yul\":3005:3029   */\n      tag_342\n        /* \"#utility.yul\":3023:3028   */\n      dup2\n        /* \"#utility.yul\":3005:3029   */\n      tag_269\n      jump\t// in\n    tag_342:\n        /* \"#utility.yul\":2998:3003   */\n      dup2\n        /* \"#utility.yul\":2995:3030   */\n      eq\n        /* \"#utility.yul\":2985:3048   */\n      tag_343\n      jumpi\n        /* \"#utility.yul\":3044:3045   */\n      0x00\n        /* \"#utility.yul\":3041:3042   */\n      dup1\n        /* \"#utility.yul\":3034:3046   */\n      revert\n        /* \"#utility.yul\":2985:3048   */\n    tag_343:\n        /* \"#utility.yul\":2932:3054   */\n      pop\n      jump\t// out\n        /* \"#utility.yul\":3060:3199   */\n    tag_284:\n        /* \"#utility.yul\":3106:3111   */\n      0x00\n        /* \"#utility.yul\":3144:3150   */\n      dup2\n        /* \"#utility.yul\":3131:3151   */\n      calldataload\n        /* \"#utility.yul\":3122:3151   */\n      swap1\n      pop\n        /* \"#utility.yul\":3160:3193   */\n      tag_345\n        /* \"#utility.yul\":3187:3192   */\n      dup2\n        /* \"#utility.yul\":3160:3193   */\n      tag_283\n      jump\t// in\n    tag_345:\n        /* \"#utility.yul\":3060:3199   */\n      swap3\n      swap2\n      pop\n      pop\n      jump\t// out\n        /* \"#utility.yul\":3205:3534   */\n    tag_55:\n        /* \"#utility.yul\":3264:3270   */\n      0x00\n        /* \"#utility.yul\":3313:3315   */\n      0x20\n        /* \"#utility.yul\":3301:3310   */\n      dup3\n        /* \"#utility.yul\":3292:3299   */\n      dup5\n        /* \"#utility.yul\":3288:3311   */\n      sub\n        /* \"#utility.yul\":3284:3316   */\n      slt\n        /* \"#utility.yul\":3281:3400   */\n      iszero\n      tag_347\n      jumpi\n        /* \"#utility.yul\":3319:3398   */\n      tag_348\n      tag_272\n      jump\t// in\n    tag_348:\n        /* \"#utility.yul\":3281:3400   */\n    tag_347:\n        /* \"#utility.yul\":3439:3440   */\n      0x00\n        /* \"#utility.yul\":3464:3517   */\n      tag_349\n        /* \"#utility.yul\":3509:3516   */\n      dup5\n        /* \"#utility.yul\":3500:3506   */\n      dup3\n        /* \"#utility.yul\":3489:3498   */\n      dup6\n        /* \"#utility.yul\":3485:3507   */\n      add\n        /* \"#utility.yul\":3464:3517   */\n      tag_284\n      jump\t// in\n    tag_349:\n        /* \"#utility.yul\":3454:3517   */\n      swap2\n      pop\n        /* \"#utility.yul\":3410:3527   */\n      pop\n        /* \"#utility.yul\":3205:3534   */\n      swap3\n      swap2\n      pop\n      pop\n      jump\t// out\n        /* \"#utility.yul\":3540:3630   */\n    tag_285:\n        /* \"#utility.yul\":3574:3581   */\n      0x00\n        /* \"#utility.yul\":3617:3622   */\n      dup2\n        /* \"#utility.yul\":3610:3623   */\n      iszero\n        /* \"#utility.yul\":3603:3624   */\n      iszero\n        /* \"#utility.yul\":3592:3624   */\n      swap1\n      pop\n        /* \"#utility.yul\":3540:3630   */\n      swap2\n      swap1\n      pop\n      jump\t// out\n        /* \"#utility.yul\":3636:3745   */\n    tag_286:\n        /* \"#utility.yul\":3717:3738   */\n      tag_352\n        /* \"#utility.yul\":3732:3737   */\n      dup2\n        /* \"#utility.yul\":3717:3738   */\n      tag_285\n      jump\t// in\n    tag_352:\n        /* \"#utility.yul\":3712:3715   */\n      dup3\n        /* \"#utility.yul\":3705:3739   */\n      mstore\n        /* \"#utility.yul\":3636:3745   */\n      pop\n      pop\n      jump\t// out\n        /* \"#utility.yul\":3751:3961   */\n    tag_72:\n        /* \"#utility.yul\":3838:3842   */\n      0x00\n        /* \"#utility.yul\":3876:3878   */\n      0x20\n        /* \"#utility.yul\":3865:3874   */\n      dup3\n        /* \"#utility.yul\":3861:3879   */\n      add\n        /* \"#utility.yul\":3853:3879   */\n      swap1\n      pop\n        /* \"#utility.yul\":3889:3954   */\n      tag_354\n        /* \"#utility.yul\":3951:3952   */\n      0x00\n        /* \"#utility.yul\":3940:3949   */\n      dup4\n        /* \"#utility.yul\":3936:3953   */\n      add\n        /* \"#utility.yul\":3927:3933   */\n      dup5\n        /* \"#utility.yul\":3889:3954   */\n      tag_286\n      jump\t// in\n    tag_354:\n        /* \"#utility.yul\":3751:3961   */\n      swap3\n      swap2\n      pop\n      pop\n      jump\t// out\n        /* \"#utility.yul\":3967:4085   */\n    tag_287:\n        /* \"#utility.yul\":4054:4078   */\n      tag_356\n        /* \"#utility.yul\":4072:4077   */\n      dup2\n        /* \"#utility.yul\":4054:4078   */\n      tag_275\n      jump\t// in\n    tag_356:\n        /* \"#utility.yul\":4049:4052   */\n      dup3\n        /* \"#utility.yul\":4042:4079   */\n      mstore\n        /* \"#utility.yul\":3967:4085   */\n      pop\n      pop\n      jump\t// out\n        /* \"#utility.yul\":4091:4313   */\n    tag_87:\n        /* \"#utility.yul\":4184:4188   */\n      0x00\n        /* \"#utility.yul\":4222:4224   */\n      0x20\n        /* \"#utility.yul\":4211:4220   */\n      dup3\n        /* \"#utility.yul\":4207:4225   */\n      add\n        /* \"#utility.yul\":4199:4225   */\n      swap1\n      pop\n        /* \"#utility.yul\":4235:4306   */\n      tag_358\n        /* \"#utility.yul\":4303:4304   */\n      0x00\n        /* \"#utility.yul\":4292:4301   */\n      dup4\n        /* \"#utility.yul\":4288:4305   */\n      add\n        /* \"#utility.yul\":4279:4285   */\n      dup5\n        /* \"#utility.yul\":4235:4306   */\n      tag_287\n      jump\t// in\n    tag_358:\n        /* \"#utility.yul\":4091:4313   */\n      swap3\n      swap2\n      pop\n      pop\n      jump\t// out\n        /* \"#utility.yul\":4319:4459   */\n    tag_288:\n        /* \"#utility.yul\":4383:4392   */\n      0x00\n        /* \"#utility.yul\":4416:4453   */\n      tag_360\n        /* \"#utility.yul\":4447:4452   */\n      dup3\n        /* \"#utility.yul\":4416:4453   */\n      tag_280\n      jump\t// in\n    tag_360:\n        /* \"#utility.yul\":4403:4453   */\n      swap1\n      pop\n        /* \"#utility.yul\":4319:4459   */\n      swap2\n      swap1\n      pop\n      jump\t// out\n        /* \"#utility.yul\":4465:4624   */\n    tag_289:\n        /* \"#utility.yul\":4566:4617   */\n      tag_362\n        /* \"#utility.yul\":4611:4616   */\n      dup2\n        /* \"#utility.yul\":4566:4617   */\n      tag_288\n      jump\t// in\n    tag_362:\n        /* \"#utility.yul\":4561:4564   */\n      dup3\n        /* \"#utility.yul\":4554:4618   */\n      mstore\n        /* \"#utility.yul\":4465:4624   */\n      pop\n      pop\n      jump\t// out\n        /* \"#utility.yul\":4630:4880   */\n    tag_105:\n        /* \"#utility.yul\":4737:4741   */\n      0x00\n        /* \"#utility.yul\":4775:4777   */\n      0x20\n        /* \"#utility.yul\":4764:4773   */\n      dup3\n        /* \"#utility.yul\":4760:4778   */\n      add\n        /* \"#utility.yul\":4752:4778   */\n      swap1\n      pop\n        /* \"#utility.yul\":4788:4873   */\n      tag_364\n        /* \"#utility.yul\":4870:4871   */\n      0x00\n        /* \"#utility.yul\":4859:4868   */\n      dup4\n        /* \"#utility.yul\":4855:4872   */\n      add\n        /* \"#utility.yul\":4846:4852   */\n      dup5\n        /* \"#utility.yul\":4788:4873   */\n      tag_289\n      jump\t// in\n    tag_364:\n        /* \"#utility.yul\":4630:4880   */\n      swap3\n      swap2\n      pop\n      pop\n      jump\t// out\n        /* \"#utility.yul\":4886:4962   */\n    tag_290:\n        /* \"#utility.yul\":4922:4929   */\n      0x00\n        /* \"#utility.yul\":4951:4956   */\n      dup2\n        /* \"#utility.yul\":4940:4956   */\n      swap1\n      pop\n        /* \"#utility.yul\":4886:4962   */\n      swap2\n      swap1\n      pop\n      jump\t// out\n        /* \"#utility.yul\":4968:5088   */\n    tag_291:\n        /* \"#utility.yul\":5040:5063   */\n      tag_367\n        /* \"#utility.yul\":5057:5062   */\n      dup2\n        /* \"#utility.yul\":5040:5063   */\n      tag_290\n      jump\t// in\n    tag_367:\n        /* \"#utility.yul\":5033:5038   */\n      dup2\n        /* \"#utility.yul\":5030:5064   */\n      eq\n        /* \"#utility.yul\":5020:5082   */\n      tag_368\n      jumpi\n        /* \"#utility.yul\":5078:5079   */\n      0x00\n        /* \"#utility.yul\":5075:5076   */\n      dup1\n        /* \"#utility.yul\":5068:5080   */\n      revert\n        /* \"#utility.yul\":5020:5082   */\n    tag_368:\n        /* \"#utility.yul\":4968:5088   */\n      pop\n      jump\t// out\n        /* \"#utility.yul\":5094:5235   */\n    tag_292:\n        /* \"#utility.yul\":5150:5155   */\n      0x00\n        /* \"#utility.yul\":5181:5187   */\n      dup2\n        /* \"#utility.yul\":5175:5188   */\n      mload\n        /* \"#utility.yul\":5166:5188   */\n      swap1\n      pop\n        /* \"#utility.yul\":5197:5229   */\n      tag_370\n        /* \"#utility.yul\":5223:5228   */\n      dup2\n        /* \"#utility.yul\":5197:5229   */\n      tag_291\n      jump\t// in\n    tag_370:\n        /* \"#utility.yul\":5094:5235   */\n      swap3\n      swap2\n      pop\n      pop\n      jump\t// out\n        /* \"#utility.yul\":5241:5590   */\n    tag_121:\n        /* \"#utility.yul\":5310:5316   */\n      0x00\n        /* \"#utility.yul\":5359:5361   */\n      0x20\n        /* \"#utility.yul\":5347:5356   */\n      dup3\n        /* \"#utility.yul\":5338:5345   */\n      dup5\n        /* \"#utility.yul\":5334:5357   */\n      sub\n        /* \"#utility.yul\":5330:5362   */\n      slt\n        /* \"#utility.yul\":5327:5446   */\n      iszero\n      tag_372\n      jumpi\n        /* \"#utility.yul\":5365:5444   */\n      tag_373\n      tag_272\n      jump\t// in\n    tag_373:\n        /* \"#utility.yul\":5327:5446   */\n    tag_372:\n        /* \"#utility.yul\":5485:5486   */\n      0x00\n        /* \"#utility.yul\":5510:5573   */\n      tag_374\n        /* \"#utility.yul\":5565:5572   */\n      dup5\n        /* \"#utility.yul\":5556:5562   */\n      dup3\n        /* \"#utility.yul\":5545:5554   */\n      dup6\n        /* \"#utility.yul\":5541:5563   */\n      add\n        /* \"#utility.yul\":5510:5573   */\n      tag_292\n      jump\t// in\n    tag_374:\n        /* \"#utility.yul\":5500:5573   */\n      swap2\n      pop\n        /* \"#utility.yul\":5456:5583   */\n      pop\n        /* \"#utility.yul\":5241:5590   */\n      swap3\n      swap2\n      pop\n      pop\n      jump\t// out\n        /* \"#utility.yul\":5596:5776   */\n    tag_293:\n        /* \"#utility.yul\":5644:5721   */\n      0x4e487b7100000000000000000000000000000000000000000000000000000000\n        /* \"#utility.yul\":5641:5642   */\n      0x00\n        /* \"#utility.yul\":5634:5722   */\n      mstore\n        /* \"#utility.yul\":5741:5745   */\n      0x11\n        /* \"#utility.yul\":5738:5739   */\n      0x04\n        /* \"#utility.yul\":5731:5746   */\n      mstore\n        /* \"#utility.yul\":5765:5769   */\n      0x24\n        /* \"#utility.yul\":5762:5763   */\n      0x00\n        /* \"#utility.yul\":5755:5770   */\n      revert\n        /* \"#utility.yul\":5782:6192   */\n    tag_126:\n        /* \"#utility.yul\":5822:5829   */\n      0x00\n        /* \"#utility.yul\":5845:5865   */\n      tag_377\n        /* \"#utility.yul\":5863:5864   */\n      dup3\n        /* \"#utility.yul\":5845:5865   */\n      tag_269\n      jump\t// in\n    tag_377:\n        /* \"#utility.yul\":5840:5865   */\n      swap2\n      pop\n        /* \"#utility.yul\":5879:5899   */\n      tag_378\n        /* \"#utility.yul\":5897:5898   */\n      dup4\n        /* \"#utility.yul\":5879:5899   */\n      tag_269\n      jump\t// in\n    tag_378:\n        /* \"#utility.yul\":5874:5899   */\n      swap3\n      pop\n        /* \"#utility.yul\":5934:5935   */\n      dup3\n        /* \"#utility.yul\":5931:5932   */\n      dup3\n        /* \"#utility.yul\":5927:5936   */\n      mul\n        /* \"#utility.yul\":5956:5986   */\n      tag_379\n        /* \"#utility.yul\":5974:5985   */\n      dup2\n        /* \"#utility.yul\":5956:5986   */\n      tag_269\n      jump\t// in\n    tag_379:\n        /* \"#utility.yul\":5945:5986   */\n      swap2\n      pop\n        /* \"#utility.yul\":6135:6136   */\n      dup3\n        /* \"#utility.yul\":6126:6133   */\n      dup3\n        /* \"#utility.yul\":6122:6137   */\n      div\n        /* \"#utility.yul\":6119:6120   */\n      dup5\n        /* \"#utility.yul\":6116:6138   */\n      eq\n        /* \"#utility.yul\":6096:6097   */\n      dup4\n        /* \"#utility.yul\":6089:6098   */\n      iszero\n        /* \"#utility.yul\":6069:6152   */\n      or\n        /* \"#utility.yul\":6046:6185   */\n      tag_380\n      jumpi\n        /* \"#utility.yul\":6165:6183   */\n      tag_381\n      tag_293\n      jump\t// in\n    tag_381:\n        /* \"#utility.yul\":6046:6185   */\n    tag_380:\n        /* \"#utility.yul\":5830:6192   */\n      pop\n        /* \"#utility.yul\":5782:6192   */\n      swap3\n      swap2\n      pop\n      pop\n      jump\t// out\n        /* \"#utility.yul\":6198:6378   */\n    tag_294:\n        /* \"#utility.yul\":6246:6323   */\n      0x4e487b7100000000000000000000000000000000000000000000000000000000\n        /* \"#utility.yul\":6243:6244   */\n      0x00\n        /* \"#utility.yul\":6236:6324   */\n      mstore\n        /* \"#utility.yul\":6343:6347   */\n      0x12\n        /* \"#utility.yul\":6340:6341   */\n      0x04\n        /* \"#utility.yul\":6333:6348   */\n      mstore\n        /* \"#utility.yul\":6367:6371   */\n      0x24\n        /* \"#utility.yul\":6364:6365   */\n      0x00\n        /* \"#utility.yul\":6357:6372   */\n      revert\n        /* \"#utility.yul\":6384:6569   */\n    tag_128:\n        /* \"#utility.yul\":6424:6425   */\n      0x00\n        /* \"#utility.yul\":6441:6461   */\n      tag_384\n        /* \"#utility.yul\":6459:6460   */\n      dup3\n        /* \"#utility.yul\":6441:6461   */\n      tag_269\n      jump\t// in\n    tag_384:\n        /* \"#utility.yul\":6436:6461   */\n      swap2\n      pop\n        /* \"#utility.yul\":6475:6495   */\n      tag_385\n        /* \"#utility.yul\":6493:6494   */\n      dup4\n        /* \"#utility.yul\":6475:6495   */\n      tag_269\n      jump\t// in\n    tag_385:\n        /* \"#utility.yul\":6470:6495   */\n      swap3\n      pop\n        /* \"#utility.yul\":6514:6515   */\n      dup3\n        /* \"#utility.yul\":6504:6539   */\n      tag_386\n      jumpi\n        /* \"#utility.yul\":6519:6537   */\n      tag_387\n      tag_294\n      jump\t// in\n    tag_387:\n        /* \"#utility.yul\":6504:6539   */\n    tag_386:\n        /* \"#utility.yul\":6561:6562   */\n      dup3\n        /* \"#utility.yul\":6558:6559   */\n      dup3\n        /* \"#utility.yul\":6554:6563   */\n      div\n        /* \"#utility.yul\":6549:6563   */\n      swap1\n      pop\n        /* \"#utility.yul\":6384:6569   */\n      swap3\n      swap2\n      pop\n      pop\n      jump\t// out\n        /* \"#utility.yul\":6575:6766   */\n    tag_132:\n        /* \"#utility.yul\":6615:6618   */\n      0x00\n        /* \"#utility.yul\":6634:6654   */\n      tag_389\n        /* \"#utility.yul\":6652:6653   */\n      dup3\n        /* \"#utility.yul\":6634:6654   */\n      tag_269\n      jump\t// in\n    tag_389:\n        /* \"#utility.yul\":6629:6654   */\n      swap2\n      pop\n        /* \"#utility.yul\":6668:6688   */\n      tag_390\n        /* \"#utility.yul\":6686:6687   */\n      dup4\n        /* \"#utility.yul\":6668:6688   */\n      tag_269\n      jump\t// in\n    tag_390:\n        /* \"#utility.yul\":6663:6688   */\n      swap3\n      pop\n        /* \"#utility.yul\":6711:6712   */\n      dup3\n        /* \"#utility.yul\":6708:6709   */\n      dup3\n        /* \"#utility.yul\":6704:6713   */\n      add\n        /* \"#utility.yul\":6697:6713   */\n      swap1\n      pop\n        /* \"#utility.yul\":6732:6735   */\n      dup1\n        /* \"#utility.yul\":6729:6730   */\n      dup3\n        /* \"#utility.yul\":6726:6736   */\n      gt\n        /* \"#utility.yul\":6723:6759   */\n      iszero\n      tag_391\n      jumpi\n        /* \"#utility.yul\":6739:6757   */\n      tag_392\n      tag_293\n      jump\t// in\n    tag_392:\n        /* \"#utility.yul\":6723:6759   */\n    tag_391:\n        /* \"#utility.yul\":6575:6766   */\n      swap3\n      swap2\n      pop\n      pop\n      jump\t// out\n        /* \"#utility.yul\":6772:7104   */\n    tag_140:\n        /* \"#utility.yul\":6893:6897   */\n      0x00\n        /* \"#utility.yul\":6931:6933   */\n      0x40\n        /* \"#utility.yul\":6920:6929   */\n      dup3\n        /* \"#utility.yul\":6916:6934   */\n      add\n        /* \"#utility.yul\":6908:6934   */\n      swap1\n      pop\n        /* \"#utility.yul\":6944:7015   */\n      tag_394\n        /* \"#utility.yul\":7012:7013   */\n      0x00\n        /* \"#utility.yul\":7001:7010   */\n      dup4\n        /* \"#utility.yul\":6997:7014   */\n      add\n        /* \"#utility.yul\":6988:6994   */\n      dup6\n        /* \"#utility.yul\":6944:7015   */\n      tag_287\n      jump\t// in\n    tag_394:\n        /* \"#utility.yul\":7025:7097   */\n      tag_395\n        /* \"#utility.yul\":7093:7095   */\n      0x20\n        /* \"#utility.yul\":7082:7091   */\n      dup4\n        /* \"#utility.yul\":7078:7096   */\n      add\n        /* \"#utility.yul\":7069:7075   */\n      dup5\n        /* \"#utility.yul\":7025:7097   */\n      tag_270\n      jump\t// in\n    tag_395:\n        /* \"#utility.yul\":6772:7104   */\n      swap4\n      swap3\n      pop\n      pop\n      pop\n      jump\t// out\n        /* \"#utility.yul\":7110:7226   */\n    tag_295:\n        /* \"#utility.yul\":7180:7201   */\n      tag_397\n        /* \"#utility.yul\":7195:7200   */\n      dup2\n        /* \"#utility.yul\":7180:7201   */\n      tag_285\n      jump\t// in\n    tag_397:\n        /* \"#utility.yul\":7173:7178   */\n      dup2\n        /* \"#utility.yul\":7170:7202   */\n      eq\n        /* \"#utility.yul\":7160:7220   */\n      tag_398\n      jumpi\n        /* \"#utility.yul\":7216:7217   */\n      0x00\n        /* \"#utility.yul\":7213:7214   */\n      dup1\n        /* \"#utility.yul\":7206:7218   */\n      revert\n        /* \"#utility.yul\":7160:7220   */\n    tag_398:\n        /* \"#utility.yul\":7110:7226   */\n      pop\n      jump\t// out\n        /* \"#utility.yul\":7232:7369   */\n    tag_296:\n        /* \"#utility.yul\":7286:7291   */\n      0x00\n        /* \"#utility.yul\":7317:7323   */\n      dup2\n        /* \"#utility.yul\":7311:7324   */\n      mload\n        /* \"#utility.yul\":7302:7324   */\n      swap1\n      pop\n        /* \"#utility.yul\":7333:7363   */\n      tag_400\n        /* \"#utility.yul\":7357:7362   */\n      dup2\n        /* \"#utility.yul\":7333:7363   */\n      tag_295\n      jump\t// in\n    tag_400:\n        /* \"#utility.yul\":7232:7369   */\n      swap3\n      swap2\n      pop\n      pop\n      jump\t// out\n        /* \"#utility.yul\":7375:7720   */\n    tag_144:\n        /* \"#utility.yul\":7442:7448   */\n      0x00\n        /* \"#utility.yul\":7491:7493   */\n      0x20\n        /* \"#utility.yul\":7479:7488   */\n      dup3\n        /* \"#utility.yul\":7470:7477   */\n      dup5\n        /* \"#utility.yul\":7466:7489   */\n      sub\n        /* \"#utility.yul\":7462:7494   */\n      slt\n        /* \"#utility.yul\":7459:7578   */\n      iszero\n      tag_402\n      jumpi\n        /* \"#utility.yul\":7497:7576   */\n      tag_403\n      tag_272\n      jump\t// in\n    tag_403:\n        /* \"#utility.yul\":7459:7578   */\n    tag_402:\n        /* \"#utility.yul\":7617:7618   */\n      0x00\n        /* \"#utility.yul\":7642:7703   */\n      tag_404\n        /* \"#utility.yul\":7695:7702   */\n      dup5\n        /* \"#utility.yul\":7686:7692   */\n      dup3\n        /* \"#utility.yul\":7675:7684   */\n      dup6\n        /* \"#utility.yul\":7671:7693   */\n      add\n        /* \"#utility.yul\":7642:7703   */\n      tag_296\n      jump\t// in\n    tag_404:\n        /* \"#utility.yul\":7632:7703   */\n      swap2\n      pop\n        /* \"#utility.yul\":7588:7713   */\n      pop\n        /* \"#utility.yul\":7375:7720   */\n      swap3\n      swap2\n      pop\n      pop\n      jump\t// out\n        /* \"#utility.yul\":7726:7895   */\n    tag_297:\n        /* \"#utility.yul\":7810:7821   */\n      0x00\n        /* \"#utility.yul\":7844:7850   */\n      dup3\n        /* \"#utility.yul\":7839:7842   */\n      dup3\n        /* \"#utility.yul\":7832:7851   */\n      mstore\n        /* \"#utility.yul\":7884:7888   */\n      0x20\n        /* \"#utility.yul\":7879:7882   */\n      dup3\n        /* \"#utility.yul\":7875:7889   */\n      add\n        /* \"#utility.yul\":7860:7889   */\n      swap1\n      pop\n        /* \"#utility.yul\":7726:7895   */\n      swap3\n      swap2\n      pop\n      pop\n      jump\t// out\n        /* \"#utility.yul\":7901:8121   */\n    tag_298:\n        /* \"#utility.yul\":8041:8075   */\n      0x436f6c6c61746572616c4d616e616765723a20496e76616c696420616d6f756e\n        /* \"#utility.yul\":8037:8038   */\n      0x00\n        /* \"#utility.yul\":8029:8035   */\n      dup3\n        /* \"#utility.yul\":8025:8039   */\n      add\n        /* \"#utility.yul\":8018:8076   */\n      mstore\n        /* \"#utility.yul\":8110:8113   */\n      0x7400000000000000000000000000000000000000000000000000000000000000\n        /* \"#utility.yul\":8105:8107   */\n      0x20\n        /* \"#utility.yul\":8097:8103   */\n      dup3\n        /* \"#utility.yul\":8093:8108   */\n      add\n        /* \"#utility.yul\":8086:8114   */\n      mstore\n        /* \"#utility.yul\":7901:8121   */\n      pop\n      jump\t// out\n        /* \"#utility.yul\":8127:8493   */\n    tag_299:\n        /* \"#utility.yul\":8269:8272   */\n      0x00\n        /* \"#utility.yul\":8290:8357   */\n      tag_408\n        /* \"#utility.yul\":8354:8356   */\n      0x21\n        /* \"#utility.yul\":8349:8352   */\n      dup4\n        /* \"#utility.yul\":8290:8357   */\n      tag_297\n      jump\t// in\n    tag_408:\n        /* \"#utility.yul\":8283:8357   */\n      swap2\n      pop\n        /* \"#utility.yul\":8366:8459   */\n      tag_409\n        /* \"#utility.yul\":8455:8458   */\n      dup3\n        /* \"#utility.yul\":8366:8459   */\n      tag_298\n      jump\t// in\n    tag_409:\n        /* \"#utility.yul\":8484:8486   */\n      0x40\n        /* \"#utility.yul\":8479:8482   */\n      dup3\n        /* \"#utility.yul\":8475:8487   */\n      add\n        /* \"#utility.yul\":8468:8487   */\n      swap1\n      pop\n        /* \"#utility.yul\":8127:8493   */\n      swap2\n      swap1\n      pop\n      jump\t// out\n        /* \"#utility.yul\":8499:8918   */\n    tag_156:\n        /* \"#utility.yul\":8665:8669   */\n      0x00\n        /* \"#utility.yul\":8703:8705   */\n      0x20\n        /* \"#utility.yul\":8692:8701   */\n      dup3\n        /* \"#utility.yul\":8688:8706   */\n      add\n        /* \"#utility.yul\":8680:8706   */\n      swap1\n      pop\n        /* \"#utility.yul\":8752:8761   */\n      dup2\n        /* \"#utility.yul\":8746:8750   */\n      dup2\n        /* \"#utility.yul\":8742:8762   */\n      sub\n        /* \"#utility.yul\":8738:8739   */\n      0x00\n        /* \"#utility.yul\":8727:8736   */\n      dup4\n        /* \"#utility.yul\":8723:8740   */\n      add\n        /* \"#utility.yul\":8716:8763   */\n      mstore\n        /* \"#utility.yul\":8780:8911   */\n      tag_411\n        /* \"#utility.yul\":8906:8910   */\n      dup2\n        /* \"#utility.yul\":8780:8911   */\n      tag_299\n      jump\t// in\n    tag_411:\n        /* \"#utility.yul\":8772:8911   */\n      swap1\n      pop\n        /* \"#utility.yul\":8499:8918   */\n      swap2\n      swap1\n      pop\n      jump\t// out\n        /* \"#utility.yul\":8924:9366   */\n    tag_158:\n        /* \"#utility.yul\":9073:9077   */\n      0x00\n        /* \"#utility.yul\":9111:9113   */\n      0x60\n        /* \"#utility.yul\":9100:9109   */\n      dup3\n        /* \"#utility.yul\":9096:9114   */\n      add\n        /* \"#utility.yul\":9088:9114   */\n      swap1\n      pop\n        /* \"#utility.yul\":9124:9195   */\n      tag_413\n        /* \"#utility.yul\":9192:9193   */\n      0x00\n        /* \"#utility.yul\":9181:9190   */\n      dup4\n        /* \"#utility.yul\":9177:9194   */\n      add\n        /* \"#utility.yul\":9168:9174   */\n      dup7\n        /* \"#utility.yul\":9124:9195   */\n      tag_287\n      jump\t// in\n    tag_413:\n        /* \"#utility.yul\":9205:9277   */\n      tag_414\n        /* \"#utility.yul\":9273:9275   */\n      0x20\n        /* \"#utility.yul\":9262:9271   */\n      dup4\n        /* \"#utility.yul\":9258:9276   */\n      add\n        /* \"#utility.yul\":9249:9255   */\n      dup6\n        /* \"#utility.yul\":9205:9277   */\n      tag_287\n      jump\t// in\n    tag_414:\n        /* \"#utility.yul\":9287:9359   */\n      tag_415\n        /* \"#utility.yul\":9355:9357   */\n      0x40\n        /* \"#utility.yul\":9344:9353   */\n      dup4\n        /* \"#utility.yul\":9340:9358   */\n      add\n        /* \"#utility.yul\":9331:9337   */\n      dup5\n        /* \"#utility.yul\":9287:9359   */\n      tag_270\n      jump\t// in\n    tag_415:\n        /* \"#utility.yul\":8924:9366   */\n      swap5\n      swap4\n      pop\n      pop\n      pop\n      pop\n      jump\t// out\n        /* \"#utility.yul\":9372:9593   */\n    tag_300:\n        /* \"#utility.yul\":9512:9546   */\n      0x436f6c6c61746572616c4d616e616765723a205472616e73666572206661696c\n        /* \"#utility.yul\":9508:9509   */\n      0x00\n        /* \"#utility.yul\":9500:9506   */\n      dup3\n        /* \"#utility.yul\":9496:9510   */\n      add\n        /* \"#utility.yul\":9489:9547   */\n      mstore\n        /* \"#utility.yul\":9581:9585   */\n      0x6564000000000000000000000000000000000000000000000000000000000000\n        /* \"#utility.yul\":9576:9578   */\n      0x20\n        /* \"#utility.yul\":9568:9574   */\n      dup3\n        /* \"#utility.yul\":9564:9579   */\n      add\n        /* \"#utility.yul\":9557:9586   */\n      mstore\n        /* \"#utility.yul\":9372:9593   */\n      pop\n      jump\t// out\n        /* \"#utility.yul\":9599:9965   */\n    tag_301:\n        /* \"#utility.yul\":9741:9744   */\n      0x00\n        /* \"#utility.yul\":9762:9829   */\n      tag_418\n        /* \"#utility.yul\":9826:9828   */\n      0x22\n        /* \"#utility.yul\":9821:9824   */\n      dup4\n        /* \"#utility.yul\":9762:9829   */\n      tag_297\n      jump\t// in\n    tag_418:\n        /* \"#utility.yul\":9755:9829   */\n      swap2\n      pop\n        /* \"#utility.yul\":9838:9931   */\n      tag_419\n        /* \"#utility.yul\":9927:9930   */\n      dup3\n        /* \"#utility.yul\":9838:9931   */\n      tag_300\n      jump\t// in\n    tag_419:\n        /* \"#utility.yul\":9956:9958   */\n      0x40\n        /* \"#utility.yul\":9951:9954   */\n      dup3\n        /* \"#utility.yul\":9947:9959   */\n      add\n        /* \"#utility.yul\":9940:9959   */\n      swap1\n      pop\n        /* \"#utility.yul\":9599:9965   */\n      swap2\n      swap1\n      pop\n      jump\t// out\n        /* \"#utility.yul\":9971:10390   */\n    tag_164:\n        /* \"#utility.yul\":10137:10141   */\n      0x00\n        /* \"#utility.yul\":10175:10177   */\n      0x20\n        /* \"#utility.yul\":10164:10173   */\n      dup3\n        /* \"#utility.yul\":10160:10178   */\n      add\n        /* \"#utility.yul\":10152:10178   */\n      swap1\n      pop\n        /* \"#utility.yul\":10224:10233   */\n      dup2\n        /* \"#utility.yul\":10218:10222   */\n      dup2\n        /* \"#utility.yul\":10214:10234   */\n      sub\n        /* \"#utility.yul\":10210:10211   */\n      0x00\n        /* \"#utility.yul\":10199:10208   */\n      dup4\n        /* \"#utility.yul\":10195:10212   */\n      add\n        /* \"#utility.yul\":10188:10235   */\n      mstore\n        /* \"#utility.yul\":10252:10383   */\n      tag_421\n        /* \"#utility.yul\":10378:10382   */\n      dup2\n        /* \"#utility.yul\":10252:10383   */\n      tag_301\n      jump\t// in\n    tag_421:\n        /* \"#utility.yul\":10244:10383   */\n      swap1\n      pop\n        /* \"#utility.yul\":9971:10390   */\n      swap2\n      swap1\n      pop\n      jump\t// out\n        /* \"#utility.yul\":10396:10622   */\n    tag_302:\n        /* \"#utility.yul\":10536:10570   */\n      0x436f6c6c61746572616c4d616e616765723a20496e73756666696369656e7420\n        /* \"#utility.yul\":10532:10533   */\n      0x00\n        /* \"#utility.yul\":10524:10530   */\n      dup3\n        /* \"#utility.yul\":10520:10534   */\n      add\n        /* \"#utility.yul\":10513:10571   */\n      mstore\n        /* \"#utility.yul\":10605:10614   */\n      0x62616c616e636500000000000000000000000000000000000000000000000000\n        /* \"#utility.yul\":10600:10602   */\n      0x20\n        /* \"#utility.yul\":10592:10598   */\n      dup3\n        /* \"#utility.yul\":10588:10603   */\n      add\n        /* \"#utility.yul\":10581:10615   */\n      mstore\n        /* \"#utility.yul\":10396:10622   */\n      pop\n      jump\t// out\n        /* \"#utility.yul\":10628:10994   */\n    tag_303:\n        /* \"#utility.yul\":10770:10773   */\n      0x00\n        /* \"#utility.yul\":10791:10858   */\n      tag_424\n        /* \"#utility.yul\":10855:10857   */\n      0x27\n        /* \"#utility.yul\":10850:10853   */\n      dup4\n        /* \"#utility.yul\":10791:10858   */\n      tag_297\n      jump\t// in\n    tag_424:\n        /* \"#utility.yul\":10784:10858   */\n      swap2\n      pop\n        /* \"#utility.yul\":10867:10960   */\n      tag_425\n        /* \"#utility.yul\":10956:10959   */\n      dup3\n        /* \"#utility.yul\":10867:10960   */\n      tag_302\n      jump\t// in\n    tag_425:\n        /* \"#utility.yul\":10985:10987   */\n      0x40\n        /* \"#utility.yul\":10980:10983   */\n      dup3\n        /* \"#utility.yul\":10976:10988   */\n      add\n        /* \"#utility.yul\":10969:10988   */\n      swap1\n      pop\n        /* \"#utility.yul\":10628:10994   */\n      swap2\n      swap1\n      pop\n      jump\t// out\n        /* \"#utility.yul\":11000:11419   */\n    tag_184:\n        /* \"#utility.yul\":11166:11170   */\n      0x00\n        /* \"#utility.yul\":11204:11206   */\n      0x20\n        /* \"#utility.yul\":11193:11202   */\n      dup3\n        /* \"#utility.yul\":11189:11207   */\n      add\n        /* \"#utility.yul\":11181:11207   */\n      swap1\n      pop\n        /* \"#utility.yul\":11253:11262   */\n      dup2\n        /* \"#utility.yul\":11247:11251   */\n      dup2\n        /* \"#utility.yul\":11243:11263   */\n      sub\n        /* \"#utility.yul\":11239:11240   */\n      0x00\n        /* \"#utility.yul\":11228:11237   */\n      dup4\n        /* \"#utility.yul\":11224:11241   */\n      add\n        /* \"#utility.yul\":11217:11264   */\n      mstore\n        /* \"#utility.yul\":11281:11412   */\n      tag_427\n        /* \"#utility.yul\":11407:11411   */\n      dup2\n        /* \"#utility.yul\":11281:11412   */\n      tag_303\n      jump\t// in\n    tag_427:\n        /* \"#utility.yul\":11273:11412   */\n      swap1\n      pop\n        /* \"#utility.yul\":11000:11419   */\n      swap2\n      swap1\n      pop\n      jump\t// out\n        /* \"#utility.yul\":11425:11619   */\n    tag_186:\n        /* \"#utility.yul\":11465:11469   */\n      0x00\n        /* \"#utility.yul\":11485:11505   */\n      tag_429\n        /* \"#utility.yul\":11503:11504   */\n      dup3\n        /* \"#utility.yul\":11485:11505   */\n      tag_269\n      jump\t// in\n    tag_429:\n        /* \"#utility.yul\":11480:11505   */\n      swap2\n      pop\n        /* \"#utility.yul\":11519:11539   */\n      tag_430\n        /* \"#utility.yul\":11537:11538   */\n      dup4\n        /* \"#utility.yul\":11519:11539   */\n      tag_269\n      jump\t// in\n    tag_430:\n        /* \"#utility.yul\":11514:11539   */\n      swap3\n      pop\n        /* \"#utility.yul\":11563:11564   */\n      dup3\n        /* \"#utility.yul\":11560:11561   */\n      dup3\n        /* \"#utility.yul\":11556:11565   */\n      sub\n        /* \"#utility.yul\":11548:11565   */\n      swap1\n      pop\n        /* \"#utility.yul\":11587:11588   */\n      dup2\n        /* \"#utility.yul\":11581:11585   */\n      dup2\n        /* \"#utility.yul\":11578:11589   */\n      gt\n        /* \"#utility.yul\":11575:11612   */\n      iszero\n      tag_431\n      jumpi\n        /* \"#utility.yul\":11592:11610   */\n      tag_432\n      tag_293\n      jump\t// in\n    tag_432:\n        /* \"#utility.yul\":11575:11612   */\n    tag_431:\n        /* \"#utility.yul\":11425:11619   */\n      swap3\n      swap2\n      pop\n      pop\n      jump\t// out\n\n    auxdata: 0xa26469706673582212205f6ad35fe76dbeaf1721b5e8db04d28ddc245714d8463cb964c4695d5409178964736f6c634300081a0033\n}\n",
				"bytecode": {
					"linkReferences": {},
					"object": "6080604052670de0b6b3a7640000600655683635c9adc5dea00000600755348015610028575f80fd5b50604051611dd2380380611dd2833981810160405281019061004a91906102cd565b3360015f819055505f60015f6101000a81548160ff0219169083151502179055505f73ffffffffffffffffffffffffffffffffffffffff168173ffffffffffffffffffffffffffffffffffffffff16036100db575f6040517f1e4fbdf70000000000000000000000000000000000000000000000000000000081526004016100d2919061031a565b60405180910390fd5b6100ea8161017260201b60201c565b508160025f6101000a81548173ffffffffffffffffffffffffffffffffffffffff021916908373ffffffffffffffffffffffffffffffffffffffff1602179055508060035f6101000a81548173ffffffffffffffffffffffffffffffffffffffff021916908373ffffffffffffffffffffffffffffffffffffffff1602179055505050610333565b5f60018054906101000a900473ffffffffffffffffffffffffffffffffffffffff169050816001806101000a81548173ffffffffffffffffffffffffffffffffffffffff021916908373ffffffffffffffffffffffffffffffffffffffff1602179055508173ffffffffffffffffffffffffffffffffffffffff168173ffffffffffffffffffffffffffffffffffffffff167f8be0079c531659141344cd1fd0a4f28419497f9722a3daafe3b4186f6b6457e060405160405180910390a35050565b5f80fd5b5f73ffffffffffffffffffffffffffffffffffffffff82169050919050565b5f61026182610238565b9050919050565b5f61027282610257565b9050919050565b61028281610268565b811461028c575f80fd5b50565b5f8151905061029d81610279565b92915050565b6102ac81610257565b81146102b6575f80fd5b50565b5f815190506102c7816102a3565b92915050565b5f80604083850312156102e3576102e2610234565b5b5f6102f08582860161028f565b9250506020610301858286016102b9565b9150509250929050565b61031481610257565b82525050565b5f60208201905061032d5f83018461030b565b92915050565b611a92806103405f395ff3fe608060405260043610610129575f3560e01c806360b3b338116100aa5780639083baa61161006e5780639083baa6146103845780639e30bce7146103ae578063a98ad46c146103ea578063c3b2a4a414610414578063d57ac70d14610450578063f2fde38b1461045a57610129565b806360b3b338146102dc578063715018a6146103065780638456cb591461031c5780638da5cb5b146103325780638e817efe1461035c57610129565b80632f5723d5116100f15780632f5723d5146102225780633f4ba83a1461024a5780635269384e1461026057806352ce97141461028a5780635c975abb146102b257610129565b8063048851151461012d57806309b8aafd14610157578063192e7a7b146101935780632630c12f146101bb5780632703ee85146101e5575b5f80fd5b348015610138575f80fd5b50610141610482565b60405161014e919061143c565b60405180910390f35b348015610162575f80fd5b5061017d600480360381019061017891906114b3565b610488565b60405161018a919061143c565b60405180910390f35b34801561019e575f80fd5b506101b960048036038101906101b491906114b3565b61067b565b005b3480156101c6575f80fd5b506101cf6107e9565b6040516101dc9190611539565b60405180910390f35b3480156101f0575f80fd5b5061020b600480360381019061020691906114b3565b61080e565b604051610219929190611552565b60405180910390f35b34801561022d575f80fd5b50610248600480360381019061024391906115a3565b610895565b005b348015610255575f80fd5b5061025e610a8a565b005b34801561026b575f80fd5b50610274610a9c565b604051610281919061143c565b60405180910390f35b348015610295575f80fd5b506102b060048036038101906102ab91906115a3565b610aa2565b005b3480156102bd575f80fd5b506102c6610d13565b6040516102d391906115e8565b60405180910390f35b3480156102e7575f80fd5b506102f0610d28565b6040516102fd919061143c565b60405180910390f35b348015610311575f80fd5b5061031a610d2e565b005b348015610327575f80fd5b50610330610d41565b005b34801561033d575f80fd5b50610346610d53565b6040516103539190611610565b60405180910390f35b348015610367575f80fd5b50610382600480360381019061037d91906115a3565b610d7a565b005b34801561038f575f80fd5b50610398610f54565b6040516103a5919061143c565b60405180910390f35b3480156103b9575f80fd5b506103d460048036038101906103cf91906114b3565b610f5a565b6040516103e1919061143c565b60405180910390f35b3480156103f5575f80fd5b506103fe610f6f565b60405161040b9190611649565b60405180910390f35b34801561041f575f80fd5b5061043a600480360381019061043591906114b3565b610f94565b604051610447919061143c565b60405180910390f35b610458610fa9565b005b348015610465575f80fd5b50610480600480360381019061047b91906114b3565b6110c0565b005b60075481565b5f8060035f9054906101000a900473ffffffffffffffffffffffffffffffffffffffff1673ffffffffffffffffffffffffffffffffffffffff166373544cfd6040518163ffffffff1660e01b8152600401602060405180830381865afa1580156104f4573d5f803e3d5ffd5b505050506040513d601f19601f820116820180604052508101906105189190611695565b90505f60035f9054906101000a900473ffffffffffffffffffffffffffffffffffffffff1673ffffffffffffffffffffffffffffffffffffffff1663961bdfbf6040518163ffffffff1660e01b8152600401602060405180830381865afa158015610585573d5f803e3d5ffd5b505050506040513d601f19601f820116820180604052508101906105a99190611695565b90505f670de0b6b3a76400008260095f8873ffffffffffffffffffffffffffffffffffffffff1673ffffffffffffffffffffffffffffffffffffffff1681526020019081526020015f20546105fe91906116ed565b610608919061175b565b670de0b6b3a76400008460085f8973ffffffffffffffffffffffffffffffffffffffff1673ffffffffffffffffffffffffffffffffffffffff1681526020019081526020015f205461065a91906116ed565b610664919061175b565b61066e919061178b565b9050809350505050919050565b610683611144565b8073ffffffffffffffffffffffffffffffffffffffff166108fc60085f8473ffffffffffffffffffffffffffffffffffffffff1673ffffffffffffffffffffffffffffffffffffffff1681526020019081526020015f205490811502906040515f60405180830381858888f19350505050158015610703573d5f803e3d5ffd5b5060025f9054906101000a900473ffffffffffffffffffffffffffffffffffffffff1673ffffffffffffffffffffffffffffffffffffffff1663a9059cbb8260095f8573ffffffffffffffffffffffffffffffffffffffff1673ffffffffffffffffffffffffffffffffffffffff1681526020019081526020015f20546040518363ffffffff1660e01b815260040161079d9291906117be565b6020604051808303815f875af11580156107b9573d5f803e3d5ffd5b505050506040513d601f19601f820116820180604052508101906107dd919061180f565b506107e6611188565b50565b60035f9054906101000a900473ffffffffffffffffffffffffffffffffffffffff1681565b5f8060085f8473ffffffffffffffffffffffffffffffffffffffff1673ffffffffffffffffffffffffffffffffffffffff1681526020019081526020015f205460095f8573ffffffffffffffffffffffffffffffffffffffff1673ffffffffffffffffffffffffffffffffffffffff1681526020019081526020015f205491509150915091565b61089d611144565b6108a5611191565b60065481116108e9576040517f08c379a00000000000000000000000000000000000000000000000000000000081526004016108e0906118ba565b60405180910390fd5b60025f9054906101000a900473ffffffffffffffffffffffffffffffffffffffff1673ffffffffffffffffffffffffffffffffffffffff166323b872dd3330846040518463ffffffff1660e01b8152600401610947939291906118d8565b6020604051808303815f875af1158015610963573d5f803e3d5ffd5b505050506040513d601f19601f82011682018060405250810190610987919061180f565b6109c6576040517f08c379a00000000000000000000000000000000000000000000000000000000081526004016109bd9061197d565b60405180910390fd5b8060095f3373ffffffffffffffffffffffffffffffffffffffff1673ffffffffffffffffffffffffffffffffffffffff1681526020019081526020015f205f828254610a12919061178b565b925050819055508060055f828254610a2a919061178b565b925050819055503373ffffffffffffffffffffffffffffffffffffffff167f9a4c731ff1518c7a820e31d32e673b031b8974967931afb2eec308066090022d82604051610a77919061143c565b60405180910390a2610a87611188565b50565b610a926111d2565b610a9a611259565b565b60065481565b610aaa611144565b610ab2611191565b5f8111610af4576040517f08c379a0000000000000000000000000000000000000000000000000000000008152600401610aeb906118ba565b60405180910390fd5b8060095f3373ffffffffffffffffffffffffffffffffffffffff1673ffffffffffffffffffffffffffffffffffffffff1681526020019081526020015f20541015610b74576040517f08c379a0000000000000000000000000000000000000000000000000000000008152600401610b6b90611a0b565b60405180910390fd5b8060095f3373ffffffffffffffffffffffffffffffffffffffff1673ffffffffffffffffffffffffffffffffffffffff1681526020019081526020015f205f828254610bc09190611a29565b925050819055508060055f828254610bd89190611a29565b9250508190555060025f9054906101000a900473ffffffffffffffffffffffffffffffffffffffff1673ffffffffffffffffffffffffffffffffffffffff1663a9059cbb33836040518363ffffffff1660e01b8152600401610c3b9291906117be565b6020604051808303815f875af1158015610c57573d5f803e3d5ffd5b505050506040513d601f19601f82011682018060405250810190610c7b919061180f565b610cba576040517f08c379a0000000000000000000000000000000000000000000000000000000008152600401610cb19061197d565b60405180910390fd5b3373ffffffffffffffffffffffffffffffffffffffff167fc01511ac0a76d7dc4d420282166e32ac9366c3f78e450661d140d248b19a400082604051610d00919061143c565b60405180910390a2610d10611188565b50565b5f60015f9054906101000a900460ff16905090565b60045481565b610d366111d2565b610d3f5f6112ba565b565b610d496111d2565b610d5161137c565b565b5f60018054906101000a900473ffffffffffffffffffffffffffffffffffffffff16905090565b610d82611144565b610d8a611191565b5f8111610dcc576040517f08c379a0000000000000000000000000000000000000000000000000000000008152600401610dc3906118ba565b60405180910390fd5b8060085f3373ffffffffffffffffffffffffffffffffffffffff1673ffffffffffffffffffffffffffffffffffffffff1681526020019081526020015f20541015610e4c576040517f08c379a0000000000000000000000000000000000000000000000000000000008152600401610e4390611a0b565b60405180910390fd5b8060085f3373ffffffffffffffffffffffffffffffffffffffff1673ffffffffffffffffffffffffffffffffffffffff1681526020019081526020015f205f828254610e989190611a29565b925050819055508060045f828254610eb09190611a29565b925050819055503373ffffffffffffffffffffffffffffffffffffffff166108fc8290811502906040515f60405180830381858888f19350505050158015610efa573d5f803e3d5ffd5b503373ffffffffffffffffffffffffffffffffffffffff167f0c3d79d31dc82080baf59ab3c3058c3c7c4f88f9969422caa1b42c51577d640b82604051610f41919061143c565b60405180910390a2610f51611188565b50565b60055481565b6008602052805f5260405f205f915090505481565b60025f9054906101000a900473ffffffffffffffffffffffffffffffffffffffff1681565b6009602052805f5260405f205f915090505481565b610fb1611144565b610fb9611191565b6006543411610ffd576040517f08c379a0000000000000000000000000000000000000000000000000000000008152600401610ff4906118ba565b60405180910390fd5b3460085f3373ffffffffffffffffffffffffffffffffffffffff1673ffffffffffffffffffffffffffffffffffffffff1681526020019081526020015f205f828254611049919061178b565b925050819055503460045f828254611061919061178b565b925050819055503373ffffffffffffffffffffffffffffffffffffffff167ff5bfa8a3f6a61792f266e3e92249facce14edf2b5fceeba5cb6cd0882593a9da346040516110ae919061143c565b60405180910390a26110be611188565b565b6110c86111d2565b5f73ffffffffffffffffffffffffffffffffffffffff168173ffffffffffffffffffffffffffffffffffffffff1603611138575f6040517f1e4fbdf700000000000000000000000000000000000000000000000000000000815260040161112f9190611610565b60405180910390fd5b611141816112ba565b50565b60025f540361117f576040517f3ee5aeb500000000000000000000000000000000000000000000000000000000815260040160405180910390fd5b60025f81905550565b60015f81905550565b611199610d13565b156111d0576040517fd93c066500000000000000000000000000000000000000000000000000000000815260040160405180910390fd5b565b6111da6113dd565b73ffffffffffffffffffffffffffffffffffffffff166111f8610d53565b73ffffffffffffffffffffffffffffffffffffffff16146112575761121b6113dd565b6040517f118cdaa700000000000000000000000000000000000000000000000000000000815260040161124e9190611610565b60405180910390fd5b565b6112616113e4565b5f60015f6101000a81548160ff0219169083151502179055507f5db9ee0a495bf2e6ff9c91a7834c1ba4fdd244a5e8aa4e537bd38aeae4b073aa6112a36113dd565b6040516112b09190611610565b60405180910390a1565b5f60018054906101000a900473ffffffffffffffffffffffffffffffffffffffff169050816001806101000a81548173ffffffffffffffffffffffffffffffffffffffff021916908373ffffffffffffffffffffffffffffffffffffffff1602179055508173ffffffffffffffffffffffffffffffffffffffff168173ffffffffffffffffffffffffffffffffffffffff167f8be0079c531659141344cd1fd0a4f28419497f9722a3daafe3b4186f6b6457e060405160405180910390a35050565b611384611191565b6001805f6101000a81548160ff0219169083151502179055507f62e78cea01bee320cd4e420270b5ea74000d11b0c9f74754ebdbfc544b05a2586113c66113dd565b6040516113d39190611610565b60405180910390a1565b5f33905090565b6113ec610d13565b611422576040517f8dfc202b00000000000000000000000000000000000000000000000000000000815260040160405180910390fd5b565b5f819050919050565b61143681611424565b82525050565b5f60208201905061144f5f83018461142d565b92915050565b5f80fd5b5f73ffffffffffffffffffffffffffffffffffffffff82169050919050565b5f61148282611459565b9050919050565b61149281611478565b811461149c575f80fd5b50565b5f813590506114ad81611489565b92915050565b5f602082840312156114c8576114c7611455565b5b5f6114d58482850161149f565b91505092915050565b5f819050919050565b5f6115016114fc6114f784611459565b6114de565b611459565b9050919050565b5f611512826114e7565b9050919050565b5f61152382611508565b9050919050565b61153381611519565b82525050565b5f60208201905061154c5f83018461152a565b92915050565b5f6040820190506115655f83018561142d565b611572602083018461142d565b9392505050565b61158281611424565b811461158c575f80fd5b50565b5f8135905061159d81611579565b92915050565b5f602082840312156115b8576115b7611455565b5b5f6115c58482850161158f565b91505092915050565b5f8115159050919050565b6115e2816115ce565b82525050565b5f6020820190506115fb5f8301846115d9565b92915050565b61160a81611478565b82525050565b5f6020820190506116235f830184611601565b92915050565b5f61163382611508565b9050919050565b61164381611629565b82525050565b5f60208201905061165c5f83018461163a565b92915050565b5f819050919050565b61167481611662565b811461167e575f80fd5b50565b5f8151905061168f8161166b565b92915050565b5f602082840312156116aa576116a9611455565b5b5f6116b784828501611681565b91505092915050565b7f4e487b71000000000000000000000000000000000000000000000000000000005f52601160045260245ffd5b5f6116f782611424565b915061170283611424565b925082820261171081611424565b91508282048414831517611727576117266116c0565b5b5092915050565b7f4e487b71000000000000000000000000000000000000000000000000000000005f52601260045260245ffd5b5f61176582611424565b915061177083611424565b9250826117805761177f61172e565b5b828204905092915050565b5f61179582611424565b91506117a083611424565b92508282019050808211156117b8576117b76116c0565b5b92915050565b5f6040820190506117d15f830185611601565b6117de602083018461142d565b9392505050565b6117ee816115ce565b81146117f8575f80fd5b50565b5f81519050611809816117e5565b92915050565b5f6020828403121561182457611823611455565b5b5f611831848285016117fb565b91505092915050565b5f82825260208201905092915050565b7f436f6c6c61746572616c4d616e616765723a20496e76616c696420616d6f756e5f8201527f7400000000000000000000000000000000000000000000000000000000000000602082015250565b5f6118a460218361183a565b91506118af8261184a565b604082019050919050565b5f6020820190508181035f8301526118d181611898565b9050919050565b5f6060820190506118eb5f830186611601565b6118f86020830185611601565b611905604083018461142d565b949350505050565b7f436f6c6c61746572616c4d616e616765723a205472616e73666572206661696c5f8201527f6564000000000000000000000000000000000000000000000000000000000000602082015250565b5f61196760228361183a565b91506119728261190d565b604082019050919050565b5f6020820190508181035f8301526119948161195b565b9050919050565b7f436f6c6c61746572616c4d616e616765723a20496e73756666696369656e74205f8201527f62616c616e636500000000000000000000000000000000000000000000000000602082015250565b5f6119f560278361183a565b9150611a008261199b565b604082019050919050565b5f6020820190508181035f830152611a22816119e9565b9050919050565b5f611a3382611424565b9150611a3e83611424565b9250828203905081811115611a5657611a556116c0565b5b9291505056fea26469706673582212205f6ad35fe76dbeaf1721b5e8db04d28ddc245714d8463cb964c4695d5409178964736f6c634300081a0033",
					"opcodes": "PUSH1 0x80 PUSH1 0x40 MSTORE PUSH8 0xDE0B6B3A7640000 PUSH1 0x6 SSTORE PUSH9 0x3635C9ADC5DEA00000 PUSH1 0x7 SSTORE CALLVALUE DUP1 ISZERO PUSH2 0x28 JUMPI PUSH0 DUP1 REVERT JUMPDEST POP PUSH1 0x40 MLOAD PUSH2 0x1DD2 CODESIZE SUB DUP1 PUSH2 0x1DD2 DUP4 CODECOPY DUP2 DUP2 ADD PUSH1 0x40 MSTORE DUP2 ADD SWAP1 PUSH2 0x4A SWAP2 SWAP1 PUSH2 0x2CD JUMP JUMPDEST CALLER PUSH1 0x1 PUSH0 DUP2 SWAP1 SSTORE POP PUSH0 PUSH1 0x1 PUSH0 PUSH2 0x100 EXP DUP2 SLOAD DUP2 PUSH1 0xFF MUL NOT AND SWAP1 DUP4 ISZERO ISZERO MUL OR SWAP1 SSTORE POP PUSH0 PUSH20 0xFFFFFFFFFFFFFFFFFFFFFFFFFFFFFFFFFFFFFFFF AND DUP2 PUSH20 0xFFFFFFFFFFFFFFFFFFFFFFFFFFFFFFFFFFFFFFFF AND SUB PUSH2 0xDB JUMPI PUSH0 PUSH1 0x40 MLOAD PUSH32 0x1E4FBDF700000000000000000000000000000000000000000000000000000000 DUP2 MSTORE PUSH1 0x4 ADD PUSH2 0xD2 SWAP2 SWAP1 PUSH2 0x31A JUMP JUMPDEST PUSH1 0x40 MLOAD DUP1 SWAP2 SUB SWAP1 REVERT JUMPDEST PUSH2 0xEA DUP2 PUSH2 0x172 PUSH1 0x20 SHL PUSH1 0x20 SHR JUMP JUMPDEST POP DUP2 PUSH1 0x2 PUSH0 PUSH2 0x100 EXP DUP2 SLOAD DUP2 PUSH20 0xFFFFFFFFFFFFFFFFFFFFFFFFFFFFFFFFFFFFFFFF MUL NOT AND SWAP1 DUP4 PUSH20 0xFFFFFFFFFFFFFFFFFFFFFFFFFFFFFFFFFFFFFFFF AND MUL OR SWAP1 SSTORE POP DUP1 PUSH1 0x3 PUSH0 PUSH2 0x100 EXP DUP2 SLOAD DUP2 PUSH20 0xFFFFFFFFFFFFFFFFFFFFFFFFFFFFFFFFFFFFFFFF MUL NOT AND SWAP1 DUP4 PUSH20 0xFFFFFFFFFFFFFFFFFFFFFFFFFFFFFFFFFFFFFFFF AND MUL OR SWAP1 SSTORE POP POP POP PUSH2 0x333 JUMP JUMPDEST PUSH0 PUSH1 0x1 DUP1 SLOAD SWAP1 PUSH2 0x100 EXP SWAP1 DIV PUSH20 0xFFFFFFFFFFFFFFFFFFFFFFFFFFFFFFFFFFFFFFFF AND SWAP1 POP DUP2 PUSH1 0x1 DUP1 PUSH2 0x100 EXP DUP2 SLOAD DUP2 PUSH20 0xFFFFFFFFFFFFFFFFFFFFFFFFFFFFFFFFFFFFFFFF MUL NOT AND SWAP1 DUP4 PUSH20 0xFFFFFFFFFFFFFFFFFFFFFFFFFFFFFFFFFFFFFFFF AND MUL OR SWAP1 SSTORE POP DUP2 PUSH20 0xFFFFFFFFFFFFFFFFFFFFFFFFFFFFFFFFFFFFFFFF AND DUP2 PUSH20 0xFFFFFFFFFFFFFFFFFFFFFFFFFFFFFFFFFFFFFFFF AND PUSH32 0x8BE0079C531659141344CD1FD0A4F28419497F9722A3DAAFE3B4186F6B6457E0 PUSH1 0x40 MLOAD PUSH1 0x40 MLOAD DUP1 SWAP2 SUB SWAP1 LOG3 POP POP JUMP JUMPDEST PUSH0 DUP1 REVERT JUMPDEST PUSH0 PUSH20 0xFFFFFFFFFFFFFFFFFFFFFFFFFFFFFFFFFFFFFFFF DUP3 AND SWAP1 POP SWAP2 SWAP1 POP JUMP JUMPDEST PUSH0 PUSH2 0x261 DUP3 PUSH2 0x238 JUMP JUMPDEST SWAP1 POP SWAP2 SWAP1 POP JUMP JUMPDEST PUSH0 PUSH2 0x272 DUP3 PUSH2 0x257 JUMP JUMPDEST SWAP1 POP SWAP2 SWAP1 POP JUMP JUMPDEST PUSH2 0x282 DUP2 PUSH2 0x268 JUMP JUMPDEST DUP2 EQ PUSH2 0x28C JUMPI PUSH0 DUP1 REVERT JUMPDEST POP JUMP JUMPDEST PUSH0 DUP2 MLOAD SWAP1 POP PUSH2 0x29D DUP2 PUSH2 0x279 JUMP JUMPDEST SWAP3 SWAP2 POP POP JUMP JUMPDEST PUSH2 0x2AC DUP2 PUSH2 0x257 JUMP JUMPDEST DUP2 EQ PUSH2 0x2B6 JUMPI PUSH0 DUP1 REVERT JUMPDEST POP JUMP JUMPDEST PUSH0 DUP2 MLOAD SWAP1 POP PUSH2 0x2C7 DUP2 PUSH2 0x2A3 JUMP JUMPDEST SWAP3 SWAP2 POP POP JUMP JUMPDEST PUSH0 DUP1 PUSH1 0x40 DUP4 DUP6 SUB SLT ISZERO PUSH2 0x2E3 JUMPI PUSH2 0x2E2 PUSH2 0x234 JUMP JUMPDEST JUMPDEST PUSH0 PUSH2 0x2F0 DUP6 DUP3 DUP7 ADD PUSH2 0x28F JUMP JUMPDEST SWAP3 POP POP PUSH1 0x20 PUSH2 0x301 DUP6 DUP3 DUP7 ADD PUSH2 0x2B9 JUMP JUMPDEST SWAP2 POP POP SWAP3 POP SWAP3 SWAP1 POP JUMP JUMPDEST PUSH2 0x314 DUP2 PUSH2 0x257 JUMP JUMPDEST DUP3 MSTORE POP POP JUMP JUMPDEST PUSH0 PUSH1 0x20 DUP3 ADD SWAP1 POP PUSH2 0x32D PUSH0 DUP4 ADD DUP5 PUSH2 0x30B JUMP JUMPDEST SWAP3 SWAP2 POP POP JUMP JUMPDEST PUSH2 0x1A92 DUP1 PUSH2 0x340 PUSH0 CODECOPY PUSH0 RETURN INVALID PUSH1 0x80 PUSH1 0x40 MSTORE PUSH1 0x4 CALLDATASIZE LT PUSH2 0x129 JUMPI PUSH0 CALLDATALOAD PUSH1 0xE0 SHR DUP1 PUSH4 0x60B3B338 GT PUSH2 0xAA JUMPI DUP1 PUSH4 0x9083BAA6 GT PUSH2 0x6E JUMPI DUP1 PUSH4 0x9083BAA6 EQ PUSH2 0x384 JUMPI DUP1 PUSH4 0x9E30BCE7 EQ PUSH2 0x3AE JUMPI DUP1 PUSH4 0xA98AD46C EQ PUSH2 0x3EA JUMPI DUP1 PUSH4 0xC3B2A4A4 EQ PUSH2 0x414 JUMPI DUP1 PUSH4 0xD57AC70D EQ PUSH2 0x450 JUMPI DUP1 PUSH4 0xF2FDE38B EQ PUSH2 0x45A JUMPI PUSH2 0x129 JUMP JUMPDEST DUP1 PUSH4 0x60B3B338 EQ PUSH2 0x2DC JUMPI DUP1 PUSH4 0x715018A6 EQ PUSH2 0x306 JUMPI DUP1 PUSH4 0x8456CB59 EQ PUSH2 0x31C JUMPI DUP1 PUSH4 0x8DA5CB5B EQ PUSH2 0x332 JUMPI DUP1 PUSH4 0x8E817EFE EQ PUSH2 0x35C JUMPI PUSH2 0x129 JUMP JUMPDEST DUP1 PUSH4 0x2F5723D5 GT PUSH2 0xF1 JUMPI DUP1 PUSH4 0x2F5723D5 EQ PUSH2 0x222 JUMPI DUP1 PUSH4 0x3F4BA83A EQ PUSH2 0x24A JUMPI DUP1 PUSH4 0x5269384E EQ PUSH2 0x260 JUMPI DUP1 PUSH4 0x52CE9714 EQ PUSH2 0x28A JUMPI DUP1 PUSH4 0x5C975ABB EQ PUSH2 0x2B2 JUMPI PUSH2 0x129 JUMP JUMPDEST DUP1 PUSH4 0x4885115 EQ PUSH2 0x12D JUMPI DUP1 PUSH4 0x9B8AAFD EQ PUSH2 0x157 JUMPI DUP1 PUSH4 0x192E7A7B EQ PUSH2 0x193 JUMPI DUP1 PUSH4 0x2630C12F EQ PUSH2 0x1BB JUMPI DUP1 PUSH4 0x2703EE85 EQ PUSH2 0x1E5 JUMPI JUMPDEST PUSH0 DUP1 REVERT JUMPDEST CALLVALUE DUP1 ISZERO PUSH2 0x138 JUMPI PUSH0 DUP1 REVERT JUMPDEST POP PUSH2 0x141 PUSH2 0x482 JUMP JUMPDEST PUSH1 0x40 MLOAD PUSH2 0x14E SWAP2 SWAP1 PUSH2 0x143C JUMP JUMPDEST PUSH1 0x40 MLOAD DUP1 SWAP2 SUB SWAP1 RETURN JUMPDEST CALLVALUE DUP1 ISZERO PUSH2 0x162 JUMPI PUSH0 DUP1 REVERT JUMPDEST POP PUSH2 0x17D PUSH1 0x4 DUP1 CALLDATASIZE SUB DUP2 ADD SWAP1 PUSH2 0x178 SWAP2 SWAP1 PUSH2 0x14B3 JUMP JUMPDEST PUSH2 0x488 JUMP JUMPDEST PUSH1 0x40 MLOAD PUSH2 0x18A SWAP2 SWAP1 PUSH2 0x143C JUMP JUMPDEST PUSH1 0x40 MLOAD DUP1 SWAP2 SUB SWAP1 RETURN JUMPDEST CALLVALUE DUP1 ISZERO PUSH2 0x19E JUMPI PUSH0 DUP1 REVERT JUMPDEST POP PUSH2 0x1B9 PUSH1 0x4 DUP1 CALLDATASIZE SUB DUP2 ADD SWAP1 PUSH2 0x1B4 SWAP2 SWAP1 PUSH2 0x14B3 JUMP JUMPDEST PUSH2 0x67B JUMP JUMPDEST STOP JUMPDEST CALLVALUE DUP1 ISZERO PUSH2 0x1C6 JUMPI PUSH0 DUP1 REVERT JUMPDEST POP PUSH2 0x1CF PUSH2 0x7E9 JUMP JUMPDEST PUSH1 0x40 MLOAD PUSH2 0x1DC SWAP2 SWAP1 PUSH2 0x1539 JUMP JUMPDEST PUSH1 0x40 MLOAD DUP1 SWAP2 SUB SWAP1 RETURN JUMPDEST CALLVALUE DUP1 ISZERO PUSH2 0x1F0 JUMPI PUSH0 DUP1 REVERT JUMPDEST POP PUSH2 0x20B PUSH1 0x4 DUP1 CALLDATASIZE SUB DUP2 ADD SWAP1 PUSH2 0x206 SWAP2 SWAP1 PUSH2 0x14B3 JUMP JUMPDEST PUSH2 0x80E JUMP JUMPDEST PUSH1 0x40 MLOAD PUSH2 0x219 SWAP3 SWAP2 SWAP1 PUSH2 0x1552 JUMP JUMPDEST PUSH1 0x40 MLOAD DUP1 SWAP2 SUB SWAP1 RETURN JUMPDEST CALLVALUE DUP1 ISZERO PUSH2 0x22D JUMPI PUSH0 DUP1 REVERT JUMPDEST POP PUSH2 0x248 PUSH1 0x4 DUP1 CALLDATASIZE SUB DUP2 ADD SWAP1 PUSH2 0x243 SWAP2 SWAP1 PUSH2 0x15A3 JUMP JUMPDEST PUSH2 0x895 JUMP JUMPDEST STOP JUMPDEST CALLVALUE DUP1 ISZERO PUSH2 0x255 JUMPI PUSH0 DUP1 REVERT JUMPDEST POP PUSH2 0x25E PUSH2 0xA8A JUMP JUMPDEST STOP JUMPDEST CALLVALUE DUP1 ISZERO PUSH2 0x26B JUMPI PUSH0 DUP1 REVERT JUMPDEST POP PUSH2 0x274 PUSH2 0xA9C JUMP JUMPDEST PUSH1 0x40 MLOAD PUSH2 0x281 SWAP2 SWAP1 PUSH2 0x143C JUMP JUMPDEST PUSH1 0x40 MLOAD DUP1 SWAP2 SUB SWAP1 RETURN JUMPDEST CALLVALUE DUP1 ISZERO PUSH2 0x295 JUMPI PUSH0 DUP1 REVERT JUMPDEST POP PUSH2 0x2B0 PUSH1 0x4 DUP1 CALLDATASIZE SUB DUP2 ADD SWAP1 PUSH2 0x2AB SWAP2 SWAP1 PUSH2 0x15A3 JUMP JUMPDEST PUSH2 0xAA2 JUMP JUMPDEST STOP JUMPDEST CALLVALUE DUP1 ISZERO PUSH2 0x2BD JUMPI PUSH0 DUP1 REVERT JUMPDEST POP PUSH2 0x2C6 PUSH2 0xD13 JUMP JUMPDEST PUSH1 0x40 MLOAD PUSH2 0x2D3 SWAP2 SWAP1 PUSH2 0x15E8 JUMP JUMPDEST PUSH1 0x40 MLOAD DUP1 SWAP2 SUB SWAP1 RETURN JUMPDEST CALLVALUE DUP1 ISZERO PUSH2 0x2E7 JUMPI PUSH0 DUP1 REVERT JUMPDEST POP PUSH2 0x2F0 PUSH2 0xD28 JUMP JUMPDEST PUSH1 0x40 MLOAD PUSH2 0x2FD SWAP2 SWAP1 PUSH2 0x143C JUMP JUMPDEST PUSH1 0x40 MLOAD DUP1 SWAP2 SUB SWAP1 RETURN JUMPDEST CALLVALUE DUP1 ISZERO PUSH2 0x311 JUMPI PUSH0 DUP1 REVERT JUMPDEST POP PUSH2 0x31A PUSH2 0xD2E JUMP JUMPDEST STOP JUMPDEST CALLVALUE DUP1 ISZERO PUSH2 0x327 JUMPI PUSH0 DUP1 REVERT JUMPDEST POP PUSH2 0x330 PUSH2 0xD41 JUMP JUMPDEST STOP JUMPDEST CALLVALUE DUP1 ISZERO PUSH2 0x33D JUMPI PUSH0 DUP1 REVERT JUMPDEST POP PUSH2 0x346 PUSH2 0xD53 JUMP JUMPDEST PUSH1 0x40 MLOAD PUSH2 0x353 SWAP2 SWAP1 PUSH2 0x1610 JUMP JUMPDEST PUSH1 0x40 MLOAD DUP1 SWAP2 SUB SWAP1 RETURN JUMPDEST CALLVALUE DUP1 ISZERO PUSH2 0x367 JUMPI PUSH0 DUP1 REVERT JUMPDEST POP PUSH2 0x382 PUSH1 0x4 DUP1 CALLDATASIZE SUB DUP2 ADD SWAP1 PUSH2 0x37D SWAP2 SWAP1 PUSH2 0x15A3 JUMP JUMPDEST PUSH2 0xD7A JUMP JUMPDEST STOP JUMPDEST CALLVALUE DUP1 ISZERO PUSH2 0x38F JUMPI PUSH0 DUP1 REVERT JUMPDEST POP PUSH2 0x398 PUSH2 0xF54 JUMP JUMPDEST PUSH1 0x40 MLOAD PUSH2 0x3A5 SWAP2 SWAP1 PUSH2 0x143C JUMP JUMPDEST PUSH1 0x40 MLOAD DUP1 SWAP2 SUB SWAP1 RETURN JUMPDEST CALLVALUE DUP1 ISZERO PUSH2 0x3B9 JUMPI PUSH0 DUP1 REVERT JUMPDEST POP PUSH2 0x3D4 PUSH1 0x4 DUP1 CALLDATASIZE SUB DUP2 ADD SWAP1 PUSH2 0x3CF SWAP2 SWAP1 PUSH2 0x14B3 JUMP JUMPDEST PUSH2 0xF5A JUMP JUMPDEST PUSH1 0x40 MLOAD PUSH2 0x3E1 SWAP2 SWAP1 PUSH2 0x143C JUMP JUMPDEST PUSH1 0x40 MLOAD DUP1 SWAP2 SUB SWAP1 RETURN JUMPDEST CALLVALUE DUP1 ISZERO PUSH2 0x3F5 JUMPI PUSH0 DUP1 REVERT JUMPDEST POP PUSH2 0x3FE PUSH2 0xF6F JUMP JUMPDEST PUSH1 0x40 MLOAD PUSH2 0x40B SWAP2 SWAP1 PUSH2 0x1649 JUMP JUMPDEST PUSH1 0x40 MLOAD DUP1 SWAP2 SUB SWAP1 RETURN JUMPDEST CALLVALUE DUP1 ISZERO PUSH2 0x41F JUMPI PUSH0 DUP1 REVERT JUMPDEST POP PUSH2 0x43A PUSH1 0x4 DUP1 CALLDATASIZE SUB DUP2 ADD SWAP1 PUSH2 0x435 SWAP2 SWAP1 PUSH2 0x14B3 JUMP JUMPDEST PUSH2 0xF94 JUMP JUMPDEST PUSH1 0x40 MLOAD PUSH2 0x447 SWAP2 SWAP1 PUSH2 0x143C JUMP JUMPDEST PUSH1 0x40 MLOAD DUP1 SWAP2 SUB SWAP1 RETURN JUMPDEST PUSH2 0x458 PUSH2 0xFA9 JUMP JUMPDEST STOP JUMPDEST CALLVALUE DUP1 ISZERO PUSH2 0x465 JUMPI PUSH0 DUP1 REVERT JUMPDEST POP PUSH2 0x480 PUSH1 0x4 DUP1 CALLDATASIZE SUB DUP2 ADD SWAP1 PUSH2 0x47B SWAP2 SWAP1 PUSH2 0x14B3 JUMP JUMPDEST PUSH2 0x10C0 JUMP JUMPDEST STOP JUMPDEST PUSH1 0x7 SLOAD DUP2 JUMP JUMPDEST PUSH0 DUP1 PUSH1 0x3 PUSH0 SWAP1 SLOAD SWAP1 PUSH2 0x100 EXP SWAP1 DIV PUSH20 0xFFFFFFFFFFFFFFFFFFFFFFFFFFFFFFFFFFFFFFFF AND PUSH20 0xFFFFFFFFFFFFFFFFFFFFFFFFFFFFFFFFFFFFFFFF AND PUSH4 0x73544CFD PUSH1 0x40 MLOAD DUP2 PUSH4 0xFFFFFFFF AND PUSH1 0xE0 SHL DUP2 MSTORE PUSH1 0x4 ADD PUSH1 0x20 PUSH1 0x40 MLOAD DUP1 DUP4 SUB DUP2 DUP7 GAS STATICCALL ISZERO DUP1 ISZERO PUSH2 0x4F4 JUMPI RETURNDATASIZE PUSH0 DUP1 RETURNDATACOPY RETURNDATASIZE PUSH0 REVERT JUMPDEST POP POP POP POP PUSH1 0x40 MLOAD RETURNDATASIZE PUSH1 0x1F NOT PUSH1 0x1F DUP3 ADD AND DUP3 ADD DUP1 PUSH1 0x40 MSTORE POP DUP2 ADD SWAP1 PUSH2 0x518 SWAP2 SWAP1 PUSH2 0x1695 JUMP JUMPDEST SWAP1 POP PUSH0 PUSH1 0x3 PUSH0 SWAP1 SLOAD SWAP1 PUSH2 0x100 EXP SWAP1 DIV PUSH20 0xFFFFFFFFFFFFFFFFFFFFFFFFFFFFFFFFFFFFFFFF AND PUSH20 0xFFFFFFFFFFFFFFFFFFFFFFFFFFFFFFFFFFFFFFFF AND PUSH4 0x961BDFBF PUSH1 0x40 MLOAD DUP2 PUSH4 0xFFFFFFFF AND PUSH1 0xE0 SHL DUP2 MSTORE PUSH1 0x4 ADD PUSH1 0x20 PUSH1 0x40 MLOAD DUP1 DUP4 SUB DUP2 DUP7 GAS STATICCALL ISZERO DUP1 ISZERO PUSH2 0x585 JUMPI RETURNDATASIZE PUSH0 DUP1 RETURNDATACOPY RETURNDATASIZE PUSH0 REVERT JUMPDEST POP POP POP POP PUSH1 0x40 MLOAD RETURNDATASIZE PUSH1 0x1F NOT PUSH1 0x1F DUP3 ADD AND DUP3 ADD DUP1 PUSH1 0x40 MSTORE POP DUP2 ADD SWAP1 PUSH2 0x5A9 SWAP2 SWAP1 PUSH2 0x1695 JUMP JUMPDEST SWAP1 POP PUSH0 PUSH8 0xDE0B6B3A7640000 DUP3 PUSH1 0x9 PUSH0 DUP9 PUSH20 0xFFFFFFFFFFFFFFFFFFFFFFFFFFFFFFFFFFFFFFFF AND PUSH20 0xFFFFFFFFFFFFFFFFFFFFFFFFFFFFFFFFFFFFFFFF AND DUP2 MSTORE PUSH1 0x20 ADD SWAP1 DUP2 MSTORE PUSH1 0x20 ADD PUSH0 KECCAK256 SLOAD PUSH2 0x5FE SWAP2 SWAP1 PUSH2 0x16ED JUMP JUMPDEST PUSH2 0x608 SWAP2 SWAP1 PUSH2 0x175B JUMP JUMPDEST PUSH8 0xDE0B6B3A7640000 DUP5 PUSH1 0x8 PUSH0 DUP10 PUSH20 0xFFFFFFFFFFFFFFFFFFFFFFFFFFFFFFFFFFFFFFFF AND PUSH20 0xFFFFFFFFFFFFFFFFFFFFFFFFFFFFFFFFFFFFFFFF AND DUP2 MSTORE PUSH1 0x20 ADD SWAP1 DUP2 MSTORE PUSH1 0x20 ADD PUSH0 KECCAK256 SLOAD PUSH2 0x65A SWAP2 SWAP1 PUSH2 0x16ED JUMP JUMPDEST PUSH2 0x664 SWAP2 SWAP1 PUSH2 0x175B JUMP JUMPDEST PUSH2 0x66E SWAP2 SWAP1 PUSH2 0x178B JUMP JUMPDEST SWAP1 POP DUP1 SWAP4 POP POP POP POP SWAP2 SWAP1 POP JUMP JUMPDEST PUSH2 0x683 PUSH2 0x1144 JUMP JUMPDEST DUP1 PUSH20 0xFFFFFFFFFFFFFFFFFFFFFFFFFFFFFFFFFFFFFFFF AND PUSH2 0x8FC PUSH1 0x8 PUSH0 DUP5 PUSH20 0xFFFFFFFFFFFFFFFFFFFFFFFFFFFFFFFFFFFFFFFF AND PUSH20 0xFFFFFFFFFFFFFFFFFFFFFFFFFFFFFFFFFFFFFFFF AND DUP2 MSTORE PUSH1 0x20 ADD SWAP1 DUP2 MSTORE PUSH1 0x20 ADD PUSH0 KECCAK256 SLOAD SWAP1 DUP2 ISZERO MUL SWAP1 PUSH1 0x40 MLOAD PUSH0 PUSH1 0x40 MLOAD DUP1 DUP4 SUB DUP2 DUP6 DUP9 DUP9 CALL SWAP4 POP POP POP POP ISZERO DUP1 ISZERO PUSH2 0x703 JUMPI RETURNDATASIZE PUSH0 DUP1 RETURNDATACOPY RETURNDATASIZE PUSH0 REVERT JUMPDEST POP PUSH1 0x2 PUSH0 SWAP1 SLOAD SWAP1 PUSH2 0x100 EXP SWAP1 DIV PUSH20 0xFFFFFFFFFFFFFFFFFFFFFFFFFFFFFFFFFFFFFFFF AND PUSH20 0xFFFFFFFFFFFFFFFFFFFFFFFFFFFFFFFFFFFFFFFF AND PUSH4 0xA9059CBB DUP3 PUSH1 0x9 PUSH0 DUP6 PUSH20 0xFFFFFFFFFFFFFFFFFFFFFFFFFFFFFFFFFFFFFFFF AND PUSH20 0xFFFFFFFFFFFFFFFFFFFFFFFFFFFFFFFFFFFFFFFF AND DUP2 MSTORE PUSH1 0x20 ADD SWAP1 DUP2 MSTORE PUSH1 0x20 ADD PUSH0 KECCAK256 SLOAD PUSH1 0x40 MLOAD DUP4 PUSH4 0xFFFFFFFF AND PUSH1 0xE0 SHL DUP2 MSTORE PUSH1 0x4 ADD PUSH2 0x79D SWAP3 SWAP2 SWAP1 PUSH2 0x17BE JUMP JUMPDEST PUSH1 0x20 PUSH1 0x40 MLOAD DUP1 DUP4 SUB DUP2 PUSH0 DUP8 GAS CALL ISZERO DUP1 ISZERO PUSH2 0x7B9 JUMPI RETURNDATASIZE PUSH0 DUP1 RETURNDATACOPY RETURNDATASIZE PUSH0 REVERT JUMPDEST POP POP POP POP PUSH1 0x40 MLOAD RETURNDATASIZE PUSH1 0x1F NOT PUSH1 0x1F DUP3 ADD AND DUP3 ADD DUP1 PUSH1 0x40 MSTORE POP DUP2 ADD SWAP1 PUSH2 0x7DD SWAP2 SWAP1 PUSH2 0x180F JUMP JUMPDEST POP PUSH2 0x7E6 PUSH2 0x1188 JUMP JUMPDEST POP JUMP JUMPDEST PUSH1 0x3 PUSH0 SWAP1 SLOAD SWAP1 PUSH2 0x100 EXP SWAP1 DIV PUSH20 0xFFFFFFFFFFFFFFFFFFFFFFFFFFFFFFFFFFFFFFFF AND DUP2 JUMP JUMPDEST PUSH0 DUP1 PUSH1 0x8 PUSH0 DUP5 PUSH20 0xFFFFFFFFFFFFFFFFFFFFFFFFFFFFFFFFFFFFFFFF AND PUSH20 0xFFFFFFFFFFFFFFFFFFFFFFFFFFFFFFFFFFFFFFFF AND DUP2 MSTORE PUSH1 0x20 ADD SWAP1 DUP2 MSTORE PUSH1 0x20 ADD PUSH0 KECCAK256 SLOAD PUSH1 0x9 PUSH0 DUP6 PUSH20 0xFFFFFFFFFFFFFFFFFFFFFFFFFFFFFFFFFFFFFFFF AND PUSH20 0xFFFFFFFFFFFFFFFFFFFFFFFFFFFFFFFFFFFFFFFF AND DUP2 MSTORE PUSH1 0x20 ADD SWAP1 DUP2 MSTORE PUSH1 0x20 ADD PUSH0 KECCAK256 SLOAD SWAP2 POP SWAP2 POP SWAP2 POP SWAP2 JUMP JUMPDEST PUSH2 0x89D PUSH2 0x1144 JUMP JUMPDEST PUSH2 0x8A5 PUSH2 0x1191 JUMP JUMPDEST PUSH1 0x6 SLOAD DUP2 GT PUSH2 0x8E9 JUMPI PUSH1 0x40 MLOAD PUSH32 0x8C379A000000000000000000000000000000000000000000000000000000000 DUP2 MSTORE PUSH1 0x4 ADD PUSH2 0x8E0 SWAP1 PUSH2 0x18BA JUMP JUMPDEST PUSH1 0x40 MLOAD DUP1 SWAP2 SUB SWAP1 REVERT JUMPDEST PUSH1 0x2 PUSH0 SWAP1 SLOAD SWAP1 PUSH2 0x100 EXP SWAP1 DIV PUSH20 0xFFFFFFFFFFFFFFFFFFFFFFFFFFFFFFFFFFFFFFFF AND PUSH20 0xFFFFFFFFFFFFFFFFFFFFFFFFFFFFFFFFFFFFFFFF AND PUSH4 0x23B872DD CALLER ADDRESS DUP5 PUSH1 0x40 MLOAD DUP5 PUSH4 0xFFFFFFFF AND PUSH1 0xE0 SHL DUP2 MSTORE PUSH1 0x4 ADD PUSH2 0x947 SWAP4 SWAP3 SWAP2 SWAP1 PUSH2 0x18D8 JUMP JUMPDEST PUSH1 0x20 PUSH1 0x40 MLOAD DUP1 DUP4 SUB DUP2 PUSH0 DUP8 GAS CALL ISZERO DUP1 ISZERO PUSH2 0x963 JUMPI RETURNDATASIZE PUSH0 DUP1 RETURNDATACOPY RETURNDATASIZE PUSH0 REVERT JUMPDEST POP POP POP POP PUSH1 0x40 MLOAD RETURNDATASIZE PUSH1 0x1F NOT PUSH1 0x1F DUP3 ADD AND DUP3 ADD DUP1 PUSH1 0x40 MSTORE POP DUP2 ADD SWAP1 PUSH2 0x987 SWAP2 SWAP1 PUSH2 0x180F JUMP JUMPDEST PUSH2 0x9C6 JUMPI PUSH1 0x40 MLOAD PUSH32 0x8C379A000000000000000000000000000000000000000000000000000000000 DUP2 MSTORE PUSH1 0x4 ADD PUSH2 0x9BD SWAP1 PUSH2 0x197D JUMP JUMPDEST PUSH1 0x40 MLOAD DUP1 SWAP2 SUB SWAP1 REVERT JUMPDEST DUP1 PUSH1 0x9 PUSH0 CALLER PUSH20 0xFFFFFFFFFFFFFFFFFFFFFFFFFFFFFFFFFFFFFFFF AND PUSH20 0xFFFFFFFFFFFFFFFFFFFFFFFFFFFFFFFFFFFFFFFF AND DUP2 MSTORE PUSH1 0x20 ADD SWAP1 DUP2 MSTORE PUSH1 0x20 ADD PUSH0 KECCAK256 PUSH0 DUP3 DUP3 SLOAD PUSH2 0xA12 SWAP2 SWAP1 PUSH2 0x178B JUMP JUMPDEST SWAP3 POP POP DUP2 SWAP1 SSTORE POP DUP1 PUSH1 0x5 PUSH0 DUP3 DUP3 SLOAD PUSH2 0xA2A SWAP2 SWAP1 PUSH2 0x178B JUMP JUMPDEST SWAP3 POP POP DUP2 SWAP1 SSTORE POP CALLER PUSH20 0xFFFFFFFFFFFFFFFFFFFFFFFFFFFFFFFFFFFFFFFF AND PUSH32 0x9A4C731FF1518C7A820E31D32E673B031B8974967931AFB2EEC308066090022D DUP3 PUSH1 0x40 MLOAD PUSH2 0xA77 SWAP2 SWAP1 PUSH2 0x143C JUMP JUMPDEST PUSH1 0x40 MLOAD DUP1 SWAP2 SUB SWAP1 LOG2 PUSH2 0xA87 PUSH2 0x1188 JUMP JUMPDEST POP JUMP JUMPDEST PUSH2 0xA92 PUSH2 0x11D2 JUMP JUMPDEST PUSH2 0xA9A PUSH2 0x1259 JUMP JUMPDEST JUMP JUMPDEST PUSH1 0x6 SLOAD DUP2 JUMP JUMPDEST PUSH2 0xAAA PUSH2 0x1144 JUMP JUMPDEST PUSH2 0xAB2 PUSH2 0x1191 JUMP JUMPDEST PUSH0 DUP2 GT PUSH2 0xAF4 JUMPI PUSH1 0x40 MLOAD PUSH32 0x8C379A000000000000000000000000000000000000000000000000000000000 DUP2 MSTORE PUSH1 0x4 ADD PUSH2 0xAEB SWAP1 PUSH2 0x18BA JUMP JUMPDEST PUSH1 0x40 MLOAD DUP1 SWAP2 SUB SWAP1 REVERT JUMPDEST DUP1 PUSH1 0x9 PUSH0 CALLER PUSH20 0xFFFFFFFFFFFFFFFFFFFFFFFFFFFFFFFFFFFFFFFF AND PUSH20 0xFFFFFFFFFFFFFFFFFFFFFFFFFFFFFFFFFFFFFFFF AND DUP2 MSTORE PUSH1 0x20 ADD SWAP1 DUP2 MSTORE PUSH1 0x20 ADD PUSH0 KECCAK256 SLOAD LT ISZERO PUSH2 0xB74 JUMPI PUSH1 0x40 MLOAD PUSH32 0x8C379A000000000000000000000000000000000000000000000000000000000 DUP2 MSTORE PUSH1 0x4 ADD PUSH2 0xB6B SWAP1 PUSH2 0x1A0B JUMP JUMPDEST PUSH1 0x40 MLOAD DUP1 SWAP2 SUB SWAP1 REVERT JUMPDEST DUP1 PUSH1 0x9 PUSH0 CALLER PUSH20 0xFFFFFFFFFFFFFFFFFFFFFFFFFFFFFFFFFFFFFFFF AND PUSH20 0xFFFFFFFFFFFFFFFFFFFFFFFFFFFFFFFFFFFFFFFF AND DUP2 MSTORE PUSH1 0x20 ADD SWAP1 DUP2 MSTORE PUSH1 0x20 ADD PUSH0 KECCAK256 PUSH0 DUP3 DUP3 SLOAD PUSH2 0xBC0 SWAP2 SWAP1 PUSH2 0x1A29 JUMP JUMPDEST SWAP3 POP POP DUP2 SWAP1 SSTORE POP DUP1 PUSH1 0x5 PUSH0 DUP3 DUP3 SLOAD PUSH2 0xBD8 SWAP2 SWAP1 PUSH2 0x1A29 JUMP JUMPDEST SWAP3 POP POP DUP2 SWAP1 SSTORE POP PUSH1 0x2 PUSH0 SWAP1 SLOAD SWAP1 PUSH2 0x100 EXP SWAP1 DIV PUSH20 0xFFFFFFFFFFFFFFFFFFFFFFFFFFFFFFFFFFFFFFFF AND PUSH20 0xFFFFFFFFFFFFFFFFFFFFFFFFFFFFFFFFFFFFFFFF AND PUSH4 0xA9059CBB CALLER DUP4 PUSH1 0x40 MLOAD DUP4 PUSH4 0xFFFFFFFF AND PUSH1 0xE0 SHL DUP2 MSTORE PUSH1 0x4 ADD PUSH2 0xC3B SWAP3 SWAP2 SWAP1 PUSH2 0x17BE JUMP JUMPDEST PUSH1 0x20 PUSH1 0x40 MLOAD DUP1 DUP4 SUB DUP2 PUSH0 DUP8 GAS CALL ISZERO DUP1 ISZERO PUSH2 0xC57 JUMPI RETURNDATASIZE PUSH0 DUP1 RETURNDATACOPY RETURNDATASIZE PUSH0 REVERT JUMPDEST POP POP POP POP PUSH1 0x40 MLOAD RETURNDATASIZE PUSH1 0x1F NOT PUSH1 0x1F DUP3 ADD AND DUP3 ADD DUP1 PUSH1 0x40 MSTORE POP DUP2 ADD SWAP1 PUSH2 0xC7B SWAP2 SWAP1 PUSH2 0x180F JUMP JUMPDEST PUSH2 0xCBA JUMPI PUSH1 0x40 MLOAD PUSH32 0x8C379A000000000000000000000000000000000000000000000000000000000 DUP2 MSTORE PUSH1 0x4 ADD PUSH2 0xCB1 SWAP1 PUSH2 0x197D JUMP JUMPDEST PUSH1 0x40 MLOAD DUP1 SWAP2 SUB SWAP1 REVERT JUMPDEST CALLER PUSH20 0xFFFFFFFFFFFFFFFFFFFFFFFFFFFFFFFFFFFFFFFF AND PUSH32 0xC01511AC0A76D7DC4D420282166E32AC9366C3F78E450661D140D248B19A4000 DUP3 PUSH1 0x40 MLOAD PUSH2 0xD00 SWAP2 SWAP1 PUSH2 0x143C JUMP JUMPDEST PUSH1 0x40 MLOAD DUP1 SWAP2 SUB SWAP1 LOG2 PUSH2 0xD10 PUSH2 0x1188 JUMP JUMPDEST POP JUMP JUMPDEST PUSH0 PUSH1 0x1 PUSH0 SWAP1 SLOAD SWAP1 PUSH2 0x100 EXP SWAP1 DIV PUSH1 0xFF AND SWAP1 POP SWAP1 JUMP JUMPDEST PUSH1 0x4 SLOAD DUP2 JUMP JUMPDEST PUSH2 0xD36 PUSH2 0x11D2 JUMP JUMPDEST PUSH2 0xD3F PUSH0 PUSH2 0x12BA JUMP JUMPDEST JUMP JUMPDEST PUSH2 0xD49 PUSH2 0x11D2 JUMP JUMPDEST PUSH2 0xD51 PUSH2 0x137C JUMP JUMPDEST JUMP JUMPDEST PUSH0 PUSH1 0x1 DUP1 SLOAD SWAP1 PUSH2 0x100 EXP SWAP1 DIV PUSH20 0xFFFFFFFFFFFFFFFFFFFFFFFFFFFFFFFFFFFFFFFF AND SWAP1 POP SWAP1 JUMP JUMPDEST PUSH2 0xD82 PUSH2 0x1144 JUMP JUMPDEST PUSH2 0xD8A PUSH2 0x1191 JUMP JUMPDEST PUSH0 DUP2 GT PUSH2 0xDCC JUMPI PUSH1 0x40 MLOAD PUSH32 0x8C379A000000000000000000000000000000000000000000000000000000000 DUP2 MSTORE PUSH1 0x4 ADD PUSH2 0xDC3 SWAP1 PUSH2 0x18BA JUMP JUMPDEST PUSH1 0x40 MLOAD DUP1 SWAP2 SUB SWAP1 REVERT JUMPDEST DUP1 PUSH1 0x8 PUSH0 CALLER PUSH20 0xFFFFFFFFFFFFFFFFFFFFFFFFFFFFFFFFFFFFFFFF AND PUSH20 0xFFFFFFFFFFFFFFFFFFFFFFFFFFFFFFFFFFFFFFFF AND DUP2 MSTORE PUSH1 0x20 ADD SWAP1 DUP2 MSTORE PUSH1 0x20 ADD PUSH0 KECCAK256 SLOAD LT ISZERO PUSH2 0xE4C JUMPI PUSH1 0x40 MLOAD PUSH32 0x8C379A000000000000000000000000000000000000000000000000000000000 DUP2 MSTORE PUSH1 0x4 ADD PUSH2 0xE43 SWAP1 PUSH2 0x1A0B JUMP JUMPDEST PUSH1 0x40 MLOAD DUP1 SWAP2 SUB SWAP1 REVERT JUMPDEST DUP1 PUSH1 0x8 PUSH0 CALLER PUSH20 0xFFFFFFFFFFFFFFFFFFFFFFFFFFFFFFFFFFFFFFFF AND PUSH20 0xFFFFFFFFFFFFFFFFFFFFFFFFFFFFFFFFFFFFFFFF AND DUP2 MSTORE PUSH1 0x20 ADD SWAP1 DUP2 MSTORE PUSH1 0x20 ADD PUSH0 KECCAK256 PUSH0 DUP3 DUP3 SLOAD PUSH2 0xE98 SWAP2 SWAP1 PUSH2 0x1A29 JUMP JUMPDEST SWAP3 POP POP DUP2 SWAP1 SSTORE POP DUP1 PUSH1 0x4 PUSH0 DUP3 DUP3 SLOAD PUSH2 0xEB0 SWAP2 SWAP1 PUSH2 0x1A29 JUMP JUMPDEST SWAP3 POP POP DUP2 SWAP1 SSTORE POP CALLER PUSH20 0xFFFFFFFFFFFFFFFFFFFFFFFFFFFFFFFFFFFFFFFF AND PUSH2 0x8FC DUP3 SWAP1 DUP2 ISZERO MUL SWAP1 PUSH1 0x40 MLOAD PUSH0 PUSH1 0x40 MLOAD DUP1 DUP4 SUB DUP2 DUP6 DUP9 DUP9 CALL SWAP4 POP POP POP POP ISZERO DUP1 ISZERO PUSH2 0xEFA JUMPI RETURNDATASIZE PUSH0 DUP1 RETURNDATACOPY RETURNDATASIZE PUSH0 REVERT JUMPDEST POP CALLER PUSH20 0xFFFFFFFFFFFFFFFFFFFFFFFFFFFFFFFFFFFFFFFF AND PUSH32 0xC3D79D31DC82080BAF59AB3C3058C3C7C4F88F9969422CAA1B42C51577D640B DUP3 PUSH1 0x40 MLOAD PUSH2 0xF41 SWAP2 SWAP1 PUSH2 0x143C JUMP JUMPDEST PUSH1 0x40 MLOAD DUP1 SWAP2 SUB SWAP1 LOG2 PUSH2 0xF51 PUSH2 0x1188 JUMP JUMPDEST POP JUMP JUMPDEST PUSH1 0x5 SLOAD DUP2 JUMP JUMPDEST PUSH1 0x8 PUSH1 0x20 MSTORE DUP1 PUSH0 MSTORE PUSH1 0x40 PUSH0 KECCAK256 PUSH0 SWAP2 POP SWAP1 POP SLOAD DUP2 JUMP JUMPDEST PUSH1 0x2 PUSH0 SWAP1 SLOAD SWAP1 PUSH2 0x100 EXP SWAP1 DIV PUSH20 0xFFFFFFFFFFFFFFFFFFFFFFFFFFFFFFFFFFFFFFFF AND DUP2 JUMP JUMPDEST PUSH1 0x9 PUSH1 0x20 MSTORE DUP1 PUSH0 MSTORE PUSH1 0x40 PUSH0 KECCAK256 PUSH0 SWAP2 POP SWAP1 POP SLOAD DUP2 JUMP JUMPDEST PUSH2 0xFB1 PUSH2 0x1144 JUMP JUMPDEST PUSH2 0xFB9 PUSH2 0x1191 JUMP JUMPDEST PUSH1 0x6 SLOAD CALLVALUE GT PUSH2 0xFFD JUMPI PUSH1 0x40 MLOAD PUSH32 0x8C379A000000000000000000000000000000000000000000000000000000000 DUP2 MSTORE PUSH1 0x4 ADD PUSH2 0xFF4 SWAP1 PUSH2 0x18BA JUMP JUMPDEST PUSH1 0x40 MLOAD DUP1 SWAP2 SUB SWAP1 REVERT JUMPDEST CALLVALUE PUSH1 0x8 PUSH0 CALLER PUSH20 0xFFFFFFFFFFFFFFFFFFFFFFFFFFFFFFFFFFFFFFFF AND PUSH20 0xFFFFFFFFFFFFFFFFFFFFFFFFFFFFFFFFFFFFFFFF AND DUP2 MSTORE PUSH1 0x20 ADD SWAP1 DUP2 MSTORE PUSH1 0x20 ADD PUSH0 KECCAK256 PUSH0 DUP3 DUP3 SLOAD PUSH2 0x1049 SWAP2 SWAP1 PUSH2 0x178B JUMP JUMPDEST SWAP3 POP POP DUP2 SWAP1 SSTORE POP CALLVALUE PUSH1 0x4 PUSH0 DUP3 DUP3 SLOAD PUSH2 0x1061 SWAP2 SWAP1 PUSH2 0x178B JUMP JUMPDEST SWAP3 POP POP DUP2 SWAP1 SSTORE POP CALLER PUSH20 0xFFFFFFFFFFFFFFFFFFFFFFFFFFFFFFFFFFFFFFFF AND PUSH32 0xF5BFA8A3F6A61792F266E3E92249FACCE14EDF2B5FCEEBA5CB6CD0882593A9DA CALLVALUE PUSH1 0x40 MLOAD PUSH2 0x10AE SWAP2 SWAP1 PUSH2 0x143C JUMP JUMPDEST PUSH1 0x40 MLOAD DUP1 SWAP2 SUB SWAP1 LOG2 PUSH2 0x10BE PUSH2 0x1188 JUMP JUMPDEST JUMP JUMPDEST PUSH2 0x10C8 PUSH2 0x11D2 JUMP JUMPDEST PUSH0 PUSH20 0xFFFFFFFFFFFFFFFFFFFFFFFFFFFFFFFFFFFFFFFF AND DUP2 PUSH20 0xFFFFFFFFFFFFFFFFFFFFFFFFFFFFFFFFFFFFFFFF AND SUB PUSH2 0x1138 JUMPI PUSH0 PUSH1 0x40 MLOAD PUSH32 0x1E4FBDF700000000000000000000000000000000000000000000000000000000 DUP2 MSTORE PUSH1 0x4 ADD PUSH2 0x112F SWAP2 SWAP1 PUSH2 0x1610 JUMP JUMPDEST PUSH1 0x40 MLOAD DUP1 SWAP2 SUB SWAP1 REVERT JUMPDEST PUSH2 0x1141 DUP2 PUSH2 0x12BA JUMP JUMPDEST POP JUMP JUMPDEST PUSH1 0x2 PUSH0 SLOAD SUB PUSH2 0x117F JUMPI PUSH1 0x40 MLOAD PUSH32 0x3EE5AEB500000000000000000000000000000000000000000000000000000000 DUP2 MSTORE PUSH1 0x4 ADD PUSH1 0x40 MLOAD DUP1 SWAP2 SUB SWAP1 REVERT JUMPDEST PUSH1 0x2 PUSH0 DUP2 SWAP1 SSTORE POP JUMP JUMPDEST PUSH1 0x1 PUSH0 DUP2 SWAP1 SSTORE POP JUMP JUMPDEST PUSH2 0x1199 PUSH2 0xD13 JUMP JUMPDEST ISZERO PUSH2 0x11D0 JUMPI PUSH1 0x40 MLOAD PUSH32 0xD93C066500000000000000000000000000000000000000000000000000000000 DUP2 MSTORE PUSH1 0x4 ADD PUSH1 0x40 MLOAD DUP1 SWAP2 SUB SWAP1 REVERT JUMPDEST JUMP JUMPDEST PUSH2 0x11DA PUSH2 0x13DD JUMP JUMPDEST PUSH20 0xFFFFFFFFFFFFFFFFFFFFFFFFFFFFFFFFFFFFFFFF AND PUSH2 0x11F8 PUSH2 0xD53 JUMP JUMPDEST PUSH20 0xFFFFFFFFFFFFFFFFFFFFFFFFFFFFFFFFFFFFFFFF AND EQ PUSH2 0x1257 JUMPI PUSH2 0x121B PUSH2 0x13DD JUMP JUMPDEST PUSH1 0x40 MLOAD PUSH32 0x118CDAA700000000000000000000000000000000000000000000000000000000 DUP2 MSTORE PUSH1 0x4 ADD PUSH2 0x124E SWAP2 SWAP1 PUSH2 0x1610 JUMP JUMPDEST PUSH1 0x40 MLOAD DUP1 SWAP2 SUB SWAP1 REVERT JUMPDEST JUMP JUMPDEST PUSH2 0x1261 PUSH2 0x13E4 JUMP JUMPDEST PUSH0 PUSH1 0x1 PUSH0 PUSH2 0x100 EXP DUP2 SLOAD DUP2 PUSH1 0xFF MUL NOT AND SWAP1 DUP4 ISZERO ISZERO MUL OR SWAP1 SSTORE POP PUSH32 0x5DB9EE0A495BF2E6FF9C91A7834C1BA4FDD244A5E8AA4E537BD38AEAE4B073AA PUSH2 0x12A3 PUSH2 0x13DD JUMP JUMPDEST PUSH1 0x40 MLOAD PUSH2 0x12B0 SWAP2 SWAP1 PUSH2 0x1610 JUMP JUMPDEST PUSH1 0x40 MLOAD DUP1 SWAP2 SUB SWAP1 LOG1 JUMP JUMPDEST PUSH0 PUSH1 0x1 DUP1 SLOAD SWAP1 PUSH2 0x100 EXP SWAP1 DIV PUSH20 0xFFFFFFFFFFFFFFFFFFFFFFFFFFFFFFFFFFFFFFFF AND SWAP1 POP DUP2 PUSH1 0x1 DUP1 PUSH2 0x100 EXP DUP2 SLOAD DUP2 PUSH20 0xFFFFFFFFFFFFFFFFFFFFFFFFFFFFFFFFFFFFFFFF MUL NOT AND SWAP1 DUP4 PUSH20 0xFFFFFFFFFFFFFFFFFFFFFFFFFFFFFFFFFFFFFFFF AND MUL OR SWAP1 SSTORE POP DUP2 PUSH20 0xFFFFFFFFFFFFFFFFFFFFFFFFFFFFFFFFFFFFFFFF AND DUP2 PUSH20 0xFFFFFFFFFFFFFFFFFFFFFFFFFFFFFFFFFFFFFFFF AND PUSH32 0x8BE0079C531659141344CD1FD0A4F28419497F9722A3DAAFE3B4186F6B6457E0 PUSH1 0x40 MLOAD PUSH1 0x40 MLOAD DUP1 SWAP2 SUB SWAP1 LOG3 POP POP JUMP JUMPDEST PUSH2 0x1384 PUSH2 0x1191 JUMP JUMPDEST PUSH1 0x1 DUP1 PUSH0 PUSH2 0x100 EXP DUP2 SLOAD DUP2 PUSH1 0xFF MUL NOT AND SWAP1 DUP4 ISZERO ISZERO MUL OR SWAP1 SSTORE POP PUSH32 0x62E78CEA01BEE320CD4E420270B5EA74000D11B0C9F74754EBDBFC544B05A258 PUSH2 0x13C6 PUSH2 0x13DD JUMP JUMPDEST PUSH1 0x40 MLOAD PUSH2 0x13D3 SWAP2 SWAP1 PUSH2 0x1610 JUMP JUMPDEST PUSH1 0x40 MLOAD DUP1 SWAP2 SUB SWAP1 LOG1 JUMP JUMPDEST PUSH0 CALLER SWAP1 POP SWAP1 JUMP JUMPDEST PUSH2 0x13EC PUSH2 0xD13 JUMP JUMPDEST PUSH2 0x1422 JUMPI PUSH1 0x40 MLOAD PUSH32 0x8DFC202B00000000000000000000000000000000000000000000000000000000 DUP2 MSTORE PUSH1 0x4 ADD PUSH1 0x40 MLOAD DUP1 SWAP2 SUB SWAP1 REVERT JUMPDEST JUMP JUMPDEST PUSH0 DUP2 SWAP1 POP SWAP2 SWAP1 POP JUMP JUMPDEST PUSH2 0x1436 DUP2 PUSH2 0x1424 JUMP JUMPDEST DUP3 MSTORE POP POP JUMP JUMPDEST PUSH0 PUSH1 0x20 DUP3 ADD SWAP1 POP PUSH2 0x144F PUSH0 DUP4 ADD DUP5 PUSH2 0x142D JUMP JUMPDEST SWAP3 SWAP2 POP POP JUMP JUMPDEST PUSH0 DUP1 REVERT JUMPDEST PUSH0 PUSH20 0xFFFFFFFFFFFFFFFFFFFFFFFFFFFFFFFFFFFFFFFF DUP3 AND SWAP1 POP SWAP2 SWAP1 POP JUMP JUMPDEST PUSH0 PUSH2 0x1482 DUP3 PUSH2 0x1459 JUMP JUMPDEST SWAP1 POP SWAP2 SWAP1 POP JUMP JUMPDEST PUSH2 0x1492 DUP2 PUSH2 0x1478 JUMP JUMPDEST DUP2 EQ PUSH2 0x149C JUMPI PUSH0 DUP1 REVERT JUMPDEST POP JUMP JUMPDEST PUSH0 DUP2 CALLDATALOAD SWAP1 POP PUSH2 0x14AD DUP2 PUSH2 0x1489 JUMP JUMPDEST SWAP3 SWAP2 POP POP JUMP JUMPDEST PUSH0 PUSH1 0x20 DUP3 DUP5 SUB SLT ISZERO PUSH2 0x14C8 JUMPI PUSH2 0x14C7 PUSH2 0x1455 JUMP JUMPDEST JUMPDEST PUSH0 PUSH2 0x14D5 DUP5 DUP3 DUP6 ADD PUSH2 0x149F JUMP JUMPDEST SWAP2 POP POP SWAP3 SWAP2 POP POP JUMP JUMPDEST PUSH0 DUP2 SWAP1 POP SWAP2 SWAP1 POP JUMP JUMPDEST PUSH0 PUSH2 0x1501 PUSH2 0x14FC PUSH2 0x14F7 DUP5 PUSH2 0x1459 JUMP JUMPDEST PUSH2 0x14DE JUMP JUMPDEST PUSH2 0x1459 JUMP JUMPDEST SWAP1 POP SWAP2 SWAP1 POP JUMP JUMPDEST PUSH0 PUSH2 0x1512 DUP3 PUSH2 0x14E7 JUMP JUMPDEST SWAP1 POP SWAP2 SWAP1 POP JUMP JUMPDEST PUSH0 PUSH2 0x1523 DUP3 PUSH2 0x1508 JUMP JUMPDEST SWAP1 POP SWAP2 SWAP1 POP JUMP JUMPDEST PUSH2 0x1533 DUP2 PUSH2 0x1519 JUMP JUMPDEST DUP3 MSTORE POP POP JUMP JUMPDEST PUSH0 PUSH1 0x20 DUP3 ADD SWAP1 POP PUSH2 0x154C PUSH0 DUP4 ADD DUP5 PUSH2 0x152A JUMP JUMPDEST SWAP3 SWAP2 POP POP JUMP JUMPDEST PUSH0 PUSH1 0x40 DUP3 ADD SWAP1 POP PUSH2 0x1565 PUSH0 DUP4 ADD DUP6 PUSH2 0x142D JUMP JUMPDEST PUSH2 0x1572 PUSH1 0x20 DUP4 ADD DUP5 PUSH2 0x142D JUMP JUMPDEST SWAP4 SWAP3 POP POP POP JUMP JUMPDEST PUSH2 0x1582 DUP2 PUSH2 0x1424 JUMP JUMPDEST DUP2 EQ PUSH2 0x158C JUMPI PUSH0 DUP1 REVERT JUMPDEST POP JUMP JUMPDEST PUSH0 DUP2 CALLDATALOAD SWAP1 POP PUSH2 0x159D DUP2 PUSH2 0x1579 JUMP JUMPDEST SWAP3 SWAP2 POP POP JUMP JUMPDEST PUSH0 PUSH1 0x20 DUP3 DUP5 SUB SLT ISZERO PUSH2 0x15B8 JUMPI PUSH2 0x15B7 PUSH2 0x1455 JUMP JUMPDEST JUMPDEST PUSH0 PUSH2 0x15C5 DUP5 DUP3 DUP6 ADD PUSH2 0x158F JUMP JUMPDEST SWAP2 POP POP SWAP3 SWAP2 POP POP JUMP JUMPDEST PUSH0 DUP2 ISZERO ISZERO SWAP1 POP SWAP2 SWAP1 POP JUMP JUMPDEST PUSH2 0x15E2 DUP2 PUSH2 0x15CE JUMP JUMPDEST DUP3 MSTORE POP POP JUMP JUMPDEST PUSH0 PUSH1 0x20 DUP3 ADD SWAP1 POP PUSH2 0x15FB PUSH0 DUP4 ADD DUP5 PUSH2 0x15D9 JUMP JUMPDEST SWAP3 SWAP2 POP POP JUMP JUMPDEST PUSH2 0x160A DUP2 PUSH2 0x1478 JUMP JUMPDEST DUP3 MSTORE POP POP JUMP JUMPDEST PUSH0 PUSH1 0x20 DUP3 ADD SWAP1 POP PUSH2 0x1623 PUSH0 DUP4 ADD DUP5 PUSH2 0x1601 JUMP JUMPDEST SWAP3 SWAP2 POP POP JUMP JUMPDEST PUSH0 PUSH2 0x1633 DUP3 PUSH2 0x1508 JUMP JUMPDEST SWAP1 POP SWAP2 SWAP1 POP JUMP JUMPDEST PUSH2 0x1643 DUP2 PUSH2 0x1629 JUMP JUMPDEST DUP3 MSTORE POP POP JUMP JUMPDEST PUSH0 PUSH1 0x20 DUP3 ADD SWAP1 POP PUSH2 0x165C PUSH0 DUP4 ADD DUP5 PUSH2 0x163A JUMP JUMPDEST SWAP3 SWAP2 POP POP JUMP JUMPDEST PUSH0 DUP2 SWAP1 POP SWAP2 SWAP1 POP JUMP JUMPDEST PUSH2 0x1674 DUP2 PUSH2 0x1662 JUMP JUMPDEST DUP2 EQ PUSH2 0x167E JUMPI PUSH0 DUP1 REVERT JUMPDEST POP JUMP JUMPDEST PUSH0 DUP2 MLOAD SWAP1 POP PUSH2 0x168F DUP2 PUSH2 0x166B JUMP JUMPDEST SWAP3 SWAP2 POP POP JUMP JUMPDEST PUSH0 PUSH1 0x20 DUP3 DUP5 SUB SLT ISZERO PUSH2 0x16AA JUMPI PUSH2 0x16A9 PUSH2 0x1455 JUMP JUMPDEST JUMPDEST PUSH0 PUSH2 0x16B7 DUP5 DUP3 DUP6 ADD PUSH2 0x1681 JUMP JUMPDEST SWAP2 POP POP SWAP3 SWAP2 POP POP JUMP JUMPDEST PUSH32 0x4E487B7100000000000000000000000000000000000000000000000000000000 PUSH0 MSTORE PUSH1 0x11 PUSH1 0x4 MSTORE PUSH1 0x24 PUSH0 REVERT JUMPDEST PUSH0 PUSH2 0x16F7 DUP3 PUSH2 0x1424 JUMP JUMPDEST SWAP2 POP PUSH2 0x1702 DUP4 PUSH2 0x1424 JUMP JUMPDEST SWAP3 POP DUP3 DUP3 MUL PUSH2 0x1710 DUP2 PUSH2 0x1424 JUMP JUMPDEST SWAP2 POP DUP3 DUP3 DIV DUP5 EQ DUP4 ISZERO OR PUSH2 0x1727 JUMPI PUSH2 0x1726 PUSH2 0x16C0 JUMP JUMPDEST JUMPDEST POP SWAP3 SWAP2 POP POP JUMP JUMPDEST PUSH32 0x4E487B7100000000000000000000000000000000000000000000000000000000 PUSH0 MSTORE PUSH1 0x12 PUSH1 0x4 MSTORE PUSH1 0x24 PUSH0 REVERT JUMPDEST PUSH0 PUSH2 0x1765 DUP3 PUSH2 0x1424 JUMP JUMPDEST SWAP2 POP PUSH2 0x1770 DUP4 PUSH2 0x1424 JUMP JUMPDEST SWAP3 POP DUP3 PUSH2 0x1780 JUMPI PUSH2 0x177F PUSH2 0x172E JUMP JUMPDEST JUMPDEST DUP3 DUP3 DIV SWAP1 POP SWAP3 SWAP2 POP POP JUMP JUMPDEST PUSH0 PUSH2 0x1795 DUP3 PUSH2 0x1424 JUMP JUMPDEST SWAP2 POP PUSH2 0x17A0 DUP4 PUSH2 0x1424 JUMP JUMPDEST SWAP3 POP DUP3 DUP3 ADD SWAP1 POP DUP1 DUP3 GT ISZERO PUSH2 0x17B8 JUMPI PUSH2 0x17B7 PUSH2 0x16C0 JUMP JUMPDEST JUMPDEST SWAP3 SWAP2 POP POP JUMP JUMPDEST PUSH0 PUSH1 0x40 DUP3 ADD SWAP1 POP PUSH2 0x17D1 PUSH0 DUP4 ADD DUP6 PUSH2 0x1601 JUMP JUMPDEST PUSH2 0x17DE PUSH1 0x20 DUP4 ADD DUP5 PUSH2 0x142D JUMP JUMPDEST SWAP4 SWAP3 POP POP POP JUMP JUMPDEST PUSH2 0x17EE DUP2 PUSH2 0x15CE JUMP JUMPDEST DUP2 EQ PUSH2 0x17F8 JUMPI PUSH0 DUP1 REVERT JUMPDEST POP JUMP JUMPDEST PUSH0 DUP2 MLOAD SWAP1 POP PUSH2 0x1809 DUP2 PUSH2 0x17E5 JUMP JUMPDEST SWAP3 SWAP2 POP POP JUMP JUMPDEST PUSH0 PUSH1 0x20 DUP3 DUP5 SUB SLT ISZERO PUSH2 0x1824 JUMPI PUSH2 0x1823 PUSH2 0x1455 JUMP JUMPDEST JUMPDEST PUSH0 PUSH2 0x1831 DUP5 DUP3 DUP6 ADD PUSH2 0x17FB JUMP JUMPDEST SWAP2 POP POP SWAP3 SWAP2 POP POP JUMP JUMPDEST PUSH0 DUP3 DUP3 MSTORE PUSH1 0x20 DUP3 ADD SWAP1 POP SWAP3 SWAP2 POP POP JUMP JUMPDEST PUSH32 0x436F6C6C61746572616C4D616E616765723A20496E76616C696420616D6F756E PUSH0 DUP3 ADD MSTORE PUSH32 0x7400000000000000000000000000000000000000000000000000000000000000 PUSH1 0x20 DUP3 ADD MSTORE POP JUMP JUMPDEST PUSH0 PUSH2 0x18A4 PUSH1 0x21 DUP4 PUSH2 0x183A JUMP JUMPDEST SWAP2 POP PUSH2 0x18AF DUP3 PUSH2 0x184A JUMP JUMPDEST PUSH1 0x40 DUP3 ADD SWAP1 POP SWAP2 SWAP1 POP JUMP JUMPDEST PUSH0 PUSH1 0x20 DUP3 ADD SWAP1 POP DUP2 DUP2 SUB PUSH0 DUP4 ADD MSTORE PUSH2 0x18D1 DUP2 PUSH2 0x1898 JUMP JUMPDEST SWAP1 POP SWAP2 SWAP1 POP JUMP JUMPDEST PUSH0 PUSH1 0x60 DUP3 ADD SWAP1 POP PUSH2 0x18EB PUSH0 DUP4 ADD DUP7 PUSH2 0x1601 JUMP JUMPDEST PUSH2 0x18F8 PUSH1 0x20 DUP4 ADD DUP6 PUSH2 0x1601 JUMP JUMPDEST PUSH2 0x1905 PUSH1 0x40 DUP4 ADD DUP5 PUSH2 0x142D JUMP JUMPDEST SWAP5 SWAP4 POP POP POP POP JUMP JUMPDEST PUSH32 0x436F6C6C61746572616C4D616E616765723A205472616E73666572206661696C PUSH0 DUP3 ADD MSTORE PUSH32 0x6564000000000000000000000000000000000000000000000000000000000000 PUSH1 0x20 DUP3 ADD MSTORE POP JUMP JUMPDEST PUSH0 PUSH2 0x1967 PUSH1 0x22 DUP4 PUSH2 0x183A JUMP JUMPDEST SWAP2 POP PUSH2 0x1972 DUP3 PUSH2 0x190D JUMP JUMPDEST PUSH1 0x40 DUP3 ADD SWAP1 POP SWAP2 SWAP1 POP JUMP JUMPDEST PUSH0 PUSH1 0x20 DUP3 ADD SWAP1 POP DUP2 DUP2 SUB PUSH0 DUP4 ADD MSTORE PUSH2 0x1994 DUP2 PUSH2 0x195B JUMP JUMPDEST SWAP1 POP SWAP2 SWAP1 POP JUMP JUMPDEST PUSH32 0x436F6C6C61746572616C4D616E616765723A20496E73756666696369656E7420 PUSH0 DUP3 ADD MSTORE PUSH32 0x62616C616E636500000000000000000000000000000000000000000000000000 PUSH1 0x20 DUP3 ADD MSTORE POP JUMP JUMPDEST PUSH0 PUSH2 0x19F5 PUSH1 0x27 DUP4 PUSH2 0x183A JUMP JUMPDEST SWAP2 POP PUSH2 0x1A00 DUP3 PUSH2 0x199B JUMP JUMPDEST PUSH1 0x40 DUP3 ADD SWAP1 POP SWAP2 SWAP1 POP JUMP JUMPDEST PUSH0 PUSH1 0x20 DUP3 ADD SWAP1 POP DUP2 DUP2 SUB PUSH0 DUP4 ADD MSTORE PUSH2 0x1A22 DUP2 PUSH2 0x19E9 JUMP JUMPDEST SWAP1 POP SWAP2 SWAP1 POP JUMP JUMPDEST PUSH0 PUSH2 0x1A33 DUP3 PUSH2 0x1424 JUMP JUMPDEST SWAP2 POP PUSH2 0x1A3E DUP4 PUSH2 0x1424 JUMP JUMPDEST SWAP3 POP DUP3 DUP3 SUB SWAP1 POP DUP2 DUP2 GT ISZERO PUSH2 0x1A56 JUMPI PUSH2 0x1A55 PUSH2 0x16C0 JUMP JUMPDEST JUMPDEST SWAP3 SWAP2 POP POP JUMP INVALID LOG2 PUSH5 0x6970667358 0x22 SLT KECCAK256 PUSH0 PUSH11 0xD35FE76DBEAF1721B5E8DB DIV 0xD2 DUP14 0xDC 0x24 JUMPI EQ 0xD8 CHAINID EXTCODECOPY 0xB9 PUSH5 0xC4695D5409 OR DUP10 PUSH5 0x736F6C6343 STOP ADDMOD BYTE STOP CALLER "
				},
				"gasEstimates": {
					"creation": {
						"codeDepositCost": "1360400",
						"executionCost": "infinite",
						"totalCost": "infinite"
					},
					"external": {
						"depositCeloCollateral()": "infinite",
						"depositUsdtCollateral(uint256)": "infinite",
						"getCollateralBalance(address)": "infinite",
						"getCollateralBalanceinUSD(address)": "infinite",
						"maxCollateralAmount()": "2449",
						"minCollateralAmount()": "2492",
						"owner()": "2652",
						"pause()": "infinite",
						"paused()": "2584",
						"priceOracle()": "infinite",
						"releaseFunds(address)": "infinite",
						"renounceOwnership()": "infinite",
						"totalCollateralCelo()": "2448",
						"totalCollateralUsdt()": "2447",
						"transferOwnership(address)": "infinite",
						"unpause()": "infinite",
						"usdtToken()": "infinite",
						"userCollateralCelo(address)": "2846",
						"userCollateralUsdt(address)": "2890",
						"withdrawCeloCollateral(uint256)": "infinite",
						"withdrawUsdtCollateral(uint256)": "infinite"
					}
				},
				"methodIdentifiers": {
					"depositCeloCollateral()": "d57ac70d",
					"depositUsdtCollateral(uint256)": "2f5723d5",
					"getCollateralBalance(address)": "2703ee85",
					"getCollateralBalanceinUSD(address)": "09b8aafd",
					"maxCollateralAmount()": "04885115",
					"minCollateralAmount()": "5269384e",
					"owner()": "8da5cb5b",
					"pause()": "8456cb59",
					"paused()": "5c975abb",
					"priceOracle()": "2630c12f",
					"releaseFunds(address)": "192e7a7b",
					"renounceOwnership()": "715018a6",
					"totalCollateralCelo()": "60b3b338",
					"totalCollateralUsdt()": "9083baa6",
					"transferOwnership(address)": "f2fde38b",
					"unpause()": "3f4ba83a",
					"usdtToken()": "a98ad46c",
					"userCollateralCelo(address)": "9e30bce7",
					"userCollateralUsdt(address)": "c3b2a4a4",
					"withdrawCeloCollateral(uint256)": "8e817efe",
					"withdrawUsdtCollateral(uint256)": "52ce9714"
				}
			},
			"storageLayout": {
				"storage": [
					{
						"astId": 429,
						"contract": "contracts/CollateralManager.sol:CollateralManager",
						"label": "_status",
						"offset": 0,
						"slot": "0",
						"type": "t_uint256"
					},
					{
						"astId": 310,
						"contract": "contracts/CollateralManager.sol:CollateralManager",
						"label": "_paused",
						"offset": 0,
						"slot": "1",
						"type": "t_bool"
					},
					{
						"astId": 54,
						"contract": "contracts/CollateralManager.sol:CollateralManager",
						"label": "_owner",
						"offset": 1,
						"slot": "1",
						"type": "t_address"
					},
					{
						"astId": 503,
						"contract": "contracts/CollateralManager.sol:CollateralManager",
						"label": "usdtToken",
						"offset": 0,
						"slot": "2",
						"type": "t_contract(IERC20)271"
					},
					{
						"astId": 506,
						"contract": "contracts/CollateralManager.sol:CollateralManager",
						"label": "priceOracle",
						"offset": 0,
						"slot": "3",
						"type": "t_contract(MellowFiPriceOracle)1405"
					},
					{
						"astId": 508,
						"contract": "contracts/CollateralManager.sol:CollateralManager",
						"label": "totalCollateralCelo",
						"offset": 0,
						"slot": "4",
						"type": "t_uint256"
					},
					{
						"astId": 510,
						"contract": "contracts/CollateralManager.sol:CollateralManager",
						"label": "totalCollateralUsdt",
						"offset": 0,
						"slot": "5",
						"type": "t_uint256"
					},
					{
						"astId": 513,
						"contract": "contracts/CollateralManager.sol:CollateralManager",
						"label": "minCollateralAmount",
						"offset": 0,
						"slot": "6",
						"type": "t_uint256"
					},
					{
						"astId": 516,
						"contract": "contracts/CollateralManager.sol:CollateralManager",
						"label": "maxCollateralAmount",
						"offset": 0,
						"slot": "7",
						"type": "t_uint256"
					},
					{
						"astId": 520,
						"contract": "contracts/CollateralManager.sol:CollateralManager",
						"label": "userCollateralCelo",
						"offset": 0,
						"slot": "8",
						"type": "t_mapping(t_address,t_uint256)"
					},
					{
						"astId": 524,
						"contract": "contracts/CollateralManager.sol:CollateralManager",
						"label": "userCollateralUsdt",
						"offset": 0,
						"slot": "9",
						"type": "t_mapping(t_address,t_uint256)"
					}
				],
				"types": {
					"t_address": {
						"encoding": "inplace",
						"label": "address",
						"numberOfBytes": "20"
					},
					"t_bool": {
						"encoding": "inplace",
						"label": "bool",
						"numberOfBytes": "1"
					},
					"t_contract(IERC20)271": {
						"encoding": "inplace",
						"label": "contract IERC20",
						"numberOfBytes": "20"
					},
					"t_contract(MellowFiPriceOracle)1405": {
						"encoding": "inplace",
						"label": "contract MellowFiPriceOracle",
						"numberOfBytes": "20"
					},
					"t_mapping(t_address,t_uint256)": {
						"encoding": "mapping",
						"key": "t_address",
						"label": "mapping(address => uint256)",
						"numberOfBytes": "32",
						"value": "t_uint256"
					},
					"t_uint256": {
						"encoding": "inplace",
						"label": "uint256",
						"numberOfBytes": "32"
					}
				}
			},
			"userdoc": {
				"kind": "user",
				"methods": {},
				"version": 1
			}
		}
	}
}