{
	"contracts/LoanManager.sol": {
		"LoanManager": {
			"abi": [
				{
					"inputs": [
						{
							"internalType": "contract IERC20",
							"name": "_cUSDToken",
							"type": "address"
						},
						{
							"internalType": "address",
							"name": "_collateralManager",
							"type": "address"
						},
						{
							"internalType": "address",
							"name": "_priceOracle",
							"type": "address"
						}
					],
					"stateMutability": "nonpayable",
					"type": "constructor"
				},
				{
					"inputs": [
						{
							"internalType": "address",
							"name": "owner",
							"type": "address"
						}
					],
					"name": "OwnableInvalidOwner",
					"type": "error"
				},
				{
					"inputs": [
						{
							"internalType": "address",
							"name": "account",
							"type": "address"
						}
					],
					"name": "OwnableUnauthorizedAccount",
					"type": "error"
				},
				{
					"inputs": [],
					"name": "ReentrancyGuardReentrantCall",
					"type": "error"
				},
				{
					"anonymous": false,
					"inputs": [
						{
							"indexed": true,
							"internalType": "address",
							"name": "user",
							"type": "address"
						},
						{
							"indexed": false,
							"internalType": "uint256",
							"name": "collateralLiquidated",
							"type": "uint256"
						}
					],
					"name": "LoanDefaulted",
					"type": "event"
				},
				{
					"anonymous": false,
					"inputs": [
						{
							"indexed": true,
							"internalType": "address",
							"name": "user",
							"type": "address"
						},
						{
							"indexed": false,
							"internalType": "uint256",
							"name": "amount",
							"type": "uint256"
						},
						{
							"indexed": false,
							"internalType": "uint256",
							"name": "collateral",
							"type": "uint256"
						}
					],
					"name": "LoanIssued",
					"type": "event"
				},
				{
					"anonymous": false,
					"inputs": [
						{
							"indexed": true,
							"internalType": "address",
							"name": "user",
							"type": "address"
						},
						{
							"indexed": false,
							"internalType": "uint256",
							"name": "amount",
							"type": "uint256"
						},
						{
							"indexed": false,
							"internalType": "uint256",
							"name": "collateralReturned",
							"type": "uint256"
						}
					],
					"name": "LoanRepaid",
					"type": "event"
				},
				{
					"anonymous": false,
					"inputs": [
						{
							"indexed": true,
							"internalType": "address",
							"name": "previousOwner",
							"type": "address"
						},
						{
							"indexed": true,
							"internalType": "address",
							"name": "newOwner",
							"type": "address"
						}
					],
					"name": "OwnershipTransferred",
					"type": "event"
				},
				{
					"inputs": [
						{
							"internalType": "uint256",
							"name": "_amount",
							"type": "uint256"
						}
					],
					"name": "addFundToPool",
					"outputs": [],
					"stateMutability": "nonpayable",
					"type": "function"
				},
				{
					"inputs": [],
					"name": "cUSDToken",
					"outputs": [
						{
							"internalType": "contract IERC20",
							"name": "",
							"type": "address"
						}
					],
					"stateMutability": "view",
					"type": "function"
				},
				{
					"inputs": [
						{
							"internalType": "address",
							"name": "_user",
							"type": "address"
						}
					],
					"name": "checkDefault",
					"outputs": [],
					"stateMutability": "nonpayable",
					"type": "function"
				},
				{
					"inputs": [],
					"name": "collateralManager",
					"outputs": [
						{
							"internalType": "contract CollateralManager",
							"name": "",
							"type": "address"
						}
					],
					"stateMutability": "view",
					"type": "function"
				},
				{
					"inputs": [],
					"name": "collateralToLoanRatio",
					"outputs": [
						{
							"internalType": "uint256",
							"name": "",
							"type": "uint256"
						}
					],
					"stateMutability": "view",
					"type": "function"
				},
				{
					"inputs": [],
					"name": "defaultDuration",
					"outputs": [
						{
							"internalType": "uint256",
							"name": "",
							"type": "uint256"
						}
					],
					"stateMutability": "view",
					"type": "function"
				},
				{
					"inputs": [],
					"name": "fundPool",
					"outputs": [
						{
							"internalType": "uint256",
							"name": "",
							"type": "uint256"
						}
					],
					"stateMutability": "view",
					"type": "function"
				},
				{
					"inputs": [
						{
							"internalType": "address",
							"name": "_user",
							"type": "address"
						}
					],
					"name": "getLoanAmount",
					"outputs": [
						{
							"internalType": "uint256",
							"name": "",
							"type": "uint256"
						}
					],
					"stateMutability": "view",
					"type": "function"
				},
				{
					"inputs": [],
					"name": "getMaxLoanAmount",
					"outputs": [
						{
							"internalType": "uint256",
							"name": "",
							"type": "uint256"
						}
					],
					"stateMutability": "view",
					"type": "function"
				},
				{
					"inputs": [],
					"name": "loanDuration",
					"outputs": [
						{
							"internalType": "uint256",
							"name": "",
							"type": "uint256"
						}
					],
					"stateMutability": "view",
					"type": "function"
				},
				{
					"inputs": [],
					"name": "owner",
					"outputs": [
						{
							"internalType": "address",
							"name": "",
							"type": "address"
						}
					],
					"stateMutability": "view",
					"type": "function"
				},
				{
					"inputs": [],
					"name": "priceOracle",
					"outputs": [
						{
							"internalType": "contract MellowFiPriceOracle",
							"name": "",
							"type": "address"
						}
					],
					"stateMutability": "view",
					"type": "function"
				},
				{
					"inputs": [],
					"name": "renounceOwnership",
					"outputs": [],
					"stateMutability": "nonpayable",
					"type": "function"
				},
				{
					"inputs": [
						{
							"internalType": "uint256",
							"name": "_repayAmount",
							"type": "uint256"
						}
					],
					"name": "repayLoan",
					"outputs": [],
					"stateMutability": "nonpayable",
					"type": "function"
				},
				{
					"inputs": [
						{
							"internalType": "uint256",
							"name": "_loanAmount",
							"type": "uint256"
						}
					],
					"name": "requestLoan",
					"outputs": [],
					"stateMutability": "nonpayable",
					"type": "function"
				},
				{
					"inputs": [
						{
							"internalType": "address",
							"name": "newOwner",
							"type": "address"
						}
					],
					"name": "transferOwnership",
					"outputs": [],
					"stateMutability": "nonpayable",
					"type": "function"
				},
				{
					"inputs": [
						{
							"internalType": "uint256",
							"name": "_newRatio",
							"type": "uint256"
						}
					],
					"name": "updateCollateralToLoanRatio",
					"outputs": [],
					"stateMutability": "nonpayable",
					"type": "function"
				},
				{
					"inputs": [
						{
							"internalType": "uint256",
							"name": "_newDuration",
							"type": "uint256"
						}
					],
					"name": "updateDefaultDuration",
					"outputs": [],
					"stateMutability": "nonpayable",
					"type": "function"
				},
				{
					"inputs": [
						{
							"internalType": "uint256",
							"name": "_newDuration",
							"type": "uint256"
						}
					],
					"name": "updateLoanDuration",
					"outputs": [],
					"stateMutability": "nonpayable",
					"type": "function"
				},
				{
					"inputs": [
						{
							"internalType": "address",
							"name": "",
							"type": "address"
						}
					],
					"name": "userLoans",
					"outputs": [
						{
							"internalType": "uint256",
							"name": "amount",
							"type": "uint256"
						},
						{
							"internalType": "uint256",
							"name": "interestRate",
							"type": "uint256"
						},
						{
							"internalType": "uint256",
							"name": "startTime",
							"type": "uint256"
						},
						{
							"internalType": "uint256",
							"name": "collateral",
							"type": "uint256"
						},
						{
							"internalType": "bool",
							"name": "isRepaid",
							"type": "bool"
						},
						{
							"internalType": "bool",
							"name": "isDefaulted",
							"type": "bool"
						}
					],
					"stateMutability": "view",
					"type": "function"
				}
			],
			"devdoc": {
				"errors": {
					"OwnableInvalidOwner(address)": [
						{
							"details": "The owner is not a valid owner account. (eg. `address(0)`)"
						}
					],
					"OwnableUnauthorizedAccount(address)": [
						{
							"details": "The caller account is not authorized to perform an operation."
						}
					],
					"ReentrancyGuardReentrantCall()": [
						{
							"details": "Unauthorized reentrant call."
						}
					]
				},
				"kind": "dev",
				"methods": {
					"owner()": {
						"details": "Returns the address of the current owner."
					},
					"renounceOwnership()": {
						"details": "Leaves the contract without owner. It will not be possible to call `onlyOwner` functions. Can only be called by the current owner. NOTE: Renouncing ownership will leave the contract without an owner, thereby disabling any functionality that is only available to the owner."
					},
					"transferOwnership(address)": {
						"details": "Transfers ownership of the contract to a new account (`newOwner`). Can only be called by the current owner."
					}
				},
				"version": 1
			},
			"evm": {
				"assembly": "    /* \"contracts/LoanManager.sol\":357:6220  contract LoanManager is ReentrancyGuard, Ownable {... */\n  mstore(0x40, 0x80)\n    /* \"contracts/LoanManager.sol\":755:758  150 */\n  0x96\n    /* \"contracts/LoanManager.sol\":716:758  uint256 public collateralToLoanRatio = 150 */\n  0x06\n  sstore\n    /* \"contracts/LoanManager.sol\":857:864  30 days */\n  0x278d00\n    /* \"contracts/LoanManager.sol\":827:864  uint256 public loanDuration = 30 days */\n  0x07\n  sstore\n    /* \"contracts/LoanManager.sol\":903:910  10 days */\n  0x0d2f00\n    /* \"contracts/LoanManager.sol\":870:910  uint256 public defaultDuration = 10 days */\n  0x08\n  sstore\n    /* \"contracts/LoanManager.sol\":1447:1712  constructor(IERC20 _cUSDToken, address _collateralManager, address _priceOracle) Ownable(msg.sender) {... */\n  callvalue\n  dup1\n  iszero\n  tag_1\n  jumpi\n  0x00\n  dup1\n  revert\ntag_1:\n  pop\n  mload(0x40)\n  sub(codesize, bytecodeSize)\n  dup1\n  bytecodeSize\n  dup4\n  codecopy\n  dup2\n  dup2\n  add\n  0x40\n  mstore\n  dup2\n  add\n  swap1\n  tag_2\n  swap2\n  swap1\n  tag_3\n  jump\t// in\ntag_2:\n    /* \"contracts/LoanManager.sol\":1536:1546  msg.sender */\n  caller\n    /* \"@openzeppelin/contracts/utils/ReentrancyGuard.sol\":1713:1714  1 */\n  0x01\n    /* \"@openzeppelin/contracts/utils/ReentrancyGuard.sol\":1917:1924  _status */\n  0x00\n    /* \"@openzeppelin/contracts/utils/ReentrancyGuard.sol\":1917:1938  _status = NOT_ENTERED */\n  dup2\n  swap1\n  sstore\n  pop\n    /* \"@openzeppelin/contracts/access/Ownable.sol\":1297:1298  0 */\n  0x00\n    /* \"@openzeppelin/contracts/access/Ownable.sol\":1273:1299  initialOwner == address(0) */\n  0xffffffffffffffffffffffffffffffffffffffff\n  and\n    /* \"@openzeppelin/contracts/access/Ownable.sol\":1273:1285  initialOwner */\n  dup2\n    /* \"@openzeppelin/contracts/access/Ownable.sol\":1273:1299  initialOwner == address(0) */\n  0xffffffffffffffffffffffffffffffffffffffff\n  and\n  sub\n    /* \"@openzeppelin/contracts/access/Ownable.sol\":1269:1364  if (initialOwner == address(0)) {... */\n  tag_9\n  jumpi\n    /* \"@openzeppelin/contracts/access/Ownable.sol\":1350:1351  0 */\n  0x00\n    /* \"@openzeppelin/contracts/access/Ownable.sol\":1322:1353  OwnableInvalidOwner(address(0)) */\n  mload(0x40)\n  0x1e4fbdf700000000000000000000000000000000000000000000000000000000\n  dup2\n  mstore\n  0x04\n  add\n  tag_10\n  swap2\n  swap1\n  tag_11\n  jump\t// in\ntag_10:\n  mload(0x40)\n  dup1\n  swap2\n  sub\n  swap1\n  revert\n    /* \"@openzeppelin/contracts/access/Ownable.sol\":1269:1364  if (initialOwner == address(0)) {... */\ntag_9:\n    /* \"@openzeppelin/contracts/access/Ownable.sol\":1373:1405  _transferOwnership(initialOwner) */\n  tag_12\n    /* \"@openzeppelin/contracts/access/Ownable.sol\":1392:1404  initialOwner */\n  dup2\n    /* \"@openzeppelin/contracts/access/Ownable.sol\":1373:1391  _transferOwnership */\n  shl(0x20, tag_13)\n    /* \"@openzeppelin/contracts/access/Ownable.sol\":1373:1405  _transferOwnership(initialOwner) */\n  0x20\n  shr\n  jump\t// in\ntag_12:\n    /* \"@openzeppelin/contracts/access/Ownable.sol\":1225:1412  constructor(address initialOwner) {... */\n  pop\n    /* \"contracts/LoanManager.sol\":1570:1580  _cUSDToken */\n  dup3\n    /* \"contracts/LoanManager.sol\":1558:1567  cUSDToken */\n  0x02\n  0x00\n    /* \"contracts/LoanManager.sol\":1558:1580  cUSDToken = _cUSDToken */\n  0x0100\n  exp\n  dup2\n  sload\n  dup2\n  0xffffffffffffffffffffffffffffffffffffffff\n  mul\n  not\n  and\n  swap1\n  dup4\n  0xffffffffffffffffffffffffffffffffffffffff\n  and\n  mul\n  or\n  swap1\n  sstore\n  pop\n    /* \"contracts/LoanManager.sol\":1628:1646  _collateralManager */\n  dup2\n    /* \"contracts/LoanManager.sol\":1590:1607  collateralManager */\n  0x03\n  0x00\n    /* \"contracts/LoanManager.sol\":1590:1647  collateralManager = CollateralManager(_collateralManager) */\n  0x0100\n  exp\n  dup2\n  sload\n  dup2\n  0xffffffffffffffffffffffffffffffffffffffff\n  mul\n  not\n  and\n  swap1\n  dup4\n  0xffffffffffffffffffffffffffffffffffffffff\n  and\n  mul\n  or\n  swap1\n  sstore\n  pop\n    /* \"contracts/LoanManager.sol\":1691:1703  _priceOracle */\n  dup1\n    /* \"contracts/LoanManager.sol\":1657:1668  priceOracle */\n  0x04\n  0x00\n    /* \"contracts/LoanManager.sol\":1657:1704  priceOracle = MellowFiPriceOracle(_priceOracle) */\n  0x0100\n  exp\n  dup2\n  sload\n  dup2\n  0xffffffffffffffffffffffffffffffffffffffff\n  mul\n  not\n  and\n  swap1\n  dup4\n  0xffffffffffffffffffffffffffffffffffffffff\n  and\n  mul\n  or\n  swap1\n  sstore\n  pop\n    /* \"contracts/LoanManager.sol\":1447:1712  constructor(IERC20 _cUSDToken, address _collateralManager, address _priceOracle) Ownable(msg.sender) {... */\n  pop\n  pop\n  pop\n    /* \"contracts/LoanManager.sol\":357:6220  contract LoanManager is ReentrancyGuard, Ownable {... */\n  jump(tag_15)\n    /* \"@openzeppelin/contracts/access/Ownable.sol\":2912:3099  function _transferOwnership(address newOwner) internal virtual {... */\ntag_13:\n    /* \"@openzeppelin/contracts/access/Ownable.sol\":2985:3001  address oldOwner */\n  0x00\n    /* \"@openzeppelin/contracts/access/Ownable.sol\":3004:3010  _owner */\n  0x01\n  0x00\n  swap1\n  sload\n  swap1\n  0x0100\n  exp\n  swap1\n  div\n  0xffffffffffffffffffffffffffffffffffffffff\n  and\n    /* \"@openzeppelin/contracts/access/Ownable.sol\":2985:3010  address oldOwner = _owner */\n  swap1\n  pop\n    /* \"@openzeppelin/contracts/access/Ownable.sol\":3029:3037  newOwner */\n  dup2\n    /* \"@openzeppelin/contracts/access/Ownable.sol\":3020:3026  _owner */\n  0x01\n  0x00\n    /* \"@openzeppelin/contracts/access/Ownable.sol\":3020:3037  _owner = newOwner */\n  0x0100\n  exp\n  dup2\n  sload\n  dup2\n  0xffffffffffffffffffffffffffffffffffffffff\n  mul\n  not\n  and\n  swap1\n  dup4\n  0xffffffffffffffffffffffffffffffffffffffff\n  and\n  mul\n  or\n  swap1\n  sstore\n  pop\n    /* \"@openzeppelin/contracts/access/Ownable.sol\":3083:3091  newOwner */\n  dup2\n    /* \"@openzeppelin/contracts/access/Ownable.sol\":3052:3092  OwnershipTransferred(oldOwner, newOwner) */\n  0xffffffffffffffffffffffffffffffffffffffff\n  and\n    /* \"@openzeppelin/contracts/access/Ownable.sol\":3073:3081  oldOwner */\n  dup2\n    /* \"@openzeppelin/contracts/access/Ownable.sol\":3052:3092  OwnershipTransferred(oldOwner, newOwner) */\n  0xffffffffffffffffffffffffffffffffffffffff\n  and\n  0x8be0079c531659141344cd1fd0a4f28419497f9722a3daafe3b4186f6b6457e0\n  mload(0x40)\n  mload(0x40)\n  dup1\n  swap2\n  sub\n  swap1\n  log3\n    /* \"@openzeppelin/contracts/access/Ownable.sol\":2975:3099  {... */\n  pop\n    /* \"@openzeppelin/contracts/access/Ownable.sol\":2912:3099  function _transferOwnership(address newOwner) internal virtual {... */\n  pop\n  jump\t// out\n    /* \"#utility.yul\":88:205   */\ntag_18:\n    /* \"#utility.yul\":197:198   */\n  0x00\n    /* \"#utility.yul\":194:195   */\n  dup1\n    /* \"#utility.yul\":187:199   */\n  revert\n    /* \"#utility.yul\":334:460   */\ntag_20:\n    /* \"#utility.yul\":371:378   */\n  0x00\n    /* \"#utility.yul\":411:453   */\n  0xffffffffffffffffffffffffffffffffffffffff\n    /* \"#utility.yul\":404:409   */\n  dup3\n    /* \"#utility.yul\":400:454   */\n  and\n    /* \"#utility.yul\":389:454   */\n  swap1\n  pop\n    /* \"#utility.yul\":334:460   */\n  swap2\n  swap1\n  pop\n  jump\t// out\n    /* \"#utility.yul\":466:562   */\ntag_21:\n    /* \"#utility.yul\":503:510   */\n  0x00\n    /* \"#utility.yul\":532:556   */\n  tag_34\n    /* \"#utility.yul\":550:555   */\n  dup3\n    /* \"#utility.yul\":532:556   */\n  tag_20\n  jump\t// in\ntag_34:\n    /* \"#utility.yul\":521:556   */\n  swap1\n  pop\n    /* \"#utility.yul\":466:562   */\n  swap2\n  swap1\n  pop\n  jump\t// out\n    /* \"#utility.yul\":568:678   */\ntag_22:\n    /* \"#utility.yul\":619:626   */\n  0x00\n    /* \"#utility.yul\":648:672   */\n  tag_36\n    /* \"#utility.yul\":666:671   */\n  dup3\n    /* \"#utility.yul\":648:672   */\n  tag_21\n  jump\t// in\ntag_36:\n    /* \"#utility.yul\":637:672   */\n  swap1\n  pop\n    /* \"#utility.yul\":568:678   */\n  swap2\n  swap1\n  pop\n  jump\t// out\n    /* \"#utility.yul\":684:834   */\ntag_23:\n    /* \"#utility.yul\":771:809   */\n  tag_38\n    /* \"#utility.yul\":803:808   */\n  dup2\n    /* \"#utility.yul\":771:809   */\n  tag_22\n  jump\t// in\ntag_38:\n    /* \"#utility.yul\":764:769   */\n  dup2\n    /* \"#utility.yul\":761:810   */\n  eq\n    /* \"#utility.yul\":751:828   */\n  tag_39\n  jumpi\n    /* \"#utility.yul\":824:825   */\n  0x00\n    /* \"#utility.yul\":821:822   */\n  dup1\n    /* \"#utility.yul\":814:826   */\n  revert\n    /* \"#utility.yul\":751:828   */\ntag_39:\n    /* \"#utility.yul\":684:834   */\n  pop\n  jump\t// out\n    /* \"#utility.yul\":840:1011   */\ntag_24:\n    /* \"#utility.yul\":911:916   */\n  0x00\n    /* \"#utility.yul\":942:948   */\n  dup2\n    /* \"#utility.yul\":936:949   */\n  mload\n    /* \"#utility.yul\":927:949   */\n  swap1\n  pop\n    /* \"#utility.yul\":958:1005   */\n  tag_41\n    /* \"#utility.yul\":999:1004   */\n  dup2\n    /* \"#utility.yul\":958:1005   */\n  tag_23\n  jump\t// in\ntag_41:\n    /* \"#utility.yul\":840:1011   */\n  swap3\n  swap2\n  pop\n  pop\n  jump\t// out\n    /* \"#utility.yul\":1017:1139   */\ntag_25:\n    /* \"#utility.yul\":1090:1114   */\n  tag_43\n    /* \"#utility.yul\":1108:1113   */\n  dup2\n    /* \"#utility.yul\":1090:1114   */\n  tag_21\n  jump\t// in\ntag_43:\n    /* \"#utility.yul\":1083:1088   */\n  dup2\n    /* \"#utility.yul\":1080:1115   */\n  eq\n    /* \"#utility.yul\":1070:1133   */\n  tag_44\n  jumpi\n    /* \"#utility.yul\":1129:1130   */\n  0x00\n    /* \"#utility.yul\":1126:1127   */\n  dup1\n    /* \"#utility.yul\":1119:1131   */\n  revert\n    /* \"#utility.yul\":1070:1133   */\ntag_44:\n    /* \"#utility.yul\":1017:1139   */\n  pop\n  jump\t// out\n    /* \"#utility.yul\":1145:1288   */\ntag_26:\n    /* \"#utility.yul\":1202:1207   */\n  0x00\n    /* \"#utility.yul\":1233:1239   */\n  dup2\n    /* \"#utility.yul\":1227:1240   */\n  mload\n    /* \"#utility.yul\":1218:1240   */\n  swap1\n  pop\n    /* \"#utility.yul\":1249:1282   */\n  tag_46\n    /* \"#utility.yul\":1276:1281   */\n  dup2\n    /* \"#utility.yul\":1249:1282   */\n  tag_25\n  jump\t// in\ntag_46:\n    /* \"#utility.yul\":1145:1288   */\n  swap3\n  swap2\n  pop\n  pop\n  jump\t// out\n    /* \"#utility.yul\":1294:1985   */\ntag_3:\n    /* \"#utility.yul\":1396:1402   */\n  0x00\n    /* \"#utility.yul\":1404:1410   */\n  dup1\n    /* \"#utility.yul\":1412:1418   */\n  0x00\n    /* \"#utility.yul\":1461:1463   */\n  0x60\n    /* \"#utility.yul\":1449:1458   */\n  dup5\n    /* \"#utility.yul\":1440:1447   */\n  dup7\n    /* \"#utility.yul\":1436:1459   */\n  sub\n    /* \"#utility.yul\":1432:1464   */\n  slt\n    /* \"#utility.yul\":1429:1548   */\n  iszero\n  tag_48\n  jumpi\n    /* \"#utility.yul\":1467:1546   */\n  tag_49\n  tag_18\n  jump\t// in\ntag_49:\n    /* \"#utility.yul\":1429:1548   */\ntag_48:\n    /* \"#utility.yul\":1587:1588   */\n  0x00\n    /* \"#utility.yul\":1612:1690   */\n  tag_50\n    /* \"#utility.yul\":1682:1689   */\n  dup7\n    /* \"#utility.yul\":1673:1679   */\n  dup3\n    /* \"#utility.yul\":1662:1671   */\n  dup8\n    /* \"#utility.yul\":1658:1680   */\n  add\n    /* \"#utility.yul\":1612:1690   */\n  tag_24\n  jump\t// in\ntag_50:\n    /* \"#utility.yul\":1602:1690   */\n  swap4\n  pop\n    /* \"#utility.yul\":1558:1700   */\n  pop\n    /* \"#utility.yul\":1739:1741   */\n  0x20\n    /* \"#utility.yul\":1765:1829   */\n  tag_51\n    /* \"#utility.yul\":1821:1828   */\n  dup7\n    /* \"#utility.yul\":1812:1818   */\n  dup3\n    /* \"#utility.yul\":1801:1810   */\n  dup8\n    /* \"#utility.yul\":1797:1819   */\n  add\n    /* \"#utility.yul\":1765:1829   */\n  tag_26\n  jump\t// in\ntag_51:\n    /* \"#utility.yul\":1755:1829   */\n  swap3\n  pop\n    /* \"#utility.yul\":1710:1839   */\n  pop\n    /* \"#utility.yul\":1878:1880   */\n  0x40\n    /* \"#utility.yul\":1904:1968   */\n  tag_52\n    /* \"#utility.yul\":1960:1967   */\n  dup7\n    /* \"#utility.yul\":1951:1957   */\n  dup3\n    /* \"#utility.yul\":1940:1949   */\n  dup8\n    /* \"#utility.yul\":1936:1958   */\n  add\n    /* \"#utility.yul\":1904:1968   */\n  tag_26\n  jump\t// in\ntag_52:\n    /* \"#utility.yul\":1894:1968   */\n  swap2\n  pop\n    /* \"#utility.yul\":1849:1978   */\n  pop\n    /* \"#utility.yul\":1294:1985   */\n  swap3\n  pop\n  swap3\n  pop\n  swap3\n  jump\t// out\n    /* \"#utility.yul\":1991:2109   */\ntag_27:\n    /* \"#utility.yul\":2078:2102   */\n  tag_54\n    /* \"#utility.yul\":2096:2101   */\n  dup2\n    /* \"#utility.yul\":2078:2102   */\n  tag_21\n  jump\t// in\ntag_54:\n    /* \"#utility.yul\":2073:2076   */\n  dup3\n    /* \"#utility.yul\":2066:2103   */\n  mstore\n    /* \"#utility.yul\":1991:2109   */\n  pop\n  pop\n  jump\t// out\n    /* \"#utility.yul\":2115:2337   */\ntag_11:\n    /* \"#utility.yul\":2208:2212   */\n  0x00\n    /* \"#utility.yul\":2246:2248   */\n  0x20\n    /* \"#utility.yul\":2235:2244   */\n  dup3\n    /* \"#utility.yul\":2231:2249   */\n  add\n    /* \"#utility.yul\":2223:2249   */\n  swap1\n  pop\n    /* \"#utility.yul\":2259:2330   */\n  tag_56\n    /* \"#utility.yul\":2327:2328   */\n  0x00\n    /* \"#utility.yul\":2316:2325   */\n  dup4\n    /* \"#utility.yul\":2312:2329   */\n  add\n    /* \"#utility.yul\":2303:2309   */\n  dup5\n    /* \"#utility.yul\":2259:2330   */\n  tag_27\n  jump\t// in\ntag_56:\n    /* \"#utility.yul\":2115:2337   */\n  swap3\n  swap2\n  pop\n  pop\n  jump\t// out\n    /* \"contracts/LoanManager.sol\":357:6220  contract LoanManager is ReentrancyGuard, Ownable {... */\ntag_15:\n  dataSize(sub_0)\n  dup1\n  dataOffset(sub_0)\n  0x00\n  codecopy\n  0x00\n  return\nstop\n\nsub_0: assembly {\n        /* \"contracts/LoanManager.sol\":357:6220  contract LoanManager is ReentrancyGuard, Ownable {... */\n      mstore(0x40, 0x80)\n      callvalue\n      dup1\n      iszero\n      tag_1\n      jumpi\n      0x00\n      dup1\n      revert\n    tag_1:\n      pop\n      jumpi(tag_2, lt(calldatasize, 0x04))\n      shr(0xe0, calldataload(0x00))\n      dup1\n      0x8d5d3429\n      gt\n      tag_23\n      jumpi\n      dup1\n      0xc000bc60\n      gt\n      tag_24\n      jumpi\n      dup1\n      0xc000bc60\n      eq\n      tag_18\n      jumpi\n      dup1\n      0xe9e190a3\n      eq\n      tag_19\n      jumpi\n      dup1\n      0xebbb7de9\n      eq\n      tag_20\n      jumpi\n      dup1\n      0xf2fde38b\n      eq\n      tag_21\n      jumpi\n      dup1\n      0xf5521bf1\n      eq\n      tag_22\n      jumpi\n      jump(tag_2)\n    tag_24:\n      dup1\n      0x8d5d3429\n      eq\n      tag_13\n      jumpi\n      dup1\n      0x8da5cb5b\n      eq\n      tag_14\n      jumpi\n      dup1\n      0x97ed71eb\n      eq\n      tag_15\n      jumpi\n      dup1\n      0xab7b1c89\n      eq\n      tag_16\n      jumpi\n      dup1\n      0xba43a922\n      eq\n      tag_17\n      jumpi\n      jump(tag_2)\n    tag_23:\n      dup1\n      0x656f9ba4\n      gt\n      tag_25\n      jumpi\n      dup1\n      0x656f9ba4\n      eq\n      tag_8\n      jumpi\n      dup1\n      0x688aef48\n      eq\n      tag_9\n      jumpi\n      dup1\n      0x70f37d27\n      eq\n      tag_10\n      jumpi\n      dup1\n      0x715018a6\n      eq\n      tag_11\n      jumpi\n      dup1\n      0x89a99ec8\n      eq\n      tag_12\n      jumpi\n      jump(tag_2)\n    tag_25:\n      dup1\n      0x0ea86ad8\n      eq\n      tag_3\n      jumpi\n      dup1\n      0x23be345c\n      eq\n      tag_4\n      jumpi\n      dup1\n      0x2630c12f\n      eq\n      tag_5\n      jumpi\n      dup1\n      0x2af7e2ea\n      eq\n      tag_6\n      jumpi\n      dup1\n      0x650dfa18\n      eq\n      tag_7\n      jumpi\n    tag_2:\n      0x00\n      dup1\n      revert\n        /* \"contracts/LoanManager.sol\":414:437  IERC20 public cUSDToken */\n    tag_3:\n      tag_26\n      tag_27\n      jump\t// in\n    tag_26:\n      mload(0x40)\n      tag_28\n      swap2\n      swap1\n      tag_29\n      jump\t// in\n    tag_28:\n      mload(0x40)\n      dup1\n      swap2\n      sub\n      swap1\n      return\n        /* \"contracts/LoanManager.sol\":477:519  CollateralManager public collateralManager */\n    tag_4:\n      tag_30\n      tag_31\n      jump\t// in\n    tag_30:\n      mload(0x40)\n      tag_32\n      swap2\n      swap1\n      tag_33\n      jump\t// in\n    tag_32:\n      mload(0x40)\n      dup1\n      swap2\n      sub\n      swap1\n      return\n        /* \"contracts/LoanManager.sol\":573:611  MellowFiPriceOracle public priceOracle */\n    tag_5:\n      tag_34\n      tag_35\n      jump\t// in\n    tag_34:\n      mload(0x40)\n      tag_36\n      swap2\n      swap1\n      tag_37\n      jump\t// in\n    tag_36:\n      mload(0x40)\n      dup1\n      swap2\n      sub\n      swap1\n      return\n        /* \"contracts/LoanManager.sol\":870:910  uint256 public defaultDuration = 10 days */\n    tag_6:\n      tag_38\n      tag_39\n      jump\t// in\n    tag_38:\n      mload(0x40)\n      tag_40\n      swap2\n      swap1\n      tag_41\n      jump\t// in\n    tag_40:\n      mload(0x40)\n      dup1\n      swap2\n      sub\n      swap1\n      return\n        /* \"contracts/LoanManager.sol\":5420:5610  function updateCollateralToLoanRatio(uint256 _newRatio) external onlyOwner {... */\n    tag_7:\n      tag_42\n      0x04\n      dup1\n      calldatasize\n      sub\n      dup2\n      add\n      swap1\n      tag_43\n      swap2\n      swap1\n      tag_44\n      jump\t// in\n    tag_43:\n      tag_45\n      jump\t// in\n    tag_42:\n      stop\n        /* \"contracts/LoanManager.sol\":3399:3699  function getMaxLoanAmount() external view returns (uint256) {... */\n    tag_8:\n      tag_46\n      tag_47\n      jump\t// in\n    tag_46:\n      mload(0x40)\n      tag_48\n      swap2\n      swap1\n      tag_41\n      jump\t// in\n    tag_48:\n      mload(0x40)\n      dup1\n      swap2\n      sub\n      swap1\n      return\n        /* \"contracts/LoanManager.sol\":716:758  uint256 public collateralToLoanRatio = 150 */\n    tag_9:\n      tag_49\n      tag_50\n      jump\t// in\n    tag_49:\n      mload(0x40)\n      tag_51\n      swap2\n      swap1\n      tag_41\n      jump\t// in\n    tag_51:\n      mload(0x40)\n      dup1\n      swap2\n      sub\n      swap1\n      return\n        /* \"contracts/LoanManager.sol\":651:674  uint256 public fundPool */\n    tag_10:\n      tag_52\n      tag_53\n      jump\t// in\n    tag_52:\n      mload(0x40)\n      tag_54\n      swap2\n      swap1\n      tag_41\n      jump\t// in\n    tag_54:\n      mload(0x40)\n      dup1\n      swap2\n      sub\n      swap1\n      return\n        /* \"@openzeppelin/contracts/access/Ownable.sol\":2293:2394  function renounceOwnership() public virtual onlyOwner {... */\n    tag_11:\n      tag_55\n      tag_56\n      jump\t// in\n    tag_55:\n      stop\n        /* \"contracts/LoanManager.sol\":1750:1969  function getLoanAmount(address _user) external view returns (uint256) {... */\n    tag_12:\n      tag_57\n      0x04\n      dup1\n      calldatasize\n      sub\n      dup2\n      add\n      swap1\n      tag_58\n      swap2\n      swap1\n      tag_59\n      jump\t// in\n    tag_58:\n      tag_60\n      jump\t// in\n    tag_57:\n      mload(0x40)\n      tag_61\n      swap2\n      swap1\n      tag_41\n      jump\t// in\n    tag_61:\n      mload(0x40)\n      dup1\n      swap2\n      sub\n      swap1\n      return\n        /* \"contracts/LoanManager.sol\":2028:3341  function requestLoan(uint256 _loanAmount) external nonReentrant {... */\n    tag_13:\n      tag_62\n      0x04\n      dup1\n      calldatasize\n      sub\n      dup2\n      add\n      swap1\n      tag_63\n      swap2\n      swap1\n      tag_44\n      jump\t// in\n    tag_63:\n      tag_64\n      jump\t// in\n    tag_62:\n      stop\n        /* \"@openzeppelin/contracts/access/Ownable.sol\":1638:1723  function owner() public view virtual returns (address) {... */\n    tag_14:\n      tag_65\n      tag_66\n      jump\t// in\n    tag_65:\n      mload(0x40)\n      tag_67\n      swap2\n      swap1\n      tag_68\n      jump\t// in\n    tag_67:\n      mload(0x40)\n      dup1\n      swap2\n      sub\n      swap1\n      return\n        /* \"contracts/LoanManager.sol\":5994:6212  function addFundToPool(uint256 _amount) external onlyOwner onlyOwner{... */\n    tag_15:\n      tag_69\n      0x04\n      dup1\n      calldatasize\n      sub\n      dup2\n      add\n      swap1\n      tag_70\n      swap2\n      swap1\n      tag_44\n      jump\t// in\n    tag_70:\n      tag_71\n      jump\t// in\n    tag_69:\n      stop\n        /* \"contracts/LoanManager.sol\":3750:4653  function repayLoan(uint256 _repayAmount) external nonReentrant {... */\n    tag_16:\n      tag_72\n      0x04\n      dup1\n      calldatasize\n      sub\n      dup2\n      add\n      swap1\n      tag_73\n      swap2\n      swap1\n      tag_44\n      jump\t// in\n    tag_73:\n      tag_74\n      jump\t// in\n    tag_72:\n      stop\n        /* \"contracts/LoanManager.sol\":5616:5796  function updateLoanDuration(uint256 _newDuration) external onlyOwner{... */\n    tag_17:\n      tag_75\n      0x04\n      dup1\n      calldatasize\n      sub\n      dup2\n      add\n      swap1\n      tag_76\n      swap2\n      swap1\n      tag_44\n      jump\t// in\n    tag_76:\n      tag_77\n      jump\t// in\n    tag_75:\n      stop\n        /* \"contracts/LoanManager.sol\":5802:5988  function updateDefaultDuration(uint256 _newDuration) external onlyOwner{... */\n    tag_18:\n      tag_78\n      0x04\n      dup1\n      calldatasize\n      sub\n      dup2\n      add\n      swap1\n      tag_79\n      swap2\n      swap1\n      tag_44\n      jump\t// in\n    tag_79:\n      tag_80\n      jump\t// in\n    tag_78:\n      stop\n        /* \"contracts/LoanManager.sol\":1153:1194  mapping(address => Loan) public userLoans */\n    tag_19:\n      tag_81\n      0x04\n      dup1\n      calldatasize\n      sub\n      dup2\n      add\n      swap1\n      tag_82\n      swap2\n      swap1\n      tag_59\n      jump\t// in\n    tag_82:\n      tag_83\n      jump\t// in\n    tag_81:\n      mload(0x40)\n      tag_84\n      swap7\n      swap6\n      swap5\n      swap4\n      swap3\n      swap2\n      swap1\n      tag_85\n      jump\t// in\n    tag_84:\n      mload(0x40)\n      dup1\n      swap2\n      sub\n      swap1\n      return\n        /* \"contracts/LoanManager.sol\":4721:5342  function checkDefault(address _user) external nonReentrant {... */\n    tag_20:\n      tag_86\n      0x04\n      dup1\n      calldatasize\n      sub\n      dup2\n      add\n      swap1\n      tag_87\n      swap2\n      swap1\n      tag_59\n      jump\t// in\n    tag_87:\n      tag_88\n      jump\t// in\n    tag_86:\n      stop\n        /* \"@openzeppelin/contracts/access/Ownable.sol\":2543:2758  function transferOwnership(address newOwner) public virtual onlyOwner {... */\n    tag_21:\n      tag_89\n      0x04\n      dup1\n      calldatasize\n      sub\n      dup2\n      add\n      swap1\n      tag_90\n      swap2\n      swap1\n      tag_59\n      jump\t// in\n    tag_90:\n      tag_91\n      jump\t// in\n    tag_89:\n      stop\n        /* \"contracts/LoanManager.sol\":827:864  uint256 public loanDuration = 30 days */\n    tag_22:\n      tag_92\n      tag_93\n      jump\t// in\n    tag_92:\n      mload(0x40)\n      tag_94\n      swap2\n      swap1\n      tag_41\n      jump\t// in\n    tag_94:\n      mload(0x40)\n      dup1\n      swap2\n      sub\n      swap1\n      return\n        /* \"contracts/LoanManager.sol\":414:437  IERC20 public cUSDToken */\n    tag_27:\n      0x02\n      0x00\n      swap1\n      sload\n      swap1\n      0x0100\n      exp\n      swap1\n      div\n      0xffffffffffffffffffffffffffffffffffffffff\n      and\n      dup2\n      jump\t// out\n        /* \"contracts/LoanManager.sol\":477:519  CollateralManager public collateralManager */\n    tag_31:\n      0x03\n      0x00\n      swap1\n      sload\n      swap1\n      0x0100\n      exp\n      swap1\n      div\n      0xffffffffffffffffffffffffffffffffffffffff\n      and\n      dup2\n      jump\t// out\n        /* \"contracts/LoanManager.sol\":573:611  MellowFiPriceOracle public priceOracle */\n    tag_35:\n      0x04\n      0x00\n      swap1\n      sload\n      swap1\n      0x0100\n      exp\n      swap1\n      div\n      0xffffffffffffffffffffffffffffffffffffffff\n      and\n      dup2\n      jump\t// out\n        /* \"contracts/LoanManager.sol\":870:910  uint256 public defaultDuration = 10 days */\n    tag_39:\n      sload(0x08)\n      dup2\n      jump\t// out\n        /* \"contracts/LoanManager.sol\":5420:5610  function updateCollateralToLoanRatio(uint256 _newRatio) external onlyOwner {... */\n    tag_45:\n        /* \"@openzeppelin/contracts/access/Ownable.sol\":1531:1544  _checkOwner() */\n      tag_96\n        /* \"@openzeppelin/contracts/access/Ownable.sol\":1531:1542  _checkOwner */\n      tag_97\n        /* \"@openzeppelin/contracts/access/Ownable.sol\":1531:1544  _checkOwner() */\n      jump\t// in\n    tag_96:\n        /* \"contracts/LoanManager.sol\":5526:5529  100 */\n      0x64\n        /* \"contracts/LoanManager.sol\":5513:5522  _newRatio */\n      dup2\n        /* \"contracts/LoanManager.sol\":5513:5529  _newRatio >= 100 */\n      lt\n      iszero\n        /* \"contracts/LoanManager.sol\":5505:5560  require(_newRatio >= 100, \"LoanManager: Invalid ratio\") */\n      tag_99\n      jumpi\n      mload(0x40)\n      0x08c379a000000000000000000000000000000000000000000000000000000000\n      dup2\n      mstore\n      0x04\n      add\n      tag_100\n      swap1\n      tag_101\n      jump\t// in\n    tag_100:\n      mload(0x40)\n      dup1\n      swap2\n      sub\n      swap1\n      revert\n    tag_99:\n        /* \"contracts/LoanManager.sol\":5594:5603  _newRatio */\n      dup1\n        /* \"contracts/LoanManager.sol\":5570:5591  collateralToLoanRatio */\n      0x06\n        /* \"contracts/LoanManager.sol\":5570:5603  collateralToLoanRatio = _newRatio */\n      dup2\n      swap1\n      sstore\n      pop\n        /* \"contracts/LoanManager.sol\":5420:5610  function updateCollateralToLoanRatio(uint256 _newRatio) external onlyOwner {... */\n      pop\n      jump\t// out\n        /* \"contracts/LoanManager.sol\":3399:3699  function getMaxLoanAmount() external view returns (uint256) {... */\n    tag_47:\n        /* \"contracts/LoanManager.sol\":3450:3457  uint256 */\n      0x00\n        /* \"contracts/LoanManager.sol\":3555:3575  uint256 userTotalCol */\n      dup1\n        /* \"contracts/LoanManager.sol\":3578:3595  collateralManager */\n      0x03\n      0x00\n      swap1\n      sload\n      swap1\n      0x0100\n      exp\n      swap1\n      div\n      0xffffffffffffffffffffffffffffffffffffffff\n      and\n        /* \"contracts/LoanManager.sol\":3578:3621  collateralManager.getCollateralBalanceinUSD */\n      0xffffffffffffffffffffffffffffffffffffffff\n      and\n      0x09b8aafd\n        /* \"contracts/LoanManager.sol\":3622:3632  msg.sender */\n      caller\n        /* \"contracts/LoanManager.sol\":3578:3633  collateralManager.getCollateralBalanceinUSD(msg.sender) */\n      mload(0x40)\n      dup3\n      0xffffffff\n      and\n      0xe0\n      shl\n      dup2\n      mstore\n      0x04\n      add\n      tag_103\n      swap2\n      swap1\n      tag_68\n      jump\t// in\n    tag_103:\n      0x20\n      mload(0x40)\n      dup1\n      dup4\n      sub\n      dup2\n      dup7\n      gas\n      staticcall\n      iszero\n      dup1\n      iszero\n      tag_105\n      jumpi\n      returndatasize\n      0x00\n      dup1\n      returndatacopy\n      revert(0x00, returndatasize)\n    tag_105:\n      pop\n      pop\n      pop\n      pop\n      mload(0x40)\n      returndatasize\n      not(0x1f)\n      0x1f\n      dup3\n      add\n      and\n      dup3\n      add\n      dup1\n      0x40\n      mstore\n      pop\n      dup2\n      add\n      swap1\n      tag_106\n      swap2\n      swap1\n      tag_107\n      jump\t// in\n    tag_106:\n        /* \"contracts/LoanManager.sol\":3555:3633  uint256 userTotalCol = collateralManager.getCollateralBalanceinUSD(msg.sender) */\n      swap1\n      pop\n        /* \"contracts/LoanManager.sol\":3671:3692  collateralToLoanRatio */\n      sload(0x06)\n        /* \"contracts/LoanManager.sol\":3665:3668  100 */\n      0x64\n        /* \"contracts/LoanManager.sol\":3650:3662  userTotalCol */\n      dup3\n        /* \"contracts/LoanManager.sol\":3650:3668  userTotalCol * 100 */\n      tag_108\n      swap2\n      swap1\n      tag_109\n      jump\t// in\n    tag_108:\n        /* \"contracts/LoanManager.sol\":3650:3692  userTotalCol * 100 / collateralToLoanRatio */\n      tag_110\n      swap2\n      swap1\n      tag_111\n      jump\t// in\n    tag_110:\n        /* \"contracts/LoanManager.sol\":3643:3692  return userTotalCol * 100 / collateralToLoanRatio */\n      swap2\n      pop\n      pop\n        /* \"contracts/LoanManager.sol\":3399:3699  function getMaxLoanAmount() external view returns (uint256) {... */\n      swap1\n      jump\t// out\n        /* \"contracts/LoanManager.sol\":716:758  uint256 public collateralToLoanRatio = 150 */\n    tag_50:\n      sload(0x06)\n      dup2\n      jump\t// out\n        /* \"contracts/LoanManager.sol\":651:674  uint256 public fundPool */\n    tag_53:\n      sload(0x05)\n      dup2\n      jump\t// out\n        /* \"@openzeppelin/contracts/access/Ownable.sol\":2293:2394  function renounceOwnership() public virtual onlyOwner {... */\n    tag_56:\n        /* \"@openzeppelin/contracts/access/Ownable.sol\":1531:1544  _checkOwner() */\n      tag_113\n        /* \"@openzeppelin/contracts/access/Ownable.sol\":1531:1542  _checkOwner */\n      tag_97\n        /* \"@openzeppelin/contracts/access/Ownable.sol\":1531:1544  _checkOwner() */\n      jump\t// in\n    tag_113:\n        /* \"@openzeppelin/contracts/access/Ownable.sol\":2357:2387  _transferOwnership(address(0)) */\n      tag_115\n        /* \"@openzeppelin/contracts/access/Ownable.sol\":2384:2385  0 */\n      0x00\n        /* \"@openzeppelin/contracts/access/Ownable.sol\":2357:2375  _transferOwnership */\n      tag_116\n        /* \"@openzeppelin/contracts/access/Ownable.sol\":2357:2387  _transferOwnership(address(0)) */\n      jump\t// in\n    tag_115:\n        /* \"@openzeppelin/contracts/access/Ownable.sol\":2293:2394  function renounceOwnership() public virtual onlyOwner {... */\n      jump\t// out\n        /* \"contracts/LoanManager.sol\":1750:1969  function getLoanAmount(address _user) external view returns (uint256) {... */\n    tag_60:\n        /* \"contracts/LoanManager.sol\":1811:1818  uint256 */\n      0x00\n        /* \"contracts/LoanManager.sol\":1830:1850  uint256 userTotalCol */\n      dup1\n        /* \"contracts/LoanManager.sol\":1853:1870  collateralManager */\n      0x03\n      0x00\n      swap1\n      sload\n      swap1\n      0x0100\n      exp\n      swap1\n      div\n      0xffffffffffffffffffffffffffffffffffffffff\n      and\n        /* \"contracts/LoanManager.sol\":1853:1896  collateralManager.getCollateralBalanceinUSD */\n      0xffffffffffffffffffffffffffffffffffffffff\n      and\n      0x09b8aafd\n        /* \"contracts/LoanManager.sol\":1897:1902  _user */\n      dup5\n        /* \"contracts/LoanManager.sol\":1853:1903  collateralManager.getCollateralBalanceinUSD(_user) */\n      mload(0x40)\n      dup3\n      0xffffffff\n      and\n      0xe0\n      shl\n      dup2\n      mstore\n      0x04\n      add\n      tag_118\n      swap2\n      swap1\n      tag_68\n      jump\t// in\n    tag_118:\n      0x20\n      mload(0x40)\n      dup1\n      dup4\n      sub\n      dup2\n      dup7\n      gas\n      staticcall\n      iszero\n      dup1\n      iszero\n      tag_120\n      jumpi\n      returndatasize\n      0x00\n      dup1\n      returndatacopy\n      revert(0x00, returndatasize)\n    tag_120:\n      pop\n      pop\n      pop\n      pop\n      mload(0x40)\n      returndatasize\n      not(0x1f)\n      0x1f\n      dup3\n      add\n      and\n      dup3\n      add\n      dup1\n      0x40\n      mstore\n      pop\n      dup2\n      add\n      swap1\n      tag_121\n      swap2\n      swap1\n      tag_107\n      jump\t// in\n    tag_121:\n        /* \"contracts/LoanManager.sol\":1830:1903  uint256 userTotalCol = collateralManager.getCollateralBalanceinUSD(_user) */\n      swap1\n      pop\n        /* \"contracts/LoanManager.sol\":1941:1962  collateralToLoanRatio */\n      sload(0x06)\n        /* \"contracts/LoanManager.sol\":1935:1938  100 */\n      0x64\n        /* \"contracts/LoanManager.sol\":1920:1932  userTotalCol */\n      dup3\n        /* \"contracts/LoanManager.sol\":1920:1938  userTotalCol * 100 */\n      tag_122\n      swap2\n      swap1\n      tag_109\n      jump\t// in\n    tag_122:\n        /* \"contracts/LoanManager.sol\":1920:1962  userTotalCol * 100 / collateralToLoanRatio */\n      tag_123\n      swap2\n      swap1\n      tag_111\n      jump\t// in\n    tag_123:\n        /* \"contracts/LoanManager.sol\":1913:1962  return userTotalCol * 100 / collateralToLoanRatio */\n      swap2\n      pop\n      pop\n        /* \"contracts/LoanManager.sol\":1750:1969  function getLoanAmount(address _user) external view returns (uint256) {... */\n      swap2\n      swap1\n      pop\n      jump\t// out\n        /* \"contracts/LoanManager.sol\":2028:3341  function requestLoan(uint256 _loanAmount) external nonReentrant {... */\n    tag_64:\n        /* \"@openzeppelin/contracts/utils/ReentrancyGuard.sol\":2356:2377  _nonReentrantBefore() */\n      tag_125\n        /* \"@openzeppelin/contracts/utils/ReentrancyGuard.sol\":2356:2375  _nonReentrantBefore */\n      tag_126\n        /* \"@openzeppelin/contracts/utils/ReentrancyGuard.sol\":2356:2377  _nonReentrantBefore() */\n      jump\t// in\n    tag_125:\n        /* \"contracts/LoanManager.sol\":2124:2125  0 */\n      0x00\n        /* \"contracts/LoanManager.sol\":2110:2121  _loanAmount */\n      dup2\n        /* \"contracts/LoanManager.sol\":2110:2125  _loanAmount > 0 */\n      gt\n        /* \"contracts/LoanManager.sol\":2102:2177  require(_loanAmount > 0, \"LoanManager: Loan amount must be greater than 0\") */\n      tag_128\n      jumpi\n      mload(0x40)\n      0x08c379a000000000000000000000000000000000000000000000000000000000\n      dup2\n      mstore\n      0x04\n      add\n      tag_129\n      swap1\n      tag_130\n      jump\t// in\n    tag_129:\n      mload(0x40)\n      dup1\n      swap2\n      sub\n      swap1\n      revert\n    tag_128:\n        /* \"contracts/LoanManager.sol\":2227:2228  0 */\n      0x00\n        /* \"contracts/LoanManager.sol\":2195:2204  userLoans */\n      0x09\n        /* \"contracts/LoanManager.sol\":2195:2216  userLoans[msg.sender] */\n      0x00\n        /* \"contracts/LoanManager.sol\":2205:2215  msg.sender */\n      caller\n        /* \"contracts/LoanManager.sol\":2195:2216  userLoans[msg.sender] */\n      0xffffffffffffffffffffffffffffffffffffffff\n      and\n      0xffffffffffffffffffffffffffffffffffffffff\n      and\n      dup2\n      mstore\n      0x20\n      add\n      swap1\n      dup2\n      mstore\n      0x20\n      add\n      0x00\n      keccak256\n        /* \"contracts/LoanManager.sol\":2195:2223  userLoans[msg.sender].amount */\n      0x00\n      add\n      sload\n        /* \"contracts/LoanManager.sol\":2195:2228  userLoans[msg.sender].amount == 0 */\n      eq\n        /* \"contracts/LoanManager.sol\":2187:2280  require(userLoans[msg.sender].amount == 0, \"LoanManager: Existing loan must be repaid first\") */\n      tag_131\n      jumpi\n      mload(0x40)\n      0x08c379a000000000000000000000000000000000000000000000000000000000\n      dup2\n      mstore\n      0x04\n      add\n      tag_132\n      swap1\n      tag_133\n      jump\t// in\n    tag_132:\n      mload(0x40)\n      dup1\n      swap2\n      sub\n      swap1\n      revert\n    tag_131:\n        /* \"contracts/LoanManager.sol\":2336:2356  uint256 userTotalCol */\n      0x00\n        /* \"contracts/LoanManager.sol\":2359:2376  collateralManager */\n      0x03\n      0x00\n      swap1\n      sload\n      swap1\n      0x0100\n      exp\n      swap1\n      div\n      0xffffffffffffffffffffffffffffffffffffffff\n      and\n        /* \"contracts/LoanManager.sol\":2359:2402  collateralManager.getCollateralBalanceinUSD */\n      0xffffffffffffffffffffffffffffffffffffffff\n      and\n      0x09b8aafd\n        /* \"contracts/LoanManager.sol\":2403:2413  msg.sender */\n      caller\n        /* \"contracts/LoanManager.sol\":2359:2414  collateralManager.getCollateralBalanceinUSD(msg.sender) */\n      mload(0x40)\n      dup3\n      0xffffffff\n      and\n      0xe0\n      shl\n      dup2\n      mstore\n      0x04\n      add\n      tag_134\n      swap2\n      swap1\n      tag_68\n      jump\t// in\n    tag_134:\n      0x20\n      mload(0x40)\n      dup1\n      dup4\n      sub\n      dup2\n      dup7\n      gas\n      staticcall\n      iszero\n      dup1\n      iszero\n      tag_136\n      jumpi\n      returndatasize\n      0x00\n      dup1\n      returndatacopy\n      revert(0x00, returndatasize)\n    tag_136:\n      pop\n      pop\n      pop\n      pop\n      mload(0x40)\n      returndatasize\n      not(0x1f)\n      0x1f\n      dup3\n      add\n      and\n      dup3\n      add\n      dup1\n      0x40\n      mstore\n      pop\n      dup2\n      add\n      swap1\n      tag_137\n      swap2\n      swap1\n      tag_107\n      jump\t// in\n    tag_137:\n        /* \"contracts/LoanManager.sol\":2336:2414  uint256 userTotalCol = collateralManager.getCollateralBalanceinUSD(msg.sender) */\n      swap1\n      pop\n        /* \"contracts/LoanManager.sol\":2447:2448  0 */\n      0x00\n        /* \"contracts/LoanManager.sol\":2432:2444  userTotalCol */\n      dup2\n        /* \"contracts/LoanManager.sol\":2432:2448  userTotalCol > 0 */\n      gt\n        /* \"contracts/LoanManager.sol\":2424:2489  require(userTotalCol > 0, \"LoanManager: No collateral available\") */\n      tag_138\n      jumpi\n      mload(0x40)\n      0x08c379a000000000000000000000000000000000000000000000000000000000\n      dup2\n      mstore\n      0x04\n      add\n      tag_139\n      swap1\n      tag_140\n      jump\t// in\n    tag_139:\n      mload(0x40)\n      dup1\n      swap2\n      sub\n      swap1\n      revert\n    tag_138:\n        /* \"contracts/LoanManager.sol\":2575:2596  uint256 maxLoanAmount */\n      0x00\n        /* \"contracts/LoanManager.sol\":2620:2641  collateralToLoanRatio */\n      sload(0x06)\n        /* \"contracts/LoanManager.sol\":2614:2617  100 */\n      0x64\n        /* \"contracts/LoanManager.sol\":2599:2611  userTotalCol */\n      dup4\n        /* \"contracts/LoanManager.sol\":2599:2617  userTotalCol * 100 */\n      tag_141\n      swap2\n      swap1\n      tag_109\n      jump\t// in\n    tag_141:\n        /* \"contracts/LoanManager.sol\":2599:2641  userTotalCol * 100 / collateralToLoanRatio */\n      tag_142\n      swap2\n      swap1\n      tag_111\n      jump\t// in\n    tag_142:\n        /* \"contracts/LoanManager.sol\":2575:2641  uint256 maxLoanAmount = userTotalCol * 100 / collateralToLoanRatio */\n      swap1\n      pop\n        /* \"contracts/LoanManager.sol\":2674:2687  maxLoanAmount */\n      dup1\n        /* \"contracts/LoanManager.sol\":2659:2670  _loanAmount */\n      dup4\n        /* \"contracts/LoanManager.sol\":2659:2687  _loanAmount <= maxLoanAmount */\n      gt\n      iszero\n        /* \"contracts/LoanManager.sol\":2651:2754  require(_loanAmount <= maxLoanAmount, \"LoanManager: Insufficient collateral for requested loan amount\") */\n      tag_143\n      jumpi\n      mload(0x40)\n      0x08c379a000000000000000000000000000000000000000000000000000000000\n      dup2\n      mstore\n      0x04\n      add\n      tag_144\n      swap1\n      tag_145\n      jump\t// in\n    tag_144:\n      mload(0x40)\n      dup1\n      swap2\n      sub\n      swap1\n      revert\n    tag_143:\n        /* \"contracts/LoanManager.sol\":2799:2818  Loan memory newLoan */\n      0x00\n        /* \"contracts/LoanManager.sol\":2821:3068  Loan({... */\n      mload(0x40)\n      dup1\n      0xc0\n      add\n      0x40\n      mstore\n      dup1\n        /* \"contracts/LoanManager.sol\":2848:2859  _loanAmount */\n      dup6\n        /* \"contracts/LoanManager.sol\":2821:3068  Loan({... */\n      dup2\n      mstore\n      0x20\n      add\n        /* \"contracts/LoanManager.sol\":2887:2888  5 */\n      0x05\n        /* \"contracts/LoanManager.sol\":2821:3068  Loan({... */\n      dup2\n      mstore\n      0x20\n      add\n        /* \"contracts/LoanManager.sol\":2943:2958  block.timestamp */\n      timestamp\n        /* \"contracts/LoanManager.sol\":2821:3068  Loan({... */\n      dup2\n      mstore\n      0x20\n      add\n        /* \"contracts/LoanManager.sol\":2984:2996  userTotalCol */\n      dup5\n        /* \"contracts/LoanManager.sol\":2821:3068  Loan({... */\n      dup2\n      mstore\n      0x20\n      add\n        /* \"contracts/LoanManager.sol\":3020:3025  false */\n      0x00\n        /* \"contracts/LoanManager.sol\":2821:3068  Loan({... */\n      iszero\n      iszero\n      dup2\n      mstore\n      0x20\n      add\n        /* \"contracts/LoanManager.sol\":3052:3057  false */\n      0x00\n        /* \"contracts/LoanManager.sol\":2821:3068  Loan({... */\n      iszero\n      iszero\n      dup2\n      mstore\n      pop\n        /* \"contracts/LoanManager.sol\":2799:3068  Loan memory newLoan = Loan({... */\n      swap1\n      pop\n        /* \"contracts/LoanManager.sol\":3102:3109  newLoan */\n      dup1\n        /* \"contracts/LoanManager.sol\":3078:3087  userLoans */\n      0x09\n        /* \"contracts/LoanManager.sol\":3078:3099  userLoans[msg.sender] */\n      0x00\n        /* \"contracts/LoanManager.sol\":3088:3098  msg.sender */\n      caller\n        /* \"contracts/LoanManager.sol\":3078:3099  userLoans[msg.sender] */\n      0xffffffffffffffffffffffffffffffffffffffff\n      and\n      0xffffffffffffffffffffffffffffffffffffffff\n      and\n      dup2\n      mstore\n      0x20\n      add\n      swap1\n      dup2\n      mstore\n      0x20\n      add\n      0x00\n      keccak256\n        /* \"contracts/LoanManager.sol\":3078:3109  userLoans[msg.sender] = newLoan */\n      0x00\n      dup3\n      add\n      mload\n      dup2\n      0x00\n      add\n      sstore\n      0x20\n      dup3\n      add\n      mload\n      dup2\n      0x01\n      add\n      sstore\n      0x40\n      dup3\n      add\n      mload\n      dup2\n      0x02\n      add\n      sstore\n      0x60\n      dup3\n      add\n      mload\n      dup2\n      0x03\n      add\n      sstore\n      0x80\n      dup3\n      add\n      mload\n      dup2\n      0x04\n      add\n      exp(0x0100, 0x00)\n      dup2\n      sload\n      dup2\n      0xff\n      mul\n      not\n      and\n      swap1\n      dup4\n      iszero\n      iszero\n      mul\n      or\n      swap1\n      sstore\n      pop\n      0xa0\n      dup3\n      add\n      mload\n      dup2\n      0x04\n      add\n      exp(0x0100, 0x01)\n      dup2\n      sload\n      dup2\n      0xff\n      mul\n      not\n      and\n      swap1\n      dup4\n      iszero\n      iszero\n      mul\n      or\n      swap1\n      sstore\n      pop\n      swap1\n      pop\n      pop\n        /* \"contracts/LoanManager.sol\":3179:3188  cUSDToken */\n      0x02\n      0x00\n      swap1\n      sload\n      swap1\n      0x0100\n      exp\n      swap1\n      div\n      0xffffffffffffffffffffffffffffffffffffffff\n      and\n        /* \"contracts/LoanManager.sol\":3179:3197  cUSDToken.transfer */\n      0xffffffffffffffffffffffffffffffffffffffff\n      and\n      0xa9059cbb\n        /* \"contracts/LoanManager.sol\":3198:3208  msg.sender */\n      caller\n        /* \"contracts/LoanManager.sol\":3210:3221  _loanAmount */\n      dup7\n        /* \"contracts/LoanManager.sol\":3179:3222  cUSDToken.transfer(msg.sender, _loanAmount) */\n      mload(0x40)\n      dup4\n      0xffffffff\n      and\n      0xe0\n      shl\n      dup2\n      mstore\n      0x04\n      add\n      tag_146\n      swap3\n      swap2\n      swap1\n      tag_147\n      jump\t// in\n    tag_146:\n      0x20\n      mload(0x40)\n      dup1\n      dup4\n      sub\n      dup2\n      0x00\n      dup8\n      gas\n      call\n      iszero\n      dup1\n      iszero\n      tag_149\n      jumpi\n      returndatasize\n      0x00\n      dup1\n      returndatacopy\n      revert(0x00, returndatasize)\n    tag_149:\n      pop\n      pop\n      pop\n      pop\n      mload(0x40)\n      returndatasize\n      not(0x1f)\n      0x1f\n      dup3\n      add\n      and\n      dup3\n      add\n      dup1\n      0x40\n      mstore\n      pop\n      dup2\n      add\n      swap1\n      tag_150\n      swap2\n      swap1\n      tag_151\n      jump\t// in\n    tag_150:\n        /* \"contracts/LoanManager.sol\":3171:3260  require(cUSDToken.transfer(msg.sender, _loanAmount), \"LoanManager: Loan transfer failed\") */\n      tag_152\n      jumpi\n      mload(0x40)\n      0x08c379a000000000000000000000000000000000000000000000000000000000\n      dup2\n      mstore\n      0x04\n      add\n      tag_153\n      swap1\n      tag_154\n      jump\t// in\n    tag_153:\n      mload(0x40)\n      dup1\n      swap2\n      sub\n      swap1\n      revert\n    tag_152:\n        /* \"contracts/LoanManager.sol\":3296:3306  msg.sender */\n      caller\n        /* \"contracts/LoanManager.sol\":3285:3334  LoanIssued(msg.sender, _loanAmount, userTotalCol) */\n      0xffffffffffffffffffffffffffffffffffffffff\n      and\n      0x1c793c0fda4a6b2b79dd68d91d9f7fde8f7aa0878615c36a4624e6ccdbb1ead1\n        /* \"contracts/LoanManager.sol\":3308:3319  _loanAmount */\n      dup6\n        /* \"contracts/LoanManager.sol\":3321:3333  userTotalCol */\n      dup6\n        /* \"contracts/LoanManager.sol\":3285:3334  LoanIssued(msg.sender, _loanAmount, userTotalCol) */\n      mload(0x40)\n      tag_155\n      swap3\n      swap2\n      swap1\n      tag_156\n      jump\t// in\n    tag_155:\n      mload(0x40)\n      dup1\n      swap2\n      sub\n      swap1\n      log2\n        /* \"contracts/LoanManager.sol\":2092:3341  {... */\n      pop\n      pop\n      pop\n        /* \"@openzeppelin/contracts/utils/ReentrancyGuard.sol\":2398:2418  _nonReentrantAfter() */\n      tag_157\n        /* \"@openzeppelin/contracts/utils/ReentrancyGuard.sol\":2398:2416  _nonReentrantAfter */\n      tag_158\n        /* \"@openzeppelin/contracts/utils/ReentrancyGuard.sol\":2398:2418  _nonReentrantAfter() */\n      jump\t// in\n    tag_157:\n        /* \"contracts/LoanManager.sol\":2028:3341  function requestLoan(uint256 _loanAmount) external nonReentrant {... */\n      pop\n      jump\t// out\n        /* \"@openzeppelin/contracts/access/Ownable.sol\":1638:1723  function owner() public view virtual returns (address) {... */\n    tag_66:\n        /* \"@openzeppelin/contracts/access/Ownable.sol\":1684:1691  address */\n      0x00\n        /* \"@openzeppelin/contracts/access/Ownable.sol\":1710:1716  _owner */\n      0x01\n      0x00\n      swap1\n      sload\n      swap1\n      0x0100\n      exp\n      swap1\n      div\n      0xffffffffffffffffffffffffffffffffffffffff\n      and\n        /* \"@openzeppelin/contracts/access/Ownable.sol\":1703:1716  return _owner */\n      swap1\n      pop\n        /* \"@openzeppelin/contracts/access/Ownable.sol\":1638:1723  function owner() public view virtual returns (address) {... */\n      swap1\n      jump\t// out\n        /* \"contracts/LoanManager.sol\":5994:6212  function addFundToPool(uint256 _amount) external onlyOwner onlyOwner{... */\n    tag_71:\n        /* \"@openzeppelin/contracts/access/Ownable.sol\":1531:1544  _checkOwner() */\n      tag_161\n        /* \"@openzeppelin/contracts/access/Ownable.sol\":1531:1542  _checkOwner */\n      tag_97\n        /* \"@openzeppelin/contracts/access/Ownable.sol\":1531:1544  _checkOwner() */\n      jump\t// in\n    tag_161:\n      tag_163\n        /* \"@openzeppelin/contracts/access/Ownable.sol\":1531:1542  _checkOwner */\n      tag_97\n        /* \"@openzeppelin/contracts/access/Ownable.sol\":1531:1544  _checkOwner() */\n      jump\t// in\n    tag_163:\n        /* \"contracts/LoanManager.sol\":6080:6089  cUSDToken */\n      0x02\n      0x00\n      swap1\n      sload\n      swap1\n      0x0100\n      exp\n      swap1\n      div\n      0xffffffffffffffffffffffffffffffffffffffff\n      and\n        /* \"contracts/LoanManager.sol\":6080:6102  cUSDToken.transferFrom */\n      0xffffffffffffffffffffffffffffffffffffffff\n      and\n      0x23b872dd\n        /* \"contracts/LoanManager.sol\":6103:6113  msg.sender */\n      caller\n        /* \"contracts/LoanManager.sol\":6123:6127  this */\n      address\n        /* \"contracts/LoanManager.sol\":6130:6137  _amount */\n      dup5\n        /* \"contracts/LoanManager.sol\":6080:6138  cUSDToken.transferFrom(msg.sender, address(this), _amount) */\n      mload(0x40)\n      dup5\n      0xffffffff\n      and\n      0xe0\n      shl\n      dup2\n      mstore\n      0x04\n      add\n      tag_165\n      swap4\n      swap3\n      swap2\n      swap1\n      tag_166\n      jump\t// in\n    tag_165:\n      0x20\n      mload(0x40)\n      dup1\n      dup4\n      sub\n      dup2\n      0x00\n      dup8\n      gas\n      call\n      iszero\n      dup1\n      iszero\n      tag_168\n      jumpi\n      returndatasize\n      0x00\n      dup1\n      returndatacopy\n      revert(0x00, returndatasize)\n    tag_168:\n      pop\n      pop\n      pop\n      pop\n      mload(0x40)\n      returndatasize\n      not(0x1f)\n      0x1f\n      dup3\n      add\n      and\n      dup3\n      add\n      dup1\n      0x40\n      mstore\n      pop\n      dup2\n      add\n      swap1\n      tag_169\n      swap2\n      swap1\n      tag_151\n      jump\t// in\n    tag_169:\n        /* \"contracts/LoanManager.sol\":6072:6176  require(cUSDToken.transferFrom(msg.sender, address(this), _amount), \"LoanManager: Fund transfer failed\") */\n      tag_170\n      jumpi\n      mload(0x40)\n      0x08c379a000000000000000000000000000000000000000000000000000000000\n      dup2\n      mstore\n      0x04\n      add\n      tag_171\n      swap1\n      tag_172\n      jump\t// in\n    tag_171:\n      mload(0x40)\n      dup1\n      swap2\n      sub\n      swap1\n      revert\n    tag_170:\n        /* \"contracts/LoanManager.sol\":6198:6205  _amount */\n      dup1\n        /* \"contracts/LoanManager.sol\":6186:6194  fundPool */\n      0x05\n      0x00\n        /* \"contracts/LoanManager.sol\":6186:6205  fundPool += _amount */\n      dup3\n      dup3\n      sload\n      tag_173\n      swap2\n      swap1\n      tag_174\n      jump\t// in\n    tag_173:\n      swap3\n      pop\n      pop\n      dup2\n      swap1\n      sstore\n      pop\n        /* \"contracts/LoanManager.sol\":5994:6212  function addFundToPool(uint256 _amount) external onlyOwner onlyOwner{... */\n      pop\n      jump\t// out\n        /* \"contracts/LoanManager.sol\":3750:4653  function repayLoan(uint256 _repayAmount) external nonReentrant {... */\n    tag_74:\n        /* \"@openzeppelin/contracts/utils/ReentrancyGuard.sol\":2356:2377  _nonReentrantBefore() */\n      tag_176\n        /* \"@openzeppelin/contracts/utils/ReentrancyGuard.sol\":2356:2375  _nonReentrantBefore */\n      tag_126\n        /* \"@openzeppelin/contracts/utils/ReentrancyGuard.sol\":2356:2377  _nonReentrantBefore() */\n      jump\t// in\n    tag_176:\n        /* \"contracts/LoanManager.sol\":3823:3840  Loan storage loan */\n      0x00\n        /* \"contracts/LoanManager.sol\":3843:3852  userLoans */\n      0x09\n        /* \"contracts/LoanManager.sol\":3843:3864  userLoans[msg.sender] */\n      0x00\n        /* \"contracts/LoanManager.sol\":3853:3863  msg.sender */\n      caller\n        /* \"contracts/LoanManager.sol\":3843:3864  userLoans[msg.sender] */\n      0xffffffffffffffffffffffffffffffffffffffff\n      and\n      0xffffffffffffffffffffffffffffffffffffffff\n      and\n      dup2\n      mstore\n      0x20\n      add\n      swap1\n      dup2\n      mstore\n      0x20\n      add\n      0x00\n      keccak256\n        /* \"contracts/LoanManager.sol\":3823:3864  Loan storage loan = userLoans[msg.sender] */\n      swap1\n      pop\n        /* \"contracts/LoanManager.sol\":3896:3897  0 */\n      0x00\n        /* \"contracts/LoanManager.sol\":3882:3886  loan */\n      dup2\n        /* \"contracts/LoanManager.sol\":3882:3893  loan.amount */\n      0x00\n      add\n      sload\n        /* \"contracts/LoanManager.sol\":3882:3897  loan.amount > 0 */\n      gt\n        /* \"contracts/LoanManager.sol\":3874:3929  require(loan.amount > 0, \"LoanManager: No active loan\") */\n      tag_178\n      jumpi\n      mload(0x40)\n      0x08c379a000000000000000000000000000000000000000000000000000000000\n      dup2\n      mstore\n      0x04\n      add\n      tag_179\n      swap1\n      tag_180\n      jump\t// in\n    tag_179:\n      mload(0x40)\n      dup1\n      swap2\n      sub\n      swap1\n      revert\n    tag_178:\n        /* \"contracts/LoanManager.sol\":3948:3952  loan */\n      dup1\n        /* \"contracts/LoanManager.sol\":3948:3961  loan.isRepaid */\n      0x04\n      add\n      0x00\n      swap1\n      sload\n      swap1\n      0x0100\n      exp\n      swap1\n      div\n      0xff\n      and\n        /* \"contracts/LoanManager.sol\":3947:3961  !loan.isRepaid */\n      iszero\n        /* \"contracts/LoanManager.sol\":3939:4001  require(!loan.isRepaid, \"LoanManager: Loan is already repaid\") */\n      tag_181\n      jumpi\n      mload(0x40)\n      0x08c379a000000000000000000000000000000000000000000000000000000000\n      dup2\n      mstore\n      0x04\n      add\n      tag_182\n      swap1\n      tag_183\n      jump\t// in\n    tag_182:\n      mload(0x40)\n      dup1\n      swap2\n      sub\n      swap1\n      revert\n    tag_181:\n        /* \"contracts/LoanManager.sol\":4069:4093  uint256 loanWithInterest */\n      0x00\n        /* \"contracts/LoanManager.sol\":4145:4148  100 */\n      0x64\n        /* \"contracts/LoanManager.sol\":4125:4129  loan */\n      dup3\n        /* \"contracts/LoanManager.sol\":4125:4142  loan.interestRate */\n      0x01\n      add\n      sload\n        /* \"contracts/LoanManager.sol\":4111:4115  loan */\n      dup4\n        /* \"contracts/LoanManager.sol\":4111:4122  loan.amount */\n      0x00\n      add\n      sload\n        /* \"contracts/LoanManager.sol\":4111:4142  loan.amount * loan.interestRate */\n      tag_184\n      swap2\n      swap1\n      tag_109\n      jump\t// in\n    tag_184:\n        /* \"contracts/LoanManager.sol\":4111:4148  loan.amount * loan.interestRate / 100 */\n      tag_185\n      swap2\n      swap1\n      tag_111\n      jump\t// in\n    tag_185:\n        /* \"contracts/LoanManager.sol\":4096:4100  loan */\n      dup3\n        /* \"contracts/LoanManager.sol\":4096:4107  loan.amount */\n      0x00\n      add\n      sload\n        /* \"contracts/LoanManager.sol\":4096:4149  loan.amount + (loan.amount * loan.interestRate / 100) */\n      tag_186\n      swap2\n      swap1\n      tag_174\n      jump\t// in\n    tag_186:\n        /* \"contracts/LoanManager.sol\":4069:4149  uint256 loanWithInterest = loan.amount + (loan.amount * loan.interestRate / 100) */\n      swap1\n      pop\n        /* \"contracts/LoanManager.sol\":4183:4199  loanWithInterest */\n      dup1\n        /* \"contracts/LoanManager.sol\":4167:4179  _repayAmount */\n      dup4\n        /* \"contracts/LoanManager.sol\":4167:4199  _repayAmount >= loanWithInterest */\n      lt\n      iszero\n        /* \"contracts/LoanManager.sol\":4159:4246  require(_repayAmount >= loanWithInterest, \"LoanManager: Insufficient repayment amount\") */\n      tag_187\n      jumpi\n      mload(0x40)\n      0x08c379a000000000000000000000000000000000000000000000000000000000\n      dup2\n      mstore\n      0x04\n      add\n      tag_188\n      swap1\n      tag_189\n      jump\t// in\n    tag_188:\n      mload(0x40)\n      dup1\n      swap2\n      sub\n      swap1\n      revert\n    tag_187:\n        /* \"contracts/LoanManager.sol\":4318:4327  cUSDToken */\n      0x02\n      0x00\n      swap1\n      sload\n      swap1\n      0x0100\n      exp\n      swap1\n      div\n      0xffffffffffffffffffffffffffffffffffffffff\n      and\n        /* \"contracts/LoanManager.sol\":4318:4340  cUSDToken.transferFrom */\n      0xffffffffffffffffffffffffffffffffffffffff\n      and\n      0x23b872dd\n        /* \"contracts/LoanManager.sol\":4341:4351  msg.sender */\n      caller\n        /* \"contracts/LoanManager.sol\":4361:4365  this */\n      address\n        /* \"contracts/LoanManager.sol\":4368:4380  _repayAmount */\n      dup7\n        /* \"contracts/LoanManager.sol\":4318:4381  cUSDToken.transferFrom(msg.sender, address(this), _repayAmount) */\n      mload(0x40)\n      dup5\n      0xffffffff\n      and\n      0xe0\n      shl\n      dup2\n      mstore\n      0x04\n      add\n      tag_190\n      swap4\n      swap3\n      swap2\n      swap1\n      tag_166\n      jump\t// in\n    tag_190:\n      0x20\n      mload(0x40)\n      dup1\n      dup4\n      sub\n      dup2\n      0x00\n      dup8\n      gas\n      call\n      iszero\n      dup1\n      iszero\n      tag_192\n      jumpi\n      returndatasize\n      0x00\n      dup1\n      returndatacopy\n      revert(0x00, returndatasize)\n    tag_192:\n      pop\n      pop\n      pop\n      pop\n      mload(0x40)\n      returndatasize\n      not(0x1f)\n      0x1f\n      dup3\n      add\n      and\n      dup3\n      add\n      dup1\n      0x40\n      mstore\n      pop\n      dup2\n      add\n      swap1\n      tag_193\n      swap2\n      swap1\n      tag_151\n      jump\t// in\n    tag_193:\n        /* \"contracts/LoanManager.sol\":4310:4424  require(cUSDToken.transferFrom(msg.sender, address(this), _repayAmount), \"LoanManager: Repayment transfer failed\") */\n      tag_194\n      jumpi\n      mload(0x40)\n      0x08c379a000000000000000000000000000000000000000000000000000000000\n      dup2\n      mstore\n      0x04\n      add\n      tag_195\n      swap1\n      tag_196\n      jump\t// in\n    tag_195:\n      mload(0x40)\n      dup1\n      swap2\n      sub\n      swap1\n      revert\n    tag_194:\n        /* \"contracts/LoanManager.sol\":4481:4485  true */\n      0x01\n        /* \"contracts/LoanManager.sol\":4465:4469  loan */\n      dup3\n        /* \"contracts/LoanManager.sol\":4465:4478  loan.isRepaid */\n      0x04\n      add\n      0x00\n        /* \"contracts/LoanManager.sol\":4465:4485  loan.isRepaid = true */\n      0x0100\n      exp\n      dup2\n      sload\n      dup2\n      0xff\n      mul\n      not\n      and\n      swap1\n      dup4\n      iszero\n      iszero\n      mul\n      or\n      swap1\n      sstore\n      pop\n        /* \"contracts/LoanManager.sol\":4537:4554  collateralManager */\n      0x03\n      0x00\n      swap1\n      sload\n      swap1\n      0x0100\n      exp\n      swap1\n      div\n      0xffffffffffffffffffffffffffffffffffffffff\n      and\n        /* \"contracts/LoanManager.sol\":4537:4567  collateralManager.releaseFunds */\n      0xffffffffffffffffffffffffffffffffffffffff\n      and\n      0x192e7a7b\n        /* \"contracts/LoanManager.sol\":4568:4578  msg.sender */\n      caller\n        /* \"contracts/LoanManager.sol\":4537:4579  collateralManager.releaseFunds(msg.sender) */\n      mload(0x40)\n      dup3\n      0xffffffff\n      and\n      0xe0\n      shl\n      dup2\n      mstore\n      0x04\n      add\n      tag_197\n      swap2\n      swap1\n      tag_68\n      jump\t// in\n    tag_197:\n      0x00\n      mload(0x40)\n      dup1\n      dup4\n      sub\n      dup2\n      0x00\n      dup8\n      dup1\n      extcodesize\n      iszero\n      dup1\n      iszero\n      tag_198\n      jumpi\n      0x00\n      dup1\n      revert\n    tag_198:\n      pop\n      gas\n      call\n      iszero\n      dup1\n      iszero\n      tag_200\n      jumpi\n      returndatasize\n      0x00\n      dup1\n      returndatacopy\n      revert(0x00, returndatasize)\n    tag_200:\n      pop\n      pop\n      pop\n      pop\n        /* \"contracts/LoanManager.sol\":4605:4615  msg.sender */\n      caller\n        /* \"contracts/LoanManager.sol\":4594:4646  LoanRepaid(msg.sender, loan.amount, loan.collateral) */\n      0xffffffffffffffffffffffffffffffffffffffff\n      and\n      0xc7ce0a35f17b490de2a317e7fecb2cae86b1abffb03800b2f492823521382698\n        /* \"contracts/LoanManager.sol\":4617:4621  loan */\n      dup4\n        /* \"contracts/LoanManager.sol\":4617:4628  loan.amount */\n      0x00\n      add\n      sload\n        /* \"contracts/LoanManager.sol\":4630:4634  loan */\n      dup5\n        /* \"contracts/LoanManager.sol\":4630:4645  loan.collateral */\n      0x03\n      add\n      sload\n        /* \"contracts/LoanManager.sol\":4594:4646  LoanRepaid(msg.sender, loan.amount, loan.collateral) */\n      mload(0x40)\n      tag_201\n      swap3\n      swap2\n      swap1\n      tag_156\n      jump\t// in\n    tag_201:\n      mload(0x40)\n      dup1\n      swap2\n      sub\n      swap1\n      log2\n        /* \"contracts/LoanManager.sol\":3813:4653  {... */\n      pop\n      pop\n        /* \"@openzeppelin/contracts/utils/ReentrancyGuard.sol\":2398:2418  _nonReentrantAfter() */\n      tag_202\n        /* \"@openzeppelin/contracts/utils/ReentrancyGuard.sol\":2398:2416  _nonReentrantAfter */\n      tag_158\n        /* \"@openzeppelin/contracts/utils/ReentrancyGuard.sol\":2398:2418  _nonReentrantAfter() */\n      jump\t// in\n    tag_202:\n        /* \"contracts/LoanManager.sol\":3750:4653  function repayLoan(uint256 _repayAmount) external nonReentrant {... */\n      pop\n      jump\t// out\n        /* \"contracts/LoanManager.sol\":5616:5796  function updateLoanDuration(uint256 _newDuration) external onlyOwner{... */\n    tag_77:\n        /* \"@openzeppelin/contracts/access/Ownable.sol\":1531:1544  _checkOwner() */\n      tag_204\n        /* \"@openzeppelin/contracts/access/Ownable.sol\":1531:1542  _checkOwner */\n      tag_97\n        /* \"@openzeppelin/contracts/access/Ownable.sol\":1531:1544  _checkOwner() */\n      jump\t// in\n    tag_204:\n        /* \"contracts/LoanManager.sol\":5717:5718  0 */\n      0x00\n        /* \"contracts/LoanManager.sol\":5702:5714  _newDuration */\n      dup2\n        /* \"contracts/LoanManager.sol\":5702:5718  _newDuration > 0 */\n      gt\n        /* \"contracts/LoanManager.sol\":5694:5752  require(_newDuration > 0, \"LoanManager: Invalid duration\") */\n      tag_206\n      jumpi\n      mload(0x40)\n      0x08c379a000000000000000000000000000000000000000000000000000000000\n      dup2\n      mstore\n      0x04\n      add\n      tag_207\n      swap1\n      tag_208\n      jump\t// in\n    tag_207:\n      mload(0x40)\n      dup1\n      swap2\n      sub\n      swap1\n      revert\n    tag_206:\n        /* \"contracts/LoanManager.sol\":5777:5789  _newDuration */\n      dup1\n        /* \"contracts/LoanManager.sol\":5762:5774  loanDuration */\n      0x07\n        /* \"contracts/LoanManager.sol\":5762:5789  loanDuration = _newDuration */\n      dup2\n      swap1\n      sstore\n      pop\n        /* \"contracts/LoanManager.sol\":5616:5796  function updateLoanDuration(uint256 _newDuration) external onlyOwner{... */\n      pop\n      jump\t// out\n        /* \"contracts/LoanManager.sol\":5802:5988  function updateDefaultDuration(uint256 _newDuration) external onlyOwner{... */\n    tag_80:\n        /* \"@openzeppelin/contracts/access/Ownable.sol\":1531:1544  _checkOwner() */\n      tag_210\n        /* \"@openzeppelin/contracts/access/Ownable.sol\":1531:1542  _checkOwner */\n      tag_97\n        /* \"@openzeppelin/contracts/access/Ownable.sol\":1531:1544  _checkOwner() */\n      jump\t// in\n    tag_210:\n        /* \"contracts/LoanManager.sol\":5906:5907  0 */\n      0x00\n        /* \"contracts/LoanManager.sol\":5891:5903  _newDuration */\n      dup2\n        /* \"contracts/LoanManager.sol\":5891:5907  _newDuration > 0 */\n      gt\n        /* \"contracts/LoanManager.sol\":5883:5941  require(_newDuration > 0, \"LoanManager: Invalid duration\") */\n      tag_212\n      jumpi\n      mload(0x40)\n      0x08c379a000000000000000000000000000000000000000000000000000000000\n      dup2\n      mstore\n      0x04\n      add\n      tag_213\n      swap1\n      tag_208\n      jump\t// in\n    tag_213:\n      mload(0x40)\n      dup1\n      swap2\n      sub\n      swap1\n      revert\n    tag_212:\n        /* \"contracts/LoanManager.sol\":5969:5981  _newDuration */\n      dup1\n        /* \"contracts/LoanManager.sol\":5951:5966  defaultDuration */\n      0x08\n        /* \"contracts/LoanManager.sol\":5951:5981  defaultDuration = _newDuration */\n      dup2\n      swap1\n      sstore\n      pop\n        /* \"contracts/LoanManager.sol\":5802:5988  function updateDefaultDuration(uint256 _newDuration) external onlyOwner{... */\n      pop\n      jump\t// out\n        /* \"contracts/LoanManager.sol\":1153:1194  mapping(address => Loan) public userLoans */\n    tag_83:\n      mstore(0x20, 0x09)\n      dup1\n      0x00\n      mstore\n      keccak256(0x00, 0x40)\n      0x00\n      swap2\n      pop\n      swap1\n      pop\n      dup1\n      0x00\n      add\n      sload\n      swap1\n      dup1\n      0x01\n      add\n      sload\n      swap1\n      dup1\n      0x02\n      add\n      sload\n      swap1\n      dup1\n      0x03\n      add\n      sload\n      swap1\n      dup1\n      0x04\n      add\n      0x00\n      swap1\n      sload\n      swap1\n      0x0100\n      exp\n      swap1\n      div\n      0xff\n      and\n      swap1\n      dup1\n      0x04\n      add\n      0x01\n      swap1\n      sload\n      swap1\n      0x0100\n      exp\n      swap1\n      div\n      0xff\n      and\n      swap1\n      pop\n      dup7\n      jump\t// out\n        /* \"contracts/LoanManager.sol\":4721:5342  function checkDefault(address _user) external nonReentrant {... */\n    tag_88:\n        /* \"@openzeppelin/contracts/utils/ReentrancyGuard.sol\":2356:2377  _nonReentrantBefore() */\n      tag_215\n        /* \"@openzeppelin/contracts/utils/ReentrancyGuard.sol\":2356:2375  _nonReentrantBefore */\n      tag_126\n        /* \"@openzeppelin/contracts/utils/ReentrancyGuard.sol\":2356:2377  _nonReentrantBefore() */\n      jump\t// in\n    tag_215:\n        /* \"contracts/LoanManager.sol\":4790:4807  Loan storage loan */\n      0x00\n        /* \"contracts/LoanManager.sol\":4810:4819  userLoans */\n      0x09\n        /* \"contracts/LoanManager.sol\":4810:4826  userLoans[_user] */\n      0x00\n        /* \"contracts/LoanManager.sol\":4820:4825  _user */\n      dup4\n        /* \"contracts/LoanManager.sol\":4810:4826  userLoans[_user] */\n      0xffffffffffffffffffffffffffffffffffffffff\n      and\n      0xffffffffffffffffffffffffffffffffffffffff\n      and\n      dup2\n      mstore\n      0x20\n      add\n      swap1\n      dup2\n      mstore\n      0x20\n      add\n      0x00\n      keccak256\n        /* \"contracts/LoanManager.sol\":4790:4826  Loan storage loan = userLoans[_user] */\n      swap1\n      pop\n        /* \"contracts/LoanManager.sol\":4858:4859  0 */\n      0x00\n        /* \"contracts/LoanManager.sol\":4844:4848  loan */\n      dup2\n        /* \"contracts/LoanManager.sol\":4844:4855  loan.amount */\n      0x00\n      add\n      sload\n        /* \"contracts/LoanManager.sol\":4844:4859  loan.amount > 0 */\n      gt\n        /* \"contracts/LoanManager.sol\":4836:4891  require(loan.amount > 0, \"LoanManager: No active loan\") */\n      tag_217\n      jumpi\n      mload(0x40)\n      0x08c379a000000000000000000000000000000000000000000000000000000000\n      dup2\n      mstore\n      0x04\n      add\n      tag_218\n      swap1\n      tag_180\n      jump\t// in\n    tag_218:\n      mload(0x40)\n      dup1\n      swap2\n      sub\n      swap1\n      revert\n    tag_217:\n        /* \"contracts/LoanManager.sol\":4910:4914  loan */\n      dup1\n        /* \"contracts/LoanManager.sol\":4910:4926  loan.isDefaulted */\n      0x04\n      add\n      0x01\n      swap1\n      sload\n      swap1\n      0x0100\n      exp\n      swap1\n      div\n      0xff\n      and\n        /* \"contracts/LoanManager.sol\":4909:4926  !loan.isDefaulted */\n      iszero\n        /* \"contracts/LoanManager.sol\":4901:4966  require(!loan.isDefaulted, \"LoanManager: Loan already defaulted\") */\n      tag_219\n      jumpi\n      mload(0x40)\n      0x08c379a000000000000000000000000000000000000000000000000000000000\n      dup2\n      mstore\n      0x04\n      add\n      tag_220\n      swap1\n      tag_221\n      jump\t// in\n    tag_220:\n      mload(0x40)\n      dup1\n      swap2\n      sub\n      swap1\n      revert\n    tag_219:\n        /* \"contracts/LoanManager.sol\":5034:5049  defaultDuration */\n      sload(0x08)\n        /* \"contracts/LoanManager.sol\":5019:5031  loanDuration */\n      sload(0x07)\n        /* \"contracts/LoanManager.sol\":5002:5006  loan */\n      dup3\n        /* \"contracts/LoanManager.sol\":5002:5016  loan.startTime */\n      0x02\n      add\n      sload\n        /* \"contracts/LoanManager.sol\":5002:5031  loan.startTime + loanDuration */\n      tag_222\n      swap2\n      swap1\n      tag_174\n      jump\t// in\n    tag_222:\n        /* \"contracts/LoanManager.sol\":5002:5049  loan.startTime + loanDuration + defaultDuration */\n      tag_223\n      swap2\n      swap1\n      tag_174\n      jump\t// in\n    tag_223:\n        /* \"contracts/LoanManager.sol\":4984:4999  block.timestamp */\n      timestamp\n        /* \"contracts/LoanManager.sol\":4984:5049  block.timestamp > loan.startTime + loanDuration + defaultDuration */\n      gt\n        /* \"contracts/LoanManager.sol\":4976:5089  require(block.timestamp > loan.startTime + loanDuration + defaultDuration, \"LoanManager: Loan not defaulted yet\") */\n      tag_224\n      jumpi\n      mload(0x40)\n      0x08c379a000000000000000000000000000000000000000000000000000000000\n      dup2\n      mstore\n      0x04\n      add\n      tag_225\n      swap1\n      tag_226\n      jump\t// in\n    tag_225:\n      mload(0x40)\n      dup1\n      swap2\n      sub\n      swap1\n      revert\n    tag_224:\n        /* \"contracts/LoanManager.sol\":5153:5157  true */\n      0x01\n        /* \"contracts/LoanManager.sol\":5134:5138  loan */\n      dup2\n        /* \"contracts/LoanManager.sol\":5134:5150  loan.isDefaulted */\n      0x04\n      add\n      0x01\n        /* \"contracts/LoanManager.sol\":5134:5157  loan.isDefaulted = true */\n      0x0100\n      exp\n      dup2\n      sload\n      dup2\n      0xff\n      mul\n      not\n      and\n      swap1\n      dup4\n      iszero\n      iszero\n      mul\n      or\n      swap1\n      sstore\n      pop\n        /* \"contracts/LoanManager.sol\":5200:5217  collateralManager */\n      0x03\n      0x00\n      swap1\n      sload\n      swap1\n      0x0100\n      exp\n      swap1\n      div\n      0xffffffffffffffffffffffffffffffffffffffff\n      and\n        /* \"contracts/LoanManager.sol\":5200:5240  collateralManager.withdrawCeloCollateral */\n      0xffffffffffffffffffffffffffffffffffffffff\n      and\n      0x8e817efe\n        /* \"contracts/LoanManager.sol\":5241:5245  loan */\n      dup3\n        /* \"contracts/LoanManager.sol\":5241:5256  loan.collateral */\n      0x03\n      add\n      sload\n        /* \"contracts/LoanManager.sol\":5200:5257  collateralManager.withdrawCeloCollateral(loan.collateral) */\n      mload(0x40)\n      dup3\n      0xffffffff\n      and\n      0xe0\n      shl\n      dup2\n      mstore\n      0x04\n      add\n      tag_227\n      swap2\n      swap1\n      tag_41\n      jump\t// in\n    tag_227:\n      0x00\n      mload(0x40)\n      dup1\n      dup4\n      sub\n      dup2\n      0x00\n      dup8\n      dup1\n      extcodesize\n      iszero\n      dup1\n      iszero\n      tag_228\n      jumpi\n      0x00\n      dup1\n      revert\n    tag_228:\n      pop\n      gas\n      call\n      iszero\n      dup1\n      iszero\n      tag_230\n      jumpi\n      returndatasize\n      0x00\n      dup1\n      returndatacopy\n      revert(0x00, returndatasize)\n    tag_230:\n      pop\n      pop\n      pop\n      pop\n        /* \"contracts/LoanManager.sol\":5312:5317  _user */\n      dup2\n        /* \"contracts/LoanManager.sol\":5298:5335  LoanDefaulted(_user, loan.collateral) */\n      0xffffffffffffffffffffffffffffffffffffffff\n      and\n      0x0be253503c49f8fb02046da3ef57bc2f5f881eb14ba5c2c26b54bf2fb4e7db07\n        /* \"contracts/LoanManager.sol\":5319:5323  loan */\n      dup3\n        /* \"contracts/LoanManager.sol\":5319:5334  loan.collateral */\n      0x03\n      add\n      sload\n        /* \"contracts/LoanManager.sol\":5298:5335  LoanDefaulted(_user, loan.collateral) */\n      mload(0x40)\n      tag_231\n      swap2\n      swap1\n      tag_41\n      jump\t// in\n    tag_231:\n      mload(0x40)\n      dup1\n      swap2\n      sub\n      swap1\n      log2\n        /* \"contracts/LoanManager.sol\":4780:5342  {... */\n      pop\n        /* \"@openzeppelin/contracts/utils/ReentrancyGuard.sol\":2398:2418  _nonReentrantAfter() */\n      tag_232\n        /* \"@openzeppelin/contracts/utils/ReentrancyGuard.sol\":2398:2416  _nonReentrantAfter */\n      tag_158\n        /* \"@openzeppelin/contracts/utils/ReentrancyGuard.sol\":2398:2418  _nonReentrantAfter() */\n      jump\t// in\n    tag_232:\n        /* \"contracts/LoanManager.sol\":4721:5342  function checkDefault(address _user) external nonReentrant {... */\n      pop\n      jump\t// out\n        /* \"@openzeppelin/contracts/access/Ownable.sol\":2543:2758  function transferOwnership(address newOwner) public virtual onlyOwner {... */\n    tag_91:\n        /* \"@openzeppelin/contracts/access/Ownable.sol\":1531:1544  _checkOwner() */\n      tag_234\n        /* \"@openzeppelin/contracts/access/Ownable.sol\":1531:1542  _checkOwner */\n      tag_97\n        /* \"@openzeppelin/contracts/access/Ownable.sol\":1531:1544  _checkOwner() */\n      jump\t// in\n    tag_234:\n        /* \"@openzeppelin/contracts/access/Ownable.sol\":2647:2648  0 */\n      0x00\n        /* \"@openzeppelin/contracts/access/Ownable.sol\":2627:2649  newOwner == address(0) */\n      0xffffffffffffffffffffffffffffffffffffffff\n      and\n        /* \"@openzeppelin/contracts/access/Ownable.sol\":2627:2635  newOwner */\n      dup2\n        /* \"@openzeppelin/contracts/access/Ownable.sol\":2627:2649  newOwner == address(0) */\n      0xffffffffffffffffffffffffffffffffffffffff\n      and\n      sub\n        /* \"@openzeppelin/contracts/access/Ownable.sol\":2623:2714  if (newOwner == address(0)) {... */\n      tag_236\n      jumpi\n        /* \"@openzeppelin/contracts/access/Ownable.sol\":2700:2701  0 */\n      0x00\n        /* \"@openzeppelin/contracts/access/Ownable.sol\":2672:2703  OwnableInvalidOwner(address(0)) */\n      mload(0x40)\n      0x1e4fbdf700000000000000000000000000000000000000000000000000000000\n      dup2\n      mstore\n      0x04\n      add\n      tag_237\n      swap2\n      swap1\n      tag_68\n      jump\t// in\n    tag_237:\n      mload(0x40)\n      dup1\n      swap2\n      sub\n      swap1\n      revert\n        /* \"@openzeppelin/contracts/access/Ownable.sol\":2623:2714  if (newOwner == address(0)) {... */\n    tag_236:\n        /* \"@openzeppelin/contracts/access/Ownable.sol\":2723:2751  _transferOwnership(newOwner) */\n      tag_238\n        /* \"@openzeppelin/contracts/access/Ownable.sol\":2742:2750  newOwner */\n      dup2\n        /* \"@openzeppelin/contracts/access/Ownable.sol\":2723:2741  _transferOwnership */\n      tag_116\n        /* \"@openzeppelin/contracts/access/Ownable.sol\":2723:2751  _transferOwnership(newOwner) */\n      jump\t// in\n    tag_238:\n        /* \"@openzeppelin/contracts/access/Ownable.sol\":2543:2758  function transferOwnership(address newOwner) public virtual onlyOwner {... */\n      pop\n      jump\t// out\n        /* \"contracts/LoanManager.sol\":827:864  uint256 public loanDuration = 30 days */\n    tag_93:\n      sload(0x07)\n      dup2\n      jump\t// out\n        /* \"@openzeppelin/contracts/access/Ownable.sol\":1796:1958  function _checkOwner() internal view virtual {... */\n    tag_97:\n        /* \"@openzeppelin/contracts/access/Ownable.sol\":1866:1878  _msgSender() */\n      tag_240\n        /* \"@openzeppelin/contracts/access/Ownable.sol\":1866:1876  _msgSender */\n      tag_241\n        /* \"@openzeppelin/contracts/access/Ownable.sol\":1866:1878  _msgSender() */\n      jump\t// in\n    tag_240:\n        /* \"@openzeppelin/contracts/access/Ownable.sol\":1855:1878  owner() != _msgSender() */\n      0xffffffffffffffffffffffffffffffffffffffff\n      and\n        /* \"@openzeppelin/contracts/access/Ownable.sol\":1855:1862  owner() */\n      tag_242\n        /* \"@openzeppelin/contracts/access/Ownable.sol\":1855:1860  owner */\n      tag_66\n        /* \"@openzeppelin/contracts/access/Ownable.sol\":1855:1862  owner() */\n      jump\t// in\n    tag_242:\n        /* \"@openzeppelin/contracts/access/Ownable.sol\":1855:1878  owner() != _msgSender() */\n      0xffffffffffffffffffffffffffffffffffffffff\n      and\n      eq\n        /* \"@openzeppelin/contracts/access/Ownable.sol\":1851:1952  if (owner() != _msgSender()) {... */\n      tag_243\n      jumpi\n        /* \"@openzeppelin/contracts/access/Ownable.sol\":1928:1940  _msgSender() */\n      tag_244\n        /* \"@openzeppelin/contracts/access/Ownable.sol\":1928:1938  _msgSender */\n      tag_241\n        /* \"@openzeppelin/contracts/access/Ownable.sol\":1928:1940  _msgSender() */\n      jump\t// in\n    tag_244:\n        /* \"@openzeppelin/contracts/access/Ownable.sol\":1901:1941  OwnableUnauthorizedAccount(_msgSender()) */\n      mload(0x40)\n      0x118cdaa700000000000000000000000000000000000000000000000000000000\n      dup2\n      mstore\n      0x04\n      add\n      tag_245\n      swap2\n      swap1\n      tag_68\n      jump\t// in\n    tag_245:\n      mload(0x40)\n      dup1\n      swap2\n      sub\n      swap1\n      revert\n        /* \"@openzeppelin/contracts/access/Ownable.sol\":1851:1952  if (owner() != _msgSender()) {... */\n    tag_243:\n        /* \"@openzeppelin/contracts/access/Ownable.sol\":1796:1958  function _checkOwner() internal view virtual {... */\n      jump\t// out\n        /* \"@openzeppelin/contracts/access/Ownable.sol\":2912:3099  function _transferOwnership(address newOwner) internal virtual {... */\n    tag_116:\n        /* \"@openzeppelin/contracts/access/Ownable.sol\":2985:3001  address oldOwner */\n      0x00\n        /* \"@openzeppelin/contracts/access/Ownable.sol\":3004:3010  _owner */\n      0x01\n      0x00\n      swap1\n      sload\n      swap1\n      0x0100\n      exp\n      swap1\n      div\n      0xffffffffffffffffffffffffffffffffffffffff\n      and\n        /* \"@openzeppelin/contracts/access/Ownable.sol\":2985:3010  address oldOwner = _owner */\n      swap1\n      pop\n        /* \"@openzeppelin/contracts/access/Ownable.sol\":3029:3037  newOwner */\n      dup2\n        /* \"@openzeppelin/contracts/access/Ownable.sol\":3020:3026  _owner */\n      0x01\n      0x00\n        /* \"@openzeppelin/contracts/access/Ownable.sol\":3020:3037  _owner = newOwner */\n      0x0100\n      exp\n      dup2\n      sload\n      dup2\n      0xffffffffffffffffffffffffffffffffffffffff\n      mul\n      not\n      and\n      swap1\n      dup4\n      0xffffffffffffffffffffffffffffffffffffffff\n      and\n      mul\n      or\n      swap1\n      sstore\n      pop\n        /* \"@openzeppelin/contracts/access/Ownable.sol\":3083:3091  newOwner */\n      dup2\n        /* \"@openzeppelin/contracts/access/Ownable.sol\":3052:3092  OwnershipTransferred(oldOwner, newOwner) */\n      0xffffffffffffffffffffffffffffffffffffffff\n      and\n        /* \"@openzeppelin/contracts/access/Ownable.sol\":3073:3081  oldOwner */\n      dup2\n        /* \"@openzeppelin/contracts/access/Ownable.sol\":3052:3092  OwnershipTransferred(oldOwner, newOwner) */\n      0xffffffffffffffffffffffffffffffffffffffff\n      and\n      0x8be0079c531659141344cd1fd0a4f28419497f9722a3daafe3b4186f6b6457e0\n      mload(0x40)\n      mload(0x40)\n      dup1\n      swap2\n      sub\n      swap1\n      log3\n        /* \"@openzeppelin/contracts/access/Ownable.sol\":2975:3099  {... */\n      pop\n        /* \"@openzeppelin/contracts/access/Ownable.sol\":2912:3099  function _transferOwnership(address newOwner) internal virtual {... */\n      pop\n      jump\t// out\n        /* \"@openzeppelin/contracts/utils/ReentrancyGuard.sol\":2431:2738  function _nonReentrantBefore() private {... */\n    tag_126:\n        /* \"@openzeppelin/contracts/utils/ReentrancyGuard.sol\":1755:1756  2 */\n      0x02\n        /* \"@openzeppelin/contracts/utils/ReentrancyGuard.sol\":2558:2565  _status */\n      sload(0x00)\n        /* \"@openzeppelin/contracts/utils/ReentrancyGuard.sol\":2558:2576  _status == ENTERED */\n      sub\n        /* \"@openzeppelin/contracts/utils/ReentrancyGuard.sol\":2554:2640  if (_status == ENTERED) {... */\n      tag_248\n      jumpi\n        /* \"@openzeppelin/contracts/utils/ReentrancyGuard.sol\":2599:2629  ReentrancyGuardReentrantCall() */\n      mload(0x40)\n      0x3ee5aeb500000000000000000000000000000000000000000000000000000000\n      dup2\n      mstore\n      0x04\n      add\n      mload(0x40)\n      dup1\n      swap2\n      sub\n      swap1\n      revert\n        /* \"@openzeppelin/contracts/utils/ReentrancyGuard.sol\":2554:2640  if (_status == ENTERED) {... */\n    tag_248:\n        /* \"@openzeppelin/contracts/utils/ReentrancyGuard.sol\":1755:1756  2 */\n      0x02\n        /* \"@openzeppelin/contracts/utils/ReentrancyGuard.sol\":2714:2721  _status */\n      0x00\n        /* \"@openzeppelin/contracts/utils/ReentrancyGuard.sol\":2714:2731  _status = ENTERED */\n      dup2\n      swap1\n      sstore\n      pop\n        /* \"@openzeppelin/contracts/utils/ReentrancyGuard.sol\":2431:2738  function _nonReentrantBefore() private {... */\n      jump\t// out\n        /* \"@openzeppelin/contracts/utils/ReentrancyGuard.sol\":2744:2952  function _nonReentrantAfter() private {... */\n    tag_158:\n        /* \"@openzeppelin/contracts/utils/ReentrancyGuard.sol\":1713:1714  1 */\n      0x01\n        /* \"@openzeppelin/contracts/utils/ReentrancyGuard.sol\":2924:2931  _status */\n      0x00\n        /* \"@openzeppelin/contracts/utils/ReentrancyGuard.sol\":2924:2945  _status = NOT_ENTERED */\n      dup2\n      swap1\n      sstore\n      pop\n        /* \"@openzeppelin/contracts/utils/ReentrancyGuard.sol\":2744:2952  function _nonReentrantAfter() private {... */\n      jump\t// out\n        /* \"@openzeppelin/contracts/utils/Context.sol\":656:752  function _msgSender() internal view virtual returns (address) {... */\n    tag_241:\n        /* \"@openzeppelin/contracts/utils/Context.sol\":709:716  address */\n      0x00\n        /* \"@openzeppelin/contracts/utils/Context.sol\":735:745  msg.sender */\n      caller\n        /* \"@openzeppelin/contracts/utils/Context.sol\":728:745  return msg.sender */\n      swap1\n      pop\n        /* \"@openzeppelin/contracts/utils/Context.sol\":656:752  function _msgSender() internal view virtual returns (address) {... */\n      swap1\n      jump\t// out\n        /* \"#utility.yul\":7:133   */\n    tag_251:\n        /* \"#utility.yul\":44:51   */\n      0x00\n        /* \"#utility.yul\":84:126   */\n      0xffffffffffffffffffffffffffffffffffffffff\n        /* \"#utility.yul\":77:82   */\n      dup3\n        /* \"#utility.yul\":73:127   */\n      and\n        /* \"#utility.yul\":62:127   */\n      swap1\n      pop\n        /* \"#utility.yul\":7:133   */\n      swap2\n      swap1\n      pop\n      jump\t// out\n        /* \"#utility.yul\":139:199   */\n    tag_252:\n        /* \"#utility.yul\":167:170   */\n      0x00\n        /* \"#utility.yul\":188:193   */\n      dup2\n        /* \"#utility.yul\":181:193   */\n      swap1\n      pop\n        /* \"#utility.yul\":139:199   */\n      swap2\n      swap1\n      pop\n      jump\t// out\n        /* \"#utility.yul\":205:347   */\n    tag_253:\n        /* \"#utility.yul\":255:264   */\n      0x00\n        /* \"#utility.yul\":288:341   */\n      tag_312\n        /* \"#utility.yul\":306:340   */\n      tag_313\n        /* \"#utility.yul\":315:339   */\n      tag_314\n        /* \"#utility.yul\":333:338   */\n      dup5\n        /* \"#utility.yul\":315:339   */\n      tag_251\n      jump\t// in\n    tag_314:\n        /* \"#utility.yul\":306:340   */\n      tag_252\n      jump\t// in\n    tag_313:\n        /* \"#utility.yul\":288:341   */\n      tag_251\n      jump\t// in\n    tag_312:\n        /* \"#utility.yul\":275:341   */\n      swap1\n      pop\n        /* \"#utility.yul\":205:347   */\n      swap2\n      swap1\n      pop\n      jump\t// out\n        /* \"#utility.yul\":353:479   */\n    tag_254:\n        /* \"#utility.yul\":403:412   */\n      0x00\n        /* \"#utility.yul\":436:473   */\n      tag_316\n        /* \"#utility.yul\":467:472   */\n      dup3\n        /* \"#utility.yul\":436:473   */\n      tag_253\n      jump\t// in\n    tag_316:\n        /* \"#utility.yul\":423:473   */\n      swap1\n      pop\n        /* \"#utility.yul\":353:479   */\n      swap2\n      swap1\n      pop\n      jump\t// out\n        /* \"#utility.yul\":485:625   */\n    tag_255:\n        /* \"#utility.yul\":549:558   */\n      0x00\n        /* \"#utility.yul\":582:619   */\n      tag_318\n        /* \"#utility.yul\":613:618   */\n      dup3\n        /* \"#utility.yul\":582:619   */\n      tag_254\n      jump\t// in\n    tag_318:\n        /* \"#utility.yul\":569:619   */\n      swap1\n      pop\n        /* \"#utility.yul\":485:625   */\n      swap2\n      swap1\n      pop\n      jump\t// out\n        /* \"#utility.yul\":631:790   */\n    tag_256:\n        /* \"#utility.yul\":732:783   */\n      tag_320\n        /* \"#utility.yul\":777:782   */\n      dup2\n        /* \"#utility.yul\":732:783   */\n      tag_255\n      jump\t// in\n    tag_320:\n        /* \"#utility.yul\":727:730   */\n      dup3\n        /* \"#utility.yul\":720:784   */\n      mstore\n        /* \"#utility.yul\":631:790   */\n      pop\n      pop\n      jump\t// out\n        /* \"#utility.yul\":796:1046   */\n    tag_29:\n        /* \"#utility.yul\":903:907   */\n      0x00\n        /* \"#utility.yul\":941:943   */\n      0x20\n        /* \"#utility.yul\":930:939   */\n      dup3\n        /* \"#utility.yul\":926:944   */\n      add\n        /* \"#utility.yul\":918:944   */\n      swap1\n      pop\n        /* \"#utility.yul\":954:1039   */\n      tag_322\n        /* \"#utility.yul\":1036:1037   */\n      0x00\n        /* \"#utility.yul\":1025:1034   */\n      dup4\n        /* \"#utility.yul\":1021:1038   */\n      add\n        /* \"#utility.yul\":1012:1018   */\n      dup5\n        /* \"#utility.yul\":954:1039   */\n      tag_256\n      jump\t// in\n    tag_322:\n        /* \"#utility.yul\":796:1046   */\n      swap3\n      swap2\n      pop\n      pop\n      jump\t// out\n        /* \"#utility.yul\":1052:1203   */\n    tag_257:\n        /* \"#utility.yul\":1127:1136   */\n      0x00\n        /* \"#utility.yul\":1160:1197   */\n      tag_324\n        /* \"#utility.yul\":1191:1196   */\n      dup3\n        /* \"#utility.yul\":1160:1197   */\n      tag_254\n      jump\t// in\n    tag_324:\n        /* \"#utility.yul\":1147:1197   */\n      swap1\n      pop\n        /* \"#utility.yul\":1052:1203   */\n      swap2\n      swap1\n      pop\n      jump\t// out\n        /* \"#utility.yul\":1209:1390   */\n    tag_258:\n        /* \"#utility.yul\":1321:1383   */\n      tag_326\n        /* \"#utility.yul\":1377:1382   */\n      dup2\n        /* \"#utility.yul\":1321:1383   */\n      tag_257\n      jump\t// in\n    tag_326:\n        /* \"#utility.yul\":1316:1319   */\n      dup3\n        /* \"#utility.yul\":1309:1384   */\n      mstore\n        /* \"#utility.yul\":1209:1390   */\n      pop\n      pop\n      jump\t// out\n        /* \"#utility.yul\":1396:1668   */\n    tag_33:\n        /* \"#utility.yul\":1514:1518   */\n      0x00\n        /* \"#utility.yul\":1552:1554   */\n      0x20\n        /* \"#utility.yul\":1541:1550   */\n      dup3\n        /* \"#utility.yul\":1537:1555   */\n      add\n        /* \"#utility.yul\":1529:1555   */\n      swap1\n      pop\n        /* \"#utility.yul\":1565:1661   */\n      tag_328\n        /* \"#utility.yul\":1658:1659   */\n      0x00\n        /* \"#utility.yul\":1647:1656   */\n      dup4\n        /* \"#utility.yul\":1643:1660   */\n      add\n        /* \"#utility.yul\":1634:1640   */\n      dup5\n        /* \"#utility.yul\":1565:1661   */\n      tag_258\n      jump\t// in\n    tag_328:\n        /* \"#utility.yul\":1396:1668   */\n      swap3\n      swap2\n      pop\n      pop\n      jump\t// out\n        /* \"#utility.yul\":1674:1828   */\n    tag_259:\n        /* \"#utility.yul\":1752:1761   */\n      0x00\n        /* \"#utility.yul\":1785:1822   */\n      tag_330\n        /* \"#utility.yul\":1816:1821   */\n      dup3\n        /* \"#utility.yul\":1785:1822   */\n      tag_254\n      jump\t// in\n    tag_330:\n        /* \"#utility.yul\":1772:1822   */\n      swap1\n      pop\n        /* \"#utility.yul\":1674:1828   */\n      swap2\n      swap1\n      pop\n      jump\t// out\n        /* \"#utility.yul\":1834:2021   */\n    tag_260:\n        /* \"#utility.yul\":1949:2014   */\n      tag_332\n        /* \"#utility.yul\":2008:2013   */\n      dup2\n        /* \"#utility.yul\":1949:2014   */\n      tag_259\n      jump\t// in\n    tag_332:\n        /* \"#utility.yul\":1944:1947   */\n      dup3\n        /* \"#utility.yul\":1937:2015   */\n      mstore\n        /* \"#utility.yul\":1834:2021   */\n      pop\n      pop\n      jump\t// out\n        /* \"#utility.yul\":2027:2305   */\n    tag_37:\n        /* \"#utility.yul\":2148:2152   */\n      0x00\n        /* \"#utility.yul\":2186:2188   */\n      0x20\n        /* \"#utility.yul\":2175:2184   */\n      dup3\n        /* \"#utility.yul\":2171:2189   */\n      add\n        /* \"#utility.yul\":2163:2189   */\n      swap1\n      pop\n        /* \"#utility.yul\":2199:2298   */\n      tag_334\n        /* \"#utility.yul\":2295:2296   */\n      0x00\n        /* \"#utility.yul\":2284:2293   */\n      dup4\n        /* \"#utility.yul\":2280:2297   */\n      add\n        /* \"#utility.yul\":2271:2277   */\n      dup5\n        /* \"#utility.yul\":2199:2298   */\n      tag_260\n      jump\t// in\n    tag_334:\n        /* \"#utility.yul\":2027:2305   */\n      swap3\n      swap2\n      pop\n      pop\n      jump\t// out\n        /* \"#utility.yul\":2311:2388   */\n    tag_261:\n        /* \"#utility.yul\":2348:2355   */\n      0x00\n        /* \"#utility.yul\":2377:2382   */\n      dup2\n        /* \"#utility.yul\":2366:2382   */\n      swap1\n      pop\n        /* \"#utility.yul\":2311:2388   */\n      swap2\n      swap1\n      pop\n      jump\t// out\n        /* \"#utility.yul\":2394:2512   */\n    tag_262:\n        /* \"#utility.yul\":2481:2505   */\n      tag_337\n        /* \"#utility.yul\":2499:2504   */\n      dup2\n        /* \"#utility.yul\":2481:2505   */\n      tag_261\n      jump\t// in\n    tag_337:\n        /* \"#utility.yul\":2476:2479   */\n      dup3\n        /* \"#utility.yul\":2469:2506   */\n      mstore\n        /* \"#utility.yul\":2394:2512   */\n      pop\n      pop\n      jump\t// out\n        /* \"#utility.yul\":2518:2740   */\n    tag_41:\n        /* \"#utility.yul\":2611:2615   */\n      0x00\n        /* \"#utility.yul\":2649:2651   */\n      0x20\n        /* \"#utility.yul\":2638:2647   */\n      dup3\n        /* \"#utility.yul\":2634:2652   */\n      add\n        /* \"#utility.yul\":2626:2652   */\n      swap1\n      pop\n        /* \"#utility.yul\":2662:2733   */\n      tag_339\n        /* \"#utility.yul\":2730:2731   */\n      0x00\n        /* \"#utility.yul\":2719:2728   */\n      dup4\n        /* \"#utility.yul\":2715:2732   */\n      add\n        /* \"#utility.yul\":2706:2712   */\n      dup5\n        /* \"#utility.yul\":2662:2733   */\n      tag_262\n      jump\t// in\n    tag_339:\n        /* \"#utility.yul\":2518:2740   */\n      swap3\n      swap2\n      pop\n      pop\n      jump\t// out\n        /* \"#utility.yul\":2827:2944   */\n    tag_264:\n        /* \"#utility.yul\":2936:2937   */\n      0x00\n        /* \"#utility.yul\":2933:2934   */\n      dup1\n        /* \"#utility.yul\":2926:2938   */\n      revert\n        /* \"#utility.yul\":3073:3195   */\n    tag_266:\n        /* \"#utility.yul\":3146:3170   */\n      tag_344\n        /* \"#utility.yul\":3164:3169   */\n      dup2\n        /* \"#utility.yul\":3146:3170   */\n      tag_261\n      jump\t// in\n    tag_344:\n        /* \"#utility.yul\":3139:3144   */\n      dup2\n        /* \"#utility.yul\":3136:3171   */\n      eq\n        /* \"#utility.yul\":3126:3189   */\n      tag_345\n      jumpi\n        /* \"#utility.yul\":3185:3186   */\n      0x00\n        /* \"#utility.yul\":3182:3183   */\n      dup1\n        /* \"#utility.yul\":3175:3187   */\n      revert\n        /* \"#utility.yul\":3126:3189   */\n    tag_345:\n        /* \"#utility.yul\":3073:3195   */\n      pop\n      jump\t// out\n        /* \"#utility.yul\":3201:3340   */\n    tag_267:\n        /* \"#utility.yul\":3247:3252   */\n      0x00\n        /* \"#utility.yul\":3285:3291   */\n      dup2\n        /* \"#utility.yul\":3272:3292   */\n      calldataload\n        /* \"#utility.yul\":3263:3292   */\n      swap1\n      pop\n        /* \"#utility.yul\":3301:3334   */\n      tag_347\n        /* \"#utility.yul\":3328:3333   */\n      dup2\n        /* \"#utility.yul\":3301:3334   */\n      tag_266\n      jump\t// in\n    tag_347:\n        /* \"#utility.yul\":3201:3340   */\n      swap3\n      swap2\n      pop\n      pop\n      jump\t// out\n        /* \"#utility.yul\":3346:3675   */\n    tag_44:\n        /* \"#utility.yul\":3405:3411   */\n      0x00\n        /* \"#utility.yul\":3454:3456   */\n      0x20\n        /* \"#utility.yul\":3442:3451   */\n      dup3\n        /* \"#utility.yul\":3433:3440   */\n      dup5\n        /* \"#utility.yul\":3429:3452   */\n      sub\n        /* \"#utility.yul\":3425:3457   */\n      slt\n        /* \"#utility.yul\":3422:3541   */\n      iszero\n      tag_349\n      jumpi\n        /* \"#utility.yul\":3460:3539   */\n      tag_350\n      tag_264\n      jump\t// in\n    tag_350:\n        /* \"#utility.yul\":3422:3541   */\n    tag_349:\n        /* \"#utility.yul\":3580:3581   */\n      0x00\n        /* \"#utility.yul\":3605:3658   */\n      tag_351\n        /* \"#utility.yul\":3650:3657   */\n      dup5\n        /* \"#utility.yul\":3641:3647   */\n      dup3\n        /* \"#utility.yul\":3630:3639   */\n      dup6\n        /* \"#utility.yul\":3626:3648   */\n      add\n        /* \"#utility.yul\":3605:3658   */\n      tag_267\n      jump\t// in\n    tag_351:\n        /* \"#utility.yul\":3595:3658   */\n      swap2\n      pop\n        /* \"#utility.yul\":3551:3668   */\n      pop\n        /* \"#utility.yul\":3346:3675   */\n      swap3\n      swap2\n      pop\n      pop\n      jump\t// out\n        /* \"#utility.yul\":3681:3777   */\n    tag_268:\n        /* \"#utility.yul\":3718:3725   */\n      0x00\n        /* \"#utility.yul\":3747:3771   */\n      tag_353\n        /* \"#utility.yul\":3765:3770   */\n      dup3\n        /* \"#utility.yul\":3747:3771   */\n      tag_251\n      jump\t// in\n    tag_353:\n        /* \"#utility.yul\":3736:3771   */\n      swap1\n      pop\n        /* \"#utility.yul\":3681:3777   */\n      swap2\n      swap1\n      pop\n      jump\t// out\n        /* \"#utility.yul\":3783:3905   */\n    tag_269:\n        /* \"#utility.yul\":3856:3880   */\n      tag_355\n        /* \"#utility.yul\":3874:3879   */\n      dup2\n        /* \"#utility.yul\":3856:3880   */\n      tag_268\n      jump\t// in\n    tag_355:\n        /* \"#utility.yul\":3849:3854   */\n      dup2\n        /* \"#utility.yul\":3846:3881   */\n      eq\n        /* \"#utility.yul\":3836:3899   */\n      tag_356\n      jumpi\n        /* \"#utility.yul\":3895:3896   */\n      0x00\n        /* \"#utility.yul\":3892:3893   */\n      dup1\n        /* \"#utility.yul\":3885:3897   */\n      revert\n        /* \"#utility.yul\":3836:3899   */\n    tag_356:\n        /* \"#utility.yul\":3783:3905   */\n      pop\n      jump\t// out\n        /* \"#utility.yul\":3911:4050   */\n    tag_270:\n        /* \"#utility.yul\":3957:3962   */\n      0x00\n        /* \"#utility.yul\":3995:4001   */\n      dup2\n        /* \"#utility.yul\":3982:4002   */\n      calldataload\n        /* \"#utility.yul\":3973:4002   */\n      swap1\n      pop\n        /* \"#utility.yul\":4011:4044   */\n      tag_358\n        /* \"#utility.yul\":4038:4043   */\n      dup2\n        /* \"#utility.yul\":4011:4044   */\n      tag_269\n      jump\t// in\n    tag_358:\n        /* \"#utility.yul\":3911:4050   */\n      swap3\n      swap2\n      pop\n      pop\n      jump\t// out\n        /* \"#utility.yul\":4056:4385   */\n    tag_59:\n        /* \"#utility.yul\":4115:4121   */\n      0x00\n        /* \"#utility.yul\":4164:4166   */\n      0x20\n        /* \"#utility.yul\":4152:4161   */\n      dup3\n        /* \"#utility.yul\":4143:4150   */\n      dup5\n        /* \"#utility.yul\":4139:4162   */\n      sub\n        /* \"#utility.yul\":4135:4167   */\n      slt\n        /* \"#utility.yul\":4132:4251   */\n      iszero\n      tag_360\n      jumpi\n        /* \"#utility.yul\":4170:4249   */\n      tag_361\n      tag_264\n      jump\t// in\n    tag_361:\n        /* \"#utility.yul\":4132:4251   */\n    tag_360:\n        /* \"#utility.yul\":4290:4291   */\n      0x00\n        /* \"#utility.yul\":4315:4368   */\n      tag_362\n        /* \"#utility.yul\":4360:4367   */\n      dup5\n        /* \"#utility.yul\":4351:4357   */\n      dup3\n        /* \"#utility.yul\":4340:4349   */\n      dup6\n        /* \"#utility.yul\":4336:4358   */\n      add\n        /* \"#utility.yul\":4315:4368   */\n      tag_270\n      jump\t// in\n    tag_362:\n        /* \"#utility.yul\":4305:4368   */\n      swap2\n      pop\n        /* \"#utility.yul\":4261:4378   */\n      pop\n        /* \"#utility.yul\":4056:4385   */\n      swap3\n      swap2\n      pop\n      pop\n      jump\t// out\n        /* \"#utility.yul\":4391:4509   */\n    tag_271:\n        /* \"#utility.yul\":4478:4502   */\n      tag_364\n        /* \"#utility.yul\":4496:4501   */\n      dup2\n        /* \"#utility.yul\":4478:4502   */\n      tag_268\n      jump\t// in\n    tag_364:\n        /* \"#utility.yul\":4473:4476   */\n      dup3\n        /* \"#utility.yul\":4466:4503   */\n      mstore\n        /* \"#utility.yul\":4391:4509   */\n      pop\n      pop\n      jump\t// out\n        /* \"#utility.yul\":4515:4737   */\n    tag_68:\n        /* \"#utility.yul\":4608:4612   */\n      0x00\n        /* \"#utility.yul\":4646:4648   */\n      0x20\n        /* \"#utility.yul\":4635:4644   */\n      dup3\n        /* \"#utility.yul\":4631:4649   */\n      add\n        /* \"#utility.yul\":4623:4649   */\n      swap1\n      pop\n        /* \"#utility.yul\":4659:4730   */\n      tag_366\n        /* \"#utility.yul\":4727:4728   */\n      0x00\n        /* \"#utility.yul\":4716:4725   */\n      dup4\n        /* \"#utility.yul\":4712:4729   */\n      add\n        /* \"#utility.yul\":4703:4709   */\n      dup5\n        /* \"#utility.yul\":4659:4730   */\n      tag_271\n      jump\t// in\n    tag_366:\n        /* \"#utility.yul\":4515:4737   */\n      swap3\n      swap2\n      pop\n      pop\n      jump\t// out\n        /* \"#utility.yul\":4743:4833   */\n    tag_272:\n        /* \"#utility.yul\":4777:4784   */\n      0x00\n        /* \"#utility.yul\":4820:4825   */\n      dup2\n        /* \"#utility.yul\":4813:4826   */\n      iszero\n        /* \"#utility.yul\":4806:4827   */\n      iszero\n        /* \"#utility.yul\":4795:4827   */\n      swap1\n      pop\n        /* \"#utility.yul\":4743:4833   */\n      swap2\n      swap1\n      pop\n      jump\t// out\n        /* \"#utility.yul\":4839:4948   */\n    tag_273:\n        /* \"#utility.yul\":4920:4941   */\n      tag_369\n        /* \"#utility.yul\":4935:4940   */\n      dup2\n        /* \"#utility.yul\":4920:4941   */\n      tag_272\n      jump\t// in\n    tag_369:\n        /* \"#utility.yul\":4915:4918   */\n      dup3\n        /* \"#utility.yul\":4908:4942   */\n      mstore\n        /* \"#utility.yul\":4839:4948   */\n      pop\n      pop\n      jump\t// out\n        /* \"#utility.yul\":4954:5705   */\n    tag_85:\n        /* \"#utility.yul\":5175:5179   */\n      0x00\n        /* \"#utility.yul\":5213:5216   */\n      0xc0\n        /* \"#utility.yul\":5202:5211   */\n      dup3\n        /* \"#utility.yul\":5198:5217   */\n      add\n        /* \"#utility.yul\":5190:5217   */\n      swap1\n      pop\n        /* \"#utility.yul\":5227:5298   */\n      tag_371\n        /* \"#utility.yul\":5295:5296   */\n      0x00\n        /* \"#utility.yul\":5284:5293   */\n      dup4\n        /* \"#utility.yul\":5280:5297   */\n      add\n        /* \"#utility.yul\":5271:5277   */\n      dup10\n        /* \"#utility.yul\":5227:5298   */\n      tag_262\n      jump\t// in\n    tag_371:\n        /* \"#utility.yul\":5308:5380   */\n      tag_372\n        /* \"#utility.yul\":5376:5378   */\n      0x20\n        /* \"#utility.yul\":5365:5374   */\n      dup4\n        /* \"#utility.yul\":5361:5379   */\n      add\n        /* \"#utility.yul\":5352:5358   */\n      dup9\n        /* \"#utility.yul\":5308:5380   */\n      tag_262\n      jump\t// in\n    tag_372:\n        /* \"#utility.yul\":5390:5462   */\n      tag_373\n        /* \"#utility.yul\":5458:5460   */\n      0x40\n        /* \"#utility.yul\":5447:5456   */\n      dup4\n        /* \"#utility.yul\":5443:5461   */\n      add\n        /* \"#utility.yul\":5434:5440   */\n      dup8\n        /* \"#utility.yul\":5390:5462   */\n      tag_262\n      jump\t// in\n    tag_373:\n        /* \"#utility.yul\":5472:5544   */\n      tag_374\n        /* \"#utility.yul\":5540:5542   */\n      0x60\n        /* \"#utility.yul\":5529:5538   */\n      dup4\n        /* \"#utility.yul\":5525:5543   */\n      add\n        /* \"#utility.yul\":5516:5522   */\n      dup7\n        /* \"#utility.yul\":5472:5544   */\n      tag_262\n      jump\t// in\n    tag_374:\n        /* \"#utility.yul\":5554:5621   */\n      tag_375\n        /* \"#utility.yul\":5616:5619   */\n      0x80\n        /* \"#utility.yul\":5605:5614   */\n      dup4\n        /* \"#utility.yul\":5601:5620   */\n      add\n        /* \"#utility.yul\":5592:5598   */\n      dup6\n        /* \"#utility.yul\":5554:5621   */\n      tag_273\n      jump\t// in\n    tag_375:\n        /* \"#utility.yul\":5631:5698   */\n      tag_376\n        /* \"#utility.yul\":5693:5696   */\n      0xa0\n        /* \"#utility.yul\":5682:5691   */\n      dup4\n        /* \"#utility.yul\":5678:5697   */\n      add\n        /* \"#utility.yul\":5669:5675   */\n      dup5\n        /* \"#utility.yul\":5631:5698   */\n      tag_273\n      jump\t// in\n    tag_376:\n        /* \"#utility.yul\":4954:5705   */\n      swap8\n      swap7\n      pop\n      pop\n      pop\n      pop\n      pop\n      pop\n      pop\n      jump\t// out\n        /* \"#utility.yul\":5711:5880   */\n    tag_274:\n        /* \"#utility.yul\":5795:5806   */\n      0x00\n        /* \"#utility.yul\":5829:5835   */\n      dup3\n        /* \"#utility.yul\":5824:5827   */\n      dup3\n        /* \"#utility.yul\":5817:5836   */\n      mstore\n        /* \"#utility.yul\":5869:5873   */\n      0x20\n        /* \"#utility.yul\":5864:5867   */\n      dup3\n        /* \"#utility.yul\":5860:5874   */\n      add\n        /* \"#utility.yul\":5845:5874   */\n      swap1\n      pop\n        /* \"#utility.yul\":5711:5880   */\n      swap3\n      swap2\n      pop\n      pop\n      jump\t// out\n        /* \"#utility.yul\":5886:6062   */\n    tag_275:\n        /* \"#utility.yul\":6026:6054   */\n      0x4c6f616e4d616e616765723a20496e76616c696420726174696f000000000000\n        /* \"#utility.yul\":6022:6023   */\n      0x00\n        /* \"#utility.yul\":6014:6020   */\n      dup3\n        /* \"#utility.yul\":6010:6024   */\n      add\n        /* \"#utility.yul\":6003:6055   */\n      mstore\n        /* \"#utility.yul\":5886:6062   */\n      pop\n      jump\t// out\n        /* \"#utility.yul\":6068:6434   */\n    tag_276:\n        /* \"#utility.yul\":6210:6213   */\n      0x00\n        /* \"#utility.yul\":6231:6298   */\n      tag_380\n        /* \"#utility.yul\":6295:6297   */\n      0x1a\n        /* \"#utility.yul\":6290:6293   */\n      dup4\n        /* \"#utility.yul\":6231:6298   */\n      tag_274\n      jump\t// in\n    tag_380:\n        /* \"#utility.yul\":6224:6298   */\n      swap2\n      pop\n        /* \"#utility.yul\":6307:6400   */\n      tag_381\n        /* \"#utility.yul\":6396:6399   */\n      dup3\n        /* \"#utility.yul\":6307:6400   */\n      tag_275\n      jump\t// in\n    tag_381:\n        /* \"#utility.yul\":6425:6427   */\n      0x20\n        /* \"#utility.yul\":6420:6423   */\n      dup3\n        /* \"#utility.yul\":6416:6428   */\n      add\n        /* \"#utility.yul\":6409:6428   */\n      swap1\n      pop\n        /* \"#utility.yul\":6068:6434   */\n      swap2\n      swap1\n      pop\n      jump\t// out\n        /* \"#utility.yul\":6440:6859   */\n    tag_101:\n        /* \"#utility.yul\":6606:6610   */\n      0x00\n        /* \"#utility.yul\":6644:6646   */\n      0x20\n        /* \"#utility.yul\":6633:6642   */\n      dup3\n        /* \"#utility.yul\":6629:6647   */\n      add\n        /* \"#utility.yul\":6621:6647   */\n      swap1\n      pop\n        /* \"#utility.yul\":6693:6702   */\n      dup2\n        /* \"#utility.yul\":6687:6691   */\n      dup2\n        /* \"#utility.yul\":6683:6703   */\n      sub\n        /* \"#utility.yul\":6679:6680   */\n      0x00\n        /* \"#utility.yul\":6668:6677   */\n      dup4\n        /* \"#utility.yul\":6664:6681   */\n      add\n        /* \"#utility.yul\":6657:6704   */\n      mstore\n        /* \"#utility.yul\":6721:6852   */\n      tag_383\n        /* \"#utility.yul\":6847:6851   */\n      dup2\n        /* \"#utility.yul\":6721:6852   */\n      tag_276\n      jump\t// in\n    tag_383:\n        /* \"#utility.yul\":6713:6852   */\n      swap1\n      pop\n        /* \"#utility.yul\":6440:6859   */\n      swap2\n      swap1\n      pop\n      jump\t// out\n        /* \"#utility.yul\":6865:7008   */\n    tag_277:\n        /* \"#utility.yul\":6922:6927   */\n      0x00\n        /* \"#utility.yul\":6953:6959   */\n      dup2\n        /* \"#utility.yul\":6947:6960   */\n      mload\n        /* \"#utility.yul\":6938:6960   */\n      swap1\n      pop\n        /* \"#utility.yul\":6969:7002   */\n      tag_385\n        /* \"#utility.yul\":6996:7001   */\n      dup2\n        /* \"#utility.yul\":6969:7002   */\n      tag_266\n      jump\t// in\n    tag_385:\n        /* \"#utility.yul\":6865:7008   */\n      swap3\n      swap2\n      pop\n      pop\n      jump\t// out\n        /* \"#utility.yul\":7014:7365   */\n    tag_107:\n        /* \"#utility.yul\":7084:7090   */\n      0x00\n        /* \"#utility.yul\":7133:7135   */\n      0x20\n        /* \"#utility.yul\":7121:7130   */\n      dup3\n        /* \"#utility.yul\":7112:7119   */\n      dup5\n        /* \"#utility.yul\":7108:7131   */\n      sub\n        /* \"#utility.yul\":7104:7136   */\n      slt\n        /* \"#utility.yul\":7101:7220   */\n      iszero\n      tag_387\n      jumpi\n        /* \"#utility.yul\":7139:7218   */\n      tag_388\n      tag_264\n      jump\t// in\n    tag_388:\n        /* \"#utility.yul\":7101:7220   */\n    tag_387:\n        /* \"#utility.yul\":7259:7260   */\n      0x00\n        /* \"#utility.yul\":7284:7348   */\n      tag_389\n        /* \"#utility.yul\":7340:7347   */\n      dup5\n        /* \"#utility.yul\":7331:7337   */\n      dup3\n        /* \"#utility.yul\":7320:7329   */\n      dup6\n        /* \"#utility.yul\":7316:7338   */\n      add\n        /* \"#utility.yul\":7284:7348   */\n      tag_277\n      jump\t// in\n    tag_389:\n        /* \"#utility.yul\":7274:7348   */\n      swap2\n      pop\n        /* \"#utility.yul\":7230:7358   */\n      pop\n        /* \"#utility.yul\":7014:7365   */\n      swap3\n      swap2\n      pop\n      pop\n      jump\t// out\n        /* \"#utility.yul\":7371:7551   */\n    tag_278:\n        /* \"#utility.yul\":7419:7496   */\n      0x4e487b7100000000000000000000000000000000000000000000000000000000\n        /* \"#utility.yul\":7416:7417   */\n      0x00\n        /* \"#utility.yul\":7409:7497   */\n      mstore\n        /* \"#utility.yul\":7516:7520   */\n      0x11\n        /* \"#utility.yul\":7513:7514   */\n      0x04\n        /* \"#utility.yul\":7506:7521   */\n      mstore\n        /* \"#utility.yul\":7540:7544   */\n      0x24\n        /* \"#utility.yul\":7537:7538   */\n      0x00\n        /* \"#utility.yul\":7530:7545   */\n      revert\n        /* \"#utility.yul\":7557:7967   */\n    tag_109:\n        /* \"#utility.yul\":7597:7604   */\n      0x00\n        /* \"#utility.yul\":7620:7640   */\n      tag_392\n        /* \"#utility.yul\":7638:7639   */\n      dup3\n        /* \"#utility.yul\":7620:7640   */\n      tag_261\n      jump\t// in\n    tag_392:\n        /* \"#utility.yul\":7615:7640   */\n      swap2\n      pop\n        /* \"#utility.yul\":7654:7674   */\n      tag_393\n        /* \"#utility.yul\":7672:7673   */\n      dup4\n        /* \"#utility.yul\":7654:7674   */\n      tag_261\n      jump\t// in\n    tag_393:\n        /* \"#utility.yul\":7649:7674   */\n      swap3\n      pop\n        /* \"#utility.yul\":7709:7710   */\n      dup3\n        /* \"#utility.yul\":7706:7707   */\n      dup3\n        /* \"#utility.yul\":7702:7711   */\n      mul\n        /* \"#utility.yul\":7731:7761   */\n      tag_394\n        /* \"#utility.yul\":7749:7760   */\n      dup2\n        /* \"#utility.yul\":7731:7761   */\n      tag_261\n      jump\t// in\n    tag_394:\n        /* \"#utility.yul\":7720:7761   */\n      swap2\n      pop\n        /* \"#utility.yul\":7910:7911   */\n      dup3\n        /* \"#utility.yul\":7901:7908   */\n      dup3\n        /* \"#utility.yul\":7897:7912   */\n      div\n        /* \"#utility.yul\":7894:7895   */\n      dup5\n        /* \"#utility.yul\":7891:7913   */\n      eq\n        /* \"#utility.yul\":7871:7872   */\n      dup4\n        /* \"#utility.yul\":7864:7873   */\n      iszero\n        /* \"#utility.yul\":7844:7927   */\n      or\n        /* \"#utility.yul\":7821:7960   */\n      tag_395\n      jumpi\n        /* \"#utility.yul\":7940:7958   */\n      tag_396\n      tag_278\n      jump\t// in\n    tag_396:\n        /* \"#utility.yul\":7821:7960   */\n    tag_395:\n        /* \"#utility.yul\":7605:7967   */\n      pop\n        /* \"#utility.yul\":7557:7967   */\n      swap3\n      swap2\n      pop\n      pop\n      jump\t// out\n        /* \"#utility.yul\":7973:8153   */\n    tag_279:\n        /* \"#utility.yul\":8021:8098   */\n      0x4e487b7100000000000000000000000000000000000000000000000000000000\n        /* \"#utility.yul\":8018:8019   */\n      0x00\n        /* \"#utility.yul\":8011:8099   */\n      mstore\n        /* \"#utility.yul\":8118:8122   */\n      0x12\n        /* \"#utility.yul\":8115:8116   */\n      0x04\n        /* \"#utility.yul\":8108:8123   */\n      mstore\n        /* \"#utility.yul\":8142:8146   */\n      0x24\n        /* \"#utility.yul\":8139:8140   */\n      0x00\n        /* \"#utility.yul\":8132:8147   */\n      revert\n        /* \"#utility.yul\":8159:8344   */\n    tag_111:\n        /* \"#utility.yul\":8199:8200   */\n      0x00\n        /* \"#utility.yul\":8216:8236   */\n      tag_399\n        /* \"#utility.yul\":8234:8235   */\n      dup3\n        /* \"#utility.yul\":8216:8236   */\n      tag_261\n      jump\t// in\n    tag_399:\n        /* \"#utility.yul\":8211:8236   */\n      swap2\n      pop\n        /* \"#utility.yul\":8250:8270   */\n      tag_400\n        /* \"#utility.yul\":8268:8269   */\n      dup4\n        /* \"#utility.yul\":8250:8270   */\n      tag_261\n      jump\t// in\n    tag_400:\n        /* \"#utility.yul\":8245:8270   */\n      swap3\n      pop\n        /* \"#utility.yul\":8289:8290   */\n      dup3\n        /* \"#utility.yul\":8279:8314   */\n      tag_401\n      jumpi\n        /* \"#utility.yul\":8294:8312   */\n      tag_402\n      tag_279\n      jump\t// in\n    tag_402:\n        /* \"#utility.yul\":8279:8314   */\n    tag_401:\n        /* \"#utility.yul\":8336:8337   */\n      dup3\n        /* \"#utility.yul\":8333:8334   */\n      dup3\n        /* \"#utility.yul\":8329:8338   */\n      div\n        /* \"#utility.yul\":8324:8338   */\n      swap1\n      pop\n        /* \"#utility.yul\":8159:8344   */\n      swap3\n      swap2\n      pop\n      pop\n      jump\t// out\n        /* \"#utility.yul\":8350:8584   */\n    tag_280:\n        /* \"#utility.yul\":8490:8524   */\n      0x4c6f616e4d616e616765723a204c6f616e20616d6f756e74206d757374206265\n        /* \"#utility.yul\":8486:8487   */\n      0x00\n        /* \"#utility.yul\":8478:8484   */\n      dup3\n        /* \"#utility.yul\":8474:8488   */\n      add\n        /* \"#utility.yul\":8467:8525   */\n      mstore\n        /* \"#utility.yul\":8559:8576   */\n      0x2067726561746572207468616e20300000000000000000000000000000000000\n        /* \"#utility.yul\":8554:8556   */\n      0x20\n        /* \"#utility.yul\":8546:8552   */\n      dup3\n        /* \"#utility.yul\":8542:8557   */\n      add\n        /* \"#utility.yul\":8535:8577   */\n      mstore\n        /* \"#utility.yul\":8350:8584   */\n      pop\n      jump\t// out\n        /* \"#utility.yul\":8590:8956   */\n    tag_281:\n        /* \"#utility.yul\":8732:8735   */\n      0x00\n        /* \"#utility.yul\":8753:8820   */\n      tag_405\n        /* \"#utility.yul\":8817:8819   */\n      0x2f\n        /* \"#utility.yul\":8812:8815   */\n      dup4\n        /* \"#utility.yul\":8753:8820   */\n      tag_274\n      jump\t// in\n    tag_405:\n        /* \"#utility.yul\":8746:8820   */\n      swap2\n      pop\n        /* \"#utility.yul\":8829:8922   */\n      tag_406\n        /* \"#utility.yul\":8918:8921   */\n      dup3\n        /* \"#utility.yul\":8829:8922   */\n      tag_280\n      jump\t// in\n    tag_406:\n        /* \"#utility.yul\":8947:8949   */\n      0x40\n        /* \"#utility.yul\":8942:8945   */\n      dup3\n        /* \"#utility.yul\":8938:8950   */\n      add\n        /* \"#utility.yul\":8931:8950   */\n      swap1\n      pop\n        /* \"#utility.yul\":8590:8956   */\n      swap2\n      swap1\n      pop\n      jump\t// out\n        /* \"#utility.yul\":8962:9381   */\n    tag_130:\n        /* \"#utility.yul\":9128:9132   */\n      0x00\n        /* \"#utility.yul\":9166:9168   */\n      0x20\n        /* \"#utility.yul\":9155:9164   */\n      dup3\n        /* \"#utility.yul\":9151:9169   */\n      add\n        /* \"#utility.yul\":9143:9169   */\n      swap1\n      pop\n        /* \"#utility.yul\":9215:9224   */\n      dup2\n        /* \"#utility.yul\":9209:9213   */\n      dup2\n        /* \"#utility.yul\":9205:9225   */\n      sub\n        /* \"#utility.yul\":9201:9202   */\n      0x00\n        /* \"#utility.yul\":9190:9199   */\n      dup4\n        /* \"#utility.yul\":9186:9203   */\n      add\n        /* \"#utility.yul\":9179:9226   */\n      mstore\n        /* \"#utility.yul\":9243:9374   */\n      tag_408\n        /* \"#utility.yul\":9369:9373   */\n      dup2\n        /* \"#utility.yul\":9243:9374   */\n      tag_281\n      jump\t// in\n    tag_408:\n        /* \"#utility.yul\":9235:9374   */\n      swap1\n      pop\n        /* \"#utility.yul\":8962:9381   */\n      swap2\n      swap1\n      pop\n      jump\t// out\n        /* \"#utility.yul\":9387:9621   */\n    tag_282:\n        /* \"#utility.yul\":9527:9561   */\n      0x4c6f616e4d616e616765723a204578697374696e67206c6f616e206d75737420\n        /* \"#utility.yul\":9523:9524   */\n      0x00\n        /* \"#utility.yul\":9515:9521   */\n      dup3\n        /* \"#utility.yul\":9511:9525   */\n      add\n        /* \"#utility.yul\":9504:9562   */\n      mstore\n        /* \"#utility.yul\":9596:9613   */\n      0x6265207265706169642066697273740000000000000000000000000000000000\n        /* \"#utility.yul\":9591:9593   */\n      0x20\n        /* \"#utility.yul\":9583:9589   */\n      dup3\n        /* \"#utility.yul\":9579:9594   */\n      add\n        /* \"#utility.yul\":9572:9614   */\n      mstore\n        /* \"#utility.yul\":9387:9621   */\n      pop\n      jump\t// out\n        /* \"#utility.yul\":9627:9993   */\n    tag_283:\n        /* \"#utility.yul\":9769:9772   */\n      0x00\n        /* \"#utility.yul\":9790:9857   */\n      tag_411\n        /* \"#utility.yul\":9854:9856   */\n      0x2f\n        /* \"#utility.yul\":9849:9852   */\n      dup4\n        /* \"#utility.yul\":9790:9857   */\n      tag_274\n      jump\t// in\n    tag_411:\n        /* \"#utility.yul\":9783:9857   */\n      swap2\n      pop\n        /* \"#utility.yul\":9866:9959   */\n      tag_412\n        /* \"#utility.yul\":9955:9958   */\n      dup3\n        /* \"#utility.yul\":9866:9959   */\n      tag_282\n      jump\t// in\n    tag_412:\n        /* \"#utility.yul\":9984:9986   */\n      0x40\n        /* \"#utility.yul\":9979:9982   */\n      dup3\n        /* \"#utility.yul\":9975:9987   */\n      add\n        /* \"#utility.yul\":9968:9987   */\n      swap1\n      pop\n        /* \"#utility.yul\":9627:9993   */\n      swap2\n      swap1\n      pop\n      jump\t// out\n        /* \"#utility.yul\":9999:10418   */\n    tag_133:\n        /* \"#utility.yul\":10165:10169   */\n      0x00\n        /* \"#utility.yul\":10203:10205   */\n      0x20\n        /* \"#utility.yul\":10192:10201   */\n      dup3\n        /* \"#utility.yul\":10188:10206   */\n      add\n        /* \"#utility.yul\":10180:10206   */\n      swap1\n      pop\n        /* \"#utility.yul\":10252:10261   */\n      dup2\n        /* \"#utility.yul\":10246:10250   */\n      dup2\n        /* \"#utility.yul\":10242:10262   */\n      sub\n        /* \"#utility.yul\":10238:10239   */\n      0x00\n        /* \"#utility.yul\":10227:10236   */\n      dup4\n        /* \"#utility.yul\":10223:10240   */\n      add\n        /* \"#utility.yul\":10216:10263   */\n      mstore\n        /* \"#utility.yul\":10280:10411   */\n      tag_414\n        /* \"#utility.yul\":10406:10410   */\n      dup2\n        /* \"#utility.yul\":10280:10411   */\n      tag_283\n      jump\t// in\n    tag_414:\n        /* \"#utility.yul\":10272:10411   */\n      swap1\n      pop\n        /* \"#utility.yul\":9999:10418   */\n      swap2\n      swap1\n      pop\n      jump\t// out\n        /* \"#utility.yul\":10424:10647   */\n    tag_284:\n        /* \"#utility.yul\":10564:10598   */\n      0x4c6f616e4d616e616765723a204e6f20636f6c6c61746572616c20617661696c\n        /* \"#utility.yul\":10560:10561   */\n      0x00\n        /* \"#utility.yul\":10552:10558   */\n      dup3\n        /* \"#utility.yul\":10548:10562   */\n      add\n        /* \"#utility.yul\":10541:10599   */\n      mstore\n        /* \"#utility.yul\":10633:10639   */\n      0x61626c6500000000000000000000000000000000000000000000000000000000\n        /* \"#utility.yul\":10628:10630   */\n      0x20\n        /* \"#utility.yul\":10620:10626   */\n      dup3\n        /* \"#utility.yul\":10616:10631   */\n      add\n        /* \"#utility.yul\":10609:10640   */\n      mstore\n        /* \"#utility.yul\":10424:10647   */\n      pop\n      jump\t// out\n        /* \"#utility.yul\":10653:11019   */\n    tag_285:\n        /* \"#utility.yul\":10795:10798   */\n      0x00\n        /* \"#utility.yul\":10816:10883   */\n      tag_417\n        /* \"#utility.yul\":10880:10882   */\n      0x24\n        /* \"#utility.yul\":10875:10878   */\n      dup4\n        /* \"#utility.yul\":10816:10883   */\n      tag_274\n      jump\t// in\n    tag_417:\n        /* \"#utility.yul\":10809:10883   */\n      swap2\n      pop\n        /* \"#utility.yul\":10892:10985   */\n      tag_418\n        /* \"#utility.yul\":10981:10984   */\n      dup3\n        /* \"#utility.yul\":10892:10985   */\n      tag_284\n      jump\t// in\n    tag_418:\n        /* \"#utility.yul\":11010:11012   */\n      0x40\n        /* \"#utility.yul\":11005:11008   */\n      dup3\n        /* \"#utility.yul\":11001:11013   */\n      add\n        /* \"#utility.yul\":10994:11013   */\n      swap1\n      pop\n        /* \"#utility.yul\":10653:11019   */\n      swap2\n      swap1\n      pop\n      jump\t// out\n        /* \"#utility.yul\":11025:11444   */\n    tag_140:\n        /* \"#utility.yul\":11191:11195   */\n      0x00\n        /* \"#utility.yul\":11229:11231   */\n      0x20\n        /* \"#utility.yul\":11218:11227   */\n      dup3\n        /* \"#utility.yul\":11214:11232   */\n      add\n        /* \"#utility.yul\":11206:11232   */\n      swap1\n      pop\n        /* \"#utility.yul\":11278:11287   */\n      dup2\n        /* \"#utility.yul\":11272:11276   */\n      dup2\n        /* \"#utility.yul\":11268:11288   */\n      sub\n        /* \"#utility.yul\":11264:11265   */\n      0x00\n        /* \"#utility.yul\":11253:11262   */\n      dup4\n        /* \"#utility.yul\":11249:11266   */\n      add\n        /* \"#utility.yul\":11242:11289   */\n      mstore\n        /* \"#utility.yul\":11306:11437   */\n      tag_420\n        /* \"#utility.yul\":11432:11436   */\n      dup2\n        /* \"#utility.yul\":11306:11437   */\n      tag_285\n      jump\t// in\n    tag_420:\n        /* \"#utility.yul\":11298:11437   */\n      swap1\n      pop\n        /* \"#utility.yul\":11025:11444   */\n      swap2\n      swap1\n      pop\n      jump\t// out\n        /* \"#utility.yul\":11450:11699   */\n    tag_286:\n        /* \"#utility.yul\":11590:11624   */\n      0x4c6f616e4d616e616765723a20496e73756666696369656e7420636f6c6c6174\n        /* \"#utility.yul\":11586:11587   */\n      0x00\n        /* \"#utility.yul\":11578:11584   */\n      dup3\n        /* \"#utility.yul\":11574:11588   */\n      add\n        /* \"#utility.yul\":11567:11625   */\n      mstore\n        /* \"#utility.yul\":11659:11691   */\n      0x6572616c20666f7220726571756573746564206c6f616e20616d6f756e740000\n        /* \"#utility.yul\":11654:11656   */\n      0x20\n        /* \"#utility.yul\":11646:11652   */\n      dup3\n        /* \"#utility.yul\":11642:11657   */\n      add\n        /* \"#utility.yul\":11635:11692   */\n      mstore\n        /* \"#utility.yul\":11450:11699   */\n      pop\n      jump\t// out\n        /* \"#utility.yul\":11705:12071   */\n    tag_287:\n        /* \"#utility.yul\":11847:11850   */\n      0x00\n        /* \"#utility.yul\":11868:11935   */\n      tag_423\n        /* \"#utility.yul\":11932:11934   */\n      0x3e\n        /* \"#utility.yul\":11927:11930   */\n      dup4\n        /* \"#utility.yul\":11868:11935   */\n      tag_274\n      jump\t// in\n    tag_423:\n        /* \"#utility.yul\":11861:11935   */\n      swap2\n      pop\n        /* \"#utility.yul\":11944:12037   */\n      tag_424\n        /* \"#utility.yul\":12033:12036   */\n      dup3\n        /* \"#utility.yul\":11944:12037   */\n      tag_286\n      jump\t// in\n    tag_424:\n        /* \"#utility.yul\":12062:12064   */\n      0x40\n        /* \"#utility.yul\":12057:12060   */\n      dup3\n        /* \"#utility.yul\":12053:12065   */\n      add\n        /* \"#utility.yul\":12046:12065   */\n      swap1\n      pop\n        /* \"#utility.yul\":11705:12071   */\n      swap2\n      swap1\n      pop\n      jump\t// out\n        /* \"#utility.yul\":12077:12496   */\n    tag_145:\n        /* \"#utility.yul\":12243:12247   */\n      0x00\n        /* \"#utility.yul\":12281:12283   */\n      0x20\n        /* \"#utility.yul\":12270:12279   */\n      dup3\n        /* \"#utility.yul\":12266:12284   */\n      add\n        /* \"#utility.yul\":12258:12284   */\n      swap1\n      pop\n        /* \"#utility.yul\":12330:12339   */\n      dup2\n        /* \"#utility.yul\":12324:12328   */\n      dup2\n        /* \"#utility.yul\":12320:12340   */\n      sub\n        /* \"#utility.yul\":12316:12317   */\n      0x00\n        /* \"#utility.yul\":12305:12314   */\n      dup4\n        /* \"#utility.yul\":12301:12318   */\n      add\n        /* \"#utility.yul\":12294:12341   */\n      mstore\n        /* \"#utility.yul\":12358:12489   */\n      tag_426\n        /* \"#utility.yul\":12484:12488   */\n      dup2\n        /* \"#utility.yul\":12358:12489   */\n      tag_287\n      jump\t// in\n    tag_426:\n        /* \"#utility.yul\":12350:12489   */\n      swap1\n      pop\n        /* \"#utility.yul\":12077:12496   */\n      swap2\n      swap1\n      pop\n      jump\t// out\n        /* \"#utility.yul\":12502:12834   */\n    tag_147:\n        /* \"#utility.yul\":12623:12627   */\n      0x00\n        /* \"#utility.yul\":12661:12663   */\n      0x40\n        /* \"#utility.yul\":12650:12659   */\n      dup3\n        /* \"#utility.yul\":12646:12664   */\n      add\n        /* \"#utility.yul\":12638:12664   */\n      swap1\n      pop\n        /* \"#utility.yul\":12674:12745   */\n      tag_428\n        /* \"#utility.yul\":12742:12743   */\n      0x00\n        /* \"#utility.yul\":12731:12740   */\n      dup4\n        /* \"#utility.yul\":12727:12744   */\n      add\n        /* \"#utility.yul\":12718:12724   */\n      dup6\n        /* \"#utility.yul\":12674:12745   */\n      tag_271\n      jump\t// in\n    tag_428:\n        /* \"#utility.yul\":12755:12827   */\n      tag_429\n        /* \"#utility.yul\":12823:12825   */\n      0x20\n        /* \"#utility.yul\":12812:12821   */\n      dup4\n        /* \"#utility.yul\":12808:12826   */\n      add\n        /* \"#utility.yul\":12799:12805   */\n      dup5\n        /* \"#utility.yul\":12755:12827   */\n      tag_262\n      jump\t// in\n    tag_429:\n        /* \"#utility.yul\":12502:12834   */\n      swap4\n      swap3\n      pop\n      pop\n      pop\n      jump\t// out\n        /* \"#utility.yul\":12840:12956   */\n    tag_288:\n        /* \"#utility.yul\":12910:12931   */\n      tag_431\n        /* \"#utility.yul\":12925:12930   */\n      dup2\n        /* \"#utility.yul\":12910:12931   */\n      tag_272\n      jump\t// in\n    tag_431:\n        /* \"#utility.yul\":12903:12908   */\n      dup2\n        /* \"#utility.yul\":12900:12932   */\n      eq\n        /* \"#utility.yul\":12890:12950   */\n      tag_432\n      jumpi\n        /* \"#utility.yul\":12946:12947   */\n      0x00\n        /* \"#utility.yul\":12943:12944   */\n      dup1\n        /* \"#utility.yul\":12936:12948   */\n      revert\n        /* \"#utility.yul\":12890:12950   */\n    tag_432:\n        /* \"#utility.yul\":12840:12956   */\n      pop\n      jump\t// out\n        /* \"#utility.yul\":12962:13099   */\n    tag_289:\n        /* \"#utility.yul\":13016:13021   */\n      0x00\n        /* \"#utility.yul\":13047:13053   */\n      dup2\n        /* \"#utility.yul\":13041:13054   */\n      mload\n        /* \"#utility.yul\":13032:13054   */\n      swap1\n      pop\n        /* \"#utility.yul\":13063:13093   */\n      tag_434\n        /* \"#utility.yul\":13087:13092   */\n      dup2\n        /* \"#utility.yul\":13063:13093   */\n      tag_288\n      jump\t// in\n    tag_434:\n        /* \"#utility.yul\":12962:13099   */\n      swap3\n      swap2\n      pop\n      pop\n      jump\t// out\n        /* \"#utility.yul\":13105:13450   */\n    tag_151:\n        /* \"#utility.yul\":13172:13178   */\n      0x00\n        /* \"#utility.yul\":13221:13223   */\n      0x20\n        /* \"#utility.yul\":13209:13218   */\n      dup3\n        /* \"#utility.yul\":13200:13207   */\n      dup5\n        /* \"#utility.yul\":13196:13219   */\n      sub\n        /* \"#utility.yul\":13192:13224   */\n      slt\n        /* \"#utility.yul\":13189:13308   */\n      iszero\n      tag_436\n      jumpi\n        /* \"#utility.yul\":13227:13306   */\n      tag_437\n      tag_264\n      jump\t// in\n    tag_437:\n        /* \"#utility.yul\":13189:13308   */\n    tag_436:\n        /* \"#utility.yul\":13347:13348   */\n      0x00\n        /* \"#utility.yul\":13372:13433   */\n      tag_438\n        /* \"#utility.yul\":13425:13432   */\n      dup5\n        /* \"#utility.yul\":13416:13422   */\n      dup3\n        /* \"#utility.yul\":13405:13414   */\n      dup6\n        /* \"#utility.yul\":13401:13423   */\n      add\n        /* \"#utility.yul\":13372:13433   */\n      tag_289\n      jump\t// in\n    tag_438:\n        /* \"#utility.yul\":13362:13433   */\n      swap2\n      pop\n        /* \"#utility.yul\":13318:13443   */\n      pop\n        /* \"#utility.yul\":13105:13450   */\n      swap3\n      swap2\n      pop\n      pop\n      jump\t// out\n        /* \"#utility.yul\":13456:13676   */\n    tag_290:\n        /* \"#utility.yul\":13596:13630   */\n      0x4c6f616e4d616e616765723a204c6f616e207472616e73666572206661696c65\n        /* \"#utility.yul\":13592:13593   */\n      0x00\n        /* \"#utility.yul\":13584:13590   */\n      dup3\n        /* \"#utility.yul\":13580:13594   */\n      add\n        /* \"#utility.yul\":13573:13631   */\n      mstore\n        /* \"#utility.yul\":13665:13668   */\n      0x6400000000000000000000000000000000000000000000000000000000000000\n        /* \"#utility.yul\":13660:13662   */\n      0x20\n        /* \"#utility.yul\":13652:13658   */\n      dup3\n        /* \"#utility.yul\":13648:13663   */\n      add\n        /* \"#utility.yul\":13641:13669   */\n      mstore\n        /* \"#utility.yul\":13456:13676   */\n      pop\n      jump\t// out\n        /* \"#utility.yul\":13682:14048   */\n    tag_291:\n        /* \"#utility.yul\":13824:13827   */\n      0x00\n        /* \"#utility.yul\":13845:13912   */\n      tag_441\n        /* \"#utility.yul\":13909:13911   */\n      0x21\n        /* \"#utility.yul\":13904:13907   */\n      dup4\n        /* \"#utility.yul\":13845:13912   */\n      tag_274\n      jump\t// in\n    tag_441:\n        /* \"#utility.yul\":13838:13912   */\n      swap2\n      pop\n        /* \"#utility.yul\":13921:14014   */\n      tag_442\n        /* \"#utility.yul\":14010:14013   */\n      dup3\n        /* \"#utility.yul\":13921:14014   */\n      tag_290\n      jump\t// in\n    tag_442:\n        /* \"#utility.yul\":14039:14041   */\n      0x40\n        /* \"#utility.yul\":14034:14037   */\n      dup3\n        /* \"#utility.yul\":14030:14042   */\n      add\n        /* \"#utility.yul\":14023:14042   */\n      swap1\n      pop\n        /* \"#utility.yul\":13682:14048   */\n      swap2\n      swap1\n      pop\n      jump\t// out\n        /* \"#utility.yul\":14054:14473   */\n    tag_154:\n        /* \"#utility.yul\":14220:14224   */\n      0x00\n        /* \"#utility.yul\":14258:14260   */\n      0x20\n        /* \"#utility.yul\":14247:14256   */\n      dup3\n        /* \"#utility.yul\":14243:14261   */\n      add\n        /* \"#utility.yul\":14235:14261   */\n      swap1\n      pop\n        /* \"#utility.yul\":14307:14316   */\n      dup2\n        /* \"#utility.yul\":14301:14305   */\n      dup2\n        /* \"#utility.yul\":14297:14317   */\n      sub\n        /* \"#utility.yul\":14293:14294   */\n      0x00\n        /* \"#utility.yul\":14282:14291   */\n      dup4\n        /* \"#utility.yul\":14278:14295   */\n      add\n        /* \"#utility.yul\":14271:14318   */\n      mstore\n        /* \"#utility.yul\":14335:14466   */\n      tag_444\n        /* \"#utility.yul\":14461:14465   */\n      dup2\n        /* \"#utility.yul\":14335:14466   */\n      tag_291\n      jump\t// in\n    tag_444:\n        /* \"#utility.yul\":14327:14466   */\n      swap1\n      pop\n        /* \"#utility.yul\":14054:14473   */\n      swap2\n      swap1\n      pop\n      jump\t// out\n        /* \"#utility.yul\":14479:14811   */\n    tag_156:\n        /* \"#utility.yul\":14600:14604   */\n      0x00\n        /* \"#utility.yul\":14638:14640   */\n      0x40\n        /* \"#utility.yul\":14627:14636   */\n      dup3\n        /* \"#utility.yul\":14623:14641   */\n      add\n        /* \"#utility.yul\":14615:14641   */\n      swap1\n      pop\n        /* \"#utility.yul\":14651:14722   */\n      tag_446\n        /* \"#utility.yul\":14719:14720   */\n      0x00\n        /* \"#utility.yul\":14708:14717   */\n      dup4\n        /* \"#utility.yul\":14704:14721   */\n      add\n        /* \"#utility.yul\":14695:14701   */\n      dup6\n        /* \"#utility.yul\":14651:14722   */\n      tag_262\n      jump\t// in\n    tag_446:\n        /* \"#utility.yul\":14732:14804   */\n      tag_447\n        /* \"#utility.yul\":14800:14802   */\n      0x20\n        /* \"#utility.yul\":14789:14798   */\n      dup4\n        /* \"#utility.yul\":14785:14803   */\n      add\n        /* \"#utility.yul\":14776:14782   */\n      dup5\n        /* \"#utility.yul\":14732:14804   */\n      tag_262\n      jump\t// in\n    tag_447:\n        /* \"#utility.yul\":14479:14811   */\n      swap4\n      swap3\n      pop\n      pop\n      pop\n      jump\t// out\n        /* \"#utility.yul\":14817:15259   */\n    tag_166:\n        /* \"#utility.yul\":14966:14970   */\n      0x00\n        /* \"#utility.yul\":15004:15006   */\n      0x60\n        /* \"#utility.yul\":14993:15002   */\n      dup3\n        /* \"#utility.yul\":14989:15007   */\n      add\n        /* \"#utility.yul\":14981:15007   */\n      swap1\n      pop\n        /* \"#utility.yul\":15017:15088   */\n      tag_449\n        /* \"#utility.yul\":15085:15086   */\n      0x00\n        /* \"#utility.yul\":15074:15083   */\n      dup4\n        /* \"#utility.yul\":15070:15087   */\n      add\n        /* \"#utility.yul\":15061:15067   */\n      dup7\n        /* \"#utility.yul\":15017:15088   */\n      tag_271\n      jump\t// in\n    tag_449:\n        /* \"#utility.yul\":15098:15170   */\n      tag_450\n        /* \"#utility.yul\":15166:15168   */\n      0x20\n        /* \"#utility.yul\":15155:15164   */\n      dup4\n        /* \"#utility.yul\":15151:15169   */\n      add\n        /* \"#utility.yul\":15142:15148   */\n      dup6\n        /* \"#utility.yul\":15098:15170   */\n      tag_271\n      jump\t// in\n    tag_450:\n        /* \"#utility.yul\":15180:15252   */\n      tag_451\n        /* \"#utility.yul\":15248:15250   */\n      0x40\n        /* \"#utility.yul\":15237:15246   */\n      dup4\n        /* \"#utility.yul\":15233:15251   */\n      add\n        /* \"#utility.yul\":15224:15230   */\n      dup5\n        /* \"#utility.yul\":15180:15252   */\n      tag_262\n      jump\t// in\n    tag_451:\n        /* \"#utility.yul\":14817:15259   */\n      swap5\n      swap4\n      pop\n      pop\n      pop\n      pop\n      jump\t// out\n        /* \"#utility.yul\":15265:15485   */\n    tag_292:\n        /* \"#utility.yul\":15405:15439   */\n      0x4c6f616e4d616e616765723a2046756e64207472616e73666572206661696c65\n        /* \"#utility.yul\":15401:15402   */\n      0x00\n        /* \"#utility.yul\":15393:15399   */\n      dup3\n        /* \"#utility.yul\":15389:15403   */\n      add\n        /* \"#utility.yul\":15382:15440   */\n      mstore\n        /* \"#utility.yul\":15474:15477   */\n      0x6400000000000000000000000000000000000000000000000000000000000000\n        /* \"#utility.yul\":15469:15471   */\n      0x20\n        /* \"#utility.yul\":15461:15467   */\n      dup3\n        /* \"#utility.yul\":15457:15472   */\n      add\n        /* \"#utility.yul\":15450:15478   */\n      mstore\n        /* \"#utility.yul\":15265:15485   */\n      pop\n      jump\t// out\n        /* \"#utility.yul\":15491:15857   */\n    tag_293:\n        /* \"#utility.yul\":15633:15636   */\n      0x00\n        /* \"#utility.yul\":15654:15721   */\n      tag_454\n        /* \"#utility.yul\":15718:15720   */\n      0x21\n        /* \"#utility.yul\":15713:15716   */\n      dup4\n        /* \"#utility.yul\":15654:15721   */\n      tag_274\n      jump\t// in\n    tag_454:\n        /* \"#utility.yul\":15647:15721   */\n      swap2\n      pop\n        /* \"#utility.yul\":15730:15823   */\n      tag_455\n        /* \"#utility.yul\":15819:15822   */\n      dup3\n        /* \"#utility.yul\":15730:15823   */\n      tag_292\n      jump\t// in\n    tag_455:\n        /* \"#utility.yul\":15848:15850   */\n      0x40\n        /* \"#utility.yul\":15843:15846   */\n      dup3\n        /* \"#utility.yul\":15839:15851   */\n      add\n        /* \"#utility.yul\":15832:15851   */\n      swap1\n      pop\n        /* \"#utility.yul\":15491:15857   */\n      swap2\n      swap1\n      pop\n      jump\t// out\n        /* \"#utility.yul\":15863:16282   */\n    tag_172:\n        /* \"#utility.yul\":16029:16033   */\n      0x00\n        /* \"#utility.yul\":16067:16069   */\n      0x20\n        /* \"#utility.yul\":16056:16065   */\n      dup3\n        /* \"#utility.yul\":16052:16070   */\n      add\n        /* \"#utility.yul\":16044:16070   */\n      swap1\n      pop\n        /* \"#utility.yul\":16116:16125   */\n      dup2\n        /* \"#utility.yul\":16110:16114   */\n      dup2\n        /* \"#utility.yul\":16106:16126   */\n      sub\n        /* \"#utility.yul\":16102:16103   */\n      0x00\n        /* \"#utility.yul\":16091:16100   */\n      dup4\n        /* \"#utility.yul\":16087:16104   */\n      add\n        /* \"#utility.yul\":16080:16127   */\n      mstore\n        /* \"#utility.yul\":16144:16275   */\n      tag_457\n        /* \"#utility.yul\":16270:16274   */\n      dup2\n        /* \"#utility.yul\":16144:16275   */\n      tag_293\n      jump\t// in\n    tag_457:\n        /* \"#utility.yul\":16136:16275   */\n      swap1\n      pop\n        /* \"#utility.yul\":15863:16282   */\n      swap2\n      swap1\n      pop\n      jump\t// out\n        /* \"#utility.yul\":16288:16479   */\n    tag_174:\n        /* \"#utility.yul\":16328:16331   */\n      0x00\n        /* \"#utility.yul\":16347:16367   */\n      tag_459\n        /* \"#utility.yul\":16365:16366   */\n      dup3\n        /* \"#utility.yul\":16347:16367   */\n      tag_261\n      jump\t// in\n    tag_459:\n        /* \"#utility.yul\":16342:16367   */\n      swap2\n      pop\n        /* \"#utility.yul\":16381:16401   */\n      tag_460\n        /* \"#utility.yul\":16399:16400   */\n      dup4\n        /* \"#utility.yul\":16381:16401   */\n      tag_261\n      jump\t// in\n    tag_460:\n        /* \"#utility.yul\":16376:16401   */\n      swap3\n      pop\n        /* \"#utility.yul\":16424:16425   */\n      dup3\n        /* \"#utility.yul\":16421:16422   */\n      dup3\n        /* \"#utility.yul\":16417:16426   */\n      add\n        /* \"#utility.yul\":16410:16426   */\n      swap1\n      pop\n        /* \"#utility.yul\":16445:16448   */\n      dup1\n        /* \"#utility.yul\":16442:16443   */\n      dup3\n        /* \"#utility.yul\":16439:16449   */\n      gt\n        /* \"#utility.yul\":16436:16472   */\n      iszero\n      tag_461\n      jumpi\n        /* \"#utility.yul\":16452:16470   */\n      tag_462\n      tag_278\n      jump\t// in\n    tag_462:\n        /* \"#utility.yul\":16436:16472   */\n    tag_461:\n        /* \"#utility.yul\":16288:16479   */\n      swap3\n      swap2\n      pop\n      pop\n      jump\t// out\n        /* \"#utility.yul\":16485:16662   */\n    tag_294:\n        /* \"#utility.yul\":16625:16654   */\n      0x4c6f616e4d616e616765723a204e6f20616374697665206c6f616e0000000000\n        /* \"#utility.yul\":16621:16622   */\n      0x00\n        /* \"#utility.yul\":16613:16619   */\n      dup3\n        /* \"#utility.yul\":16609:16623   */\n      add\n        /* \"#utility.yul\":16602:16655   */\n      mstore\n        /* \"#utility.yul\":16485:16662   */\n      pop\n      jump\t// out\n        /* \"#utility.yul\":16668:17034   */\n    tag_295:\n        /* \"#utility.yul\":16810:16813   */\n      0x00\n        /* \"#utility.yul\":16831:16898   */\n      tag_465\n        /* \"#utility.yul\":16895:16897   */\n      0x1b\n        /* \"#utility.yul\":16890:16893   */\n      dup4\n        /* \"#utility.yul\":16831:16898   */\n      tag_274\n      jump\t// in\n    tag_465:\n        /* \"#utility.yul\":16824:16898   */\n      swap2\n      pop\n        /* \"#utility.yul\":16907:17000   */\n      tag_466\n        /* \"#utility.yul\":16996:16999   */\n      dup3\n        /* \"#utility.yul\":16907:17000   */\n      tag_294\n      jump\t// in\n    tag_466:\n        /* \"#utility.yul\":17025:17027   */\n      0x20\n        /* \"#utility.yul\":17020:17023   */\n      dup3\n        /* \"#utility.yul\":17016:17028   */\n      add\n        /* \"#utility.yul\":17009:17028   */\n      swap1\n      pop\n        /* \"#utility.yul\":16668:17034   */\n      swap2\n      swap1\n      pop\n      jump\t// out\n        /* \"#utility.yul\":17040:17459   */\n    tag_180:\n        /* \"#utility.yul\":17206:17210   */\n      0x00\n        /* \"#utility.yul\":17244:17246   */\n      0x20\n        /* \"#utility.yul\":17233:17242   */\n      dup3\n        /* \"#utility.yul\":17229:17247   */\n      add\n        /* \"#utility.yul\":17221:17247   */\n      swap1\n      pop\n        /* \"#utility.yul\":17293:17302   */\n      dup2\n        /* \"#utility.yul\":17287:17291   */\n      dup2\n        /* \"#utility.yul\":17283:17303   */\n      sub\n        /* \"#utility.yul\":17279:17280   */\n      0x00\n        /* \"#utility.yul\":17268:17277   */\n      dup4\n        /* \"#utility.yul\":17264:17281   */\n      add\n        /* \"#utility.yul\":17257:17304   */\n      mstore\n        /* \"#utility.yul\":17321:17452   */\n      tag_468\n        /* \"#utility.yul\":17447:17451   */\n      dup2\n        /* \"#utility.yul\":17321:17452   */\n      tag_295\n      jump\t// in\n    tag_468:\n        /* \"#utility.yul\":17313:17452   */\n      swap1\n      pop\n        /* \"#utility.yul\":17040:17459   */\n      swap2\n      swap1\n      pop\n      jump\t// out\n        /* \"#utility.yul\":17465:17687   */\n    tag_296:\n        /* \"#utility.yul\":17605:17639   */\n      0x4c6f616e4d616e616765723a204c6f616e20697320616c726561647920726570\n        /* \"#utility.yul\":17601:17602   */\n      0x00\n        /* \"#utility.yul\":17593:17599   */\n      dup3\n        /* \"#utility.yul\":17589:17603   */\n      add\n        /* \"#utility.yul\":17582:17640   */\n      mstore\n        /* \"#utility.yul\":17674:17679   */\n      0x6169640000000000000000000000000000000000000000000000000000000000\n        /* \"#utility.yul\":17669:17671   */\n      0x20\n        /* \"#utility.yul\":17661:17667   */\n      dup3\n        /* \"#utility.yul\":17657:17672   */\n      add\n        /* \"#utility.yul\":17650:17680   */\n      mstore\n        /* \"#utility.yul\":17465:17687   */\n      pop\n      jump\t// out\n        /* \"#utility.yul\":17693:18059   */\n    tag_297:\n        /* \"#utility.yul\":17835:17838   */\n      0x00\n        /* \"#utility.yul\":17856:17923   */\n      tag_471\n        /* \"#utility.yul\":17920:17922   */\n      0x23\n        /* \"#utility.yul\":17915:17918   */\n      dup4\n        /* \"#utility.yul\":17856:17923   */\n      tag_274\n      jump\t// in\n    tag_471:\n        /* \"#utility.yul\":17849:17923   */\n      swap2\n      pop\n        /* \"#utility.yul\":17932:18025   */\n      tag_472\n        /* \"#utility.yul\":18021:18024   */\n      dup3\n        /* \"#utility.yul\":17932:18025   */\n      tag_296\n      jump\t// in\n    tag_472:\n        /* \"#utility.yul\":18050:18052   */\n      0x40\n        /* \"#utility.yul\":18045:18048   */\n      dup3\n        /* \"#utility.yul\":18041:18053   */\n      add\n        /* \"#utility.yul\":18034:18053   */\n      swap1\n      pop\n        /* \"#utility.yul\":17693:18059   */\n      swap2\n      swap1\n      pop\n      jump\t// out\n        /* \"#utility.yul\":18065:18484   */\n    tag_183:\n        /* \"#utility.yul\":18231:18235   */\n      0x00\n        /* \"#utility.yul\":18269:18271   */\n      0x20\n        /* \"#utility.yul\":18258:18267   */\n      dup3\n        /* \"#utility.yul\":18254:18272   */\n      add\n        /* \"#utility.yul\":18246:18272   */\n      swap1\n      pop\n        /* \"#utility.yul\":18318:18327   */\n      dup2\n        /* \"#utility.yul\":18312:18316   */\n      dup2\n        /* \"#utility.yul\":18308:18328   */\n      sub\n        /* \"#utility.yul\":18304:18305   */\n      0x00\n        /* \"#utility.yul\":18293:18302   */\n      dup4\n        /* \"#utility.yul\":18289:18306   */\n      add\n        /* \"#utility.yul\":18282:18329   */\n      mstore\n        /* \"#utility.yul\":18346:18477   */\n      tag_474\n        /* \"#utility.yul\":18472:18476   */\n      dup2\n        /* \"#utility.yul\":18346:18477   */\n      tag_297\n      jump\t// in\n    tag_474:\n        /* \"#utility.yul\":18338:18477   */\n      swap1\n      pop\n        /* \"#utility.yul\":18065:18484   */\n      swap2\n      swap1\n      pop\n      jump\t// out\n        /* \"#utility.yul\":18490:18719   */\n    tag_298:\n        /* \"#utility.yul\":18630:18664   */\n      0x4c6f616e4d616e616765723a20496e73756666696369656e742072657061796d\n        /* \"#utility.yul\":18626:18627   */\n      0x00\n        /* \"#utility.yul\":18618:18624   */\n      dup3\n        /* \"#utility.yul\":18614:18628   */\n      add\n        /* \"#utility.yul\":18607:18665   */\n      mstore\n        /* \"#utility.yul\":18699:18711   */\n      0x656e7420616d6f756e7400000000000000000000000000000000000000000000\n        /* \"#utility.yul\":18694:18696   */\n      0x20\n        /* \"#utility.yul\":18686:18692   */\n      dup3\n        /* \"#utility.yul\":18682:18697   */\n      add\n        /* \"#utility.yul\":18675:18712   */\n      mstore\n        /* \"#utility.yul\":18490:18719   */\n      pop\n      jump\t// out\n        /* \"#utility.yul\":18725:19091   */\n    tag_299:\n        /* \"#utility.yul\":18867:18870   */\n      0x00\n        /* \"#utility.yul\":18888:18955   */\n      tag_477\n        /* \"#utility.yul\":18952:18954   */\n      0x2a\n        /* \"#utility.yul\":18947:18950   */\n      dup4\n        /* \"#utility.yul\":18888:18955   */\n      tag_274\n      jump\t// in\n    tag_477:\n        /* \"#utility.yul\":18881:18955   */\n      swap2\n      pop\n        /* \"#utility.yul\":18964:19057   */\n      tag_478\n        /* \"#utility.yul\":19053:19056   */\n      dup3\n        /* \"#utility.yul\":18964:19057   */\n      tag_298\n      jump\t// in\n    tag_478:\n        /* \"#utility.yul\":19082:19084   */\n      0x40\n        /* \"#utility.yul\":19077:19080   */\n      dup3\n        /* \"#utility.yul\":19073:19085   */\n      add\n        /* \"#utility.yul\":19066:19085   */\n      swap1\n      pop\n        /* \"#utility.yul\":18725:19091   */\n      swap2\n      swap1\n      pop\n      jump\t// out\n        /* \"#utility.yul\":19097:19516   */\n    tag_189:\n        /* \"#utility.yul\":19263:19267   */\n      0x00\n        /* \"#utility.yul\":19301:19303   */\n      0x20\n        /* \"#utility.yul\":19290:19299   */\n      dup3\n        /* \"#utility.yul\":19286:19304   */\n      add\n        /* \"#utility.yul\":19278:19304   */\n      swap1\n      pop\n        /* \"#utility.yul\":19350:19359   */\n      dup2\n        /* \"#utility.yul\":19344:19348   */\n      dup2\n        /* \"#utility.yul\":19340:19360   */\n      sub\n        /* \"#utility.yul\":19336:19337   */\n      0x00\n        /* \"#utility.yul\":19325:19334   */\n      dup4\n        /* \"#utility.yul\":19321:19338   */\n      add\n        /* \"#utility.yul\":19314:19361   */\n      mstore\n        /* \"#utility.yul\":19378:19509   */\n      tag_480\n        /* \"#utility.yul\":19504:19508   */\n      dup2\n        /* \"#utility.yul\":19378:19509   */\n      tag_299\n      jump\t// in\n    tag_480:\n        /* \"#utility.yul\":19370:19509   */\n      swap1\n      pop\n        /* \"#utility.yul\":19097:19516   */\n      swap2\n      swap1\n      pop\n      jump\t// out\n        /* \"#utility.yul\":19522:19747   */\n    tag_300:\n        /* \"#utility.yul\":19662:19696   */\n      0x4c6f616e4d616e616765723a2052657061796d656e74207472616e7366657220\n        /* \"#utility.yul\":19658:19659   */\n      0x00\n        /* \"#utility.yul\":19650:19656   */\n      dup3\n        /* \"#utility.yul\":19646:19660   */\n      add\n        /* \"#utility.yul\":19639:19697   */\n      mstore\n        /* \"#utility.yul\":19731:19739   */\n      0x6661696c65640000000000000000000000000000000000000000000000000000\n        /* \"#utility.yul\":19726:19728   */\n      0x20\n        /* \"#utility.yul\":19718:19724   */\n      dup3\n        /* \"#utility.yul\":19714:19729   */\n      add\n        /* \"#utility.yul\":19707:19740   */\n      mstore\n        /* \"#utility.yul\":19522:19747   */\n      pop\n      jump\t// out\n        /* \"#utility.yul\":19753:20119   */\n    tag_301:\n        /* \"#utility.yul\":19895:19898   */\n      0x00\n        /* \"#utility.yul\":19916:19983   */\n      tag_483\n        /* \"#utility.yul\":19980:19982   */\n      0x26\n        /* \"#utility.yul\":19975:19978   */\n      dup4\n        /* \"#utility.yul\":19916:19983   */\n      tag_274\n      jump\t// in\n    tag_483:\n        /* \"#utility.yul\":19909:19983   */\n      swap2\n      pop\n        /* \"#utility.yul\":19992:20085   */\n      tag_484\n        /* \"#utility.yul\":20081:20084   */\n      dup3\n        /* \"#utility.yul\":19992:20085   */\n      tag_300\n      jump\t// in\n    tag_484:\n        /* \"#utility.yul\":20110:20112   */\n      0x40\n        /* \"#utility.yul\":20105:20108   */\n      dup3\n        /* \"#utility.yul\":20101:20113   */\n      add\n        /* \"#utility.yul\":20094:20113   */\n      swap1\n      pop\n        /* \"#utility.yul\":19753:20119   */\n      swap2\n      swap1\n      pop\n      jump\t// out\n        /* \"#utility.yul\":20125:20544   */\n    tag_196:\n        /* \"#utility.yul\":20291:20295   */\n      0x00\n        /* \"#utility.yul\":20329:20331   */\n      0x20\n        /* \"#utility.yul\":20318:20327   */\n      dup3\n        /* \"#utility.yul\":20314:20332   */\n      add\n        /* \"#utility.yul\":20306:20332   */\n      swap1\n      pop\n        /* \"#utility.yul\":20378:20387   */\n      dup2\n        /* \"#utility.yul\":20372:20376   */\n      dup2\n        /* \"#utility.yul\":20368:20388   */\n      sub\n        /* \"#utility.yul\":20364:20365   */\n      0x00\n        /* \"#utility.yul\":20353:20362   */\n      dup4\n        /* \"#utility.yul\":20349:20366   */\n      add\n        /* \"#utility.yul\":20342:20389   */\n      mstore\n        /* \"#utility.yul\":20406:20537   */\n      tag_486\n        /* \"#utility.yul\":20532:20536   */\n      dup2\n        /* \"#utility.yul\":20406:20537   */\n      tag_301\n      jump\t// in\n    tag_486:\n        /* \"#utility.yul\":20398:20537   */\n      swap1\n      pop\n        /* \"#utility.yul\":20125:20544   */\n      swap2\n      swap1\n      pop\n      jump\t// out\n        /* \"#utility.yul\":20550:20729   */\n    tag_302:\n        /* \"#utility.yul\":20690:20721   */\n      0x4c6f616e4d616e616765723a20496e76616c6964206475726174696f6e000000\n        /* \"#utility.yul\":20686:20687   */\n      0x00\n        /* \"#utility.yul\":20678:20684   */\n      dup3\n        /* \"#utility.yul\":20674:20688   */\n      add\n        /* \"#utility.yul\":20667:20722   */\n      mstore\n        /* \"#utility.yul\":20550:20729   */\n      pop\n      jump\t// out\n        /* \"#utility.yul\":20735:21101   */\n    tag_303:\n        /* \"#utility.yul\":20877:20880   */\n      0x00\n        /* \"#utility.yul\":20898:20965   */\n      tag_489\n        /* \"#utility.yul\":20962:20964   */\n      0x1d\n        /* \"#utility.yul\":20957:20960   */\n      dup4\n        /* \"#utility.yul\":20898:20965   */\n      tag_274\n      jump\t// in\n    tag_489:\n        /* \"#utility.yul\":20891:20965   */\n      swap2\n      pop\n        /* \"#utility.yul\":20974:21067   */\n      tag_490\n        /* \"#utility.yul\":21063:21066   */\n      dup3\n        /* \"#utility.yul\":20974:21067   */\n      tag_302\n      jump\t// in\n    tag_490:\n        /* \"#utility.yul\":21092:21094   */\n      0x20\n        /* \"#utility.yul\":21087:21090   */\n      dup3\n        /* \"#utility.yul\":21083:21095   */\n      add\n        /* \"#utility.yul\":21076:21095   */\n      swap1\n      pop\n        /* \"#utility.yul\":20735:21101   */\n      swap2\n      swap1\n      pop\n      jump\t// out\n        /* \"#utility.yul\":21107:21526   */\n    tag_208:\n        /* \"#utility.yul\":21273:21277   */\n      0x00\n        /* \"#utility.yul\":21311:21313   */\n      0x20\n        /* \"#utility.yul\":21300:21309   */\n      dup3\n        /* \"#utility.yul\":21296:21314   */\n      add\n        /* \"#utility.yul\":21288:21314   */\n      swap1\n      pop\n        /* \"#utility.yul\":21360:21369   */\n      dup2\n        /* \"#utility.yul\":21354:21358   */\n      dup2\n        /* \"#utility.yul\":21350:21370   */\n      sub\n        /* \"#utility.yul\":21346:21347   */\n      0x00\n        /* \"#utility.yul\":21335:21344   */\n      dup4\n        /* \"#utility.yul\":21331:21348   */\n      add\n        /* \"#utility.yul\":21324:21371   */\n      mstore\n        /* \"#utility.yul\":21388:21519   */\n      tag_492\n        /* \"#utility.yul\":21514:21518   */\n      dup2\n        /* \"#utility.yul\":21388:21519   */\n      tag_303\n      jump\t// in\n    tag_492:\n        /* \"#utility.yul\":21380:21519   */\n      swap1\n      pop\n        /* \"#utility.yul\":21107:21526   */\n      swap2\n      swap1\n      pop\n      jump\t// out\n        /* \"#utility.yul\":21532:21754   */\n    tag_304:\n        /* \"#utility.yul\":21672:21706   */\n      0x4c6f616e4d616e616765723a204c6f616e20616c72656164792064656661756c\n        /* \"#utility.yul\":21668:21669   */\n      0x00\n        /* \"#utility.yul\":21660:21666   */\n      dup3\n        /* \"#utility.yul\":21656:21670   */\n      add\n        /* \"#utility.yul\":21649:21707   */\n      mstore\n        /* \"#utility.yul\":21741:21746   */\n      0x7465640000000000000000000000000000000000000000000000000000000000\n        /* \"#utility.yul\":21736:21738   */\n      0x20\n        /* \"#utility.yul\":21728:21734   */\n      dup3\n        /* \"#utility.yul\":21724:21739   */\n      add\n        /* \"#utility.yul\":21717:21747   */\n      mstore\n        /* \"#utility.yul\":21532:21754   */\n      pop\n      jump\t// out\n        /* \"#utility.yul\":21760:22126   */\n    tag_305:\n        /* \"#utility.yul\":21902:21905   */\n      0x00\n        /* \"#utility.yul\":21923:21990   */\n      tag_495\n        /* \"#utility.yul\":21987:21989   */\n      0x23\n        /* \"#utility.yul\":21982:21985   */\n      dup4\n        /* \"#utility.yul\":21923:21990   */\n      tag_274\n      jump\t// in\n    tag_495:\n        /* \"#utility.yul\":21916:21990   */\n      swap2\n      pop\n        /* \"#utility.yul\":21999:22092   */\n      tag_496\n        /* \"#utility.yul\":22088:22091   */\n      dup3\n        /* \"#utility.yul\":21999:22092   */\n      tag_304\n      jump\t// in\n    tag_496:\n        /* \"#utility.yul\":22117:22119   */\n      0x40\n        /* \"#utility.yul\":22112:22115   */\n      dup3\n        /* \"#utility.yul\":22108:22120   */\n      add\n        /* \"#utility.yul\":22101:22120   */\n      swap1\n      pop\n        /* \"#utility.yul\":21760:22126   */\n      swap2\n      swap1\n      pop\n      jump\t// out\n        /* \"#utility.yul\":22132:22551   */\n    tag_221:\n        /* \"#utility.yul\":22298:22302   */\n      0x00\n        /* \"#utility.yul\":22336:22338   */\n      0x20\n        /* \"#utility.yul\":22325:22334   */\n      dup3\n        /* \"#utility.yul\":22321:22339   */\n      add\n        /* \"#utility.yul\":22313:22339   */\n      swap1\n      pop\n        /* \"#utility.yul\":22385:22394   */\n      dup2\n        /* \"#utility.yul\":22379:22383   */\n      dup2\n        /* \"#utility.yul\":22375:22395   */\n      sub\n        /* \"#utility.yul\":22371:22372   */\n      0x00\n        /* \"#utility.yul\":22360:22369   */\n      dup4\n        /* \"#utility.yul\":22356:22373   */\n      add\n        /* \"#utility.yul\":22349:22396   */\n      mstore\n        /* \"#utility.yul\":22413:22544   */\n      tag_498\n        /* \"#utility.yul\":22539:22543   */\n      dup2\n        /* \"#utility.yul\":22413:22544   */\n      tag_305\n      jump\t// in\n    tag_498:\n        /* \"#utility.yul\":22405:22544   */\n      swap1\n      pop\n        /* \"#utility.yul\":22132:22551   */\n      swap2\n      swap1\n      pop\n      jump\t// out\n        /* \"#utility.yul\":22557:22779   */\n    tag_306:\n        /* \"#utility.yul\":22697:22731   */\n      0x4c6f616e4d616e616765723a204c6f616e206e6f742064656661756c74656420\n        /* \"#utility.yul\":22693:22694   */\n      0x00\n        /* \"#utility.yul\":22685:22691   */\n      dup3\n        /* \"#utility.yul\":22681:22695   */\n      add\n        /* \"#utility.yul\":22674:22732   */\n      mstore\n        /* \"#utility.yul\":22766:22771   */\n      0x7965740000000000000000000000000000000000000000000000000000000000\n        /* \"#utility.yul\":22761:22763   */\n      0x20\n        /* \"#utility.yul\":22753:22759   */\n      dup3\n        /* \"#utility.yul\":22749:22764   */\n      add\n        /* \"#utility.yul\":22742:22772   */\n      mstore\n        /* \"#utility.yul\":22557:22779   */\n      pop\n      jump\t// out\n        /* \"#utility.yul\":22785:23151   */\n    tag_307:\n        /* \"#utility.yul\":22927:22930   */\n      0x00\n        /* \"#utility.yul\":22948:23015   */\n      tag_501\n        /* \"#utility.yul\":23012:23014   */\n      0x23\n        /* \"#utility.yul\":23007:23010   */\n      dup4\n        /* \"#utility.yul\":22948:23015   */\n      tag_274\n      jump\t// in\n    tag_501:\n        /* \"#utility.yul\":22941:23015   */\n      swap2\n      pop\n        /* \"#utility.yul\":23024:23117   */\n      tag_502\n        /* \"#utility.yul\":23113:23116   */\n      dup3\n        /* \"#utility.yul\":23024:23117   */\n      tag_306\n      jump\t// in\n    tag_502:\n        /* \"#utility.yul\":23142:23144   */\n      0x40\n        /* \"#utility.yul\":23137:23140   */\n      dup3\n        /* \"#utility.yul\":23133:23145   */\n      add\n        /* \"#utility.yul\":23126:23145   */\n      swap1\n      pop\n        /* \"#utility.yul\":22785:23151   */\n      swap2\n      swap1\n      pop\n      jump\t// out\n        /* \"#utility.yul\":23157:23576   */\n    tag_226:\n        /* \"#utility.yul\":23323:23327   */\n      0x00\n        /* \"#utility.yul\":23361:23363   */\n      0x20\n        /* \"#utility.yul\":23350:23359   */\n      dup3\n        /* \"#utility.yul\":23346:23364   */\n      add\n        /* \"#utility.yul\":23338:23364   */\n      swap1\n      pop\n        /* \"#utility.yul\":23410:23419   */\n      dup2\n        /* \"#utility.yul\":23404:23408   */\n      dup2\n        /* \"#utility.yul\":23400:23420   */\n      sub\n        /* \"#utility.yul\":23396:23397   */\n      0x00\n        /* \"#utility.yul\":23385:23394   */\n      dup4\n        /* \"#utility.yul\":23381:23398   */\n      add\n        /* \"#utility.yul\":23374:23421   */\n      mstore\n        /* \"#utility.yul\":23438:23569   */\n      tag_504\n        /* \"#utility.yul\":23564:23568   */\n      dup2\n        /* \"#utility.yul\":23438:23569   */\n      tag_307\n      jump\t// in\n    tag_504:\n        /* \"#utility.yul\":23430:23569   */\n      swap1\n      pop\n        /* \"#utility.yul\":23157:23576   */\n      swap2\n      swap1\n      pop\n      jump\t// out\n\n    auxdata: 0xa26469706673582212202ca2792fb4e87111cde5245fcc9e881aed115327fc6b5180411665c45f605f6564736f6c634300081a0033\n}\n",
				"bytecode": {
					"linkReferences": {},
					"object": "6080604052609660065562278d00600755620d2f00600855348015610022575f80fd5b50604051612391380380612391833981810160405281019061004491906102f0565b3360015f819055505f73ffffffffffffffffffffffffffffffffffffffff168173ffffffffffffffffffffffffffffffffffffffff16036100bc575f6040517f1e4fbdf70000000000000000000000000000000000000000000000000000000081526004016100b3919061034f565b60405180910390fd5b6100cb8161019460201b60201c565b508260025f6101000a81548173ffffffffffffffffffffffffffffffffffffffff021916908373ffffffffffffffffffffffffffffffffffffffff1602179055508160035f6101000a81548173ffffffffffffffffffffffffffffffffffffffff021916908373ffffffffffffffffffffffffffffffffffffffff1602179055508060045f6101000a81548173ffffffffffffffffffffffffffffffffffffffff021916908373ffffffffffffffffffffffffffffffffffffffff160217905550505050610368565b5f60015f9054906101000a900473ffffffffffffffffffffffffffffffffffffffff1690508160015f6101000a81548173ffffffffffffffffffffffffffffffffffffffff021916908373ffffffffffffffffffffffffffffffffffffffff1602179055508173ffffffffffffffffffffffffffffffffffffffff168173ffffffffffffffffffffffffffffffffffffffff167f8be0079c531659141344cd1fd0a4f28419497f9722a3daafe3b4186f6b6457e060405160405180910390a35050565b5f80fd5b5f73ffffffffffffffffffffffffffffffffffffffff82169050919050565b5f6102848261025b565b9050919050565b5f6102958261027a565b9050919050565b6102a58161028b565b81146102af575f80fd5b50565b5f815190506102c08161029c565b92915050565b6102cf8161027a565b81146102d9575f80fd5b50565b5f815190506102ea816102c6565b92915050565b5f805f6060848603121561030757610306610257565b5b5f610314868287016102b2565b9350506020610325868287016102dc565b9250506040610336868287016102dc565b9150509250925092565b6103498161027a565b82525050565b5f6020820190506103625f830184610340565b92915050565b61201c806103755f395ff3fe608060405234801561000f575f80fd5b506004361061012a575f3560e01c80638d5d3429116100ab578063c000bc601161006f578063c000bc60146102e4578063e9e190a314610300578063ebbb7de914610335578063f2fde38b14610351578063f5521bf11461036d5761012a565b80638d5d3429146102565780638da5cb5b1461027257806397ed71eb14610290578063ab7b1c89146102ac578063ba43a922146102c85761012a565b8063656f9ba4116100f2578063656f9ba4146101c2578063688aef48146101e057806370f37d27146101fe578063715018a61461021c57806389a99ec8146102265761012a565b80630ea86ad81461012e57806323be345c1461014c5780632630c12f1461016a5780632af7e2ea14610188578063650dfa18146101a6575b5f80fd5b61013661038b565b6040516101439190611453565b60405180910390f35b6101546103b0565b604051610161919061148c565b60405180910390f35b6101726103d5565b60405161017f91906114c5565b60405180910390f35b6101906103fa565b60405161019d91906114f6565b60405180910390f35b6101c060048036038101906101bb919061153d565b610400565b005b6101ca610456565b6040516101d791906114f6565b60405180910390f35b6101e8610513565b6040516101f591906114f6565b60405180910390f35b610206610519565b60405161021391906114f6565b60405180910390f35b61022461051f565b005b610240600480360381019061023b91906115a3565b610532565b60405161024d91906114f6565b60405180910390f35b610270600480360381019061026b919061153d565b6105f1565b005b61027a610a0e565b60405161028791906115dd565b60405180910390f35b6102aa60048036038101906102a5919061153d565b610a36565b005b6102c660048036038101906102c1919061153d565b610b3e565b005b6102e260048036038101906102dd919061153d565b610e73565b005b6102fe60048036038101906102f9919061153d565b610ec7565b005b61031a600480360381019061031591906115a3565b610f1b565b60405161032c96959493929190611610565b60405180910390f35b61034f600480360381019061034a91906115a3565b610f6c565b005b61036b600480360381019061036691906115a3565b6111b1565b005b610375611235565b60405161038291906114f6565b60405180910390f35b60025f9054906101000a900473ffffffffffffffffffffffffffffffffffffffff1681565b60035f9054906101000a900473ffffffffffffffffffffffffffffffffffffffff1681565b60045f9054906101000a900473ffffffffffffffffffffffffffffffffffffffff1681565b60085481565b61040861123b565b606481101561044c576040517f08c379a0000000000000000000000000000000000000000000000000000000008152600401610443906116c9565b60405180910390fd5b8060068190555050565b5f8060035f9054906101000a900473ffffffffffffffffffffffffffffffffffffffff1673ffffffffffffffffffffffffffffffffffffffff166309b8aafd336040518263ffffffff1660e01b81526004016104b291906115dd565b602060405180830381865afa1580156104cd573d5f803e3d5ffd5b505050506040513d601f19601f820116820180604052508101906104f191906116fb565b90506006546064826105039190611753565b61050d91906117c1565b91505090565b60065481565b60055481565b61052761123b565b6105305f6112c2565b565b5f8060035f9054906101000a900473ffffffffffffffffffffffffffffffffffffffff1673ffffffffffffffffffffffffffffffffffffffff166309b8aafd846040518263ffffffff1660e01b815260040161058e91906115dd565b602060405180830381865afa1580156105a9573d5f803e3d5ffd5b505050506040513d601f19601f820116820180604052508101906105cd91906116fb565b90506006546064826105df9190611753565b6105e991906117c1565b915050919050565b6105f9611385565b5f811161063b576040517f08c379a000000000000000000000000000000000000000000000000000000000815260040161063290611861565b60405180910390fd5b5f60095f3373ffffffffffffffffffffffffffffffffffffffff1673ffffffffffffffffffffffffffffffffffffffff1681526020019081526020015f205f0154146106bc576040517f08c379a00000000000000000000000000000000000000000000000000000000081526004016106b3906118ef565b60405180910390fd5b5f60035f9054906101000a900473ffffffffffffffffffffffffffffffffffffffff1673ffffffffffffffffffffffffffffffffffffffff166309b8aafd336040518263ffffffff1660e01b815260040161071791906115dd565b602060405180830381865afa158015610732573d5f803e3d5ffd5b505050506040513d601f19601f8201168201806040525081019061075691906116fb565b90505f811161079a576040517f08c379a00000000000000000000000000000000000000000000000000000000081526004016107919061197d565b60405180910390fd5b5f6006546064836107ab9190611753565b6107b591906117c1565b9050808311156107fa576040517f08c379a00000000000000000000000000000000000000000000000000000000081526004016107f190611a0b565b60405180910390fd5b5f6040518060c00160405280858152602001600581526020014281526020018481526020015f151581526020015f151581525090508060095f3373ffffffffffffffffffffffffffffffffffffffff1673ffffffffffffffffffffffffffffffffffffffff1681526020019081526020015f205f820151815f01556020820151816001015560408201518160020155606082015181600301556080820151816004015f6101000a81548160ff02191690831515021790555060a08201518160040160016101000a81548160ff02191690831515021790555090505060025f9054906101000a900473ffffffffffffffffffffffffffffffffffffffff1673ffffffffffffffffffffffffffffffffffffffff1663a9059cbb33866040518363ffffffff1660e01b8152600401610931929190611a29565b6020604051808303815f875af115801561094d573d5f803e3d5ffd5b505050506040513d601f19601f820116820180604052508101906109719190611a7a565b6109b0576040517f08c379a00000000000000000000000000000000000000000000000000000000081526004016109a790611b15565b60405180910390fd5b3373ffffffffffffffffffffffffffffffffffffffff167f1c793c0fda4a6b2b79dd68d91d9f7fde8f7aa0878615c36a4624e6ccdbb1ead185856040516109f8929190611b33565b60405180910390a2505050610a0b6113c9565b50565b5f60015f9054906101000a900473ffffffffffffffffffffffffffffffffffffffff16905090565b610a3e61123b565b610a4661123b565b60025f9054906101000a900473ffffffffffffffffffffffffffffffffffffffff1673ffffffffffffffffffffffffffffffffffffffff166323b872dd3330846040518463ffffffff1660e01b8152600401610aa493929190611b5a565b6020604051808303815f875af1158015610ac0573d5f803e3d5ffd5b505050506040513d601f19601f82011682018060405250810190610ae49190611a7a565b610b23576040517f08c379a0000000000000000000000000000000000000000000000000000000008152600401610b1a90611bff565b60405180910390fd5b8060055f828254610b349190611c1d565b9250508190555050565b610b46611385565b5f60095f3373ffffffffffffffffffffffffffffffffffffffff1673ffffffffffffffffffffffffffffffffffffffff1681526020019081526020015f2090505f815f015411610bcb576040517f08c379a0000000000000000000000000000000000000000000000000000000008152600401610bc290611c9a565b60405180910390fd5b806004015f9054906101000a900460ff1615610c1c576040517f08c379a0000000000000000000000000000000000000000000000000000000008152600401610c1390611d28565b60405180910390fd5b5f60648260010154835f0154610c329190611753565b610c3c91906117c1565b825f0154610c4a9190611c1d565b905080831015610c8f576040517f08c379a0000000000000000000000000000000000000000000000000000000008152600401610c8690611db6565b60405180910390fd5b60025f9054906101000a900473ffffffffffffffffffffffffffffffffffffffff1673ffffffffffffffffffffffffffffffffffffffff166323b872dd3330866040518463ffffffff1660e01b8152600401610ced93929190611b5a565b6020604051808303815f875af1158015610d09573d5f803e3d5ffd5b505050506040513d601f19601f82011682018060405250810190610d2d9190611a7a565b610d6c576040517f08c379a0000000000000000000000000000000000000000000000000000000008152600401610d6390611e44565b60405180910390fd5b6001826004015f6101000a81548160ff02191690831515021790555060035f9054906101000a900473ffffffffffffffffffffffffffffffffffffffff1673ffffffffffffffffffffffffffffffffffffffff1663192e7a7b336040518263ffffffff1660e01b8152600401610de291906115dd565b5f604051808303815f87803b158015610df9575f80fd5b505af1158015610e0b573d5f803e3d5ffd5b505050503373ffffffffffffffffffffffffffffffffffffffff167fc7ce0a35f17b490de2a317e7fecb2cae86b1abffb03800b2f492823521382698835f01548460030154604051610e5e929190611b33565b60405180910390a25050610e706113c9565b50565b610e7b61123b565b5f8111610ebd576040517f08c379a0000000000000000000000000000000000000000000000000000000008152600401610eb490611eac565b60405180910390fd5b8060078190555050565b610ecf61123b565b5f8111610f11576040517f08c379a0000000000000000000000000000000000000000000000000000000008152600401610f0890611eac565b60405180910390fd5b8060088190555050565b6009602052805f5260405f205f91509050805f015490806001015490806002015490806003015490806004015f9054906101000a900460ff16908060040160019054906101000a900460ff16905086565b610f74611385565b5f60095f8373ffffffffffffffffffffffffffffffffffffffff1673ffffffffffffffffffffffffffffffffffffffff1681526020019081526020015f2090505f815f015411610ff9576040517f08c379a0000000000000000000000000000000000000000000000000000000008152600401610ff090611c9a565b60405180910390fd5b8060040160019054906101000a900460ff161561104b576040517f08c379a000000000000000000000000000000000000000000000000000000000815260040161104290611f3a565b60405180910390fd5b60085460075482600201546110609190611c1d565b61106a9190611c1d565b42116110ab576040517f08c379a00000000000000000000000000000000000000000000000000000000081526004016110a290611fc8565b60405180910390fd5b60018160040160016101000a81548160ff02191690831515021790555060035f9054906101000a900473ffffffffffffffffffffffffffffffffffffffff1673ffffffffffffffffffffffffffffffffffffffff16638e817efe82600301546040518263ffffffff1660e01b815260040161112691906114f6565b5f604051808303815f87803b15801561113d575f80fd5b505af115801561114f573d5f803e3d5ffd5b505050508173ffffffffffffffffffffffffffffffffffffffff167f0be253503c49f8fb02046da3ef57bc2f5f881eb14ba5c2c26b54bf2fb4e7db07826003015460405161119d91906114f6565b60405180910390a2506111ae6113c9565b50565b6111b961123b565b5f73ffffffffffffffffffffffffffffffffffffffff168173ffffffffffffffffffffffffffffffffffffffff1603611229575f6040517f1e4fbdf700000000000000000000000000000000000000000000000000000000815260040161122091906115dd565b60405180910390fd5b611232816112c2565b50565b60075481565b6112436113d2565b73ffffffffffffffffffffffffffffffffffffffff16611261610a0e565b73ffffffffffffffffffffffffffffffffffffffff16146112c0576112846113d2565b6040517f118cdaa70000000000000000000000000000000000000000000000000000000081526004016112b791906115dd565b60405180910390fd5b565b5f60015f9054906101000a900473ffffffffffffffffffffffffffffffffffffffff1690508160015f6101000a81548173ffffffffffffffffffffffffffffffffffffffff021916908373ffffffffffffffffffffffffffffffffffffffff1602179055508173ffffffffffffffffffffffffffffffffffffffff168173ffffffffffffffffffffffffffffffffffffffff167f8be0079c531659141344cd1fd0a4f28419497f9722a3daafe3b4186f6b6457e060405160405180910390a35050565b60025f54036113c0576040517f3ee5aeb500000000000000000000000000000000000000000000000000000000815260040160405180910390fd5b60025f81905550565b60015f81905550565b5f33905090565b5f73ffffffffffffffffffffffffffffffffffffffff82169050919050565b5f819050919050565b5f61141b611416611411846113d9565b6113f8565b6113d9565b9050919050565b5f61142c82611401565b9050919050565b5f61143d82611422565b9050919050565b61144d81611433565b82525050565b5f6020820190506114665f830184611444565b92915050565b5f61147682611422565b9050919050565b6114868161146c565b82525050565b5f60208201905061149f5f83018461147d565b92915050565b5f6114af82611422565b9050919050565b6114bf816114a5565b82525050565b5f6020820190506114d85f8301846114b6565b92915050565b5f819050919050565b6114f0816114de565b82525050565b5f6020820190506115095f8301846114e7565b92915050565b5f80fd5b61151c816114de565b8114611526575f80fd5b50565b5f8135905061153781611513565b92915050565b5f602082840312156115525761155161150f565b5b5f61155f84828501611529565b91505092915050565b5f611572826113d9565b9050919050565b61158281611568565b811461158c575f80fd5b50565b5f8135905061159d81611579565b92915050565b5f602082840312156115b8576115b761150f565b5b5f6115c58482850161158f565b91505092915050565b6115d781611568565b82525050565b5f6020820190506115f05f8301846115ce565b92915050565b5f8115159050919050565b61160a816115f6565b82525050565b5f60c0820190506116235f8301896114e7565b61163060208301886114e7565b61163d60408301876114e7565b61164a60608301866114e7565b6116576080830185611601565b61166460a0830184611601565b979650505050505050565b5f82825260208201905092915050565b7f4c6f616e4d616e616765723a20496e76616c696420726174696f0000000000005f82015250565b5f6116b3601a8361166f565b91506116be8261167f565b602082019050919050565b5f6020820190508181035f8301526116e0816116a7565b9050919050565b5f815190506116f581611513565b92915050565b5f602082840312156117105761170f61150f565b5b5f61171d848285016116e7565b91505092915050565b7f4e487b71000000000000000000000000000000000000000000000000000000005f52601160045260245ffd5b5f61175d826114de565b9150611768836114de565b9250828202611776816114de565b9150828204841483151761178d5761178c611726565b5b5092915050565b7f4e487b71000000000000000000000000000000000000000000000000000000005f52601260045260245ffd5b5f6117cb826114de565b91506117d6836114de565b9250826117e6576117e5611794565b5b828204905092915050565b7f4c6f616e4d616e616765723a204c6f616e20616d6f756e74206d7573742062655f8201527f2067726561746572207468616e20300000000000000000000000000000000000602082015250565b5f61184b602f8361166f565b9150611856826117f1565b604082019050919050565b5f6020820190508181035f8301526118788161183f565b9050919050565b7f4c6f616e4d616e616765723a204578697374696e67206c6f616e206d757374205f8201527f6265207265706169642066697273740000000000000000000000000000000000602082015250565b5f6118d9602f8361166f565b91506118e48261187f565b604082019050919050565b5f6020820190508181035f830152611906816118cd565b9050919050565b7f4c6f616e4d616e616765723a204e6f20636f6c6c61746572616c20617661696c5f8201527f61626c6500000000000000000000000000000000000000000000000000000000602082015250565b5f61196760248361166f565b91506119728261190d565b604082019050919050565b5f6020820190508181035f8301526119948161195b565b9050919050565b7f4c6f616e4d616e616765723a20496e73756666696369656e7420636f6c6c61745f8201527f6572616c20666f7220726571756573746564206c6f616e20616d6f756e740000602082015250565b5f6119f5603e8361166f565b9150611a008261199b565b604082019050919050565b5f6020820190508181035f830152611a22816119e9565b9050919050565b5f604082019050611a3c5f8301856115ce565b611a4960208301846114e7565b9392505050565b611a59816115f6565b8114611a63575f80fd5b50565b5f81519050611a7481611a50565b92915050565b5f60208284031215611a8f57611a8e61150f565b5b5f611a9c84828501611a66565b91505092915050565b7f4c6f616e4d616e616765723a204c6f616e207472616e73666572206661696c655f8201527f6400000000000000000000000000000000000000000000000000000000000000602082015250565b5f611aff60218361166f565b9150611b0a82611aa5565b604082019050919050565b5f6020820190508181035f830152611b2c81611af3565b9050919050565b5f604082019050611b465f8301856114e7565b611b5360208301846114e7565b9392505050565b5f606082019050611b6d5f8301866115ce565b611b7a60208301856115ce565b611b8760408301846114e7565b949350505050565b7f4c6f616e4d616e616765723a2046756e64207472616e73666572206661696c655f8201527f6400000000000000000000000000000000000000000000000000000000000000602082015250565b5f611be960218361166f565b9150611bf482611b8f565b604082019050919050565b5f6020820190508181035f830152611c1681611bdd565b9050919050565b5f611c27826114de565b9150611c32836114de565b9250828201905080821115611c4a57611c49611726565b5b92915050565b7f4c6f616e4d616e616765723a204e6f20616374697665206c6f616e00000000005f82015250565b5f611c84601b8361166f565b9150611c8f82611c50565b602082019050919050565b5f6020820190508181035f830152611cb181611c78565b9050919050565b7f4c6f616e4d616e616765723a204c6f616e20697320616c7265616479207265705f8201527f6169640000000000000000000000000000000000000000000000000000000000602082015250565b5f611d1260238361166f565b9150611d1d82611cb8565b604082019050919050565b5f6020820190508181035f830152611d3f81611d06565b9050919050565b7f4c6f616e4d616e616765723a20496e73756666696369656e742072657061796d5f8201527f656e7420616d6f756e7400000000000000000000000000000000000000000000602082015250565b5f611da0602a8361166f565b9150611dab82611d46565b604082019050919050565b5f6020820190508181035f830152611dcd81611d94565b9050919050565b7f4c6f616e4d616e616765723a2052657061796d656e74207472616e73666572205f8201527f6661696c65640000000000000000000000000000000000000000000000000000602082015250565b5f611e2e60268361166f565b9150611e3982611dd4565b604082019050919050565b5f6020820190508181035f830152611e5b81611e22565b9050919050565b7f4c6f616e4d616e616765723a20496e76616c6964206475726174696f6e0000005f82015250565b5f611e96601d8361166f565b9150611ea182611e62565b602082019050919050565b5f6020820190508181035f830152611ec381611e8a565b9050919050565b7f4c6f616e4d616e616765723a204c6f616e20616c72656164792064656661756c5f8201527f7465640000000000000000000000000000000000000000000000000000000000602082015250565b5f611f2460238361166f565b9150611f2f82611eca565b604082019050919050565b5f6020820190508181035f830152611f5181611f18565b9050919050565b7f4c6f616e4d616e616765723a204c6f616e206e6f742064656661756c746564205f8201527f7965740000000000000000000000000000000000000000000000000000000000602082015250565b5f611fb260238361166f565b9150611fbd82611f58565b604082019050919050565b5f6020820190508181035f830152611fdf81611fa6565b905091905056fea26469706673582212202ca2792fb4e87111cde5245fcc9e881aed115327fc6b5180411665c45f605f6564736f6c634300081a0033",
					"opcodes": "PUSH1 0x80 PUSH1 0x40 MSTORE PUSH1 0x96 PUSH1 0x6 SSTORE PUSH3 0x278D00 PUSH1 0x7 SSTORE PUSH3 0xD2F00 PUSH1 0x8 SSTORE CALLVALUE DUP1 ISZERO PUSH2 0x22 JUMPI PUSH0 DUP1 REVERT JUMPDEST POP PUSH1 0x40 MLOAD PUSH2 0x2391 CODESIZE SUB DUP1 PUSH2 0x2391 DUP4 CODECOPY DUP2 DUP2 ADD PUSH1 0x40 MSTORE DUP2 ADD SWAP1 PUSH2 0x44 SWAP2 SWAP1 PUSH2 0x2F0 JUMP JUMPDEST CALLER PUSH1 0x1 PUSH0 DUP2 SWAP1 SSTORE POP PUSH0 PUSH20 0xFFFFFFFFFFFFFFFFFFFFFFFFFFFFFFFFFFFFFFFF AND DUP2 PUSH20 0xFFFFFFFFFFFFFFFFFFFFFFFFFFFFFFFFFFFFFFFF AND SUB PUSH2 0xBC JUMPI PUSH0 PUSH1 0x40 MLOAD PUSH32 0x1E4FBDF700000000000000000000000000000000000000000000000000000000 DUP2 MSTORE PUSH1 0x4 ADD PUSH2 0xB3 SWAP2 SWAP1 PUSH2 0x34F JUMP JUMPDEST PUSH1 0x40 MLOAD DUP1 SWAP2 SUB SWAP1 REVERT JUMPDEST PUSH2 0xCB DUP2 PUSH2 0x194 PUSH1 0x20 SHL PUSH1 0x20 SHR JUMP JUMPDEST POP DUP3 PUSH1 0x2 PUSH0 PUSH2 0x100 EXP DUP2 SLOAD DUP2 PUSH20 0xFFFFFFFFFFFFFFFFFFFFFFFFFFFFFFFFFFFFFFFF MUL NOT AND SWAP1 DUP4 PUSH20 0xFFFFFFFFFFFFFFFFFFFFFFFFFFFFFFFFFFFFFFFF AND MUL OR SWAP1 SSTORE POP DUP2 PUSH1 0x3 PUSH0 PUSH2 0x100 EXP DUP2 SLOAD DUP2 PUSH20 0xFFFFFFFFFFFFFFFFFFFFFFFFFFFFFFFFFFFFFFFF MUL NOT AND SWAP1 DUP4 PUSH20 0xFFFFFFFFFFFFFFFFFFFFFFFFFFFFFFFFFFFFFFFF AND MUL OR SWAP1 SSTORE POP DUP1 PUSH1 0x4 PUSH0 PUSH2 0x100 EXP DUP2 SLOAD DUP2 PUSH20 0xFFFFFFFFFFFFFFFFFFFFFFFFFFFFFFFFFFFFFFFF MUL NOT AND SWAP1 DUP4 PUSH20 0xFFFFFFFFFFFFFFFFFFFFFFFFFFFFFFFFFFFFFFFF AND MUL OR SWAP1 SSTORE POP POP POP POP PUSH2 0x368 JUMP JUMPDEST PUSH0 PUSH1 0x1 PUSH0 SWAP1 SLOAD SWAP1 PUSH2 0x100 EXP SWAP1 DIV PUSH20 0xFFFFFFFFFFFFFFFFFFFFFFFFFFFFFFFFFFFFFFFF AND SWAP1 POP DUP2 PUSH1 0x1 PUSH0 PUSH2 0x100 EXP DUP2 SLOAD DUP2 PUSH20 0xFFFFFFFFFFFFFFFFFFFFFFFFFFFFFFFFFFFFFFFF MUL NOT AND SWAP1 DUP4 PUSH20 0xFFFFFFFFFFFFFFFFFFFFFFFFFFFFFFFFFFFFFFFF AND MUL OR SWAP1 SSTORE POP DUP2 PUSH20 0xFFFFFFFFFFFFFFFFFFFFFFFFFFFFFFFFFFFFFFFF AND DUP2 PUSH20 0xFFFFFFFFFFFFFFFFFFFFFFFFFFFFFFFFFFFFFFFF AND PUSH32 0x8BE0079C531659141344CD1FD0A4F28419497F9722A3DAAFE3B4186F6B6457E0 PUSH1 0x40 MLOAD PUSH1 0x40 MLOAD DUP1 SWAP2 SUB SWAP1 LOG3 POP POP JUMP JUMPDEST PUSH0 DUP1 REVERT JUMPDEST PUSH0 PUSH20 0xFFFFFFFFFFFFFFFFFFFFFFFFFFFFFFFFFFFFFFFF DUP3 AND SWAP1 POP SWAP2 SWAP1 POP JUMP JUMPDEST PUSH0 PUSH2 0x284 DUP3 PUSH2 0x25B JUMP JUMPDEST SWAP1 POP SWAP2 SWAP1 POP JUMP JUMPDEST PUSH0 PUSH2 0x295 DUP3 PUSH2 0x27A JUMP JUMPDEST SWAP1 POP SWAP2 SWAP1 POP JUMP JUMPDEST PUSH2 0x2A5 DUP2 PUSH2 0x28B JUMP JUMPDEST DUP2 EQ PUSH2 0x2AF JUMPI PUSH0 DUP1 REVERT JUMPDEST POP JUMP JUMPDEST PUSH0 DUP2 MLOAD SWAP1 POP PUSH2 0x2C0 DUP2 PUSH2 0x29C JUMP JUMPDEST SWAP3 SWAP2 POP POP JUMP JUMPDEST PUSH2 0x2CF DUP2 PUSH2 0x27A JUMP JUMPDEST DUP2 EQ PUSH2 0x2D9 JUMPI PUSH0 DUP1 REVERT JUMPDEST POP JUMP JUMPDEST PUSH0 DUP2 MLOAD SWAP1 POP PUSH2 0x2EA DUP2 PUSH2 0x2C6 JUMP JUMPDEST SWAP3 SWAP2 POP POP JUMP JUMPDEST PUSH0 DUP1 PUSH0 PUSH1 0x60 DUP5 DUP7 SUB SLT ISZERO PUSH2 0x307 JUMPI PUSH2 0x306 PUSH2 0x257 JUMP JUMPDEST JUMPDEST PUSH0 PUSH2 0x314 DUP7 DUP3 DUP8 ADD PUSH2 0x2B2 JUMP JUMPDEST SWAP4 POP POP PUSH1 0x20 PUSH2 0x325 DUP7 DUP3 DUP8 ADD PUSH2 0x2DC JUMP JUMPDEST SWAP3 POP POP PUSH1 0x40 PUSH2 0x336 DUP7 DUP3 DUP8 ADD PUSH2 0x2DC JUMP JUMPDEST SWAP2 POP POP SWAP3 POP SWAP3 POP SWAP3 JUMP JUMPDEST PUSH2 0x349 DUP2 PUSH2 0x27A JUMP JUMPDEST DUP3 MSTORE POP POP JUMP JUMPDEST PUSH0 PUSH1 0x20 DUP3 ADD SWAP1 POP PUSH2 0x362 PUSH0 DUP4 ADD DUP5 PUSH2 0x340 JUMP JUMPDEST SWAP3 SWAP2 POP POP JUMP JUMPDEST PUSH2 0x201C DUP1 PUSH2 0x375 PUSH0 CODECOPY PUSH0 RETURN INVALID PUSH1 0x80 PUSH1 0x40 MSTORE CALLVALUE DUP1 ISZERO PUSH2 0xF JUMPI PUSH0 DUP1 REVERT JUMPDEST POP PUSH1 0x4 CALLDATASIZE LT PUSH2 0x12A JUMPI PUSH0 CALLDATALOAD PUSH1 0xE0 SHR DUP1 PUSH4 0x8D5D3429 GT PUSH2 0xAB JUMPI DUP1 PUSH4 0xC000BC60 GT PUSH2 0x6F JUMPI DUP1 PUSH4 0xC000BC60 EQ PUSH2 0x2E4 JUMPI DUP1 PUSH4 0xE9E190A3 EQ PUSH2 0x300 JUMPI DUP1 PUSH4 0xEBBB7DE9 EQ PUSH2 0x335 JUMPI DUP1 PUSH4 0xF2FDE38B EQ PUSH2 0x351 JUMPI DUP1 PUSH4 0xF5521BF1 EQ PUSH2 0x36D JUMPI PUSH2 0x12A JUMP JUMPDEST DUP1 PUSH4 0x8D5D3429 EQ PUSH2 0x256 JUMPI DUP1 PUSH4 0x8DA5CB5B EQ PUSH2 0x272 JUMPI DUP1 PUSH4 0x97ED71EB EQ PUSH2 0x290 JUMPI DUP1 PUSH4 0xAB7B1C89 EQ PUSH2 0x2AC JUMPI DUP1 PUSH4 0xBA43A922 EQ PUSH2 0x2C8 JUMPI PUSH2 0x12A JUMP JUMPDEST DUP1 PUSH4 0x656F9BA4 GT PUSH2 0xF2 JUMPI DUP1 PUSH4 0x656F9BA4 EQ PUSH2 0x1C2 JUMPI DUP1 PUSH4 0x688AEF48 EQ PUSH2 0x1E0 JUMPI DUP1 PUSH4 0x70F37D27 EQ PUSH2 0x1FE JUMPI DUP1 PUSH4 0x715018A6 EQ PUSH2 0x21C JUMPI DUP1 PUSH4 0x89A99EC8 EQ PUSH2 0x226 JUMPI PUSH2 0x12A JUMP JUMPDEST DUP1 PUSH4 0xEA86AD8 EQ PUSH2 0x12E JUMPI DUP1 PUSH4 0x23BE345C EQ PUSH2 0x14C JUMPI DUP1 PUSH4 0x2630C12F EQ PUSH2 0x16A JUMPI DUP1 PUSH4 0x2AF7E2EA EQ PUSH2 0x188 JUMPI DUP1 PUSH4 0x650DFA18 EQ PUSH2 0x1A6 JUMPI JUMPDEST PUSH0 DUP1 REVERT JUMPDEST PUSH2 0x136 PUSH2 0x38B JUMP JUMPDEST PUSH1 0x40 MLOAD PUSH2 0x143 SWAP2 SWAP1 PUSH2 0x1453 JUMP JUMPDEST PUSH1 0x40 MLOAD DUP1 SWAP2 SUB SWAP1 RETURN JUMPDEST PUSH2 0x154 PUSH2 0x3B0 JUMP JUMPDEST PUSH1 0x40 MLOAD PUSH2 0x161 SWAP2 SWAP1 PUSH2 0x148C JUMP JUMPDEST PUSH1 0x40 MLOAD DUP1 SWAP2 SUB SWAP1 RETURN JUMPDEST PUSH2 0x172 PUSH2 0x3D5 JUMP JUMPDEST PUSH1 0x40 MLOAD PUSH2 0x17F SWAP2 SWAP1 PUSH2 0x14C5 JUMP JUMPDEST PUSH1 0x40 MLOAD DUP1 SWAP2 SUB SWAP1 RETURN JUMPDEST PUSH2 0x190 PUSH2 0x3FA JUMP JUMPDEST PUSH1 0x40 MLOAD PUSH2 0x19D SWAP2 SWAP1 PUSH2 0x14F6 JUMP JUMPDEST PUSH1 0x40 MLOAD DUP1 SWAP2 SUB SWAP1 RETURN JUMPDEST PUSH2 0x1C0 PUSH1 0x4 DUP1 CALLDATASIZE SUB DUP2 ADD SWAP1 PUSH2 0x1BB SWAP2 SWAP1 PUSH2 0x153D JUMP JUMPDEST PUSH2 0x400 JUMP JUMPDEST STOP JUMPDEST PUSH2 0x1CA PUSH2 0x456 JUMP JUMPDEST PUSH1 0x40 MLOAD PUSH2 0x1D7 SWAP2 SWAP1 PUSH2 0x14F6 JUMP JUMPDEST PUSH1 0x40 MLOAD DUP1 SWAP2 SUB SWAP1 RETURN JUMPDEST PUSH2 0x1E8 PUSH2 0x513 JUMP JUMPDEST PUSH1 0x40 MLOAD PUSH2 0x1F5 SWAP2 SWAP1 PUSH2 0x14F6 JUMP JUMPDEST PUSH1 0x40 MLOAD DUP1 SWAP2 SUB SWAP1 RETURN JUMPDEST PUSH2 0x206 PUSH2 0x519 JUMP JUMPDEST PUSH1 0x40 MLOAD PUSH2 0x213 SWAP2 SWAP1 PUSH2 0x14F6 JUMP JUMPDEST PUSH1 0x40 MLOAD DUP1 SWAP2 SUB SWAP1 RETURN JUMPDEST PUSH2 0x224 PUSH2 0x51F JUMP JUMPDEST STOP JUMPDEST PUSH2 0x240 PUSH1 0x4 DUP1 CALLDATASIZE SUB DUP2 ADD SWAP1 PUSH2 0x23B SWAP2 SWAP1 PUSH2 0x15A3 JUMP JUMPDEST PUSH2 0x532 JUMP JUMPDEST PUSH1 0x40 MLOAD PUSH2 0x24D SWAP2 SWAP1 PUSH2 0x14F6 JUMP JUMPDEST PUSH1 0x40 MLOAD DUP1 SWAP2 SUB SWAP1 RETURN JUMPDEST PUSH2 0x270 PUSH1 0x4 DUP1 CALLDATASIZE SUB DUP2 ADD SWAP1 PUSH2 0x26B SWAP2 SWAP1 PUSH2 0x153D JUMP JUMPDEST PUSH2 0x5F1 JUMP JUMPDEST STOP JUMPDEST PUSH2 0x27A PUSH2 0xA0E JUMP JUMPDEST PUSH1 0x40 MLOAD PUSH2 0x287 SWAP2 SWAP1 PUSH2 0x15DD JUMP JUMPDEST PUSH1 0x40 MLOAD DUP1 SWAP2 SUB SWAP1 RETURN JUMPDEST PUSH2 0x2AA PUSH1 0x4 DUP1 CALLDATASIZE SUB DUP2 ADD SWAP1 PUSH2 0x2A5 SWAP2 SWAP1 PUSH2 0x153D JUMP JUMPDEST PUSH2 0xA36 JUMP JUMPDEST STOP JUMPDEST PUSH2 0x2C6 PUSH1 0x4 DUP1 CALLDATASIZE SUB DUP2 ADD SWAP1 PUSH2 0x2C1 SWAP2 SWAP1 PUSH2 0x153D JUMP JUMPDEST PUSH2 0xB3E JUMP JUMPDEST STOP JUMPDEST PUSH2 0x2E2 PUSH1 0x4 DUP1 CALLDATASIZE SUB DUP2 ADD SWAP1 PUSH2 0x2DD SWAP2 SWAP1 PUSH2 0x153D JUMP JUMPDEST PUSH2 0xE73 JUMP JUMPDEST STOP JUMPDEST PUSH2 0x2FE PUSH1 0x4 DUP1 CALLDATASIZE SUB DUP2 ADD SWAP1 PUSH2 0x2F9 SWAP2 SWAP1 PUSH2 0x153D JUMP JUMPDEST PUSH2 0xEC7 JUMP JUMPDEST STOP JUMPDEST PUSH2 0x31A PUSH1 0x4 DUP1 CALLDATASIZE SUB DUP2 ADD SWAP1 PUSH2 0x315 SWAP2 SWAP1 PUSH2 0x15A3 JUMP JUMPDEST PUSH2 0xF1B JUMP JUMPDEST PUSH1 0x40 MLOAD PUSH2 0x32C SWAP7 SWAP6 SWAP5 SWAP4 SWAP3 SWAP2 SWAP1 PUSH2 0x1610 JUMP JUMPDEST PUSH1 0x40 MLOAD DUP1 SWAP2 SUB SWAP1 RETURN JUMPDEST PUSH2 0x34F PUSH1 0x4 DUP1 CALLDATASIZE SUB DUP2 ADD SWAP1 PUSH2 0x34A SWAP2 SWAP1 PUSH2 0x15A3 JUMP JUMPDEST PUSH2 0xF6C JUMP JUMPDEST STOP JUMPDEST PUSH2 0x36B PUSH1 0x4 DUP1 CALLDATASIZE SUB DUP2 ADD SWAP1 PUSH2 0x366 SWAP2 SWAP1 PUSH2 0x15A3 JUMP JUMPDEST PUSH2 0x11B1 JUMP JUMPDEST STOP JUMPDEST PUSH2 0x375 PUSH2 0x1235 JUMP JUMPDEST PUSH1 0x40 MLOAD PUSH2 0x382 SWAP2 SWAP1 PUSH2 0x14F6 JUMP JUMPDEST PUSH1 0x40 MLOAD DUP1 SWAP2 SUB SWAP1 RETURN JUMPDEST PUSH1 0x2 PUSH0 SWAP1 SLOAD SWAP1 PUSH2 0x100 EXP SWAP1 DIV PUSH20 0xFFFFFFFFFFFFFFFFFFFFFFFFFFFFFFFFFFFFFFFF AND DUP2 JUMP JUMPDEST PUSH1 0x3 PUSH0 SWAP1 SLOAD SWAP1 PUSH2 0x100 EXP SWAP1 DIV PUSH20 0xFFFFFFFFFFFFFFFFFFFFFFFFFFFFFFFFFFFFFFFF AND DUP2 JUMP JUMPDEST PUSH1 0x4 PUSH0 SWAP1 SLOAD SWAP1 PUSH2 0x100 EXP SWAP1 DIV PUSH20 0xFFFFFFFFFFFFFFFFFFFFFFFFFFFFFFFFFFFFFFFF AND DUP2 JUMP JUMPDEST PUSH1 0x8 SLOAD DUP2 JUMP JUMPDEST PUSH2 0x408 PUSH2 0x123B JUMP JUMPDEST PUSH1 0x64 DUP2 LT ISZERO PUSH2 0x44C JUMPI PUSH1 0x40 MLOAD PUSH32 0x8C379A000000000000000000000000000000000000000000000000000000000 DUP2 MSTORE PUSH1 0x4 ADD PUSH2 0x443 SWAP1 PUSH2 0x16C9 JUMP JUMPDEST PUSH1 0x40 MLOAD DUP1 SWAP2 SUB SWAP1 REVERT JUMPDEST DUP1 PUSH1 0x6 DUP2 SWAP1 SSTORE POP POP JUMP JUMPDEST PUSH0 DUP1 PUSH1 0x3 PUSH0 SWAP1 SLOAD SWAP1 PUSH2 0x100 EXP SWAP1 DIV PUSH20 0xFFFFFFFFFFFFFFFFFFFFFFFFFFFFFFFFFFFFFFFF AND PUSH20 0xFFFFFFFFFFFFFFFFFFFFFFFFFFFFFFFFFFFFFFFF AND PUSH4 0x9B8AAFD CALLER PUSH1 0x40 MLOAD DUP3 PUSH4 0xFFFFFFFF AND PUSH1 0xE0 SHL DUP2 MSTORE PUSH1 0x4 ADD PUSH2 0x4B2 SWAP2 SWAP1 PUSH2 0x15DD JUMP JUMPDEST PUSH1 0x20 PUSH1 0x40 MLOAD DUP1 DUP4 SUB DUP2 DUP7 GAS STATICCALL ISZERO DUP1 ISZERO PUSH2 0x4CD JUMPI RETURNDATASIZE PUSH0 DUP1 RETURNDATACOPY RETURNDATASIZE PUSH0 REVERT JUMPDEST POP POP POP POP PUSH1 0x40 MLOAD RETURNDATASIZE PUSH1 0x1F NOT PUSH1 0x1F DUP3 ADD AND DUP3 ADD DUP1 PUSH1 0x40 MSTORE POP DUP2 ADD SWAP1 PUSH2 0x4F1 SWAP2 SWAP1 PUSH2 0x16FB JUMP JUMPDEST SWAP1 POP PUSH1 0x6 SLOAD PUSH1 0x64 DUP3 PUSH2 0x503 SWAP2 SWAP1 PUSH2 0x1753 JUMP JUMPDEST PUSH2 0x50D SWAP2 SWAP1 PUSH2 0x17C1 JUMP JUMPDEST SWAP2 POP POP SWAP1 JUMP JUMPDEST PUSH1 0x6 SLOAD DUP2 JUMP JUMPDEST PUSH1 0x5 SLOAD DUP2 JUMP JUMPDEST PUSH2 0x527 PUSH2 0x123B JUMP JUMPDEST PUSH2 0x530 PUSH0 PUSH2 0x12C2 JUMP JUMPDEST JUMP JUMPDEST PUSH0 DUP1 PUSH1 0x3 PUSH0 SWAP1 SLOAD SWAP1 PUSH2 0x100 EXP SWAP1 DIV PUSH20 0xFFFFFFFFFFFFFFFFFFFFFFFFFFFFFFFFFFFFFFFF AND PUSH20 0xFFFFFFFFFFFFFFFFFFFFFFFFFFFFFFFFFFFFFFFF AND PUSH4 0x9B8AAFD DUP5 PUSH1 0x40 MLOAD DUP3 PUSH4 0xFFFFFFFF AND PUSH1 0xE0 SHL DUP2 MSTORE PUSH1 0x4 ADD PUSH2 0x58E SWAP2 SWAP1 PUSH2 0x15DD JUMP JUMPDEST PUSH1 0x20 PUSH1 0x40 MLOAD DUP1 DUP4 SUB DUP2 DUP7 GAS STATICCALL ISZERO DUP1 ISZERO PUSH2 0x5A9 JUMPI RETURNDATASIZE PUSH0 DUP1 RETURNDATACOPY RETURNDATASIZE PUSH0 REVERT JUMPDEST POP POP POP POP PUSH1 0x40 MLOAD RETURNDATASIZE PUSH1 0x1F NOT PUSH1 0x1F DUP3 ADD AND DUP3 ADD DUP1 PUSH1 0x40 MSTORE POP DUP2 ADD SWAP1 PUSH2 0x5CD SWAP2 SWAP1 PUSH2 0x16FB JUMP JUMPDEST SWAP1 POP PUSH1 0x6 SLOAD PUSH1 0x64 DUP3 PUSH2 0x5DF SWAP2 SWAP1 PUSH2 0x1753 JUMP JUMPDEST PUSH2 0x5E9 SWAP2 SWAP1 PUSH2 0x17C1 JUMP JUMPDEST SWAP2 POP POP SWAP2 SWAP1 POP JUMP JUMPDEST PUSH2 0x5F9 PUSH2 0x1385 JUMP JUMPDEST PUSH0 DUP2 GT PUSH2 0x63B JUMPI PUSH1 0x40 MLOAD PUSH32 0x8C379A000000000000000000000000000000000000000000000000000000000 DUP2 MSTORE PUSH1 0x4 ADD PUSH2 0x632 SWAP1 PUSH2 0x1861 JUMP JUMPDEST PUSH1 0x40 MLOAD DUP1 SWAP2 SUB SWAP1 REVERT JUMPDEST PUSH0 PUSH1 0x9 PUSH0 CALLER PUSH20 0xFFFFFFFFFFFFFFFFFFFFFFFFFFFFFFFFFFFFFFFF AND PUSH20 0xFFFFFFFFFFFFFFFFFFFFFFFFFFFFFFFFFFFFFFFF AND DUP2 MSTORE PUSH1 0x20 ADD SWAP1 DUP2 MSTORE PUSH1 0x20 ADD PUSH0 KECCAK256 PUSH0 ADD SLOAD EQ PUSH2 0x6BC JUMPI PUSH1 0x40 MLOAD PUSH32 0x8C379A000000000000000000000000000000000000000000000000000000000 DUP2 MSTORE PUSH1 0x4 ADD PUSH2 0x6B3 SWAP1 PUSH2 0x18EF JUMP JUMPDEST PUSH1 0x40 MLOAD DUP1 SWAP2 SUB SWAP1 REVERT JUMPDEST PUSH0 PUSH1 0x3 PUSH0 SWAP1 SLOAD SWAP1 PUSH2 0x100 EXP SWAP1 DIV PUSH20 0xFFFFFFFFFFFFFFFFFFFFFFFFFFFFFFFFFFFFFFFF AND PUSH20 0xFFFFFFFFFFFFFFFFFFFFFFFFFFFFFFFFFFFFFFFF AND PUSH4 0x9B8AAFD CALLER PUSH1 0x40 MLOAD DUP3 PUSH4 0xFFFFFFFF AND PUSH1 0xE0 SHL DUP2 MSTORE PUSH1 0x4 ADD PUSH2 0x717 SWAP2 SWAP1 PUSH2 0x15DD JUMP JUMPDEST PUSH1 0x20 PUSH1 0x40 MLOAD DUP1 DUP4 SUB DUP2 DUP7 GAS STATICCALL ISZERO DUP1 ISZERO PUSH2 0x732 JUMPI RETURNDATASIZE PUSH0 DUP1 RETURNDATACOPY RETURNDATASIZE PUSH0 REVERT JUMPDEST POP POP POP POP PUSH1 0x40 MLOAD RETURNDATASIZE PUSH1 0x1F NOT PUSH1 0x1F DUP3 ADD AND DUP3 ADD DUP1 PUSH1 0x40 MSTORE POP DUP2 ADD SWAP1 PUSH2 0x756 SWAP2 SWAP1 PUSH2 0x16FB JUMP JUMPDEST SWAP1 POP PUSH0 DUP2 GT PUSH2 0x79A JUMPI PUSH1 0x40 MLOAD PUSH32 0x8C379A000000000000000000000000000000000000000000000000000000000 DUP2 MSTORE PUSH1 0x4 ADD PUSH2 0x791 SWAP1 PUSH2 0x197D JUMP JUMPDEST PUSH1 0x40 MLOAD DUP1 SWAP2 SUB SWAP1 REVERT JUMPDEST PUSH0 PUSH1 0x6 SLOAD PUSH1 0x64 DUP4 PUSH2 0x7AB SWAP2 SWAP1 PUSH2 0x1753 JUMP JUMPDEST PUSH2 0x7B5 SWAP2 SWAP1 PUSH2 0x17C1 JUMP JUMPDEST SWAP1 POP DUP1 DUP4 GT ISZERO PUSH2 0x7FA JUMPI PUSH1 0x40 MLOAD PUSH32 0x8C379A000000000000000000000000000000000000000000000000000000000 DUP2 MSTORE PUSH1 0x4 ADD PUSH2 0x7F1 SWAP1 PUSH2 0x1A0B JUMP JUMPDEST PUSH1 0x40 MLOAD DUP1 SWAP2 SUB SWAP1 REVERT JUMPDEST PUSH0 PUSH1 0x40 MLOAD DUP1 PUSH1 0xC0 ADD PUSH1 0x40 MSTORE DUP1 DUP6 DUP2 MSTORE PUSH1 0x20 ADD PUSH1 0x5 DUP2 MSTORE PUSH1 0x20 ADD TIMESTAMP DUP2 MSTORE PUSH1 0x20 ADD DUP5 DUP2 MSTORE PUSH1 0x20 ADD PUSH0 ISZERO ISZERO DUP2 MSTORE PUSH1 0x20 ADD PUSH0 ISZERO ISZERO DUP2 MSTORE POP SWAP1 POP DUP1 PUSH1 0x9 PUSH0 CALLER PUSH20 0xFFFFFFFFFFFFFFFFFFFFFFFFFFFFFFFFFFFFFFFF AND PUSH20 0xFFFFFFFFFFFFFFFFFFFFFFFFFFFFFFFFFFFFFFFF AND DUP2 MSTORE PUSH1 0x20 ADD SWAP1 DUP2 MSTORE PUSH1 0x20 ADD PUSH0 KECCAK256 PUSH0 DUP3 ADD MLOAD DUP2 PUSH0 ADD SSTORE PUSH1 0x20 DUP3 ADD MLOAD DUP2 PUSH1 0x1 ADD SSTORE PUSH1 0x40 DUP3 ADD MLOAD DUP2 PUSH1 0x2 ADD SSTORE PUSH1 0x60 DUP3 ADD MLOAD DUP2 PUSH1 0x3 ADD SSTORE PUSH1 0x80 DUP3 ADD MLOAD DUP2 PUSH1 0x4 ADD PUSH0 PUSH2 0x100 EXP DUP2 SLOAD DUP2 PUSH1 0xFF MUL NOT AND SWAP1 DUP4 ISZERO ISZERO MUL OR SWAP1 SSTORE POP PUSH1 0xA0 DUP3 ADD MLOAD DUP2 PUSH1 0x4 ADD PUSH1 0x1 PUSH2 0x100 EXP DUP2 SLOAD DUP2 PUSH1 0xFF MUL NOT AND SWAP1 DUP4 ISZERO ISZERO MUL OR SWAP1 SSTORE POP SWAP1 POP POP PUSH1 0x2 PUSH0 SWAP1 SLOAD SWAP1 PUSH2 0x100 EXP SWAP1 DIV PUSH20 0xFFFFFFFFFFFFFFFFFFFFFFFFFFFFFFFFFFFFFFFF AND PUSH20 0xFFFFFFFFFFFFFFFFFFFFFFFFFFFFFFFFFFFFFFFF AND PUSH4 0xA9059CBB CALLER DUP7 PUSH1 0x40 MLOAD DUP4 PUSH4 0xFFFFFFFF AND PUSH1 0xE0 SHL DUP2 MSTORE PUSH1 0x4 ADD PUSH2 0x931 SWAP3 SWAP2 SWAP1 PUSH2 0x1A29 JUMP JUMPDEST PUSH1 0x20 PUSH1 0x40 MLOAD DUP1 DUP4 SUB DUP2 PUSH0 DUP8 GAS CALL ISZERO DUP1 ISZERO PUSH2 0x94D JUMPI RETURNDATASIZE PUSH0 DUP1 RETURNDATACOPY RETURNDATASIZE PUSH0 REVERT JUMPDEST POP POP POP POP PUSH1 0x40 MLOAD RETURNDATASIZE PUSH1 0x1F NOT PUSH1 0x1F DUP3 ADD AND DUP3 ADD DUP1 PUSH1 0x40 MSTORE POP DUP2 ADD SWAP1 PUSH2 0x971 SWAP2 SWAP1 PUSH2 0x1A7A JUMP JUMPDEST PUSH2 0x9B0 JUMPI PUSH1 0x40 MLOAD PUSH32 0x8C379A000000000000000000000000000000000000000000000000000000000 DUP2 MSTORE PUSH1 0x4 ADD PUSH2 0x9A7 SWAP1 PUSH2 0x1B15 JUMP JUMPDEST PUSH1 0x40 MLOAD DUP1 SWAP2 SUB SWAP1 REVERT JUMPDEST CALLER PUSH20 0xFFFFFFFFFFFFFFFFFFFFFFFFFFFFFFFFFFFFFFFF AND PUSH32 0x1C793C0FDA4A6B2B79DD68D91D9F7FDE8F7AA0878615C36A4624E6CCDBB1EAD1 DUP6 DUP6 PUSH1 0x40 MLOAD PUSH2 0x9F8 SWAP3 SWAP2 SWAP1 PUSH2 0x1B33 JUMP JUMPDEST PUSH1 0x40 MLOAD DUP1 SWAP2 SUB SWAP1 LOG2 POP POP POP PUSH2 0xA0B PUSH2 0x13C9 JUMP JUMPDEST POP JUMP JUMPDEST PUSH0 PUSH1 0x1 PUSH0 SWAP1 SLOAD SWAP1 PUSH2 0x100 EXP SWAP1 DIV PUSH20 0xFFFFFFFFFFFFFFFFFFFFFFFFFFFFFFFFFFFFFFFF AND SWAP1 POP SWAP1 JUMP JUMPDEST PUSH2 0xA3E PUSH2 0x123B JUMP JUMPDEST PUSH2 0xA46 PUSH2 0x123B JUMP JUMPDEST PUSH1 0x2 PUSH0 SWAP1 SLOAD SWAP1 PUSH2 0x100 EXP SWAP1 DIV PUSH20 0xFFFFFFFFFFFFFFFFFFFFFFFFFFFFFFFFFFFFFFFF AND PUSH20 0xFFFFFFFFFFFFFFFFFFFFFFFFFFFFFFFFFFFFFFFF AND PUSH4 0x23B872DD CALLER ADDRESS DUP5 PUSH1 0x40 MLOAD DUP5 PUSH4 0xFFFFFFFF AND PUSH1 0xE0 SHL DUP2 MSTORE PUSH1 0x4 ADD PUSH2 0xAA4 SWAP4 SWAP3 SWAP2 SWAP1 PUSH2 0x1B5A JUMP JUMPDEST PUSH1 0x20 PUSH1 0x40 MLOAD DUP1 DUP4 SUB DUP2 PUSH0 DUP8 GAS CALL ISZERO DUP1 ISZERO PUSH2 0xAC0 JUMPI RETURNDATASIZE PUSH0 DUP1 RETURNDATACOPY RETURNDATASIZE PUSH0 REVERT JUMPDEST POP POP POP POP PUSH1 0x40 MLOAD RETURNDATASIZE PUSH1 0x1F NOT PUSH1 0x1F DUP3 ADD AND DUP3 ADD DUP1 PUSH1 0x40 MSTORE POP DUP2 ADD SWAP1 PUSH2 0xAE4 SWAP2 SWAP1 PUSH2 0x1A7A JUMP JUMPDEST PUSH2 0xB23 JUMPI PUSH1 0x40 MLOAD PUSH32 0x8C379A000000000000000000000000000000000000000000000000000000000 DUP2 MSTORE PUSH1 0x4 ADD PUSH2 0xB1A SWAP1 PUSH2 0x1BFF JUMP JUMPDEST PUSH1 0x40 MLOAD DUP1 SWAP2 SUB SWAP1 REVERT JUMPDEST DUP1 PUSH1 0x5 PUSH0 DUP3 DUP3 SLOAD PUSH2 0xB34 SWAP2 SWAP1 PUSH2 0x1C1D JUMP JUMPDEST SWAP3 POP POP DUP2 SWAP1 SSTORE POP POP JUMP JUMPDEST PUSH2 0xB46 PUSH2 0x1385 JUMP JUMPDEST PUSH0 PUSH1 0x9 PUSH0 CALLER PUSH20 0xFFFFFFFFFFFFFFFFFFFFFFFFFFFFFFFFFFFFFFFF AND PUSH20 0xFFFFFFFFFFFFFFFFFFFFFFFFFFFFFFFFFFFFFFFF AND DUP2 MSTORE PUSH1 0x20 ADD SWAP1 DUP2 MSTORE PUSH1 0x20 ADD PUSH0 KECCAK256 SWAP1 POP PUSH0 DUP2 PUSH0 ADD SLOAD GT PUSH2 0xBCB JUMPI PUSH1 0x40 MLOAD PUSH32 0x8C379A000000000000000000000000000000000000000000000000000000000 DUP2 MSTORE PUSH1 0x4 ADD PUSH2 0xBC2 SWAP1 PUSH2 0x1C9A JUMP JUMPDEST PUSH1 0x40 MLOAD DUP1 SWAP2 SUB SWAP1 REVERT JUMPDEST DUP1 PUSH1 0x4 ADD PUSH0 SWAP1 SLOAD SWAP1 PUSH2 0x100 EXP SWAP1 DIV PUSH1 0xFF AND ISZERO PUSH2 0xC1C JUMPI PUSH1 0x40 MLOAD PUSH32 0x8C379A000000000000000000000000000000000000000000000000000000000 DUP2 MSTORE PUSH1 0x4 ADD PUSH2 0xC13 SWAP1 PUSH2 0x1D28 JUMP JUMPDEST PUSH1 0x40 MLOAD DUP1 SWAP2 SUB SWAP1 REVERT JUMPDEST PUSH0 PUSH1 0x64 DUP3 PUSH1 0x1 ADD SLOAD DUP4 PUSH0 ADD SLOAD PUSH2 0xC32 SWAP2 SWAP1 PUSH2 0x1753 JUMP JUMPDEST PUSH2 0xC3C SWAP2 SWAP1 PUSH2 0x17C1 JUMP JUMPDEST DUP3 PUSH0 ADD SLOAD PUSH2 0xC4A SWAP2 SWAP1 PUSH2 0x1C1D JUMP JUMPDEST SWAP1 POP DUP1 DUP4 LT ISZERO PUSH2 0xC8F JUMPI PUSH1 0x40 MLOAD PUSH32 0x8C379A000000000000000000000000000000000000000000000000000000000 DUP2 MSTORE PUSH1 0x4 ADD PUSH2 0xC86 SWAP1 PUSH2 0x1DB6 JUMP JUMPDEST PUSH1 0x40 MLOAD DUP1 SWAP2 SUB SWAP1 REVERT JUMPDEST PUSH1 0x2 PUSH0 SWAP1 SLOAD SWAP1 PUSH2 0x100 EXP SWAP1 DIV PUSH20 0xFFFFFFFFFFFFFFFFFFFFFFFFFFFFFFFFFFFFFFFF AND PUSH20 0xFFFFFFFFFFFFFFFFFFFFFFFFFFFFFFFFFFFFFFFF AND PUSH4 0x23B872DD CALLER ADDRESS DUP7 PUSH1 0x40 MLOAD DUP5 PUSH4 0xFFFFFFFF AND PUSH1 0xE0 SHL DUP2 MSTORE PUSH1 0x4 ADD PUSH2 0xCED SWAP4 SWAP3 SWAP2 SWAP1 PUSH2 0x1B5A JUMP JUMPDEST PUSH1 0x20 PUSH1 0x40 MLOAD DUP1 DUP4 SUB DUP2 PUSH0 DUP8 GAS CALL ISZERO DUP1 ISZERO PUSH2 0xD09 JUMPI RETURNDATASIZE PUSH0 DUP1 RETURNDATACOPY RETURNDATASIZE PUSH0 REVERT JUMPDEST POP POP POP POP PUSH1 0x40 MLOAD RETURNDATASIZE PUSH1 0x1F NOT PUSH1 0x1F DUP3 ADD AND DUP3 ADD DUP1 PUSH1 0x40 MSTORE POP DUP2 ADD SWAP1 PUSH2 0xD2D SWAP2 SWAP1 PUSH2 0x1A7A JUMP JUMPDEST PUSH2 0xD6C JUMPI PUSH1 0x40 MLOAD PUSH32 0x8C379A000000000000000000000000000000000000000000000000000000000 DUP2 MSTORE PUSH1 0x4 ADD PUSH2 0xD63 SWAP1 PUSH2 0x1E44 JUMP JUMPDEST PUSH1 0x40 MLOAD DUP1 SWAP2 SUB SWAP1 REVERT JUMPDEST PUSH1 0x1 DUP3 PUSH1 0x4 ADD PUSH0 PUSH2 0x100 EXP DUP2 SLOAD DUP2 PUSH1 0xFF MUL NOT AND SWAP1 DUP4 ISZERO ISZERO MUL OR SWAP1 SSTORE POP PUSH1 0x3 PUSH0 SWAP1 SLOAD SWAP1 PUSH2 0x100 EXP SWAP1 DIV PUSH20 0xFFFFFFFFFFFFFFFFFFFFFFFFFFFFFFFFFFFFFFFF AND PUSH20 0xFFFFFFFFFFFFFFFFFFFFFFFFFFFFFFFFFFFFFFFF AND PUSH4 0x192E7A7B CALLER PUSH1 0x40 MLOAD DUP3 PUSH4 0xFFFFFFFF AND PUSH1 0xE0 SHL DUP2 MSTORE PUSH1 0x4 ADD PUSH2 0xDE2 SWAP2 SWAP1 PUSH2 0x15DD JUMP JUMPDEST PUSH0 PUSH1 0x40 MLOAD DUP1 DUP4 SUB DUP2 PUSH0 DUP8 DUP1 EXTCODESIZE ISZERO DUP1 ISZERO PUSH2 0xDF9 JUMPI PUSH0 DUP1 REVERT JUMPDEST POP GAS CALL ISZERO DUP1 ISZERO PUSH2 0xE0B JUMPI RETURNDATASIZE PUSH0 DUP1 RETURNDATACOPY RETURNDATASIZE PUSH0 REVERT JUMPDEST POP POP POP POP CALLER PUSH20 0xFFFFFFFFFFFFFFFFFFFFFFFFFFFFFFFFFFFFFFFF AND PUSH32 0xC7CE0A35F17B490DE2A317E7FECB2CAE86B1ABFFB03800B2F492823521382698 DUP4 PUSH0 ADD SLOAD DUP5 PUSH1 0x3 ADD SLOAD PUSH1 0x40 MLOAD PUSH2 0xE5E SWAP3 SWAP2 SWAP1 PUSH2 0x1B33 JUMP JUMPDEST PUSH1 0x40 MLOAD DUP1 SWAP2 SUB SWAP1 LOG2 POP POP PUSH2 0xE70 PUSH2 0x13C9 JUMP JUMPDEST POP JUMP JUMPDEST PUSH2 0xE7B PUSH2 0x123B JUMP JUMPDEST PUSH0 DUP2 GT PUSH2 0xEBD JUMPI PUSH1 0x40 MLOAD PUSH32 0x8C379A000000000000000000000000000000000000000000000000000000000 DUP2 MSTORE PUSH1 0x4 ADD PUSH2 0xEB4 SWAP1 PUSH2 0x1EAC JUMP JUMPDEST PUSH1 0x40 MLOAD DUP1 SWAP2 SUB SWAP1 REVERT JUMPDEST DUP1 PUSH1 0x7 DUP2 SWAP1 SSTORE POP POP JUMP JUMPDEST PUSH2 0xECF PUSH2 0x123B JUMP JUMPDEST PUSH0 DUP2 GT PUSH2 0xF11 JUMPI PUSH1 0x40 MLOAD PUSH32 0x8C379A000000000000000000000000000000000000000000000000000000000 DUP2 MSTORE PUSH1 0x4 ADD PUSH2 0xF08 SWAP1 PUSH2 0x1EAC JUMP JUMPDEST PUSH1 0x40 MLOAD DUP1 SWAP2 SUB SWAP1 REVERT JUMPDEST DUP1 PUSH1 0x8 DUP2 SWAP1 SSTORE POP POP JUMP JUMPDEST PUSH1 0x9 PUSH1 0x20 MSTORE DUP1 PUSH0 MSTORE PUSH1 0x40 PUSH0 KECCAK256 PUSH0 SWAP2 POP SWAP1 POP DUP1 PUSH0 ADD SLOAD SWAP1 DUP1 PUSH1 0x1 ADD SLOAD SWAP1 DUP1 PUSH1 0x2 ADD SLOAD SWAP1 DUP1 PUSH1 0x3 ADD SLOAD SWAP1 DUP1 PUSH1 0x4 ADD PUSH0 SWAP1 SLOAD SWAP1 PUSH2 0x100 EXP SWAP1 DIV PUSH1 0xFF AND SWAP1 DUP1 PUSH1 0x4 ADD PUSH1 0x1 SWAP1 SLOAD SWAP1 PUSH2 0x100 EXP SWAP1 DIV PUSH1 0xFF AND SWAP1 POP DUP7 JUMP JUMPDEST PUSH2 0xF74 PUSH2 0x1385 JUMP JUMPDEST PUSH0 PUSH1 0x9 PUSH0 DUP4 PUSH20 0xFFFFFFFFFFFFFFFFFFFFFFFFFFFFFFFFFFFFFFFF AND PUSH20 0xFFFFFFFFFFFFFFFFFFFFFFFFFFFFFFFFFFFFFFFF AND DUP2 MSTORE PUSH1 0x20 ADD SWAP1 DUP2 MSTORE PUSH1 0x20 ADD PUSH0 KECCAK256 SWAP1 POP PUSH0 DUP2 PUSH0 ADD SLOAD GT PUSH2 0xFF9 JUMPI PUSH1 0x40 MLOAD PUSH32 0x8C379A000000000000000000000000000000000000000000000000000000000 DUP2 MSTORE PUSH1 0x4 ADD PUSH2 0xFF0 SWAP1 PUSH2 0x1C9A JUMP JUMPDEST PUSH1 0x40 MLOAD DUP1 SWAP2 SUB SWAP1 REVERT JUMPDEST DUP1 PUSH1 0x4 ADD PUSH1 0x1 SWAP1 SLOAD SWAP1 PUSH2 0x100 EXP SWAP1 DIV PUSH1 0xFF AND ISZERO PUSH2 0x104B JUMPI PUSH1 0x40 MLOAD PUSH32 0x8C379A000000000000000000000000000000000000000000000000000000000 DUP2 MSTORE PUSH1 0x4 ADD PUSH2 0x1042 SWAP1 PUSH2 0x1F3A JUMP JUMPDEST PUSH1 0x40 MLOAD DUP1 SWAP2 SUB SWAP1 REVERT JUMPDEST PUSH1 0x8 SLOAD PUSH1 0x7 SLOAD DUP3 PUSH1 0x2 ADD SLOAD PUSH2 0x1060 SWAP2 SWAP1 PUSH2 0x1C1D JUMP JUMPDEST PUSH2 0x106A SWAP2 SWAP1 PUSH2 0x1C1D JUMP JUMPDEST TIMESTAMP GT PUSH2 0x10AB JUMPI PUSH1 0x40 MLOAD PUSH32 0x8C379A000000000000000000000000000000000000000000000000000000000 DUP2 MSTORE PUSH1 0x4 ADD PUSH2 0x10A2 SWAP1 PUSH2 0x1FC8 JUMP JUMPDEST PUSH1 0x40 MLOAD DUP1 SWAP2 SUB SWAP1 REVERT JUMPDEST PUSH1 0x1 DUP2 PUSH1 0x4 ADD PUSH1 0x1 PUSH2 0x100 EXP DUP2 SLOAD DUP2 PUSH1 0xFF MUL NOT AND SWAP1 DUP4 ISZERO ISZERO MUL OR SWAP1 SSTORE POP PUSH1 0x3 PUSH0 SWAP1 SLOAD SWAP1 PUSH2 0x100 EXP SWAP1 DIV PUSH20 0xFFFFFFFFFFFFFFFFFFFFFFFFFFFFFFFFFFFFFFFF AND PUSH20 0xFFFFFFFFFFFFFFFFFFFFFFFFFFFFFFFFFFFFFFFF AND PUSH4 0x8E817EFE DUP3 PUSH1 0x3 ADD SLOAD PUSH1 0x40 MLOAD DUP3 PUSH4 0xFFFFFFFF AND PUSH1 0xE0 SHL DUP2 MSTORE PUSH1 0x4 ADD PUSH2 0x1126 SWAP2 SWAP1 PUSH2 0x14F6 JUMP JUMPDEST PUSH0 PUSH1 0x40 MLOAD DUP1 DUP4 SUB DUP2 PUSH0 DUP8 DUP1 EXTCODESIZE ISZERO DUP1 ISZERO PUSH2 0x113D JUMPI PUSH0 DUP1 REVERT JUMPDEST POP GAS CALL ISZERO DUP1 ISZERO PUSH2 0x114F JUMPI RETURNDATASIZE PUSH0 DUP1 RETURNDATACOPY RETURNDATASIZE PUSH0 REVERT JUMPDEST POP POP POP POP DUP2 PUSH20 0xFFFFFFFFFFFFFFFFFFFFFFFFFFFFFFFFFFFFFFFF AND PUSH32 0xBE253503C49F8FB02046DA3EF57BC2F5F881EB14BA5C2C26B54BF2FB4E7DB07 DUP3 PUSH1 0x3 ADD SLOAD PUSH1 0x40 MLOAD PUSH2 0x119D SWAP2 SWAP1 PUSH2 0x14F6 JUMP JUMPDEST PUSH1 0x40 MLOAD DUP1 SWAP2 SUB SWAP1 LOG2 POP PUSH2 0x11AE PUSH2 0x13C9 JUMP JUMPDEST POP JUMP JUMPDEST PUSH2 0x11B9 PUSH2 0x123B JUMP JUMPDEST PUSH0 PUSH20 0xFFFFFFFFFFFFFFFFFFFFFFFFFFFFFFFFFFFFFFFF AND DUP2 PUSH20 0xFFFFFFFFFFFFFFFFFFFFFFFFFFFFFFFFFFFFFFFF AND SUB PUSH2 0x1229 JUMPI PUSH0 PUSH1 0x40 MLOAD PUSH32 0x1E4FBDF700000000000000000000000000000000000000000000000000000000 DUP2 MSTORE PUSH1 0x4 ADD PUSH2 0x1220 SWAP2 SWAP1 PUSH2 0x15DD JUMP JUMPDEST PUSH1 0x40 MLOAD DUP1 SWAP2 SUB SWAP1 REVERT JUMPDEST PUSH2 0x1232 DUP2 PUSH2 0x12C2 JUMP JUMPDEST POP JUMP JUMPDEST PUSH1 0x7 SLOAD DUP2 JUMP JUMPDEST PUSH2 0x1243 PUSH2 0x13D2 JUMP JUMPDEST PUSH20 0xFFFFFFFFFFFFFFFFFFFFFFFFFFFFFFFFFFFFFFFF AND PUSH2 0x1261 PUSH2 0xA0E JUMP JUMPDEST PUSH20 0xFFFFFFFFFFFFFFFFFFFFFFFFFFFFFFFFFFFFFFFF AND EQ PUSH2 0x12C0 JUMPI PUSH2 0x1284 PUSH2 0x13D2 JUMP JUMPDEST PUSH1 0x40 MLOAD PUSH32 0x118CDAA700000000000000000000000000000000000000000000000000000000 DUP2 MSTORE PUSH1 0x4 ADD PUSH2 0x12B7 SWAP2 SWAP1 PUSH2 0x15DD JUMP JUMPDEST PUSH1 0x40 MLOAD DUP1 SWAP2 SUB SWAP1 REVERT JUMPDEST JUMP JUMPDEST PUSH0 PUSH1 0x1 PUSH0 SWAP1 SLOAD SWAP1 PUSH2 0x100 EXP SWAP1 DIV PUSH20 0xFFFFFFFFFFFFFFFFFFFFFFFFFFFFFFFFFFFFFFFF AND SWAP1 POP DUP2 PUSH1 0x1 PUSH0 PUSH2 0x100 EXP DUP2 SLOAD DUP2 PUSH20 0xFFFFFFFFFFFFFFFFFFFFFFFFFFFFFFFFFFFFFFFF MUL NOT AND SWAP1 DUP4 PUSH20 0xFFFFFFFFFFFFFFFFFFFFFFFFFFFFFFFFFFFFFFFF AND MUL OR SWAP1 SSTORE POP DUP2 PUSH20 0xFFFFFFFFFFFFFFFFFFFFFFFFFFFFFFFFFFFFFFFF AND DUP2 PUSH20 0xFFFFFFFFFFFFFFFFFFFFFFFFFFFFFFFFFFFFFFFF AND PUSH32 0x8BE0079C531659141344CD1FD0A4F28419497F9722A3DAAFE3B4186F6B6457E0 PUSH1 0x40 MLOAD PUSH1 0x40 MLOAD DUP1 SWAP2 SUB SWAP1 LOG3 POP POP JUMP JUMPDEST PUSH1 0x2 PUSH0 SLOAD SUB PUSH2 0x13C0 JUMPI PUSH1 0x40 MLOAD PUSH32 0x3EE5AEB500000000000000000000000000000000000000000000000000000000 DUP2 MSTORE PUSH1 0x4 ADD PUSH1 0x40 MLOAD DUP1 SWAP2 SUB SWAP1 REVERT JUMPDEST PUSH1 0x2 PUSH0 DUP2 SWAP1 SSTORE POP JUMP JUMPDEST PUSH1 0x1 PUSH0 DUP2 SWAP1 SSTORE POP JUMP JUMPDEST PUSH0 CALLER SWAP1 POP SWAP1 JUMP JUMPDEST PUSH0 PUSH20 0xFFFFFFFFFFFFFFFFFFFFFFFFFFFFFFFFFFFFFFFF DUP3 AND SWAP1 POP SWAP2 SWAP1 POP JUMP JUMPDEST PUSH0 DUP2 SWAP1 POP SWAP2 SWAP1 POP JUMP JUMPDEST PUSH0 PUSH2 0x141B PUSH2 0x1416 PUSH2 0x1411 DUP5 PUSH2 0x13D9 JUMP JUMPDEST PUSH2 0x13F8 JUMP JUMPDEST PUSH2 0x13D9 JUMP JUMPDEST SWAP1 POP SWAP2 SWAP1 POP JUMP JUMPDEST PUSH0 PUSH2 0x142C DUP3 PUSH2 0x1401 JUMP JUMPDEST SWAP1 POP SWAP2 SWAP1 POP JUMP JUMPDEST PUSH0 PUSH2 0x143D DUP3 PUSH2 0x1422 JUMP JUMPDEST SWAP1 POP SWAP2 SWAP1 POP JUMP JUMPDEST PUSH2 0x144D DUP2 PUSH2 0x1433 JUMP JUMPDEST DUP3 MSTORE POP POP JUMP JUMPDEST PUSH0 PUSH1 0x20 DUP3 ADD SWAP1 POP PUSH2 0x1466 PUSH0 DUP4 ADD DUP5 PUSH2 0x1444 JUMP JUMPDEST SWAP3 SWAP2 POP POP JUMP JUMPDEST PUSH0 PUSH2 0x1476 DUP3 PUSH2 0x1422 JUMP JUMPDEST SWAP1 POP SWAP2 SWAP1 POP JUMP JUMPDEST PUSH2 0x1486 DUP2 PUSH2 0x146C JUMP JUMPDEST DUP3 MSTORE POP POP JUMP JUMPDEST PUSH0 PUSH1 0x20 DUP3 ADD SWAP1 POP PUSH2 0x149F PUSH0 DUP4 ADD DUP5 PUSH2 0x147D JUMP JUMPDEST SWAP3 SWAP2 POP POP JUMP JUMPDEST PUSH0 PUSH2 0x14AF DUP3 PUSH2 0x1422 JUMP JUMPDEST SWAP1 POP SWAP2 SWAP1 POP JUMP JUMPDEST PUSH2 0x14BF DUP2 PUSH2 0x14A5 JUMP JUMPDEST DUP3 MSTORE POP POP JUMP JUMPDEST PUSH0 PUSH1 0x20 DUP3 ADD SWAP1 POP PUSH2 0x14D8 PUSH0 DUP4 ADD DUP5 PUSH2 0x14B6 JUMP JUMPDEST SWAP3 SWAP2 POP POP JUMP JUMPDEST PUSH0 DUP2 SWAP1 POP SWAP2 SWAP1 POP JUMP JUMPDEST PUSH2 0x14F0 DUP2 PUSH2 0x14DE JUMP JUMPDEST DUP3 MSTORE POP POP JUMP JUMPDEST PUSH0 PUSH1 0x20 DUP3 ADD SWAP1 POP PUSH2 0x1509 PUSH0 DUP4 ADD DUP5 PUSH2 0x14E7 JUMP JUMPDEST SWAP3 SWAP2 POP POP JUMP JUMPDEST PUSH0 DUP1 REVERT JUMPDEST PUSH2 0x151C DUP2 PUSH2 0x14DE JUMP JUMPDEST DUP2 EQ PUSH2 0x1526 JUMPI PUSH0 DUP1 REVERT JUMPDEST POP JUMP JUMPDEST PUSH0 DUP2 CALLDATALOAD SWAP1 POP PUSH2 0x1537 DUP2 PUSH2 0x1513 JUMP JUMPDEST SWAP3 SWAP2 POP POP JUMP JUMPDEST PUSH0 PUSH1 0x20 DUP3 DUP5 SUB SLT ISZERO PUSH2 0x1552 JUMPI PUSH2 0x1551 PUSH2 0x150F JUMP JUMPDEST JUMPDEST PUSH0 PUSH2 0x155F DUP5 DUP3 DUP6 ADD PUSH2 0x1529 JUMP JUMPDEST SWAP2 POP POP SWAP3 SWAP2 POP POP JUMP JUMPDEST PUSH0 PUSH2 0x1572 DUP3 PUSH2 0x13D9 JUMP JUMPDEST SWAP1 POP SWAP2 SWAP1 POP JUMP JUMPDEST PUSH2 0x1582 DUP2 PUSH2 0x1568 JUMP JUMPDEST DUP2 EQ PUSH2 0x158C JUMPI PUSH0 DUP1 REVERT JUMPDEST POP JUMP JUMPDEST PUSH0 DUP2 CALLDATALOAD SWAP1 POP PUSH2 0x159D DUP2 PUSH2 0x1579 JUMP JUMPDEST SWAP3 SWAP2 POP POP JUMP JUMPDEST PUSH0 PUSH1 0x20 DUP3 DUP5 SUB SLT ISZERO PUSH2 0x15B8 JUMPI PUSH2 0x15B7 PUSH2 0x150F JUMP JUMPDEST JUMPDEST PUSH0 PUSH2 0x15C5 DUP5 DUP3 DUP6 ADD PUSH2 0x158F JUMP JUMPDEST SWAP2 POP POP SWAP3 SWAP2 POP POP JUMP JUMPDEST PUSH2 0x15D7 DUP2 PUSH2 0x1568 JUMP JUMPDEST DUP3 MSTORE POP POP JUMP JUMPDEST PUSH0 PUSH1 0x20 DUP3 ADD SWAP1 POP PUSH2 0x15F0 PUSH0 DUP4 ADD DUP5 PUSH2 0x15CE JUMP JUMPDEST SWAP3 SWAP2 POP POP JUMP JUMPDEST PUSH0 DUP2 ISZERO ISZERO SWAP1 POP SWAP2 SWAP1 POP JUMP JUMPDEST PUSH2 0x160A DUP2 PUSH2 0x15F6 JUMP JUMPDEST DUP3 MSTORE POP POP JUMP JUMPDEST PUSH0 PUSH1 0xC0 DUP3 ADD SWAP1 POP PUSH2 0x1623 PUSH0 DUP4 ADD DUP10 PUSH2 0x14E7 JUMP JUMPDEST PUSH2 0x1630 PUSH1 0x20 DUP4 ADD DUP9 PUSH2 0x14E7 JUMP JUMPDEST PUSH2 0x163D PUSH1 0x40 DUP4 ADD DUP8 PUSH2 0x14E7 JUMP JUMPDEST PUSH2 0x164A PUSH1 0x60 DUP4 ADD DUP7 PUSH2 0x14E7 JUMP JUMPDEST PUSH2 0x1657 PUSH1 0x80 DUP4 ADD DUP6 PUSH2 0x1601 JUMP JUMPDEST PUSH2 0x1664 PUSH1 0xA0 DUP4 ADD DUP5 PUSH2 0x1601 JUMP JUMPDEST SWAP8 SWAP7 POP POP POP POP POP POP POP JUMP JUMPDEST PUSH0 DUP3 DUP3 MSTORE PUSH1 0x20 DUP3 ADD SWAP1 POP SWAP3 SWAP2 POP POP JUMP JUMPDEST PUSH32 0x4C6F616E4D616E616765723A20496E76616C696420726174696F000000000000 PUSH0 DUP3 ADD MSTORE POP JUMP JUMPDEST PUSH0 PUSH2 0x16B3 PUSH1 0x1A DUP4 PUSH2 0x166F JUMP JUMPDEST SWAP2 POP PUSH2 0x16BE DUP3 PUSH2 0x167F JUMP JUMPDEST PUSH1 0x20 DUP3 ADD SWAP1 POP SWAP2 SWAP1 POP JUMP JUMPDEST PUSH0 PUSH1 0x20 DUP3 ADD SWAP1 POP DUP2 DUP2 SUB PUSH0 DUP4 ADD MSTORE PUSH2 0x16E0 DUP2 PUSH2 0x16A7 JUMP JUMPDEST SWAP1 POP SWAP2 SWAP1 POP JUMP JUMPDEST PUSH0 DUP2 MLOAD SWAP1 POP PUSH2 0x16F5 DUP2 PUSH2 0x1513 JUMP JUMPDEST SWAP3 SWAP2 POP POP JUMP JUMPDEST PUSH0 PUSH1 0x20 DUP3 DUP5 SUB SLT ISZERO PUSH2 0x1710 JUMPI PUSH2 0x170F PUSH2 0x150F JUMP JUMPDEST JUMPDEST PUSH0 PUSH2 0x171D DUP5 DUP3 DUP6 ADD PUSH2 0x16E7 JUMP JUMPDEST SWAP2 POP POP SWAP3 SWAP2 POP POP JUMP JUMPDEST PUSH32 0x4E487B7100000000000000000000000000000000000000000000000000000000 PUSH0 MSTORE PUSH1 0x11 PUSH1 0x4 MSTORE PUSH1 0x24 PUSH0 REVERT JUMPDEST PUSH0 PUSH2 0x175D DUP3 PUSH2 0x14DE JUMP JUMPDEST SWAP2 POP PUSH2 0x1768 DUP4 PUSH2 0x14DE JUMP JUMPDEST SWAP3 POP DUP3 DUP3 MUL PUSH2 0x1776 DUP2 PUSH2 0x14DE JUMP JUMPDEST SWAP2 POP DUP3 DUP3 DIV DUP5 EQ DUP4 ISZERO OR PUSH2 0x178D JUMPI PUSH2 0x178C PUSH2 0x1726 JUMP JUMPDEST JUMPDEST POP SWAP3 SWAP2 POP POP JUMP JUMPDEST PUSH32 0x4E487B7100000000000000000000000000000000000000000000000000000000 PUSH0 MSTORE PUSH1 0x12 PUSH1 0x4 MSTORE PUSH1 0x24 PUSH0 REVERT JUMPDEST PUSH0 PUSH2 0x17CB DUP3 PUSH2 0x14DE JUMP JUMPDEST SWAP2 POP PUSH2 0x17D6 DUP4 PUSH2 0x14DE JUMP JUMPDEST SWAP3 POP DUP3 PUSH2 0x17E6 JUMPI PUSH2 0x17E5 PUSH2 0x1794 JUMP JUMPDEST JUMPDEST DUP3 DUP3 DIV SWAP1 POP SWAP3 SWAP2 POP POP JUMP JUMPDEST PUSH32 0x4C6F616E4D616E616765723A204C6F616E20616D6F756E74206D757374206265 PUSH0 DUP3 ADD MSTORE PUSH32 0x2067726561746572207468616E20300000000000000000000000000000000000 PUSH1 0x20 DUP3 ADD MSTORE POP JUMP JUMPDEST PUSH0 PUSH2 0x184B PUSH1 0x2F DUP4 PUSH2 0x166F JUMP JUMPDEST SWAP2 POP PUSH2 0x1856 DUP3 PUSH2 0x17F1 JUMP JUMPDEST PUSH1 0x40 DUP3 ADD SWAP1 POP SWAP2 SWAP1 POP JUMP JUMPDEST PUSH0 PUSH1 0x20 DUP3 ADD SWAP1 POP DUP2 DUP2 SUB PUSH0 DUP4 ADD MSTORE PUSH2 0x1878 DUP2 PUSH2 0x183F JUMP JUMPDEST SWAP1 POP SWAP2 SWAP1 POP JUMP JUMPDEST PUSH32 0x4C6F616E4D616E616765723A204578697374696E67206C6F616E206D75737420 PUSH0 DUP3 ADD MSTORE PUSH32 0x6265207265706169642066697273740000000000000000000000000000000000 PUSH1 0x20 DUP3 ADD MSTORE POP JUMP JUMPDEST PUSH0 PUSH2 0x18D9 PUSH1 0x2F DUP4 PUSH2 0x166F JUMP JUMPDEST SWAP2 POP PUSH2 0x18E4 DUP3 PUSH2 0x187F JUMP JUMPDEST PUSH1 0x40 DUP3 ADD SWAP1 POP SWAP2 SWAP1 POP JUMP JUMPDEST PUSH0 PUSH1 0x20 DUP3 ADD SWAP1 POP DUP2 DUP2 SUB PUSH0 DUP4 ADD MSTORE PUSH2 0x1906 DUP2 PUSH2 0x18CD JUMP JUMPDEST SWAP1 POP SWAP2 SWAP1 POP JUMP JUMPDEST PUSH32 0x4C6F616E4D616E616765723A204E6F20636F6C6C61746572616C20617661696C PUSH0 DUP3 ADD MSTORE PUSH32 0x61626C6500000000000000000000000000000000000000000000000000000000 PUSH1 0x20 DUP3 ADD MSTORE POP JUMP JUMPDEST PUSH0 PUSH2 0x1967 PUSH1 0x24 DUP4 PUSH2 0x166F JUMP JUMPDEST SWAP2 POP PUSH2 0x1972 DUP3 PUSH2 0x190D JUMP JUMPDEST PUSH1 0x40 DUP3 ADD SWAP1 POP SWAP2 SWAP1 POP JUMP JUMPDEST PUSH0 PUSH1 0x20 DUP3 ADD SWAP1 POP DUP2 DUP2 SUB PUSH0 DUP4 ADD MSTORE PUSH2 0x1994 DUP2 PUSH2 0x195B JUMP JUMPDEST SWAP1 POP SWAP2 SWAP1 POP JUMP JUMPDEST PUSH32 0x4C6F616E4D616E616765723A20496E73756666696369656E7420636F6C6C6174 PUSH0 DUP3 ADD MSTORE PUSH32 0x6572616C20666F7220726571756573746564206C6F616E20616D6F756E740000 PUSH1 0x20 DUP3 ADD MSTORE POP JUMP JUMPDEST PUSH0 PUSH2 0x19F5 PUSH1 0x3E DUP4 PUSH2 0x166F JUMP JUMPDEST SWAP2 POP PUSH2 0x1A00 DUP3 PUSH2 0x199B JUMP JUMPDEST PUSH1 0x40 DUP3 ADD SWAP1 POP SWAP2 SWAP1 POP JUMP JUMPDEST PUSH0 PUSH1 0x20 DUP3 ADD SWAP1 POP DUP2 DUP2 SUB PUSH0 DUP4 ADD MSTORE PUSH2 0x1A22 DUP2 PUSH2 0x19E9 JUMP JUMPDEST SWAP1 POP SWAP2 SWAP1 POP JUMP JUMPDEST PUSH0 PUSH1 0x40 DUP3 ADD SWAP1 POP PUSH2 0x1A3C PUSH0 DUP4 ADD DUP6 PUSH2 0x15CE JUMP JUMPDEST PUSH2 0x1A49 PUSH1 0x20 DUP4 ADD DUP5 PUSH2 0x14E7 JUMP JUMPDEST SWAP4 SWAP3 POP POP POP JUMP JUMPDEST PUSH2 0x1A59 DUP2 PUSH2 0x15F6 JUMP JUMPDEST DUP2 EQ PUSH2 0x1A63 JUMPI PUSH0 DUP1 REVERT JUMPDEST POP JUMP JUMPDEST PUSH0 DUP2 MLOAD SWAP1 POP PUSH2 0x1A74 DUP2 PUSH2 0x1A50 JUMP JUMPDEST SWAP3 SWAP2 POP POP JUMP JUMPDEST PUSH0 PUSH1 0x20 DUP3 DUP5 SUB SLT ISZERO PUSH2 0x1A8F JUMPI PUSH2 0x1A8E PUSH2 0x150F JUMP JUMPDEST JUMPDEST PUSH0 PUSH2 0x1A9C DUP5 DUP3 DUP6 ADD PUSH2 0x1A66 JUMP JUMPDEST SWAP2 POP POP SWAP3 SWAP2 POP POP JUMP JUMPDEST PUSH32 0x4C6F616E4D616E616765723A204C6F616E207472616E73666572206661696C65 PUSH0 DUP3 ADD MSTORE PUSH32 0x6400000000000000000000000000000000000000000000000000000000000000 PUSH1 0x20 DUP3 ADD MSTORE POP JUMP JUMPDEST PUSH0 PUSH2 0x1AFF PUSH1 0x21 DUP4 PUSH2 0x166F JUMP JUMPDEST SWAP2 POP PUSH2 0x1B0A DUP3 PUSH2 0x1AA5 JUMP JUMPDEST PUSH1 0x40 DUP3 ADD SWAP1 POP SWAP2 SWAP1 POP JUMP JUMPDEST PUSH0 PUSH1 0x20 DUP3 ADD SWAP1 POP DUP2 DUP2 SUB PUSH0 DUP4 ADD MSTORE PUSH2 0x1B2C DUP2 PUSH2 0x1AF3 JUMP JUMPDEST SWAP1 POP SWAP2 SWAP1 POP JUMP JUMPDEST PUSH0 PUSH1 0x40 DUP3 ADD SWAP1 POP PUSH2 0x1B46 PUSH0 DUP4 ADD DUP6 PUSH2 0x14E7 JUMP JUMPDEST PUSH2 0x1B53 PUSH1 0x20 DUP4 ADD DUP5 PUSH2 0x14E7 JUMP JUMPDEST SWAP4 SWAP3 POP POP POP JUMP JUMPDEST PUSH0 PUSH1 0x60 DUP3 ADD SWAP1 POP PUSH2 0x1B6D PUSH0 DUP4 ADD DUP7 PUSH2 0x15CE JUMP JUMPDEST PUSH2 0x1B7A PUSH1 0x20 DUP4 ADD DUP6 PUSH2 0x15CE JUMP JUMPDEST PUSH2 0x1B87 PUSH1 0x40 DUP4 ADD DUP5 PUSH2 0x14E7 JUMP JUMPDEST SWAP5 SWAP4 POP POP POP POP JUMP JUMPDEST PUSH32 0x4C6F616E4D616E616765723A2046756E64207472616E73666572206661696C65 PUSH0 DUP3 ADD MSTORE PUSH32 0x6400000000000000000000000000000000000000000000000000000000000000 PUSH1 0x20 DUP3 ADD MSTORE POP JUMP JUMPDEST PUSH0 PUSH2 0x1BE9 PUSH1 0x21 DUP4 PUSH2 0x166F JUMP JUMPDEST SWAP2 POP PUSH2 0x1BF4 DUP3 PUSH2 0x1B8F JUMP JUMPDEST PUSH1 0x40 DUP3 ADD SWAP1 POP SWAP2 SWAP1 POP JUMP JUMPDEST PUSH0 PUSH1 0x20 DUP3 ADD SWAP1 POP DUP2 DUP2 SUB PUSH0 DUP4 ADD MSTORE PUSH2 0x1C16 DUP2 PUSH2 0x1BDD JUMP JUMPDEST SWAP1 POP SWAP2 SWAP1 POP JUMP JUMPDEST PUSH0 PUSH2 0x1C27 DUP3 PUSH2 0x14DE JUMP JUMPDEST SWAP2 POP PUSH2 0x1C32 DUP4 PUSH2 0x14DE JUMP JUMPDEST SWAP3 POP DUP3 DUP3 ADD SWAP1 POP DUP1 DUP3 GT ISZERO PUSH2 0x1C4A JUMPI PUSH2 0x1C49 PUSH2 0x1726 JUMP JUMPDEST JUMPDEST SWAP3 SWAP2 POP POP JUMP JUMPDEST PUSH32 0x4C6F616E4D616E616765723A204E6F20616374697665206C6F616E0000000000 PUSH0 DUP3 ADD MSTORE POP JUMP JUMPDEST PUSH0 PUSH2 0x1C84 PUSH1 0x1B DUP4 PUSH2 0x166F JUMP JUMPDEST SWAP2 POP PUSH2 0x1C8F DUP3 PUSH2 0x1C50 JUMP JUMPDEST PUSH1 0x20 DUP3 ADD SWAP1 POP SWAP2 SWAP1 POP JUMP JUMPDEST PUSH0 PUSH1 0x20 DUP3 ADD SWAP1 POP DUP2 DUP2 SUB PUSH0 DUP4 ADD MSTORE PUSH2 0x1CB1 DUP2 PUSH2 0x1C78 JUMP JUMPDEST SWAP1 POP SWAP2 SWAP1 POP JUMP JUMPDEST PUSH32 0x4C6F616E4D616E616765723A204C6F616E20697320616C726561647920726570 PUSH0 DUP3 ADD MSTORE PUSH32 0x6169640000000000000000000000000000000000000000000000000000000000 PUSH1 0x20 DUP3 ADD MSTORE POP JUMP JUMPDEST PUSH0 PUSH2 0x1D12 PUSH1 0x23 DUP4 PUSH2 0x166F JUMP JUMPDEST SWAP2 POP PUSH2 0x1D1D DUP3 PUSH2 0x1CB8 JUMP JUMPDEST PUSH1 0x40 DUP3 ADD SWAP1 POP SWAP2 SWAP1 POP JUMP JUMPDEST PUSH0 PUSH1 0x20 DUP3 ADD SWAP1 POP DUP2 DUP2 SUB PUSH0 DUP4 ADD MSTORE PUSH2 0x1D3F DUP2 PUSH2 0x1D06 JUMP JUMPDEST SWAP1 POP SWAP2 SWAP1 POP JUMP JUMPDEST PUSH32 0x4C6F616E4D616E616765723A20496E73756666696369656E742072657061796D PUSH0 DUP3 ADD MSTORE PUSH32 0x656E7420616D6F756E7400000000000000000000000000000000000000000000 PUSH1 0x20 DUP3 ADD MSTORE POP JUMP JUMPDEST PUSH0 PUSH2 0x1DA0 PUSH1 0x2A DUP4 PUSH2 0x166F JUMP JUMPDEST SWAP2 POP PUSH2 0x1DAB DUP3 PUSH2 0x1D46 JUMP JUMPDEST PUSH1 0x40 DUP3 ADD SWAP1 POP SWAP2 SWAP1 POP JUMP JUMPDEST PUSH0 PUSH1 0x20 DUP3 ADD SWAP1 POP DUP2 DUP2 SUB PUSH0 DUP4 ADD MSTORE PUSH2 0x1DCD DUP2 PUSH2 0x1D94 JUMP JUMPDEST SWAP1 POP SWAP2 SWAP1 POP JUMP JUMPDEST PUSH32 0x4C6F616E4D616E616765723A2052657061796D656E74207472616E7366657220 PUSH0 DUP3 ADD MSTORE PUSH32 0x6661696C65640000000000000000000000000000000000000000000000000000 PUSH1 0x20 DUP3 ADD MSTORE POP JUMP JUMPDEST PUSH0 PUSH2 0x1E2E PUSH1 0x26 DUP4 PUSH2 0x166F JUMP JUMPDEST SWAP2 POP PUSH2 0x1E39 DUP3 PUSH2 0x1DD4 JUMP JUMPDEST PUSH1 0x40 DUP3 ADD SWAP1 POP SWAP2 SWAP1 POP JUMP JUMPDEST PUSH0 PUSH1 0x20 DUP3 ADD SWAP1 POP DUP2 DUP2 SUB PUSH0 DUP4 ADD MSTORE PUSH2 0x1E5B DUP2 PUSH2 0x1E22 JUMP JUMPDEST SWAP1 POP SWAP2 SWAP1 POP JUMP JUMPDEST PUSH32 0x4C6F616E4D616E616765723A20496E76616C6964206475726174696F6E000000 PUSH0 DUP3 ADD MSTORE POP JUMP JUMPDEST PUSH0 PUSH2 0x1E96 PUSH1 0x1D DUP4 PUSH2 0x166F JUMP JUMPDEST SWAP2 POP PUSH2 0x1EA1 DUP3 PUSH2 0x1E62 JUMP JUMPDEST PUSH1 0x20 DUP3 ADD SWAP1 POP SWAP2 SWAP1 POP JUMP JUMPDEST PUSH0 PUSH1 0x20 DUP3 ADD SWAP1 POP DUP2 DUP2 SUB PUSH0 DUP4 ADD MSTORE PUSH2 0x1EC3 DUP2 PUSH2 0x1E8A JUMP JUMPDEST SWAP1 POP SWAP2 SWAP1 POP JUMP JUMPDEST PUSH32 0x4C6F616E4D616E616765723A204C6F616E20616C72656164792064656661756C PUSH0 DUP3 ADD MSTORE PUSH32 0x7465640000000000000000000000000000000000000000000000000000000000 PUSH1 0x20 DUP3 ADD MSTORE POP JUMP JUMPDEST PUSH0 PUSH2 0x1F24 PUSH1 0x23 DUP4 PUSH2 0x166F JUMP JUMPDEST SWAP2 POP PUSH2 0x1F2F DUP3 PUSH2 0x1ECA JUMP JUMPDEST PUSH1 0x40 DUP3 ADD SWAP1 POP SWAP2 SWAP1 POP JUMP JUMPDEST PUSH0 PUSH1 0x20 DUP3 ADD SWAP1 POP DUP2 DUP2 SUB PUSH0 DUP4 ADD MSTORE PUSH2 0x1F51 DUP2 PUSH2 0x1F18 JUMP JUMPDEST SWAP1 POP SWAP2 SWAP1 POP JUMP JUMPDEST PUSH32 0x4C6F616E4D616E616765723A204C6F616E206E6F742064656661756C74656420 PUSH0 DUP3 ADD MSTORE PUSH32 0x7965740000000000000000000000000000000000000000000000000000000000 PUSH1 0x20 DUP3 ADD MSTORE POP JUMP JUMPDEST PUSH0 PUSH2 0x1FB2 PUSH1 0x23 DUP4 PUSH2 0x166F JUMP JUMPDEST SWAP2 POP PUSH2 0x1FBD DUP3 PUSH2 0x1F58 JUMP JUMPDEST PUSH1 0x40 DUP3 ADD SWAP1 POP SWAP2 SWAP1 POP JUMP JUMPDEST PUSH0 PUSH1 0x20 DUP3 ADD SWAP1 POP DUP2 DUP2 SUB PUSH0 DUP4 ADD MSTORE PUSH2 0x1FDF DUP2 PUSH2 0x1FA6 JUMP JUMPDEST SWAP1 POP SWAP2 SWAP1 POP JUMP INVALID LOG2 PUSH5 0x6970667358 0x22 SLT KECCAK256 0x2C LOG2 PUSH26 0x2FB4E87111CDE5245FCC9E881AED115327FC6B5180411665C45F PUSH1 0x5F PUSH6 0x64736F6C6343 STOP ADDMOD BYTE STOP CALLER "
				},
				"gasEstimates": {
					"creation": {
						"codeDepositCost": "1644000",
						"executionCost": "infinite",
						"totalCost": "infinite"
					},
					"external": {
						"addFundToPool(uint256)": "infinite",
						"cUSDToken()": "infinite",
						"checkDefault(address)": "infinite",
						"collateralManager()": "infinite",
						"collateralToLoanRatio()": "2470",
						"defaultDuration()": "2515",
						"fundPool()": "2492",
						"getLoanAmount(address)": "infinite",
						"getMaxLoanAmount()": "infinite",
						"loanDuration()": "2535",
						"owner()": "2560",
						"priceOracle()": "infinite",
						"renounceOwnership()": "infinite",
						"repayLoan(uint256)": "infinite",
						"requestLoan(uint256)": "infinite",
						"transferOwnership(address)": "infinite",
						"updateCollateralToLoanRatio(uint256)": "infinite",
						"updateDefaultDuration(uint256)": "infinite",
						"updateLoanDuration(uint256)": "infinite",
						"userLoans(address)": "infinite"
					}
				},
				"methodIdentifiers": {
					"addFundToPool(uint256)": "97ed71eb",
					"cUSDToken()": "0ea86ad8",
					"checkDefault(address)": "ebbb7de9",
					"collateralManager()": "23be345c",
					"collateralToLoanRatio()": "688aef48",
					"defaultDuration()": "2af7e2ea",
					"fundPool()": "70f37d27",
					"getLoanAmount(address)": "89a99ec8",
					"getMaxLoanAmount()": "656f9ba4",
					"loanDuration()": "f5521bf1",
					"owner()": "8da5cb5b",
					"priceOracle()": "2630c12f",
					"renounceOwnership()": "715018a6",
					"repayLoan(uint256)": "ab7b1c89",
					"requestLoan(uint256)": "8d5d3429",
					"transferOwnership(address)": "f2fde38b",
					"updateCollateralToLoanRatio(uint256)": "650dfa18",
					"updateDefaultDuration(uint256)": "c000bc60",
					"updateLoanDuration(uint256)": "ba43a922",
					"userLoans(address)": "e9e190a3"
				}
			},
			"storageLayout": {
				"storage": [
					{
						"astId": 429,
						"contract": "contracts/LoanManager.sol:LoanManager",
						"label": "_status",
						"offset": 0,
						"slot": "0",
						"type": "t_uint256"
					},
					{
						"astId": 54,
						"contract": "contracts/LoanManager.sol:LoanManager",
						"label": "_owner",
						"offset": 0,
						"slot": "1",
						"type": "t_address"
					},
					{
						"astId": 888,
						"contract": "contracts/LoanManager.sol:LoanManager",
						"label": "cUSDToken",
						"offset": 0,
						"slot": "2",
						"type": "t_contract(IERC20)271"
					},
					{
						"astId": 891,
						"contract": "contracts/LoanManager.sol:LoanManager",
						"label": "collateralManager",
						"offset": 0,
						"slot": "3",
						"type": "t_contract(CollateralManager)874"
					},
					{
						"astId": 894,
						"contract": "contracts/LoanManager.sol:LoanManager",
						"label": "priceOracle",
						"offset": 0,
						"slot": "4",
						"type": "t_contract(MellowFiPriceOracle)1405"
					},
					{
						"astId": 896,
						"contract": "contracts/LoanManager.sol:LoanManager",
						"label": "fundPool",
						"offset": 0,
						"slot": "5",
						"type": "t_uint256"
					},
					{
						"astId": 899,
						"contract": "contracts/LoanManager.sol:LoanManager",
						"label": "collateralToLoanRatio",
						"offset": 0,
						"slot": "6",
						"type": "t_uint256"
					},
					{
						"astId": 902,
						"contract": "contracts/LoanManager.sol:LoanManager",
						"label": "loanDuration",
						"offset": 0,
						"slot": "7",
						"type": "t_uint256"
					},
					{
						"astId": 905,
						"contract": "contracts/LoanManager.sol:LoanManager",
						"label": "defaultDuration",
						"offset": 0,
						"slot": "8",
						"type": "t_uint256"
					},
					{
						"astId": 923,
						"contract": "contracts/LoanManager.sol:LoanManager",
						"label": "userLoans",
						"offset": 0,
						"slot": "9",
						"type": "t_mapping(t_address,t_struct(Loan)918_storage)"
					}
				],
				"types": {
					"t_address": {
						"encoding": "inplace",
						"label": "address",
						"numberOfBytes": "20"
					},
					"t_bool": {
						"encoding": "inplace",
						"label": "bool",
						"numberOfBytes": "1"
					},
					"t_contract(CollateralManager)874": {
						"encoding": "inplace",
						"label": "contract CollateralManager",
						"numberOfBytes": "20"
					},
					"t_contract(IERC20)271": {
						"encoding": "inplace",
						"label": "contract IERC20",
						"numberOfBytes": "20"
					},
					"t_contract(MellowFiPriceOracle)1405": {
						"encoding": "inplace",
						"label": "contract MellowFiPriceOracle",
						"numberOfBytes": "20"
					},
					"t_mapping(t_address,t_struct(Loan)918_storage)": {
						"encoding": "mapping",
						"key": "t_address",
						"label": "mapping(address => struct LoanManager.Loan)",
						"numberOfBytes": "32",
						"value": "t_struct(Loan)918_storage"
					},
					"t_struct(Loan)918_storage": {
						"encoding": "inplace",
						"label": "struct LoanManager.Loan",
						"members": [
							{
								"astId": 907,
								"contract": "contracts/LoanManager.sol:LoanManager",
								"label": "amount",
								"offset": 0,
								"slot": "0",
								"type": "t_uint256"
							},
							{
								"astId": 909,
								"contract": "contracts/LoanManager.sol:LoanManager",
								"label": "interestRate",
								"offset": 0,
								"slot": "1",
								"type": "t_uint256"
							},
							{
								"astId": 911,
								"contract": "contracts/LoanManager.sol:LoanManager",
								"label": "startTime",
								"offset": 0,
								"slot": "2",
								"type": "t_uint256"
							},
							{
								"astId": 913,
								"contract": "contracts/LoanManager.sol:LoanManager",
								"label": "collateral",
								"offset": 0,
								"slot": "3",
								"type": "t_uint256"
							},
							{
								"astId": 915,
								"contract": "contracts/LoanManager.sol:LoanManager",
								"label": "isRepaid",
								"offset": 0,
								"slot": "4",
								"type": "t_bool"
							},
							{
								"astId": 917,
								"contract": "contracts/LoanManager.sol:LoanManager",
								"label": "isDefaulted",
								"offset": 1,
								"slot": "4",
								"type": "t_bool"
							}
						],
						"numberOfBytes": "160"
					},
					"t_uint256": {
						"encoding": "inplace",
						"label": "uint256",
						"numberOfBytes": "32"
					}
				}
			},
			"userdoc": {
				"kind": "user",
				"methods": {},
				"version": 1
			}
		}
	}
}