{
	"contracts/LoanManager.sol": {
		"LoanManager": {
			"abi": [
				{
					"inputs": [
						{
							"internalType": "contract IERC20",
							"name": "_cUSDToken",
							"type": "address"
						},
						{
							"internalType": "address",
							"name": "_collateralManager",
							"type": "address"
						}
					],
					"stateMutability": "nonpayable",
					"type": "constructor"
				},
				{
					"inputs": [],
					"name": "ReentrancyGuardReentrantCall",
					"type": "error"
				},
				{
					"anonymous": false,
					"inputs": [
						{
							"indexed": true,
							"internalType": "address",
							"name": "user",
							"type": "address"
						},
						{
							"indexed": false,
							"internalType": "uint256",
							"name": "collateralLiquidated",
							"type": "uint256"
						}
					],
					"name": "LoanDefaulted",
					"type": "event"
				},
				{
					"anonymous": false,
					"inputs": [
						{
							"indexed": true,
							"internalType": "address",
							"name": "user",
							"type": "address"
						},
						{
							"indexed": false,
							"internalType": "uint256",
							"name": "amount",
							"type": "uint256"
						},
						{
							"indexed": false,
							"internalType": "uint256",
							"name": "collateral",
							"type": "uint256"
						}
					],
					"name": "LoanIssued",
					"type": "event"
				},
				{
					"anonymous": false,
					"inputs": [
						{
							"indexed": true,
							"internalType": "address",
							"name": "user",
							"type": "address"
						},
						{
							"indexed": false,
							"internalType": "uint256",
							"name": "amount",
							"type": "uint256"
						},
						{
							"indexed": false,
							"internalType": "uint256",
							"name": "collateralReturned",
							"type": "uint256"
						}
					],
					"name": "LoanRepaid",
					"type": "event"
				},
				{
					"inputs": [],
					"name": "cUSDToken",
					"outputs": [
						{
							"internalType": "contract IERC20",
							"name": "",
							"type": "address"
						}
					],
					"stateMutability": "view",
					"type": "function"
				},
				{
					"inputs": [
						{
							"internalType": "address",
							"name": "_user",
							"type": "address"
						}
					],
					"name": "checkDefault",
					"outputs": [],
					"stateMutability": "nonpayable",
					"type": "function"
				},
				{
					"inputs": [],
					"name": "collateralManager",
					"outputs": [
						{
							"internalType": "contract CollateralManager",
							"name": "",
							"type": "address"
						}
					],
					"stateMutability": "view",
					"type": "function"
				},
				{
					"inputs": [],
					"name": "collateralToLoanRatio",
					"outputs": [
						{
							"internalType": "uint256",
							"name": "",
							"type": "uint256"
						}
					],
					"stateMutability": "view",
					"type": "function"
				},
				{
					"inputs": [],
					"name": "defaultDuration",
					"outputs": [
						{
							"internalType": "uint256",
							"name": "",
							"type": "uint256"
						}
					],
					"stateMutability": "view",
					"type": "function"
				},
				{
					"inputs": [],
					"name": "loanDuration",
					"outputs": [
						{
							"internalType": "uint256",
							"name": "",
							"type": "uint256"
						}
					],
					"stateMutability": "view",
					"type": "function"
				},
				{
					"inputs": [
						{
							"internalType": "uint256",
							"name": "_repayAmount",
							"type": "uint256"
						}
					],
					"name": "repayLoan",
					"outputs": [],
					"stateMutability": "nonpayable",
					"type": "function"
				},
				{
					"inputs": [
						{
							"internalType": "uint256",
							"name": "_loanAmount",
							"type": "uint256"
						}
					],
					"name": "requestLoan",
					"outputs": [],
					"stateMutability": "nonpayable",
					"type": "function"
				},
				{
					"inputs": [
						{
							"internalType": "uint256",
							"name": "_newRatio",
							"type": "uint256"
						}
					],
					"name": "updateCollateralToLoanRatio",
					"outputs": [],
					"stateMutability": "nonpayable",
					"type": "function"
				},
				{
					"inputs": [
						{
							"internalType": "uint256",
							"name": "_newDuration",
							"type": "uint256"
						}
					],
					"name": "updateDefaultDuration",
					"outputs": [],
					"stateMutability": "nonpayable",
					"type": "function"
				},
				{
					"inputs": [
						{
							"internalType": "uint256",
							"name": "_newDuration",
							"type": "uint256"
						}
					],
					"name": "updateLoanDuration",
					"outputs": [],
					"stateMutability": "nonpayable",
					"type": "function"
				},
				{
					"inputs": [
						{
							"internalType": "address",
							"name": "",
							"type": "address"
						}
					],
					"name": "userLoans",
					"outputs": [
						{
							"internalType": "uint256",
							"name": "amount",
							"type": "uint256"
						},
						{
							"internalType": "uint256",
							"name": "interestRate",
							"type": "uint256"
						},
						{
							"internalType": "uint256",
							"name": "startTime",
							"type": "uint256"
						},
						{
							"internalType": "uint256",
							"name": "collateral",
							"type": "uint256"
						},
						{
							"internalType": "bool",
							"name": "isRepaid",
							"type": "bool"
						},
						{
							"internalType": "bool",
							"name": "isDefaulted",
							"type": "bool"
						}
					],
					"stateMutability": "view",
					"type": "function"
				}
			],
			"devdoc": {
				"errors": {
					"ReentrancyGuardReentrantCall()": [
						{
							"details": "Unauthorized reentrant call."
						}
					]
				},
				"kind": "dev",
				"methods": {},
				"version": 1
			},
			"evm": {
				"assembly": "    /* \"contracts/LoanManager.sol\":209:5092  contract LoanManager is ReentrancyGuard {... */\n  mstore(0x40, 0x80)\n    /* \"contracts/LoanManager.sol\":455:458  150 */\n  0x96\n    /* \"contracts/LoanManager.sol\":416:458  uint256 public collateralToLoanRatio = 150 */\n  0x03\n  sstore\n    /* \"contracts/LoanManager.sol\":557:564  30 days */\n  0x278d00\n    /* \"contracts/LoanManager.sol\":527:564  uint256 public loanDuration = 30 days */\n  0x04\n  sstore\n    /* \"contracts/LoanManager.sol\":603:610  10 days */\n  0x0d2f00\n    /* \"contracts/LoanManager.sol\":570:610  uint256 public defaultDuration = 10 days */\n  0x05\n  sstore\n    /* \"contracts/LoanManager.sol\":1147:1312  constructor(IERC20 _cUSDToken, address _collateralManager) {... */\n  callvalue\n  dup1\n  iszero\n  tag_1\n  jumpi\n  0x00\n  dup1\n  revert\ntag_1:\n  pop\n  mload(0x40)\n  sub(codesize, bytecodeSize)\n  dup1\n  bytecodeSize\n  dup4\n  codecopy\n  dup2\n  dup2\n  add\n  0x40\n  mstore\n  dup2\n  add\n  swap1\n  tag_2\n  swap2\n  swap1\n  tag_3\n  jump\t// in\ntag_2:\n    /* \"@openzeppelin/contracts/utils/ReentrancyGuard.sol\":1713:1714  1 */\n  0x01\n    /* \"@openzeppelin/contracts/utils/ReentrancyGuard.sol\":1917:1924  _status */\n  0x00\n    /* \"@openzeppelin/contracts/utils/ReentrancyGuard.sol\":1917:1938  _status = NOT_ENTERED */\n  dup2\n  swap1\n  sstore\n  pop\n    /* \"contracts/LoanManager.sol\":1228:1238  _cUSDToken */\n  dup2\n    /* \"contracts/LoanManager.sol\":1216:1225  cUSDToken */\n  0x01\n  0x00\n    /* \"contracts/LoanManager.sol\":1216:1238  cUSDToken = _cUSDToken */\n  0x0100\n  exp\n  dup2\n  sload\n  dup2\n  0xffffffffffffffffffffffffffffffffffffffff\n  mul\n  not\n  and\n  swap1\n  dup4\n  0xffffffffffffffffffffffffffffffffffffffff\n  and\n  mul\n  or\n  swap1\n  sstore\n  pop\n    /* \"contracts/LoanManager.sol\":1286:1304  _collateralManager */\n  dup1\n    /* \"contracts/LoanManager.sol\":1248:1265  collateralManager */\n  0x02\n  0x00\n    /* \"contracts/LoanManager.sol\":1248:1305  collateralManager = CollateralManager(_collateralManager) */\n  0x0100\n  exp\n  dup2\n  sload\n  dup2\n  0xffffffffffffffffffffffffffffffffffffffff\n  mul\n  not\n  and\n  swap1\n  dup4\n  0xffffffffffffffffffffffffffffffffffffffff\n  and\n  mul\n  or\n  swap1\n  sstore\n  pop\n    /* \"contracts/LoanManager.sol\":1147:1312  constructor(IERC20 _cUSDToken, address _collateralManager) {... */\n  pop\n  pop\n    /* \"contracts/LoanManager.sol\":209:5092  contract LoanManager is ReentrancyGuard {... */\n  jump(tag_8)\n    /* \"#utility.yul\":88:205   */\ntag_10:\n    /* \"#utility.yul\":197:198   */\n  0x00\n    /* \"#utility.yul\":194:195   */\n  dup1\n    /* \"#utility.yul\":187:199   */\n  revert\n    /* \"#utility.yul\":334:460   */\ntag_12:\n    /* \"#utility.yul\":371:378   */\n  0x00\n    /* \"#utility.yul\":411:453   */\n  0xffffffffffffffffffffffffffffffffffffffff\n    /* \"#utility.yul\":404:409   */\n  dup3\n    /* \"#utility.yul\":400:454   */\n  and\n    /* \"#utility.yul\":389:454   */\n  swap1\n  pop\n    /* \"#utility.yul\":334:460   */\n  swap2\n  swap1\n  pop\n  jump\t// out\n    /* \"#utility.yul\":466:562   */\ntag_13:\n    /* \"#utility.yul\":503:510   */\n  0x00\n    /* \"#utility.yul\":532:556   */\n  tag_25\n    /* \"#utility.yul\":550:555   */\n  dup3\n    /* \"#utility.yul\":532:556   */\n  tag_12\n  jump\t// in\ntag_25:\n    /* \"#utility.yul\":521:556   */\n  swap1\n  pop\n    /* \"#utility.yul\":466:562   */\n  swap2\n  swap1\n  pop\n  jump\t// out\n    /* \"#utility.yul\":568:678   */\ntag_14:\n    /* \"#utility.yul\":619:626   */\n  0x00\n    /* \"#utility.yul\":648:672   */\n  tag_27\n    /* \"#utility.yul\":666:671   */\n  dup3\n    /* \"#utility.yul\":648:672   */\n  tag_13\n  jump\t// in\ntag_27:\n    /* \"#utility.yul\":637:672   */\n  swap1\n  pop\n    /* \"#utility.yul\":568:678   */\n  swap2\n  swap1\n  pop\n  jump\t// out\n    /* \"#utility.yul\":684:834   */\ntag_15:\n    /* \"#utility.yul\":771:809   */\n  tag_29\n    /* \"#utility.yul\":803:808   */\n  dup2\n    /* \"#utility.yul\":771:809   */\n  tag_14\n  jump\t// in\ntag_29:\n    /* \"#utility.yul\":764:769   */\n  dup2\n    /* \"#utility.yul\":761:810   */\n  eq\n    /* \"#utility.yul\":751:828   */\n  tag_30\n  jumpi\n    /* \"#utility.yul\":824:825   */\n  0x00\n    /* \"#utility.yul\":821:822   */\n  dup1\n    /* \"#utility.yul\":814:826   */\n  revert\n    /* \"#utility.yul\":751:828   */\ntag_30:\n    /* \"#utility.yul\":684:834   */\n  pop\n  jump\t// out\n    /* \"#utility.yul\":840:1011   */\ntag_16:\n    /* \"#utility.yul\":911:916   */\n  0x00\n    /* \"#utility.yul\":942:948   */\n  dup2\n    /* \"#utility.yul\":936:949   */\n  mload\n    /* \"#utility.yul\":927:949   */\n  swap1\n  pop\n    /* \"#utility.yul\":958:1005   */\n  tag_32\n    /* \"#utility.yul\":999:1004   */\n  dup2\n    /* \"#utility.yul\":958:1005   */\n  tag_15\n  jump\t// in\ntag_32:\n    /* \"#utility.yul\":840:1011   */\n  swap3\n  swap2\n  pop\n  pop\n  jump\t// out\n    /* \"#utility.yul\":1017:1139   */\ntag_17:\n    /* \"#utility.yul\":1090:1114   */\n  tag_34\n    /* \"#utility.yul\":1108:1113   */\n  dup2\n    /* \"#utility.yul\":1090:1114   */\n  tag_13\n  jump\t// in\ntag_34:\n    /* \"#utility.yul\":1083:1088   */\n  dup2\n    /* \"#utility.yul\":1080:1115   */\n  eq\n    /* \"#utility.yul\":1070:1133   */\n  tag_35\n  jumpi\n    /* \"#utility.yul\":1129:1130   */\n  0x00\n    /* \"#utility.yul\":1126:1127   */\n  dup1\n    /* \"#utility.yul\":1119:1131   */\n  revert\n    /* \"#utility.yul\":1070:1133   */\ntag_35:\n    /* \"#utility.yul\":1017:1139   */\n  pop\n  jump\t// out\n    /* \"#utility.yul\":1145:1288   */\ntag_18:\n    /* \"#utility.yul\":1202:1207   */\n  0x00\n    /* \"#utility.yul\":1233:1239   */\n  dup2\n    /* \"#utility.yul\":1227:1240   */\n  mload\n    /* \"#utility.yul\":1218:1240   */\n  swap1\n  pop\n    /* \"#utility.yul\":1249:1282   */\n  tag_37\n    /* \"#utility.yul\":1276:1281   */\n  dup2\n    /* \"#utility.yul\":1249:1282   */\n  tag_17\n  jump\t// in\ntag_37:\n    /* \"#utility.yul\":1145:1288   */\n  swap3\n  swap2\n  pop\n  pop\n  jump\t// out\n    /* \"#utility.yul\":1294:1829   */\ntag_3:\n    /* \"#utility.yul\":1387:1393   */\n  0x00\n    /* \"#utility.yul\":1395:1401   */\n  dup1\n    /* \"#utility.yul\":1444:1446   */\n  0x40\n    /* \"#utility.yul\":1432:1441   */\n  dup4\n    /* \"#utility.yul\":1423:1430   */\n  dup6\n    /* \"#utility.yul\":1419:1442   */\n  sub\n    /* \"#utility.yul\":1415:1447   */\n  slt\n    /* \"#utility.yul\":1412:1531   */\n  iszero\n  tag_39\n  jumpi\n    /* \"#utility.yul\":1450:1529   */\n  tag_40\n  tag_10\n  jump\t// in\ntag_40:\n    /* \"#utility.yul\":1412:1531   */\ntag_39:\n    /* \"#utility.yul\":1570:1571   */\n  0x00\n    /* \"#utility.yul\":1595:1673   */\n  tag_41\n    /* \"#utility.yul\":1665:1672   */\n  dup6\n    /* \"#utility.yul\":1656:1662   */\n  dup3\n    /* \"#utility.yul\":1645:1654   */\n  dup7\n    /* \"#utility.yul\":1641:1663   */\n  add\n    /* \"#utility.yul\":1595:1673   */\n  tag_16\n  jump\t// in\ntag_41:\n    /* \"#utility.yul\":1585:1673   */\n  swap3\n  pop\n    /* \"#utility.yul\":1541:1683   */\n  pop\n    /* \"#utility.yul\":1722:1724   */\n  0x20\n    /* \"#utility.yul\":1748:1812   */\n  tag_42\n    /* \"#utility.yul\":1804:1811   */\n  dup6\n    /* \"#utility.yul\":1795:1801   */\n  dup3\n    /* \"#utility.yul\":1784:1793   */\n  dup7\n    /* \"#utility.yul\":1780:1802   */\n  add\n    /* \"#utility.yul\":1748:1812   */\n  tag_18\n  jump\t// in\ntag_42:\n    /* \"#utility.yul\":1738:1812   */\n  swap2\n  pop\n    /* \"#utility.yul\":1693:1822   */\n  pop\n    /* \"#utility.yul\":1294:1829   */\n  swap3\n  pop\n  swap3\n  swap1\n  pop\n  jump\t// out\n    /* \"contracts/LoanManager.sol\":209:5092  contract LoanManager is ReentrancyGuard {... */\ntag_8:\n  dataSize(sub_0)\n  dup1\n  dataOffset(sub_0)\n  0x00\n  codecopy\n  0x00\n  return\nstop\n\nsub_0: assembly {\n        /* \"contracts/LoanManager.sol\":209:5092  contract LoanManager is ReentrancyGuard {... */\n      mstore(0x40, 0x80)\n      callvalue\n      dup1\n      iszero\n      tag_1\n      jumpi\n      0x00\n      dup1\n      revert\n    tag_1:\n      pop\n      jumpi(tag_2, lt(calldatasize, 0x04))\n      shr(0xe0, calldataload(0x00))\n      dup1\n      0xab7b1c89\n      gt\n      tag_15\n      jumpi\n      dup1\n      0xab7b1c89\n      eq\n      tag_9\n      jumpi\n      dup1\n      0xba43a922\n      eq\n      tag_10\n      jumpi\n      dup1\n      0xc000bc60\n      eq\n      tag_11\n      jumpi\n      dup1\n      0xe9e190a3\n      eq\n      tag_12\n      jumpi\n      dup1\n      0xebbb7de9\n      eq\n      tag_13\n      jumpi\n      dup1\n      0xf5521bf1\n      eq\n      tag_14\n      jumpi\n      jump(tag_2)\n    tag_15:\n      dup1\n      0x0ea86ad8\n      eq\n      tag_3\n      jumpi\n      dup1\n      0x23be345c\n      eq\n      tag_4\n      jumpi\n      dup1\n      0x2af7e2ea\n      eq\n      tag_5\n      jumpi\n      dup1\n      0x650dfa18\n      eq\n      tag_6\n      jumpi\n      dup1\n      0x688aef48\n      eq\n      tag_7\n      jumpi\n      dup1\n      0x8d5d3429\n      eq\n      tag_8\n      jumpi\n    tag_2:\n      0x00\n      dup1\n      revert\n        /* \"contracts/LoanManager.sol\":256:279  IERC20 public cUSDToken */\n    tag_3:\n      tag_16\n      tag_17\n      jump\t// in\n    tag_16:\n      mload(0x40)\n      tag_18\n      swap2\n      swap1\n      tag_19\n      jump\t// in\n    tag_18:\n      mload(0x40)\n      dup1\n      swap2\n      sub\n      swap1\n      return\n        /* \"contracts/LoanManager.sol\":319:361  CollateralManager public collateralManager */\n    tag_4:\n      tag_20\n      tag_21\n      jump\t// in\n    tag_20:\n      mload(0x40)\n      tag_22\n      swap2\n      swap1\n      tag_23\n      jump\t// in\n    tag_22:\n      mload(0x40)\n      dup1\n      swap2\n      sub\n      swap1\n      return\n        /* \"contracts/LoanManager.sol\":570:610  uint256 public defaultDuration = 10 days */\n    tag_5:\n      tag_24\n      tag_25\n      jump\t// in\n    tag_24:\n      mload(0x40)\n      tag_26\n      swap2\n      swap1\n      tag_27\n      jump\t// in\n    tag_26:\n      mload(0x40)\n      dup1\n      swap2\n      sub\n      swap1\n      return\n        /* \"contracts/LoanManager.sol\":4550:4730  function updateCollateralToLoanRatio(uint256 _newRatio) external {... */\n    tag_6:\n      tag_28\n      0x04\n      dup1\n      calldatasize\n      sub\n      dup2\n      add\n      swap1\n      tag_29\n      swap2\n      swap1\n      tag_30\n      jump\t// in\n    tag_29:\n      tag_31\n      jump\t// in\n    tag_28:\n      stop\n        /* \"contracts/LoanManager.sol\":416:458  uint256 public collateralToLoanRatio = 150 */\n    tag_7:\n      tag_32\n      tag_33\n      jump\t// in\n    tag_32:\n      mload(0x40)\n      tag_34\n      swap2\n      swap1\n      tag_27\n      jump\t// in\n    tag_34:\n      mload(0x40)\n      dup1\n      swap2\n      sub\n      swap1\n      return\n        /* \"contracts/LoanManager.sol\":1371:2766  function requestLoan(uint256 _loanAmount) external nonReentrant {... */\n    tag_8:\n      tag_35\n      0x04\n      dup1\n      calldatasize\n      sub\n      dup2\n      add\n      swap1\n      tag_36\n      swap2\n      swap1\n      tag_30\n      jump\t// in\n    tag_36:\n      tag_37\n      jump\t// in\n    tag_35:\n      stop\n        /* \"contracts/LoanManager.sol\":2817:3735  function repayLoan(uint256 _repayAmount) external nonReentrant {... */\n    tag_9:\n      tag_38\n      0x04\n      dup1\n      calldatasize\n      sub\n      dup2\n      add\n      swap1\n      tag_39\n      swap2\n      swap1\n      tag_30\n      jump\t// in\n    tag_39:\n      tag_40\n      jump\t// in\n    tag_38:\n      stop\n        /* \"contracts/LoanManager.sol\":4736:4907  function updateLoanDuration(uint256 _newDuration) external {... */\n    tag_10:\n      tag_41\n      0x04\n      dup1\n      calldatasize\n      sub\n      dup2\n      add\n      swap1\n      tag_42\n      swap2\n      swap1\n      tag_30\n      jump\t// in\n    tag_42:\n      tag_43\n      jump\t// in\n    tag_41:\n      stop\n        /* \"contracts/LoanManager.sol\":4913:5090  function updateDefaultDuration(uint256 _newDuration) external {... */\n    tag_11:\n      tag_44\n      0x04\n      dup1\n      calldatasize\n      sub\n      dup2\n      add\n      swap1\n      tag_45\n      swap2\n      swap1\n      tag_30\n      jump\t// in\n    tag_45:\n      tag_46\n      jump\t// in\n    tag_44:\n      stop\n        /* \"contracts/LoanManager.sol\":853:894  mapping(address => Loan) public userLoans */\n    tag_12:\n      tag_47\n      0x04\n      dup1\n      calldatasize\n      sub\n      dup2\n      add\n      swap1\n      tag_48\n      swap2\n      swap1\n      tag_49\n      jump\t// in\n    tag_48:\n      tag_50\n      jump\t// in\n    tag_47:\n      mload(0x40)\n      tag_51\n      swap7\n      swap6\n      swap5\n      swap4\n      swap3\n      swap2\n      swap1\n      tag_52\n      jump\t// in\n    tag_51:\n      mload(0x40)\n      dup1\n      swap2\n      sub\n      swap1\n      return\n        /* \"contracts/LoanManager.sol\":3803:4463  function checkDefault(address _user) external nonReentrant {... */\n    tag_13:\n      tag_53\n      0x04\n      dup1\n      calldatasize\n      sub\n      dup2\n      add\n      swap1\n      tag_54\n      swap2\n      swap1\n      tag_49\n      jump\t// in\n    tag_54:\n      tag_55\n      jump\t// in\n    tag_53:\n      stop\n        /* \"contracts/LoanManager.sol\":527:564  uint256 public loanDuration = 30 days */\n    tag_14:\n      tag_56\n      tag_57\n      jump\t// in\n    tag_56:\n      mload(0x40)\n      tag_58\n      swap2\n      swap1\n      tag_27\n      jump\t// in\n    tag_58:\n      mload(0x40)\n      dup1\n      swap2\n      sub\n      swap1\n      return\n        /* \"contracts/LoanManager.sol\":256:279  IERC20 public cUSDToken */\n    tag_17:\n      0x01\n      0x00\n      swap1\n      sload\n      swap1\n      0x0100\n      exp\n      swap1\n      div\n      0xffffffffffffffffffffffffffffffffffffffff\n      and\n      dup2\n      jump\t// out\n        /* \"contracts/LoanManager.sol\":319:361  CollateralManager public collateralManager */\n    tag_21:\n      0x02\n      0x00\n      swap1\n      sload\n      swap1\n      0x0100\n      exp\n      swap1\n      div\n      0xffffffffffffffffffffffffffffffffffffffff\n      and\n      dup2\n      jump\t// out\n        /* \"contracts/LoanManager.sol\":570:610  uint256 public defaultDuration = 10 days */\n    tag_25:\n      sload(0x05)\n      dup2\n      jump\t// out\n        /* \"contracts/LoanManager.sol\":4550:4730  function updateCollateralToLoanRatio(uint256 _newRatio) external {... */\n    tag_31:\n        /* \"contracts/LoanManager.sol\":4646:4649  100 */\n      0x64\n        /* \"contracts/LoanManager.sol\":4633:4642  _newRatio */\n      dup2\n        /* \"contracts/LoanManager.sol\":4633:4649  _newRatio >= 100 */\n      lt\n      iszero\n        /* \"contracts/LoanManager.sol\":4625:4680  require(_newRatio >= 100, \"LoanManager: Invalid ratio\") */\n      tag_60\n      jumpi\n      mload(0x40)\n      0x08c379a000000000000000000000000000000000000000000000000000000000\n      dup2\n      mstore\n      0x04\n      add\n      tag_61\n      swap1\n      tag_62\n      jump\t// in\n    tag_61:\n      mload(0x40)\n      dup1\n      swap2\n      sub\n      swap1\n      revert\n    tag_60:\n        /* \"contracts/LoanManager.sol\":4714:4723  _newRatio */\n      dup1\n        /* \"contracts/LoanManager.sol\":4690:4711  collateralToLoanRatio */\n      0x03\n        /* \"contracts/LoanManager.sol\":4690:4723  collateralToLoanRatio = _newRatio */\n      dup2\n      swap1\n      sstore\n      pop\n        /* \"contracts/LoanManager.sol\":4550:4730  function updateCollateralToLoanRatio(uint256 _newRatio) external {... */\n      pop\n      jump\t// out\n        /* \"contracts/LoanManager.sol\":416:458  uint256 public collateralToLoanRatio = 150 */\n    tag_33:\n      sload(0x03)\n      dup2\n      jump\t// out\n        /* \"contracts/LoanManager.sol\":1371:2766  function requestLoan(uint256 _loanAmount) external nonReentrant {... */\n    tag_37:\n        /* \"@openzeppelin/contracts/utils/ReentrancyGuard.sol\":2356:2377  _nonReentrantBefore() */\n      tag_64\n        /* \"@openzeppelin/contracts/utils/ReentrancyGuard.sol\":2356:2375  _nonReentrantBefore */\n      tag_65\n        /* \"@openzeppelin/contracts/utils/ReentrancyGuard.sol\":2356:2377  _nonReentrantBefore() */\n      jump\t// in\n    tag_64:\n        /* \"contracts/LoanManager.sol\":1467:1468  0 */\n      0x00\n        /* \"contracts/LoanManager.sol\":1453:1464  _loanAmount */\n      dup2\n        /* \"contracts/LoanManager.sol\":1453:1468  _loanAmount > 0 */\n      gt\n        /* \"contracts/LoanManager.sol\":1445:1520  require(_loanAmount > 0, \"LoanManager: Loan amount must be greater than 0\") */\n      tag_67\n      jumpi\n      mload(0x40)\n      0x08c379a000000000000000000000000000000000000000000000000000000000\n      dup2\n      mstore\n      0x04\n      add\n      tag_68\n      swap1\n      tag_69\n      jump\t// in\n    tag_68:\n      mload(0x40)\n      dup1\n      swap2\n      sub\n      swap1\n      revert\n    tag_67:\n        /* \"contracts/LoanManager.sol\":1570:1571  0 */\n      0x00\n        /* \"contracts/LoanManager.sol\":1538:1547  userLoans */\n      0x06\n        /* \"contracts/LoanManager.sol\":1538:1559  userLoans[msg.sender] */\n      0x00\n        /* \"contracts/LoanManager.sol\":1548:1558  msg.sender */\n      caller\n        /* \"contracts/LoanManager.sol\":1538:1559  userLoans[msg.sender] */\n      0xffffffffffffffffffffffffffffffffffffffff\n      and\n      0xffffffffffffffffffffffffffffffffffffffff\n      and\n      dup2\n      mstore\n      0x20\n      add\n      swap1\n      dup2\n      mstore\n      0x20\n      add\n      0x00\n      keccak256\n        /* \"contracts/LoanManager.sol\":1538:1566  userLoans[msg.sender].amount */\n      0x00\n      add\n      sload\n        /* \"contracts/LoanManager.sol\":1538:1571  userLoans[msg.sender].amount == 0 */\n      eq\n        /* \"contracts/LoanManager.sol\":1530:1623  require(userLoans[msg.sender].amount == 0, \"LoanManager: Existing loan must be repaid first\") */\n      tag_70\n      jumpi\n      mload(0x40)\n      0x08c379a000000000000000000000000000000000000000000000000000000000\n      dup2\n      mstore\n      0x04\n      add\n      tag_71\n      swap1\n      tag_72\n      jump\t// in\n    tag_71:\n      mload(0x40)\n      dup1\n      swap2\n      sub\n      swap1\n      revert\n    tag_70:\n        /* \"contracts/LoanManager.sol\":1680:1702  uint256 celoCollateral */\n      0x00\n        /* \"contracts/LoanManager.sol\":1704:1726  uint256 usdtCollateral */\n      dup1\n        /* \"contracts/LoanManager.sol\":1730:1747  collateralManager */\n      0x02\n      0x00\n      swap1\n      sload\n      swap1\n      0x0100\n      exp\n      swap1\n      div\n      0xffffffffffffffffffffffffffffffffffffffff\n      and\n        /* \"contracts/LoanManager.sol\":1730:1768  collateralManager.getCollateralBalance */\n      0xffffffffffffffffffffffffffffffffffffffff\n      and\n      0x2703ee85\n        /* \"contracts/LoanManager.sol\":1769:1779  msg.sender */\n      caller\n        /* \"contracts/LoanManager.sol\":1730:1780  collateralManager.getCollateralBalance(msg.sender) */\n      mload(0x40)\n      dup3\n      0xffffffff\n      and\n      0xe0\n      shl\n      dup2\n      mstore\n      0x04\n      add\n      tag_73\n      swap2\n      swap1\n      tag_74\n      jump\t// in\n    tag_73:\n      0x40\n      dup1\n      mload\n      dup1\n      dup4\n      sub\n      dup2\n      dup7\n      gas\n      staticcall\n      iszero\n      dup1\n      iszero\n      tag_76\n      jumpi\n      returndatasize\n      0x00\n      dup1\n      returndatacopy\n      revert(0x00, returndatasize)\n    tag_76:\n      pop\n      pop\n      pop\n      pop\n      mload(0x40)\n      returndatasize\n      not(0x1f)\n      0x1f\n      dup3\n      add\n      and\n      dup3\n      add\n      dup1\n      0x40\n      mstore\n      pop\n      dup2\n      add\n      swap1\n      tag_77\n      swap2\n      swap1\n      tag_78\n      jump\t// in\n    tag_77:\n        /* \"contracts/LoanManager.sol\":1679:1780  (uint256 celoCollateral, uint256 usdtCollateral) = collateralManager.getCollateralBalance(msg.sender) */\n      swap2\n      pop\n      swap2\n      pop\n        /* \"contracts/LoanManager.sol\":1790:1813  uint256 totalCollateral */\n      0x00\n        /* \"contracts/LoanManager.sol\":1833:1847  usdtCollateral */\n      dup2\n        /* \"contracts/LoanManager.sol\":1816:1830  celoCollateral */\n      dup4\n        /* \"contracts/LoanManager.sol\":1816:1847  celoCollateral + usdtCollateral */\n      tag_79\n      swap2\n      swap1\n      tag_80\n      jump\t// in\n    tag_79:\n        /* \"contracts/LoanManager.sol\":1790:1847  uint256 totalCollateral = celoCollateral + usdtCollateral */\n      swap1\n      pop\n        /* \"contracts/LoanManager.sol\":1883:1884  0 */\n      0x00\n        /* \"contracts/LoanManager.sol\":1865:1880  totalCollateral */\n      dup2\n        /* \"contracts/LoanManager.sol\":1865:1884  totalCollateral > 0 */\n      gt\n        /* \"contracts/LoanManager.sol\":1857:1925  require(totalCollateral > 0, \"LoanManager: No collateral available\") */\n      tag_81\n      jumpi\n      mload(0x40)\n      0x08c379a000000000000000000000000000000000000000000000000000000000\n      dup2\n      mstore\n      0x04\n      add\n      tag_82\n      swap1\n      tag_83\n      jump\t// in\n    tag_82:\n      mload(0x40)\n      dup1\n      swap2\n      sub\n      swap1\n      revert\n    tag_81:\n        /* \"contracts/LoanManager.sol\":2004:2025  uint256 maxLoanAmount */\n      0x00\n        /* \"contracts/LoanManager.sol\":2052:2073  collateralToLoanRatio */\n      sload(0x03)\n        /* \"contracts/LoanManager.sol\":2046:2049  100 */\n      0x64\n        /* \"contracts/LoanManager.sol\":2028:2043  totalCollateral */\n      dup4\n        /* \"contracts/LoanManager.sol\":2028:2049  totalCollateral * 100 */\n      tag_84\n      swap2\n      swap1\n      tag_85\n      jump\t// in\n    tag_84:\n        /* \"contracts/LoanManager.sol\":2028:2073  totalCollateral * 100 / collateralToLoanRatio */\n      tag_86\n      swap2\n      swap1\n      tag_87\n      jump\t// in\n    tag_86:\n        /* \"contracts/LoanManager.sol\":2004:2073  uint256 maxLoanAmount = totalCollateral * 100 / collateralToLoanRatio */\n      swap1\n      pop\n        /* \"contracts/LoanManager.sol\":2106:2119  maxLoanAmount */\n      dup1\n        /* \"contracts/LoanManager.sol\":2091:2102  _loanAmount */\n      dup6\n        /* \"contracts/LoanManager.sol\":2091:2119  _loanAmount <= maxLoanAmount */\n      gt\n      iszero\n        /* \"contracts/LoanManager.sol\":2083:2186  require(_loanAmount <= maxLoanAmount, \"LoanManager: Insufficient collateral for requested loan amount\") */\n      tag_88\n      jumpi\n      mload(0x40)\n      0x08c379a000000000000000000000000000000000000000000000000000000000\n      dup2\n      mstore\n      0x04\n      add\n      tag_89\n      swap1\n      tag_90\n      jump\t// in\n    tag_89:\n      mload(0x40)\n      dup1\n      swap2\n      sub\n      swap1\n      revert\n    tag_88:\n        /* \"contracts/LoanManager.sol\":2231:2250  Loan memory newLoan */\n      0x00\n        /* \"contracts/LoanManager.sol\":2253:2517  Loan({... */\n      mload(0x40)\n      dup1\n      0xc0\n      add\n      0x40\n      mstore\n      dup1\n        /* \"contracts/LoanManager.sol\":2280:2291  _loanAmount */\n      dup8\n        /* \"contracts/LoanManager.sol\":2253:2517  Loan({... */\n      dup2\n      mstore\n      0x20\n      add\n        /* \"contracts/LoanManager.sol\":2319:2320  5 */\n      0x05\n        /* \"contracts/LoanManager.sol\":2253:2517  Loan({... */\n      dup2\n      mstore\n      0x20\n      add\n        /* \"contracts/LoanManager.sol\":2389:2404  block.timestamp */\n      timestamp\n        /* \"contracts/LoanManager.sol\":2253:2517  Loan({... */\n      dup2\n      mstore\n      0x20\n      add\n        /* \"contracts/LoanManager.sol\":2430:2445  totalCollateral */\n      dup5\n        /* \"contracts/LoanManager.sol\":2253:2517  Loan({... */\n      dup2\n      mstore\n      0x20\n      add\n        /* \"contracts/LoanManager.sol\":2469:2474  false */\n      0x00\n        /* \"contracts/LoanManager.sol\":2253:2517  Loan({... */\n      iszero\n      iszero\n      dup2\n      mstore\n      0x20\n      add\n        /* \"contracts/LoanManager.sol\":2501:2506  false */\n      0x00\n        /* \"contracts/LoanManager.sol\":2253:2517  Loan({... */\n      iszero\n      iszero\n      dup2\n      mstore\n      pop\n        /* \"contracts/LoanManager.sol\":2231:2517  Loan memory newLoan = Loan({... */\n      swap1\n      pop\n        /* \"contracts/LoanManager.sol\":2551:2558  newLoan */\n      dup1\n        /* \"contracts/LoanManager.sol\":2527:2536  userLoans */\n      0x06\n        /* \"contracts/LoanManager.sol\":2527:2548  userLoans[msg.sender] */\n      0x00\n        /* \"contracts/LoanManager.sol\":2537:2547  msg.sender */\n      caller\n        /* \"contracts/LoanManager.sol\":2527:2548  userLoans[msg.sender] */\n      0xffffffffffffffffffffffffffffffffffffffff\n      and\n      0xffffffffffffffffffffffffffffffffffffffff\n      and\n      dup2\n      mstore\n      0x20\n      add\n      swap1\n      dup2\n      mstore\n      0x20\n      add\n      0x00\n      keccak256\n        /* \"contracts/LoanManager.sol\":2527:2558  userLoans[msg.sender] = newLoan */\n      0x00\n      dup3\n      add\n      mload\n      dup2\n      0x00\n      add\n      sstore\n      0x20\n      dup3\n      add\n      mload\n      dup2\n      0x01\n      add\n      sstore\n      0x40\n      dup3\n      add\n      mload\n      dup2\n      0x02\n      add\n      sstore\n      0x60\n      dup3\n      add\n      mload\n      dup2\n      0x03\n      add\n      sstore\n      0x80\n      dup3\n      add\n      mload\n      dup2\n      0x04\n      add\n      exp(0x0100, 0x00)\n      dup2\n      sload\n      dup2\n      0xff\n      mul\n      not\n      and\n      swap1\n      dup4\n      iszero\n      iszero\n      mul\n      or\n      swap1\n      sstore\n      pop\n      0xa0\n      dup3\n      add\n      mload\n      dup2\n      0x04\n      add\n      exp(0x0100, 0x01)\n      dup2\n      sload\n      dup2\n      0xff\n      mul\n      not\n      and\n      swap1\n      dup4\n      iszero\n      iszero\n      mul\n      or\n      swap1\n      sstore\n      pop\n      swap1\n      pop\n      pop\n        /* \"contracts/LoanManager.sol\":2610:2619  cUSDToken */\n      0x01\n      0x00\n      swap1\n      sload\n      swap1\n      0x0100\n      exp\n      swap1\n      div\n      0xffffffffffffffffffffffffffffffffffffffff\n      and\n        /* \"contracts/LoanManager.sol\":2610:2628  cUSDToken.transfer */\n      0xffffffffffffffffffffffffffffffffffffffff\n      and\n      0xa9059cbb\n        /* \"contracts/LoanManager.sol\":2629:2639  msg.sender */\n      caller\n        /* \"contracts/LoanManager.sol\":2641:2652  _loanAmount */\n      dup9\n        /* \"contracts/LoanManager.sol\":2610:2653  cUSDToken.transfer(msg.sender, _loanAmount) */\n      mload(0x40)\n      dup4\n      0xffffffff\n      and\n      0xe0\n      shl\n      dup2\n      mstore\n      0x04\n      add\n      tag_91\n      swap3\n      swap2\n      swap1\n      tag_92\n      jump\t// in\n    tag_91:\n      0x20\n      mload(0x40)\n      dup1\n      dup4\n      sub\n      dup2\n      0x00\n      dup8\n      gas\n      call\n      iszero\n      dup1\n      iszero\n      tag_94\n      jumpi\n      returndatasize\n      0x00\n      dup1\n      returndatacopy\n      revert(0x00, returndatasize)\n    tag_94:\n      pop\n      pop\n      pop\n      pop\n      mload(0x40)\n      returndatasize\n      not(0x1f)\n      0x1f\n      dup3\n      add\n      and\n      dup3\n      add\n      dup1\n      0x40\n      mstore\n      pop\n      dup2\n      add\n      swap1\n      tag_95\n      swap2\n      swap1\n      tag_96\n      jump\t// in\n    tag_95:\n        /* \"contracts/LoanManager.sol\":2602:2691  require(cUSDToken.transfer(msg.sender, _loanAmount), \"LoanManager: Loan transfer failed\") */\n      tag_97\n      jumpi\n      mload(0x40)\n      0x08c379a000000000000000000000000000000000000000000000000000000000\n      dup2\n      mstore\n      0x04\n      add\n      tag_98\n      swap1\n      tag_99\n      jump\t// in\n    tag_98:\n      mload(0x40)\n      dup1\n      swap2\n      sub\n      swap1\n      revert\n    tag_97:\n        /* \"contracts/LoanManager.sol\":2718:2728  msg.sender */\n      caller\n        /* \"contracts/LoanManager.sol\":2707:2759  LoanIssued(msg.sender, _loanAmount, totalCollateral) */\n      0xffffffffffffffffffffffffffffffffffffffff\n      and\n      0x1c793c0fda4a6b2b79dd68d91d9f7fde8f7aa0878615c36a4624e6ccdbb1ead1\n        /* \"contracts/LoanManager.sol\":2730:2741  _loanAmount */\n      dup8\n        /* \"contracts/LoanManager.sol\":2743:2758  totalCollateral */\n      dup6\n        /* \"contracts/LoanManager.sol\":2707:2759  LoanIssued(msg.sender, _loanAmount, totalCollateral) */\n      mload(0x40)\n      tag_100\n      swap3\n      swap2\n      swap1\n      tag_101\n      jump\t// in\n    tag_100:\n      mload(0x40)\n      dup1\n      swap2\n      sub\n      swap1\n      log2\n        /* \"contracts/LoanManager.sol\":1435:2766  {... */\n      pop\n      pop\n      pop\n      pop\n      pop\n        /* \"@openzeppelin/contracts/utils/ReentrancyGuard.sol\":2398:2418  _nonReentrantAfter() */\n      tag_102\n        /* \"@openzeppelin/contracts/utils/ReentrancyGuard.sol\":2398:2416  _nonReentrantAfter */\n      tag_103\n        /* \"@openzeppelin/contracts/utils/ReentrancyGuard.sol\":2398:2418  _nonReentrantAfter() */\n      jump\t// in\n    tag_102:\n        /* \"contracts/LoanManager.sol\":1371:2766  function requestLoan(uint256 _loanAmount) external nonReentrant {... */\n      pop\n      jump\t// out\n        /* \"contracts/LoanManager.sol\":2817:3735  function repayLoan(uint256 _repayAmount) external nonReentrant {... */\n    tag_40:\n        /* \"@openzeppelin/contracts/utils/ReentrancyGuard.sol\":2356:2377  _nonReentrantBefore() */\n      tag_105\n        /* \"@openzeppelin/contracts/utils/ReentrancyGuard.sol\":2356:2375  _nonReentrantBefore */\n      tag_65\n        /* \"@openzeppelin/contracts/utils/ReentrancyGuard.sol\":2356:2377  _nonReentrantBefore() */\n      jump\t// in\n    tag_105:\n        /* \"contracts/LoanManager.sol\":2890:2907  Loan storage loan */\n      0x00\n        /* \"contracts/LoanManager.sol\":2910:2919  userLoans */\n      0x06\n        /* \"contracts/LoanManager.sol\":2910:2931  userLoans[msg.sender] */\n      0x00\n        /* \"contracts/LoanManager.sol\":2920:2930  msg.sender */\n      caller\n        /* \"contracts/LoanManager.sol\":2910:2931  userLoans[msg.sender] */\n      0xffffffffffffffffffffffffffffffffffffffff\n      and\n      0xffffffffffffffffffffffffffffffffffffffff\n      and\n      dup2\n      mstore\n      0x20\n      add\n      swap1\n      dup2\n      mstore\n      0x20\n      add\n      0x00\n      keccak256\n        /* \"contracts/LoanManager.sol\":2890:2931  Loan storage loan = userLoans[msg.sender] */\n      swap1\n      pop\n        /* \"contracts/LoanManager.sol\":2963:2964  0 */\n      0x00\n        /* \"contracts/LoanManager.sol\":2949:2953  loan */\n      dup2\n        /* \"contracts/LoanManager.sol\":2949:2960  loan.amount */\n      0x00\n      add\n      sload\n        /* \"contracts/LoanManager.sol\":2949:2964  loan.amount > 0 */\n      gt\n        /* \"contracts/LoanManager.sol\":2941:2996  require(loan.amount > 0, \"LoanManager: No active loan\") */\n      tag_107\n      jumpi\n      mload(0x40)\n      0x08c379a000000000000000000000000000000000000000000000000000000000\n      dup2\n      mstore\n      0x04\n      add\n      tag_108\n      swap1\n      tag_109\n      jump\t// in\n    tag_108:\n      mload(0x40)\n      dup1\n      swap2\n      sub\n      swap1\n      revert\n    tag_107:\n        /* \"contracts/LoanManager.sol\":3015:3019  loan */\n      dup1\n        /* \"contracts/LoanManager.sol\":3015:3028  loan.isRepaid */\n      0x04\n      add\n      0x00\n      swap1\n      sload\n      swap1\n      0x0100\n      exp\n      swap1\n      div\n      0xff\n      and\n        /* \"contracts/LoanManager.sol\":3014:3028  !loan.isRepaid */\n      iszero\n        /* \"contracts/LoanManager.sol\":3006:3068  require(!loan.isRepaid, \"LoanManager: Loan is already repaid\") */\n      tag_110\n      jumpi\n      mload(0x40)\n      0x08c379a000000000000000000000000000000000000000000000000000000000\n      dup2\n      mstore\n      0x04\n      add\n      tag_111\n      swap1\n      tag_112\n      jump\t// in\n    tag_111:\n      mload(0x40)\n      dup1\n      swap2\n      sub\n      swap1\n      revert\n    tag_110:\n        /* \"contracts/LoanManager.sol\":3136:3160  uint256 loanWithInterest */\n      0x00\n        /* \"contracts/LoanManager.sol\":3212:3215  100 */\n      0x64\n        /* \"contracts/LoanManager.sol\":3192:3196  loan */\n      dup3\n        /* \"contracts/LoanManager.sol\":3192:3209  loan.interestRate */\n      0x01\n      add\n      sload\n        /* \"contracts/LoanManager.sol\":3178:3182  loan */\n      dup4\n        /* \"contracts/LoanManager.sol\":3178:3189  loan.amount */\n      0x00\n      add\n      sload\n        /* \"contracts/LoanManager.sol\":3178:3209  loan.amount * loan.interestRate */\n      tag_113\n      swap2\n      swap1\n      tag_85\n      jump\t// in\n    tag_113:\n        /* \"contracts/LoanManager.sol\":3178:3215  loan.amount * loan.interestRate / 100 */\n      tag_114\n      swap2\n      swap1\n      tag_87\n      jump\t// in\n    tag_114:\n        /* \"contracts/LoanManager.sol\":3163:3167  loan */\n      dup3\n        /* \"contracts/LoanManager.sol\":3163:3174  loan.amount */\n      0x00\n      add\n      sload\n        /* \"contracts/LoanManager.sol\":3163:3216  loan.amount + (loan.amount * loan.interestRate / 100) */\n      tag_115\n      swap2\n      swap1\n      tag_80\n      jump\t// in\n    tag_115:\n        /* \"contracts/LoanManager.sol\":3136:3216  uint256 loanWithInterest = loan.amount + (loan.amount * loan.interestRate / 100) */\n      swap1\n      pop\n        /* \"contracts/LoanManager.sol\":3250:3266  loanWithInterest */\n      dup1\n        /* \"contracts/LoanManager.sol\":3234:3246  _repayAmount */\n      dup4\n        /* \"contracts/LoanManager.sol\":3234:3266  _repayAmount >= loanWithInterest */\n      lt\n      iszero\n        /* \"contracts/LoanManager.sol\":3226:3313  require(_repayAmount >= loanWithInterest, \"LoanManager: Insufficient repayment amount\") */\n      tag_116\n      jumpi\n      mload(0x40)\n      0x08c379a000000000000000000000000000000000000000000000000000000000\n      dup2\n      mstore\n      0x04\n      add\n      tag_117\n      swap1\n      tag_118\n      jump\t// in\n    tag_117:\n      mload(0x40)\n      dup1\n      swap2\n      sub\n      swap1\n      revert\n    tag_116:\n        /* \"contracts/LoanManager.sol\":3385:3394  cUSDToken */\n      0x01\n      0x00\n      swap1\n      sload\n      swap1\n      0x0100\n      exp\n      swap1\n      div\n      0xffffffffffffffffffffffffffffffffffffffff\n      and\n        /* \"contracts/LoanManager.sol\":3385:3407  cUSDToken.transferFrom */\n      0xffffffffffffffffffffffffffffffffffffffff\n      and\n      0x23b872dd\n        /* \"contracts/LoanManager.sol\":3408:3418  msg.sender */\n      caller\n        /* \"contracts/LoanManager.sol\":3428:3432  this */\n      address\n        /* \"contracts/LoanManager.sol\":3435:3447  _repayAmount */\n      dup7\n        /* \"contracts/LoanManager.sol\":3385:3448  cUSDToken.transferFrom(msg.sender, address(this), _repayAmount) */\n      mload(0x40)\n      dup5\n      0xffffffff\n      and\n      0xe0\n      shl\n      dup2\n      mstore\n      0x04\n      add\n      tag_119\n      swap4\n      swap3\n      swap2\n      swap1\n      tag_120\n      jump\t// in\n    tag_119:\n      0x20\n      mload(0x40)\n      dup1\n      dup4\n      sub\n      dup2\n      0x00\n      dup8\n      gas\n      call\n      iszero\n      dup1\n      iszero\n      tag_122\n      jumpi\n      returndatasize\n      0x00\n      dup1\n      returndatacopy\n      revert(0x00, returndatasize)\n    tag_122:\n      pop\n      pop\n      pop\n      pop\n      mload(0x40)\n      returndatasize\n      not(0x1f)\n      0x1f\n      dup3\n      add\n      and\n      dup3\n      add\n      dup1\n      0x40\n      mstore\n      pop\n      dup2\n      add\n      swap1\n      tag_123\n      swap2\n      swap1\n      tag_96\n      jump\t// in\n    tag_123:\n        /* \"contracts/LoanManager.sol\":3377:3491  require(cUSDToken.transferFrom(msg.sender, address(this), _repayAmount), \"LoanManager: Repayment transfer failed\") */\n      tag_124\n      jumpi\n      mload(0x40)\n      0x08c379a000000000000000000000000000000000000000000000000000000000\n      dup2\n      mstore\n      0x04\n      add\n      tag_125\n      swap1\n      tag_126\n      jump\t// in\n    tag_125:\n      mload(0x40)\n      dup1\n      swap2\n      sub\n      swap1\n      revert\n    tag_124:\n        /* \"contracts/LoanManager.sol\":3548:3552  true */\n      0x01\n        /* \"contracts/LoanManager.sol\":3532:3536  loan */\n      dup3\n        /* \"contracts/LoanManager.sol\":3532:3545  loan.isRepaid */\n      0x04\n      add\n      0x00\n        /* \"contracts/LoanManager.sol\":3532:3552  loan.isRepaid = true */\n      0x0100\n      exp\n      dup2\n      sload\n      dup2\n      0xff\n      mul\n      not\n      and\n      swap1\n      dup4\n      iszero\n      iszero\n      mul\n      or\n      swap1\n      sstore\n      pop\n        /* \"contracts/LoanManager.sol\":3604:3621  collateralManager */\n      0x02\n      0x00\n      swap1\n      sload\n      swap1\n      0x0100\n      exp\n      swap1\n      div\n      0xffffffffffffffffffffffffffffffffffffffff\n      and\n        /* \"contracts/LoanManager.sol\":3604:3644  collateralManager.withdrawCeloCollateral */\n      0xffffffffffffffffffffffffffffffffffffffff\n      and\n      0x8e817efe\n        /* \"contracts/LoanManager.sol\":3645:3649  loan */\n      dup4\n        /* \"contracts/LoanManager.sol\":3645:3660  loan.collateral */\n      0x03\n      add\n      sload\n        /* \"contracts/LoanManager.sol\":3604:3661  collateralManager.withdrawCeloCollateral(loan.collateral) */\n      mload(0x40)\n      dup3\n      0xffffffff\n      and\n      0xe0\n      shl\n      dup2\n      mstore\n      0x04\n      add\n      tag_127\n      swap2\n      swap1\n      tag_27\n      jump\t// in\n    tag_127:\n      0x00\n      mload(0x40)\n      dup1\n      dup4\n      sub\n      dup2\n      0x00\n      dup8\n      dup1\n      extcodesize\n      iszero\n      dup1\n      iszero\n      tag_128\n      jumpi\n      0x00\n      dup1\n      revert\n    tag_128:\n      pop\n      gas\n      call\n      iszero\n      dup1\n      iszero\n      tag_130\n      jumpi\n      returndatasize\n      0x00\n      dup1\n      returndatacopy\n      revert(0x00, returndatasize)\n    tag_130:\n      pop\n      pop\n      pop\n      pop\n        /* \"contracts/LoanManager.sol\":3687:3697  msg.sender */\n      caller\n        /* \"contracts/LoanManager.sol\":3676:3728  LoanRepaid(msg.sender, loan.amount, loan.collateral) */\n      0xffffffffffffffffffffffffffffffffffffffff\n      and\n      0xc7ce0a35f17b490de2a317e7fecb2cae86b1abffb03800b2f492823521382698\n        /* \"contracts/LoanManager.sol\":3699:3703  loan */\n      dup4\n        /* \"contracts/LoanManager.sol\":3699:3710  loan.amount */\n      0x00\n      add\n      sload\n        /* \"contracts/LoanManager.sol\":3712:3716  loan */\n      dup5\n        /* \"contracts/LoanManager.sol\":3712:3727  loan.collateral */\n      0x03\n      add\n      sload\n        /* \"contracts/LoanManager.sol\":3676:3728  LoanRepaid(msg.sender, loan.amount, loan.collateral) */\n      mload(0x40)\n      tag_131\n      swap3\n      swap2\n      swap1\n      tag_101\n      jump\t// in\n    tag_131:\n      mload(0x40)\n      dup1\n      swap2\n      sub\n      swap1\n      log2\n        /* \"contracts/LoanManager.sol\":2880:3735  {... */\n      pop\n      pop\n        /* \"@openzeppelin/contracts/utils/ReentrancyGuard.sol\":2398:2418  _nonReentrantAfter() */\n      tag_132\n        /* \"@openzeppelin/contracts/utils/ReentrancyGuard.sol\":2398:2416  _nonReentrantAfter */\n      tag_103\n        /* \"@openzeppelin/contracts/utils/ReentrancyGuard.sol\":2398:2418  _nonReentrantAfter() */\n      jump\t// in\n    tag_132:\n        /* \"contracts/LoanManager.sol\":2817:3735  function repayLoan(uint256 _repayAmount) external nonReentrant {... */\n      pop\n      jump\t// out\n        /* \"contracts/LoanManager.sol\":4736:4907  function updateLoanDuration(uint256 _newDuration) external {... */\n    tag_43:\n        /* \"contracts/LoanManager.sol\":4828:4829  0 */\n      0x00\n        /* \"contracts/LoanManager.sol\":4813:4825  _newDuration */\n      dup2\n        /* \"contracts/LoanManager.sol\":4813:4829  _newDuration > 0 */\n      gt\n        /* \"contracts/LoanManager.sol\":4805:4863  require(_newDuration > 0, \"LoanManager: Invalid duration\") */\n      tag_134\n      jumpi\n      mload(0x40)\n      0x08c379a000000000000000000000000000000000000000000000000000000000\n      dup2\n      mstore\n      0x04\n      add\n      tag_135\n      swap1\n      tag_136\n      jump\t// in\n    tag_135:\n      mload(0x40)\n      dup1\n      swap2\n      sub\n      swap1\n      revert\n    tag_134:\n        /* \"contracts/LoanManager.sol\":4888:4900  _newDuration */\n      dup1\n        /* \"contracts/LoanManager.sol\":4873:4885  loanDuration */\n      0x04\n        /* \"contracts/LoanManager.sol\":4873:4900  loanDuration = _newDuration */\n      dup2\n      swap1\n      sstore\n      pop\n        /* \"contracts/LoanManager.sol\":4736:4907  function updateLoanDuration(uint256 _newDuration) external {... */\n      pop\n      jump\t// out\n        /* \"contracts/LoanManager.sol\":4913:5090  function updateDefaultDuration(uint256 _newDuration) external {... */\n    tag_46:\n        /* \"contracts/LoanManager.sol\":5008:5009  0 */\n      0x00\n        /* \"contracts/LoanManager.sol\":4993:5005  _newDuration */\n      dup2\n        /* \"contracts/LoanManager.sol\":4993:5009  _newDuration > 0 */\n      gt\n        /* \"contracts/LoanManager.sol\":4985:5043  require(_newDuration > 0, \"LoanManager: Invalid duration\") */\n      tag_138\n      jumpi\n      mload(0x40)\n      0x08c379a000000000000000000000000000000000000000000000000000000000\n      dup2\n      mstore\n      0x04\n      add\n      tag_139\n      swap1\n      tag_136\n      jump\t// in\n    tag_139:\n      mload(0x40)\n      dup1\n      swap2\n      sub\n      swap1\n      revert\n    tag_138:\n        /* \"contracts/LoanManager.sol\":5071:5083  _newDuration */\n      dup1\n        /* \"contracts/LoanManager.sol\":5053:5068  defaultDuration */\n      0x05\n        /* \"contracts/LoanManager.sol\":5053:5083  defaultDuration = _newDuration */\n      dup2\n      swap1\n      sstore\n      pop\n        /* \"contracts/LoanManager.sol\":4913:5090  function updateDefaultDuration(uint256 _newDuration) external {... */\n      pop\n      jump\t// out\n        /* \"contracts/LoanManager.sol\":853:894  mapping(address => Loan) public userLoans */\n    tag_50:\n      mstore(0x20, 0x06)\n      dup1\n      0x00\n      mstore\n      keccak256(0x00, 0x40)\n      0x00\n      swap2\n      pop\n      swap1\n      pop\n      dup1\n      0x00\n      add\n      sload\n      swap1\n      dup1\n      0x01\n      add\n      sload\n      swap1\n      dup1\n      0x02\n      add\n      sload\n      swap1\n      dup1\n      0x03\n      add\n      sload\n      swap1\n      dup1\n      0x04\n      add\n      0x00\n      swap1\n      sload\n      swap1\n      0x0100\n      exp\n      swap1\n      div\n      0xff\n      and\n      swap1\n      dup1\n      0x04\n      add\n      0x01\n      swap1\n      sload\n      swap1\n      0x0100\n      exp\n      swap1\n      div\n      0xff\n      and\n      swap1\n      pop\n      dup7\n      jump\t// out\n        /* \"contracts/LoanManager.sol\":3803:4463  function checkDefault(address _user) external nonReentrant {... */\n    tag_55:\n        /* \"@openzeppelin/contracts/utils/ReentrancyGuard.sol\":2356:2377  _nonReentrantBefore() */\n      tag_141\n        /* \"@openzeppelin/contracts/utils/ReentrancyGuard.sol\":2356:2375  _nonReentrantBefore */\n      tag_65\n        /* \"@openzeppelin/contracts/utils/ReentrancyGuard.sol\":2356:2377  _nonReentrantBefore() */\n      jump\t// in\n    tag_141:\n        /* \"contracts/LoanManager.sol\":3872:3889  Loan storage loan */\n      0x00\n        /* \"contracts/LoanManager.sol\":3892:3901  userLoans */\n      0x06\n        /* \"contracts/LoanManager.sol\":3892:3908  userLoans[_user] */\n      0x00\n        /* \"contracts/LoanManager.sol\":3902:3907  _user */\n      dup4\n        /* \"contracts/LoanManager.sol\":3892:3908  userLoans[_user] */\n      0xffffffffffffffffffffffffffffffffffffffff\n      and\n      0xffffffffffffffffffffffffffffffffffffffff\n      and\n      dup2\n      mstore\n      0x20\n      add\n      swap1\n      dup2\n      mstore\n      0x20\n      add\n      0x00\n      keccak256\n        /* \"contracts/LoanManager.sol\":3872:3908  Loan storage loan = userLoans[_user] */\n      swap1\n      pop\n        /* \"contracts/LoanManager.sol\":3940:3941  0 */\n      0x00\n        /* \"contracts/LoanManager.sol\":3926:3930  loan */\n      dup2\n        /* \"contracts/LoanManager.sol\":3926:3937  loan.amount */\n      0x00\n      add\n      sload\n        /* \"contracts/LoanManager.sol\":3926:3941  loan.amount > 0 */\n      gt\n        /* \"contracts/LoanManager.sol\":3918:3973  require(loan.amount > 0, \"LoanManager: No active loan\") */\n      tag_143\n      jumpi\n      mload(0x40)\n      0x08c379a000000000000000000000000000000000000000000000000000000000\n      dup2\n      mstore\n      0x04\n      add\n      tag_144\n      swap1\n      tag_109\n      jump\t// in\n    tag_144:\n      mload(0x40)\n      dup1\n      swap2\n      sub\n      swap1\n      revert\n    tag_143:\n        /* \"contracts/LoanManager.sol\":3992:3996  loan */\n      dup1\n        /* \"contracts/LoanManager.sol\":3992:4008  loan.isDefaulted */\n      0x04\n      add\n      0x01\n      swap1\n      sload\n      swap1\n      0x0100\n      exp\n      swap1\n      div\n      0xff\n      and\n        /* \"contracts/LoanManager.sol\":3991:4008  !loan.isDefaulted */\n      iszero\n        /* \"contracts/LoanManager.sol\":3983:4048  require(!loan.isDefaulted, \"LoanManager: Loan already defaulted\") */\n      tag_145\n      jumpi\n      mload(0x40)\n      0x08c379a000000000000000000000000000000000000000000000000000000000\n      dup2\n      mstore\n      0x04\n      add\n      tag_146\n      swap1\n      tag_147\n      jump\t// in\n    tag_146:\n      mload(0x40)\n      dup1\n      swap2\n      sub\n      swap1\n      revert\n    tag_145:\n        /* \"contracts/LoanManager.sol\":4116:4131  defaultDuration */\n      sload(0x05)\n        /* \"contracts/LoanManager.sol\":4101:4113  loanDuration */\n      sload(0x04)\n        /* \"contracts/LoanManager.sol\":4084:4088  loan */\n      dup3\n        /* \"contracts/LoanManager.sol\":4084:4098  loan.startTime */\n      0x02\n      add\n      sload\n        /* \"contracts/LoanManager.sol\":4084:4113  loan.startTime + loanDuration */\n      tag_148\n      swap2\n      swap1\n      tag_80\n      jump\t// in\n    tag_148:\n        /* \"contracts/LoanManager.sol\":4084:4131  loan.startTime + loanDuration + defaultDuration */\n      tag_149\n      swap2\n      swap1\n      tag_80\n      jump\t// in\n    tag_149:\n        /* \"contracts/LoanManager.sol\":4066:4081  block.timestamp */\n      timestamp\n        /* \"contracts/LoanManager.sol\":4066:4131  block.timestamp > loan.startTime + loanDuration + defaultDuration */\n      gt\n        /* \"contracts/LoanManager.sol\":4058:4171  require(block.timestamp > loan.startTime + loanDuration + defaultDuration, \"LoanManager: Loan not defaulted yet\") */\n      tag_150\n      jumpi\n      mload(0x40)\n      0x08c379a000000000000000000000000000000000000000000000000000000000\n      dup2\n      mstore\n      0x04\n      add\n      tag_151\n      swap1\n      tag_152\n      jump\t// in\n    tag_151:\n      mload(0x40)\n      dup1\n      swap2\n      sub\n      swap1\n      revert\n    tag_150:\n        /* \"contracts/LoanManager.sol\":4235:4239  true */\n      0x01\n        /* \"contracts/LoanManager.sol\":4216:4220  loan */\n      dup2\n        /* \"contracts/LoanManager.sol\":4216:4232  loan.isDefaulted */\n      0x04\n      add\n      0x01\n        /* \"contracts/LoanManager.sol\":4216:4239  loan.isDefaulted = true */\n      0x0100\n      exp\n      dup2\n      sload\n      dup2\n      0xff\n      mul\n      not\n      and\n      swap1\n      dup4\n      iszero\n      iszero\n      mul\n      or\n      swap1\n      sstore\n      pop\n        /* \"contracts/LoanManager.sol\":4282:4299  collateralManager */\n      0x02\n      0x00\n      swap1\n      sload\n      swap1\n      0x0100\n      exp\n      swap1\n      div\n      0xffffffffffffffffffffffffffffffffffffffff\n      and\n        /* \"contracts/LoanManager.sol\":4282:4322  collateralManager.withdrawCeloCollateral */\n      0xffffffffffffffffffffffffffffffffffffffff\n      and\n      0x8e817efe\n        /* \"contracts/LoanManager.sol\":4323:4327  loan */\n      dup3\n        /* \"contracts/LoanManager.sol\":4323:4338  loan.collateral */\n      0x03\n      add\n      sload\n        /* \"contracts/LoanManager.sol\":4282:4339  collateralManager.withdrawCeloCollateral(loan.collateral) */\n      mload(0x40)\n      dup3\n      0xffffffff\n      and\n      0xe0\n      shl\n      dup2\n      mstore\n      0x04\n      add\n      tag_153\n      swap2\n      swap1\n      tag_27\n      jump\t// in\n    tag_153:\n      0x00\n      mload(0x40)\n      dup1\n      dup4\n      sub\n      dup2\n      0x00\n      dup8\n      dup1\n      extcodesize\n      iszero\n      dup1\n      iszero\n      tag_154\n      jumpi\n      0x00\n      dup1\n      revert\n    tag_154:\n      pop\n      gas\n      call\n      iszero\n      dup1\n      iszero\n      tag_156\n      jumpi\n      returndatasize\n      0x00\n      dup1\n      returndatacopy\n      revert(0x00, returndatasize)\n    tag_156:\n      pop\n      pop\n      pop\n      pop\n        /* \"contracts/LoanManager.sol\":4433:4438  _user */\n      dup2\n        /* \"contracts/LoanManager.sol\":4419:4456  LoanDefaulted(_user, loan.collateral) */\n      0xffffffffffffffffffffffffffffffffffffffff\n      and\n      0x0be253503c49f8fb02046da3ef57bc2f5f881eb14ba5c2c26b54bf2fb4e7db07\n        /* \"contracts/LoanManager.sol\":4440:4444  loan */\n      dup3\n        /* \"contracts/LoanManager.sol\":4440:4455  loan.collateral */\n      0x03\n      add\n      sload\n        /* \"contracts/LoanManager.sol\":4419:4456  LoanDefaulted(_user, loan.collateral) */\n      mload(0x40)\n      tag_157\n      swap2\n      swap1\n      tag_27\n      jump\t// in\n    tag_157:\n      mload(0x40)\n      dup1\n      swap2\n      sub\n      swap1\n      log2\n        /* \"contracts/LoanManager.sol\":3862:4463  {... */\n      pop\n        /* \"@openzeppelin/contracts/utils/ReentrancyGuard.sol\":2398:2418  _nonReentrantAfter() */\n      tag_158\n        /* \"@openzeppelin/contracts/utils/ReentrancyGuard.sol\":2398:2416  _nonReentrantAfter */\n      tag_103\n        /* \"@openzeppelin/contracts/utils/ReentrancyGuard.sol\":2398:2418  _nonReentrantAfter() */\n      jump\t// in\n    tag_158:\n        /* \"contracts/LoanManager.sol\":3803:4463  function checkDefault(address _user) external nonReentrant {... */\n      pop\n      jump\t// out\n        /* \"contracts/LoanManager.sol\":527:564  uint256 public loanDuration = 30 days */\n    tag_57:\n      sload(0x04)\n      dup2\n      jump\t// out\n        /* \"@openzeppelin/contracts/utils/ReentrancyGuard.sol\":2431:2738  function _nonReentrantBefore() private {... */\n    tag_65:\n        /* \"@openzeppelin/contracts/utils/ReentrancyGuard.sol\":1755:1756  2 */\n      0x02\n        /* \"@openzeppelin/contracts/utils/ReentrancyGuard.sol\":2558:2565  _status */\n      sload(0x00)\n        /* \"@openzeppelin/contracts/utils/ReentrancyGuard.sol\":2558:2576  _status == ENTERED */\n      sub\n        /* \"@openzeppelin/contracts/utils/ReentrancyGuard.sol\":2554:2640  if (_status == ENTERED) {... */\n      tag_160\n      jumpi\n        /* \"@openzeppelin/contracts/utils/ReentrancyGuard.sol\":2599:2629  ReentrancyGuardReentrantCall() */\n      mload(0x40)\n      0x3ee5aeb500000000000000000000000000000000000000000000000000000000\n      dup2\n      mstore\n      0x04\n      add\n      mload(0x40)\n      dup1\n      swap2\n      sub\n      swap1\n      revert\n        /* \"@openzeppelin/contracts/utils/ReentrancyGuard.sol\":2554:2640  if (_status == ENTERED) {... */\n    tag_160:\n        /* \"@openzeppelin/contracts/utils/ReentrancyGuard.sol\":1755:1756  2 */\n      0x02\n        /* \"@openzeppelin/contracts/utils/ReentrancyGuard.sol\":2714:2721  _status */\n      0x00\n        /* \"@openzeppelin/contracts/utils/ReentrancyGuard.sol\":2714:2731  _status = ENTERED */\n      dup2\n      swap1\n      sstore\n      pop\n        /* \"@openzeppelin/contracts/utils/ReentrancyGuard.sol\":2431:2738  function _nonReentrantBefore() private {... */\n      jump\t// out\n        /* \"@openzeppelin/contracts/utils/ReentrancyGuard.sol\":2744:2952  function _nonReentrantAfter() private {... */\n    tag_103:\n        /* \"@openzeppelin/contracts/utils/ReentrancyGuard.sol\":1713:1714  1 */\n      0x01\n        /* \"@openzeppelin/contracts/utils/ReentrancyGuard.sol\":2924:2931  _status */\n      0x00\n        /* \"@openzeppelin/contracts/utils/ReentrancyGuard.sol\":2924:2945  _status = NOT_ENTERED */\n      dup2\n      swap1\n      sstore\n      pop\n        /* \"@openzeppelin/contracts/utils/ReentrancyGuard.sol\":2744:2952  function _nonReentrantAfter() private {... */\n      jump\t// out\n        /* \"#utility.yul\":7:133   */\n    tag_162:\n        /* \"#utility.yul\":44:51   */\n      0x00\n        /* \"#utility.yul\":84:126   */\n      0xffffffffffffffffffffffffffffffffffffffff\n        /* \"#utility.yul\":77:82   */\n      dup3\n        /* \"#utility.yul\":73:127   */\n      and\n        /* \"#utility.yul\":62:127   */\n      swap1\n      pop\n        /* \"#utility.yul\":7:133   */\n      swap2\n      swap1\n      pop\n      jump\t// out\n        /* \"#utility.yul\":139:199   */\n    tag_163:\n        /* \"#utility.yul\":167:170   */\n      0x00\n        /* \"#utility.yul\":188:193   */\n      dup2\n        /* \"#utility.yul\":181:193   */\n      swap1\n      pop\n        /* \"#utility.yul\":139:199   */\n      swap2\n      swap1\n      pop\n      jump\t// out\n        /* \"#utility.yul\":205:347   */\n    tag_164:\n        /* \"#utility.yul\":255:264   */\n      0x00\n        /* \"#utility.yul\":288:341   */\n      tag_219\n        /* \"#utility.yul\":306:340   */\n      tag_220\n        /* \"#utility.yul\":315:339   */\n      tag_221\n        /* \"#utility.yul\":333:338   */\n      dup5\n        /* \"#utility.yul\":315:339   */\n      tag_162\n      jump\t// in\n    tag_221:\n        /* \"#utility.yul\":306:340   */\n      tag_163\n      jump\t// in\n    tag_220:\n        /* \"#utility.yul\":288:341   */\n      tag_162\n      jump\t// in\n    tag_219:\n        /* \"#utility.yul\":275:341   */\n      swap1\n      pop\n        /* \"#utility.yul\":205:347   */\n      swap2\n      swap1\n      pop\n      jump\t// out\n        /* \"#utility.yul\":353:479   */\n    tag_165:\n        /* \"#utility.yul\":403:412   */\n      0x00\n        /* \"#utility.yul\":436:473   */\n      tag_223\n        /* \"#utility.yul\":467:472   */\n      dup3\n        /* \"#utility.yul\":436:473   */\n      tag_164\n      jump\t// in\n    tag_223:\n        /* \"#utility.yul\":423:473   */\n      swap1\n      pop\n        /* \"#utility.yul\":353:479   */\n      swap2\n      swap1\n      pop\n      jump\t// out\n        /* \"#utility.yul\":485:625   */\n    tag_166:\n        /* \"#utility.yul\":549:558   */\n      0x00\n        /* \"#utility.yul\":582:619   */\n      tag_225\n        /* \"#utility.yul\":613:618   */\n      dup3\n        /* \"#utility.yul\":582:619   */\n      tag_165\n      jump\t// in\n    tag_225:\n        /* \"#utility.yul\":569:619   */\n      swap1\n      pop\n        /* \"#utility.yul\":485:625   */\n      swap2\n      swap1\n      pop\n      jump\t// out\n        /* \"#utility.yul\":631:790   */\n    tag_167:\n        /* \"#utility.yul\":732:783   */\n      tag_227\n        /* \"#utility.yul\":777:782   */\n      dup2\n        /* \"#utility.yul\":732:783   */\n      tag_166\n      jump\t// in\n    tag_227:\n        /* \"#utility.yul\":727:730   */\n      dup3\n        /* \"#utility.yul\":720:784   */\n      mstore\n        /* \"#utility.yul\":631:790   */\n      pop\n      pop\n      jump\t// out\n        /* \"#utility.yul\":796:1046   */\n    tag_19:\n        /* \"#utility.yul\":903:907   */\n      0x00\n        /* \"#utility.yul\":941:943   */\n      0x20\n        /* \"#utility.yul\":930:939   */\n      dup3\n        /* \"#utility.yul\":926:944   */\n      add\n        /* \"#utility.yul\":918:944   */\n      swap1\n      pop\n        /* \"#utility.yul\":954:1039   */\n      tag_229\n        /* \"#utility.yul\":1036:1037   */\n      0x00\n        /* \"#utility.yul\":1025:1034   */\n      dup4\n        /* \"#utility.yul\":1021:1038   */\n      add\n        /* \"#utility.yul\":1012:1018   */\n      dup5\n        /* \"#utility.yul\":954:1039   */\n      tag_167\n      jump\t// in\n    tag_229:\n        /* \"#utility.yul\":796:1046   */\n      swap3\n      swap2\n      pop\n      pop\n      jump\t// out\n        /* \"#utility.yul\":1052:1203   */\n    tag_168:\n        /* \"#utility.yul\":1127:1136   */\n      0x00\n        /* \"#utility.yul\":1160:1197   */\n      tag_231\n        /* \"#utility.yul\":1191:1196   */\n      dup3\n        /* \"#utility.yul\":1160:1197   */\n      tag_165\n      jump\t// in\n    tag_231:\n        /* \"#utility.yul\":1147:1197   */\n      swap1\n      pop\n        /* \"#utility.yul\":1052:1203   */\n      swap2\n      swap1\n      pop\n      jump\t// out\n        /* \"#utility.yul\":1209:1390   */\n    tag_169:\n        /* \"#utility.yul\":1321:1383   */\n      tag_233\n        /* \"#utility.yul\":1377:1382   */\n      dup2\n        /* \"#utility.yul\":1321:1383   */\n      tag_168\n      jump\t// in\n    tag_233:\n        /* \"#utility.yul\":1316:1319   */\n      dup3\n        /* \"#utility.yul\":1309:1384   */\n      mstore\n        /* \"#utility.yul\":1209:1390   */\n      pop\n      pop\n      jump\t// out\n        /* \"#utility.yul\":1396:1668   */\n    tag_23:\n        /* \"#utility.yul\":1514:1518   */\n      0x00\n        /* \"#utility.yul\":1552:1554   */\n      0x20\n        /* \"#utility.yul\":1541:1550   */\n      dup3\n        /* \"#utility.yul\":1537:1555   */\n      add\n        /* \"#utility.yul\":1529:1555   */\n      swap1\n      pop\n        /* \"#utility.yul\":1565:1661   */\n      tag_235\n        /* \"#utility.yul\":1658:1659   */\n      0x00\n        /* \"#utility.yul\":1647:1656   */\n      dup4\n        /* \"#utility.yul\":1643:1660   */\n      add\n        /* \"#utility.yul\":1634:1640   */\n      dup5\n        /* \"#utility.yul\":1565:1661   */\n      tag_169\n      jump\t// in\n    tag_235:\n        /* \"#utility.yul\":1396:1668   */\n      swap3\n      swap2\n      pop\n      pop\n      jump\t// out\n        /* \"#utility.yul\":1674:1751   */\n    tag_170:\n        /* \"#utility.yul\":1711:1718   */\n      0x00\n        /* \"#utility.yul\":1740:1745   */\n      dup2\n        /* \"#utility.yul\":1729:1745   */\n      swap1\n      pop\n        /* \"#utility.yul\":1674:1751   */\n      swap2\n      swap1\n      pop\n      jump\t// out\n        /* \"#utility.yul\":1757:1875   */\n    tag_171:\n        /* \"#utility.yul\":1844:1868   */\n      tag_238\n        /* \"#utility.yul\":1862:1867   */\n      dup2\n        /* \"#utility.yul\":1844:1868   */\n      tag_170\n      jump\t// in\n    tag_238:\n        /* \"#utility.yul\":1839:1842   */\n      dup3\n        /* \"#utility.yul\":1832:1869   */\n      mstore\n        /* \"#utility.yul\":1757:1875   */\n      pop\n      pop\n      jump\t// out\n        /* \"#utility.yul\":1881:2103   */\n    tag_27:\n        /* \"#utility.yul\":1974:1978   */\n      0x00\n        /* \"#utility.yul\":2012:2014   */\n      0x20\n        /* \"#utility.yul\":2001:2010   */\n      dup3\n        /* \"#utility.yul\":1997:2015   */\n      add\n        /* \"#utility.yul\":1989:2015   */\n      swap1\n      pop\n        /* \"#utility.yul\":2025:2096   */\n      tag_240\n        /* \"#utility.yul\":2093:2094   */\n      0x00\n        /* \"#utility.yul\":2082:2091   */\n      dup4\n        /* \"#utility.yul\":2078:2095   */\n      add\n        /* \"#utility.yul\":2069:2075   */\n      dup5\n        /* \"#utility.yul\":2025:2096   */\n      tag_171\n      jump\t// in\n    tag_240:\n        /* \"#utility.yul\":1881:2103   */\n      swap3\n      swap2\n      pop\n      pop\n      jump\t// out\n        /* \"#utility.yul\":2190:2307   */\n    tag_173:\n        /* \"#utility.yul\":2299:2300   */\n      0x00\n        /* \"#utility.yul\":2296:2297   */\n      dup1\n        /* \"#utility.yul\":2289:2301   */\n      revert\n        /* \"#utility.yul\":2436:2558   */\n    tag_175:\n        /* \"#utility.yul\":2509:2533   */\n      tag_245\n        /* \"#utility.yul\":2527:2532   */\n      dup2\n        /* \"#utility.yul\":2509:2533   */\n      tag_170\n      jump\t// in\n    tag_245:\n        /* \"#utility.yul\":2502:2507   */\n      dup2\n        /* \"#utility.yul\":2499:2534   */\n      eq\n        /* \"#utility.yul\":2489:2552   */\n      tag_246\n      jumpi\n        /* \"#utility.yul\":2548:2549   */\n      0x00\n        /* \"#utility.yul\":2545:2546   */\n      dup1\n        /* \"#utility.yul\":2538:2550   */\n      revert\n        /* \"#utility.yul\":2489:2552   */\n    tag_246:\n        /* \"#utility.yul\":2436:2558   */\n      pop\n      jump\t// out\n        /* \"#utility.yul\":2564:2703   */\n    tag_176:\n        /* \"#utility.yul\":2610:2615   */\n      0x00\n        /* \"#utility.yul\":2648:2654   */\n      dup2\n        /* \"#utility.yul\":2635:2655   */\n      calldataload\n        /* \"#utility.yul\":2626:2655   */\n      swap1\n      pop\n        /* \"#utility.yul\":2664:2697   */\n      tag_248\n        /* \"#utility.yul\":2691:2696   */\n      dup2\n        /* \"#utility.yul\":2664:2697   */\n      tag_175\n      jump\t// in\n    tag_248:\n        /* \"#utility.yul\":2564:2703   */\n      swap3\n      swap2\n      pop\n      pop\n      jump\t// out\n        /* \"#utility.yul\":2709:3038   */\n    tag_30:\n        /* \"#utility.yul\":2768:2774   */\n      0x00\n        /* \"#utility.yul\":2817:2819   */\n      0x20\n        /* \"#utility.yul\":2805:2814   */\n      dup3\n        /* \"#utility.yul\":2796:2803   */\n      dup5\n        /* \"#utility.yul\":2792:2815   */\n      sub\n        /* \"#utility.yul\":2788:2820   */\n      slt\n        /* \"#utility.yul\":2785:2904   */\n      iszero\n      tag_250\n      jumpi\n        /* \"#utility.yul\":2823:2902   */\n      tag_251\n      tag_173\n      jump\t// in\n    tag_251:\n        /* \"#utility.yul\":2785:2904   */\n    tag_250:\n        /* \"#utility.yul\":2943:2944   */\n      0x00\n        /* \"#utility.yul\":2968:3021   */\n      tag_252\n        /* \"#utility.yul\":3013:3020   */\n      dup5\n        /* \"#utility.yul\":3004:3010   */\n      dup3\n        /* \"#utility.yul\":2993:3002   */\n      dup6\n        /* \"#utility.yul\":2989:3011   */\n      add\n        /* \"#utility.yul\":2968:3021   */\n      tag_176\n      jump\t// in\n    tag_252:\n        /* \"#utility.yul\":2958:3021   */\n      swap2\n      pop\n        /* \"#utility.yul\":2914:3031   */\n      pop\n        /* \"#utility.yul\":2709:3038   */\n      swap3\n      swap2\n      pop\n      pop\n      jump\t// out\n        /* \"#utility.yul\":3044:3140   */\n    tag_177:\n        /* \"#utility.yul\":3081:3088   */\n      0x00\n        /* \"#utility.yul\":3110:3134   */\n      tag_254\n        /* \"#utility.yul\":3128:3133   */\n      dup3\n        /* \"#utility.yul\":3110:3134   */\n      tag_162\n      jump\t// in\n    tag_254:\n        /* \"#utility.yul\":3099:3134   */\n      swap1\n      pop\n        /* \"#utility.yul\":3044:3140   */\n      swap2\n      swap1\n      pop\n      jump\t// out\n        /* \"#utility.yul\":3146:3268   */\n    tag_178:\n        /* \"#utility.yul\":3219:3243   */\n      tag_256\n        /* \"#utility.yul\":3237:3242   */\n      dup2\n        /* \"#utility.yul\":3219:3243   */\n      tag_177\n      jump\t// in\n    tag_256:\n        /* \"#utility.yul\":3212:3217   */\n      dup2\n        /* \"#utility.yul\":3209:3244   */\n      eq\n        /* \"#utility.yul\":3199:3262   */\n      tag_257\n      jumpi\n        /* \"#utility.yul\":3258:3259   */\n      0x00\n        /* \"#utility.yul\":3255:3256   */\n      dup1\n        /* \"#utility.yul\":3248:3260   */\n      revert\n        /* \"#utility.yul\":3199:3262   */\n    tag_257:\n        /* \"#utility.yul\":3146:3268   */\n      pop\n      jump\t// out\n        /* \"#utility.yul\":3274:3413   */\n    tag_179:\n        /* \"#utility.yul\":3320:3325   */\n      0x00\n        /* \"#utility.yul\":3358:3364   */\n      dup2\n        /* \"#utility.yul\":3345:3365   */\n      calldataload\n        /* \"#utility.yul\":3336:3365   */\n      swap1\n      pop\n        /* \"#utility.yul\":3374:3407   */\n      tag_259\n        /* \"#utility.yul\":3401:3406   */\n      dup2\n        /* \"#utility.yul\":3374:3407   */\n      tag_178\n      jump\t// in\n    tag_259:\n        /* \"#utility.yul\":3274:3413   */\n      swap3\n      swap2\n      pop\n      pop\n      jump\t// out\n        /* \"#utility.yul\":3419:3748   */\n    tag_49:\n        /* \"#utility.yul\":3478:3484   */\n      0x00\n        /* \"#utility.yul\":3527:3529   */\n      0x20\n        /* \"#utility.yul\":3515:3524   */\n      dup3\n        /* \"#utility.yul\":3506:3513   */\n      dup5\n        /* \"#utility.yul\":3502:3525   */\n      sub\n        /* \"#utility.yul\":3498:3530   */\n      slt\n        /* \"#utility.yul\":3495:3614   */\n      iszero\n      tag_261\n      jumpi\n        /* \"#utility.yul\":3533:3612   */\n      tag_262\n      tag_173\n      jump\t// in\n    tag_262:\n        /* \"#utility.yul\":3495:3614   */\n    tag_261:\n        /* \"#utility.yul\":3653:3654   */\n      0x00\n        /* \"#utility.yul\":3678:3731   */\n      tag_263\n        /* \"#utility.yul\":3723:3730   */\n      dup5\n        /* \"#utility.yul\":3714:3720   */\n      dup3\n        /* \"#utility.yul\":3703:3712   */\n      dup6\n        /* \"#utility.yul\":3699:3721   */\n      add\n        /* \"#utility.yul\":3678:3731   */\n      tag_179\n      jump\t// in\n    tag_263:\n        /* \"#utility.yul\":3668:3731   */\n      swap2\n      pop\n        /* \"#utility.yul\":3624:3741   */\n      pop\n        /* \"#utility.yul\":3419:3748   */\n      swap3\n      swap2\n      pop\n      pop\n      jump\t// out\n        /* \"#utility.yul\":3754:3844   */\n    tag_180:\n        /* \"#utility.yul\":3788:3795   */\n      0x00\n        /* \"#utility.yul\":3831:3836   */\n      dup2\n        /* \"#utility.yul\":3824:3837   */\n      iszero\n        /* \"#utility.yul\":3817:3838   */\n      iszero\n        /* \"#utility.yul\":3806:3838   */\n      swap1\n      pop\n        /* \"#utility.yul\":3754:3844   */\n      swap2\n      swap1\n      pop\n      jump\t// out\n        /* \"#utility.yul\":3850:3959   */\n    tag_181:\n        /* \"#utility.yul\":3931:3952   */\n      tag_266\n        /* \"#utility.yul\":3946:3951   */\n      dup2\n        /* \"#utility.yul\":3931:3952   */\n      tag_180\n      jump\t// in\n    tag_266:\n        /* \"#utility.yul\":3926:3929   */\n      dup3\n        /* \"#utility.yul\":3919:3953   */\n      mstore\n        /* \"#utility.yul\":3850:3959   */\n      pop\n      pop\n      jump\t// out\n        /* \"#utility.yul\":3965:4716   */\n    tag_52:\n        /* \"#utility.yul\":4186:4190   */\n      0x00\n        /* \"#utility.yul\":4224:4227   */\n      0xc0\n        /* \"#utility.yul\":4213:4222   */\n      dup3\n        /* \"#utility.yul\":4209:4228   */\n      add\n        /* \"#utility.yul\":4201:4228   */\n      swap1\n      pop\n        /* \"#utility.yul\":4238:4309   */\n      tag_268\n        /* \"#utility.yul\":4306:4307   */\n      0x00\n        /* \"#utility.yul\":4295:4304   */\n      dup4\n        /* \"#utility.yul\":4291:4308   */\n      add\n        /* \"#utility.yul\":4282:4288   */\n      dup10\n        /* \"#utility.yul\":4238:4309   */\n      tag_171\n      jump\t// in\n    tag_268:\n        /* \"#utility.yul\":4319:4391   */\n      tag_269\n        /* \"#utility.yul\":4387:4389   */\n      0x20\n        /* \"#utility.yul\":4376:4385   */\n      dup4\n        /* \"#utility.yul\":4372:4390   */\n      add\n        /* \"#utility.yul\":4363:4369   */\n      dup9\n        /* \"#utility.yul\":4319:4391   */\n      tag_171\n      jump\t// in\n    tag_269:\n        /* \"#utility.yul\":4401:4473   */\n      tag_270\n        /* \"#utility.yul\":4469:4471   */\n      0x40\n        /* \"#utility.yul\":4458:4467   */\n      dup4\n        /* \"#utility.yul\":4454:4472   */\n      add\n        /* \"#utility.yul\":4445:4451   */\n      dup8\n        /* \"#utility.yul\":4401:4473   */\n      tag_171\n      jump\t// in\n    tag_270:\n        /* \"#utility.yul\":4483:4555   */\n      tag_271\n        /* \"#utility.yul\":4551:4553   */\n      0x60\n        /* \"#utility.yul\":4540:4549   */\n      dup4\n        /* \"#utility.yul\":4536:4554   */\n      add\n        /* \"#utility.yul\":4527:4533   */\n      dup7\n        /* \"#utility.yul\":4483:4555   */\n      tag_171\n      jump\t// in\n    tag_271:\n        /* \"#utility.yul\":4565:4632   */\n      tag_272\n        /* \"#utility.yul\":4627:4630   */\n      0x80\n        /* \"#utility.yul\":4616:4625   */\n      dup4\n        /* \"#utility.yul\":4612:4631   */\n      add\n        /* \"#utility.yul\":4603:4609   */\n      dup6\n        /* \"#utility.yul\":4565:4632   */\n      tag_181\n      jump\t// in\n    tag_272:\n        /* \"#utility.yul\":4642:4709   */\n      tag_273\n        /* \"#utility.yul\":4704:4707   */\n      0xa0\n        /* \"#utility.yul\":4693:4702   */\n      dup4\n        /* \"#utility.yul\":4689:4708   */\n      add\n        /* \"#utility.yul\":4680:4686   */\n      dup5\n        /* \"#utility.yul\":4642:4709   */\n      tag_181\n      jump\t// in\n    tag_273:\n        /* \"#utility.yul\":3965:4716   */\n      swap8\n      swap7\n      pop\n      pop\n      pop\n      pop\n      pop\n      pop\n      pop\n      jump\t// out\n        /* \"#utility.yul\":4722:4891   */\n    tag_182:\n        /* \"#utility.yul\":4806:4817   */\n      0x00\n        /* \"#utility.yul\":4840:4846   */\n      dup3\n        /* \"#utility.yul\":4835:4838   */\n      dup3\n        /* \"#utility.yul\":4828:4847   */\n      mstore\n        /* \"#utility.yul\":4880:4884   */\n      0x20\n        /* \"#utility.yul\":4875:4878   */\n      dup3\n        /* \"#utility.yul\":4871:4885   */\n      add\n        /* \"#utility.yul\":4856:4885   */\n      swap1\n      pop\n        /* \"#utility.yul\":4722:4891   */\n      swap3\n      swap2\n      pop\n      pop\n      jump\t// out\n        /* \"#utility.yul\":4897:5073   */\n    tag_183:\n        /* \"#utility.yul\":5037:5065   */\n      0x4c6f616e4d616e616765723a20496e76616c696420726174696f000000000000\n        /* \"#utility.yul\":5033:5034   */\n      0x00\n        /* \"#utility.yul\":5025:5031   */\n      dup3\n        /* \"#utility.yul\":5021:5035   */\n      add\n        /* \"#utility.yul\":5014:5066   */\n      mstore\n        /* \"#utility.yul\":4897:5073   */\n      pop\n      jump\t// out\n        /* \"#utility.yul\":5079:5445   */\n    tag_184:\n        /* \"#utility.yul\":5221:5224   */\n      0x00\n        /* \"#utility.yul\":5242:5309   */\n      tag_277\n        /* \"#utility.yul\":5306:5308   */\n      0x1a\n        /* \"#utility.yul\":5301:5304   */\n      dup4\n        /* \"#utility.yul\":5242:5309   */\n      tag_182\n      jump\t// in\n    tag_277:\n        /* \"#utility.yul\":5235:5309   */\n      swap2\n      pop\n        /* \"#utility.yul\":5318:5411   */\n      tag_278\n        /* \"#utility.yul\":5407:5410   */\n      dup3\n        /* \"#utility.yul\":5318:5411   */\n      tag_183\n      jump\t// in\n    tag_278:\n        /* \"#utility.yul\":5436:5438   */\n      0x20\n        /* \"#utility.yul\":5431:5434   */\n      dup3\n        /* \"#utility.yul\":5427:5439   */\n      add\n        /* \"#utility.yul\":5420:5439   */\n      swap1\n      pop\n        /* \"#utility.yul\":5079:5445   */\n      swap2\n      swap1\n      pop\n      jump\t// out\n        /* \"#utility.yul\":5451:5870   */\n    tag_62:\n        /* \"#utility.yul\":5617:5621   */\n      0x00\n        /* \"#utility.yul\":5655:5657   */\n      0x20\n        /* \"#utility.yul\":5644:5653   */\n      dup3\n        /* \"#utility.yul\":5640:5658   */\n      add\n        /* \"#utility.yul\":5632:5658   */\n      swap1\n      pop\n        /* \"#utility.yul\":5704:5713   */\n      dup2\n        /* \"#utility.yul\":5698:5702   */\n      dup2\n        /* \"#utility.yul\":5694:5714   */\n      sub\n        /* \"#utility.yul\":5690:5691   */\n      0x00\n        /* \"#utility.yul\":5679:5688   */\n      dup4\n        /* \"#utility.yul\":5675:5692   */\n      add\n        /* \"#utility.yul\":5668:5715   */\n      mstore\n        /* \"#utility.yul\":5732:5863   */\n      tag_280\n        /* \"#utility.yul\":5858:5862   */\n      dup2\n        /* \"#utility.yul\":5732:5863   */\n      tag_184\n      jump\t// in\n    tag_280:\n        /* \"#utility.yul\":5724:5863   */\n      swap1\n      pop\n        /* \"#utility.yul\":5451:5870   */\n      swap2\n      swap1\n      pop\n      jump\t// out\n        /* \"#utility.yul\":5876:6110   */\n    tag_185:\n        /* \"#utility.yul\":6016:6050   */\n      0x4c6f616e4d616e616765723a204c6f616e20616d6f756e74206d757374206265\n        /* \"#utility.yul\":6012:6013   */\n      0x00\n        /* \"#utility.yul\":6004:6010   */\n      dup3\n        /* \"#utility.yul\":6000:6014   */\n      add\n        /* \"#utility.yul\":5993:6051   */\n      mstore\n        /* \"#utility.yul\":6085:6102   */\n      0x2067726561746572207468616e20300000000000000000000000000000000000\n        /* \"#utility.yul\":6080:6082   */\n      0x20\n        /* \"#utility.yul\":6072:6078   */\n      dup3\n        /* \"#utility.yul\":6068:6083   */\n      add\n        /* \"#utility.yul\":6061:6103   */\n      mstore\n        /* \"#utility.yul\":5876:6110   */\n      pop\n      jump\t// out\n        /* \"#utility.yul\":6116:6482   */\n    tag_186:\n        /* \"#utility.yul\":6258:6261   */\n      0x00\n        /* \"#utility.yul\":6279:6346   */\n      tag_283\n        /* \"#utility.yul\":6343:6345   */\n      0x2f\n        /* \"#utility.yul\":6338:6341   */\n      dup4\n        /* \"#utility.yul\":6279:6346   */\n      tag_182\n      jump\t// in\n    tag_283:\n        /* \"#utility.yul\":6272:6346   */\n      swap2\n      pop\n        /* \"#utility.yul\":6355:6448   */\n      tag_284\n        /* \"#utility.yul\":6444:6447   */\n      dup3\n        /* \"#utility.yul\":6355:6448   */\n      tag_185\n      jump\t// in\n    tag_284:\n        /* \"#utility.yul\":6473:6475   */\n      0x40\n        /* \"#utility.yul\":6468:6471   */\n      dup3\n        /* \"#utility.yul\":6464:6476   */\n      add\n        /* \"#utility.yul\":6457:6476   */\n      swap1\n      pop\n        /* \"#utility.yul\":6116:6482   */\n      swap2\n      swap1\n      pop\n      jump\t// out\n        /* \"#utility.yul\":6488:6907   */\n    tag_69:\n        /* \"#utility.yul\":6654:6658   */\n      0x00\n        /* \"#utility.yul\":6692:6694   */\n      0x20\n        /* \"#utility.yul\":6681:6690   */\n      dup3\n        /* \"#utility.yul\":6677:6695   */\n      add\n        /* \"#utility.yul\":6669:6695   */\n      swap1\n      pop\n        /* \"#utility.yul\":6741:6750   */\n      dup2\n        /* \"#utility.yul\":6735:6739   */\n      dup2\n        /* \"#utility.yul\":6731:6751   */\n      sub\n        /* \"#utility.yul\":6727:6728   */\n      0x00\n        /* \"#utility.yul\":6716:6725   */\n      dup4\n        /* \"#utility.yul\":6712:6729   */\n      add\n        /* \"#utility.yul\":6705:6752   */\n      mstore\n        /* \"#utility.yul\":6769:6900   */\n      tag_286\n        /* \"#utility.yul\":6895:6899   */\n      dup2\n        /* \"#utility.yul\":6769:6900   */\n      tag_186\n      jump\t// in\n    tag_286:\n        /* \"#utility.yul\":6761:6900   */\n      swap1\n      pop\n        /* \"#utility.yul\":6488:6907   */\n      swap2\n      swap1\n      pop\n      jump\t// out\n        /* \"#utility.yul\":6913:7147   */\n    tag_187:\n        /* \"#utility.yul\":7053:7087   */\n      0x4c6f616e4d616e616765723a204578697374696e67206c6f616e206d75737420\n        /* \"#utility.yul\":7049:7050   */\n      0x00\n        /* \"#utility.yul\":7041:7047   */\n      dup3\n        /* \"#utility.yul\":7037:7051   */\n      add\n        /* \"#utility.yul\":7030:7088   */\n      mstore\n        /* \"#utility.yul\":7122:7139   */\n      0x6265207265706169642066697273740000000000000000000000000000000000\n        /* \"#utility.yul\":7117:7119   */\n      0x20\n        /* \"#utility.yul\":7109:7115   */\n      dup3\n        /* \"#utility.yul\":7105:7120   */\n      add\n        /* \"#utility.yul\":7098:7140   */\n      mstore\n        /* \"#utility.yul\":6913:7147   */\n      pop\n      jump\t// out\n        /* \"#utility.yul\":7153:7519   */\n    tag_188:\n        /* \"#utility.yul\":7295:7298   */\n      0x00\n        /* \"#utility.yul\":7316:7383   */\n      tag_289\n        /* \"#utility.yul\":7380:7382   */\n      0x2f\n        /* \"#utility.yul\":7375:7378   */\n      dup4\n        /* \"#utility.yul\":7316:7383   */\n      tag_182\n      jump\t// in\n    tag_289:\n        /* \"#utility.yul\":7309:7383   */\n      swap2\n      pop\n        /* \"#utility.yul\":7392:7485   */\n      tag_290\n        /* \"#utility.yul\":7481:7484   */\n      dup3\n        /* \"#utility.yul\":7392:7485   */\n      tag_187\n      jump\t// in\n    tag_290:\n        /* \"#utility.yul\":7510:7512   */\n      0x40\n        /* \"#utility.yul\":7505:7508   */\n      dup3\n        /* \"#utility.yul\":7501:7513   */\n      add\n        /* \"#utility.yul\":7494:7513   */\n      swap1\n      pop\n        /* \"#utility.yul\":7153:7519   */\n      swap2\n      swap1\n      pop\n      jump\t// out\n        /* \"#utility.yul\":7525:7944   */\n    tag_72:\n        /* \"#utility.yul\":7691:7695   */\n      0x00\n        /* \"#utility.yul\":7729:7731   */\n      0x20\n        /* \"#utility.yul\":7718:7727   */\n      dup3\n        /* \"#utility.yul\":7714:7732   */\n      add\n        /* \"#utility.yul\":7706:7732   */\n      swap1\n      pop\n        /* \"#utility.yul\":7778:7787   */\n      dup2\n        /* \"#utility.yul\":7772:7776   */\n      dup2\n        /* \"#utility.yul\":7768:7788   */\n      sub\n        /* \"#utility.yul\":7764:7765   */\n      0x00\n        /* \"#utility.yul\":7753:7762   */\n      dup4\n        /* \"#utility.yul\":7749:7766   */\n      add\n        /* \"#utility.yul\":7742:7789   */\n      mstore\n        /* \"#utility.yul\":7806:7937   */\n      tag_292\n        /* \"#utility.yul\":7932:7936   */\n      dup2\n        /* \"#utility.yul\":7806:7937   */\n      tag_188\n      jump\t// in\n    tag_292:\n        /* \"#utility.yul\":7798:7937   */\n      swap1\n      pop\n        /* \"#utility.yul\":7525:7944   */\n      swap2\n      swap1\n      pop\n      jump\t// out\n        /* \"#utility.yul\":7950:8068   */\n    tag_189:\n        /* \"#utility.yul\":8037:8061   */\n      tag_294\n        /* \"#utility.yul\":8055:8060   */\n      dup2\n        /* \"#utility.yul\":8037:8061   */\n      tag_177\n      jump\t// in\n    tag_294:\n        /* \"#utility.yul\":8032:8035   */\n      dup3\n        /* \"#utility.yul\":8025:8062   */\n      mstore\n        /* \"#utility.yul\":7950:8068   */\n      pop\n      pop\n      jump\t// out\n        /* \"#utility.yul\":8074:8296   */\n    tag_74:\n        /* \"#utility.yul\":8167:8171   */\n      0x00\n        /* \"#utility.yul\":8205:8207   */\n      0x20\n        /* \"#utility.yul\":8194:8203   */\n      dup3\n        /* \"#utility.yul\":8190:8208   */\n      add\n        /* \"#utility.yul\":8182:8208   */\n      swap1\n      pop\n        /* \"#utility.yul\":8218:8289   */\n      tag_296\n        /* \"#utility.yul\":8286:8287   */\n      0x00\n        /* \"#utility.yul\":8275:8284   */\n      dup4\n        /* \"#utility.yul\":8271:8288   */\n      add\n        /* \"#utility.yul\":8262:8268   */\n      dup5\n        /* \"#utility.yul\":8218:8289   */\n      tag_189\n      jump\t// in\n    tag_296:\n        /* \"#utility.yul\":8074:8296   */\n      swap3\n      swap2\n      pop\n      pop\n      jump\t// out\n        /* \"#utility.yul\":8302:8445   */\n    tag_190:\n        /* \"#utility.yul\":8359:8364   */\n      0x00\n        /* \"#utility.yul\":8390:8396   */\n      dup2\n        /* \"#utility.yul\":8384:8397   */\n      mload\n        /* \"#utility.yul\":8375:8397   */\n      swap1\n      pop\n        /* \"#utility.yul\":8406:8439   */\n      tag_298\n        /* \"#utility.yul\":8433:8438   */\n      dup2\n        /* \"#utility.yul\":8406:8439   */\n      tag_175\n      jump\t// in\n    tag_298:\n        /* \"#utility.yul\":8302:8445   */\n      swap3\n      swap2\n      pop\n      pop\n      jump\t// out\n        /* \"#utility.yul\":8451:8958   */\n    tag_78:\n        /* \"#utility.yul\":8530:8536   */\n      0x00\n        /* \"#utility.yul\":8538:8544   */\n      dup1\n        /* \"#utility.yul\":8587:8589   */\n      0x40\n        /* \"#utility.yul\":8575:8584   */\n      dup4\n        /* \"#utility.yul\":8566:8573   */\n      dup6\n        /* \"#utility.yul\":8562:8585   */\n      sub\n        /* \"#utility.yul\":8558:8590   */\n      slt\n        /* \"#utility.yul\":8555:8674   */\n      iszero\n      tag_300\n      jumpi\n        /* \"#utility.yul\":8593:8672   */\n      tag_301\n      tag_173\n      jump\t// in\n    tag_301:\n        /* \"#utility.yul\":8555:8674   */\n    tag_300:\n        /* \"#utility.yul\":8713:8714   */\n      0x00\n        /* \"#utility.yul\":8738:8802   */\n      tag_302\n        /* \"#utility.yul\":8794:8801   */\n      dup6\n        /* \"#utility.yul\":8785:8791   */\n      dup3\n        /* \"#utility.yul\":8774:8783   */\n      dup7\n        /* \"#utility.yul\":8770:8792   */\n      add\n        /* \"#utility.yul\":8738:8802   */\n      tag_190\n      jump\t// in\n    tag_302:\n        /* \"#utility.yul\":8728:8802   */\n      swap3\n      pop\n        /* \"#utility.yul\":8684:8812   */\n      pop\n        /* \"#utility.yul\":8851:8853   */\n      0x20\n        /* \"#utility.yul\":8877:8941   */\n      tag_303\n        /* \"#utility.yul\":8933:8940   */\n      dup6\n        /* \"#utility.yul\":8924:8930   */\n      dup3\n        /* \"#utility.yul\":8913:8922   */\n      dup7\n        /* \"#utility.yul\":8909:8931   */\n      add\n        /* \"#utility.yul\":8877:8941   */\n      tag_190\n      jump\t// in\n    tag_303:\n        /* \"#utility.yul\":8867:8941   */\n      swap2\n      pop\n        /* \"#utility.yul\":8822:8951   */\n      pop\n        /* \"#utility.yul\":8451:8958   */\n      swap3\n      pop\n      swap3\n      swap1\n      pop\n      jump\t// out\n        /* \"#utility.yul\":8964:9144   */\n    tag_191:\n        /* \"#utility.yul\":9012:9089   */\n      0x4e487b7100000000000000000000000000000000000000000000000000000000\n        /* \"#utility.yul\":9009:9010   */\n      0x00\n        /* \"#utility.yul\":9002:9090   */\n      mstore\n        /* \"#utility.yul\":9109:9113   */\n      0x11\n        /* \"#utility.yul\":9106:9107   */\n      0x04\n        /* \"#utility.yul\":9099:9114   */\n      mstore\n        /* \"#utility.yul\":9133:9137   */\n      0x24\n        /* \"#utility.yul\":9130:9131   */\n      0x00\n        /* \"#utility.yul\":9123:9138   */\n      revert\n        /* \"#utility.yul\":9150:9341   */\n    tag_80:\n        /* \"#utility.yul\":9190:9193   */\n      0x00\n        /* \"#utility.yul\":9209:9229   */\n      tag_306\n        /* \"#utility.yul\":9227:9228   */\n      dup3\n        /* \"#utility.yul\":9209:9229   */\n      tag_170\n      jump\t// in\n    tag_306:\n        /* \"#utility.yul\":9204:9229   */\n      swap2\n      pop\n        /* \"#utility.yul\":9243:9263   */\n      tag_307\n        /* \"#utility.yul\":9261:9262   */\n      dup4\n        /* \"#utility.yul\":9243:9263   */\n      tag_170\n      jump\t// in\n    tag_307:\n        /* \"#utility.yul\":9238:9263   */\n      swap3\n      pop\n        /* \"#utility.yul\":9286:9287   */\n      dup3\n        /* \"#utility.yul\":9283:9284   */\n      dup3\n        /* \"#utility.yul\":9279:9288   */\n      add\n        /* \"#utility.yul\":9272:9288   */\n      swap1\n      pop\n        /* \"#utility.yul\":9307:9310   */\n      dup1\n        /* \"#utility.yul\":9304:9305   */\n      dup3\n        /* \"#utility.yul\":9301:9311   */\n      gt\n        /* \"#utility.yul\":9298:9334   */\n      iszero\n      tag_308\n      jumpi\n        /* \"#utility.yul\":9314:9332   */\n      tag_309\n      tag_191\n      jump\t// in\n    tag_309:\n        /* \"#utility.yul\":9298:9334   */\n    tag_308:\n        /* \"#utility.yul\":9150:9341   */\n      swap3\n      swap2\n      pop\n      pop\n      jump\t// out\n        /* \"#utility.yul\":9347:9570   */\n    tag_192:\n        /* \"#utility.yul\":9487:9521   */\n      0x4c6f616e4d616e616765723a204e6f20636f6c6c61746572616c20617661696c\n        /* \"#utility.yul\":9483:9484   */\n      0x00\n        /* \"#utility.yul\":9475:9481   */\n      dup3\n        /* \"#utility.yul\":9471:9485   */\n      add\n        /* \"#utility.yul\":9464:9522   */\n      mstore\n        /* \"#utility.yul\":9556:9562   */\n      0x61626c6500000000000000000000000000000000000000000000000000000000\n        /* \"#utility.yul\":9551:9553   */\n      0x20\n        /* \"#utility.yul\":9543:9549   */\n      dup3\n        /* \"#utility.yul\":9539:9554   */\n      add\n        /* \"#utility.yul\":9532:9563   */\n      mstore\n        /* \"#utility.yul\":9347:9570   */\n      pop\n      jump\t// out\n        /* \"#utility.yul\":9576:9942   */\n    tag_193:\n        /* \"#utility.yul\":9718:9721   */\n      0x00\n        /* \"#utility.yul\":9739:9806   */\n      tag_312\n        /* \"#utility.yul\":9803:9805   */\n      0x24\n        /* \"#utility.yul\":9798:9801   */\n      dup4\n        /* \"#utility.yul\":9739:9806   */\n      tag_182\n      jump\t// in\n    tag_312:\n        /* \"#utility.yul\":9732:9806   */\n      swap2\n      pop\n        /* \"#utility.yul\":9815:9908   */\n      tag_313\n        /* \"#utility.yul\":9904:9907   */\n      dup3\n        /* \"#utility.yul\":9815:9908   */\n      tag_192\n      jump\t// in\n    tag_313:\n        /* \"#utility.yul\":9933:9935   */\n      0x40\n        /* \"#utility.yul\":9928:9931   */\n      dup3\n        /* \"#utility.yul\":9924:9936   */\n      add\n        /* \"#utility.yul\":9917:9936   */\n      swap1\n      pop\n        /* \"#utility.yul\":9576:9942   */\n      swap2\n      swap1\n      pop\n      jump\t// out\n        /* \"#utility.yul\":9948:10367   */\n    tag_83:\n        /* \"#utility.yul\":10114:10118   */\n      0x00\n        /* \"#utility.yul\":10152:10154   */\n      0x20\n        /* \"#utility.yul\":10141:10150   */\n      dup3\n        /* \"#utility.yul\":10137:10155   */\n      add\n        /* \"#utility.yul\":10129:10155   */\n      swap1\n      pop\n        /* \"#utility.yul\":10201:10210   */\n      dup2\n        /* \"#utility.yul\":10195:10199   */\n      dup2\n        /* \"#utility.yul\":10191:10211   */\n      sub\n        /* \"#utility.yul\":10187:10188   */\n      0x00\n        /* \"#utility.yul\":10176:10185   */\n      dup4\n        /* \"#utility.yul\":10172:10189   */\n      add\n        /* \"#utility.yul\":10165:10212   */\n      mstore\n        /* \"#utility.yul\":10229:10360   */\n      tag_315\n        /* \"#utility.yul\":10355:10359   */\n      dup2\n        /* \"#utility.yul\":10229:10360   */\n      tag_193\n      jump\t// in\n    tag_315:\n        /* \"#utility.yul\":10221:10360   */\n      swap1\n      pop\n        /* \"#utility.yul\":9948:10367   */\n      swap2\n      swap1\n      pop\n      jump\t// out\n        /* \"#utility.yul\":10373:10783   */\n    tag_85:\n        /* \"#utility.yul\":10413:10420   */\n      0x00\n        /* \"#utility.yul\":10436:10456   */\n      tag_317\n        /* \"#utility.yul\":10454:10455   */\n      dup3\n        /* \"#utility.yul\":10436:10456   */\n      tag_170\n      jump\t// in\n    tag_317:\n        /* \"#utility.yul\":10431:10456   */\n      swap2\n      pop\n        /* \"#utility.yul\":10470:10490   */\n      tag_318\n        /* \"#utility.yul\":10488:10489   */\n      dup4\n        /* \"#utility.yul\":10470:10490   */\n      tag_170\n      jump\t// in\n    tag_318:\n        /* \"#utility.yul\":10465:10490   */\n      swap3\n      pop\n        /* \"#utility.yul\":10525:10526   */\n      dup3\n        /* \"#utility.yul\":10522:10523   */\n      dup3\n        /* \"#utility.yul\":10518:10527   */\n      mul\n        /* \"#utility.yul\":10547:10577   */\n      tag_319\n        /* \"#utility.yul\":10565:10576   */\n      dup2\n        /* \"#utility.yul\":10547:10577   */\n      tag_170\n      jump\t// in\n    tag_319:\n        /* \"#utility.yul\":10536:10577   */\n      swap2\n      pop\n        /* \"#utility.yul\":10726:10727   */\n      dup3\n        /* \"#utility.yul\":10717:10724   */\n      dup3\n        /* \"#utility.yul\":10713:10728   */\n      div\n        /* \"#utility.yul\":10710:10711   */\n      dup5\n        /* \"#utility.yul\":10707:10729   */\n      eq\n        /* \"#utility.yul\":10687:10688   */\n      dup4\n        /* \"#utility.yul\":10680:10689   */\n      iszero\n        /* \"#utility.yul\":10660:10743   */\n      or\n        /* \"#utility.yul\":10637:10776   */\n      tag_320\n      jumpi\n        /* \"#utility.yul\":10756:10774   */\n      tag_321\n      tag_191\n      jump\t// in\n    tag_321:\n        /* \"#utility.yul\":10637:10776   */\n    tag_320:\n        /* \"#utility.yul\":10421:10783   */\n      pop\n        /* \"#utility.yul\":10373:10783   */\n      swap3\n      swap2\n      pop\n      pop\n      jump\t// out\n        /* \"#utility.yul\":10789:10969   */\n    tag_194:\n        /* \"#utility.yul\":10837:10914   */\n      0x4e487b7100000000000000000000000000000000000000000000000000000000\n        /* \"#utility.yul\":10834:10835   */\n      0x00\n        /* \"#utility.yul\":10827:10915   */\n      mstore\n        /* \"#utility.yul\":10934:10938   */\n      0x12\n        /* \"#utility.yul\":10931:10932   */\n      0x04\n        /* \"#utility.yul\":10924:10939   */\n      mstore\n        /* \"#utility.yul\":10958:10962   */\n      0x24\n        /* \"#utility.yul\":10955:10956   */\n      0x00\n        /* \"#utility.yul\":10948:10963   */\n      revert\n        /* \"#utility.yul\":10975:11160   */\n    tag_87:\n        /* \"#utility.yul\":11015:11016   */\n      0x00\n        /* \"#utility.yul\":11032:11052   */\n      tag_324\n        /* \"#utility.yul\":11050:11051   */\n      dup3\n        /* \"#utility.yul\":11032:11052   */\n      tag_170\n      jump\t// in\n    tag_324:\n        /* \"#utility.yul\":11027:11052   */\n      swap2\n      pop\n        /* \"#utility.yul\":11066:11086   */\n      tag_325\n        /* \"#utility.yul\":11084:11085   */\n      dup4\n        /* \"#utility.yul\":11066:11086   */\n      tag_170\n      jump\t// in\n    tag_325:\n        /* \"#utility.yul\":11061:11086   */\n      swap3\n      pop\n        /* \"#utility.yul\":11105:11106   */\n      dup3\n        /* \"#utility.yul\":11095:11130   */\n      tag_326\n      jumpi\n        /* \"#utility.yul\":11110:11128   */\n      tag_327\n      tag_194\n      jump\t// in\n    tag_327:\n        /* \"#utility.yul\":11095:11130   */\n    tag_326:\n        /* \"#utility.yul\":11152:11153   */\n      dup3\n        /* \"#utility.yul\":11149:11150   */\n      dup3\n        /* \"#utility.yul\":11145:11154   */\n      div\n        /* \"#utility.yul\":11140:11154   */\n      swap1\n      pop\n        /* \"#utility.yul\":10975:11160   */\n      swap3\n      swap2\n      pop\n      pop\n      jump\t// out\n        /* \"#utility.yul\":11166:11415   */\n    tag_195:\n        /* \"#utility.yul\":11306:11340   */\n      0x4c6f616e4d616e616765723a20496e73756666696369656e7420636f6c6c6174\n        /* \"#utility.yul\":11302:11303   */\n      0x00\n        /* \"#utility.yul\":11294:11300   */\n      dup3\n        /* \"#utility.yul\":11290:11304   */\n      add\n        /* \"#utility.yul\":11283:11341   */\n      mstore\n        /* \"#utility.yul\":11375:11407   */\n      0x6572616c20666f7220726571756573746564206c6f616e20616d6f756e740000\n        /* \"#utility.yul\":11370:11372   */\n      0x20\n        /* \"#utility.yul\":11362:11368   */\n      dup3\n        /* \"#utility.yul\":11358:11373   */\n      add\n        /* \"#utility.yul\":11351:11408   */\n      mstore\n        /* \"#utility.yul\":11166:11415   */\n      pop\n      jump\t// out\n        /* \"#utility.yul\":11421:11787   */\n    tag_196:\n        /* \"#utility.yul\":11563:11566   */\n      0x00\n        /* \"#utility.yul\":11584:11651   */\n      tag_330\n        /* \"#utility.yul\":11648:11650   */\n      0x3e\n        /* \"#utility.yul\":11643:11646   */\n      dup4\n        /* \"#utility.yul\":11584:11651   */\n      tag_182\n      jump\t// in\n    tag_330:\n        /* \"#utility.yul\":11577:11651   */\n      swap2\n      pop\n        /* \"#utility.yul\":11660:11753   */\n      tag_331\n        /* \"#utility.yul\":11749:11752   */\n      dup3\n        /* \"#utility.yul\":11660:11753   */\n      tag_195\n      jump\t// in\n    tag_331:\n        /* \"#utility.yul\":11778:11780   */\n      0x40\n        /* \"#utility.yul\":11773:11776   */\n      dup3\n        /* \"#utility.yul\":11769:11781   */\n      add\n        /* \"#utility.yul\":11762:11781   */\n      swap1\n      pop\n        /* \"#utility.yul\":11421:11787   */\n      swap2\n      swap1\n      pop\n      jump\t// out\n        /* \"#utility.yul\":11793:12212   */\n    tag_90:\n        /* \"#utility.yul\":11959:11963   */\n      0x00\n        /* \"#utility.yul\":11997:11999   */\n      0x20\n        /* \"#utility.yul\":11986:11995   */\n      dup3\n        /* \"#utility.yul\":11982:12000   */\n      add\n        /* \"#utility.yul\":11974:12000   */\n      swap1\n      pop\n        /* \"#utility.yul\":12046:12055   */\n      dup2\n        /* \"#utility.yul\":12040:12044   */\n      dup2\n        /* \"#utility.yul\":12036:12056   */\n      sub\n        /* \"#utility.yul\":12032:12033   */\n      0x00\n        /* \"#utility.yul\":12021:12030   */\n      dup4\n        /* \"#utility.yul\":12017:12034   */\n      add\n        /* \"#utility.yul\":12010:12057   */\n      mstore\n        /* \"#utility.yul\":12074:12205   */\n      tag_333\n        /* \"#utility.yul\":12200:12204   */\n      dup2\n        /* \"#utility.yul\":12074:12205   */\n      tag_196\n      jump\t// in\n    tag_333:\n        /* \"#utility.yul\":12066:12205   */\n      swap1\n      pop\n        /* \"#utility.yul\":11793:12212   */\n      swap2\n      swap1\n      pop\n      jump\t// out\n        /* \"#utility.yul\":12218:12550   */\n    tag_92:\n        /* \"#utility.yul\":12339:12343   */\n      0x00\n        /* \"#utility.yul\":12377:12379   */\n      0x40\n        /* \"#utility.yul\":12366:12375   */\n      dup3\n        /* \"#utility.yul\":12362:12380   */\n      add\n        /* \"#utility.yul\":12354:12380   */\n      swap1\n      pop\n        /* \"#utility.yul\":12390:12461   */\n      tag_335\n        /* \"#utility.yul\":12458:12459   */\n      0x00\n        /* \"#utility.yul\":12447:12456   */\n      dup4\n        /* \"#utility.yul\":12443:12460   */\n      add\n        /* \"#utility.yul\":12434:12440   */\n      dup6\n        /* \"#utility.yul\":12390:12461   */\n      tag_189\n      jump\t// in\n    tag_335:\n        /* \"#utility.yul\":12471:12543   */\n      tag_336\n        /* \"#utility.yul\":12539:12541   */\n      0x20\n        /* \"#utility.yul\":12528:12537   */\n      dup4\n        /* \"#utility.yul\":12524:12542   */\n      add\n        /* \"#utility.yul\":12515:12521   */\n      dup5\n        /* \"#utility.yul\":12471:12543   */\n      tag_171\n      jump\t// in\n    tag_336:\n        /* \"#utility.yul\":12218:12550   */\n      swap4\n      swap3\n      pop\n      pop\n      pop\n      jump\t// out\n        /* \"#utility.yul\":12556:12672   */\n    tag_197:\n        /* \"#utility.yul\":12626:12647   */\n      tag_338\n        /* \"#utility.yul\":12641:12646   */\n      dup2\n        /* \"#utility.yul\":12626:12647   */\n      tag_180\n      jump\t// in\n    tag_338:\n        /* \"#utility.yul\":12619:12624   */\n      dup2\n        /* \"#utility.yul\":12616:12648   */\n      eq\n        /* \"#utility.yul\":12606:12666   */\n      tag_339\n      jumpi\n        /* \"#utility.yul\":12662:12663   */\n      0x00\n        /* \"#utility.yul\":12659:12660   */\n      dup1\n        /* \"#utility.yul\":12652:12664   */\n      revert\n        /* \"#utility.yul\":12606:12666   */\n    tag_339:\n        /* \"#utility.yul\":12556:12672   */\n      pop\n      jump\t// out\n        /* \"#utility.yul\":12678:12815   */\n    tag_198:\n        /* \"#utility.yul\":12732:12737   */\n      0x00\n        /* \"#utility.yul\":12763:12769   */\n      dup2\n        /* \"#utility.yul\":12757:12770   */\n      mload\n        /* \"#utility.yul\":12748:12770   */\n      swap1\n      pop\n        /* \"#utility.yul\":12779:12809   */\n      tag_341\n        /* \"#utility.yul\":12803:12808   */\n      dup2\n        /* \"#utility.yul\":12779:12809   */\n      tag_197\n      jump\t// in\n    tag_341:\n        /* \"#utility.yul\":12678:12815   */\n      swap3\n      swap2\n      pop\n      pop\n      jump\t// out\n        /* \"#utility.yul\":12821:13166   */\n    tag_96:\n        /* \"#utility.yul\":12888:12894   */\n      0x00\n        /* \"#utility.yul\":12937:12939   */\n      0x20\n        /* \"#utility.yul\":12925:12934   */\n      dup3\n        /* \"#utility.yul\":12916:12923   */\n      dup5\n        /* \"#utility.yul\":12912:12935   */\n      sub\n        /* \"#utility.yul\":12908:12940   */\n      slt\n        /* \"#utility.yul\":12905:13024   */\n      iszero\n      tag_343\n      jumpi\n        /* \"#utility.yul\":12943:13022   */\n      tag_344\n      tag_173\n      jump\t// in\n    tag_344:\n        /* \"#utility.yul\":12905:13024   */\n    tag_343:\n        /* \"#utility.yul\":13063:13064   */\n      0x00\n        /* \"#utility.yul\":13088:13149   */\n      tag_345\n        /* \"#utility.yul\":13141:13148   */\n      dup5\n        /* \"#utility.yul\":13132:13138   */\n      dup3\n        /* \"#utility.yul\":13121:13130   */\n      dup6\n        /* \"#utility.yul\":13117:13139   */\n      add\n        /* \"#utility.yul\":13088:13149   */\n      tag_198\n      jump\t// in\n    tag_345:\n        /* \"#utility.yul\":13078:13149   */\n      swap2\n      pop\n        /* \"#utility.yul\":13034:13159   */\n      pop\n        /* \"#utility.yul\":12821:13166   */\n      swap3\n      swap2\n      pop\n      pop\n      jump\t// out\n        /* \"#utility.yul\":13172:13392   */\n    tag_199:\n        /* \"#utility.yul\":13312:13346   */\n      0x4c6f616e4d616e616765723a204c6f616e207472616e73666572206661696c65\n        /* \"#utility.yul\":13308:13309   */\n      0x00\n        /* \"#utility.yul\":13300:13306   */\n      dup3\n        /* \"#utility.yul\":13296:13310   */\n      add\n        /* \"#utility.yul\":13289:13347   */\n      mstore\n        /* \"#utility.yul\":13381:13384   */\n      0x6400000000000000000000000000000000000000000000000000000000000000\n        /* \"#utility.yul\":13376:13378   */\n      0x20\n        /* \"#utility.yul\":13368:13374   */\n      dup3\n        /* \"#utility.yul\":13364:13379   */\n      add\n        /* \"#utility.yul\":13357:13385   */\n      mstore\n        /* \"#utility.yul\":13172:13392   */\n      pop\n      jump\t// out\n        /* \"#utility.yul\":13398:13764   */\n    tag_200:\n        /* \"#utility.yul\":13540:13543   */\n      0x00\n        /* \"#utility.yul\":13561:13628   */\n      tag_348\n        /* \"#utility.yul\":13625:13627   */\n      0x21\n        /* \"#utility.yul\":13620:13623   */\n      dup4\n        /* \"#utility.yul\":13561:13628   */\n      tag_182\n      jump\t// in\n    tag_348:\n        /* \"#utility.yul\":13554:13628   */\n      swap2\n      pop\n        /* \"#utility.yul\":13637:13730   */\n      tag_349\n        /* \"#utility.yul\":13726:13729   */\n      dup3\n        /* \"#utility.yul\":13637:13730   */\n      tag_199\n      jump\t// in\n    tag_349:\n        /* \"#utility.yul\":13755:13757   */\n      0x40\n        /* \"#utility.yul\":13750:13753   */\n      dup3\n        /* \"#utility.yul\":13746:13758   */\n      add\n        /* \"#utility.yul\":13739:13758   */\n      swap1\n      pop\n        /* \"#utility.yul\":13398:13764   */\n      swap2\n      swap1\n      pop\n      jump\t// out\n        /* \"#utility.yul\":13770:14189   */\n    tag_99:\n        /* \"#utility.yul\":13936:13940   */\n      0x00\n        /* \"#utility.yul\":13974:13976   */\n      0x20\n        /* \"#utility.yul\":13963:13972   */\n      dup3\n        /* \"#utility.yul\":13959:13977   */\n      add\n        /* \"#utility.yul\":13951:13977   */\n      swap1\n      pop\n        /* \"#utility.yul\":14023:14032   */\n      dup2\n        /* \"#utility.yul\":14017:14021   */\n      dup2\n        /* \"#utility.yul\":14013:14033   */\n      sub\n        /* \"#utility.yul\":14009:14010   */\n      0x00\n        /* \"#utility.yul\":13998:14007   */\n      dup4\n        /* \"#utility.yul\":13994:14011   */\n      add\n        /* \"#utility.yul\":13987:14034   */\n      mstore\n        /* \"#utility.yul\":14051:14182   */\n      tag_351\n        /* \"#utility.yul\":14177:14181   */\n      dup2\n        /* \"#utility.yul\":14051:14182   */\n      tag_200\n      jump\t// in\n    tag_351:\n        /* \"#utility.yul\":14043:14182   */\n      swap1\n      pop\n        /* \"#utility.yul\":13770:14189   */\n      swap2\n      swap1\n      pop\n      jump\t// out\n        /* \"#utility.yul\":14195:14527   */\n    tag_101:\n        /* \"#utility.yul\":14316:14320   */\n      0x00\n        /* \"#utility.yul\":14354:14356   */\n      0x40\n        /* \"#utility.yul\":14343:14352   */\n      dup3\n        /* \"#utility.yul\":14339:14357   */\n      add\n        /* \"#utility.yul\":14331:14357   */\n      swap1\n      pop\n        /* \"#utility.yul\":14367:14438   */\n      tag_353\n        /* \"#utility.yul\":14435:14436   */\n      0x00\n        /* \"#utility.yul\":14424:14433   */\n      dup4\n        /* \"#utility.yul\":14420:14437   */\n      add\n        /* \"#utility.yul\":14411:14417   */\n      dup6\n        /* \"#utility.yul\":14367:14438   */\n      tag_171\n      jump\t// in\n    tag_353:\n        /* \"#utility.yul\":14448:14520   */\n      tag_354\n        /* \"#utility.yul\":14516:14518   */\n      0x20\n        /* \"#utility.yul\":14505:14514   */\n      dup4\n        /* \"#utility.yul\":14501:14519   */\n      add\n        /* \"#utility.yul\":14492:14498   */\n      dup5\n        /* \"#utility.yul\":14448:14520   */\n      tag_171\n      jump\t// in\n    tag_354:\n        /* \"#utility.yul\":14195:14527   */\n      swap4\n      swap3\n      pop\n      pop\n      pop\n      jump\t// out\n        /* \"#utility.yul\":14533:14710   */\n    tag_201:\n        /* \"#utility.yul\":14673:14702   */\n      0x4c6f616e4d616e616765723a204e6f20616374697665206c6f616e0000000000\n        /* \"#utility.yul\":14669:14670   */\n      0x00\n        /* \"#utility.yul\":14661:14667   */\n      dup3\n        /* \"#utility.yul\":14657:14671   */\n      add\n        /* \"#utility.yul\":14650:14703   */\n      mstore\n        /* \"#utility.yul\":14533:14710   */\n      pop\n      jump\t// out\n        /* \"#utility.yul\":14716:15082   */\n    tag_202:\n        /* \"#utility.yul\":14858:14861   */\n      0x00\n        /* \"#utility.yul\":14879:14946   */\n      tag_357\n        /* \"#utility.yul\":14943:14945   */\n      0x1b\n        /* \"#utility.yul\":14938:14941   */\n      dup4\n        /* \"#utility.yul\":14879:14946   */\n      tag_182\n      jump\t// in\n    tag_357:\n        /* \"#utility.yul\":14872:14946   */\n      swap2\n      pop\n        /* \"#utility.yul\":14955:15048   */\n      tag_358\n        /* \"#utility.yul\":15044:15047   */\n      dup3\n        /* \"#utility.yul\":14955:15048   */\n      tag_201\n      jump\t// in\n    tag_358:\n        /* \"#utility.yul\":15073:15075   */\n      0x20\n        /* \"#utility.yul\":15068:15071   */\n      dup3\n        /* \"#utility.yul\":15064:15076   */\n      add\n        /* \"#utility.yul\":15057:15076   */\n      swap1\n      pop\n        /* \"#utility.yul\":14716:15082   */\n      swap2\n      swap1\n      pop\n      jump\t// out\n        /* \"#utility.yul\":15088:15507   */\n    tag_109:\n        /* \"#utility.yul\":15254:15258   */\n      0x00\n        /* \"#utility.yul\":15292:15294   */\n      0x20\n        /* \"#utility.yul\":15281:15290   */\n      dup3\n        /* \"#utility.yul\":15277:15295   */\n      add\n        /* \"#utility.yul\":15269:15295   */\n      swap1\n      pop\n        /* \"#utility.yul\":15341:15350   */\n      dup2\n        /* \"#utility.yul\":15335:15339   */\n      dup2\n        /* \"#utility.yul\":15331:15351   */\n      sub\n        /* \"#utility.yul\":15327:15328   */\n      0x00\n        /* \"#utility.yul\":15316:15325   */\n      dup4\n        /* \"#utility.yul\":15312:15329   */\n      add\n        /* \"#utility.yul\":15305:15352   */\n      mstore\n        /* \"#utility.yul\":15369:15500   */\n      tag_360\n        /* \"#utility.yul\":15495:15499   */\n      dup2\n        /* \"#utility.yul\":15369:15500   */\n      tag_202\n      jump\t// in\n    tag_360:\n        /* \"#utility.yul\":15361:15500   */\n      swap1\n      pop\n        /* \"#utility.yul\":15088:15507   */\n      swap2\n      swap1\n      pop\n      jump\t// out\n        /* \"#utility.yul\":15513:15735   */\n    tag_203:\n        /* \"#utility.yul\":15653:15687   */\n      0x4c6f616e4d616e616765723a204c6f616e20697320616c726561647920726570\n        /* \"#utility.yul\":15649:15650   */\n      0x00\n        /* \"#utility.yul\":15641:15647   */\n      dup3\n        /* \"#utility.yul\":15637:15651   */\n      add\n        /* \"#utility.yul\":15630:15688   */\n      mstore\n        /* \"#utility.yul\":15722:15727   */\n      0x6169640000000000000000000000000000000000000000000000000000000000\n        /* \"#utility.yul\":15717:15719   */\n      0x20\n        /* \"#utility.yul\":15709:15715   */\n      dup3\n        /* \"#utility.yul\":15705:15720   */\n      add\n        /* \"#utility.yul\":15698:15728   */\n      mstore\n        /* \"#utility.yul\":15513:15735   */\n      pop\n      jump\t// out\n        /* \"#utility.yul\":15741:16107   */\n    tag_204:\n        /* \"#utility.yul\":15883:15886   */\n      0x00\n        /* \"#utility.yul\":15904:15971   */\n      tag_363\n        /* \"#utility.yul\":15968:15970   */\n      0x23\n        /* \"#utility.yul\":15963:15966   */\n      dup4\n        /* \"#utility.yul\":15904:15971   */\n      tag_182\n      jump\t// in\n    tag_363:\n        /* \"#utility.yul\":15897:15971   */\n      swap2\n      pop\n        /* \"#utility.yul\":15980:16073   */\n      tag_364\n        /* \"#utility.yul\":16069:16072   */\n      dup3\n        /* \"#utility.yul\":15980:16073   */\n      tag_203\n      jump\t// in\n    tag_364:\n        /* \"#utility.yul\":16098:16100   */\n      0x40\n        /* \"#utility.yul\":16093:16096   */\n      dup3\n        /* \"#utility.yul\":16089:16101   */\n      add\n        /* \"#utility.yul\":16082:16101   */\n      swap1\n      pop\n        /* \"#utility.yul\":15741:16107   */\n      swap2\n      swap1\n      pop\n      jump\t// out\n        /* \"#utility.yul\":16113:16532   */\n    tag_112:\n        /* \"#utility.yul\":16279:16283   */\n      0x00\n        /* \"#utility.yul\":16317:16319   */\n      0x20\n        /* \"#utility.yul\":16306:16315   */\n      dup3\n        /* \"#utility.yul\":16302:16320   */\n      add\n        /* \"#utility.yul\":16294:16320   */\n      swap1\n      pop\n        /* \"#utility.yul\":16366:16375   */\n      dup2\n        /* \"#utility.yul\":16360:16364   */\n      dup2\n        /* \"#utility.yul\":16356:16376   */\n      sub\n        /* \"#utility.yul\":16352:16353   */\n      0x00\n        /* \"#utility.yul\":16341:16350   */\n      dup4\n        /* \"#utility.yul\":16337:16354   */\n      add\n        /* \"#utility.yul\":16330:16377   */\n      mstore\n        /* \"#utility.yul\":16394:16525   */\n      tag_366\n        /* \"#utility.yul\":16520:16524   */\n      dup2\n        /* \"#utility.yul\":16394:16525   */\n      tag_204\n      jump\t// in\n    tag_366:\n        /* \"#utility.yul\":16386:16525   */\n      swap1\n      pop\n        /* \"#utility.yul\":16113:16532   */\n      swap2\n      swap1\n      pop\n      jump\t// out\n        /* \"#utility.yul\":16538:16767   */\n    tag_205:\n        /* \"#utility.yul\":16678:16712   */\n      0x4c6f616e4d616e616765723a20496e73756666696369656e742072657061796d\n        /* \"#utility.yul\":16674:16675   */\n      0x00\n        /* \"#utility.yul\":16666:16672   */\n      dup3\n        /* \"#utility.yul\":16662:16676   */\n      add\n        /* \"#utility.yul\":16655:16713   */\n      mstore\n        /* \"#utility.yul\":16747:16759   */\n      0x656e7420616d6f756e7400000000000000000000000000000000000000000000\n        /* \"#utility.yul\":16742:16744   */\n      0x20\n        /* \"#utility.yul\":16734:16740   */\n      dup3\n        /* \"#utility.yul\":16730:16745   */\n      add\n        /* \"#utility.yul\":16723:16760   */\n      mstore\n        /* \"#utility.yul\":16538:16767   */\n      pop\n      jump\t// out\n        /* \"#utility.yul\":16773:17139   */\n    tag_206:\n        /* \"#utility.yul\":16915:16918   */\n      0x00\n        /* \"#utility.yul\":16936:17003   */\n      tag_369\n        /* \"#utility.yul\":17000:17002   */\n      0x2a\n        /* \"#utility.yul\":16995:16998   */\n      dup4\n        /* \"#utility.yul\":16936:17003   */\n      tag_182\n      jump\t// in\n    tag_369:\n        /* \"#utility.yul\":16929:17003   */\n      swap2\n      pop\n        /* \"#utility.yul\":17012:17105   */\n      tag_370\n        /* \"#utility.yul\":17101:17104   */\n      dup3\n        /* \"#utility.yul\":17012:17105   */\n      tag_205\n      jump\t// in\n    tag_370:\n        /* \"#utility.yul\":17130:17132   */\n      0x40\n        /* \"#utility.yul\":17125:17128   */\n      dup3\n        /* \"#utility.yul\":17121:17133   */\n      add\n        /* \"#utility.yul\":17114:17133   */\n      swap1\n      pop\n        /* \"#utility.yul\":16773:17139   */\n      swap2\n      swap1\n      pop\n      jump\t// out\n        /* \"#utility.yul\":17145:17564   */\n    tag_118:\n        /* \"#utility.yul\":17311:17315   */\n      0x00\n        /* \"#utility.yul\":17349:17351   */\n      0x20\n        /* \"#utility.yul\":17338:17347   */\n      dup3\n        /* \"#utility.yul\":17334:17352   */\n      add\n        /* \"#utility.yul\":17326:17352   */\n      swap1\n      pop\n        /* \"#utility.yul\":17398:17407   */\n      dup2\n        /* \"#utility.yul\":17392:17396   */\n      dup2\n        /* \"#utility.yul\":17388:17408   */\n      sub\n        /* \"#utility.yul\":17384:17385   */\n      0x00\n        /* \"#utility.yul\":17373:17382   */\n      dup4\n        /* \"#utility.yul\":17369:17386   */\n      add\n        /* \"#utility.yul\":17362:17409   */\n      mstore\n        /* \"#utility.yul\":17426:17557   */\n      tag_372\n        /* \"#utility.yul\":17552:17556   */\n      dup2\n        /* \"#utility.yul\":17426:17557   */\n      tag_206\n      jump\t// in\n    tag_372:\n        /* \"#utility.yul\":17418:17557   */\n      swap1\n      pop\n        /* \"#utility.yul\":17145:17564   */\n      swap2\n      swap1\n      pop\n      jump\t// out\n        /* \"#utility.yul\":17570:18012   */\n    tag_120:\n        /* \"#utility.yul\":17719:17723   */\n      0x00\n        /* \"#utility.yul\":17757:17759   */\n      0x60\n        /* \"#utility.yul\":17746:17755   */\n      dup3\n        /* \"#utility.yul\":17742:17760   */\n      add\n        /* \"#utility.yul\":17734:17760   */\n      swap1\n      pop\n        /* \"#utility.yul\":17770:17841   */\n      tag_374\n        /* \"#utility.yul\":17838:17839   */\n      0x00\n        /* \"#utility.yul\":17827:17836   */\n      dup4\n        /* \"#utility.yul\":17823:17840   */\n      add\n        /* \"#utility.yul\":17814:17820   */\n      dup7\n        /* \"#utility.yul\":17770:17841   */\n      tag_189\n      jump\t// in\n    tag_374:\n        /* \"#utility.yul\":17851:17923   */\n      tag_375\n        /* \"#utility.yul\":17919:17921   */\n      0x20\n        /* \"#utility.yul\":17908:17917   */\n      dup4\n        /* \"#utility.yul\":17904:17922   */\n      add\n        /* \"#utility.yul\":17895:17901   */\n      dup6\n        /* \"#utility.yul\":17851:17923   */\n      tag_189\n      jump\t// in\n    tag_375:\n        /* \"#utility.yul\":17933:18005   */\n      tag_376\n        /* \"#utility.yul\":18001:18003   */\n      0x40\n        /* \"#utility.yul\":17990:17999   */\n      dup4\n        /* \"#utility.yul\":17986:18004   */\n      add\n        /* \"#utility.yul\":17977:17983   */\n      dup5\n        /* \"#utility.yul\":17933:18005   */\n      tag_171\n      jump\t// in\n    tag_376:\n        /* \"#utility.yul\":17570:18012   */\n      swap5\n      swap4\n      pop\n      pop\n      pop\n      pop\n      jump\t// out\n        /* \"#utility.yul\":18018:18243   */\n    tag_207:\n        /* \"#utility.yul\":18158:18192   */\n      0x4c6f616e4d616e616765723a2052657061796d656e74207472616e7366657220\n        /* \"#utility.yul\":18154:18155   */\n      0x00\n        /* \"#utility.yul\":18146:18152   */\n      dup3\n        /* \"#utility.yul\":18142:18156   */\n      add\n        /* \"#utility.yul\":18135:18193   */\n      mstore\n        /* \"#utility.yul\":18227:18235   */\n      0x6661696c65640000000000000000000000000000000000000000000000000000\n        /* \"#utility.yul\":18222:18224   */\n      0x20\n        /* \"#utility.yul\":18214:18220   */\n      dup3\n        /* \"#utility.yul\":18210:18225   */\n      add\n        /* \"#utility.yul\":18203:18236   */\n      mstore\n        /* \"#utility.yul\":18018:18243   */\n      pop\n      jump\t// out\n        /* \"#utility.yul\":18249:18615   */\n    tag_208:\n        /* \"#utility.yul\":18391:18394   */\n      0x00\n        /* \"#utility.yul\":18412:18479   */\n      tag_379\n        /* \"#utility.yul\":18476:18478   */\n      0x26\n        /* \"#utility.yul\":18471:18474   */\n      dup4\n        /* \"#utility.yul\":18412:18479   */\n      tag_182\n      jump\t// in\n    tag_379:\n        /* \"#utility.yul\":18405:18479   */\n      swap2\n      pop\n        /* \"#utility.yul\":18488:18581   */\n      tag_380\n        /* \"#utility.yul\":18577:18580   */\n      dup3\n        /* \"#utility.yul\":18488:18581   */\n      tag_207\n      jump\t// in\n    tag_380:\n        /* \"#utility.yul\":18606:18608   */\n      0x40\n        /* \"#utility.yul\":18601:18604   */\n      dup3\n        /* \"#utility.yul\":18597:18609   */\n      add\n        /* \"#utility.yul\":18590:18609   */\n      swap1\n      pop\n        /* \"#utility.yul\":18249:18615   */\n      swap2\n      swap1\n      pop\n      jump\t// out\n        /* \"#utility.yul\":18621:19040   */\n    tag_126:\n        /* \"#utility.yul\":18787:18791   */\n      0x00\n        /* \"#utility.yul\":18825:18827   */\n      0x20\n        /* \"#utility.yul\":18814:18823   */\n      dup3\n        /* \"#utility.yul\":18810:18828   */\n      add\n        /* \"#utility.yul\":18802:18828   */\n      swap1\n      pop\n        /* \"#utility.yul\":18874:18883   */\n      dup2\n        /* \"#utility.yul\":18868:18872   */\n      dup2\n        /* \"#utility.yul\":18864:18884   */\n      sub\n        /* \"#utility.yul\":18860:18861   */\n      0x00\n        /* \"#utility.yul\":18849:18858   */\n      dup4\n        /* \"#utility.yul\":18845:18862   */\n      add\n        /* \"#utility.yul\":18838:18885   */\n      mstore\n        /* \"#utility.yul\":18902:19033   */\n      tag_382\n        /* \"#utility.yul\":19028:19032   */\n      dup2\n        /* \"#utility.yul\":18902:19033   */\n      tag_208\n      jump\t// in\n    tag_382:\n        /* \"#utility.yul\":18894:19033   */\n      swap1\n      pop\n        /* \"#utility.yul\":18621:19040   */\n      swap2\n      swap1\n      pop\n      jump\t// out\n        /* \"#utility.yul\":19046:19225   */\n    tag_209:\n        /* \"#utility.yul\":19186:19217   */\n      0x4c6f616e4d616e616765723a20496e76616c6964206475726174696f6e000000\n        /* \"#utility.yul\":19182:19183   */\n      0x00\n        /* \"#utility.yul\":19174:19180   */\n      dup3\n        /* \"#utility.yul\":19170:19184   */\n      add\n        /* \"#utility.yul\":19163:19218   */\n      mstore\n        /* \"#utility.yul\":19046:19225   */\n      pop\n      jump\t// out\n        /* \"#utility.yul\":19231:19597   */\n    tag_210:\n        /* \"#utility.yul\":19373:19376   */\n      0x00\n        /* \"#utility.yul\":19394:19461   */\n      tag_385\n        /* \"#utility.yul\":19458:19460   */\n      0x1d\n        /* \"#utility.yul\":19453:19456   */\n      dup4\n        /* \"#utility.yul\":19394:19461   */\n      tag_182\n      jump\t// in\n    tag_385:\n        /* \"#utility.yul\":19387:19461   */\n      swap2\n      pop\n        /* \"#utility.yul\":19470:19563   */\n      tag_386\n        /* \"#utility.yul\":19559:19562   */\n      dup3\n        /* \"#utility.yul\":19470:19563   */\n      tag_209\n      jump\t// in\n    tag_386:\n        /* \"#utility.yul\":19588:19590   */\n      0x20\n        /* \"#utility.yul\":19583:19586   */\n      dup3\n        /* \"#utility.yul\":19579:19591   */\n      add\n        /* \"#utility.yul\":19572:19591   */\n      swap1\n      pop\n        /* \"#utility.yul\":19231:19597   */\n      swap2\n      swap1\n      pop\n      jump\t// out\n        /* \"#utility.yul\":19603:20022   */\n    tag_136:\n        /* \"#utility.yul\":19769:19773   */\n      0x00\n        /* \"#utility.yul\":19807:19809   */\n      0x20\n        /* \"#utility.yul\":19796:19805   */\n      dup3\n        /* \"#utility.yul\":19792:19810   */\n      add\n        /* \"#utility.yul\":19784:19810   */\n      swap1\n      pop\n        /* \"#utility.yul\":19856:19865   */\n      dup2\n        /* \"#utility.yul\":19850:19854   */\n      dup2\n        /* \"#utility.yul\":19846:19866   */\n      sub\n        /* \"#utility.yul\":19842:19843   */\n      0x00\n        /* \"#utility.yul\":19831:19840   */\n      dup4\n        /* \"#utility.yul\":19827:19844   */\n      add\n        /* \"#utility.yul\":19820:19867   */\n      mstore\n        /* \"#utility.yul\":19884:20015   */\n      tag_388\n        /* \"#utility.yul\":20010:20014   */\n      dup2\n        /* \"#utility.yul\":19884:20015   */\n      tag_210\n      jump\t// in\n    tag_388:\n        /* \"#utility.yul\":19876:20015   */\n      swap1\n      pop\n        /* \"#utility.yul\":19603:20022   */\n      swap2\n      swap1\n      pop\n      jump\t// out\n        /* \"#utility.yul\":20028:20250   */\n    tag_211:\n        /* \"#utility.yul\":20168:20202   */\n      0x4c6f616e4d616e616765723a204c6f616e20616c72656164792064656661756c\n        /* \"#utility.yul\":20164:20165   */\n      0x00\n        /* \"#utility.yul\":20156:20162   */\n      dup3\n        /* \"#utility.yul\":20152:20166   */\n      add\n        /* \"#utility.yul\":20145:20203   */\n      mstore\n        /* \"#utility.yul\":20237:20242   */\n      0x7465640000000000000000000000000000000000000000000000000000000000\n        /* \"#utility.yul\":20232:20234   */\n      0x20\n        /* \"#utility.yul\":20224:20230   */\n      dup3\n        /* \"#utility.yul\":20220:20235   */\n      add\n        /* \"#utility.yul\":20213:20243   */\n      mstore\n        /* \"#utility.yul\":20028:20250   */\n      pop\n      jump\t// out\n        /* \"#utility.yul\":20256:20622   */\n    tag_212:\n        /* \"#utility.yul\":20398:20401   */\n      0x00\n        /* \"#utility.yul\":20419:20486   */\n      tag_391\n        /* \"#utility.yul\":20483:20485   */\n      0x23\n        /* \"#utility.yul\":20478:20481   */\n      dup4\n        /* \"#utility.yul\":20419:20486   */\n      tag_182\n      jump\t// in\n    tag_391:\n        /* \"#utility.yul\":20412:20486   */\n      swap2\n      pop\n        /* \"#utility.yul\":20495:20588   */\n      tag_392\n        /* \"#utility.yul\":20584:20587   */\n      dup3\n        /* \"#utility.yul\":20495:20588   */\n      tag_211\n      jump\t// in\n    tag_392:\n        /* \"#utility.yul\":20613:20615   */\n      0x40\n        /* \"#utility.yul\":20608:20611   */\n      dup3\n        /* \"#utility.yul\":20604:20616   */\n      add\n        /* \"#utility.yul\":20597:20616   */\n      swap1\n      pop\n        /* \"#utility.yul\":20256:20622   */\n      swap2\n      swap1\n      pop\n      jump\t// out\n        /* \"#utility.yul\":20628:21047   */\n    tag_147:\n        /* \"#utility.yul\":20794:20798   */\n      0x00\n        /* \"#utility.yul\":20832:20834   */\n      0x20\n        /* \"#utility.yul\":20821:20830   */\n      dup3\n        /* \"#utility.yul\":20817:20835   */\n      add\n        /* \"#utility.yul\":20809:20835   */\n      swap1\n      pop\n        /* \"#utility.yul\":20881:20890   */\n      dup2\n        /* \"#utility.yul\":20875:20879   */\n      dup2\n        /* \"#utility.yul\":20871:20891   */\n      sub\n        /* \"#utility.yul\":20867:20868   */\n      0x00\n        /* \"#utility.yul\":20856:20865   */\n      dup4\n        /* \"#utility.yul\":20852:20869   */\n      add\n        /* \"#utility.yul\":20845:20892   */\n      mstore\n        /* \"#utility.yul\":20909:21040   */\n      tag_394\n        /* \"#utility.yul\":21035:21039   */\n      dup2\n        /* \"#utility.yul\":20909:21040   */\n      tag_212\n      jump\t// in\n    tag_394:\n        /* \"#utility.yul\":20901:21040   */\n      swap1\n      pop\n        /* \"#utility.yul\":20628:21047   */\n      swap2\n      swap1\n      pop\n      jump\t// out\n        /* \"#utility.yul\":21053:21275   */\n    tag_213:\n        /* \"#utility.yul\":21193:21227   */\n      0x4c6f616e4d616e616765723a204c6f616e206e6f742064656661756c74656420\n        /* \"#utility.yul\":21189:21190   */\n      0x00\n        /* \"#utility.yul\":21181:21187   */\n      dup3\n        /* \"#utility.yul\":21177:21191   */\n      add\n        /* \"#utility.yul\":21170:21228   */\n      mstore\n        /* \"#utility.yul\":21262:21267   */\n      0x7965740000000000000000000000000000000000000000000000000000000000\n        /* \"#utility.yul\":21257:21259   */\n      0x20\n        /* \"#utility.yul\":21249:21255   */\n      dup3\n        /* \"#utility.yul\":21245:21260   */\n      add\n        /* \"#utility.yul\":21238:21268   */\n      mstore\n        /* \"#utility.yul\":21053:21275   */\n      pop\n      jump\t// out\n        /* \"#utility.yul\":21281:21647   */\n    tag_214:\n        /* \"#utility.yul\":21423:21426   */\n      0x00\n        /* \"#utility.yul\":21444:21511   */\n      tag_397\n        /* \"#utility.yul\":21508:21510   */\n      0x23\n        /* \"#utility.yul\":21503:21506   */\n      dup4\n        /* \"#utility.yul\":21444:21511   */\n      tag_182\n      jump\t// in\n    tag_397:\n        /* \"#utility.yul\":21437:21511   */\n      swap2\n      pop\n        /* \"#utility.yul\":21520:21613   */\n      tag_398\n        /* \"#utility.yul\":21609:21612   */\n      dup3\n        /* \"#utility.yul\":21520:21613   */\n      tag_213\n      jump\t// in\n    tag_398:\n        /* \"#utility.yul\":21638:21640   */\n      0x40\n        /* \"#utility.yul\":21633:21636   */\n      dup3\n        /* \"#utility.yul\":21629:21641   */\n      add\n        /* \"#utility.yul\":21622:21641   */\n      swap1\n      pop\n        /* \"#utility.yul\":21281:21647   */\n      swap2\n      swap1\n      pop\n      jump\t// out\n        /* \"#utility.yul\":21653:22072   */\n    tag_152:\n        /* \"#utility.yul\":21819:21823   */\n      0x00\n        /* \"#utility.yul\":21857:21859   */\n      0x20\n        /* \"#utility.yul\":21846:21855   */\n      dup3\n        /* \"#utility.yul\":21842:21860   */\n      add\n        /* \"#utility.yul\":21834:21860   */\n      swap1\n      pop\n        /* \"#utility.yul\":21906:21915   */\n      dup2\n        /* \"#utility.yul\":21900:21904   */\n      dup2\n        /* \"#utility.yul\":21896:21916   */\n      sub\n        /* \"#utility.yul\":21892:21893   */\n      0x00\n        /* \"#utility.yul\":21881:21890   */\n      dup4\n        /* \"#utility.yul\":21877:21894   */\n      add\n        /* \"#utility.yul\":21870:21917   */\n      mstore\n        /* \"#utility.yul\":21934:22065   */\n      tag_400\n        /* \"#utility.yul\":22060:22064   */\n      dup2\n        /* \"#utility.yul\":21934:22065   */\n      tag_214\n      jump\t// in\n    tag_400:\n        /* \"#utility.yul\":21926:22065   */\n      swap1\n      pop\n        /* \"#utility.yul\":21653:22072   */\n      swap2\n      swap1\n      pop\n      jump\t// out\n\n    auxdata: 0xa2646970667358221220bf3d2b72c45fd06f9664e1a3153f111477b6dd419fbe0259460e3d8fc4d047ea64736f6c634300081a0033\n}\n",
				"bytecode": {
					"linkReferences": {},
					"object": "6080604052609660035562278d00600455620d2f00600555348015610022575f80fd5b50604051611afc380380611afc8339818101604052810190610044919061016b565b60015f819055508160015f6101000a81548173ffffffffffffffffffffffffffffffffffffffff021916908373ffffffffffffffffffffffffffffffffffffffff1602179055508060025f6101000a81548173ffffffffffffffffffffffffffffffffffffffff021916908373ffffffffffffffffffffffffffffffffffffffff16021790555050506101a9565b5f80fd5b5f73ffffffffffffffffffffffffffffffffffffffff82169050919050565b5f6100ff826100d6565b9050919050565b5f610110826100f5565b9050919050565b61012081610106565b811461012a575f80fd5b50565b5f8151905061013b81610117565b92915050565b61014a816100f5565b8114610154575f80fd5b50565b5f8151905061016581610141565b92915050565b5f8060408385031215610181576101806100d2565b5b5f61018e8582860161012d565b925050602061019f85828601610157565b9150509250929050565b611946806101b65f395ff3fe608060405234801561000f575f80fd5b50600436106100b2575f3560e01c8063ab7b1c891161006f578063ab7b1c8914610166578063ba43a92214610182578063c000bc601461019e578063e9e190a3146101ba578063ebbb7de9146101ef578063f5521bf11461020b576100b2565b80630ea86ad8146100b657806323be345c146100d45780632af7e2ea146100f2578063650dfa1814610110578063688aef481461012c5780638d5d34291461014a575b5f80fd5b6100be610229565b6040516100cb9190610e31565b60405180910390f35b6100dc61024e565b6040516100e99190610e6a565b60405180910390f35b6100fa610273565b6040516101079190610e9b565b60405180910390f35b61012a60048036038101906101259190610ee2565b610279565b005b6101346102c7565b6040516101419190610e9b565b60405180910390f35b610164600480360381019061015f9190610ee2565b6102cd565b005b610180600480360381019061017b9190610ee2565b6106fd565b005b61019c60048036038101906101979190610ee2565b610a36565b005b6101b860048036038101906101b39190610ee2565b610a82565b005b6101d460048036038101906101cf9190610f48565b610ace565b6040516101e696959493929190610f8d565b60405180910390f35b61020960048036038101906102049190610f48565b610b1f565b005b610213610d64565b6040516102209190610e9b565b60405180910390f35b60015f9054906101000a900473ffffffffffffffffffffffffffffffffffffffff1681565b60025f9054906101000a900473ffffffffffffffffffffffffffffffffffffffff1681565b60055481565b60648110156102bd576040517f08c379a00000000000000000000000000000000000000000000000000000000081526004016102b490611046565b60405180910390fd5b8060038190555050565b60035481565b6102d5610d6a565b5f8111610317576040517f08c379a000000000000000000000000000000000000000000000000000000000815260040161030e906110d4565b60405180910390fd5b5f60065f3373ffffffffffffffffffffffffffffffffffffffff1673ffffffffffffffffffffffffffffffffffffffff1681526020019081526020015f205f015414610398576040517f08c379a000000000000000000000000000000000000000000000000000000000815260040161038f90611162565b60405180910390fd5b5f8060025f9054906101000a900473ffffffffffffffffffffffffffffffffffffffff1673ffffffffffffffffffffffffffffffffffffffff16632703ee85336040518263ffffffff1660e01b81526004016103f4919061118f565b6040805180830381865afa15801561040e573d5f803e3d5ffd5b505050506040513d601f19601f8201168201806040525081019061043291906111bc565b915091505f81836104439190611227565b90505f8111610487576040517f08c379a000000000000000000000000000000000000000000000000000000000815260040161047e906112ca565b60405180910390fd5b5f60035460648361049891906112e8565b6104a29190611356565b9050808511156104e7576040517f08c379a00000000000000000000000000000000000000000000000000000000081526004016104de906113f6565b60405180910390fd5b5f6040518060c00160405280878152602001600581526020014281526020018481526020015f151581526020015f151581525090508060065f3373ffffffffffffffffffffffffffffffffffffffff1673ffffffffffffffffffffffffffffffffffffffff1681526020019081526020015f205f820151815f01556020820151816001015560408201518160020155606082015181600301556080820151816004015f6101000a81548160ff02191690831515021790555060a08201518160040160016101000a81548160ff02191690831515021790555090505060015f9054906101000a900473ffffffffffffffffffffffffffffffffffffffff1673ffffffffffffffffffffffffffffffffffffffff1663a9059cbb33886040518363ffffffff1660e01b815260040161061e929190611414565b6020604051808303815f875af115801561063a573d5f803e3d5ffd5b505050506040513d601f19601f8201168201806040525081019061065e9190611465565b61069d576040517f08c379a000000000000000000000000000000000000000000000000000000000815260040161069490611500565b60405180910390fd5b3373ffffffffffffffffffffffffffffffffffffffff167f1c793c0fda4a6b2b79dd68d91d9f7fde8f7aa0878615c36a4624e6ccdbb1ead187856040516106e592919061151e565b60405180910390a250505050506106fa610dae565b50565b610705610d6a565b5f60065f3373ffffffffffffffffffffffffffffffffffffffff1673ffffffffffffffffffffffffffffffffffffffff1681526020019081526020015f2090505f815f01541161078a576040517f08c379a00000000000000000000000000000000000000000000000000000000081526004016107819061158f565b60405180910390fd5b806004015f9054906101000a900460ff16156107db576040517f08c379a00000000000000000000000000000000000000000000000000000000081526004016107d29061161d565b60405180910390fd5b5f60648260010154835f01546107f191906112e8565b6107fb9190611356565b825f01546108099190611227565b90508083101561084e576040517f08c379a0000000000000000000000000000000000000000000000000000000008152600401610845906116ab565b60405180910390fd5b60015f9054906101000a900473ffffffffffffffffffffffffffffffffffffffff1673ffffffffffffffffffffffffffffffffffffffff166323b872dd3330866040518463ffffffff1660e01b81526004016108ac939291906116c9565b6020604051808303815f875af11580156108c8573d5f803e3d5ffd5b505050506040513d601f19601f820116820180604052508101906108ec9190611465565b61092b576040517f08c379a00000000000000000000000000000000000000000000000000000000081526004016109229061176e565b60405180910390fd5b6001826004015f6101000a81548160ff02191690831515021790555060025f9054906101000a900473ffffffffffffffffffffffffffffffffffffffff1673ffffffffffffffffffffffffffffffffffffffff16638e817efe83600301546040518263ffffffff1660e01b81526004016109a59190610e9b565b5f604051808303815f87803b1580156109bc575f80fd5b505af11580156109ce573d5f803e3d5ffd5b505050503373ffffffffffffffffffffffffffffffffffffffff167fc7ce0a35f17b490de2a317e7fecb2cae86b1abffb03800b2f492823521382698835f01548460030154604051610a2192919061151e565b60405180910390a25050610a33610dae565b50565b5f8111610a78576040517f08c379a0000000000000000000000000000000000000000000000000000000008152600401610a6f906117d6565b60405180910390fd5b8060048190555050565b5f8111610ac4576040517f08c379a0000000000000000000000000000000000000000000000000000000008152600401610abb906117d6565b60405180910390fd5b8060058190555050565b6006602052805f5260405f205f91509050805f015490806001015490806002015490806003015490806004015f9054906101000a900460ff16908060040160019054906101000a900460ff16905086565b610b27610d6a565b5f60065f8373ffffffffffffffffffffffffffffffffffffffff1673ffffffffffffffffffffffffffffffffffffffff1681526020019081526020015f2090505f815f015411610bac576040517f08c379a0000000000000000000000000000000000000000000000000000000008152600401610ba39061158f565b60405180910390fd5b8060040160019054906101000a900460ff1615610bfe576040517f08c379a0000000000000000000000000000000000000000000000000000000008152600401610bf590611864565b60405180910390fd5b6005546004548260020154610c139190611227565b610c1d9190611227565b4211610c5e576040517f08c379a0000000000000000000000000000000000000000000000000000000008152600401610c55906118f2565b60405180910390fd5b60018160040160016101000a81548160ff02191690831515021790555060025f9054906101000a900473ffffffffffffffffffffffffffffffffffffffff1673ffffffffffffffffffffffffffffffffffffffff16638e817efe82600301546040518263ffffffff1660e01b8152600401610cd99190610e9b565b5f604051808303815f87803b158015610cf0575f80fd5b505af1158015610d02573d5f803e3d5ffd5b505050508173ffffffffffffffffffffffffffffffffffffffff167f0be253503c49f8fb02046da3ef57bc2f5f881eb14ba5c2c26b54bf2fb4e7db078260030154604051610d509190610e9b565b60405180910390a250610d61610dae565b50565b60045481565b60025f5403610da5576040517f3ee5aeb500000000000000000000000000000000000000000000000000000000815260040160405180910390fd5b60025f81905550565b60015f81905550565b5f73ffffffffffffffffffffffffffffffffffffffff82169050919050565b5f819050919050565b5f610df9610df4610def84610db7565b610dd6565b610db7565b9050919050565b5f610e0a82610ddf565b9050919050565b5f610e1b82610e00565b9050919050565b610e2b81610e11565b82525050565b5f602082019050610e445f830184610e22565b92915050565b5f610e5482610e00565b9050919050565b610e6481610e4a565b82525050565b5f602082019050610e7d5f830184610e5b565b92915050565b5f819050919050565b610e9581610e83565b82525050565b5f602082019050610eae5f830184610e8c565b92915050565b5f80fd5b610ec181610e83565b8114610ecb575f80fd5b50565b5f81359050610edc81610eb8565b92915050565b5f60208284031215610ef757610ef6610eb4565b5b5f610f0484828501610ece565b91505092915050565b5f610f1782610db7565b9050919050565b610f2781610f0d565b8114610f31575f80fd5b50565b5f81359050610f4281610f1e565b92915050565b5f60208284031215610f5d57610f5c610eb4565b5b5f610f6a84828501610f34565b91505092915050565b5f8115159050919050565b610f8781610f73565b82525050565b5f60c082019050610fa05f830189610e8c565b610fad6020830188610e8c565b610fba6040830187610e8c565b610fc76060830186610e8c565b610fd46080830185610f7e565b610fe160a0830184610f7e565b979650505050505050565b5f82825260208201905092915050565b7f4c6f616e4d616e616765723a20496e76616c696420726174696f0000000000005f82015250565b5f611030601a83610fec565b915061103b82610ffc565b602082019050919050565b5f6020820190508181035f83015261105d81611024565b9050919050565b7f4c6f616e4d616e616765723a204c6f616e20616d6f756e74206d7573742062655f8201527f2067726561746572207468616e20300000000000000000000000000000000000602082015250565b5f6110be602f83610fec565b91506110c982611064565b604082019050919050565b5f6020820190508181035f8301526110eb816110b2565b9050919050565b7f4c6f616e4d616e616765723a204578697374696e67206c6f616e206d757374205f8201527f6265207265706169642066697273740000000000000000000000000000000000602082015250565b5f61114c602f83610fec565b9150611157826110f2565b604082019050919050565b5f6020820190508181035f83015261117981611140565b9050919050565b61118981610f0d565b82525050565b5f6020820190506111a25f830184611180565b92915050565b5f815190506111b681610eb8565b92915050565b5f80604083850312156111d2576111d1610eb4565b5b5f6111df858286016111a8565b92505060206111f0858286016111a8565b9150509250929050565b7f4e487b71000000000000000000000000000000000000000000000000000000005f52601160045260245ffd5b5f61123182610e83565b915061123c83610e83565b9250828201905080821115611254576112536111fa565b5b92915050565b7f4c6f616e4d616e616765723a204e6f20636f6c6c61746572616c20617661696c5f8201527f61626c6500000000000000000000000000000000000000000000000000000000602082015250565b5f6112b4602483610fec565b91506112bf8261125a565b604082019050919050565b5f6020820190508181035f8301526112e1816112a8565b9050919050565b5f6112f282610e83565b91506112fd83610e83565b925082820261130b81610e83565b91508282048414831517611322576113216111fa565b5b5092915050565b7f4e487b71000000000000000000000000000000000000000000000000000000005f52601260045260245ffd5b5f61136082610e83565b915061136b83610e83565b92508261137b5761137a611329565b5b828204905092915050565b7f4c6f616e4d616e616765723a20496e73756666696369656e7420636f6c6c61745f8201527f6572616c20666f7220726571756573746564206c6f616e20616d6f756e740000602082015250565b5f6113e0603e83610fec565b91506113eb82611386565b604082019050919050565b5f6020820190508181035f83015261140d816113d4565b9050919050565b5f6040820190506114275f830185611180565b6114346020830184610e8c565b9392505050565b61144481610f73565b811461144e575f80fd5b50565b5f8151905061145f8161143b565b92915050565b5f6020828403121561147a57611479610eb4565b5b5f61148784828501611451565b91505092915050565b7f4c6f616e4d616e616765723a204c6f616e207472616e73666572206661696c655f8201527f6400000000000000000000000000000000000000000000000000000000000000602082015250565b5f6114ea602183610fec565b91506114f582611490565b604082019050919050565b5f6020820190508181035f830152611517816114de565b9050919050565b5f6040820190506115315f830185610e8c565b61153e6020830184610e8c565b9392505050565b7f4c6f616e4d616e616765723a204e6f20616374697665206c6f616e00000000005f82015250565b5f611579601b83610fec565b915061158482611545565b602082019050919050565b5f6020820190508181035f8301526115a68161156d565b9050919050565b7f4c6f616e4d616e616765723a204c6f616e20697320616c7265616479207265705f8201527f6169640000000000000000000000000000000000000000000000000000000000602082015250565b5f611607602383610fec565b9150611612826115ad565b604082019050919050565b5f6020820190508181035f830152611634816115fb565b9050919050565b7f4c6f616e4d616e616765723a20496e73756666696369656e742072657061796d5f8201527f656e7420616d6f756e7400000000000000000000000000000000000000000000602082015250565b5f611695602a83610fec565b91506116a08261163b565b604082019050919050565b5f6020820190508181035f8301526116c281611689565b9050919050565b5f6060820190506116dc5f830186611180565b6116e96020830185611180565b6116f66040830184610e8c565b949350505050565b7f4c6f616e4d616e616765723a2052657061796d656e74207472616e73666572205f8201527f6661696c65640000000000000000000000000000000000000000000000000000602082015250565b5f611758602683610fec565b9150611763826116fe565b604082019050919050565b5f6020820190508181035f8301526117858161174c565b9050919050565b7f4c6f616e4d616e616765723a20496e76616c6964206475726174696f6e0000005f82015250565b5f6117c0601d83610fec565b91506117cb8261178c565b602082019050919050565b5f6020820190508181035f8301526117ed816117b4565b9050919050565b7f4c6f616e4d616e616765723a204c6f616e20616c72656164792064656661756c5f8201527f7465640000000000000000000000000000000000000000000000000000000000602082015250565b5f61184e602383610fec565b9150611859826117f4565b604082019050919050565b5f6020820190508181035f83015261187b81611842565b9050919050565b7f4c6f616e4d616e616765723a204c6f616e206e6f742064656661756c746564205f8201527f7965740000000000000000000000000000000000000000000000000000000000602082015250565b5f6118dc602383610fec565b91506118e782611882565b604082019050919050565b5f6020820190508181035f830152611909816118d0565b905091905056fea2646970667358221220bf3d2b72c45fd06f9664e1a3153f111477b6dd419fbe0259460e3d8fc4d047ea64736f6c634300081a0033",
					"opcodes": "PUSH1 0x80 PUSH1 0x40 MSTORE PUSH1 0x96 PUSH1 0x3 SSTORE PUSH3 0x278D00 PUSH1 0x4 SSTORE PUSH3 0xD2F00 PUSH1 0x5 SSTORE CALLVALUE DUP1 ISZERO PUSH2 0x22 JUMPI PUSH0 DUP1 REVERT JUMPDEST POP PUSH1 0x40 MLOAD PUSH2 0x1AFC CODESIZE SUB DUP1 PUSH2 0x1AFC DUP4 CODECOPY DUP2 DUP2 ADD PUSH1 0x40 MSTORE DUP2 ADD SWAP1 PUSH2 0x44 SWAP2 SWAP1 PUSH2 0x16B JUMP JUMPDEST PUSH1 0x1 PUSH0 DUP2 SWAP1 SSTORE POP DUP2 PUSH1 0x1 PUSH0 PUSH2 0x100 EXP DUP2 SLOAD DUP2 PUSH20 0xFFFFFFFFFFFFFFFFFFFFFFFFFFFFFFFFFFFFFFFF MUL NOT AND SWAP1 DUP4 PUSH20 0xFFFFFFFFFFFFFFFFFFFFFFFFFFFFFFFFFFFFFFFF AND MUL OR SWAP1 SSTORE POP DUP1 PUSH1 0x2 PUSH0 PUSH2 0x100 EXP DUP2 SLOAD DUP2 PUSH20 0xFFFFFFFFFFFFFFFFFFFFFFFFFFFFFFFFFFFFFFFF MUL NOT AND SWAP1 DUP4 PUSH20 0xFFFFFFFFFFFFFFFFFFFFFFFFFFFFFFFFFFFFFFFF AND MUL OR SWAP1 SSTORE POP POP POP PUSH2 0x1A9 JUMP JUMPDEST PUSH0 DUP1 REVERT JUMPDEST PUSH0 PUSH20 0xFFFFFFFFFFFFFFFFFFFFFFFFFFFFFFFFFFFFFFFF DUP3 AND SWAP1 POP SWAP2 SWAP1 POP JUMP JUMPDEST PUSH0 PUSH2 0xFF DUP3 PUSH2 0xD6 JUMP JUMPDEST SWAP1 POP SWAP2 SWAP1 POP JUMP JUMPDEST PUSH0 PUSH2 0x110 DUP3 PUSH2 0xF5 JUMP JUMPDEST SWAP1 POP SWAP2 SWAP1 POP JUMP JUMPDEST PUSH2 0x120 DUP2 PUSH2 0x106 JUMP JUMPDEST DUP2 EQ PUSH2 0x12A JUMPI PUSH0 DUP1 REVERT JUMPDEST POP JUMP JUMPDEST PUSH0 DUP2 MLOAD SWAP1 POP PUSH2 0x13B DUP2 PUSH2 0x117 JUMP JUMPDEST SWAP3 SWAP2 POP POP JUMP JUMPDEST PUSH2 0x14A DUP2 PUSH2 0xF5 JUMP JUMPDEST DUP2 EQ PUSH2 0x154 JUMPI PUSH0 DUP1 REVERT JUMPDEST POP JUMP JUMPDEST PUSH0 DUP2 MLOAD SWAP1 POP PUSH2 0x165 DUP2 PUSH2 0x141 JUMP JUMPDEST SWAP3 SWAP2 POP POP JUMP JUMPDEST PUSH0 DUP1 PUSH1 0x40 DUP4 DUP6 SUB SLT ISZERO PUSH2 0x181 JUMPI PUSH2 0x180 PUSH2 0xD2 JUMP JUMPDEST JUMPDEST PUSH0 PUSH2 0x18E DUP6 DUP3 DUP7 ADD PUSH2 0x12D JUMP JUMPDEST SWAP3 POP POP PUSH1 0x20 PUSH2 0x19F DUP6 DUP3 DUP7 ADD PUSH2 0x157 JUMP JUMPDEST SWAP2 POP POP SWAP3 POP SWAP3 SWAP1 POP JUMP JUMPDEST PUSH2 0x1946 DUP1 PUSH2 0x1B6 PUSH0 CODECOPY PUSH0 RETURN INVALID PUSH1 0x80 PUSH1 0x40 MSTORE CALLVALUE DUP1 ISZERO PUSH2 0xF JUMPI PUSH0 DUP1 REVERT JUMPDEST POP PUSH1 0x4 CALLDATASIZE LT PUSH2 0xB2 JUMPI PUSH0 CALLDATALOAD PUSH1 0xE0 SHR DUP1 PUSH4 0xAB7B1C89 GT PUSH2 0x6F JUMPI DUP1 PUSH4 0xAB7B1C89 EQ PUSH2 0x166 JUMPI DUP1 PUSH4 0xBA43A922 EQ PUSH2 0x182 JUMPI DUP1 PUSH4 0xC000BC60 EQ PUSH2 0x19E JUMPI DUP1 PUSH4 0xE9E190A3 EQ PUSH2 0x1BA JUMPI DUP1 PUSH4 0xEBBB7DE9 EQ PUSH2 0x1EF JUMPI DUP1 PUSH4 0xF5521BF1 EQ PUSH2 0x20B JUMPI PUSH2 0xB2 JUMP JUMPDEST DUP1 PUSH4 0xEA86AD8 EQ PUSH2 0xB6 JUMPI DUP1 PUSH4 0x23BE345C EQ PUSH2 0xD4 JUMPI DUP1 PUSH4 0x2AF7E2EA EQ PUSH2 0xF2 JUMPI DUP1 PUSH4 0x650DFA18 EQ PUSH2 0x110 JUMPI DUP1 PUSH4 0x688AEF48 EQ PUSH2 0x12C JUMPI DUP1 PUSH4 0x8D5D3429 EQ PUSH2 0x14A JUMPI JUMPDEST PUSH0 DUP1 REVERT JUMPDEST PUSH2 0xBE PUSH2 0x229 JUMP JUMPDEST PUSH1 0x40 MLOAD PUSH2 0xCB SWAP2 SWAP1 PUSH2 0xE31 JUMP JUMPDEST PUSH1 0x40 MLOAD DUP1 SWAP2 SUB SWAP1 RETURN JUMPDEST PUSH2 0xDC PUSH2 0x24E JUMP JUMPDEST PUSH1 0x40 MLOAD PUSH2 0xE9 SWAP2 SWAP1 PUSH2 0xE6A JUMP JUMPDEST PUSH1 0x40 MLOAD DUP1 SWAP2 SUB SWAP1 RETURN JUMPDEST PUSH2 0xFA PUSH2 0x273 JUMP JUMPDEST PUSH1 0x40 MLOAD PUSH2 0x107 SWAP2 SWAP1 PUSH2 0xE9B JUMP JUMPDEST PUSH1 0x40 MLOAD DUP1 SWAP2 SUB SWAP1 RETURN JUMPDEST PUSH2 0x12A PUSH1 0x4 DUP1 CALLDATASIZE SUB DUP2 ADD SWAP1 PUSH2 0x125 SWAP2 SWAP1 PUSH2 0xEE2 JUMP JUMPDEST PUSH2 0x279 JUMP JUMPDEST STOP JUMPDEST PUSH2 0x134 PUSH2 0x2C7 JUMP JUMPDEST PUSH1 0x40 MLOAD PUSH2 0x141 SWAP2 SWAP1 PUSH2 0xE9B JUMP JUMPDEST PUSH1 0x40 MLOAD DUP1 SWAP2 SUB SWAP1 RETURN JUMPDEST PUSH2 0x164 PUSH1 0x4 DUP1 CALLDATASIZE SUB DUP2 ADD SWAP1 PUSH2 0x15F SWAP2 SWAP1 PUSH2 0xEE2 JUMP JUMPDEST PUSH2 0x2CD JUMP JUMPDEST STOP JUMPDEST PUSH2 0x180 PUSH1 0x4 DUP1 CALLDATASIZE SUB DUP2 ADD SWAP1 PUSH2 0x17B SWAP2 SWAP1 PUSH2 0xEE2 JUMP JUMPDEST PUSH2 0x6FD JUMP JUMPDEST STOP JUMPDEST PUSH2 0x19C PUSH1 0x4 DUP1 CALLDATASIZE SUB DUP2 ADD SWAP1 PUSH2 0x197 SWAP2 SWAP1 PUSH2 0xEE2 JUMP JUMPDEST PUSH2 0xA36 JUMP JUMPDEST STOP JUMPDEST PUSH2 0x1B8 PUSH1 0x4 DUP1 CALLDATASIZE SUB DUP2 ADD SWAP1 PUSH2 0x1B3 SWAP2 SWAP1 PUSH2 0xEE2 JUMP JUMPDEST PUSH2 0xA82 JUMP JUMPDEST STOP JUMPDEST PUSH2 0x1D4 PUSH1 0x4 DUP1 CALLDATASIZE SUB DUP2 ADD SWAP1 PUSH2 0x1CF SWAP2 SWAP1 PUSH2 0xF48 JUMP JUMPDEST PUSH2 0xACE JUMP JUMPDEST PUSH1 0x40 MLOAD PUSH2 0x1E6 SWAP7 SWAP6 SWAP5 SWAP4 SWAP3 SWAP2 SWAP1 PUSH2 0xF8D JUMP JUMPDEST PUSH1 0x40 MLOAD DUP1 SWAP2 SUB SWAP1 RETURN JUMPDEST PUSH2 0x209 PUSH1 0x4 DUP1 CALLDATASIZE SUB DUP2 ADD SWAP1 PUSH2 0x204 SWAP2 SWAP1 PUSH2 0xF48 JUMP JUMPDEST PUSH2 0xB1F JUMP JUMPDEST STOP JUMPDEST PUSH2 0x213 PUSH2 0xD64 JUMP JUMPDEST PUSH1 0x40 MLOAD PUSH2 0x220 SWAP2 SWAP1 PUSH2 0xE9B JUMP JUMPDEST PUSH1 0x40 MLOAD DUP1 SWAP2 SUB SWAP1 RETURN JUMPDEST PUSH1 0x1 PUSH0 SWAP1 SLOAD SWAP1 PUSH2 0x100 EXP SWAP1 DIV PUSH20 0xFFFFFFFFFFFFFFFFFFFFFFFFFFFFFFFFFFFFFFFF AND DUP2 JUMP JUMPDEST PUSH1 0x2 PUSH0 SWAP1 SLOAD SWAP1 PUSH2 0x100 EXP SWAP1 DIV PUSH20 0xFFFFFFFFFFFFFFFFFFFFFFFFFFFFFFFFFFFFFFFF AND DUP2 JUMP JUMPDEST PUSH1 0x5 SLOAD DUP2 JUMP JUMPDEST PUSH1 0x64 DUP2 LT ISZERO PUSH2 0x2BD JUMPI PUSH1 0x40 MLOAD PUSH32 0x8C379A000000000000000000000000000000000000000000000000000000000 DUP2 MSTORE PUSH1 0x4 ADD PUSH2 0x2B4 SWAP1 PUSH2 0x1046 JUMP JUMPDEST PUSH1 0x40 MLOAD DUP1 SWAP2 SUB SWAP1 REVERT JUMPDEST DUP1 PUSH1 0x3 DUP2 SWAP1 SSTORE POP POP JUMP JUMPDEST PUSH1 0x3 SLOAD DUP2 JUMP JUMPDEST PUSH2 0x2D5 PUSH2 0xD6A JUMP JUMPDEST PUSH0 DUP2 GT PUSH2 0x317 JUMPI PUSH1 0x40 MLOAD PUSH32 0x8C379A000000000000000000000000000000000000000000000000000000000 DUP2 MSTORE PUSH1 0x4 ADD PUSH2 0x30E SWAP1 PUSH2 0x10D4 JUMP JUMPDEST PUSH1 0x40 MLOAD DUP1 SWAP2 SUB SWAP1 REVERT JUMPDEST PUSH0 PUSH1 0x6 PUSH0 CALLER PUSH20 0xFFFFFFFFFFFFFFFFFFFFFFFFFFFFFFFFFFFFFFFF AND PUSH20 0xFFFFFFFFFFFFFFFFFFFFFFFFFFFFFFFFFFFFFFFF AND DUP2 MSTORE PUSH1 0x20 ADD SWAP1 DUP2 MSTORE PUSH1 0x20 ADD PUSH0 KECCAK256 PUSH0 ADD SLOAD EQ PUSH2 0x398 JUMPI PUSH1 0x40 MLOAD PUSH32 0x8C379A000000000000000000000000000000000000000000000000000000000 DUP2 MSTORE PUSH1 0x4 ADD PUSH2 0x38F SWAP1 PUSH2 0x1162 JUMP JUMPDEST PUSH1 0x40 MLOAD DUP1 SWAP2 SUB SWAP1 REVERT JUMPDEST PUSH0 DUP1 PUSH1 0x2 PUSH0 SWAP1 SLOAD SWAP1 PUSH2 0x100 EXP SWAP1 DIV PUSH20 0xFFFFFFFFFFFFFFFFFFFFFFFFFFFFFFFFFFFFFFFF AND PUSH20 0xFFFFFFFFFFFFFFFFFFFFFFFFFFFFFFFFFFFFFFFF AND PUSH4 0x2703EE85 CALLER PUSH1 0x40 MLOAD DUP3 PUSH4 0xFFFFFFFF AND PUSH1 0xE0 SHL DUP2 MSTORE PUSH1 0x4 ADD PUSH2 0x3F4 SWAP2 SWAP1 PUSH2 0x118F JUMP JUMPDEST PUSH1 0x40 DUP1 MLOAD DUP1 DUP4 SUB DUP2 DUP7 GAS STATICCALL ISZERO DUP1 ISZERO PUSH2 0x40E JUMPI RETURNDATASIZE PUSH0 DUP1 RETURNDATACOPY RETURNDATASIZE PUSH0 REVERT JUMPDEST POP POP POP POP PUSH1 0x40 MLOAD RETURNDATASIZE PUSH1 0x1F NOT PUSH1 0x1F DUP3 ADD AND DUP3 ADD DUP1 PUSH1 0x40 MSTORE POP DUP2 ADD SWAP1 PUSH2 0x432 SWAP2 SWAP1 PUSH2 0x11BC JUMP JUMPDEST SWAP2 POP SWAP2 POP PUSH0 DUP2 DUP4 PUSH2 0x443 SWAP2 SWAP1 PUSH2 0x1227 JUMP JUMPDEST SWAP1 POP PUSH0 DUP2 GT PUSH2 0x487 JUMPI PUSH1 0x40 MLOAD PUSH32 0x8C379A000000000000000000000000000000000000000000000000000000000 DUP2 MSTORE PUSH1 0x4 ADD PUSH2 0x47E SWAP1 PUSH2 0x12CA JUMP JUMPDEST PUSH1 0x40 MLOAD DUP1 SWAP2 SUB SWAP1 REVERT JUMPDEST PUSH0 PUSH1 0x3 SLOAD PUSH1 0x64 DUP4 PUSH2 0x498 SWAP2 SWAP1 PUSH2 0x12E8 JUMP JUMPDEST PUSH2 0x4A2 SWAP2 SWAP1 PUSH2 0x1356 JUMP JUMPDEST SWAP1 POP DUP1 DUP6 GT ISZERO PUSH2 0x4E7 JUMPI PUSH1 0x40 MLOAD PUSH32 0x8C379A000000000000000000000000000000000000000000000000000000000 DUP2 MSTORE PUSH1 0x4 ADD PUSH2 0x4DE SWAP1 PUSH2 0x13F6 JUMP JUMPDEST PUSH1 0x40 MLOAD DUP1 SWAP2 SUB SWAP1 REVERT JUMPDEST PUSH0 PUSH1 0x40 MLOAD DUP1 PUSH1 0xC0 ADD PUSH1 0x40 MSTORE DUP1 DUP8 DUP2 MSTORE PUSH1 0x20 ADD PUSH1 0x5 DUP2 MSTORE PUSH1 0x20 ADD TIMESTAMP DUP2 MSTORE PUSH1 0x20 ADD DUP5 DUP2 MSTORE PUSH1 0x20 ADD PUSH0 ISZERO ISZERO DUP2 MSTORE PUSH1 0x20 ADD PUSH0 ISZERO ISZERO DUP2 MSTORE POP SWAP1 POP DUP1 PUSH1 0x6 PUSH0 CALLER PUSH20 0xFFFFFFFFFFFFFFFFFFFFFFFFFFFFFFFFFFFFFFFF AND PUSH20 0xFFFFFFFFFFFFFFFFFFFFFFFFFFFFFFFFFFFFFFFF AND DUP2 MSTORE PUSH1 0x20 ADD SWAP1 DUP2 MSTORE PUSH1 0x20 ADD PUSH0 KECCAK256 PUSH0 DUP3 ADD MLOAD DUP2 PUSH0 ADD SSTORE PUSH1 0x20 DUP3 ADD MLOAD DUP2 PUSH1 0x1 ADD SSTORE PUSH1 0x40 DUP3 ADD MLOAD DUP2 PUSH1 0x2 ADD SSTORE PUSH1 0x60 DUP3 ADD MLOAD DUP2 PUSH1 0x3 ADD SSTORE PUSH1 0x80 DUP3 ADD MLOAD DUP2 PUSH1 0x4 ADD PUSH0 PUSH2 0x100 EXP DUP2 SLOAD DUP2 PUSH1 0xFF MUL NOT AND SWAP1 DUP4 ISZERO ISZERO MUL OR SWAP1 SSTORE POP PUSH1 0xA0 DUP3 ADD MLOAD DUP2 PUSH1 0x4 ADD PUSH1 0x1 PUSH2 0x100 EXP DUP2 SLOAD DUP2 PUSH1 0xFF MUL NOT AND SWAP1 DUP4 ISZERO ISZERO MUL OR SWAP1 SSTORE POP SWAP1 POP POP PUSH1 0x1 PUSH0 SWAP1 SLOAD SWAP1 PUSH2 0x100 EXP SWAP1 DIV PUSH20 0xFFFFFFFFFFFFFFFFFFFFFFFFFFFFFFFFFFFFFFFF AND PUSH20 0xFFFFFFFFFFFFFFFFFFFFFFFFFFFFFFFFFFFFFFFF AND PUSH4 0xA9059CBB CALLER DUP9 PUSH1 0x40 MLOAD DUP4 PUSH4 0xFFFFFFFF AND PUSH1 0xE0 SHL DUP2 MSTORE PUSH1 0x4 ADD PUSH2 0x61E SWAP3 SWAP2 SWAP1 PUSH2 0x1414 JUMP JUMPDEST PUSH1 0x20 PUSH1 0x40 MLOAD DUP1 DUP4 SUB DUP2 PUSH0 DUP8 GAS CALL ISZERO DUP1 ISZERO PUSH2 0x63A JUMPI RETURNDATASIZE PUSH0 DUP1 RETURNDATACOPY RETURNDATASIZE PUSH0 REVERT JUMPDEST POP POP POP POP PUSH1 0x40 MLOAD RETURNDATASIZE PUSH1 0x1F NOT PUSH1 0x1F DUP3 ADD AND DUP3 ADD DUP1 PUSH1 0x40 MSTORE POP DUP2 ADD SWAP1 PUSH2 0x65E SWAP2 SWAP1 PUSH2 0x1465 JUMP JUMPDEST PUSH2 0x69D JUMPI PUSH1 0x40 MLOAD PUSH32 0x8C379A000000000000000000000000000000000000000000000000000000000 DUP2 MSTORE PUSH1 0x4 ADD PUSH2 0x694 SWAP1 PUSH2 0x1500 JUMP JUMPDEST PUSH1 0x40 MLOAD DUP1 SWAP2 SUB SWAP1 REVERT JUMPDEST CALLER PUSH20 0xFFFFFFFFFFFFFFFFFFFFFFFFFFFFFFFFFFFFFFFF AND PUSH32 0x1C793C0FDA4A6B2B79DD68D91D9F7FDE8F7AA0878615C36A4624E6CCDBB1EAD1 DUP8 DUP6 PUSH1 0x40 MLOAD PUSH2 0x6E5 SWAP3 SWAP2 SWAP1 PUSH2 0x151E JUMP JUMPDEST PUSH1 0x40 MLOAD DUP1 SWAP2 SUB SWAP1 LOG2 POP POP POP POP POP PUSH2 0x6FA PUSH2 0xDAE JUMP JUMPDEST POP JUMP JUMPDEST PUSH2 0x705 PUSH2 0xD6A JUMP JUMPDEST PUSH0 PUSH1 0x6 PUSH0 CALLER PUSH20 0xFFFFFFFFFFFFFFFFFFFFFFFFFFFFFFFFFFFFFFFF AND PUSH20 0xFFFFFFFFFFFFFFFFFFFFFFFFFFFFFFFFFFFFFFFF AND DUP2 MSTORE PUSH1 0x20 ADD SWAP1 DUP2 MSTORE PUSH1 0x20 ADD PUSH0 KECCAK256 SWAP1 POP PUSH0 DUP2 PUSH0 ADD SLOAD GT PUSH2 0x78A JUMPI PUSH1 0x40 MLOAD PUSH32 0x8C379A000000000000000000000000000000000000000000000000000000000 DUP2 MSTORE PUSH1 0x4 ADD PUSH2 0x781 SWAP1 PUSH2 0x158F JUMP JUMPDEST PUSH1 0x40 MLOAD DUP1 SWAP2 SUB SWAP1 REVERT JUMPDEST DUP1 PUSH1 0x4 ADD PUSH0 SWAP1 SLOAD SWAP1 PUSH2 0x100 EXP SWAP1 DIV PUSH1 0xFF AND ISZERO PUSH2 0x7DB JUMPI PUSH1 0x40 MLOAD PUSH32 0x8C379A000000000000000000000000000000000000000000000000000000000 DUP2 MSTORE PUSH1 0x4 ADD PUSH2 0x7D2 SWAP1 PUSH2 0x161D JUMP JUMPDEST PUSH1 0x40 MLOAD DUP1 SWAP2 SUB SWAP1 REVERT JUMPDEST PUSH0 PUSH1 0x64 DUP3 PUSH1 0x1 ADD SLOAD DUP4 PUSH0 ADD SLOAD PUSH2 0x7F1 SWAP2 SWAP1 PUSH2 0x12E8 JUMP JUMPDEST PUSH2 0x7FB SWAP2 SWAP1 PUSH2 0x1356 JUMP JUMPDEST DUP3 PUSH0 ADD SLOAD PUSH2 0x809 SWAP2 SWAP1 PUSH2 0x1227 JUMP JUMPDEST SWAP1 POP DUP1 DUP4 LT ISZERO PUSH2 0x84E JUMPI PUSH1 0x40 MLOAD PUSH32 0x8C379A000000000000000000000000000000000000000000000000000000000 DUP2 MSTORE PUSH1 0x4 ADD PUSH2 0x845 SWAP1 PUSH2 0x16AB JUMP JUMPDEST PUSH1 0x40 MLOAD DUP1 SWAP2 SUB SWAP1 REVERT JUMPDEST PUSH1 0x1 PUSH0 SWAP1 SLOAD SWAP1 PUSH2 0x100 EXP SWAP1 DIV PUSH20 0xFFFFFFFFFFFFFFFFFFFFFFFFFFFFFFFFFFFFFFFF AND PUSH20 0xFFFFFFFFFFFFFFFFFFFFFFFFFFFFFFFFFFFFFFFF AND PUSH4 0x23B872DD CALLER ADDRESS DUP7 PUSH1 0x40 MLOAD DUP5 PUSH4 0xFFFFFFFF AND PUSH1 0xE0 SHL DUP2 MSTORE PUSH1 0x4 ADD PUSH2 0x8AC SWAP4 SWAP3 SWAP2 SWAP1 PUSH2 0x16C9 JUMP JUMPDEST PUSH1 0x20 PUSH1 0x40 MLOAD DUP1 DUP4 SUB DUP2 PUSH0 DUP8 GAS CALL ISZERO DUP1 ISZERO PUSH2 0x8C8 JUMPI RETURNDATASIZE PUSH0 DUP1 RETURNDATACOPY RETURNDATASIZE PUSH0 REVERT JUMPDEST POP POP POP POP PUSH1 0x40 MLOAD RETURNDATASIZE PUSH1 0x1F NOT PUSH1 0x1F DUP3 ADD AND DUP3 ADD DUP1 PUSH1 0x40 MSTORE POP DUP2 ADD SWAP1 PUSH2 0x8EC SWAP2 SWAP1 PUSH2 0x1465 JUMP JUMPDEST PUSH2 0x92B JUMPI PUSH1 0x40 MLOAD PUSH32 0x8C379A000000000000000000000000000000000000000000000000000000000 DUP2 MSTORE PUSH1 0x4 ADD PUSH2 0x922 SWAP1 PUSH2 0x176E JUMP JUMPDEST PUSH1 0x40 MLOAD DUP1 SWAP2 SUB SWAP1 REVERT JUMPDEST PUSH1 0x1 DUP3 PUSH1 0x4 ADD PUSH0 PUSH2 0x100 EXP DUP2 SLOAD DUP2 PUSH1 0xFF MUL NOT AND SWAP1 DUP4 ISZERO ISZERO MUL OR SWAP1 SSTORE POP PUSH1 0x2 PUSH0 SWAP1 SLOAD SWAP1 PUSH2 0x100 EXP SWAP1 DIV PUSH20 0xFFFFFFFFFFFFFFFFFFFFFFFFFFFFFFFFFFFFFFFF AND PUSH20 0xFFFFFFFFFFFFFFFFFFFFFFFFFFFFFFFFFFFFFFFF AND PUSH4 0x8E817EFE DUP4 PUSH1 0x3 ADD SLOAD PUSH1 0x40 MLOAD DUP3 PUSH4 0xFFFFFFFF AND PUSH1 0xE0 SHL DUP2 MSTORE PUSH1 0x4 ADD PUSH2 0x9A5 SWAP2 SWAP1 PUSH2 0xE9B JUMP JUMPDEST PUSH0 PUSH1 0x40 MLOAD DUP1 DUP4 SUB DUP2 PUSH0 DUP8 DUP1 EXTCODESIZE ISZERO DUP1 ISZERO PUSH2 0x9BC JUMPI PUSH0 DUP1 REVERT JUMPDEST POP GAS CALL ISZERO DUP1 ISZERO PUSH2 0x9CE JUMPI RETURNDATASIZE PUSH0 DUP1 RETURNDATACOPY RETURNDATASIZE PUSH0 REVERT JUMPDEST POP POP POP POP CALLER PUSH20 0xFFFFFFFFFFFFFFFFFFFFFFFFFFFFFFFFFFFFFFFF AND PUSH32 0xC7CE0A35F17B490DE2A317E7FECB2CAE86B1ABFFB03800B2F492823521382698 DUP4 PUSH0 ADD SLOAD DUP5 PUSH1 0x3 ADD SLOAD PUSH1 0x40 MLOAD PUSH2 0xA21 SWAP3 SWAP2 SWAP1 PUSH2 0x151E JUMP JUMPDEST PUSH1 0x40 MLOAD DUP1 SWAP2 SUB SWAP1 LOG2 POP POP PUSH2 0xA33 PUSH2 0xDAE JUMP JUMPDEST POP JUMP JUMPDEST PUSH0 DUP2 GT PUSH2 0xA78 JUMPI PUSH1 0x40 MLOAD PUSH32 0x8C379A000000000000000000000000000000000000000000000000000000000 DUP2 MSTORE PUSH1 0x4 ADD PUSH2 0xA6F SWAP1 PUSH2 0x17D6 JUMP JUMPDEST PUSH1 0x40 MLOAD DUP1 SWAP2 SUB SWAP1 REVERT JUMPDEST DUP1 PUSH1 0x4 DUP2 SWAP1 SSTORE POP POP JUMP JUMPDEST PUSH0 DUP2 GT PUSH2 0xAC4 JUMPI PUSH1 0x40 MLOAD PUSH32 0x8C379A000000000000000000000000000000000000000000000000000000000 DUP2 MSTORE PUSH1 0x4 ADD PUSH2 0xABB SWAP1 PUSH2 0x17D6 JUMP JUMPDEST PUSH1 0x40 MLOAD DUP1 SWAP2 SUB SWAP1 REVERT JUMPDEST DUP1 PUSH1 0x5 DUP2 SWAP1 SSTORE POP POP JUMP JUMPDEST PUSH1 0x6 PUSH1 0x20 MSTORE DUP1 PUSH0 MSTORE PUSH1 0x40 PUSH0 KECCAK256 PUSH0 SWAP2 POP SWAP1 POP DUP1 PUSH0 ADD SLOAD SWAP1 DUP1 PUSH1 0x1 ADD SLOAD SWAP1 DUP1 PUSH1 0x2 ADD SLOAD SWAP1 DUP1 PUSH1 0x3 ADD SLOAD SWAP1 DUP1 PUSH1 0x4 ADD PUSH0 SWAP1 SLOAD SWAP1 PUSH2 0x100 EXP SWAP1 DIV PUSH1 0xFF AND SWAP1 DUP1 PUSH1 0x4 ADD PUSH1 0x1 SWAP1 SLOAD SWAP1 PUSH2 0x100 EXP SWAP1 DIV PUSH1 0xFF AND SWAP1 POP DUP7 JUMP JUMPDEST PUSH2 0xB27 PUSH2 0xD6A JUMP JUMPDEST PUSH0 PUSH1 0x6 PUSH0 DUP4 PUSH20 0xFFFFFFFFFFFFFFFFFFFFFFFFFFFFFFFFFFFFFFFF AND PUSH20 0xFFFFFFFFFFFFFFFFFFFFFFFFFFFFFFFFFFFFFFFF AND DUP2 MSTORE PUSH1 0x20 ADD SWAP1 DUP2 MSTORE PUSH1 0x20 ADD PUSH0 KECCAK256 SWAP1 POP PUSH0 DUP2 PUSH0 ADD SLOAD GT PUSH2 0xBAC JUMPI PUSH1 0x40 MLOAD PUSH32 0x8C379A000000000000000000000000000000000000000000000000000000000 DUP2 MSTORE PUSH1 0x4 ADD PUSH2 0xBA3 SWAP1 PUSH2 0x158F JUMP JUMPDEST PUSH1 0x40 MLOAD DUP1 SWAP2 SUB SWAP1 REVERT JUMPDEST DUP1 PUSH1 0x4 ADD PUSH1 0x1 SWAP1 SLOAD SWAP1 PUSH2 0x100 EXP SWAP1 DIV PUSH1 0xFF AND ISZERO PUSH2 0xBFE JUMPI PUSH1 0x40 MLOAD PUSH32 0x8C379A000000000000000000000000000000000000000000000000000000000 DUP2 MSTORE PUSH1 0x4 ADD PUSH2 0xBF5 SWAP1 PUSH2 0x1864 JUMP JUMPDEST PUSH1 0x40 MLOAD DUP1 SWAP2 SUB SWAP1 REVERT JUMPDEST PUSH1 0x5 SLOAD PUSH1 0x4 SLOAD DUP3 PUSH1 0x2 ADD SLOAD PUSH2 0xC13 SWAP2 SWAP1 PUSH2 0x1227 JUMP JUMPDEST PUSH2 0xC1D SWAP2 SWAP1 PUSH2 0x1227 JUMP JUMPDEST TIMESTAMP GT PUSH2 0xC5E JUMPI PUSH1 0x40 MLOAD PUSH32 0x8C379A000000000000000000000000000000000000000000000000000000000 DUP2 MSTORE PUSH1 0x4 ADD PUSH2 0xC55 SWAP1 PUSH2 0x18F2 JUMP JUMPDEST PUSH1 0x40 MLOAD DUP1 SWAP2 SUB SWAP1 REVERT JUMPDEST PUSH1 0x1 DUP2 PUSH1 0x4 ADD PUSH1 0x1 PUSH2 0x100 EXP DUP2 SLOAD DUP2 PUSH1 0xFF MUL NOT AND SWAP1 DUP4 ISZERO ISZERO MUL OR SWAP1 SSTORE POP PUSH1 0x2 PUSH0 SWAP1 SLOAD SWAP1 PUSH2 0x100 EXP SWAP1 DIV PUSH20 0xFFFFFFFFFFFFFFFFFFFFFFFFFFFFFFFFFFFFFFFF AND PUSH20 0xFFFFFFFFFFFFFFFFFFFFFFFFFFFFFFFFFFFFFFFF AND PUSH4 0x8E817EFE DUP3 PUSH1 0x3 ADD SLOAD PUSH1 0x40 MLOAD DUP3 PUSH4 0xFFFFFFFF AND PUSH1 0xE0 SHL DUP2 MSTORE PUSH1 0x4 ADD PUSH2 0xCD9 SWAP2 SWAP1 PUSH2 0xE9B JUMP JUMPDEST PUSH0 PUSH1 0x40 MLOAD DUP1 DUP4 SUB DUP2 PUSH0 DUP8 DUP1 EXTCODESIZE ISZERO DUP1 ISZERO PUSH2 0xCF0 JUMPI PUSH0 DUP1 REVERT JUMPDEST POP GAS CALL ISZERO DUP1 ISZERO PUSH2 0xD02 JUMPI RETURNDATASIZE PUSH0 DUP1 RETURNDATACOPY RETURNDATASIZE PUSH0 REVERT JUMPDEST POP POP POP POP DUP2 PUSH20 0xFFFFFFFFFFFFFFFFFFFFFFFFFFFFFFFFFFFFFFFF AND PUSH32 0xBE253503C49F8FB02046DA3EF57BC2F5F881EB14BA5C2C26B54BF2FB4E7DB07 DUP3 PUSH1 0x3 ADD SLOAD PUSH1 0x40 MLOAD PUSH2 0xD50 SWAP2 SWAP1 PUSH2 0xE9B JUMP JUMPDEST PUSH1 0x40 MLOAD DUP1 SWAP2 SUB SWAP1 LOG2 POP PUSH2 0xD61 PUSH2 0xDAE JUMP JUMPDEST POP JUMP JUMPDEST PUSH1 0x4 SLOAD DUP2 JUMP JUMPDEST PUSH1 0x2 PUSH0 SLOAD SUB PUSH2 0xDA5 JUMPI PUSH1 0x40 MLOAD PUSH32 0x3EE5AEB500000000000000000000000000000000000000000000000000000000 DUP2 MSTORE PUSH1 0x4 ADD PUSH1 0x40 MLOAD DUP1 SWAP2 SUB SWAP1 REVERT JUMPDEST PUSH1 0x2 PUSH0 DUP2 SWAP1 SSTORE POP JUMP JUMPDEST PUSH1 0x1 PUSH0 DUP2 SWAP1 SSTORE POP JUMP JUMPDEST PUSH0 PUSH20 0xFFFFFFFFFFFFFFFFFFFFFFFFFFFFFFFFFFFFFFFF DUP3 AND SWAP1 POP SWAP2 SWAP1 POP JUMP JUMPDEST PUSH0 DUP2 SWAP1 POP SWAP2 SWAP1 POP JUMP JUMPDEST PUSH0 PUSH2 0xDF9 PUSH2 0xDF4 PUSH2 0xDEF DUP5 PUSH2 0xDB7 JUMP JUMPDEST PUSH2 0xDD6 JUMP JUMPDEST PUSH2 0xDB7 JUMP JUMPDEST SWAP1 POP SWAP2 SWAP1 POP JUMP JUMPDEST PUSH0 PUSH2 0xE0A DUP3 PUSH2 0xDDF JUMP JUMPDEST SWAP1 POP SWAP2 SWAP1 POP JUMP JUMPDEST PUSH0 PUSH2 0xE1B DUP3 PUSH2 0xE00 JUMP JUMPDEST SWAP1 POP SWAP2 SWAP1 POP JUMP JUMPDEST PUSH2 0xE2B DUP2 PUSH2 0xE11 JUMP JUMPDEST DUP3 MSTORE POP POP JUMP JUMPDEST PUSH0 PUSH1 0x20 DUP3 ADD SWAP1 POP PUSH2 0xE44 PUSH0 DUP4 ADD DUP5 PUSH2 0xE22 JUMP JUMPDEST SWAP3 SWAP2 POP POP JUMP JUMPDEST PUSH0 PUSH2 0xE54 DUP3 PUSH2 0xE00 JUMP JUMPDEST SWAP1 POP SWAP2 SWAP1 POP JUMP JUMPDEST PUSH2 0xE64 DUP2 PUSH2 0xE4A JUMP JUMPDEST DUP3 MSTORE POP POP JUMP JUMPDEST PUSH0 PUSH1 0x20 DUP3 ADD SWAP1 POP PUSH2 0xE7D PUSH0 DUP4 ADD DUP5 PUSH2 0xE5B JUMP JUMPDEST SWAP3 SWAP2 POP POP JUMP JUMPDEST PUSH0 DUP2 SWAP1 POP SWAP2 SWAP1 POP JUMP JUMPDEST PUSH2 0xE95 DUP2 PUSH2 0xE83 JUMP JUMPDEST DUP3 MSTORE POP POP JUMP JUMPDEST PUSH0 PUSH1 0x20 DUP3 ADD SWAP1 POP PUSH2 0xEAE PUSH0 DUP4 ADD DUP5 PUSH2 0xE8C JUMP JUMPDEST SWAP3 SWAP2 POP POP JUMP JUMPDEST PUSH0 DUP1 REVERT JUMPDEST PUSH2 0xEC1 DUP2 PUSH2 0xE83 JUMP JUMPDEST DUP2 EQ PUSH2 0xECB JUMPI PUSH0 DUP1 REVERT JUMPDEST POP JUMP JUMPDEST PUSH0 DUP2 CALLDATALOAD SWAP1 POP PUSH2 0xEDC DUP2 PUSH2 0xEB8 JUMP JUMPDEST SWAP3 SWAP2 POP POP JUMP JUMPDEST PUSH0 PUSH1 0x20 DUP3 DUP5 SUB SLT ISZERO PUSH2 0xEF7 JUMPI PUSH2 0xEF6 PUSH2 0xEB4 JUMP JUMPDEST JUMPDEST PUSH0 PUSH2 0xF04 DUP5 DUP3 DUP6 ADD PUSH2 0xECE JUMP JUMPDEST SWAP2 POP POP SWAP3 SWAP2 POP POP JUMP JUMPDEST PUSH0 PUSH2 0xF17 DUP3 PUSH2 0xDB7 JUMP JUMPDEST SWAP1 POP SWAP2 SWAP1 POP JUMP JUMPDEST PUSH2 0xF27 DUP2 PUSH2 0xF0D JUMP JUMPDEST DUP2 EQ PUSH2 0xF31 JUMPI PUSH0 DUP1 REVERT JUMPDEST POP JUMP JUMPDEST PUSH0 DUP2 CALLDATALOAD SWAP1 POP PUSH2 0xF42 DUP2 PUSH2 0xF1E JUMP JUMPDEST SWAP3 SWAP2 POP POP JUMP JUMPDEST PUSH0 PUSH1 0x20 DUP3 DUP5 SUB SLT ISZERO PUSH2 0xF5D JUMPI PUSH2 0xF5C PUSH2 0xEB4 JUMP JUMPDEST JUMPDEST PUSH0 PUSH2 0xF6A DUP5 DUP3 DUP6 ADD PUSH2 0xF34 JUMP JUMPDEST SWAP2 POP POP SWAP3 SWAP2 POP POP JUMP JUMPDEST PUSH0 DUP2 ISZERO ISZERO SWAP1 POP SWAP2 SWAP1 POP JUMP JUMPDEST PUSH2 0xF87 DUP2 PUSH2 0xF73 JUMP JUMPDEST DUP3 MSTORE POP POP JUMP JUMPDEST PUSH0 PUSH1 0xC0 DUP3 ADD SWAP1 POP PUSH2 0xFA0 PUSH0 DUP4 ADD DUP10 PUSH2 0xE8C JUMP JUMPDEST PUSH2 0xFAD PUSH1 0x20 DUP4 ADD DUP9 PUSH2 0xE8C JUMP JUMPDEST PUSH2 0xFBA PUSH1 0x40 DUP4 ADD DUP8 PUSH2 0xE8C JUMP JUMPDEST PUSH2 0xFC7 PUSH1 0x60 DUP4 ADD DUP7 PUSH2 0xE8C JUMP JUMPDEST PUSH2 0xFD4 PUSH1 0x80 DUP4 ADD DUP6 PUSH2 0xF7E JUMP JUMPDEST PUSH2 0xFE1 PUSH1 0xA0 DUP4 ADD DUP5 PUSH2 0xF7E JUMP JUMPDEST SWAP8 SWAP7 POP POP POP POP POP POP POP JUMP JUMPDEST PUSH0 DUP3 DUP3 MSTORE PUSH1 0x20 DUP3 ADD SWAP1 POP SWAP3 SWAP2 POP POP JUMP JUMPDEST PUSH32 0x4C6F616E4D616E616765723A20496E76616C696420726174696F000000000000 PUSH0 DUP3 ADD MSTORE POP JUMP JUMPDEST PUSH0 PUSH2 0x1030 PUSH1 0x1A DUP4 PUSH2 0xFEC JUMP JUMPDEST SWAP2 POP PUSH2 0x103B DUP3 PUSH2 0xFFC JUMP JUMPDEST PUSH1 0x20 DUP3 ADD SWAP1 POP SWAP2 SWAP1 POP JUMP JUMPDEST PUSH0 PUSH1 0x20 DUP3 ADD SWAP1 POP DUP2 DUP2 SUB PUSH0 DUP4 ADD MSTORE PUSH2 0x105D DUP2 PUSH2 0x1024 JUMP JUMPDEST SWAP1 POP SWAP2 SWAP1 POP JUMP JUMPDEST PUSH32 0x4C6F616E4D616E616765723A204C6F616E20616D6F756E74206D757374206265 PUSH0 DUP3 ADD MSTORE PUSH32 0x2067726561746572207468616E20300000000000000000000000000000000000 PUSH1 0x20 DUP3 ADD MSTORE POP JUMP JUMPDEST PUSH0 PUSH2 0x10BE PUSH1 0x2F DUP4 PUSH2 0xFEC JUMP JUMPDEST SWAP2 POP PUSH2 0x10C9 DUP3 PUSH2 0x1064 JUMP JUMPDEST PUSH1 0x40 DUP3 ADD SWAP1 POP SWAP2 SWAP1 POP JUMP JUMPDEST PUSH0 PUSH1 0x20 DUP3 ADD SWAP1 POP DUP2 DUP2 SUB PUSH0 DUP4 ADD MSTORE PUSH2 0x10EB DUP2 PUSH2 0x10B2 JUMP JUMPDEST SWAP1 POP SWAP2 SWAP1 POP JUMP JUMPDEST PUSH32 0x4C6F616E4D616E616765723A204578697374696E67206C6F616E206D75737420 PUSH0 DUP3 ADD MSTORE PUSH32 0x6265207265706169642066697273740000000000000000000000000000000000 PUSH1 0x20 DUP3 ADD MSTORE POP JUMP JUMPDEST PUSH0 PUSH2 0x114C PUSH1 0x2F DUP4 PUSH2 0xFEC JUMP JUMPDEST SWAP2 POP PUSH2 0x1157 DUP3 PUSH2 0x10F2 JUMP JUMPDEST PUSH1 0x40 DUP3 ADD SWAP1 POP SWAP2 SWAP1 POP JUMP JUMPDEST PUSH0 PUSH1 0x20 DUP3 ADD SWAP1 POP DUP2 DUP2 SUB PUSH0 DUP4 ADD MSTORE PUSH2 0x1179 DUP2 PUSH2 0x1140 JUMP JUMPDEST SWAP1 POP SWAP2 SWAP1 POP JUMP JUMPDEST PUSH2 0x1189 DUP2 PUSH2 0xF0D JUMP JUMPDEST DUP3 MSTORE POP POP JUMP JUMPDEST PUSH0 PUSH1 0x20 DUP3 ADD SWAP1 POP PUSH2 0x11A2 PUSH0 DUP4 ADD DUP5 PUSH2 0x1180 JUMP JUMPDEST SWAP3 SWAP2 POP POP JUMP JUMPDEST PUSH0 DUP2 MLOAD SWAP1 POP PUSH2 0x11B6 DUP2 PUSH2 0xEB8 JUMP JUMPDEST SWAP3 SWAP2 POP POP JUMP JUMPDEST PUSH0 DUP1 PUSH1 0x40 DUP4 DUP6 SUB SLT ISZERO PUSH2 0x11D2 JUMPI PUSH2 0x11D1 PUSH2 0xEB4 JUMP JUMPDEST JUMPDEST PUSH0 PUSH2 0x11DF DUP6 DUP3 DUP7 ADD PUSH2 0x11A8 JUMP JUMPDEST SWAP3 POP POP PUSH1 0x20 PUSH2 0x11F0 DUP6 DUP3 DUP7 ADD PUSH2 0x11A8 JUMP JUMPDEST SWAP2 POP POP SWAP3 POP SWAP3 SWAP1 POP JUMP JUMPDEST PUSH32 0x4E487B7100000000000000000000000000000000000000000000000000000000 PUSH0 MSTORE PUSH1 0x11 PUSH1 0x4 MSTORE PUSH1 0x24 PUSH0 REVERT JUMPDEST PUSH0 PUSH2 0x1231 DUP3 PUSH2 0xE83 JUMP JUMPDEST SWAP2 POP PUSH2 0x123C DUP4 PUSH2 0xE83 JUMP JUMPDEST SWAP3 POP DUP3 DUP3 ADD SWAP1 POP DUP1 DUP3 GT ISZERO PUSH2 0x1254 JUMPI PUSH2 0x1253 PUSH2 0x11FA JUMP JUMPDEST JUMPDEST SWAP3 SWAP2 POP POP JUMP JUMPDEST PUSH32 0x4C6F616E4D616E616765723A204E6F20636F6C6C61746572616C20617661696C PUSH0 DUP3 ADD MSTORE PUSH32 0x61626C6500000000000000000000000000000000000000000000000000000000 PUSH1 0x20 DUP3 ADD MSTORE POP JUMP JUMPDEST PUSH0 PUSH2 0x12B4 PUSH1 0x24 DUP4 PUSH2 0xFEC JUMP JUMPDEST SWAP2 POP PUSH2 0x12BF DUP3 PUSH2 0x125A JUMP JUMPDEST PUSH1 0x40 DUP3 ADD SWAP1 POP SWAP2 SWAP1 POP JUMP JUMPDEST PUSH0 PUSH1 0x20 DUP3 ADD SWAP1 POP DUP2 DUP2 SUB PUSH0 DUP4 ADD MSTORE PUSH2 0x12E1 DUP2 PUSH2 0x12A8 JUMP JUMPDEST SWAP1 POP SWAP2 SWAP1 POP JUMP JUMPDEST PUSH0 PUSH2 0x12F2 DUP3 PUSH2 0xE83 JUMP JUMPDEST SWAP2 POP PUSH2 0x12FD DUP4 PUSH2 0xE83 JUMP JUMPDEST SWAP3 POP DUP3 DUP3 MUL PUSH2 0x130B DUP2 PUSH2 0xE83 JUMP JUMPDEST SWAP2 POP DUP3 DUP3 DIV DUP5 EQ DUP4 ISZERO OR PUSH2 0x1322 JUMPI PUSH2 0x1321 PUSH2 0x11FA JUMP JUMPDEST JUMPDEST POP SWAP3 SWAP2 POP POP JUMP JUMPDEST PUSH32 0x4E487B7100000000000000000000000000000000000000000000000000000000 PUSH0 MSTORE PUSH1 0x12 PUSH1 0x4 MSTORE PUSH1 0x24 PUSH0 REVERT JUMPDEST PUSH0 PUSH2 0x1360 DUP3 PUSH2 0xE83 JUMP JUMPDEST SWAP2 POP PUSH2 0x136B DUP4 PUSH2 0xE83 JUMP JUMPDEST SWAP3 POP DUP3 PUSH2 0x137B JUMPI PUSH2 0x137A PUSH2 0x1329 JUMP JUMPDEST JUMPDEST DUP3 DUP3 DIV SWAP1 POP SWAP3 SWAP2 POP POP JUMP JUMPDEST PUSH32 0x4C6F616E4D616E616765723A20496E73756666696369656E7420636F6C6C6174 PUSH0 DUP3 ADD MSTORE PUSH32 0x6572616C20666F7220726571756573746564206C6F616E20616D6F756E740000 PUSH1 0x20 DUP3 ADD MSTORE POP JUMP JUMPDEST PUSH0 PUSH2 0x13E0 PUSH1 0x3E DUP4 PUSH2 0xFEC JUMP JUMPDEST SWAP2 POP PUSH2 0x13EB DUP3 PUSH2 0x1386 JUMP JUMPDEST PUSH1 0x40 DUP3 ADD SWAP1 POP SWAP2 SWAP1 POP JUMP JUMPDEST PUSH0 PUSH1 0x20 DUP3 ADD SWAP1 POP DUP2 DUP2 SUB PUSH0 DUP4 ADD MSTORE PUSH2 0x140D DUP2 PUSH2 0x13D4 JUMP JUMPDEST SWAP1 POP SWAP2 SWAP1 POP JUMP JUMPDEST PUSH0 PUSH1 0x40 DUP3 ADD SWAP1 POP PUSH2 0x1427 PUSH0 DUP4 ADD DUP6 PUSH2 0x1180 JUMP JUMPDEST PUSH2 0x1434 PUSH1 0x20 DUP4 ADD DUP5 PUSH2 0xE8C JUMP JUMPDEST SWAP4 SWAP3 POP POP POP JUMP JUMPDEST PUSH2 0x1444 DUP2 PUSH2 0xF73 JUMP JUMPDEST DUP2 EQ PUSH2 0x144E JUMPI PUSH0 DUP1 REVERT JUMPDEST POP JUMP JUMPDEST PUSH0 DUP2 MLOAD SWAP1 POP PUSH2 0x145F DUP2 PUSH2 0x143B JUMP JUMPDEST SWAP3 SWAP2 POP POP JUMP JUMPDEST PUSH0 PUSH1 0x20 DUP3 DUP5 SUB SLT ISZERO PUSH2 0x147A JUMPI PUSH2 0x1479 PUSH2 0xEB4 JUMP JUMPDEST JUMPDEST PUSH0 PUSH2 0x1487 DUP5 DUP3 DUP6 ADD PUSH2 0x1451 JUMP JUMPDEST SWAP2 POP POP SWAP3 SWAP2 POP POP JUMP JUMPDEST PUSH32 0x4C6F616E4D616E616765723A204C6F616E207472616E73666572206661696C65 PUSH0 DUP3 ADD MSTORE PUSH32 0x6400000000000000000000000000000000000000000000000000000000000000 PUSH1 0x20 DUP3 ADD MSTORE POP JUMP JUMPDEST PUSH0 PUSH2 0x14EA PUSH1 0x21 DUP4 PUSH2 0xFEC JUMP JUMPDEST SWAP2 POP PUSH2 0x14F5 DUP3 PUSH2 0x1490 JUMP JUMPDEST PUSH1 0x40 DUP3 ADD SWAP1 POP SWAP2 SWAP1 POP JUMP JUMPDEST PUSH0 PUSH1 0x20 DUP3 ADD SWAP1 POP DUP2 DUP2 SUB PUSH0 DUP4 ADD MSTORE PUSH2 0x1517 DUP2 PUSH2 0x14DE JUMP JUMPDEST SWAP1 POP SWAP2 SWAP1 POP JUMP JUMPDEST PUSH0 PUSH1 0x40 DUP3 ADD SWAP1 POP PUSH2 0x1531 PUSH0 DUP4 ADD DUP6 PUSH2 0xE8C JUMP JUMPDEST PUSH2 0x153E PUSH1 0x20 DUP4 ADD DUP5 PUSH2 0xE8C JUMP JUMPDEST SWAP4 SWAP3 POP POP POP JUMP JUMPDEST PUSH32 0x4C6F616E4D616E616765723A204E6F20616374697665206C6F616E0000000000 PUSH0 DUP3 ADD MSTORE POP JUMP JUMPDEST PUSH0 PUSH2 0x1579 PUSH1 0x1B DUP4 PUSH2 0xFEC JUMP JUMPDEST SWAP2 POP PUSH2 0x1584 DUP3 PUSH2 0x1545 JUMP JUMPDEST PUSH1 0x20 DUP3 ADD SWAP1 POP SWAP2 SWAP1 POP JUMP JUMPDEST PUSH0 PUSH1 0x20 DUP3 ADD SWAP1 POP DUP2 DUP2 SUB PUSH0 DUP4 ADD MSTORE PUSH2 0x15A6 DUP2 PUSH2 0x156D JUMP JUMPDEST SWAP1 POP SWAP2 SWAP1 POP JUMP JUMPDEST PUSH32 0x4C6F616E4D616E616765723A204C6F616E20697320616C726561647920726570 PUSH0 DUP3 ADD MSTORE PUSH32 0x6169640000000000000000000000000000000000000000000000000000000000 PUSH1 0x20 DUP3 ADD MSTORE POP JUMP JUMPDEST PUSH0 PUSH2 0x1607 PUSH1 0x23 DUP4 PUSH2 0xFEC JUMP JUMPDEST SWAP2 POP PUSH2 0x1612 DUP3 PUSH2 0x15AD JUMP JUMPDEST PUSH1 0x40 DUP3 ADD SWAP1 POP SWAP2 SWAP1 POP JUMP JUMPDEST PUSH0 PUSH1 0x20 DUP3 ADD SWAP1 POP DUP2 DUP2 SUB PUSH0 DUP4 ADD MSTORE PUSH2 0x1634 DUP2 PUSH2 0x15FB JUMP JUMPDEST SWAP1 POP SWAP2 SWAP1 POP JUMP JUMPDEST PUSH32 0x4C6F616E4D616E616765723A20496E73756666696369656E742072657061796D PUSH0 DUP3 ADD MSTORE PUSH32 0x656E7420616D6F756E7400000000000000000000000000000000000000000000 PUSH1 0x20 DUP3 ADD MSTORE POP JUMP JUMPDEST PUSH0 PUSH2 0x1695 PUSH1 0x2A DUP4 PUSH2 0xFEC JUMP JUMPDEST SWAP2 POP PUSH2 0x16A0 DUP3 PUSH2 0x163B JUMP JUMPDEST PUSH1 0x40 DUP3 ADD SWAP1 POP SWAP2 SWAP1 POP JUMP JUMPDEST PUSH0 PUSH1 0x20 DUP3 ADD SWAP1 POP DUP2 DUP2 SUB PUSH0 DUP4 ADD MSTORE PUSH2 0x16C2 DUP2 PUSH2 0x1689 JUMP JUMPDEST SWAP1 POP SWAP2 SWAP1 POP JUMP JUMPDEST PUSH0 PUSH1 0x60 DUP3 ADD SWAP1 POP PUSH2 0x16DC PUSH0 DUP4 ADD DUP7 PUSH2 0x1180 JUMP JUMPDEST PUSH2 0x16E9 PUSH1 0x20 DUP4 ADD DUP6 PUSH2 0x1180 JUMP JUMPDEST PUSH2 0x16F6 PUSH1 0x40 DUP4 ADD DUP5 PUSH2 0xE8C JUMP JUMPDEST SWAP5 SWAP4 POP POP POP POP JUMP JUMPDEST PUSH32 0x4C6F616E4D616E616765723A2052657061796D656E74207472616E7366657220 PUSH0 DUP3 ADD MSTORE PUSH32 0x6661696C65640000000000000000000000000000000000000000000000000000 PUSH1 0x20 DUP3 ADD MSTORE POP JUMP JUMPDEST PUSH0 PUSH2 0x1758 PUSH1 0x26 DUP4 PUSH2 0xFEC JUMP JUMPDEST SWAP2 POP PUSH2 0x1763 DUP3 PUSH2 0x16FE JUMP JUMPDEST PUSH1 0x40 DUP3 ADD SWAP1 POP SWAP2 SWAP1 POP JUMP JUMPDEST PUSH0 PUSH1 0x20 DUP3 ADD SWAP1 POP DUP2 DUP2 SUB PUSH0 DUP4 ADD MSTORE PUSH2 0x1785 DUP2 PUSH2 0x174C JUMP JUMPDEST SWAP1 POP SWAP2 SWAP1 POP JUMP JUMPDEST PUSH32 0x4C6F616E4D616E616765723A20496E76616C6964206475726174696F6E000000 PUSH0 DUP3 ADD MSTORE POP JUMP JUMPDEST PUSH0 PUSH2 0x17C0 PUSH1 0x1D DUP4 PUSH2 0xFEC JUMP JUMPDEST SWAP2 POP PUSH2 0x17CB DUP3 PUSH2 0x178C JUMP JUMPDEST PUSH1 0x20 DUP3 ADD SWAP1 POP SWAP2 SWAP1 POP JUMP JUMPDEST PUSH0 PUSH1 0x20 DUP3 ADD SWAP1 POP DUP2 DUP2 SUB PUSH0 DUP4 ADD MSTORE PUSH2 0x17ED DUP2 PUSH2 0x17B4 JUMP JUMPDEST SWAP1 POP SWAP2 SWAP1 POP JUMP JUMPDEST PUSH32 0x4C6F616E4D616E616765723A204C6F616E20616C72656164792064656661756C PUSH0 DUP3 ADD MSTORE PUSH32 0x7465640000000000000000000000000000000000000000000000000000000000 PUSH1 0x20 DUP3 ADD MSTORE POP JUMP JUMPDEST PUSH0 PUSH2 0x184E PUSH1 0x23 DUP4 PUSH2 0xFEC JUMP JUMPDEST SWAP2 POP PUSH2 0x1859 DUP3 PUSH2 0x17F4 JUMP JUMPDEST PUSH1 0x40 DUP3 ADD SWAP1 POP SWAP2 SWAP1 POP JUMP JUMPDEST PUSH0 PUSH1 0x20 DUP3 ADD SWAP1 POP DUP2 DUP2 SUB PUSH0 DUP4 ADD MSTORE PUSH2 0x187B DUP2 PUSH2 0x1842 JUMP JUMPDEST SWAP1 POP SWAP2 SWAP1 POP JUMP JUMPDEST PUSH32 0x4C6F616E4D616E616765723A204C6F616E206E6F742064656661756C74656420 PUSH0 DUP3 ADD MSTORE PUSH32 0x7965740000000000000000000000000000000000000000000000000000000000 PUSH1 0x20 DUP3 ADD MSTORE POP JUMP JUMPDEST PUSH0 PUSH2 0x18DC PUSH1 0x23 DUP4 PUSH2 0xFEC JUMP JUMPDEST SWAP2 POP PUSH2 0x18E7 DUP3 PUSH2 0x1882 JUMP JUMPDEST PUSH1 0x40 DUP3 ADD SWAP1 POP SWAP2 SWAP1 POP JUMP JUMPDEST PUSH0 PUSH1 0x20 DUP3 ADD SWAP1 POP DUP2 DUP2 SUB PUSH0 DUP4 ADD MSTORE PUSH2 0x1909 DUP2 PUSH2 0x18D0 JUMP JUMPDEST SWAP1 POP SWAP2 SWAP1 POP JUMP INVALID LOG2 PUSH5 0x6970667358 0x22 SLT KECCAK256 0xBF RETURNDATASIZE 0x2B PUSH19 0xC45FD06F9664E1A3153F111477B6DD419FBE02 MSIZE CHAINID 0xE RETURNDATASIZE DUP16 0xC4 0xD0 SELFBALANCE 0xEA PUSH5 0x736F6C6343 STOP ADDMOD BYTE STOP CALLER "
				},
				"gasEstimates": {
					"creation": {
						"codeDepositCost": "1294000",
						"executionCost": "infinite",
						"totalCost": "infinite"
					},
					"external": {
						"cUSDToken()": "infinite",
						"checkDefault(address)": "infinite",
						"collateralManager()": "infinite",
						"collateralToLoanRatio()": "2514",
						"defaultDuration()": "2470",
						"loanDuration()": "2535",
						"repayLoan(uint256)": "infinite",
						"requestLoan(uint256)": "infinite",
						"updateCollateralToLoanRatio(uint256)": "22608",
						"updateDefaultDuration(uint256)": "22581",
						"updateLoanDuration(uint256)": "22559",
						"userLoans(address)": "infinite"
					}
				},
				"methodIdentifiers": {
					"cUSDToken()": "0ea86ad8",
					"checkDefault(address)": "ebbb7de9",
					"collateralManager()": "23be345c",
					"collateralToLoanRatio()": "688aef48",
					"defaultDuration()": "2af7e2ea",
					"loanDuration()": "f5521bf1",
					"repayLoan(uint256)": "ab7b1c89",
					"requestLoan(uint256)": "8d5d3429",
					"updateCollateralToLoanRatio(uint256)": "650dfa18",
					"updateDefaultDuration(uint256)": "c000bc60",
					"updateLoanDuration(uint256)": "ba43a922",
					"userLoans(address)": "e9e190a3"
				}
			},
			"storageLayout": {
				"storage": [
					{
						"astId": 383,
						"contract": "contracts/LoanManager.sol:LoanManager",
						"label": "_status",
						"offset": 0,
						"slot": "0",
						"type": "t_uint256"
					},
					{
						"astId": 724,
						"contract": "contracts/LoanManager.sol:LoanManager",
						"label": "cUSDToken",
						"offset": 0,
						"slot": "1",
						"type": "t_contract(IERC20)225"
					},
					{
						"astId": 727,
						"contract": "contracts/LoanManager.sol:LoanManager",
						"label": "collateralManager",
						"offset": 0,
						"slot": "2",
						"type": "t_contract(CollateralManager)714"
					},
					{
						"astId": 730,
						"contract": "contracts/LoanManager.sol:LoanManager",
						"label": "collateralToLoanRatio",
						"offset": 0,
						"slot": "3",
						"type": "t_uint256"
					},
					{
						"astId": 733,
						"contract": "contracts/LoanManager.sol:LoanManager",
						"label": "loanDuration",
						"offset": 0,
						"slot": "4",
						"type": "t_uint256"
					},
					{
						"astId": 736,
						"contract": "contracts/LoanManager.sol:LoanManager",
						"label": "defaultDuration",
						"offset": 0,
						"slot": "5",
						"type": "t_uint256"
					},
					{
						"astId": 754,
						"contract": "contracts/LoanManager.sol:LoanManager",
						"label": "userLoans",
						"offset": 0,
						"slot": "6",
						"type": "t_mapping(t_address,t_struct(Loan)749_storage)"
					}
				],
				"types": {
					"t_address": {
						"encoding": "inplace",
						"label": "address",
						"numberOfBytes": "20"
					},
					"t_bool": {
						"encoding": "inplace",
						"label": "bool",
						"numberOfBytes": "1"
					},
					"t_contract(CollateralManager)714": {
						"encoding": "inplace",
						"label": "contract CollateralManager",
						"numberOfBytes": "20"
					},
					"t_contract(IERC20)225": {
						"encoding": "inplace",
						"label": "contract IERC20",
						"numberOfBytes": "20"
					},
					"t_mapping(t_address,t_struct(Loan)749_storage)": {
						"encoding": "mapping",
						"key": "t_address",
						"label": "mapping(address => struct LoanManager.Loan)",
						"numberOfBytes": "32",
						"value": "t_struct(Loan)749_storage"
					},
					"t_struct(Loan)749_storage": {
						"encoding": "inplace",
						"label": "struct LoanManager.Loan",
						"members": [
							{
								"astId": 738,
								"contract": "contracts/LoanManager.sol:LoanManager",
								"label": "amount",
								"offset": 0,
								"slot": "0",
								"type": "t_uint256"
							},
							{
								"astId": 740,
								"contract": "contracts/LoanManager.sol:LoanManager",
								"label": "interestRate",
								"offset": 0,
								"slot": "1",
								"type": "t_uint256"
							},
							{
								"astId": 742,
								"contract": "contracts/LoanManager.sol:LoanManager",
								"label": "startTime",
								"offset": 0,
								"slot": "2",
								"type": "t_uint256"
							},
							{
								"astId": 744,
								"contract": "contracts/LoanManager.sol:LoanManager",
								"label": "collateral",
								"offset": 0,
								"slot": "3",
								"type": "t_uint256"
							},
							{
								"astId": 746,
								"contract": "contracts/LoanManager.sol:LoanManager",
								"label": "isRepaid",
								"offset": 0,
								"slot": "4",
								"type": "t_bool"
							},
							{
								"astId": 748,
								"contract": "contracts/LoanManager.sol:LoanManager",
								"label": "isDefaulted",
								"offset": 1,
								"slot": "4",
								"type": "t_bool"
							}
						],
						"numberOfBytes": "160"
					},
					"t_uint256": {
						"encoding": "inplace",
						"label": "uint256",
						"numberOfBytes": "32"
					}
				}
			},
			"userdoc": {
				"kind": "user",
				"methods": {},
				"version": 1
			}
		}
	}
}