{
	"contracts/CollateralManager.sol": {
		"CollateralManager": {
			"abi": [
				{
					"inputs": [
						{
							"internalType": "contract IERC20",
							"name": "_collateralToken",
							"type": "address"
						},
						{
							"internalType": "address",
							"name": "_priceOracleAddress",
							"type": "address"
						}
					],
					"stateMutability": "nonpayable",
					"type": "constructor"
				},
				{
					"inputs": [],
					"name": "EnforcedPause",
					"type": "error"
				},
				{
					"inputs": [],
					"name": "ExpectedPause",
					"type": "error"
				},
				{
					"inputs": [
						{
							"internalType": "address",
							"name": "owner",
							"type": "address"
						}
					],
					"name": "OwnableInvalidOwner",
					"type": "error"
				},
				{
					"inputs": [
						{
							"internalType": "address",
							"name": "account",
							"type": "address"
						}
					],
					"name": "OwnableUnauthorizedAccount",
					"type": "error"
				},
				{
					"inputs": [],
					"name": "ReentrancyGuardReentrantCall",
					"type": "error"
				},
				{
					"anonymous": false,
					"inputs": [
						{
							"indexed": true,
							"internalType": "address",
							"name": "user",
							"type": "address"
						},
						{
							"indexed": false,
							"internalType": "uint256",
							"name": "amount",
							"type": "uint256"
						}
					],
					"name": "CeloCollateralDeposited",
					"type": "event"
				},
				{
					"anonymous": false,
					"inputs": [
						{
							"indexed": true,
							"internalType": "address",
							"name": "user",
							"type": "address"
						},
						{
							"indexed": false,
							"internalType": "uint256",
							"name": "amount",
							"type": "uint256"
						}
					],
					"name": "CeloCollateralWithdrawn",
					"type": "event"
				},
				{
					"anonymous": false,
					"inputs": [
						{
							"indexed": true,
							"internalType": "address",
							"name": "previousOwner",
							"type": "address"
						},
						{
							"indexed": true,
							"internalType": "address",
							"name": "newOwner",
							"type": "address"
						}
					],
					"name": "OwnershipTransferred",
					"type": "event"
				},
				{
					"anonymous": false,
					"inputs": [
						{
							"indexed": false,
							"internalType": "address",
							"name": "account",
							"type": "address"
						}
					],
					"name": "Paused",
					"type": "event"
				},
				{
					"anonymous": false,
					"inputs": [
						{
							"indexed": false,
							"internalType": "address",
							"name": "account",
							"type": "address"
						}
					],
					"name": "Unpaused",
					"type": "event"
				},
				{
					"anonymous": false,
					"inputs": [
						{
							"indexed": true,
							"internalType": "address",
							"name": "user",
							"type": "address"
						},
						{
							"indexed": false,
							"internalType": "uint256",
							"name": "amount",
							"type": "uint256"
						}
					],
					"name": "UsdtCollateralDeposited",
					"type": "event"
				},
				{
					"anonymous": false,
					"inputs": [
						{
							"indexed": true,
							"internalType": "address",
							"name": "user",
							"type": "address"
						},
						{
							"indexed": false,
							"internalType": "uint256",
							"name": "amount",
							"type": "uint256"
						}
					],
					"name": "UsdtCollateralWithdrawn",
					"type": "event"
				},
				{
					"inputs": [],
					"name": "depositCeloCollateral",
					"outputs": [],
					"stateMutability": "payable",
					"type": "function"
				},
				{
					"inputs": [
						{
							"internalType": "uint256",
							"name": "_amount",
							"type": "uint256"
						}
					],
					"name": "depositUsdtCollateral",
					"outputs": [],
					"stateMutability": "nonpayable",
					"type": "function"
				},
				{
					"inputs": [
						{
							"internalType": "address",
							"name": "_user",
							"type": "address"
						}
					],
					"name": "getCeloCollateralValue",
					"outputs": [
						{
							"internalType": "uint256",
							"name": "celoCollateralValue",
							"type": "uint256"
						}
					],
					"stateMutability": "view",
					"type": "function"
				},
				{
					"inputs": [
						{
							"internalType": "address",
							"name": "_user",
							"type": "address"
						}
					],
					"name": "getCollateralBalance",
					"outputs": [
						{
							"internalType": "uint256",
							"name": "celo",
							"type": "uint256"
						},
						{
							"internalType": "uint256",
							"name": "usdt",
							"type": "uint256"
						}
					],
					"stateMutability": "view",
					"type": "function"
				},
				{
					"inputs": [
						{
							"internalType": "address",
							"name": "_user",
							"type": "address"
						}
					],
					"name": "getTotalCollateralValue",
					"outputs": [
						{
							"internalType": "uint256",
							"name": "totalCollateralValue",
							"type": "uint256"
						}
					],
					"stateMutability": "view",
					"type": "function"
				},
				{
					"inputs": [],
					"name": "getTotalCollateralValueInUsd",
					"outputs": [
						{
							"internalType": "uint256",
							"name": "totalCollateralValue",
							"type": "uint256"
						}
					],
					"stateMutability": "view",
					"type": "function"
				},
				{
					"inputs": [
						{
							"internalType": "address",
							"name": "_user",
							"type": "address"
						}
					],
					"name": "getUsdtCollateralValue",
					"outputs": [
						{
							"internalType": "uint256",
							"name": "usdtCollateralValue",
							"type": "uint256"
						}
					],
					"stateMutability": "view",
					"type": "function"
				},
				{
					"inputs": [],
					"name": "maxCollateralAmount",
					"outputs": [
						{
							"internalType": "uint256",
							"name": "",
							"type": "uint256"
						}
					],
					"stateMutability": "view",
					"type": "function"
				},
				{
					"inputs": [],
					"name": "minCollateralAmount",
					"outputs": [
						{
							"internalType": "uint256",
							"name": "",
							"type": "uint256"
						}
					],
					"stateMutability": "view",
					"type": "function"
				},
				{
					"inputs": [],
					"name": "owner",
					"outputs": [
						{
							"internalType": "address",
							"name": "",
							"type": "address"
						}
					],
					"stateMutability": "view",
					"type": "function"
				},
				{
					"inputs": [],
					"name": "pause",
					"outputs": [],
					"stateMutability": "nonpayable",
					"type": "function"
				},
				{
					"inputs": [],
					"name": "paused",
					"outputs": [
						{
							"internalType": "bool",
							"name": "",
							"type": "bool"
						}
					],
					"stateMutability": "view",
					"type": "function"
				},
				{
					"inputs": [],
					"name": "priceOracle",
					"outputs": [
						{
							"internalType": "contract MellowFiPriceOracle",
							"name": "",
							"type": "address"
						}
					],
					"stateMutability": "view",
					"type": "function"
				},
				{
					"inputs": [],
					"name": "renounceOwnership",
					"outputs": [],
					"stateMutability": "nonpayable",
					"type": "function"
				},
				{
					"inputs": [],
					"name": "totalCollateralCelo",
					"outputs": [
						{
							"internalType": "uint256",
							"name": "",
							"type": "uint256"
						}
					],
					"stateMutability": "view",
					"type": "function"
				},
				{
					"inputs": [],
					"name": "totalCollateralUsdt",
					"outputs": [
						{
							"internalType": "uint256",
							"name": "",
							"type": "uint256"
						}
					],
					"stateMutability": "view",
					"type": "function"
				},
				{
					"inputs": [
						{
							"internalType": "address",
							"name": "newOwner",
							"type": "address"
						}
					],
					"name": "transferOwnership",
					"outputs": [],
					"stateMutability": "nonpayable",
					"type": "function"
				},
				{
					"inputs": [],
					"name": "unpause",
					"outputs": [],
					"stateMutability": "nonpayable",
					"type": "function"
				},
				{
					"inputs": [],
					"name": "usdtToken",
					"outputs": [
						{
							"internalType": "contract IERC20",
							"name": "",
							"type": "address"
						}
					],
					"stateMutability": "view",
					"type": "function"
				},
				{
					"inputs": [
						{
							"internalType": "address",
							"name": "",
							"type": "address"
						}
					],
					"name": "userCollateralCelo",
					"outputs": [
						{
							"internalType": "uint256",
							"name": "",
							"type": "uint256"
						}
					],
					"stateMutability": "view",
					"type": "function"
				},
				{
					"inputs": [
						{
							"internalType": "address",
							"name": "",
							"type": "address"
						}
					],
					"name": "userCollateralUsdt",
					"outputs": [
						{
							"internalType": "uint256",
							"name": "",
							"type": "uint256"
						}
					],
					"stateMutability": "view",
					"type": "function"
				},
				{
					"inputs": [
						{
							"internalType": "uint256",
							"name": "_amount",
							"type": "uint256"
						}
					],
					"name": "withdrawCeloCollateral",
					"outputs": [],
					"stateMutability": "nonpayable",
					"type": "function"
				},
				{
					"inputs": [
						{
							"internalType": "uint256",
							"name": "_amount",
							"type": "uint256"
						}
					],
					"name": "withdrawUsdtCollateral",
					"outputs": [],
					"stateMutability": "nonpayable",
					"type": "function"
				}
			],
			"devdoc": {
				"errors": {
					"EnforcedPause()": [
						{
							"details": "The operation failed because the contract is paused."
						}
					],
					"ExpectedPause()": [
						{
							"details": "The operation failed because the contract is not paused."
						}
					],
					"OwnableInvalidOwner(address)": [
						{
							"details": "The owner is not a valid owner account. (eg. `address(0)`)"
						}
					],
					"OwnableUnauthorizedAccount(address)": [
						{
							"details": "The caller account is not authorized to perform an operation."
						}
					],
					"ReentrancyGuardReentrantCall()": [
						{
							"details": "Unauthorized reentrant call."
						}
					]
				},
				"events": {
					"Paused(address)": {
						"details": "Emitted when the pause is triggered by `account`."
					},
					"Unpaused(address)": {
						"details": "Emitted when the pause is lifted by `account`."
					}
				},
				"kind": "dev",
				"methods": {
					"owner()": {
						"details": "Returns the address of the current owner."
					},
					"paused()": {
						"details": "Returns true if the contract is paused, and false otherwise."
					},
					"renounceOwnership()": {
						"details": "Leaves the contract without owner. It will not be possible to call `onlyOwner` functions. Can only be called by the current owner. NOTE: Renouncing ownership will leave the contract without an owner, thereby disabling any functionality that is only available to the owner."
					},
					"transferOwnership(address)": {
						"details": "Transfers ownership of the contract to a new account (`newOwner`). Can only be called by the current owner."
					}
				},
				"version": 1
			},
			"evm": {
				"assembly": "    /* \"contracts/CollateralManager.sol\":318:6016  contract CollateralManager is ReentrancyGuard, Pausable, Ownable {... */\n  mstore(0x40, 0x80)\n    /* \"contracts/CollateralManager.sol\":580:587  1 ether */\n  0x0de0b6b3a7640000\n    /* \"contracts/CollateralManager.sol\":543:587  uint256 public minCollateralAmount = 1 ether */\n  0x06\n  sstore\n    /* \"contracts/CollateralManager.sol\":631:639  10 ether */\n  0x8ac7230489e80000\n    /* \"contracts/CollateralManager.sol\":594:639  uint256 public maxCollateralAmount = 10 ether */\n  0x07\n  sstore\n    /* \"contracts/CollateralManager.sol\":1121:1319  constructor(IERC20 _collateralToken,... */\n  callvalue\n  dup1\n  iszero\n  tag_1\n  jumpi\n  0x00\n  dup1\n  revert\ntag_1:\n  pop\n  mload(0x40)\n  sub(codesize, bytecodeSize)\n  dup1\n  bytecodeSize\n  dup4\n  codecopy\n  dup2\n  dup2\n  add\n  0x40\n  mstore\n  dup2\n  add\n  swap1\n  tag_2\n  swap2\n  swap1\n  tag_3\n  jump\t// in\ntag_2:\n    /* \"contracts/CollateralManager.sol\":1199:1209  msg.sender */\n  caller\n    /* \"@openzeppelin/contracts/utils/ReentrancyGuard.sol\":1713:1714  1 */\n  0x01\n    /* \"@openzeppelin/contracts/utils/ReentrancyGuard.sol\":1917:1924  _status */\n  0x00\n    /* \"@openzeppelin/contracts/utils/ReentrancyGuard.sol\":1917:1938  _status = NOT_ENTERED */\n  dup2\n  swap1\n  sstore\n  pop\n    /* \"@openzeppelin/contracts/utils/Pausable.sol\":1241:1246  false */\n  0x00\n    /* \"@openzeppelin/contracts/utils/Pausable.sol\":1231:1238  _paused */\n  0x01\n  0x00\n    /* \"@openzeppelin/contracts/utils/Pausable.sol\":1231:1246  _paused = false */\n  0x0100\n  exp\n  dup2\n  sload\n  dup2\n  0xff\n  mul\n  not\n  and\n  swap1\n  dup4\n  iszero\n  iszero\n  mul\n  or\n  swap1\n  sstore\n  pop\n    /* \"@openzeppelin/contracts/access/Ownable.sol\":1297:1298  0 */\n  0x00\n    /* \"@openzeppelin/contracts/access/Ownable.sol\":1273:1299  initialOwner == address(0) */\n  0xffffffffffffffffffffffffffffffffffffffff\n  and\n    /* \"@openzeppelin/contracts/access/Ownable.sol\":1273:1285  initialOwner */\n  dup2\n    /* \"@openzeppelin/contracts/access/Ownable.sol\":1273:1299  initialOwner == address(0) */\n  0xffffffffffffffffffffffffffffffffffffffff\n  and\n  sub\n    /* \"@openzeppelin/contracts/access/Ownable.sol\":1269:1364  if (initialOwner == address(0)) {... */\n  tag_11\n  jumpi\n    /* \"@openzeppelin/contracts/access/Ownable.sol\":1350:1351  0 */\n  0x00\n    /* \"@openzeppelin/contracts/access/Ownable.sol\":1322:1353  OwnableInvalidOwner(address(0)) */\n  mload(0x40)\n  0x1e4fbdf700000000000000000000000000000000000000000000000000000000\n  dup2\n  mstore\n  0x04\n  add\n  tag_12\n  swap2\n  swap1\n  tag_13\n  jump\t// in\ntag_12:\n  mload(0x40)\n  dup1\n  swap2\n  sub\n  swap1\n  revert\n    /* \"@openzeppelin/contracts/access/Ownable.sol\":1269:1364  if (initialOwner == address(0)) {... */\ntag_11:\n    /* \"@openzeppelin/contracts/access/Ownable.sol\":1373:1405  _transferOwnership(initialOwner) */\n  tag_14\n    /* \"@openzeppelin/contracts/access/Ownable.sol\":1392:1404  initialOwner */\n  dup2\n    /* \"@openzeppelin/contracts/access/Ownable.sol\":1373:1391  _transferOwnership */\n  shl(0x20, tag_15)\n    /* \"@openzeppelin/contracts/access/Ownable.sol\":1373:1405  _transferOwnership(initialOwner) */\n  0x20\n  shr\n  jump\t// in\ntag_14:\n    /* \"@openzeppelin/contracts/access/Ownable.sol\":1225:1412  constructor(address initialOwner) {... */\n  pop\n    /* \"contracts/CollateralManager.sol\":1232:1248  _collateralToken */\n  dup2\n    /* \"contracts/CollateralManager.sol\":1220:1229  usdtToken */\n  0x02\n  0x00\n    /* \"contracts/CollateralManager.sol\":1220:1248  usdtToken = _collateralToken */\n  0x0100\n  exp\n  dup2\n  sload\n  dup2\n  0xffffffffffffffffffffffffffffffffffffffff\n  mul\n  not\n  and\n  swap1\n  dup4\n  0xffffffffffffffffffffffffffffffffffffffff\n  and\n  mul\n  or\n  swap1\n  sstore\n  pop\n    /* \"contracts/CollateralManager.sol\":1292:1311  _priceOracleAddress */\n  dup1\n    /* \"contracts/CollateralManager.sol\":1258:1269  priceOracle */\n  0x03\n  0x00\n    /* \"contracts/CollateralManager.sol\":1258:1312  priceOracle = MellowFiPriceOracle(_priceOracleAddress) */\n  0x0100\n  exp\n  dup2\n  sload\n  dup2\n  0xffffffffffffffffffffffffffffffffffffffff\n  mul\n  not\n  and\n  swap1\n  dup4\n  0xffffffffffffffffffffffffffffffffffffffff\n  and\n  mul\n  or\n  swap1\n  sstore\n  pop\n    /* \"contracts/CollateralManager.sol\":1121:1319  constructor(IERC20 _collateralToken,... */\n  pop\n  pop\n    /* \"contracts/CollateralManager.sol\":318:6016  contract CollateralManager is ReentrancyGuard, Pausable, Ownable {... */\n  jump(tag_17)\n    /* \"@openzeppelin/contracts/access/Ownable.sol\":2912:3099  function _transferOwnership(address newOwner) internal virtual {... */\ntag_15:\n    /* \"@openzeppelin/contracts/access/Ownable.sol\":2985:3001  address oldOwner */\n  0x00\n    /* \"@openzeppelin/contracts/access/Ownable.sol\":3004:3010  _owner */\n  0x01\n  dup1\n  sload\n  swap1\n  0x0100\n  exp\n  swap1\n  div\n  0xffffffffffffffffffffffffffffffffffffffff\n  and\n    /* \"@openzeppelin/contracts/access/Ownable.sol\":2985:3010  address oldOwner = _owner */\n  swap1\n  pop\n    /* \"@openzeppelin/contracts/access/Ownable.sol\":3029:3037  newOwner */\n  dup2\n    /* \"@openzeppelin/contracts/access/Ownable.sol\":3020:3026  _owner */\n  0x01\n  dup1\n    /* \"@openzeppelin/contracts/access/Ownable.sol\":3020:3037  _owner = newOwner */\n  0x0100\n  exp\n  dup2\n  sload\n  dup2\n  0xffffffffffffffffffffffffffffffffffffffff\n  mul\n  not\n  and\n  swap1\n  dup4\n  0xffffffffffffffffffffffffffffffffffffffff\n  and\n  mul\n  or\n  swap1\n  sstore\n  pop\n    /* \"@openzeppelin/contracts/access/Ownable.sol\":3083:3091  newOwner */\n  dup2\n    /* \"@openzeppelin/contracts/access/Ownable.sol\":3052:3092  OwnershipTransferred(oldOwner, newOwner) */\n  0xffffffffffffffffffffffffffffffffffffffff\n  and\n    /* \"@openzeppelin/contracts/access/Ownable.sol\":3073:3081  oldOwner */\n  dup2\n    /* \"@openzeppelin/contracts/access/Ownable.sol\":3052:3092  OwnershipTransferred(oldOwner, newOwner) */\n  0xffffffffffffffffffffffffffffffffffffffff\n  and\n  0x8be0079c531659141344cd1fd0a4f28419497f9722a3daafe3b4186f6b6457e0\n  mload(0x40)\n  mload(0x40)\n  dup1\n  swap2\n  sub\n  swap1\n  log3\n    /* \"@openzeppelin/contracts/access/Ownable.sol\":2975:3099  {... */\n  pop\n    /* \"@openzeppelin/contracts/access/Ownable.sol\":2912:3099  function _transferOwnership(address newOwner) internal virtual {... */\n  pop\n  jump\t// out\n    /* \"#utility.yul\":88:205   */\ntag_20:\n    /* \"#utility.yul\":197:198   */\n  0x00\n    /* \"#utility.yul\":194:195   */\n  dup1\n    /* \"#utility.yul\":187:199   */\n  revert\n    /* \"#utility.yul\":334:460   */\ntag_22:\n    /* \"#utility.yul\":371:378   */\n  0x00\n    /* \"#utility.yul\":411:453   */\n  0xffffffffffffffffffffffffffffffffffffffff\n    /* \"#utility.yul\":404:409   */\n  dup3\n    /* \"#utility.yul\":400:454   */\n  and\n    /* \"#utility.yul\":389:454   */\n  swap1\n  pop\n    /* \"#utility.yul\":334:460   */\n  swap2\n  swap1\n  pop\n  jump\t// out\n    /* \"#utility.yul\":466:562   */\ntag_23:\n    /* \"#utility.yul\":503:510   */\n  0x00\n    /* \"#utility.yul\":532:556   */\n  tag_36\n    /* \"#utility.yul\":550:555   */\n  dup3\n    /* \"#utility.yul\":532:556   */\n  tag_22\n  jump\t// in\ntag_36:\n    /* \"#utility.yul\":521:556   */\n  swap1\n  pop\n    /* \"#utility.yul\":466:562   */\n  swap2\n  swap1\n  pop\n  jump\t// out\n    /* \"#utility.yul\":568:678   */\ntag_24:\n    /* \"#utility.yul\":619:626   */\n  0x00\n    /* \"#utility.yul\":648:672   */\n  tag_38\n    /* \"#utility.yul\":666:671   */\n  dup3\n    /* \"#utility.yul\":648:672   */\n  tag_23\n  jump\t// in\ntag_38:\n    /* \"#utility.yul\":637:672   */\n  swap1\n  pop\n    /* \"#utility.yul\":568:678   */\n  swap2\n  swap1\n  pop\n  jump\t// out\n    /* \"#utility.yul\":684:834   */\ntag_25:\n    /* \"#utility.yul\":771:809   */\n  tag_40\n    /* \"#utility.yul\":803:808   */\n  dup2\n    /* \"#utility.yul\":771:809   */\n  tag_24\n  jump\t// in\ntag_40:\n    /* \"#utility.yul\":764:769   */\n  dup2\n    /* \"#utility.yul\":761:810   */\n  eq\n    /* \"#utility.yul\":751:828   */\n  tag_41\n  jumpi\n    /* \"#utility.yul\":824:825   */\n  0x00\n    /* \"#utility.yul\":821:822   */\n  dup1\n    /* \"#utility.yul\":814:826   */\n  revert\n    /* \"#utility.yul\":751:828   */\ntag_41:\n    /* \"#utility.yul\":684:834   */\n  pop\n  jump\t// out\n    /* \"#utility.yul\":840:1011   */\ntag_26:\n    /* \"#utility.yul\":911:916   */\n  0x00\n    /* \"#utility.yul\":942:948   */\n  dup2\n    /* \"#utility.yul\":936:949   */\n  mload\n    /* \"#utility.yul\":927:949   */\n  swap1\n  pop\n    /* \"#utility.yul\":958:1005   */\n  tag_43\n    /* \"#utility.yul\":999:1004   */\n  dup2\n    /* \"#utility.yul\":958:1005   */\n  tag_25\n  jump\t// in\ntag_43:\n    /* \"#utility.yul\":840:1011   */\n  swap3\n  swap2\n  pop\n  pop\n  jump\t// out\n    /* \"#utility.yul\":1017:1139   */\ntag_27:\n    /* \"#utility.yul\":1090:1114   */\n  tag_45\n    /* \"#utility.yul\":1108:1113   */\n  dup2\n    /* \"#utility.yul\":1090:1114   */\n  tag_23\n  jump\t// in\ntag_45:\n    /* \"#utility.yul\":1083:1088   */\n  dup2\n    /* \"#utility.yul\":1080:1115   */\n  eq\n    /* \"#utility.yul\":1070:1133   */\n  tag_46\n  jumpi\n    /* \"#utility.yul\":1129:1130   */\n  0x00\n    /* \"#utility.yul\":1126:1127   */\n  dup1\n    /* \"#utility.yul\":1119:1131   */\n  revert\n    /* \"#utility.yul\":1070:1133   */\ntag_46:\n    /* \"#utility.yul\":1017:1139   */\n  pop\n  jump\t// out\n    /* \"#utility.yul\":1145:1288   */\ntag_28:\n    /* \"#utility.yul\":1202:1207   */\n  0x00\n    /* \"#utility.yul\":1233:1239   */\n  dup2\n    /* \"#utility.yul\":1227:1240   */\n  mload\n    /* \"#utility.yul\":1218:1240   */\n  swap1\n  pop\n    /* \"#utility.yul\":1249:1282   */\n  tag_48\n    /* \"#utility.yul\":1276:1281   */\n  dup2\n    /* \"#utility.yul\":1249:1282   */\n  tag_27\n  jump\t// in\ntag_48:\n    /* \"#utility.yul\":1145:1288   */\n  swap3\n  swap2\n  pop\n  pop\n  jump\t// out\n    /* \"#utility.yul\":1294:1829   */\ntag_3:\n    /* \"#utility.yul\":1387:1393   */\n  0x00\n    /* \"#utility.yul\":1395:1401   */\n  dup1\n    /* \"#utility.yul\":1444:1446   */\n  0x40\n    /* \"#utility.yul\":1432:1441   */\n  dup4\n    /* \"#utility.yul\":1423:1430   */\n  dup6\n    /* \"#utility.yul\":1419:1442   */\n  sub\n    /* \"#utility.yul\":1415:1447   */\n  slt\n    /* \"#utility.yul\":1412:1531   */\n  iszero\n  tag_50\n  jumpi\n    /* \"#utility.yul\":1450:1529   */\n  tag_51\n  tag_20\n  jump\t// in\ntag_51:\n    /* \"#utility.yul\":1412:1531   */\ntag_50:\n    /* \"#utility.yul\":1570:1571   */\n  0x00\n    /* \"#utility.yul\":1595:1673   */\n  tag_52\n    /* \"#utility.yul\":1665:1672   */\n  dup6\n    /* \"#utility.yul\":1656:1662   */\n  dup3\n    /* \"#utility.yul\":1645:1654   */\n  dup7\n    /* \"#utility.yul\":1641:1663   */\n  add\n    /* \"#utility.yul\":1595:1673   */\n  tag_26\n  jump\t// in\ntag_52:\n    /* \"#utility.yul\":1585:1673   */\n  swap3\n  pop\n    /* \"#utility.yul\":1541:1683   */\n  pop\n    /* \"#utility.yul\":1722:1724   */\n  0x20\n    /* \"#utility.yul\":1748:1812   */\n  tag_53\n    /* \"#utility.yul\":1804:1811   */\n  dup6\n    /* \"#utility.yul\":1795:1801   */\n  dup3\n    /* \"#utility.yul\":1784:1793   */\n  dup7\n    /* \"#utility.yul\":1780:1802   */\n  add\n    /* \"#utility.yul\":1748:1812   */\n  tag_28\n  jump\t// in\ntag_53:\n    /* \"#utility.yul\":1738:1812   */\n  swap2\n  pop\n    /* \"#utility.yul\":1693:1822   */\n  pop\n    /* \"#utility.yul\":1294:1829   */\n  swap3\n  pop\n  swap3\n  swap1\n  pop\n  jump\t// out\n    /* \"#utility.yul\":1835:1953   */\ntag_29:\n    /* \"#utility.yul\":1922:1946   */\n  tag_55\n    /* \"#utility.yul\":1940:1945   */\n  dup2\n    /* \"#utility.yul\":1922:1946   */\n  tag_23\n  jump\t// in\ntag_55:\n    /* \"#utility.yul\":1917:1920   */\n  dup3\n    /* \"#utility.yul\":1910:1947   */\n  mstore\n    /* \"#utility.yul\":1835:1953   */\n  pop\n  pop\n  jump\t// out\n    /* \"#utility.yul\":1959:2181   */\ntag_13:\n    /* \"#utility.yul\":2052:2056   */\n  0x00\n    /* \"#utility.yul\":2090:2092   */\n  0x20\n    /* \"#utility.yul\":2079:2088   */\n  dup3\n    /* \"#utility.yul\":2075:2093   */\n  add\n    /* \"#utility.yul\":2067:2093   */\n  swap1\n  pop\n    /* \"#utility.yul\":2103:2174   */\n  tag_57\n    /* \"#utility.yul\":2171:2172   */\n  0x00\n    /* \"#utility.yul\":2160:2169   */\n  dup4\n    /* \"#utility.yul\":2156:2173   */\n  add\n    /* \"#utility.yul\":2147:2153   */\n  dup5\n    /* \"#utility.yul\":2103:2174   */\n  tag_29\n  jump\t// in\ntag_57:\n    /* \"#utility.yul\":1959:2181   */\n  swap3\n  swap2\n  pop\n  pop\n  jump\t// out\n    /* \"contracts/CollateralManager.sol\":318:6016  contract CollateralManager is ReentrancyGuard, Pausable, Ownable {... */\ntag_17:\n  dataSize(sub_0)\n  dup1\n  dataOffset(sub_0)\n  0x00\n  codecopy\n  0x00\n  return\nstop\n\nsub_0: assembly {\n        /* \"contracts/CollateralManager.sol\":318:6016  contract CollateralManager is ReentrancyGuard, Pausable, Ownable {... */\n      mstore(0x40, 0x80)\n      jumpi(tag_1, lt(calldatasize, 0x04))\n      shr(0xe0, calldataload(0x00))\n      dup1\n      0x8456cb59\n      gt\n      tag_25\n      jumpi\n      dup1\n      0x9e30bce7\n      gt\n      tag_26\n      jumpi\n      dup1\n      0x9e30bce7\n      eq\n      tag_19\n      jumpi\n      dup1\n      0xa98ad46c\n      eq\n      tag_20\n      jumpi\n      dup1\n      0xc3b2a4a4\n      eq\n      tag_21\n      jumpi\n      dup1\n      0xd57ac70d\n      eq\n      tag_22\n      jumpi\n      dup1\n      0xe3847f0e\n      eq\n      tag_23\n      jumpi\n      dup1\n      0xf2fde38b\n      eq\n      tag_24\n      jumpi\n      jump(tag_1)\n    tag_26:\n      dup1\n      0x8456cb59\n      eq\n      tag_13\n      jumpi\n      dup1\n      0x8da5cb5b\n      eq\n      tag_14\n      jumpi\n      dup1\n      0x8e817efe\n      eq\n      tag_15\n      jumpi\n      dup1\n      0x9083baa6\n      eq\n      tag_16\n      jumpi\n      dup1\n      0x96af427d\n      eq\n      tag_17\n      jumpi\n      dup1\n      0x99ef81bd\n      eq\n      tag_18\n      jumpi\n      jump(tag_1)\n    tag_25:\n      dup1\n      0x5269384e\n      gt\n      tag_27\n      jumpi\n      dup1\n      0x5269384e\n      eq\n      tag_7\n      jumpi\n      dup1\n      0x52ce9714\n      eq\n      tag_8\n      jumpi\n      dup1\n      0x5c975abb\n      eq\n      tag_9\n      jumpi\n      dup1\n      0x60b3b338\n      eq\n      tag_10\n      jumpi\n      dup1\n      0x6c648fc4\n      eq\n      tag_11\n      jumpi\n      dup1\n      0x715018a6\n      eq\n      tag_12\n      jumpi\n      jump(tag_1)\n    tag_27:\n      dup1\n      0x04885115\n      eq\n      tag_2\n      jumpi\n      dup1\n      0x2630c12f\n      eq\n      tag_3\n      jumpi\n      dup1\n      0x2703ee85\n      eq\n      tag_4\n      jumpi\n      dup1\n      0x2f5723d5\n      eq\n      tag_5\n      jumpi\n      dup1\n      0x3f4ba83a\n      eq\n      tag_6\n      jumpi\n    tag_1:\n      0x00\n      dup1\n      revert\n        /* \"contracts/CollateralManager.sol\":594:639  uint256 public maxCollateralAmount = 10 ether */\n    tag_2:\n      callvalue\n      dup1\n      iszero\n      tag_28\n      jumpi\n      0x00\n      dup1\n      revert\n    tag_28:\n      pop\n      tag_29\n      tag_30\n      jump\t// in\n    tag_29:\n      mload(0x40)\n      tag_31\n      swap2\n      swap1\n      tag_32\n      jump\t// in\n    tag_31:\n      mload(0x40)\n      dup1\n      swap2\n      sub\n      swap1\n      return\n        /* \"contracts/CollateralManager.sol\":419:457  MellowFiPriceOracle public priceOracle */\n    tag_3:\n      callvalue\n      dup1\n      iszero\n      tag_33\n      jumpi\n      0x00\n      dup1\n      revert\n    tag_33:\n      pop\n      tag_34\n      tag_35\n      jump\t// in\n    tag_34:\n      mload(0x40)\n      tag_36\n      swap2\n      swap1\n      tag_37\n      jump\t// in\n    tag_36:\n      mload(0x40)\n      dup1\n      swap2\n      sub\n      swap1\n      return\n        /* \"contracts/CollateralManager.sol\":3343:3517  function getCollateralBalance(address _user) external view returns (uint256 celo, uint256 usdt) {... */\n    tag_4:\n      callvalue\n      dup1\n      iszero\n      tag_38\n      jumpi\n      0x00\n      dup1\n      revert\n    tag_38:\n      pop\n      tag_39\n      0x04\n      dup1\n      calldatasize\n      sub\n      dup2\n      add\n      swap1\n      tag_40\n      swap2\n      swap1\n      tag_41\n      jump\t// in\n    tag_40:\n      tag_42\n      jump\t// in\n    tag_39:\n      mload(0x40)\n      tag_43\n      swap3\n      swap2\n      swap1\n      tag_44\n      jump\t// in\n    tag_43:\n      mload(0x40)\n      dup1\n      swap2\n      sub\n      swap1\n      return\n        /* \"contracts/CollateralManager.sol\":2323:2764  function depositUsdtCollateral(uint256 _amount) external nonReentrant whenNotPaused {... */\n    tag_5:\n      callvalue\n      dup1\n      iszero\n      tag_45\n      jumpi\n      0x00\n      dup1\n      revert\n    tag_45:\n      pop\n      tag_46\n      0x04\n      dup1\n      calldatasize\n      sub\n      dup2\n      add\n      swap1\n      tag_47\n      swap2\n      swap1\n      tag_48\n      jump\t// in\n    tag_47:\n      tag_49\n      jump\t// in\n    tag_46:\n      stop\n        /* \"contracts/CollateralManager.sol\":5949:6014  function unpause() external onlyOwner {... */\n    tag_6:\n      callvalue\n      dup1\n      iszero\n      tag_50\n      jumpi\n      0x00\n      dup1\n      revert\n    tag_50:\n      pop\n      tag_51\n      tag_52\n      jump\t// in\n    tag_51:\n      stop\n        /* \"contracts/CollateralManager.sol\":543:587  uint256 public minCollateralAmount = 1 ether */\n    tag_7:\n      callvalue\n      dup1\n      iszero\n      tag_53\n      jumpi\n      0x00\n      dup1\n      revert\n    tag_53:\n      pop\n      tag_54\n      tag_55\n      jump\t// in\n    tag_54:\n      mload(0x40)\n      tag_56\n      swap2\n      swap1\n      tag_32\n      jump\t// in\n    tag_56:\n      mload(0x40)\n      dup1\n      swap2\n      sub\n      swap1\n      return\n        /* \"contracts/CollateralManager.sol\":2770:3337  function withdrawUsdtCollateral(uint256 _amount) external nonReentrant whenNotPaused {... */\n    tag_8:\n      callvalue\n      dup1\n      iszero\n      tag_57\n      jumpi\n      0x00\n      dup1\n      revert\n    tag_57:\n      pop\n      tag_58\n      0x04\n      dup1\n      calldatasize\n      sub\n      dup2\n      add\n      swap1\n      tag_59\n      swap2\n      swap1\n      tag_48\n      jump\t// in\n    tag_59:\n      tag_60\n      jump\t// in\n    tag_58:\n      stop\n        /* \"@openzeppelin/contracts/utils/Pausable.sol\":1850:1934  function paused() public view virtual returns (bool) {... */\n    tag_9:\n      callvalue\n      dup1\n      iszero\n      tag_61\n      jumpi\n      0x00\n      dup1\n      revert\n    tag_61:\n      pop\n      tag_62\n      tag_63\n      jump\t// in\n    tag_62:\n      mload(0x40)\n      tag_64\n      swap2\n      swap1\n      tag_65\n      jump\t// in\n    tag_64:\n      mload(0x40)\n      dup1\n      swap2\n      sub\n      swap1\n      return\n        /* \"contracts/CollateralManager.sol\":463:497  uint256 public totalCollateralCelo */\n    tag_10:\n      callvalue\n      dup1\n      iszero\n      tag_66\n      jumpi\n      0x00\n      dup1\n      revert\n    tag_66:\n      pop\n      tag_67\n      tag_68\n      jump\t// in\n    tag_67:\n      mload(0x40)\n      tag_69\n      swap2\n      swap1\n      tag_32\n      jump\t// in\n    tag_69:\n      mload(0x40)\n      dup1\n      swap2\n      sub\n      swap1\n      return\n        /* \"contracts/CollateralManager.sol\":3599:4323  function getTotalCollateralValue(address _user) external view returns (uint256 totalCollateralValue) {... */\n    tag_11:\n      callvalue\n      dup1\n      iszero\n      tag_70\n      jumpi\n      0x00\n      dup1\n      revert\n    tag_70:\n      pop\n      tag_71\n      0x04\n      dup1\n      calldatasize\n      sub\n      dup2\n      add\n      swap1\n      tag_72\n      swap2\n      swap1\n      tag_41\n      jump\t// in\n    tag_72:\n      tag_73\n      jump\t// in\n    tag_71:\n      mload(0x40)\n      tag_74\n      swap2\n      swap1\n      tag_32\n      jump\t// in\n    tag_74:\n      mload(0x40)\n      dup1\n      swap2\n      sub\n      swap1\n      return\n        /* \"@openzeppelin/contracts/access/Ownable.sol\":2293:2394  function renounceOwnership() public virtual onlyOwner {... */\n    tag_12:\n      callvalue\n      dup1\n      iszero\n      tag_75\n      jumpi\n      0x00\n      dup1\n      revert\n    tag_75:\n      pop\n      tag_76\n      tag_77\n      jump\t// in\n    tag_76:\n      stop\n        /* \"contracts/CollateralManager.sol\":5882:5943  function pause() external onlyOwner {... */\n    tag_13:\n      callvalue\n      dup1\n      iszero\n      tag_78\n      jumpi\n      0x00\n      dup1\n      revert\n    tag_78:\n      pop\n      tag_79\n      tag_80\n      jump\t// in\n    tag_79:\n      stop\n        /* \"@openzeppelin/contracts/access/Ownable.sol\":1638:1723  function owner() public view virtual returns (address) {... */\n    tag_14:\n      callvalue\n      dup1\n      iszero\n      tag_81\n      jumpi\n      0x00\n      dup1\n      revert\n    tag_81:\n      pop\n      tag_82\n      tag_83\n      jump\t// in\n    tag_82:\n      mload(0x40)\n      tag_84\n      swap2\n      swap1\n      tag_85\n      jump\t// in\n    tag_84:\n      mload(0x40)\n      dup1\n      swap2\n      sub\n      swap1\n      return\n        /* \"contracts/CollateralManager.sol\":1789:2317  function withdrawCeloCollateral(uint256 _amount) external nonReentrant whenNotPaused {... */\n    tag_15:\n      callvalue\n      dup1\n      iszero\n      tag_86\n      jumpi\n      0x00\n      dup1\n      revert\n    tag_86:\n      pop\n      tag_87\n      0x04\n      dup1\n      calldatasize\n      sub\n      dup2\n      add\n      swap1\n      tag_88\n      swap2\n      swap1\n      tag_48\n      jump\t// in\n    tag_88:\n      tag_89\n      jump\t// in\n    tag_87:\n      stop\n        /* \"contracts/CollateralManager.sol\":503:537  uint256 public totalCollateralUsdt */\n    tag_16:\n      callvalue\n      dup1\n      iszero\n      tag_90\n      jumpi\n      0x00\n      dup1\n      revert\n    tag_90:\n      pop\n      tag_91\n      tag_92\n      jump\t// in\n    tag_91:\n      mload(0x40)\n      tag_93\n      swap2\n      swap1\n      tag_32\n      jump\t// in\n    tag_93:\n      mload(0x40)\n      dup1\n      swap2\n      sub\n      swap1\n      return\n        /* \"contracts/CollateralManager.sol\":5246:5851  function getTotalCollateralValueInUsd() external view returns (uint256 totalCollateralValue) {... */\n    tag_17:\n      callvalue\n      dup1\n      iszero\n      tag_94\n      jumpi\n      0x00\n      dup1\n      revert\n    tag_94:\n      pop\n      tag_95\n      tag_96\n      jump\t// in\n    tag_95:\n      mload(0x40)\n      tag_97\n      swap2\n      swap1\n      tag_32\n      jump\t// in\n    tag_97:\n      mload(0x40)\n      dup1\n      swap2\n      sub\n      swap1\n      return\n        /* \"contracts/CollateralManager.sol\":4849:5195  function getUsdtCollateralValue(address _user) external view returns (uint256 usdtCollateralValue) {... */\n    tag_18:\n      callvalue\n      dup1\n      iszero\n      tag_98\n      jumpi\n      0x00\n      dup1\n      revert\n    tag_98:\n      pop\n      tag_99\n      0x04\n      dup1\n      calldatasize\n      sub\n      dup2\n      add\n      swap1\n      tag_100\n      swap2\n      swap1\n      tag_41\n      jump\t// in\n    tag_100:\n      tag_101\n      jump\t// in\n    tag_99:\n      mload(0x40)\n      tag_102\n      swap2\n      swap1\n      tag_32\n      jump\t// in\n    tag_102:\n      mload(0x40)\n      dup1\n      swap2\n      sub\n      swap1\n      return\n        /* \"contracts/CollateralManager.sol\":709:762  mapping(address => uint256) public userCollateralCelo */\n    tag_19:\n      callvalue\n      dup1\n      iszero\n      tag_103\n      jumpi\n      0x00\n      dup1\n      revert\n    tag_103:\n      pop\n      tag_104\n      0x04\n      dup1\n      calldatasize\n      sub\n      dup2\n      add\n      swap1\n      tag_105\n      swap2\n      swap1\n      tag_41\n      jump\t// in\n    tag_105:\n      tag_106\n      jump\t// in\n    tag_104:\n      mload(0x40)\n      tag_107\n      swap2\n      swap1\n      tag_32\n      jump\t// in\n    tag_107:\n      mload(0x40)\n      dup1\n      swap2\n      sub\n      swap1\n      return\n        /* \"contracts/CollateralManager.sol\":390:413  IERC20 public usdtToken */\n    tag_20:\n      callvalue\n      dup1\n      iszero\n      tag_108\n      jumpi\n      0x00\n      dup1\n      revert\n    tag_108:\n      pop\n      tag_109\n      tag_110\n      jump\t// in\n    tag_109:\n      mload(0x40)\n      tag_111\n      swap2\n      swap1\n      tag_112\n      jump\t// in\n    tag_111:\n      mload(0x40)\n      dup1\n      swap2\n      sub\n      swap1\n      return\n        /* \"contracts/CollateralManager.sol\":768:821  mapping(address => uint256) public userCollateralUsdt */\n    tag_21:\n      callvalue\n      dup1\n      iszero\n      tag_113\n      jumpi\n      0x00\n      dup1\n      revert\n    tag_113:\n      pop\n      tag_114\n      0x04\n      dup1\n      calldatasize\n      sub\n      dup2\n      add\n      swap1\n      tag_115\n      swap2\n      swap1\n      tag_41\n      jump\t// in\n    tag_115:\n      tag_116\n      jump\t// in\n    tag_114:\n      mload(0x40)\n      tag_117\n      swap2\n      swap1\n      tag_32\n      jump\t// in\n    tag_117:\n      mload(0x40)\n      dup1\n      swap2\n      sub\n      swap1\n      return\n        /* \"contracts/CollateralManager.sol\":1325:1783  function depositCeloCollateral() external payable nonReentrant whenNotPaused {... */\n    tag_22:\n      tag_118\n      tag_119\n      jump\t// in\n    tag_118:\n      stop\n        /* \"contracts/CollateralManager.sol\":4413:4759  function getCeloCollateralValue(address _user) external view returns (uint256 celoCollateralValue) {... */\n    tag_23:\n      callvalue\n      dup1\n      iszero\n      tag_120\n      jumpi\n      0x00\n      dup1\n      revert\n    tag_120:\n      pop\n      tag_121\n      0x04\n      dup1\n      calldatasize\n      sub\n      dup2\n      add\n      swap1\n      tag_122\n      swap2\n      swap1\n      tag_41\n      jump\t// in\n    tag_122:\n      tag_123\n      jump\t// in\n    tag_121:\n      mload(0x40)\n      tag_124\n      swap2\n      swap1\n      tag_32\n      jump\t// in\n    tag_124:\n      mload(0x40)\n      dup1\n      swap2\n      sub\n      swap1\n      return\n        /* \"@openzeppelin/contracts/access/Ownable.sol\":2543:2758  function transferOwnership(address newOwner) public virtual onlyOwner {... */\n    tag_24:\n      callvalue\n      dup1\n      iszero\n      tag_125\n      jumpi\n      0x00\n      dup1\n      revert\n    tag_125:\n      pop\n      tag_126\n      0x04\n      dup1\n      calldatasize\n      sub\n      dup2\n      add\n      swap1\n      tag_127\n      swap2\n      swap1\n      tag_41\n      jump\t// in\n    tag_127:\n      tag_128\n      jump\t// in\n    tag_126:\n      stop\n        /* \"contracts/CollateralManager.sol\":594:639  uint256 public maxCollateralAmount = 10 ether */\n    tag_30:\n      sload(0x07)\n      dup2\n      jump\t// out\n        /* \"contracts/CollateralManager.sol\":419:457  MellowFiPriceOracle public priceOracle */\n    tag_35:\n      0x03\n      0x00\n      swap1\n      sload\n      swap1\n      0x0100\n      exp\n      swap1\n      div\n      0xffffffffffffffffffffffffffffffffffffffff\n      and\n      dup2\n      jump\t// out\n        /* \"contracts/CollateralManager.sol\":3343:3517  function getCollateralBalance(address _user) external view returns (uint256 celo, uint256 usdt) {... */\n    tag_42:\n        /* \"contracts/CollateralManager.sol\":3411:3423  uint256 celo */\n      0x00\n        /* \"contracts/CollateralManager.sol\":3425:3437  uint256 usdt */\n      dup1\n        /* \"contracts/CollateralManager.sol\":3457:3475  userCollateralCelo */\n      0x08\n        /* \"contracts/CollateralManager.sol\":3457:3482  userCollateralCelo[_user] */\n      0x00\n        /* \"contracts/CollateralManager.sol\":3476:3481  _user */\n      dup5\n        /* \"contracts/CollateralManager.sol\":3457:3482  userCollateralCelo[_user] */\n      0xffffffffffffffffffffffffffffffffffffffff\n      and\n      0xffffffffffffffffffffffffffffffffffffffff\n      and\n      dup2\n      mstore\n      0x20\n      add\n      swap1\n      dup2\n      mstore\n      0x20\n      add\n      0x00\n      keccak256\n      sload\n        /* \"contracts/CollateralManager.sol\":3484:3502  userCollateralUsdt */\n      0x09\n        /* \"contracts/CollateralManager.sol\":3484:3509  userCollateralUsdt[_user] */\n      0x00\n        /* \"contracts/CollateralManager.sol\":3503:3508  _user */\n      dup6\n        /* \"contracts/CollateralManager.sol\":3484:3509  userCollateralUsdt[_user] */\n      0xffffffffffffffffffffffffffffffffffffffff\n      and\n      0xffffffffffffffffffffffffffffffffffffffff\n      and\n      dup2\n      mstore\n      0x20\n      add\n      swap1\n      dup2\n      mstore\n      0x20\n      add\n      0x00\n      keccak256\n      sload\n        /* \"contracts/CollateralManager.sol\":3449:3510  return (userCollateralCelo[_user], userCollateralUsdt[_user]) */\n      swap2\n      pop\n      swap2\n      pop\n        /* \"contracts/CollateralManager.sol\":3343:3517  function getCollateralBalance(address _user) external view returns (uint256 celo, uint256 usdt) {... */\n      swap2\n      pop\n      swap2\n      jump\t// out\n        /* \"contracts/CollateralManager.sol\":2323:2764  function depositUsdtCollateral(uint256 _amount) external nonReentrant whenNotPaused {... */\n    tag_49:\n        /* \"@openzeppelin/contracts/utils/ReentrancyGuard.sol\":2356:2377  _nonReentrantBefore() */\n      tag_131\n        /* \"@openzeppelin/contracts/utils/ReentrancyGuard.sol\":2356:2375  _nonReentrantBefore */\n      tag_132\n        /* \"@openzeppelin/contracts/utils/ReentrancyGuard.sol\":2356:2377  _nonReentrantBefore() */\n      jump\t// in\n    tag_131:\n        /* \"@openzeppelin/contracts/utils/Pausable.sol\":1474:1493  _requireNotPaused() */\n      tag_134\n        /* \"@openzeppelin/contracts/utils/Pausable.sol\":1474:1491  _requireNotPaused */\n      tag_135\n        /* \"@openzeppelin/contracts/utils/Pausable.sol\":1474:1493  _requireNotPaused() */\n      jump\t// in\n    tag_134:\n        /* \"contracts/CollateralManager.sol\":2435:2454  minCollateralAmount */\n      sload(0x06)\n        /* \"contracts/CollateralManager.sol\":2425:2432  _amount */\n      dup2\n        /* \"contracts/CollateralManager.sol\":2425:2454  _amount > minCollateralAmount */\n      gt\n        /* \"contracts/CollateralManager.sol\":2417:2492  require(_amount > minCollateralAmount, \"CollateralManager: Invalid amount\") */\n      tag_137\n      jumpi\n      mload(0x40)\n      0x08c379a000000000000000000000000000000000000000000000000000000000\n      dup2\n      mstore\n      0x04\n      add\n      tag_138\n      swap1\n      tag_139\n      jump\t// in\n    tag_138:\n      mload(0x40)\n      dup1\n      swap2\n      sub\n      swap1\n      revert\n    tag_137:\n        /* \"contracts/CollateralManager.sol\":2510:2519  usdtToken */\n      0x02\n      0x00\n      swap1\n      sload\n      swap1\n      0x0100\n      exp\n      swap1\n      div\n      0xffffffffffffffffffffffffffffffffffffffff\n      and\n        /* \"contracts/CollateralManager.sol\":2510:2532  usdtToken.transferFrom */\n      0xffffffffffffffffffffffffffffffffffffffff\n      and\n      0x23b872dd\n        /* \"contracts/CollateralManager.sol\":2533:2543  msg.sender */\n      caller\n        /* \"contracts/CollateralManager.sol\":2553:2557  this */\n      address\n        /* \"contracts/CollateralManager.sol\":2560:2567  _amount */\n      dup5\n        /* \"contracts/CollateralManager.sol\":2510:2568  usdtToken.transferFrom(msg.sender, address(this), _amount) */\n      mload(0x40)\n      dup5\n      0xffffffff\n      and\n      0xe0\n      shl\n      dup2\n      mstore\n      0x04\n      add\n      tag_140\n      swap4\n      swap3\n      swap2\n      swap1\n      tag_141\n      jump\t// in\n    tag_140:\n      0x20\n      mload(0x40)\n      dup1\n      dup4\n      sub\n      dup2\n      0x00\n      dup8\n      gas\n      call\n      iszero\n      dup1\n      iszero\n      tag_143\n      jumpi\n      returndatasize\n      0x00\n      dup1\n      returndatacopy\n      revert(0x00, returndatasize)\n    tag_143:\n      pop\n      pop\n      pop\n      pop\n      mload(0x40)\n      returndatasize\n      not(0x1f)\n      0x1f\n      dup3\n      add\n      and\n      dup3\n      add\n      dup1\n      0x40\n      mstore\n      pop\n      dup2\n      add\n      swap1\n      tag_144\n      swap2\n      swap1\n      tag_145\n      jump\t// in\n    tag_144:\n        /* \"contracts/CollateralManager.sol\":2502:2607  require(usdtToken.transferFrom(msg.sender, address(this), _amount), \"CollateralManager: Transfer failed\") */\n      tag_146\n      jumpi\n      mload(0x40)\n      0x08c379a000000000000000000000000000000000000000000000000000000000\n      dup2\n      mstore\n      0x04\n      add\n      tag_147\n      swap1\n      tag_148\n      jump\t// in\n    tag_147:\n      mload(0x40)\n      dup1\n      swap2\n      sub\n      swap1\n      revert\n    tag_146:\n        /* \"contracts/CollateralManager.sol\":2651:2658  _amount */\n      dup1\n        /* \"contracts/CollateralManager.sol\":2617:2635  userCollateralUsdt */\n      0x09\n        /* \"contracts/CollateralManager.sol\":2617:2647  userCollateralUsdt[msg.sender] */\n      0x00\n        /* \"contracts/CollateralManager.sol\":2636:2646  msg.sender */\n      caller\n        /* \"contracts/CollateralManager.sol\":2617:2647  userCollateralUsdt[msg.sender] */\n      0xffffffffffffffffffffffffffffffffffffffff\n      and\n      0xffffffffffffffffffffffffffffffffffffffff\n      and\n      dup2\n      mstore\n      0x20\n      add\n      swap1\n      dup2\n      mstore\n      0x20\n      add\n      0x00\n      keccak256\n      0x00\n        /* \"contracts/CollateralManager.sol\":2617:2658  userCollateralUsdt[msg.sender] += _amount */\n      dup3\n      dup3\n      sload\n      tag_149\n      swap2\n      swap1\n      tag_150\n      jump\t// in\n    tag_149:\n      swap3\n      pop\n      pop\n      dup2\n      swap1\n      sstore\n      pop\n        /* \"contracts/CollateralManager.sol\":2691:2698  _amount */\n      dup1\n        /* \"contracts/CollateralManager.sol\":2668:2687  totalCollateralUsdt */\n      0x05\n      0x00\n        /* \"contracts/CollateralManager.sol\":2668:2698  totalCollateralUsdt += _amount */\n      dup3\n      dup3\n      sload\n      tag_151\n      swap2\n      swap1\n      tag_150\n      jump\t// in\n    tag_151:\n      swap3\n      pop\n      pop\n      dup2\n      swap1\n      sstore\n      pop\n        /* \"contracts/CollateralManager.sol\":2737:2747  msg.sender */\n      caller\n        /* \"contracts/CollateralManager.sol\":2713:2757  UsdtCollateralDeposited(msg.sender, _amount) */\n      0xffffffffffffffffffffffffffffffffffffffff\n      and\n      0x9a4c731ff1518c7a820e31d32e673b031b8974967931afb2eec308066090022d\n        /* \"contracts/CollateralManager.sol\":2749:2756  _amount */\n      dup3\n        /* \"contracts/CollateralManager.sol\":2713:2757  UsdtCollateralDeposited(msg.sender, _amount) */\n      mload(0x40)\n      tag_152\n      swap2\n      swap1\n      tag_32\n      jump\t// in\n    tag_152:\n      mload(0x40)\n      dup1\n      swap2\n      sub\n      swap1\n      log2\n        /* \"@openzeppelin/contracts/utils/ReentrancyGuard.sol\":2398:2418  _nonReentrantAfter() */\n      tag_153\n        /* \"@openzeppelin/contracts/utils/ReentrancyGuard.sol\":2398:2416  _nonReentrantAfter */\n      tag_154\n        /* \"@openzeppelin/contracts/utils/ReentrancyGuard.sol\":2398:2418  _nonReentrantAfter() */\n      jump\t// in\n    tag_153:\n        /* \"contracts/CollateralManager.sol\":2323:2764  function depositUsdtCollateral(uint256 _amount) external nonReentrant whenNotPaused {... */\n      pop\n      jump\t// out\n        /* \"contracts/CollateralManager.sol\":5949:6014  function unpause() external onlyOwner {... */\n    tag_52:\n        /* \"@openzeppelin/contracts/access/Ownable.sol\":1531:1544  _checkOwner() */\n      tag_156\n        /* \"@openzeppelin/contracts/access/Ownable.sol\":1531:1542  _checkOwner */\n      tag_157\n        /* \"@openzeppelin/contracts/access/Ownable.sol\":1531:1544  _checkOwner() */\n      jump\t// in\n    tag_156:\n        /* \"contracts/CollateralManager.sol\":5997:6007  _unpause() */\n      tag_159\n        /* \"contracts/CollateralManager.sol\":5997:6005  _unpause */\n      tag_160\n        /* \"contracts/CollateralManager.sol\":5997:6007  _unpause() */\n      jump\t// in\n    tag_159:\n        /* \"contracts/CollateralManager.sol\":5949:6014  function unpause() external onlyOwner {... */\n      jump\t// out\n        /* \"contracts/CollateralManager.sol\":543:587  uint256 public minCollateralAmount = 1 ether */\n    tag_55:\n      sload(0x06)\n      dup2\n      jump\t// out\n        /* \"contracts/CollateralManager.sol\":2770:3337  function withdrawUsdtCollateral(uint256 _amount) external nonReentrant whenNotPaused {... */\n    tag_60:\n        /* \"@openzeppelin/contracts/utils/ReentrancyGuard.sol\":2356:2377  _nonReentrantBefore() */\n      tag_162\n        /* \"@openzeppelin/contracts/utils/ReentrancyGuard.sol\":2356:2375  _nonReentrantBefore */\n      tag_132\n        /* \"@openzeppelin/contracts/utils/ReentrancyGuard.sol\":2356:2377  _nonReentrantBefore() */\n      jump\t// in\n    tag_162:\n        /* \"@openzeppelin/contracts/utils/Pausable.sol\":1474:1493  _requireNotPaused() */\n      tag_164\n        /* \"@openzeppelin/contracts/utils/Pausable.sol\":1474:1491  _requireNotPaused */\n      tag_135\n        /* \"@openzeppelin/contracts/utils/Pausable.sol\":1474:1493  _requireNotPaused() */\n      jump\t// in\n    tag_164:\n        /* \"contracts/CollateralManager.sol\":2942:2943  0 */\n      0x00\n        /* \"contracts/CollateralManager.sol\":2932:2939  _amount */\n      dup2\n        /* \"contracts/CollateralManager.sol\":2932:2943  _amount > 0 */\n      gt\n        /* \"contracts/CollateralManager.sol\":2924:2981  require(_amount > 0, \"CollateralManager: Invalid amount\") */\n      tag_166\n      jumpi\n      mload(0x40)\n      0x08c379a000000000000000000000000000000000000000000000000000000000\n      dup2\n      mstore\n      0x04\n      add\n      tag_167\n      swap1\n      tag_139\n      jump\t// in\n    tag_167:\n      mload(0x40)\n      dup1\n      swap2\n      sub\n      swap1\n      revert\n    tag_166:\n        /* \"contracts/CollateralManager.sol\":3033:3040  _amount */\n      dup1\n        /* \"contracts/CollateralManager.sol\":2999:3017  userCollateralUsdt */\n      0x09\n        /* \"contracts/CollateralManager.sol\":2999:3029  userCollateralUsdt[msg.sender] */\n      0x00\n        /* \"contracts/CollateralManager.sol\":3018:3028  msg.sender */\n      caller\n        /* \"contracts/CollateralManager.sol\":2999:3029  userCollateralUsdt[msg.sender] */\n      0xffffffffffffffffffffffffffffffffffffffff\n      and\n      0xffffffffffffffffffffffffffffffffffffffff\n      and\n      dup2\n      mstore\n      0x20\n      add\n      swap1\n      dup2\n      mstore\n      0x20\n      add\n      0x00\n      keccak256\n      sload\n        /* \"contracts/CollateralManager.sol\":2999:3040  userCollateralUsdt[msg.sender] >= _amount */\n      lt\n      iszero\n        /* \"contracts/CollateralManager.sol\":2991:3084  require(userCollateralUsdt[msg.sender] >= _amount, \"CollateralManager: Insufficient balance\") */\n      tag_168\n      jumpi\n      mload(0x40)\n      0x08c379a000000000000000000000000000000000000000000000000000000000\n      dup2\n      mstore\n      0x04\n      add\n      tag_169\n      swap1\n      tag_170\n      jump\t// in\n    tag_169:\n      mload(0x40)\n      dup1\n      swap2\n      sub\n      swap1\n      revert\n    tag_168:\n        /* \"contracts/CollateralManager.sol\":3128:3135  _amount */\n      dup1\n        /* \"contracts/CollateralManager.sol\":3094:3112  userCollateralUsdt */\n      0x09\n        /* \"contracts/CollateralManager.sol\":3094:3124  userCollateralUsdt[msg.sender] */\n      0x00\n        /* \"contracts/CollateralManager.sol\":3113:3123  msg.sender */\n      caller\n        /* \"contracts/CollateralManager.sol\":3094:3124  userCollateralUsdt[msg.sender] */\n      0xffffffffffffffffffffffffffffffffffffffff\n      and\n      0xffffffffffffffffffffffffffffffffffffffff\n      and\n      dup2\n      mstore\n      0x20\n      add\n      swap1\n      dup2\n      mstore\n      0x20\n      add\n      0x00\n      keccak256\n      0x00\n        /* \"contracts/CollateralManager.sol\":3094:3135  userCollateralUsdt[msg.sender] -= _amount */\n      dup3\n      dup3\n      sload\n      tag_171\n      swap2\n      swap1\n      tag_172\n      jump\t// in\n    tag_171:\n      swap3\n      pop\n      pop\n      dup2\n      swap1\n      sstore\n      pop\n        /* \"contracts/CollateralManager.sol\":3168:3175  _amount */\n      dup1\n        /* \"contracts/CollateralManager.sol\":3145:3164  totalCollateralUsdt */\n      0x05\n      0x00\n        /* \"contracts/CollateralManager.sol\":3145:3175  totalCollateralUsdt -= _amount */\n      dup3\n      dup3\n      sload\n      tag_173\n      swap2\n      swap1\n      tag_172\n      jump\t// in\n    tag_173:\n      swap3\n      pop\n      pop\n      dup2\n      swap1\n      sstore\n      pop\n        /* \"contracts/CollateralManager.sol\":3193:3202  usdtToken */\n      0x02\n      0x00\n      swap1\n      sload\n      swap1\n      0x0100\n      exp\n      swap1\n      div\n      0xffffffffffffffffffffffffffffffffffffffff\n      and\n        /* \"contracts/CollateralManager.sol\":3193:3211  usdtToken.transfer */\n      0xffffffffffffffffffffffffffffffffffffffff\n      and\n      0xa9059cbb\n        /* \"contracts/CollateralManager.sol\":3212:3222  msg.sender */\n      caller\n        /* \"contracts/CollateralManager.sol\":3224:3231  _amount */\n      dup4\n        /* \"contracts/CollateralManager.sol\":3193:3232  usdtToken.transfer(msg.sender, _amount) */\n      mload(0x40)\n      dup4\n      0xffffffff\n      and\n      0xe0\n      shl\n      dup2\n      mstore\n      0x04\n      add\n      tag_174\n      swap3\n      swap2\n      swap1\n      tag_175\n      jump\t// in\n    tag_174:\n      0x20\n      mload(0x40)\n      dup1\n      dup4\n      sub\n      dup2\n      0x00\n      dup8\n      gas\n      call\n      iszero\n      dup1\n      iszero\n      tag_177\n      jumpi\n      returndatasize\n      0x00\n      dup1\n      returndatacopy\n      revert(0x00, returndatasize)\n    tag_177:\n      pop\n      pop\n      pop\n      pop\n      mload(0x40)\n      returndatasize\n      not(0x1f)\n      0x1f\n      dup3\n      add\n      and\n      dup3\n      add\n      dup1\n      0x40\n      mstore\n      pop\n      dup2\n      add\n      swap1\n      tag_178\n      swap2\n      swap1\n      tag_145\n      jump\t// in\n    tag_178:\n        /* \"contracts/CollateralManager.sol\":3185:3271  require(usdtToken.transfer(msg.sender, _amount), \"CollateralManager: Transfer failed\") */\n      tag_179\n      jumpi\n      mload(0x40)\n      0x08c379a000000000000000000000000000000000000000000000000000000000\n      dup2\n      mstore\n      0x04\n      add\n      tag_180\n      swap1\n      tag_148\n      jump\t// in\n    tag_180:\n      mload(0x40)\n      dup1\n      swap2\n      sub\n      swap1\n      revert\n    tag_179:\n        /* \"contracts/CollateralManager.sol\":3310:3320  msg.sender */\n      caller\n        /* \"contracts/CollateralManager.sol\":3286:3330  UsdtCollateralWithdrawn(msg.sender, _amount) */\n      0xffffffffffffffffffffffffffffffffffffffff\n      and\n      0xc01511ac0a76d7dc4d420282166e32ac9366c3f78e450661d140d248b19a4000\n        /* \"contracts/CollateralManager.sol\":3322:3329  _amount */\n      dup3\n        /* \"contracts/CollateralManager.sol\":3286:3330  UsdtCollateralWithdrawn(msg.sender, _amount) */\n      mload(0x40)\n      tag_181\n      swap2\n      swap1\n      tag_32\n      jump\t// in\n    tag_181:\n      mload(0x40)\n      dup1\n      swap2\n      sub\n      swap1\n      log2\n        /* \"@openzeppelin/contracts/utils/ReentrancyGuard.sol\":2398:2418  _nonReentrantAfter() */\n      tag_182\n        /* \"@openzeppelin/contracts/utils/ReentrancyGuard.sol\":2398:2416  _nonReentrantAfter */\n      tag_154\n        /* \"@openzeppelin/contracts/utils/ReentrancyGuard.sol\":2398:2418  _nonReentrantAfter() */\n      jump\t// in\n    tag_182:\n        /* \"contracts/CollateralManager.sol\":2770:3337  function withdrawUsdtCollateral(uint256 _amount) external nonReentrant whenNotPaused {... */\n      pop\n      jump\t// out\n        /* \"@openzeppelin/contracts/utils/Pausable.sol\":1850:1934  function paused() public view virtual returns (bool) {... */\n    tag_63:\n        /* \"@openzeppelin/contracts/utils/Pausable.sol\":1897:1901  bool */\n      0x00\n        /* \"@openzeppelin/contracts/utils/Pausable.sol\":1920:1927  _paused */\n      0x01\n      0x00\n      swap1\n      sload\n      swap1\n      0x0100\n      exp\n      swap1\n      div\n      0xff\n      and\n        /* \"@openzeppelin/contracts/utils/Pausable.sol\":1913:1927  return _paused */\n      swap1\n      pop\n        /* \"@openzeppelin/contracts/utils/Pausable.sol\":1850:1934  function paused() public view virtual returns (bool) {... */\n      swap1\n      jump\t// out\n        /* \"contracts/CollateralManager.sol\":463:497  uint256 public totalCollateralCelo */\n    tag_68:\n      sload(0x04)\n      dup2\n      jump\t// out\n        /* \"contracts/CollateralManager.sol\":3599:4323  function getTotalCollateralValue(address _user) external view returns (uint256 totalCollateralValue) {... */\n    tag_73:\n        /* \"contracts/CollateralManager.sol\":3670:3698  uint256 totalCollateralValue */\n      0x00\n        /* \"contracts/CollateralManager.sol\":3710:3732  uint256 celoCollateral */\n      dup1\n        /* \"contracts/CollateralManager.sol\":3735:3753  userCollateralCelo */\n      0x08\n        /* \"contracts/CollateralManager.sol\":3735:3760  userCollateralCelo[_user] */\n      0x00\n        /* \"contracts/CollateralManager.sol\":3754:3759  _user */\n      dup5\n        /* \"contracts/CollateralManager.sol\":3735:3760  userCollateralCelo[_user] */\n      0xffffffffffffffffffffffffffffffffffffffff\n      and\n      0xffffffffffffffffffffffffffffffffffffffff\n      and\n      dup2\n      mstore\n      0x20\n      add\n      swap1\n      dup2\n      mstore\n      0x20\n      add\n      0x00\n      keccak256\n      sload\n        /* \"contracts/CollateralManager.sol\":3710:3760  uint256 celoCollateral = userCollateralCelo[_user] */\n      swap1\n      pop\n        /* \"contracts/CollateralManager.sol\":3770:3792  uint256 usdtCollateral */\n      0x00\n        /* \"contracts/CollateralManager.sol\":3795:3813  userCollateralUsdt */\n      0x09\n        /* \"contracts/CollateralManager.sol\":3795:3820  userCollateralUsdt[_user] */\n      0x00\n        /* \"contracts/CollateralManager.sol\":3814:3819  _user */\n      dup6\n        /* \"contracts/CollateralManager.sol\":3795:3820  userCollateralUsdt[_user] */\n      0xffffffffffffffffffffffffffffffffffffffff\n      and\n      0xffffffffffffffffffffffffffffffffffffffff\n      and\n      dup2\n      mstore\n      0x20\n      add\n      swap1\n      dup2\n      mstore\n      0x20\n      add\n      0x00\n      keccak256\n      sload\n        /* \"contracts/CollateralManager.sol\":3770:3820  uint256 usdtCollateral = userCollateralUsdt[_user] */\n      swap1\n      pop\n        /* \"contracts/CollateralManager.sol\":3831:3847  int256 celoPrice */\n      0x00\n        /* \"contracts/CollateralManager.sol\":3850:3861  priceOracle */\n      0x03\n      0x00\n      swap1\n      sload\n      swap1\n      0x0100\n      exp\n      swap1\n      div\n      0xffffffffffffffffffffffffffffffffffffffff\n      and\n        /* \"contracts/CollateralManager.sol\":3850:3874  priceOracle.getCeloPrice */\n      0xffffffffffffffffffffffffffffffffffffffff\n      and\n      0x73544cfd\n        /* \"contracts/CollateralManager.sol\":3850:3876  priceOracle.getCeloPrice() */\n      mload(0x40)\n      dup2\n      0xffffffff\n      and\n      0xe0\n      shl\n      dup2\n      mstore\n      0x04\n      add\n      0x20\n      mload(0x40)\n      dup1\n      dup4\n      sub\n      dup2\n      dup7\n      gas\n      staticcall\n      iszero\n      dup1\n      iszero\n      tag_186\n      jumpi\n      returndatasize\n      0x00\n      dup1\n      returndatacopy\n      revert(0x00, returndatasize)\n    tag_186:\n      pop\n      pop\n      pop\n      pop\n      mload(0x40)\n      returndatasize\n      not(0x1f)\n      0x1f\n      dup3\n      add\n      and\n      dup3\n      add\n      dup1\n      0x40\n      mstore\n      pop\n      dup2\n      add\n      swap1\n      tag_187\n      swap2\n      swap1\n      tag_188\n      jump\t// in\n    tag_187:\n        /* \"contracts/CollateralManager.sol\":3831:3876  int256 celoPrice = priceOracle.getCeloPrice() */\n      swap1\n      pop\n        /* \"contracts/CollateralManager.sol\":3911:3927  int256 usdtPrice */\n      0x00\n        /* \"contracts/CollateralManager.sol\":3930:3941  priceOracle */\n      0x03\n      0x00\n      swap1\n      sload\n      swap1\n      0x0100\n      exp\n      swap1\n      div\n      0xffffffffffffffffffffffffffffffffffffffff\n      and\n        /* \"contracts/CollateralManager.sol\":3930:3954  priceOracle.getUsdtPrice */\n      0xffffffffffffffffffffffffffffffffffffffff\n      and\n      0x961bdfbf\n        /* \"contracts/CollateralManager.sol\":3930:3956  priceOracle.getUsdtPrice() */\n      mload(0x40)\n      dup2\n      0xffffffff\n      and\n      0xe0\n      shl\n      dup2\n      mstore\n      0x04\n      add\n      0x20\n      mload(0x40)\n      dup1\n      dup4\n      sub\n      dup2\n      dup7\n      gas\n      staticcall\n      iszero\n      dup1\n      iszero\n      tag_190\n      jumpi\n      returndatasize\n      0x00\n      dup1\n      returndatacopy\n      revert(0x00, returndatasize)\n    tag_190:\n      pop\n      pop\n      pop\n      pop\n      mload(0x40)\n      returndatasize\n      not(0x1f)\n      0x1f\n      dup3\n      add\n      and\n      dup3\n      add\n      dup1\n      0x40\n      mstore\n      pop\n      dup2\n      add\n      swap1\n      tag_191\n      swap2\n      swap1\n      tag_188\n      jump\t// in\n    tag_191:\n        /* \"contracts/CollateralManager.sol\":3911:3956  int256 usdtPrice = priceOracle.getUsdtPrice() */\n      swap1\n      pop\n        /* \"contracts/CollateralManager.sol\":4055:4077  uint256 celoValueInUsd */\n      0x00\n        /* \"contracts/CollateralManager.sol\":4120:4123  1e8 */\n      0x05f5e100\n        /* \"contracts/CollateralManager.sol\":4106:4115  celoPrice */\n      dup4\n        /* \"contracts/CollateralManager.sol\":4081:4095  celoCollateral */\n      dup7\n        /* \"contracts/CollateralManager.sol\":4081:4116  celoCollateral * uint256(celoPrice) */\n      tag_192\n      swap2\n      swap1\n      tag_193\n      jump\t// in\n    tag_192:\n        /* \"contracts/CollateralManager.sol\":4080:4123  (celoCollateral * uint256(celoPrice)) / 1e8 */\n      tag_194\n      swap2\n      swap1\n      tag_195\n      jump\t// in\n    tag_194:\n        /* \"contracts/CollateralManager.sol\":4055:4123  uint256 celoValueInUsd = (celoCollateral * uint256(celoPrice)) / 1e8 */\n      swap1\n      pop\n        /* \"contracts/CollateralManager.sol\":4158:4180  uint256 usdtValueInUsd */\n      0x00\n        /* \"contracts/CollateralManager.sol\":4223:4226  1e8 */\n      0x05f5e100\n        /* \"contracts/CollateralManager.sol\":4209:4218  usdtPrice */\n      dup4\n        /* \"contracts/CollateralManager.sol\":4184:4198  usdtCollateral */\n      dup7\n        /* \"contracts/CollateralManager.sol\":4184:4219  usdtCollateral * uint256(usdtPrice) */\n      tag_196\n      swap2\n      swap1\n      tag_193\n      jump\t// in\n    tag_196:\n        /* \"contracts/CollateralManager.sol\":4183:4226  (usdtCollateral * uint256(usdtPrice)) / 1e8 */\n      tag_197\n      swap2\n      swap1\n      tag_195\n      jump\t// in\n    tag_197:\n        /* \"contracts/CollateralManager.sol\":4158:4226  uint256 usdtValueInUsd = (usdtCollateral * uint256(usdtPrice)) / 1e8 */\n      swap1\n      pop\n        /* \"contracts/CollateralManager.sol\":4302:4316  usdtValueInUsd */\n      dup1\n        /* \"contracts/CollateralManager.sol\":4285:4299  celoValueInUsd */\n      dup3\n        /* \"contracts/CollateralManager.sol\":4285:4316  celoValueInUsd + usdtValueInUsd */\n      tag_198\n      swap2\n      swap1\n      tag_150\n      jump\t// in\n    tag_198:\n        /* \"contracts/CollateralManager.sol\":4262:4316  totalCollateralValue = celoValueInUsd + usdtValueInUsd */\n      swap7\n      pop\n        /* \"contracts/CollateralManager.sol\":3700:4323  {... */\n      pop\n      pop\n      pop\n      pop\n      pop\n      pop\n        /* \"contracts/CollateralManager.sol\":3599:4323  function getTotalCollateralValue(address _user) external view returns (uint256 totalCollateralValue) {... */\n      swap2\n      swap1\n      pop\n      jump\t// out\n        /* \"@openzeppelin/contracts/access/Ownable.sol\":2293:2394  function renounceOwnership() public virtual onlyOwner {... */\n    tag_77:\n        /* \"@openzeppelin/contracts/access/Ownable.sol\":1531:1544  _checkOwner() */\n      tag_200\n        /* \"@openzeppelin/contracts/access/Ownable.sol\":1531:1542  _checkOwner */\n      tag_157\n        /* \"@openzeppelin/contracts/access/Ownable.sol\":1531:1544  _checkOwner() */\n      jump\t// in\n    tag_200:\n        /* \"@openzeppelin/contracts/access/Ownable.sol\":2357:2387  _transferOwnership(address(0)) */\n      tag_202\n        /* \"@openzeppelin/contracts/access/Ownable.sol\":2384:2385  0 */\n      0x00\n        /* \"@openzeppelin/contracts/access/Ownable.sol\":2357:2375  _transferOwnership */\n      tag_203\n        /* \"@openzeppelin/contracts/access/Ownable.sol\":2357:2387  _transferOwnership(address(0)) */\n      jump\t// in\n    tag_202:\n        /* \"@openzeppelin/contracts/access/Ownable.sol\":2293:2394  function renounceOwnership() public virtual onlyOwner {... */\n      jump\t// out\n        /* \"contracts/CollateralManager.sol\":5882:5943  function pause() external onlyOwner {... */\n    tag_80:\n        /* \"@openzeppelin/contracts/access/Ownable.sol\":1531:1544  _checkOwner() */\n      tag_205\n        /* \"@openzeppelin/contracts/access/Ownable.sol\":1531:1542  _checkOwner */\n      tag_157\n        /* \"@openzeppelin/contracts/access/Ownable.sol\":1531:1544  _checkOwner() */\n      jump\t// in\n    tag_205:\n        /* \"contracts/CollateralManager.sol\":5928:5936  _pause() */\n      tag_207\n        /* \"contracts/CollateralManager.sol\":5928:5934  _pause */\n      tag_208\n        /* \"contracts/CollateralManager.sol\":5928:5936  _pause() */\n      jump\t// in\n    tag_207:\n        /* \"contracts/CollateralManager.sol\":5882:5943  function pause() external onlyOwner {... */\n      jump\t// out\n        /* \"@openzeppelin/contracts/access/Ownable.sol\":1638:1723  function owner() public view virtual returns (address) {... */\n    tag_83:\n        /* \"@openzeppelin/contracts/access/Ownable.sol\":1684:1691  address */\n      0x00\n        /* \"@openzeppelin/contracts/access/Ownable.sol\":1710:1716  _owner */\n      0x01\n      dup1\n      sload\n      swap1\n      0x0100\n      exp\n      swap1\n      div\n      0xffffffffffffffffffffffffffffffffffffffff\n      and\n        /* \"@openzeppelin/contracts/access/Ownable.sol\":1703:1716  return _owner */\n      swap1\n      pop\n        /* \"@openzeppelin/contracts/access/Ownable.sol\":1638:1723  function owner() public view virtual returns (address) {... */\n      swap1\n      jump\t// out\n        /* \"contracts/CollateralManager.sol\":1789:2317  function withdrawCeloCollateral(uint256 _amount) external nonReentrant whenNotPaused {... */\n    tag_89:\n        /* \"@openzeppelin/contracts/utils/ReentrancyGuard.sol\":2356:2377  _nonReentrantBefore() */\n      tag_211\n        /* \"@openzeppelin/contracts/utils/ReentrancyGuard.sol\":2356:2375  _nonReentrantBefore */\n      tag_132\n        /* \"@openzeppelin/contracts/utils/ReentrancyGuard.sol\":2356:2377  _nonReentrantBefore() */\n      jump\t// in\n    tag_211:\n        /* \"@openzeppelin/contracts/utils/Pausable.sol\":1474:1493  _requireNotPaused() */\n      tag_213\n        /* \"@openzeppelin/contracts/utils/Pausable.sol\":1474:1491  _requireNotPaused */\n      tag_135\n        /* \"@openzeppelin/contracts/utils/Pausable.sol\":1474:1493  _requireNotPaused() */\n      jump\t// in\n    tag_213:\n        /* \"contracts/CollateralManager.sol\":1961:1962  0 */\n      0x00\n        /* \"contracts/CollateralManager.sol\":1951:1958  _amount */\n      dup2\n        /* \"contracts/CollateralManager.sol\":1951:1962  _amount > 0 */\n      gt\n        /* \"contracts/CollateralManager.sol\":1943:2000  require(_amount > 0, \"CollateralManager: Invalid amount\") */\n      tag_215\n      jumpi\n      mload(0x40)\n      0x08c379a000000000000000000000000000000000000000000000000000000000\n      dup2\n      mstore\n      0x04\n      add\n      tag_216\n      swap1\n      tag_139\n      jump\t// in\n    tag_216:\n      mload(0x40)\n      dup1\n      swap2\n      sub\n      swap1\n      revert\n    tag_215:\n        /* \"contracts/CollateralManager.sol\":2052:2059  _amount */\n      dup1\n        /* \"contracts/CollateralManager.sol\":2018:2036  userCollateralCelo */\n      0x08\n        /* \"contracts/CollateralManager.sol\":2018:2048  userCollateralCelo[msg.sender] */\n      0x00\n        /* \"contracts/CollateralManager.sol\":2037:2047  msg.sender */\n      caller\n        /* \"contracts/CollateralManager.sol\":2018:2048  userCollateralCelo[msg.sender] */\n      0xffffffffffffffffffffffffffffffffffffffff\n      and\n      0xffffffffffffffffffffffffffffffffffffffff\n      and\n      dup2\n      mstore\n      0x20\n      add\n      swap1\n      dup2\n      mstore\n      0x20\n      add\n      0x00\n      keccak256\n      sload\n        /* \"contracts/CollateralManager.sol\":2018:2059  userCollateralCelo[msg.sender] >= _amount */\n      lt\n      iszero\n        /* \"contracts/CollateralManager.sol\":2010:2103  require(userCollateralCelo[msg.sender] >= _amount, \"CollateralManager: Insufficient balance\") */\n      tag_217\n      jumpi\n      mload(0x40)\n      0x08c379a000000000000000000000000000000000000000000000000000000000\n      dup2\n      mstore\n      0x04\n      add\n      tag_218\n      swap1\n      tag_170\n      jump\t// in\n    tag_218:\n      mload(0x40)\n      dup1\n      swap2\n      sub\n      swap1\n      revert\n    tag_217:\n        /* \"contracts/CollateralManager.sol\":2147:2154  _amount */\n      dup1\n        /* \"contracts/CollateralManager.sol\":2113:2131  userCollateralCelo */\n      0x08\n        /* \"contracts/CollateralManager.sol\":2113:2143  userCollateralCelo[msg.sender] */\n      0x00\n        /* \"contracts/CollateralManager.sol\":2132:2142  msg.sender */\n      caller\n        /* \"contracts/CollateralManager.sol\":2113:2143  userCollateralCelo[msg.sender] */\n      0xffffffffffffffffffffffffffffffffffffffff\n      and\n      0xffffffffffffffffffffffffffffffffffffffff\n      and\n      dup2\n      mstore\n      0x20\n      add\n      swap1\n      dup2\n      mstore\n      0x20\n      add\n      0x00\n      keccak256\n      0x00\n        /* \"contracts/CollateralManager.sol\":2113:2154  userCollateralCelo[msg.sender] -= _amount */\n      dup3\n      dup3\n      sload\n      tag_219\n      swap2\n      swap1\n      tag_172\n      jump\t// in\n    tag_219:\n      swap3\n      pop\n      pop\n      dup2\n      swap1\n      sstore\n      pop\n        /* \"contracts/CollateralManager.sol\":2187:2194  _amount */\n      dup1\n        /* \"contracts/CollateralManager.sol\":2164:2183  totalCollateralCelo */\n      0x04\n      0x00\n        /* \"contracts/CollateralManager.sol\":2164:2194  totalCollateralCelo -= _amount */\n      dup3\n      dup3\n      sload\n      tag_220\n      swap2\n      swap1\n      tag_172\n      jump\t// in\n    tag_220:\n      swap3\n      pop\n      pop\n      dup2\n      swap1\n      sstore\n      pop\n        /* \"contracts/CollateralManager.sol\":2212:2222  msg.sender */\n      caller\n        /* \"contracts/CollateralManager.sol\":2204:2232  payable(msg.sender).transfer */\n      0xffffffffffffffffffffffffffffffffffffffff\n      and\n        /* \"contracts/CollateralManager.sol\":2204:2241  payable(msg.sender).transfer(_amount) */\n      0x08fc\n        /* \"contracts/CollateralManager.sol\":2233:2240  _amount */\n      dup3\n        /* \"contracts/CollateralManager.sol\":2204:2241  payable(msg.sender).transfer(_amount) */\n      swap1\n      dup2\n      iszero\n      mul\n      swap1\n      mload(0x40)\n      0x00\n      mload(0x40)\n      dup1\n      dup4\n      sub\n      dup2\n      dup6\n      dup9\n      dup9\n      call\n      swap4\n      pop\n      pop\n      pop\n      pop\n      iszero\n      dup1\n      iszero\n      tag_222\n      jumpi\n      returndatasize\n      0x00\n      dup1\n      returndatacopy\n      revert(0x00, returndatasize)\n    tag_222:\n      pop\n        /* \"contracts/CollateralManager.sol\":2280:2290  msg.sender */\n      caller\n        /* \"contracts/CollateralManager.sol\":2256:2300  CeloCollateralWithdrawn(msg.sender, _amount) */\n      0xffffffffffffffffffffffffffffffffffffffff\n      and\n      0x0c3d79d31dc82080baf59ab3c3058c3c7c4f88f9969422caa1b42c51577d640b\n        /* \"contracts/CollateralManager.sol\":2292:2299  _amount */\n      dup3\n        /* \"contracts/CollateralManager.sol\":2256:2300  CeloCollateralWithdrawn(msg.sender, _amount) */\n      mload(0x40)\n      tag_223\n      swap2\n      swap1\n      tag_32\n      jump\t// in\n    tag_223:\n      mload(0x40)\n      dup1\n      swap2\n      sub\n      swap1\n      log2\n        /* \"@openzeppelin/contracts/utils/ReentrancyGuard.sol\":2398:2418  _nonReentrantAfter() */\n      tag_224\n        /* \"@openzeppelin/contracts/utils/ReentrancyGuard.sol\":2398:2416  _nonReentrantAfter */\n      tag_154\n        /* \"@openzeppelin/contracts/utils/ReentrancyGuard.sol\":2398:2418  _nonReentrantAfter() */\n      jump\t// in\n    tag_224:\n        /* \"contracts/CollateralManager.sol\":1789:2317  function withdrawCeloCollateral(uint256 _amount) external nonReentrant whenNotPaused {... */\n      pop\n      jump\t// out\n        /* \"contracts/CollateralManager.sol\":503:537  uint256 public totalCollateralUsdt */\n    tag_92:\n      sload(0x05)\n      dup2\n      jump\t// out\n        /* \"contracts/CollateralManager.sol\":5246:5851  function getTotalCollateralValueInUsd() external view returns (uint256 totalCollateralValue) {... */\n    tag_96:\n        /* \"contracts/CollateralManager.sol\":5309:5337  uint256 totalCollateralValue */\n      0x00\n        /* \"contracts/CollateralManager.sol\":5349:5365  int256 celoPrice */\n      dup1\n        /* \"contracts/CollateralManager.sol\":5368:5379  priceOracle */\n      0x03\n      0x00\n      swap1\n      sload\n      swap1\n      0x0100\n      exp\n      swap1\n      div\n      0xffffffffffffffffffffffffffffffffffffffff\n      and\n        /* \"contracts/CollateralManager.sol\":5368:5392  priceOracle.getCeloPrice */\n      0xffffffffffffffffffffffffffffffffffffffff\n      and\n      0x73544cfd\n        /* \"contracts/CollateralManager.sol\":5368:5394  priceOracle.getCeloPrice() */\n      mload(0x40)\n      dup2\n      0xffffffff\n      and\n      0xe0\n      shl\n      dup2\n      mstore\n      0x04\n      add\n      0x20\n      mload(0x40)\n      dup1\n      dup4\n      sub\n      dup2\n      dup7\n      gas\n      staticcall\n      iszero\n      dup1\n      iszero\n      tag_227\n      jumpi\n      returndatasize\n      0x00\n      dup1\n      returndatacopy\n      revert(0x00, returndatasize)\n    tag_227:\n      pop\n      pop\n      pop\n      pop\n      mload(0x40)\n      returndatasize\n      not(0x1f)\n      0x1f\n      dup3\n      add\n      and\n      dup3\n      add\n      dup1\n      0x40\n      mstore\n      pop\n      dup2\n      add\n      swap1\n      tag_228\n      swap2\n      swap1\n      tag_188\n      jump\t// in\n    tag_228:\n        /* \"contracts/CollateralManager.sol\":5349:5394  int256 celoPrice = priceOracle.getCeloPrice() */\n      swap1\n      pop\n        /* \"contracts/CollateralManager.sol\":5429:5445  int256 usdtPrice */\n      0x00\n        /* \"contracts/CollateralManager.sol\":5448:5459  priceOracle */\n      0x03\n      0x00\n      swap1\n      sload\n      swap1\n      0x0100\n      exp\n      swap1\n      div\n      0xffffffffffffffffffffffffffffffffffffffff\n      and\n        /* \"contracts/CollateralManager.sol\":5448:5472  priceOracle.getUsdtPrice */\n      0xffffffffffffffffffffffffffffffffffffffff\n      and\n      0x961bdfbf\n        /* \"contracts/CollateralManager.sol\":5448:5474  priceOracle.getUsdtPrice() */\n      mload(0x40)\n      dup2\n      0xffffffff\n      and\n      0xe0\n      shl\n      dup2\n      mstore\n      0x04\n      add\n      0x20\n      mload(0x40)\n      dup1\n      dup4\n      sub\n      dup2\n      dup7\n      gas\n      staticcall\n      iszero\n      dup1\n      iszero\n      tag_230\n      jumpi\n      returndatasize\n      0x00\n      dup1\n      returndatacopy\n      revert(0x00, returndatasize)\n    tag_230:\n      pop\n      pop\n      pop\n      pop\n      mload(0x40)\n      returndatasize\n      not(0x1f)\n      0x1f\n      dup3\n      add\n      and\n      dup3\n      add\n      dup1\n      0x40\n      mstore\n      pop\n      dup2\n      add\n      swap1\n      tag_231\n      swap2\n      swap1\n      tag_188\n      jump\t// in\n    tag_231:\n        /* \"contracts/CollateralManager.sol\":5429:5474  int256 usdtPrice = priceOracle.getUsdtPrice() */\n      swap1\n      pop\n        /* \"contracts/CollateralManager.sol\":5573:5595  uint256 celoValueInUsd */\n      0x00\n        /* \"contracts/CollateralManager.sol\":5643:5646  1e8 */\n      0x05f5e100\n        /* \"contracts/CollateralManager.sol\":5629:5638  celoPrice */\n      dup4\n        /* \"contracts/CollateralManager.sol\":5599:5618  totalCollateralCelo */\n      sload(0x04)\n        /* \"contracts/CollateralManager.sol\":5599:5639  totalCollateralCelo * uint256(celoPrice) */\n      tag_232\n      swap2\n      swap1\n      tag_193\n      jump\t// in\n    tag_232:\n        /* \"contracts/CollateralManager.sol\":5598:5646  (totalCollateralCelo * uint256(celoPrice)) / 1e8 */\n      tag_233\n      swap2\n      swap1\n      tag_195\n      jump\t// in\n    tag_233:\n        /* \"contracts/CollateralManager.sol\":5573:5646  uint256 celoValueInUsd = (totalCollateralCelo * uint256(celoPrice)) / 1e8 */\n      swap1\n      pop\n        /* \"contracts/CollateralManager.sol\":5681:5703  uint256 usdtValueInUsd */\n      0x00\n        /* \"contracts/CollateralManager.sol\":5751:5754  1e8 */\n      0x05f5e100\n        /* \"contracts/CollateralManager.sol\":5737:5746  usdtPrice */\n      dup4\n        /* \"contracts/CollateralManager.sol\":5707:5726  totalCollateralUsdt */\n      sload(0x05)\n        /* \"contracts/CollateralManager.sol\":5707:5747  totalCollateralUsdt * uint256(usdtPrice) */\n      tag_234\n      swap2\n      swap1\n      tag_193\n      jump\t// in\n    tag_234:\n        /* \"contracts/CollateralManager.sol\":5706:5754  (totalCollateralUsdt * uint256(usdtPrice)) / 1e8 */\n      tag_235\n      swap2\n      swap1\n      tag_195\n      jump\t// in\n    tag_235:\n        /* \"contracts/CollateralManager.sol\":5681:5754  uint256 usdtValueInUsd = (totalCollateralUsdt * uint256(usdtPrice)) / 1e8 */\n      swap1\n      pop\n        /* \"contracts/CollateralManager.sol\":5830:5844  usdtValueInUsd */\n      dup1\n        /* \"contracts/CollateralManager.sol\":5813:5827  celoValueInUsd */\n      dup3\n        /* \"contracts/CollateralManager.sol\":5813:5844  celoValueInUsd + usdtValueInUsd */\n      tag_236\n      swap2\n      swap1\n      tag_150\n      jump\t// in\n    tag_236:\n        /* \"contracts/CollateralManager.sol\":5790:5844  totalCollateralValue = celoValueInUsd + usdtValueInUsd */\n      swap5\n      pop\n        /* \"contracts/CollateralManager.sol\":5339:5851  {... */\n      pop\n      pop\n      pop\n      pop\n        /* \"contracts/CollateralManager.sol\":5246:5851  function getTotalCollateralValueInUsd() external view returns (uint256 totalCollateralValue) {... */\n      swap1\n      jump\t// out\n        /* \"contracts/CollateralManager.sol\":4849:5195  function getUsdtCollateralValue(address _user) external view returns (uint256 usdtCollateralValue) {... */\n    tag_101:\n        /* \"contracts/CollateralManager.sol\":4919:4946  uint256 usdtCollateralValue */\n      0x00\n        /* \"contracts/CollateralManager.sol\":4958:4980  uint256 usdtCollateral */\n      dup1\n        /* \"contracts/CollateralManager.sol\":4983:5001  userCollateralUsdt */\n      0x09\n        /* \"contracts/CollateralManager.sol\":4983:5008  userCollateralUsdt[_user] */\n      0x00\n        /* \"contracts/CollateralManager.sol\":5002:5007  _user */\n      dup5\n        /* \"contracts/CollateralManager.sol\":4983:5008  userCollateralUsdt[_user] */\n      0xffffffffffffffffffffffffffffffffffffffff\n      and\n      0xffffffffffffffffffffffffffffffffffffffff\n      and\n      dup2\n      mstore\n      0x20\n      add\n      swap1\n      dup2\n      mstore\n      0x20\n      add\n      0x00\n      keccak256\n      sload\n        /* \"contracts/CollateralManager.sol\":4958:5008  uint256 usdtCollateral = userCollateralUsdt[_user] */\n      swap1\n      pop\n        /* \"contracts/CollateralManager.sol\":5018:5034  int256 usdtPrice */\n      0x00\n        /* \"contracts/CollateralManager.sol\":5037:5048  priceOracle */\n      0x03\n      0x00\n      swap1\n      sload\n      swap1\n      0x0100\n      exp\n      swap1\n      div\n      0xffffffffffffffffffffffffffffffffffffffff\n      and\n        /* \"contracts/CollateralManager.sol\":5037:5061  priceOracle.getUsdtPrice */\n      0xffffffffffffffffffffffffffffffffffffffff\n      and\n      0x961bdfbf\n        /* \"contracts/CollateralManager.sol\":5037:5063  priceOracle.getUsdtPrice() */\n      mload(0x40)\n      dup2\n      0xffffffff\n      and\n      0xe0\n      shl\n      dup2\n      mstore\n      0x04\n      add\n      0x20\n      mload(0x40)\n      dup1\n      dup4\n      sub\n      dup2\n      dup7\n      gas\n      staticcall\n      iszero\n      dup1\n      iszero\n      tag_239\n      jumpi\n      returndatasize\n      0x00\n      dup1\n      returndatacopy\n      revert(0x00, returndatasize)\n    tag_239:\n      pop\n      pop\n      pop\n      pop\n      mload(0x40)\n      returndatasize\n      not(0x1f)\n      0x1f\n      dup3\n      add\n      and\n      dup3\n      add\n      dup1\n      0x40\n      mstore\n      pop\n      dup2\n      add\n      swap1\n      tag_240\n      swap2\n      swap1\n      tag_188\n      jump\t// in\n    tag_240:\n        /* \"contracts/CollateralManager.sol\":5018:5063  int256 usdtPrice = priceOracle.getUsdtPrice() */\n      swap1\n      pop\n        /* \"contracts/CollateralManager.sol\":5160:5163  1e8 */\n      0x05f5e100\n        /* \"contracts/CollateralManager.sol\":5146:5155  usdtPrice */\n      dup2\n        /* \"contracts/CollateralManager.sol\":5121:5135  usdtCollateral */\n      dup4\n        /* \"contracts/CollateralManager.sol\":5121:5156  usdtCollateral * uint256(usdtPrice) */\n      tag_241\n      swap2\n      swap1\n      tag_193\n      jump\t// in\n    tag_241:\n        /* \"contracts/CollateralManager.sol\":5120:5163  (usdtCollateral * uint256(usdtPrice)) / 1e8 */\n      tag_242\n      swap2\n      swap1\n      tag_195\n      jump\t// in\n    tag_242:\n        /* \"contracts/CollateralManager.sol\":5098:5163  usdtCollateralValue = (usdtCollateral * uint256(usdtPrice)) / 1e8 */\n      swap3\n      pop\n        /* \"contracts/CollateralManager.sol\":4948:5195  {... */\n      pop\n      pop\n        /* \"contracts/CollateralManager.sol\":4849:5195  function getUsdtCollateralValue(address _user) external view returns (uint256 usdtCollateralValue) {... */\n      swap2\n      swap1\n      pop\n      jump\t// out\n        /* \"contracts/CollateralManager.sol\":709:762  mapping(address => uint256) public userCollateralCelo */\n    tag_106:\n      mstore(0x20, 0x08)\n      dup1\n      0x00\n      mstore\n      keccak256(0x00, 0x40)\n      0x00\n      swap2\n      pop\n      swap1\n      pop\n      sload\n      dup2\n      jump\t// out\n        /* \"contracts/CollateralManager.sol\":390:413  IERC20 public usdtToken */\n    tag_110:\n      0x02\n      0x00\n      swap1\n      sload\n      swap1\n      0x0100\n      exp\n      swap1\n      div\n      0xffffffffffffffffffffffffffffffffffffffff\n      and\n      dup2\n      jump\t// out\n        /* \"contracts/CollateralManager.sol\":768:821  mapping(address => uint256) public userCollateralUsdt */\n    tag_116:\n      mstore(0x20, 0x09)\n      dup1\n      0x00\n      mstore\n      keccak256(0x00, 0x40)\n      0x00\n      swap2\n      pop\n      swap1\n      pop\n      sload\n      dup2\n      jump\t// out\n        /* \"contracts/CollateralManager.sol\":1325:1783  function depositCeloCollateral() external payable nonReentrant whenNotPaused {... */\n    tag_119:\n        /* \"@openzeppelin/contracts/utils/ReentrancyGuard.sol\":2356:2377  _nonReentrantBefore() */\n      tag_244\n        /* \"@openzeppelin/contracts/utils/ReentrancyGuard.sol\":2356:2375  _nonReentrantBefore */\n      tag_132\n        /* \"@openzeppelin/contracts/utils/ReentrancyGuard.sol\":2356:2377  _nonReentrantBefore() */\n      jump\t// in\n    tag_244:\n        /* \"@openzeppelin/contracts/utils/Pausable.sol\":1474:1493  _requireNotPaused() */\n      tag_246\n        /* \"@openzeppelin/contracts/utils/Pausable.sol\":1474:1491  _requireNotPaused */\n      tag_135\n        /* \"@openzeppelin/contracts/utils/Pausable.sol\":1474:1493  _requireNotPaused() */\n      jump\t// in\n    tag_246:\n        /* \"contracts/CollateralManager.sol\":1432:1451  minCollateralAmount */\n      sload(0x06)\n        /* \"contracts/CollateralManager.sol\":1420:1429  msg.value */\n      callvalue\n        /* \"contracts/CollateralManager.sol\":1420:1451  msg.value > minCollateralAmount */\n      gt\n        /* \"contracts/CollateralManager.sol\":1412:1489  require(msg.value > minCollateralAmount, \"CollateralManager: Invalid amount\") */\n      tag_248\n      jumpi\n      mload(0x40)\n      0x08c379a000000000000000000000000000000000000000000000000000000000\n      dup2\n      mstore\n      0x04\n      add\n      tag_249\n      swap1\n      tag_139\n      jump\t// in\n    tag_249:\n      mload(0x40)\n      dup1\n      swap2\n      sub\n      swap1\n      revert\n    tag_248:\n        /* \"contracts/CollateralManager.sol\":1570:1579  msg.value */\n      callvalue\n        /* \"contracts/CollateralManager.sol\":1536:1554  userCollateralCelo */\n      0x08\n        /* \"contracts/CollateralManager.sol\":1536:1566  userCollateralCelo[msg.sender] */\n      0x00\n        /* \"contracts/CollateralManager.sol\":1555:1565  msg.sender */\n      caller\n        /* \"contracts/CollateralManager.sol\":1536:1566  userCollateralCelo[msg.sender] */\n      0xffffffffffffffffffffffffffffffffffffffff\n      and\n      0xffffffffffffffffffffffffffffffffffffffff\n      and\n      dup2\n      mstore\n      0x20\n      add\n      swap1\n      dup2\n      mstore\n      0x20\n      add\n      0x00\n      keccak256\n      0x00\n        /* \"contracts/CollateralManager.sol\":1536:1579  userCollateralCelo[msg.sender] += msg.value */\n      dup3\n      dup3\n      sload\n      tag_250\n      swap2\n      swap1\n      tag_150\n      jump\t// in\n    tag_250:\n      swap3\n      pop\n      pop\n      dup2\n      swap1\n      sstore\n      pop\n        /* \"contracts/CollateralManager.sol\":1651:1660  msg.value */\n      callvalue\n        /* \"contracts/CollateralManager.sol\":1628:1647  totalCollateralCelo */\n      0x04\n      0x00\n        /* \"contracts/CollateralManager.sol\":1628:1660  totalCollateralCelo += msg.value */\n      dup3\n      dup3\n      sload\n      tag_251\n      swap2\n      swap1\n      tag_150\n      jump\t// in\n    tag_251:\n      swap3\n      pop\n      pop\n      dup2\n      swap1\n      sstore\n      pop\n        /* \"contracts/CollateralManager.sol\":1737:1747  msg.sender */\n      caller\n        /* \"contracts/CollateralManager.sol\":1713:1759  CeloCollateralDeposited(msg.sender, msg.value) */\n      0xffffffffffffffffffffffffffffffffffffffff\n      and\n      0xf5bfa8a3f6a61792f266e3e92249facce14edf2b5fceeba5cb6cd0882593a9da\n        /* \"contracts/CollateralManager.sol\":1749:1758  msg.value */\n      callvalue\n        /* \"contracts/CollateralManager.sol\":1713:1759  CeloCollateralDeposited(msg.sender, msg.value) */\n      mload(0x40)\n      tag_252\n      swap2\n      swap1\n      tag_32\n      jump\t// in\n    tag_252:\n      mload(0x40)\n      dup1\n      swap2\n      sub\n      swap1\n      log2\n        /* \"@openzeppelin/contracts/utils/ReentrancyGuard.sol\":2398:2418  _nonReentrantAfter() */\n      tag_253\n        /* \"@openzeppelin/contracts/utils/ReentrancyGuard.sol\":2398:2416  _nonReentrantAfter */\n      tag_154\n        /* \"@openzeppelin/contracts/utils/ReentrancyGuard.sol\":2398:2418  _nonReentrantAfter() */\n      jump\t// in\n    tag_253:\n        /* \"contracts/CollateralManager.sol\":1325:1783  function depositCeloCollateral() external payable nonReentrant whenNotPaused {... */\n      jump\t// out\n        /* \"contracts/CollateralManager.sol\":4413:4759  function getCeloCollateralValue(address _user) external view returns (uint256 celoCollateralValue) {... */\n    tag_123:\n        /* \"contracts/CollateralManager.sol\":4483:4510  uint256 celoCollateralValue */\n      0x00\n        /* \"contracts/CollateralManager.sol\":4522:4544  uint256 celoCollateral */\n      dup1\n        /* \"contracts/CollateralManager.sol\":4547:4565  userCollateralCelo */\n      0x08\n        /* \"contracts/CollateralManager.sol\":4547:4572  userCollateralCelo[_user] */\n      0x00\n        /* \"contracts/CollateralManager.sol\":4566:4571  _user */\n      dup5\n        /* \"contracts/CollateralManager.sol\":4547:4572  userCollateralCelo[_user] */\n      0xffffffffffffffffffffffffffffffffffffffff\n      and\n      0xffffffffffffffffffffffffffffffffffffffff\n      and\n      dup2\n      mstore\n      0x20\n      add\n      swap1\n      dup2\n      mstore\n      0x20\n      add\n      0x00\n      keccak256\n      sload\n        /* \"contracts/CollateralManager.sol\":4522:4572  uint256 celoCollateral = userCollateralCelo[_user] */\n      swap1\n      pop\n        /* \"contracts/CollateralManager.sol\":4582:4598  int256 celoPrice */\n      0x00\n        /* \"contracts/CollateralManager.sol\":4601:4612  priceOracle */\n      0x03\n      0x00\n      swap1\n      sload\n      swap1\n      0x0100\n      exp\n      swap1\n      div\n      0xffffffffffffffffffffffffffffffffffffffff\n      and\n        /* \"contracts/CollateralManager.sol\":4601:4625  priceOracle.getCeloPrice */\n      0xffffffffffffffffffffffffffffffffffffffff\n      and\n      0x73544cfd\n        /* \"contracts/CollateralManager.sol\":4601:4627  priceOracle.getCeloPrice() */\n      mload(0x40)\n      dup2\n      0xffffffff\n      and\n      0xe0\n      shl\n      dup2\n      mstore\n      0x04\n      add\n      0x20\n      mload(0x40)\n      dup1\n      dup4\n      sub\n      dup2\n      dup7\n      gas\n      staticcall\n      iszero\n      dup1\n      iszero\n      tag_256\n      jumpi\n      returndatasize\n      0x00\n      dup1\n      returndatacopy\n      revert(0x00, returndatasize)\n    tag_256:\n      pop\n      pop\n      pop\n      pop\n      mload(0x40)\n      returndatasize\n      not(0x1f)\n      0x1f\n      dup3\n      add\n      and\n      dup3\n      add\n      dup1\n      0x40\n      mstore\n      pop\n      dup2\n      add\n      swap1\n      tag_257\n      swap2\n      swap1\n      tag_188\n      jump\t// in\n    tag_257:\n        /* \"contracts/CollateralManager.sol\":4582:4627  int256 celoPrice = priceOracle.getCeloPrice() */\n      swap1\n      pop\n        /* \"contracts/CollateralManager.sol\":4724:4727  1e8 */\n      0x05f5e100\n        /* \"contracts/CollateralManager.sol\":4710:4719  celoPrice */\n      dup2\n        /* \"contracts/CollateralManager.sol\":4685:4699  celoCollateral */\n      dup4\n        /* \"contracts/CollateralManager.sol\":4685:4720  celoCollateral * uint256(celoPrice) */\n      tag_258\n      swap2\n      swap1\n      tag_193\n      jump\t// in\n    tag_258:\n        /* \"contracts/CollateralManager.sol\":4684:4727  (celoCollateral * uint256(celoPrice)) / 1e8 */\n      tag_259\n      swap2\n      swap1\n      tag_195\n      jump\t// in\n    tag_259:\n        /* \"contracts/CollateralManager.sol\":4662:4727  celoCollateralValue = (celoCollateral * uint256(celoPrice)) / 1e8 */\n      swap3\n      pop\n        /* \"contracts/CollateralManager.sol\":4512:4759  {... */\n      pop\n      pop\n        /* \"contracts/CollateralManager.sol\":4413:4759  function getCeloCollateralValue(address _user) external view returns (uint256 celoCollateralValue) {... */\n      swap2\n      swap1\n      pop\n      jump\t// out\n        /* \"@openzeppelin/contracts/access/Ownable.sol\":2543:2758  function transferOwnership(address newOwner) public virtual onlyOwner {... */\n    tag_128:\n        /* \"@openzeppelin/contracts/access/Ownable.sol\":1531:1544  _checkOwner() */\n      tag_261\n        /* \"@openzeppelin/contracts/access/Ownable.sol\":1531:1542  _checkOwner */\n      tag_157\n        /* \"@openzeppelin/contracts/access/Ownable.sol\":1531:1544  _checkOwner() */\n      jump\t// in\n    tag_261:\n        /* \"@openzeppelin/contracts/access/Ownable.sol\":2647:2648  0 */\n      0x00\n        /* \"@openzeppelin/contracts/access/Ownable.sol\":2627:2649  newOwner == address(0) */\n      0xffffffffffffffffffffffffffffffffffffffff\n      and\n        /* \"@openzeppelin/contracts/access/Ownable.sol\":2627:2635  newOwner */\n      dup2\n        /* \"@openzeppelin/contracts/access/Ownable.sol\":2627:2649  newOwner == address(0) */\n      0xffffffffffffffffffffffffffffffffffffffff\n      and\n      sub\n        /* \"@openzeppelin/contracts/access/Ownable.sol\":2623:2714  if (newOwner == address(0)) {... */\n      tag_263\n      jumpi\n        /* \"@openzeppelin/contracts/access/Ownable.sol\":2700:2701  0 */\n      0x00\n        /* \"@openzeppelin/contracts/access/Ownable.sol\":2672:2703  OwnableInvalidOwner(address(0)) */\n      mload(0x40)\n      0x1e4fbdf700000000000000000000000000000000000000000000000000000000\n      dup2\n      mstore\n      0x04\n      add\n      tag_264\n      swap2\n      swap1\n      tag_85\n      jump\t// in\n    tag_264:\n      mload(0x40)\n      dup1\n      swap2\n      sub\n      swap1\n      revert\n        /* \"@openzeppelin/contracts/access/Ownable.sol\":2623:2714  if (newOwner == address(0)) {... */\n    tag_263:\n        /* \"@openzeppelin/contracts/access/Ownable.sol\":2723:2751  _transferOwnership(newOwner) */\n      tag_265\n        /* \"@openzeppelin/contracts/access/Ownable.sol\":2742:2750  newOwner */\n      dup2\n        /* \"@openzeppelin/contracts/access/Ownable.sol\":2723:2741  _transferOwnership */\n      tag_203\n        /* \"@openzeppelin/contracts/access/Ownable.sol\":2723:2751  _transferOwnership(newOwner) */\n      jump\t// in\n    tag_265:\n        /* \"@openzeppelin/contracts/access/Ownable.sol\":2543:2758  function transferOwnership(address newOwner) public virtual onlyOwner {... */\n      pop\n      jump\t// out\n        /* \"@openzeppelin/contracts/utils/ReentrancyGuard.sol\":2431:2738  function _nonReentrantBefore() private {... */\n    tag_132:\n        /* \"@openzeppelin/contracts/utils/ReentrancyGuard.sol\":1755:1756  2 */\n      0x02\n        /* \"@openzeppelin/contracts/utils/ReentrancyGuard.sol\":2558:2565  _status */\n      sload(0x00)\n        /* \"@openzeppelin/contracts/utils/ReentrancyGuard.sol\":2558:2576  _status == ENTERED */\n      sub\n        /* \"@openzeppelin/contracts/utils/ReentrancyGuard.sol\":2554:2640  if (_status == ENTERED) {... */\n      tag_267\n      jumpi\n        /* \"@openzeppelin/contracts/utils/ReentrancyGuard.sol\":2599:2629  ReentrancyGuardReentrantCall() */\n      mload(0x40)\n      0x3ee5aeb500000000000000000000000000000000000000000000000000000000\n      dup2\n      mstore\n      0x04\n      add\n      mload(0x40)\n      dup1\n      swap2\n      sub\n      swap1\n      revert\n        /* \"@openzeppelin/contracts/utils/ReentrancyGuard.sol\":2554:2640  if (_status == ENTERED) {... */\n    tag_267:\n        /* \"@openzeppelin/contracts/utils/ReentrancyGuard.sol\":1755:1756  2 */\n      0x02\n        /* \"@openzeppelin/contracts/utils/ReentrancyGuard.sol\":2714:2721  _status */\n      0x00\n        /* \"@openzeppelin/contracts/utils/ReentrancyGuard.sol\":2714:2731  _status = ENTERED */\n      dup2\n      swap1\n      sstore\n      pop\n        /* \"@openzeppelin/contracts/utils/ReentrancyGuard.sol\":2431:2738  function _nonReentrantBefore() private {... */\n      jump\t// out\n        /* \"@openzeppelin/contracts/utils/Pausable.sol\":2002:2130  function _requireNotPaused() internal view virtual {... */\n    tag_135:\n        /* \"@openzeppelin/contracts/utils/Pausable.sol\":2067:2075  paused() */\n      tag_269\n        /* \"@openzeppelin/contracts/utils/Pausable.sol\":2067:2073  paused */\n      tag_63\n        /* \"@openzeppelin/contracts/utils/Pausable.sol\":2067:2075  paused() */\n      jump\t// in\n    tag_269:\n        /* \"@openzeppelin/contracts/utils/Pausable.sol\":2063:2124  if (paused()) {... */\n      iszero\n      tag_270\n      jumpi\n        /* \"@openzeppelin/contracts/utils/Pausable.sol\":2098:2113  EnforcedPause() */\n      mload(0x40)\n      0xd93c066500000000000000000000000000000000000000000000000000000000\n      dup2\n      mstore\n      0x04\n      add\n      mload(0x40)\n      dup1\n      swap2\n      sub\n      swap1\n      revert\n        /* \"@openzeppelin/contracts/utils/Pausable.sol\":2063:2124  if (paused()) {... */\n    tag_270:\n        /* \"@openzeppelin/contracts/utils/Pausable.sol\":2002:2130  function _requireNotPaused() internal view virtual {... */\n      jump\t// out\n        /* \"@openzeppelin/contracts/utils/ReentrancyGuard.sol\":2744:2952  function _nonReentrantAfter() private {... */\n    tag_154:\n        /* \"@openzeppelin/contracts/utils/ReentrancyGuard.sol\":1713:1714  1 */\n      0x01\n        /* \"@openzeppelin/contracts/utils/ReentrancyGuard.sol\":2924:2931  _status */\n      0x00\n        /* \"@openzeppelin/contracts/utils/ReentrancyGuard.sol\":2924:2945  _status = NOT_ENTERED */\n      dup2\n      swap1\n      sstore\n      pop\n        /* \"@openzeppelin/contracts/utils/ReentrancyGuard.sol\":2744:2952  function _nonReentrantAfter() private {... */\n      jump\t// out\n        /* \"@openzeppelin/contracts/access/Ownable.sol\":1796:1958  function _checkOwner() internal view virtual {... */\n    tag_157:\n        /* \"@openzeppelin/contracts/access/Ownable.sol\":1866:1878  _msgSender() */\n      tag_273\n        /* \"@openzeppelin/contracts/access/Ownable.sol\":1866:1876  _msgSender */\n      tag_274\n        /* \"@openzeppelin/contracts/access/Ownable.sol\":1866:1878  _msgSender() */\n      jump\t// in\n    tag_273:\n        /* \"@openzeppelin/contracts/access/Ownable.sol\":1855:1878  owner() != _msgSender() */\n      0xffffffffffffffffffffffffffffffffffffffff\n      and\n        /* \"@openzeppelin/contracts/access/Ownable.sol\":1855:1862  owner() */\n      tag_275\n        /* \"@openzeppelin/contracts/access/Ownable.sol\":1855:1860  owner */\n      tag_83\n        /* \"@openzeppelin/contracts/access/Ownable.sol\":1855:1862  owner() */\n      jump\t// in\n    tag_275:\n        /* \"@openzeppelin/contracts/access/Ownable.sol\":1855:1878  owner() != _msgSender() */\n      0xffffffffffffffffffffffffffffffffffffffff\n      and\n      eq\n        /* \"@openzeppelin/contracts/access/Ownable.sol\":1851:1952  if (owner() != _msgSender()) {... */\n      tag_276\n      jumpi\n        /* \"@openzeppelin/contracts/access/Ownable.sol\":1928:1940  _msgSender() */\n      tag_277\n        /* \"@openzeppelin/contracts/access/Ownable.sol\":1928:1938  _msgSender */\n      tag_274\n        /* \"@openzeppelin/contracts/access/Ownable.sol\":1928:1940  _msgSender() */\n      jump\t// in\n    tag_277:\n        /* \"@openzeppelin/contracts/access/Ownable.sol\":1901:1941  OwnableUnauthorizedAccount(_msgSender()) */\n      mload(0x40)\n      0x118cdaa700000000000000000000000000000000000000000000000000000000\n      dup2\n      mstore\n      0x04\n      add\n      tag_278\n      swap2\n      swap1\n      tag_85\n      jump\t// in\n    tag_278:\n      mload(0x40)\n      dup1\n      swap2\n      sub\n      swap1\n      revert\n        /* \"@openzeppelin/contracts/access/Ownable.sol\":1851:1952  if (owner() != _msgSender()) {... */\n    tag_276:\n        /* \"@openzeppelin/contracts/access/Ownable.sol\":1796:1958  function _checkOwner() internal view virtual {... */\n      jump\t// out\n        /* \"@openzeppelin/contracts/utils/Pausable.sol\":2710:2827  function _unpause() internal virtual whenPaused {... */\n    tag_160:\n        /* \"@openzeppelin/contracts/utils/Pausable.sol\":1721:1737  _requirePaused() */\n      tag_280\n        /* \"@openzeppelin/contracts/utils/Pausable.sol\":1721:1735  _requirePaused */\n      tag_281\n        /* \"@openzeppelin/contracts/utils/Pausable.sol\":1721:1737  _requirePaused() */\n      jump\t// in\n    tag_280:\n        /* \"@openzeppelin/contracts/utils/Pausable.sol\":2778:2783  false */\n      0x00\n        /* \"@openzeppelin/contracts/utils/Pausable.sol\":2768:2775  _paused */\n      0x01\n      0x00\n        /* \"@openzeppelin/contracts/utils/Pausable.sol\":2768:2783  _paused = false */\n      0x0100\n      exp\n      dup2\n      sload\n      dup2\n      0xff\n      mul\n      not\n      and\n      swap1\n      dup4\n      iszero\n      iszero\n      mul\n      or\n      swap1\n      sstore\n      pop\n        /* \"@openzeppelin/contracts/utils/Pausable.sol\":2798:2820  Unpaused(_msgSender()) */\n      0x5db9ee0a495bf2e6ff9c91a7834c1ba4fdd244a5e8aa4e537bd38aeae4b073aa\n        /* \"@openzeppelin/contracts/utils/Pausable.sol\":2807:2819  _msgSender() */\n      tag_283\n        /* \"@openzeppelin/contracts/utils/Pausable.sol\":2807:2817  _msgSender */\n      tag_274\n        /* \"@openzeppelin/contracts/utils/Pausable.sol\":2807:2819  _msgSender() */\n      jump\t// in\n    tag_283:\n        /* \"@openzeppelin/contracts/utils/Pausable.sol\":2798:2820  Unpaused(_msgSender()) */\n      mload(0x40)\n      tag_284\n      swap2\n      swap1\n      tag_85\n      jump\t// in\n    tag_284:\n      mload(0x40)\n      dup1\n      swap2\n      sub\n      swap1\n      log1\n        /* \"@openzeppelin/contracts/utils/Pausable.sol\":2710:2827  function _unpause() internal virtual whenPaused {... */\n      jump\t// out\n        /* \"@openzeppelin/contracts/access/Ownable.sol\":2912:3099  function _transferOwnership(address newOwner) internal virtual {... */\n    tag_203:\n        /* \"@openzeppelin/contracts/access/Ownable.sol\":2985:3001  address oldOwner */\n      0x00\n        /* \"@openzeppelin/contracts/access/Ownable.sol\":3004:3010  _owner */\n      0x01\n      dup1\n      sload\n      swap1\n      0x0100\n      exp\n      swap1\n      div\n      0xffffffffffffffffffffffffffffffffffffffff\n      and\n        /* \"@openzeppelin/contracts/access/Ownable.sol\":2985:3010  address oldOwner = _owner */\n      swap1\n      pop\n        /* \"@openzeppelin/contracts/access/Ownable.sol\":3029:3037  newOwner */\n      dup2\n        /* \"@openzeppelin/contracts/access/Ownable.sol\":3020:3026  _owner */\n      0x01\n      dup1\n        /* \"@openzeppelin/contracts/access/Ownable.sol\":3020:3037  _owner = newOwner */\n      0x0100\n      exp\n      dup2\n      sload\n      dup2\n      0xffffffffffffffffffffffffffffffffffffffff\n      mul\n      not\n      and\n      swap1\n      dup4\n      0xffffffffffffffffffffffffffffffffffffffff\n      and\n      mul\n      or\n      swap1\n      sstore\n      pop\n        /* \"@openzeppelin/contracts/access/Ownable.sol\":3083:3091  newOwner */\n      dup2\n        /* \"@openzeppelin/contracts/access/Ownable.sol\":3052:3092  OwnershipTransferred(oldOwner, newOwner) */\n      0xffffffffffffffffffffffffffffffffffffffff\n      and\n        /* \"@openzeppelin/contracts/access/Ownable.sol\":3073:3081  oldOwner */\n      dup2\n        /* \"@openzeppelin/contracts/access/Ownable.sol\":3052:3092  OwnershipTransferred(oldOwner, newOwner) */\n      0xffffffffffffffffffffffffffffffffffffffff\n      and\n      0x8be0079c531659141344cd1fd0a4f28419497f9722a3daafe3b4186f6b6457e0\n      mload(0x40)\n      mload(0x40)\n      dup1\n      swap2\n      sub\n      swap1\n      log3\n        /* \"@openzeppelin/contracts/access/Ownable.sol\":2975:3099  {... */\n      pop\n        /* \"@openzeppelin/contracts/access/Ownable.sol\":2912:3099  function _transferOwnership(address newOwner) internal virtual {... */\n      pop\n      jump\t// out\n        /* \"@openzeppelin/contracts/utils/Pausable.sol\":2463:2578  function _pause() internal virtual whenNotPaused {... */\n    tag_208:\n        /* \"@openzeppelin/contracts/utils/Pausable.sol\":1474:1493  _requireNotPaused() */\n      tag_287\n        /* \"@openzeppelin/contracts/utils/Pausable.sol\":1474:1491  _requireNotPaused */\n      tag_135\n        /* \"@openzeppelin/contracts/utils/Pausable.sol\":1474:1493  _requireNotPaused() */\n      jump\t// in\n    tag_287:\n        /* \"@openzeppelin/contracts/utils/Pausable.sol\":2532:2536  true */\n      0x01\n        /* \"@openzeppelin/contracts/utils/Pausable.sol\":2522:2529  _paused */\n      dup1\n      0x00\n        /* \"@openzeppelin/contracts/utils/Pausable.sol\":2522:2536  _paused = true */\n      0x0100\n      exp\n      dup2\n      sload\n      dup2\n      0xff\n      mul\n      not\n      and\n      swap1\n      dup4\n      iszero\n      iszero\n      mul\n      or\n      swap1\n      sstore\n      pop\n        /* \"@openzeppelin/contracts/utils/Pausable.sol\":2551:2571  Paused(_msgSender()) */\n      0x62e78cea01bee320cd4e420270b5ea74000d11b0c9f74754ebdbfc544b05a258\n        /* \"@openzeppelin/contracts/utils/Pausable.sol\":2558:2570  _msgSender() */\n      tag_289\n        /* \"@openzeppelin/contracts/utils/Pausable.sol\":2558:2568  _msgSender */\n      tag_274\n        /* \"@openzeppelin/contracts/utils/Pausable.sol\":2558:2570  _msgSender() */\n      jump\t// in\n    tag_289:\n        /* \"@openzeppelin/contracts/utils/Pausable.sol\":2551:2571  Paused(_msgSender()) */\n      mload(0x40)\n      tag_290\n      swap2\n      swap1\n      tag_85\n      jump\t// in\n    tag_290:\n      mload(0x40)\n      dup1\n      swap2\n      sub\n      swap1\n      log1\n        /* \"@openzeppelin/contracts/utils/Pausable.sol\":2463:2578  function _pause() internal virtual whenNotPaused {... */\n      jump\t// out\n        /* \"@openzeppelin/contracts/utils/Context.sol\":656:752  function _msgSender() internal view virtual returns (address) {... */\n    tag_274:\n        /* \"@openzeppelin/contracts/utils/Context.sol\":709:716  address */\n      0x00\n        /* \"@openzeppelin/contracts/utils/Context.sol\":735:745  msg.sender */\n      caller\n        /* \"@openzeppelin/contracts/utils/Context.sol\":728:745  return msg.sender */\n      swap1\n      pop\n        /* \"@openzeppelin/contracts/utils/Context.sol\":656:752  function _msgSender() internal view virtual returns (address) {... */\n      swap1\n      jump\t// out\n        /* \"@openzeppelin/contracts/utils/Pausable.sol\":2202:2328  function _requirePaused() internal view virtual {... */\n    tag_281:\n        /* \"@openzeppelin/contracts/utils/Pausable.sol\":2265:2273  paused() */\n      tag_293\n        /* \"@openzeppelin/contracts/utils/Pausable.sol\":2265:2271  paused */\n      tag_63\n        /* \"@openzeppelin/contracts/utils/Pausable.sol\":2265:2273  paused() */\n      jump\t// in\n    tag_293:\n        /* \"@openzeppelin/contracts/utils/Pausable.sol\":2260:2322  if (!paused()) {... */\n      tag_294\n      jumpi\n        /* \"@openzeppelin/contracts/utils/Pausable.sol\":2296:2311  ExpectedPause() */\n      mload(0x40)\n      0x8dfc202b00000000000000000000000000000000000000000000000000000000\n      dup2\n      mstore\n      0x04\n      add\n      mload(0x40)\n      dup1\n      swap2\n      sub\n      swap1\n      revert\n        /* \"@openzeppelin/contracts/utils/Pausable.sol\":2260:2322  if (!paused()) {... */\n    tag_294:\n        /* \"@openzeppelin/contracts/utils/Pausable.sol\":2202:2328  function _requirePaused() internal view virtual {... */\n      jump\t// out\n        /* \"#utility.yul\":7:84   */\n    tag_295:\n        /* \"#utility.yul\":44:51   */\n      0x00\n        /* \"#utility.yul\":73:78   */\n      dup2\n        /* \"#utility.yul\":62:78   */\n      swap1\n      pop\n        /* \"#utility.yul\":7:84   */\n      swap2\n      swap1\n      pop\n      jump\t// out\n        /* \"#utility.yul\":90:208   */\n    tag_296:\n        /* \"#utility.yul\":177:201   */\n      tag_333\n        /* \"#utility.yul\":195:200   */\n      dup2\n        /* \"#utility.yul\":177:201   */\n      tag_295\n      jump\t// in\n    tag_333:\n        /* \"#utility.yul\":172:175   */\n      dup3\n        /* \"#utility.yul\":165:202   */\n      mstore\n        /* \"#utility.yul\":90:208   */\n      pop\n      pop\n      jump\t// out\n        /* \"#utility.yul\":214:436   */\n    tag_32:\n        /* \"#utility.yul\":307:311   */\n      0x00\n        /* \"#utility.yul\":345:347   */\n      0x20\n        /* \"#utility.yul\":334:343   */\n      dup3\n        /* \"#utility.yul\":330:348   */\n      add\n        /* \"#utility.yul\":322:348   */\n      swap1\n      pop\n        /* \"#utility.yul\":358:429   */\n      tag_335\n        /* \"#utility.yul\":426:427   */\n      0x00\n        /* \"#utility.yul\":415:424   */\n      dup4\n        /* \"#utility.yul\":411:428   */\n      add\n        /* \"#utility.yul\":402:408   */\n      dup5\n        /* \"#utility.yul\":358:429   */\n      tag_296\n      jump\t// in\n    tag_335:\n        /* \"#utility.yul\":214:436   */\n      swap3\n      swap2\n      pop\n      pop\n      jump\t// out\n        /* \"#utility.yul\":442:568   */\n    tag_297:\n        /* \"#utility.yul\":479:486   */\n      0x00\n        /* \"#utility.yul\":519:561   */\n      0xffffffffffffffffffffffffffffffffffffffff\n        /* \"#utility.yul\":512:517   */\n      dup3\n        /* \"#utility.yul\":508:562   */\n      and\n        /* \"#utility.yul\":497:562   */\n      swap1\n      pop\n        /* \"#utility.yul\":442:568   */\n      swap2\n      swap1\n      pop\n      jump\t// out\n        /* \"#utility.yul\":574:634   */\n    tag_298:\n        /* \"#utility.yul\":602:605   */\n      0x00\n        /* \"#utility.yul\":623:628   */\n      dup2\n        /* \"#utility.yul\":616:628   */\n      swap1\n      pop\n        /* \"#utility.yul\":574:634   */\n      swap2\n      swap1\n      pop\n      jump\t// out\n        /* \"#utility.yul\":640:782   */\n    tag_299:\n        /* \"#utility.yul\":690:699   */\n      0x00\n        /* \"#utility.yul\":723:776   */\n      tag_339\n        /* \"#utility.yul\":741:775   */\n      tag_340\n        /* \"#utility.yul\":750:774   */\n      tag_341\n        /* \"#utility.yul\":768:773   */\n      dup5\n        /* \"#utility.yul\":750:774   */\n      tag_297\n      jump\t// in\n    tag_341:\n        /* \"#utility.yul\":741:775   */\n      tag_298\n      jump\t// in\n    tag_340:\n        /* \"#utility.yul\":723:776   */\n      tag_297\n      jump\t// in\n    tag_339:\n        /* \"#utility.yul\":710:776   */\n      swap1\n      pop\n        /* \"#utility.yul\":640:782   */\n      swap2\n      swap1\n      pop\n      jump\t// out\n        /* \"#utility.yul\":788:914   */\n    tag_300:\n        /* \"#utility.yul\":838:847   */\n      0x00\n        /* \"#utility.yul\":871:908   */\n      tag_343\n        /* \"#utility.yul\":902:907   */\n      dup3\n        /* \"#utility.yul\":871:908   */\n      tag_299\n      jump\t// in\n    tag_343:\n        /* \"#utility.yul\":858:908   */\n      swap1\n      pop\n        /* \"#utility.yul\":788:914   */\n      swap2\n      swap1\n      pop\n      jump\t// out\n        /* \"#utility.yul\":920:1074   */\n    tag_301:\n        /* \"#utility.yul\":998:1007   */\n      0x00\n        /* \"#utility.yul\":1031:1068   */\n      tag_345\n        /* \"#utility.yul\":1062:1067   */\n      dup3\n        /* \"#utility.yul\":1031:1068   */\n      tag_300\n      jump\t// in\n    tag_345:\n        /* \"#utility.yul\":1018:1068   */\n      swap1\n      pop\n        /* \"#utility.yul\":920:1074   */\n      swap2\n      swap1\n      pop\n      jump\t// out\n        /* \"#utility.yul\":1080:1267   */\n    tag_302:\n        /* \"#utility.yul\":1195:1260   */\n      tag_347\n        /* \"#utility.yul\":1254:1259   */\n      dup2\n        /* \"#utility.yul\":1195:1260   */\n      tag_301\n      jump\t// in\n    tag_347:\n        /* \"#utility.yul\":1190:1193   */\n      dup3\n        /* \"#utility.yul\":1183:1261   */\n      mstore\n        /* \"#utility.yul\":1080:1267   */\n      pop\n      pop\n      jump\t// out\n        /* \"#utility.yul\":1273:1551   */\n    tag_37:\n        /* \"#utility.yul\":1394:1398   */\n      0x00\n        /* \"#utility.yul\":1432:1434   */\n      0x20\n        /* \"#utility.yul\":1421:1430   */\n      dup3\n        /* \"#utility.yul\":1417:1435   */\n      add\n        /* \"#utility.yul\":1409:1435   */\n      swap1\n      pop\n        /* \"#utility.yul\":1445:1544   */\n      tag_349\n        /* \"#utility.yul\":1541:1542   */\n      0x00\n        /* \"#utility.yul\":1530:1539   */\n      dup4\n        /* \"#utility.yul\":1526:1543   */\n      add\n        /* \"#utility.yul\":1517:1523   */\n      dup5\n        /* \"#utility.yul\":1445:1544   */\n      tag_302\n      jump\t// in\n    tag_349:\n        /* \"#utility.yul\":1273:1551   */\n      swap3\n      swap2\n      pop\n      pop\n      jump\t// out\n        /* \"#utility.yul\":1638:1755   */\n    tag_304:\n        /* \"#utility.yul\":1747:1748   */\n      0x00\n        /* \"#utility.yul\":1744:1745   */\n      dup1\n        /* \"#utility.yul\":1737:1749   */\n      revert\n        /* \"#utility.yul\":1884:1980   */\n    tag_306:\n        /* \"#utility.yul\":1921:1928   */\n      0x00\n        /* \"#utility.yul\":1950:1974   */\n      tag_354\n        /* \"#utility.yul\":1968:1973   */\n      dup3\n        /* \"#utility.yul\":1950:1974   */\n      tag_297\n      jump\t// in\n    tag_354:\n        /* \"#utility.yul\":1939:1974   */\n      swap1\n      pop\n        /* \"#utility.yul\":1884:1980   */\n      swap2\n      swap1\n      pop\n      jump\t// out\n        /* \"#utility.yul\":1986:2108   */\n    tag_307:\n        /* \"#utility.yul\":2059:2083   */\n      tag_356\n        /* \"#utility.yul\":2077:2082   */\n      dup2\n        /* \"#utility.yul\":2059:2083   */\n      tag_306\n      jump\t// in\n    tag_356:\n        /* \"#utility.yul\":2052:2057   */\n      dup2\n        /* \"#utility.yul\":2049:2084   */\n      eq\n        /* \"#utility.yul\":2039:2102   */\n      tag_357\n      jumpi\n        /* \"#utility.yul\":2098:2099   */\n      0x00\n        /* \"#utility.yul\":2095:2096   */\n      dup1\n        /* \"#utility.yul\":2088:2100   */\n      revert\n        /* \"#utility.yul\":2039:2102   */\n    tag_357:\n        /* \"#utility.yul\":1986:2108   */\n      pop\n      jump\t// out\n        /* \"#utility.yul\":2114:2253   */\n    tag_308:\n        /* \"#utility.yul\":2160:2165   */\n      0x00\n        /* \"#utility.yul\":2198:2204   */\n      dup2\n        /* \"#utility.yul\":2185:2205   */\n      calldataload\n        /* \"#utility.yul\":2176:2205   */\n      swap1\n      pop\n        /* \"#utility.yul\":2214:2247   */\n      tag_359\n        /* \"#utility.yul\":2241:2246   */\n      dup2\n        /* \"#utility.yul\":2214:2247   */\n      tag_307\n      jump\t// in\n    tag_359:\n        /* \"#utility.yul\":2114:2253   */\n      swap3\n      swap2\n      pop\n      pop\n      jump\t// out\n        /* \"#utility.yul\":2259:2588   */\n    tag_41:\n        /* \"#utility.yul\":2318:2324   */\n      0x00\n        /* \"#utility.yul\":2367:2369   */\n      0x20\n        /* \"#utility.yul\":2355:2364   */\n      dup3\n        /* \"#utility.yul\":2346:2353   */\n      dup5\n        /* \"#utility.yul\":2342:2365   */\n      sub\n        /* \"#utility.yul\":2338:2370   */\n      slt\n        /* \"#utility.yul\":2335:2454   */\n      iszero\n      tag_361\n      jumpi\n        /* \"#utility.yul\":2373:2452   */\n      tag_362\n      tag_304\n      jump\t// in\n    tag_362:\n        /* \"#utility.yul\":2335:2454   */\n    tag_361:\n        /* \"#utility.yul\":2493:2494   */\n      0x00\n        /* \"#utility.yul\":2518:2571   */\n      tag_363\n        /* \"#utility.yul\":2563:2570   */\n      dup5\n        /* \"#utility.yul\":2554:2560   */\n      dup3\n        /* \"#utility.yul\":2543:2552   */\n      dup6\n        /* \"#utility.yul\":2539:2561   */\n      add\n        /* \"#utility.yul\":2518:2571   */\n      tag_308\n      jump\t// in\n    tag_363:\n        /* \"#utility.yul\":2508:2571   */\n      swap2\n      pop\n        /* \"#utility.yul\":2464:2581   */\n      pop\n        /* \"#utility.yul\":2259:2588   */\n      swap3\n      swap2\n      pop\n      pop\n      jump\t// out\n        /* \"#utility.yul\":2594:2926   */\n    tag_44:\n        /* \"#utility.yul\":2715:2719   */\n      0x00\n        /* \"#utility.yul\":2753:2755   */\n      0x40\n        /* \"#utility.yul\":2742:2751   */\n      dup3\n        /* \"#utility.yul\":2738:2756   */\n      add\n        /* \"#utility.yul\":2730:2756   */\n      swap1\n      pop\n        /* \"#utility.yul\":2766:2837   */\n      tag_365\n        /* \"#utility.yul\":2834:2835   */\n      0x00\n        /* \"#utility.yul\":2823:2832   */\n      dup4\n        /* \"#utility.yul\":2819:2836   */\n      add\n        /* \"#utility.yul\":2810:2816   */\n      dup6\n        /* \"#utility.yul\":2766:2837   */\n      tag_296\n      jump\t// in\n    tag_365:\n        /* \"#utility.yul\":2847:2919   */\n      tag_366\n        /* \"#utility.yul\":2915:2917   */\n      0x20\n        /* \"#utility.yul\":2904:2913   */\n      dup4\n        /* \"#utility.yul\":2900:2918   */\n      add\n        /* \"#utility.yul\":2891:2897   */\n      dup5\n        /* \"#utility.yul\":2847:2919   */\n      tag_296\n      jump\t// in\n    tag_366:\n        /* \"#utility.yul\":2594:2926   */\n      swap4\n      swap3\n      pop\n      pop\n      pop\n      jump\t// out\n        /* \"#utility.yul\":2932:3054   */\n    tag_309:\n        /* \"#utility.yul\":3005:3029   */\n      tag_368\n        /* \"#utility.yul\":3023:3028   */\n      dup2\n        /* \"#utility.yul\":3005:3029   */\n      tag_295\n      jump\t// in\n    tag_368:\n        /* \"#utility.yul\":2998:3003   */\n      dup2\n        /* \"#utility.yul\":2995:3030   */\n      eq\n        /* \"#utility.yul\":2985:3048   */\n      tag_369\n      jumpi\n        /* \"#utility.yul\":3044:3045   */\n      0x00\n        /* \"#utility.yul\":3041:3042   */\n      dup1\n        /* \"#utility.yul\":3034:3046   */\n      revert\n        /* \"#utility.yul\":2985:3048   */\n    tag_369:\n        /* \"#utility.yul\":2932:3054   */\n      pop\n      jump\t// out\n        /* \"#utility.yul\":3060:3199   */\n    tag_310:\n        /* \"#utility.yul\":3106:3111   */\n      0x00\n        /* \"#utility.yul\":3144:3150   */\n      dup2\n        /* \"#utility.yul\":3131:3151   */\n      calldataload\n        /* \"#utility.yul\":3122:3151   */\n      swap1\n      pop\n        /* \"#utility.yul\":3160:3193   */\n      tag_371\n        /* \"#utility.yul\":3187:3192   */\n      dup2\n        /* \"#utility.yul\":3160:3193   */\n      tag_309\n      jump\t// in\n    tag_371:\n        /* \"#utility.yul\":3060:3199   */\n      swap3\n      swap2\n      pop\n      pop\n      jump\t// out\n        /* \"#utility.yul\":3205:3534   */\n    tag_48:\n        /* \"#utility.yul\":3264:3270   */\n      0x00\n        /* \"#utility.yul\":3313:3315   */\n      0x20\n        /* \"#utility.yul\":3301:3310   */\n      dup3\n        /* \"#utility.yul\":3292:3299   */\n      dup5\n        /* \"#utility.yul\":3288:3311   */\n      sub\n        /* \"#utility.yul\":3284:3316   */\n      slt\n        /* \"#utility.yul\":3281:3400   */\n      iszero\n      tag_373\n      jumpi\n        /* \"#utility.yul\":3319:3398   */\n      tag_374\n      tag_304\n      jump\t// in\n    tag_374:\n        /* \"#utility.yul\":3281:3400   */\n    tag_373:\n        /* \"#utility.yul\":3439:3440   */\n      0x00\n        /* \"#utility.yul\":3464:3517   */\n      tag_375\n        /* \"#utility.yul\":3509:3516   */\n      dup5\n        /* \"#utility.yul\":3500:3506   */\n      dup3\n        /* \"#utility.yul\":3489:3498   */\n      dup6\n        /* \"#utility.yul\":3485:3507   */\n      add\n        /* \"#utility.yul\":3464:3517   */\n      tag_310\n      jump\t// in\n    tag_375:\n        /* \"#utility.yul\":3454:3517   */\n      swap2\n      pop\n        /* \"#utility.yul\":3410:3527   */\n      pop\n        /* \"#utility.yul\":3205:3534   */\n      swap3\n      swap2\n      pop\n      pop\n      jump\t// out\n        /* \"#utility.yul\":3540:3630   */\n    tag_311:\n        /* \"#utility.yul\":3574:3581   */\n      0x00\n        /* \"#utility.yul\":3617:3622   */\n      dup2\n        /* \"#utility.yul\":3610:3623   */\n      iszero\n        /* \"#utility.yul\":3603:3624   */\n      iszero\n        /* \"#utility.yul\":3592:3624   */\n      swap1\n      pop\n        /* \"#utility.yul\":3540:3630   */\n      swap2\n      swap1\n      pop\n      jump\t// out\n        /* \"#utility.yul\":3636:3745   */\n    tag_312:\n        /* \"#utility.yul\":3717:3738   */\n      tag_378\n        /* \"#utility.yul\":3732:3737   */\n      dup2\n        /* \"#utility.yul\":3717:3738   */\n      tag_311\n      jump\t// in\n    tag_378:\n        /* \"#utility.yul\":3712:3715   */\n      dup3\n        /* \"#utility.yul\":3705:3739   */\n      mstore\n        /* \"#utility.yul\":3636:3745   */\n      pop\n      pop\n      jump\t// out\n        /* \"#utility.yul\":3751:3961   */\n    tag_65:\n        /* \"#utility.yul\":3838:3842   */\n      0x00\n        /* \"#utility.yul\":3876:3878   */\n      0x20\n        /* \"#utility.yul\":3865:3874   */\n      dup3\n        /* \"#utility.yul\":3861:3879   */\n      add\n        /* \"#utility.yul\":3853:3879   */\n      swap1\n      pop\n        /* \"#utility.yul\":3889:3954   */\n      tag_380\n        /* \"#utility.yul\":3951:3952   */\n      0x00\n        /* \"#utility.yul\":3940:3949   */\n      dup4\n        /* \"#utility.yul\":3936:3953   */\n      add\n        /* \"#utility.yul\":3927:3933   */\n      dup5\n        /* \"#utility.yul\":3889:3954   */\n      tag_312\n      jump\t// in\n    tag_380:\n        /* \"#utility.yul\":3751:3961   */\n      swap3\n      swap2\n      pop\n      pop\n      jump\t// out\n        /* \"#utility.yul\":3967:4085   */\n    tag_313:\n        /* \"#utility.yul\":4054:4078   */\n      tag_382\n        /* \"#utility.yul\":4072:4077   */\n      dup2\n        /* \"#utility.yul\":4054:4078   */\n      tag_306\n      jump\t// in\n    tag_382:\n        /* \"#utility.yul\":4049:4052   */\n      dup3\n        /* \"#utility.yul\":4042:4079   */\n      mstore\n        /* \"#utility.yul\":3967:4085   */\n      pop\n      pop\n      jump\t// out\n        /* \"#utility.yul\":4091:4313   */\n    tag_85:\n        /* \"#utility.yul\":4184:4188   */\n      0x00\n        /* \"#utility.yul\":4222:4224   */\n      0x20\n        /* \"#utility.yul\":4211:4220   */\n      dup3\n        /* \"#utility.yul\":4207:4225   */\n      add\n        /* \"#utility.yul\":4199:4225   */\n      swap1\n      pop\n        /* \"#utility.yul\":4235:4306   */\n      tag_384\n        /* \"#utility.yul\":4303:4304   */\n      0x00\n        /* \"#utility.yul\":4292:4301   */\n      dup4\n        /* \"#utility.yul\":4288:4305   */\n      add\n        /* \"#utility.yul\":4279:4285   */\n      dup5\n        /* \"#utility.yul\":4235:4306   */\n      tag_313\n      jump\t// in\n    tag_384:\n        /* \"#utility.yul\":4091:4313   */\n      swap3\n      swap2\n      pop\n      pop\n      jump\t// out\n        /* \"#utility.yul\":4319:4459   */\n    tag_314:\n        /* \"#utility.yul\":4383:4392   */\n      0x00\n        /* \"#utility.yul\":4416:4453   */\n      tag_386\n        /* \"#utility.yul\":4447:4452   */\n      dup3\n        /* \"#utility.yul\":4416:4453   */\n      tag_300\n      jump\t// in\n    tag_386:\n        /* \"#utility.yul\":4403:4453   */\n      swap1\n      pop\n        /* \"#utility.yul\":4319:4459   */\n      swap2\n      swap1\n      pop\n      jump\t// out\n        /* \"#utility.yul\":4465:4624   */\n    tag_315:\n        /* \"#utility.yul\":4566:4617   */\n      tag_388\n        /* \"#utility.yul\":4611:4616   */\n      dup2\n        /* \"#utility.yul\":4566:4617   */\n      tag_314\n      jump\t// in\n    tag_388:\n        /* \"#utility.yul\":4561:4564   */\n      dup3\n        /* \"#utility.yul\":4554:4618   */\n      mstore\n        /* \"#utility.yul\":4465:4624   */\n      pop\n      pop\n      jump\t// out\n        /* \"#utility.yul\":4630:4880   */\n    tag_112:\n        /* \"#utility.yul\":4737:4741   */\n      0x00\n        /* \"#utility.yul\":4775:4777   */\n      0x20\n        /* \"#utility.yul\":4764:4773   */\n      dup3\n        /* \"#utility.yul\":4760:4778   */\n      add\n        /* \"#utility.yul\":4752:4778   */\n      swap1\n      pop\n        /* \"#utility.yul\":4788:4873   */\n      tag_390\n        /* \"#utility.yul\":4870:4871   */\n      0x00\n        /* \"#utility.yul\":4859:4868   */\n      dup4\n        /* \"#utility.yul\":4855:4872   */\n      add\n        /* \"#utility.yul\":4846:4852   */\n      dup5\n        /* \"#utility.yul\":4788:4873   */\n      tag_315\n      jump\t// in\n    tag_390:\n        /* \"#utility.yul\":4630:4880   */\n      swap3\n      swap2\n      pop\n      pop\n      jump\t// out\n        /* \"#utility.yul\":4886:5055   */\n    tag_316:\n        /* \"#utility.yul\":4970:4981   */\n      0x00\n        /* \"#utility.yul\":5004:5010   */\n      dup3\n        /* \"#utility.yul\":4999:5002   */\n      dup3\n        /* \"#utility.yul\":4992:5011   */\n      mstore\n        /* \"#utility.yul\":5044:5048   */\n      0x20\n        /* \"#utility.yul\":5039:5042   */\n      dup3\n        /* \"#utility.yul\":5035:5049   */\n      add\n        /* \"#utility.yul\":5020:5049   */\n      swap1\n      pop\n        /* \"#utility.yul\":4886:5055   */\n      swap3\n      swap2\n      pop\n      pop\n      jump\t// out\n        /* \"#utility.yul\":5061:5281   */\n    tag_317:\n        /* \"#utility.yul\":5201:5235   */\n      0x436f6c6c61746572616c4d616e616765723a20496e76616c696420616d6f756e\n        /* \"#utility.yul\":5197:5198   */\n      0x00\n        /* \"#utility.yul\":5189:5195   */\n      dup3\n        /* \"#utility.yul\":5185:5199   */\n      add\n        /* \"#utility.yul\":5178:5236   */\n      mstore\n        /* \"#utility.yul\":5270:5273   */\n      0x7400000000000000000000000000000000000000000000000000000000000000\n        /* \"#utility.yul\":5265:5267   */\n      0x20\n        /* \"#utility.yul\":5257:5263   */\n      dup3\n        /* \"#utility.yul\":5253:5268   */\n      add\n        /* \"#utility.yul\":5246:5274   */\n      mstore\n        /* \"#utility.yul\":5061:5281   */\n      pop\n      jump\t// out\n        /* \"#utility.yul\":5287:5653   */\n    tag_318:\n        /* \"#utility.yul\":5429:5432   */\n      0x00\n        /* \"#utility.yul\":5450:5517   */\n      tag_394\n        /* \"#utility.yul\":5514:5516   */\n      0x21\n        /* \"#utility.yul\":5509:5512   */\n      dup4\n        /* \"#utility.yul\":5450:5517   */\n      tag_316\n      jump\t// in\n    tag_394:\n        /* \"#utility.yul\":5443:5517   */\n      swap2\n      pop\n        /* \"#utility.yul\":5526:5619   */\n      tag_395\n        /* \"#utility.yul\":5615:5618   */\n      dup3\n        /* \"#utility.yul\":5526:5619   */\n      tag_317\n      jump\t// in\n    tag_395:\n        /* \"#utility.yul\":5644:5646   */\n      0x40\n        /* \"#utility.yul\":5639:5642   */\n      dup3\n        /* \"#utility.yul\":5635:5647   */\n      add\n        /* \"#utility.yul\":5628:5647   */\n      swap1\n      pop\n        /* \"#utility.yul\":5287:5653   */\n      swap2\n      swap1\n      pop\n      jump\t// out\n        /* \"#utility.yul\":5659:6078   */\n    tag_139:\n        /* \"#utility.yul\":5825:5829   */\n      0x00\n        /* \"#utility.yul\":5863:5865   */\n      0x20\n        /* \"#utility.yul\":5852:5861   */\n      dup3\n        /* \"#utility.yul\":5848:5866   */\n      add\n        /* \"#utility.yul\":5840:5866   */\n      swap1\n      pop\n        /* \"#utility.yul\":5912:5921   */\n      dup2\n        /* \"#utility.yul\":5906:5910   */\n      dup2\n        /* \"#utility.yul\":5902:5922   */\n      sub\n        /* \"#utility.yul\":5898:5899   */\n      0x00\n        /* \"#utility.yul\":5887:5896   */\n      dup4\n        /* \"#utility.yul\":5883:5900   */\n      add\n        /* \"#utility.yul\":5876:5923   */\n      mstore\n        /* \"#utility.yul\":5940:6071   */\n      tag_397\n        /* \"#utility.yul\":6066:6070   */\n      dup2\n        /* \"#utility.yul\":5940:6071   */\n      tag_318\n      jump\t// in\n    tag_397:\n        /* \"#utility.yul\":5932:6071   */\n      swap1\n      pop\n        /* \"#utility.yul\":5659:6078   */\n      swap2\n      swap1\n      pop\n      jump\t// out\n        /* \"#utility.yul\":6084:6526   */\n    tag_141:\n        /* \"#utility.yul\":6233:6237   */\n      0x00\n        /* \"#utility.yul\":6271:6273   */\n      0x60\n        /* \"#utility.yul\":6260:6269   */\n      dup3\n        /* \"#utility.yul\":6256:6274   */\n      add\n        /* \"#utility.yul\":6248:6274   */\n      swap1\n      pop\n        /* \"#utility.yul\":6284:6355   */\n      tag_399\n        /* \"#utility.yul\":6352:6353   */\n      0x00\n        /* \"#utility.yul\":6341:6350   */\n      dup4\n        /* \"#utility.yul\":6337:6354   */\n      add\n        /* \"#utility.yul\":6328:6334   */\n      dup7\n        /* \"#utility.yul\":6284:6355   */\n      tag_313\n      jump\t// in\n    tag_399:\n        /* \"#utility.yul\":6365:6437   */\n      tag_400\n        /* \"#utility.yul\":6433:6435   */\n      0x20\n        /* \"#utility.yul\":6422:6431   */\n      dup4\n        /* \"#utility.yul\":6418:6436   */\n      add\n        /* \"#utility.yul\":6409:6415   */\n      dup6\n        /* \"#utility.yul\":6365:6437   */\n      tag_313\n      jump\t// in\n    tag_400:\n        /* \"#utility.yul\":6447:6519   */\n      tag_401\n        /* \"#utility.yul\":6515:6517   */\n      0x40\n        /* \"#utility.yul\":6504:6513   */\n      dup4\n        /* \"#utility.yul\":6500:6518   */\n      add\n        /* \"#utility.yul\":6491:6497   */\n      dup5\n        /* \"#utility.yul\":6447:6519   */\n      tag_296\n      jump\t// in\n    tag_401:\n        /* \"#utility.yul\":6084:6526   */\n      swap5\n      swap4\n      pop\n      pop\n      pop\n      pop\n      jump\t// out\n        /* \"#utility.yul\":6532:6648   */\n    tag_319:\n        /* \"#utility.yul\":6602:6623   */\n      tag_403\n        /* \"#utility.yul\":6617:6622   */\n      dup2\n        /* \"#utility.yul\":6602:6623   */\n      tag_311\n      jump\t// in\n    tag_403:\n        /* \"#utility.yul\":6595:6600   */\n      dup2\n        /* \"#utility.yul\":6592:6624   */\n      eq\n        /* \"#utility.yul\":6582:6642   */\n      tag_404\n      jumpi\n        /* \"#utility.yul\":6638:6639   */\n      0x00\n        /* \"#utility.yul\":6635:6636   */\n      dup1\n        /* \"#utility.yul\":6628:6640   */\n      revert\n        /* \"#utility.yul\":6582:6642   */\n    tag_404:\n        /* \"#utility.yul\":6532:6648   */\n      pop\n      jump\t// out\n        /* \"#utility.yul\":6654:6791   */\n    tag_320:\n        /* \"#utility.yul\":6708:6713   */\n      0x00\n        /* \"#utility.yul\":6739:6745   */\n      dup2\n        /* \"#utility.yul\":6733:6746   */\n      mload\n        /* \"#utility.yul\":6724:6746   */\n      swap1\n      pop\n        /* \"#utility.yul\":6755:6785   */\n      tag_406\n        /* \"#utility.yul\":6779:6784   */\n      dup2\n        /* \"#utility.yul\":6755:6785   */\n      tag_319\n      jump\t// in\n    tag_406:\n        /* \"#utility.yul\":6654:6791   */\n      swap3\n      swap2\n      pop\n      pop\n      jump\t// out\n        /* \"#utility.yul\":6797:7142   */\n    tag_145:\n        /* \"#utility.yul\":6864:6870   */\n      0x00\n        /* \"#utility.yul\":6913:6915   */\n      0x20\n        /* \"#utility.yul\":6901:6910   */\n      dup3\n        /* \"#utility.yul\":6892:6899   */\n      dup5\n        /* \"#utility.yul\":6888:6911   */\n      sub\n        /* \"#utility.yul\":6884:6916   */\n      slt\n        /* \"#utility.yul\":6881:7000   */\n      iszero\n      tag_408\n      jumpi\n        /* \"#utility.yul\":6919:6998   */\n      tag_409\n      tag_304\n      jump\t// in\n    tag_409:\n        /* \"#utility.yul\":6881:7000   */\n    tag_408:\n        /* \"#utility.yul\":7039:7040   */\n      0x00\n        /* \"#utility.yul\":7064:7125   */\n      tag_410\n        /* \"#utility.yul\":7117:7124   */\n      dup5\n        /* \"#utility.yul\":7108:7114   */\n      dup3\n        /* \"#utility.yul\":7097:7106   */\n      dup6\n        /* \"#utility.yul\":7093:7115   */\n      add\n        /* \"#utility.yul\":7064:7125   */\n      tag_320\n      jump\t// in\n    tag_410:\n        /* \"#utility.yul\":7054:7125   */\n      swap2\n      pop\n        /* \"#utility.yul\":7010:7135   */\n      pop\n        /* \"#utility.yul\":6797:7142   */\n      swap3\n      swap2\n      pop\n      pop\n      jump\t// out\n        /* \"#utility.yul\":7148:7369   */\n    tag_321:\n        /* \"#utility.yul\":7288:7322   */\n      0x436f6c6c61746572616c4d616e616765723a205472616e73666572206661696c\n        /* \"#utility.yul\":7284:7285   */\n      0x00\n        /* \"#utility.yul\":7276:7282   */\n      dup3\n        /* \"#utility.yul\":7272:7286   */\n      add\n        /* \"#utility.yul\":7265:7323   */\n      mstore\n        /* \"#utility.yul\":7357:7361   */\n      0x6564000000000000000000000000000000000000000000000000000000000000\n        /* \"#utility.yul\":7352:7354   */\n      0x20\n        /* \"#utility.yul\":7344:7350   */\n      dup3\n        /* \"#utility.yul\":7340:7355   */\n      add\n        /* \"#utility.yul\":7333:7362   */\n      mstore\n        /* \"#utility.yul\":7148:7369   */\n      pop\n      jump\t// out\n        /* \"#utility.yul\":7375:7741   */\n    tag_322:\n        /* \"#utility.yul\":7517:7520   */\n      0x00\n        /* \"#utility.yul\":7538:7605   */\n      tag_413\n        /* \"#utility.yul\":7602:7604   */\n      0x22\n        /* \"#utility.yul\":7597:7600   */\n      dup4\n        /* \"#utility.yul\":7538:7605   */\n      tag_316\n      jump\t// in\n    tag_413:\n        /* \"#utility.yul\":7531:7605   */\n      swap2\n      pop\n        /* \"#utility.yul\":7614:7707   */\n      tag_414\n        /* \"#utility.yul\":7703:7706   */\n      dup3\n        /* \"#utility.yul\":7614:7707   */\n      tag_321\n      jump\t// in\n    tag_414:\n        /* \"#utility.yul\":7732:7734   */\n      0x40\n        /* \"#utility.yul\":7727:7730   */\n      dup3\n        /* \"#utility.yul\":7723:7735   */\n      add\n        /* \"#utility.yul\":7716:7735   */\n      swap1\n      pop\n        /* \"#utility.yul\":7375:7741   */\n      swap2\n      swap1\n      pop\n      jump\t// out\n        /* \"#utility.yul\":7747:8166   */\n    tag_148:\n        /* \"#utility.yul\":7913:7917   */\n      0x00\n        /* \"#utility.yul\":7951:7953   */\n      0x20\n        /* \"#utility.yul\":7940:7949   */\n      dup3\n        /* \"#utility.yul\":7936:7954   */\n      add\n        /* \"#utility.yul\":7928:7954   */\n      swap1\n      pop\n        /* \"#utility.yul\":8000:8009   */\n      dup2\n        /* \"#utility.yul\":7994:7998   */\n      dup2\n        /* \"#utility.yul\":7990:8010   */\n      sub\n        /* \"#utility.yul\":7986:7987   */\n      0x00\n        /* \"#utility.yul\":7975:7984   */\n      dup4\n        /* \"#utility.yul\":7971:7988   */\n      add\n        /* \"#utility.yul\":7964:8011   */\n      mstore\n        /* \"#utility.yul\":8028:8159   */\n      tag_416\n        /* \"#utility.yul\":8154:8158   */\n      dup2\n        /* \"#utility.yul\":8028:8159   */\n      tag_322\n      jump\t// in\n    tag_416:\n        /* \"#utility.yul\":8020:8159   */\n      swap1\n      pop\n        /* \"#utility.yul\":7747:8166   */\n      swap2\n      swap1\n      pop\n      jump\t// out\n        /* \"#utility.yul\":8172:8352   */\n    tag_323:\n        /* \"#utility.yul\":8220:8297   */\n      0x4e487b7100000000000000000000000000000000000000000000000000000000\n        /* \"#utility.yul\":8217:8218   */\n      0x00\n        /* \"#utility.yul\":8210:8298   */\n      mstore\n        /* \"#utility.yul\":8317:8321   */\n      0x11\n        /* \"#utility.yul\":8314:8315   */\n      0x04\n        /* \"#utility.yul\":8307:8322   */\n      mstore\n        /* \"#utility.yul\":8341:8345   */\n      0x24\n        /* \"#utility.yul\":8338:8339   */\n      0x00\n        /* \"#utility.yul\":8331:8346   */\n      revert\n        /* \"#utility.yul\":8358:8549   */\n    tag_150:\n        /* \"#utility.yul\":8398:8401   */\n      0x00\n        /* \"#utility.yul\":8417:8437   */\n      tag_419\n        /* \"#utility.yul\":8435:8436   */\n      dup3\n        /* \"#utility.yul\":8417:8437   */\n      tag_295\n      jump\t// in\n    tag_419:\n        /* \"#utility.yul\":8412:8437   */\n      swap2\n      pop\n        /* \"#utility.yul\":8451:8471   */\n      tag_420\n        /* \"#utility.yul\":8469:8470   */\n      dup4\n        /* \"#utility.yul\":8451:8471   */\n      tag_295\n      jump\t// in\n    tag_420:\n        /* \"#utility.yul\":8446:8471   */\n      swap3\n      pop\n        /* \"#utility.yul\":8494:8495   */\n      dup3\n        /* \"#utility.yul\":8491:8492   */\n      dup3\n        /* \"#utility.yul\":8487:8496   */\n      add\n        /* \"#utility.yul\":8480:8496   */\n      swap1\n      pop\n        /* \"#utility.yul\":8515:8518   */\n      dup1\n        /* \"#utility.yul\":8512:8513   */\n      dup3\n        /* \"#utility.yul\":8509:8519   */\n      gt\n        /* \"#utility.yul\":8506:8542   */\n      iszero\n      tag_421\n      jumpi\n        /* \"#utility.yul\":8522:8540   */\n      tag_422\n      tag_323\n      jump\t// in\n    tag_422:\n        /* \"#utility.yul\":8506:8542   */\n    tag_421:\n        /* \"#utility.yul\":8358:8549   */\n      swap3\n      swap2\n      pop\n      pop\n      jump\t// out\n        /* \"#utility.yul\":8555:8781   */\n    tag_324:\n        /* \"#utility.yul\":8695:8729   */\n      0x436f6c6c61746572616c4d616e616765723a20496e73756666696369656e7420\n        /* \"#utility.yul\":8691:8692   */\n      0x00\n        /* \"#utility.yul\":8683:8689   */\n      dup3\n        /* \"#utility.yul\":8679:8693   */\n      add\n        /* \"#utility.yul\":8672:8730   */\n      mstore\n        /* \"#utility.yul\":8764:8773   */\n      0x62616c616e636500000000000000000000000000000000000000000000000000\n        /* \"#utility.yul\":8759:8761   */\n      0x20\n        /* \"#utility.yul\":8751:8757   */\n      dup3\n        /* \"#utility.yul\":8747:8762   */\n      add\n        /* \"#utility.yul\":8740:8774   */\n      mstore\n        /* \"#utility.yul\":8555:8781   */\n      pop\n      jump\t// out\n        /* \"#utility.yul\":8787:9153   */\n    tag_325:\n        /* \"#utility.yul\":8929:8932   */\n      0x00\n        /* \"#utility.yul\":8950:9017   */\n      tag_425\n        /* \"#utility.yul\":9014:9016   */\n      0x27\n        /* \"#utility.yul\":9009:9012   */\n      dup4\n        /* \"#utility.yul\":8950:9017   */\n      tag_316\n      jump\t// in\n    tag_425:\n        /* \"#utility.yul\":8943:9017   */\n      swap2\n      pop\n        /* \"#utility.yul\":9026:9119   */\n      tag_426\n        /* \"#utility.yul\":9115:9118   */\n      dup3\n        /* \"#utility.yul\":9026:9119   */\n      tag_324\n      jump\t// in\n    tag_426:\n        /* \"#utility.yul\":9144:9146   */\n      0x40\n        /* \"#utility.yul\":9139:9142   */\n      dup3\n        /* \"#utility.yul\":9135:9147   */\n      add\n        /* \"#utility.yul\":9128:9147   */\n      swap1\n      pop\n        /* \"#utility.yul\":8787:9153   */\n      swap2\n      swap1\n      pop\n      jump\t// out\n        /* \"#utility.yul\":9159:9578   */\n    tag_170:\n        /* \"#utility.yul\":9325:9329   */\n      0x00\n        /* \"#utility.yul\":9363:9365   */\n      0x20\n        /* \"#utility.yul\":9352:9361   */\n      dup3\n        /* \"#utility.yul\":9348:9366   */\n      add\n        /* \"#utility.yul\":9340:9366   */\n      swap1\n      pop\n        /* \"#utility.yul\":9412:9421   */\n      dup2\n        /* \"#utility.yul\":9406:9410   */\n      dup2\n        /* \"#utility.yul\":9402:9422   */\n      sub\n        /* \"#utility.yul\":9398:9399   */\n      0x00\n        /* \"#utility.yul\":9387:9396   */\n      dup4\n        /* \"#utility.yul\":9383:9400   */\n      add\n        /* \"#utility.yul\":9376:9423   */\n      mstore\n        /* \"#utility.yul\":9440:9571   */\n      tag_428\n        /* \"#utility.yul\":9566:9570   */\n      dup2\n        /* \"#utility.yul\":9440:9571   */\n      tag_325\n      jump\t// in\n    tag_428:\n        /* \"#utility.yul\":9432:9571   */\n      swap1\n      pop\n        /* \"#utility.yul\":9159:9578   */\n      swap2\n      swap1\n      pop\n      jump\t// out\n        /* \"#utility.yul\":9584:9778   */\n    tag_172:\n        /* \"#utility.yul\":9624:9628   */\n      0x00\n        /* \"#utility.yul\":9644:9664   */\n      tag_430\n        /* \"#utility.yul\":9662:9663   */\n      dup3\n        /* \"#utility.yul\":9644:9664   */\n      tag_295\n      jump\t// in\n    tag_430:\n        /* \"#utility.yul\":9639:9664   */\n      swap2\n      pop\n        /* \"#utility.yul\":9678:9698   */\n      tag_431\n        /* \"#utility.yul\":9696:9697   */\n      dup4\n        /* \"#utility.yul\":9678:9698   */\n      tag_295\n      jump\t// in\n    tag_431:\n        /* \"#utility.yul\":9673:9698   */\n      swap3\n      pop\n        /* \"#utility.yul\":9722:9723   */\n      dup3\n        /* \"#utility.yul\":9719:9720   */\n      dup3\n        /* \"#utility.yul\":9715:9724   */\n      sub\n        /* \"#utility.yul\":9707:9724   */\n      swap1\n      pop\n        /* \"#utility.yul\":9746:9747   */\n      dup2\n        /* \"#utility.yul\":9740:9744   */\n      dup2\n        /* \"#utility.yul\":9737:9748   */\n      gt\n        /* \"#utility.yul\":9734:9771   */\n      iszero\n      tag_432\n      jumpi\n        /* \"#utility.yul\":9751:9769   */\n      tag_433\n      tag_323\n      jump\t// in\n    tag_433:\n        /* \"#utility.yul\":9734:9771   */\n    tag_432:\n        /* \"#utility.yul\":9584:9778   */\n      swap3\n      swap2\n      pop\n      pop\n      jump\t// out\n        /* \"#utility.yul\":9784:10116   */\n    tag_175:\n        /* \"#utility.yul\":9905:9909   */\n      0x00\n        /* \"#utility.yul\":9943:9945   */\n      0x40\n        /* \"#utility.yul\":9932:9941   */\n      dup3\n        /* \"#utility.yul\":9928:9946   */\n      add\n        /* \"#utility.yul\":9920:9946   */\n      swap1\n      pop\n        /* \"#utility.yul\":9956:10027   */\n      tag_435\n        /* \"#utility.yul\":10024:10025   */\n      0x00\n        /* \"#utility.yul\":10013:10022   */\n      dup4\n        /* \"#utility.yul\":10009:10026   */\n      add\n        /* \"#utility.yul\":10000:10006   */\n      dup6\n        /* \"#utility.yul\":9956:10027   */\n      tag_313\n      jump\t// in\n    tag_435:\n        /* \"#utility.yul\":10037:10109   */\n      tag_436\n        /* \"#utility.yul\":10105:10107   */\n      0x20\n        /* \"#utility.yul\":10094:10103   */\n      dup4\n        /* \"#utility.yul\":10090:10108   */\n      add\n        /* \"#utility.yul\":10081:10087   */\n      dup5\n        /* \"#utility.yul\":10037:10109   */\n      tag_296\n      jump\t// in\n    tag_436:\n        /* \"#utility.yul\":9784:10116   */\n      swap4\n      swap3\n      pop\n      pop\n      pop\n      jump\t// out\n        /* \"#utility.yul\":10122:10198   */\n    tag_326:\n        /* \"#utility.yul\":10158:10165   */\n      0x00\n        /* \"#utility.yul\":10187:10192   */\n      dup2\n        /* \"#utility.yul\":10176:10192   */\n      swap1\n      pop\n        /* \"#utility.yul\":10122:10198   */\n      swap2\n      swap1\n      pop\n      jump\t// out\n        /* \"#utility.yul\":10204:10324   */\n    tag_327:\n        /* \"#utility.yul\":10276:10299   */\n      tag_439\n        /* \"#utility.yul\":10293:10298   */\n      dup2\n        /* \"#utility.yul\":10276:10299   */\n      tag_326\n      jump\t// in\n    tag_439:\n        /* \"#utility.yul\":10269:10274   */\n      dup2\n        /* \"#utility.yul\":10266:10300   */\n      eq\n        /* \"#utility.yul\":10256:10318   */\n      tag_440\n      jumpi\n        /* \"#utility.yul\":10314:10315   */\n      0x00\n        /* \"#utility.yul\":10311:10312   */\n      dup1\n        /* \"#utility.yul\":10304:10316   */\n      revert\n        /* \"#utility.yul\":10256:10318   */\n    tag_440:\n        /* \"#utility.yul\":10204:10324   */\n      pop\n      jump\t// out\n        /* \"#utility.yul\":10330:10471   */\n    tag_328:\n        /* \"#utility.yul\":10386:10391   */\n      0x00\n        /* \"#utility.yul\":10417:10423   */\n      dup2\n        /* \"#utility.yul\":10411:10424   */\n      mload\n        /* \"#utility.yul\":10402:10424   */\n      swap1\n      pop\n        /* \"#utility.yul\":10433:10465   */\n      tag_442\n        /* \"#utility.yul\":10459:10464   */\n      dup2\n        /* \"#utility.yul\":10433:10465   */\n      tag_327\n      jump\t// in\n    tag_442:\n        /* \"#utility.yul\":10330:10471   */\n      swap3\n      swap2\n      pop\n      pop\n      jump\t// out\n        /* \"#utility.yul\":10477:10826   */\n    tag_188:\n        /* \"#utility.yul\":10546:10552   */\n      0x00\n        /* \"#utility.yul\":10595:10597   */\n      0x20\n        /* \"#utility.yul\":10583:10592   */\n      dup3\n        /* \"#utility.yul\":10574:10581   */\n      dup5\n        /* \"#utility.yul\":10570:10593   */\n      sub\n        /* \"#utility.yul\":10566:10598   */\n      slt\n        /* \"#utility.yul\":10563:10682   */\n      iszero\n      tag_444\n      jumpi\n        /* \"#utility.yul\":10601:10680   */\n      tag_445\n      tag_304\n      jump\t// in\n    tag_445:\n        /* \"#utility.yul\":10563:10682   */\n    tag_444:\n        /* \"#utility.yul\":10721:10722   */\n      0x00\n        /* \"#utility.yul\":10746:10809   */\n      tag_446\n        /* \"#utility.yul\":10801:10808   */\n      dup5\n        /* \"#utility.yul\":10792:10798   */\n      dup3\n        /* \"#utility.yul\":10781:10790   */\n      dup6\n        /* \"#utility.yul\":10777:10799   */\n      add\n        /* \"#utility.yul\":10746:10809   */\n      tag_328\n      jump\t// in\n    tag_446:\n        /* \"#utility.yul\":10736:10809   */\n      swap2\n      pop\n        /* \"#utility.yul\":10692:10819   */\n      pop\n        /* \"#utility.yul\":10477:10826   */\n      swap3\n      swap2\n      pop\n      pop\n      jump\t// out\n        /* \"#utility.yul\":10832:11242   */\n    tag_193:\n        /* \"#utility.yul\":10872:10879   */\n      0x00\n        /* \"#utility.yul\":10895:10915   */\n      tag_448\n        /* \"#utility.yul\":10913:10914   */\n      dup3\n        /* \"#utility.yul\":10895:10915   */\n      tag_295\n      jump\t// in\n    tag_448:\n        /* \"#utility.yul\":10890:10915   */\n      swap2\n      pop\n        /* \"#utility.yul\":10929:10949   */\n      tag_449\n        /* \"#utility.yul\":10947:10948   */\n      dup4\n        /* \"#utility.yul\":10929:10949   */\n      tag_295\n      jump\t// in\n    tag_449:\n        /* \"#utility.yul\":10924:10949   */\n      swap3\n      pop\n        /* \"#utility.yul\":10984:10985   */\n      dup3\n        /* \"#utility.yul\":10981:10982   */\n      dup3\n        /* \"#utility.yul\":10977:10986   */\n      mul\n        /* \"#utility.yul\":11006:11036   */\n      tag_450\n        /* \"#utility.yul\":11024:11035   */\n      dup2\n        /* \"#utility.yul\":11006:11036   */\n      tag_295\n      jump\t// in\n    tag_450:\n        /* \"#utility.yul\":10995:11036   */\n      swap2\n      pop\n        /* \"#utility.yul\":11185:11186   */\n      dup3\n        /* \"#utility.yul\":11176:11183   */\n      dup3\n        /* \"#utility.yul\":11172:11187   */\n      div\n        /* \"#utility.yul\":11169:11170   */\n      dup5\n        /* \"#utility.yul\":11166:11188   */\n      eq\n        /* \"#utility.yul\":11146:11147   */\n      dup4\n        /* \"#utility.yul\":11139:11148   */\n      iszero\n        /* \"#utility.yul\":11119:11202   */\n      or\n        /* \"#utility.yul\":11096:11235   */\n      tag_451\n      jumpi\n        /* \"#utility.yul\":11215:11233   */\n      tag_452\n      tag_323\n      jump\t// in\n    tag_452:\n        /* \"#utility.yul\":11096:11235   */\n    tag_451:\n        /* \"#utility.yul\":10880:11242   */\n      pop\n        /* \"#utility.yul\":10832:11242   */\n      swap3\n      swap2\n      pop\n      pop\n      jump\t// out\n        /* \"#utility.yul\":11248:11428   */\n    tag_329:\n        /* \"#utility.yul\":11296:11373   */\n      0x4e487b7100000000000000000000000000000000000000000000000000000000\n        /* \"#utility.yul\":11293:11294   */\n      0x00\n        /* \"#utility.yul\":11286:11374   */\n      mstore\n        /* \"#utility.yul\":11393:11397   */\n      0x12\n        /* \"#utility.yul\":11390:11391   */\n      0x04\n        /* \"#utility.yul\":11383:11398   */\n      mstore\n        /* \"#utility.yul\":11417:11421   */\n      0x24\n        /* \"#utility.yul\":11414:11415   */\n      0x00\n        /* \"#utility.yul\":11407:11422   */\n      revert\n        /* \"#utility.yul\":11434:11619   */\n    tag_195:\n        /* \"#utility.yul\":11474:11475   */\n      0x00\n        /* \"#utility.yul\":11491:11511   */\n      tag_455\n        /* \"#utility.yul\":11509:11510   */\n      dup3\n        /* \"#utility.yul\":11491:11511   */\n      tag_295\n      jump\t// in\n    tag_455:\n        /* \"#utility.yul\":11486:11511   */\n      swap2\n      pop\n        /* \"#utility.yul\":11525:11545   */\n      tag_456\n        /* \"#utility.yul\":11543:11544   */\n      dup4\n        /* \"#utility.yul\":11525:11545   */\n      tag_295\n      jump\t// in\n    tag_456:\n        /* \"#utility.yul\":11520:11545   */\n      swap3\n      pop\n        /* \"#utility.yul\":11564:11565   */\n      dup3\n        /* \"#utility.yul\":11554:11589   */\n      tag_457\n      jumpi\n        /* \"#utility.yul\":11569:11587   */\n      tag_458\n      tag_329\n      jump\t// in\n    tag_458:\n        /* \"#utility.yul\":11554:11589   */\n    tag_457:\n        /* \"#utility.yul\":11611:11612   */\n      dup3\n        /* \"#utility.yul\":11608:11609   */\n      dup3\n        /* \"#utility.yul\":11604:11613   */\n      div\n        /* \"#utility.yul\":11599:11613   */\n      swap1\n      pop\n        /* \"#utility.yul\":11434:11619   */\n      swap3\n      swap2\n      pop\n      pop\n      jump\t// out\n\n    auxdata: 0xa2646970667358221220dbdf3cf62ef1f4235e54b306b0127c21f0bc4dbc12e9460143952d545307f22b64736f6c634300081a0033\n}\n",
				"bytecode": {
					"linkReferences": {},
					"object": "6080604052670de0b6b3a7640000600655678ac7230489e80000600755348015610027575f80fd5b50604051612060380380612060833981810160405281019061004991906102cc565b3360015f819055505f60015f6101000a81548160ff0219169083151502179055505f73ffffffffffffffffffffffffffffffffffffffff168173ffffffffffffffffffffffffffffffffffffffff16036100da575f6040517f1e4fbdf70000000000000000000000000000000000000000000000000000000081526004016100d19190610319565b60405180910390fd5b6100e98161017160201b60201c565b508160025f6101000a81548173ffffffffffffffffffffffffffffffffffffffff021916908373ffffffffffffffffffffffffffffffffffffffff1602179055508060035f6101000a81548173ffffffffffffffffffffffffffffffffffffffff021916908373ffffffffffffffffffffffffffffffffffffffff1602179055505050610332565b5f60018054906101000a900473ffffffffffffffffffffffffffffffffffffffff169050816001806101000a81548173ffffffffffffffffffffffffffffffffffffffff021916908373ffffffffffffffffffffffffffffffffffffffff1602179055508173ffffffffffffffffffffffffffffffffffffffff168173ffffffffffffffffffffffffffffffffffffffff167f8be0079c531659141344cd1fd0a4f28419497f9722a3daafe3b4186f6b6457e060405160405180910390a35050565b5f80fd5b5f73ffffffffffffffffffffffffffffffffffffffff82169050919050565b5f61026082610237565b9050919050565b5f61027182610256565b9050919050565b61028181610267565b811461028b575f80fd5b50565b5f8151905061029c81610278565b92915050565b6102ab81610256565b81146102b5575f80fd5b50565b5f815190506102c6816102a2565b92915050565b5f80604083850312156102e2576102e1610233565b5b5f6102ef8582860161028e565b9250506020610300858286016102b8565b9150509250929050565b61031381610256565b82525050565b5f60208201905061032c5f83018461030a565b92915050565b611d218061033f5f395ff3fe60806040526004361061013f575f3560e01c80638456cb59116100b55780639e30bce71161006e5780639e30bce714610402578063a98ad46c1461043e578063c3b2a4a414610468578063d57ac70d146104a4578063e3847f0e146104ae578063f2fde38b146104ea5761013f565b80638456cb591461030a5780638da5cb5b146103205780638e817efe1461034a5780639083baa61461037257806396af427d1461039c57806399ef81bd146103c65761013f565b80635269384e116101075780635269384e1461021257806352ce97141461023c5780635c975abb1461026457806360b3b3381461028e5780636c648fc4146102b8578063715018a6146102f45761013f565b806304885115146101435780632630c12f1461016d5780632703ee85146101975780632f5723d5146101d45780633f4ba83a146101fc575b5f80fd5b34801561014e575f80fd5b50610157610512565b60405161016491906116cb565b60405180910390f35b348015610178575f80fd5b50610181610518565b60405161018e919061175e565b60405180910390f35b3480156101a2575f80fd5b506101bd60048036038101906101b891906117b6565b61053d565b6040516101cb9291906117e1565b60405180910390f35b3480156101df575f80fd5b506101fa60048036038101906101f59190611832565b6105c4565b005b348015610207575f80fd5b506102106107b9565b005b34801561021d575f80fd5b506102266107cb565b60405161023391906116cb565b60405180910390f35b348015610247575f80fd5b50610262600480360381019061025d9190611832565b6107d1565b005b34801561026f575f80fd5b50610278610a42565b6040516102859190611877565b60405180910390f35b348015610299575f80fd5b506102a2610a57565b6040516102af91906116cb565b60405180910390f35b3480156102c3575f80fd5b506102de60048036038101906102d991906117b6565b610a5d565b6040516102eb91906116cb565b60405180910390f35b3480156102ff575f80fd5b50610308610c57565b005b348015610315575f80fd5b5061031e610c6a565b005b34801561032b575f80fd5b50610334610c7c565b604051610341919061189f565b60405180910390f35b348015610355575f80fd5b50610370600480360381019061036b9190611832565b610ca3565b005b34801561037d575f80fd5b50610386610e7d565b60405161039391906116cb565b60405180910390f35b3480156103a7575f80fd5b506103b0610e83565b6040516103bd91906116cb565b60405180910390f35b3480156103d1575f80fd5b506103ec60048036038101906103e791906117b6565b610ffb565b6040516103f991906116cb565b60405180910390f35b34801561040d575f80fd5b50610428600480360381019061042391906117b6565b6110f2565b60405161043591906116cb565b60405180910390f35b348015610449575f80fd5b50610452611107565b60405161045f91906118d8565b60405180910390f35b348015610473575f80fd5b5061048e600480360381019061048991906117b6565b61112c565b60405161049b91906116cb565b60405180910390f35b6104ac611141565b005b3480156104b9575f80fd5b506104d460048036038101906104cf91906117b6565b611258565b6040516104e191906116cb565b60405180910390f35b3480156104f5575f80fd5b50610510600480360381019061050b91906117b6565b61134f565b005b60075481565b60035f9054906101000a900473ffffffffffffffffffffffffffffffffffffffff1681565b5f8060085f8473ffffffffffffffffffffffffffffffffffffffff1673ffffffffffffffffffffffffffffffffffffffff1681526020019081526020015f205460095f8573ffffffffffffffffffffffffffffffffffffffff1673ffffffffffffffffffffffffffffffffffffffff1681526020019081526020015f205491509150915091565b6105cc6113d3565b6105d4611417565b6006548111610618576040517f08c379a000000000000000000000000000000000000000000000000000000000815260040161060f90611971565b60405180910390fd5b60025f9054906101000a900473ffffffffffffffffffffffffffffffffffffffff1673ffffffffffffffffffffffffffffffffffffffff166323b872dd3330846040518463ffffffff1660e01b81526004016106769392919061198f565b6020604051808303815f875af1158015610692573d5f803e3d5ffd5b505050506040513d601f19601f820116820180604052508101906106b691906119ee565b6106f5576040517f08c379a00000000000000000000000000000000000000000000000000000000081526004016106ec90611a89565b60405180910390fd5b8060095f3373ffffffffffffffffffffffffffffffffffffffff1673ffffffffffffffffffffffffffffffffffffffff1681526020019081526020015f205f8282546107419190611ad4565b925050819055508060055f8282546107599190611ad4565b925050819055503373ffffffffffffffffffffffffffffffffffffffff167f9a4c731ff1518c7a820e31d32e673b031b8974967931afb2eec308066090022d826040516107a691906116cb565b60405180910390a26107b6611458565b50565b6107c1611461565b6107c96114e8565b565b60065481565b6107d96113d3565b6107e1611417565b5f8111610823576040517f08c379a000000000000000000000000000000000000000000000000000000000815260040161081a90611971565b60405180910390fd5b8060095f3373ffffffffffffffffffffffffffffffffffffffff1673ffffffffffffffffffffffffffffffffffffffff1681526020019081526020015f205410156108a3576040517f08c379a000000000000000000000000000000000000000000000000000000000815260040161089a90611b77565b60405180910390fd5b8060095f3373ffffffffffffffffffffffffffffffffffffffff1673ffffffffffffffffffffffffffffffffffffffff1681526020019081526020015f205f8282546108ef9190611b95565b925050819055508060055f8282546109079190611b95565b9250508190555060025f9054906101000a900473ffffffffffffffffffffffffffffffffffffffff1673ffffffffffffffffffffffffffffffffffffffff1663a9059cbb33836040518363ffffffff1660e01b815260040161096a929190611bc8565b6020604051808303815f875af1158015610986573d5f803e3d5ffd5b505050506040513d601f19601f820116820180604052508101906109aa91906119ee565b6109e9576040517f08c379a00000000000000000000000000000000000000000000000000000000081526004016109e090611a89565b60405180910390fd5b3373ffffffffffffffffffffffffffffffffffffffff167fc01511ac0a76d7dc4d420282166e32ac9366c3f78e450661d140d248b19a400082604051610a2f91906116cb565b60405180910390a2610a3f611458565b50565b5f60015f9054906101000a900460ff16905090565b60045481565b5f8060085f8473ffffffffffffffffffffffffffffffffffffffff1673ffffffffffffffffffffffffffffffffffffffff1681526020019081526020015f205490505f60095f8573ffffffffffffffffffffffffffffffffffffffff1673ffffffffffffffffffffffffffffffffffffffff1681526020019081526020015f205490505f60035f9054906101000a900473ffffffffffffffffffffffffffffffffffffffff1673ffffffffffffffffffffffffffffffffffffffff166373544cfd6040518163ffffffff1660e01b8152600401602060405180830381865afa158015610b4b573d5f803e3d5ffd5b505050506040513d601f19601f82011682018060405250810190610b6f9190611c22565b90505f60035f9054906101000a900473ffffffffffffffffffffffffffffffffffffffff1673ffffffffffffffffffffffffffffffffffffffff1663961bdfbf6040518163ffffffff1660e01b8152600401602060405180830381865afa158015610bdc573d5f803e3d5ffd5b505050506040513d601f19601f82011682018060405250810190610c009190611c22565b90505f6305f5e1008386610c149190611c4d565b610c1e9190611cbb565b90505f6305f5e1008386610c329190611c4d565b610c3c9190611cbb565b90508082610c4a9190611ad4565b9650505050505050919050565b610c5f611461565b610c685f611549565b565b610c72611461565b610c7a61160b565b565b5f60018054906101000a900473ffffffffffffffffffffffffffffffffffffffff16905090565b610cab6113d3565b610cb3611417565b5f8111610cf5576040517f08c379a0000000000000000000000000000000000000000000000000000000008152600401610cec90611971565b60405180910390fd5b8060085f3373ffffffffffffffffffffffffffffffffffffffff1673ffffffffffffffffffffffffffffffffffffffff1681526020019081526020015f20541015610d75576040517f08c379a0000000000000000000000000000000000000000000000000000000008152600401610d6c90611b77565b60405180910390fd5b8060085f3373ffffffffffffffffffffffffffffffffffffffff1673ffffffffffffffffffffffffffffffffffffffff1681526020019081526020015f205f828254610dc19190611b95565b925050819055508060045f828254610dd99190611b95565b925050819055503373ffffffffffffffffffffffffffffffffffffffff166108fc8290811502906040515f60405180830381858888f19350505050158015610e23573d5f803e3d5ffd5b503373ffffffffffffffffffffffffffffffffffffffff167f0c3d79d31dc82080baf59ab3c3058c3c7c4f88f9969422caa1b42c51577d640b82604051610e6a91906116cb565b60405180910390a2610e7a611458565b50565b60055481565b5f8060035f9054906101000a900473ffffffffffffffffffffffffffffffffffffffff1673ffffffffffffffffffffffffffffffffffffffff166373544cfd6040518163ffffffff1660e01b8152600401602060405180830381865afa158015610eef573d5f803e3d5ffd5b505050506040513d601f19601f82011682018060405250810190610f139190611c22565b90505f60035f9054906101000a900473ffffffffffffffffffffffffffffffffffffffff1673ffffffffffffffffffffffffffffffffffffffff1663961bdfbf6040518163ffffffff1660e01b8152600401602060405180830381865afa158015610f80573d5f803e3d5ffd5b505050506040513d601f19601f82011682018060405250810190610fa49190611c22565b90505f6305f5e10083600454610fba9190611c4d565b610fc49190611cbb565b90505f6305f5e10083600554610fda9190611c4d565b610fe49190611cbb565b90508082610ff29190611ad4565b94505050505090565b5f8060095f8473ffffffffffffffffffffffffffffffffffffffff1673ffffffffffffffffffffffffffffffffffffffff1681526020019081526020015f205490505f60035f9054906101000a900473ffffffffffffffffffffffffffffffffffffffff1673ffffffffffffffffffffffffffffffffffffffff1663961bdfbf6040518163ffffffff1660e01b8152600401602060405180830381865afa1580156110a8573d5f803e3d5ffd5b505050506040513d601f19601f820116820180604052508101906110cc9190611c22565b90506305f5e10081836110df9190611c4d565b6110e99190611cbb565b92505050919050565b6008602052805f5260405f205f915090505481565b60025f9054906101000a900473ffffffffffffffffffffffffffffffffffffffff1681565b6009602052805f5260405f205f915090505481565b6111496113d3565b611151611417565b6006543411611195576040517f08c379a000000000000000000000000000000000000000000000000000000000815260040161118c90611971565b60405180910390fd5b3460085f3373ffffffffffffffffffffffffffffffffffffffff1673ffffffffffffffffffffffffffffffffffffffff1681526020019081526020015f205f8282546111e19190611ad4565b925050819055503460045f8282546111f99190611ad4565b925050819055503373ffffffffffffffffffffffffffffffffffffffff167ff5bfa8a3f6a61792f266e3e92249facce14edf2b5fceeba5cb6cd0882593a9da3460405161124691906116cb565b60405180910390a2611256611458565b565b5f8060085f8473ffffffffffffffffffffffffffffffffffffffff1673ffffffffffffffffffffffffffffffffffffffff1681526020019081526020015f205490505f60035f9054906101000a900473ffffffffffffffffffffffffffffffffffffffff1673ffffffffffffffffffffffffffffffffffffffff166373544cfd6040518163ffffffff1660e01b8152600401602060405180830381865afa158015611305573d5f803e3d5ffd5b505050506040513d601f19601f820116820180604052508101906113299190611c22565b90506305f5e100818361133c9190611c4d565b6113469190611cbb565b92505050919050565b611357611461565b5f73ffffffffffffffffffffffffffffffffffffffff168173ffffffffffffffffffffffffffffffffffffffff16036113c7575f6040517f1e4fbdf70000000000000000000000000000000000000000000000000000000081526004016113be919061189f565b60405180910390fd5b6113d081611549565b50565b60025f540361140e576040517f3ee5aeb500000000000000000000000000000000000000000000000000000000815260040160405180910390fd5b60025f81905550565b61141f610a42565b15611456576040517fd93c066500000000000000000000000000000000000000000000000000000000815260040160405180910390fd5b565b60015f81905550565b61146961166c565b73ffffffffffffffffffffffffffffffffffffffff16611487610c7c565b73ffffffffffffffffffffffffffffffffffffffff16146114e6576114aa61166c565b6040517f118cdaa70000000000000000000000000000000000000000000000000000000081526004016114dd919061189f565b60405180910390fd5b565b6114f0611673565b5f60015f6101000a81548160ff0219169083151502179055507f5db9ee0a495bf2e6ff9c91a7834c1ba4fdd244a5e8aa4e537bd38aeae4b073aa61153261166c565b60405161153f919061189f565b60405180910390a1565b5f60018054906101000a900473ffffffffffffffffffffffffffffffffffffffff169050816001806101000a81548173ffffffffffffffffffffffffffffffffffffffff021916908373ffffffffffffffffffffffffffffffffffffffff1602179055508173ffffffffffffffffffffffffffffffffffffffff168173ffffffffffffffffffffffffffffffffffffffff167f8be0079c531659141344cd1fd0a4f28419497f9722a3daafe3b4186f6b6457e060405160405180910390a35050565b611613611417565b6001805f6101000a81548160ff0219169083151502179055507f62e78cea01bee320cd4e420270b5ea74000d11b0c9f74754ebdbfc544b05a25861165561166c565b604051611662919061189f565b60405180910390a1565b5f33905090565b61167b610a42565b6116b1576040517f8dfc202b00000000000000000000000000000000000000000000000000000000815260040160405180910390fd5b565b5f819050919050565b6116c5816116b3565b82525050565b5f6020820190506116de5f8301846116bc565b92915050565b5f73ffffffffffffffffffffffffffffffffffffffff82169050919050565b5f819050919050565b5f61172661172161171c846116e4565b611703565b6116e4565b9050919050565b5f6117378261170c565b9050919050565b5f6117488261172d565b9050919050565b6117588161173e565b82525050565b5f6020820190506117715f83018461174f565b92915050565b5f80fd5b5f611785826116e4565b9050919050565b6117958161177b565b811461179f575f80fd5b50565b5f813590506117b08161178c565b92915050565b5f602082840312156117cb576117ca611777565b5b5f6117d8848285016117a2565b91505092915050565b5f6040820190506117f45f8301856116bc565b61180160208301846116bc565b9392505050565b611811816116b3565b811461181b575f80fd5b50565b5f8135905061182c81611808565b92915050565b5f6020828403121561184757611846611777565b5b5f6118548482850161181e565b91505092915050565b5f8115159050919050565b6118718161185d565b82525050565b5f60208201905061188a5f830184611868565b92915050565b6118998161177b565b82525050565b5f6020820190506118b25f830184611890565b92915050565b5f6118c28261172d565b9050919050565b6118d2816118b8565b82525050565b5f6020820190506118eb5f8301846118c9565b92915050565b5f82825260208201905092915050565b7f436f6c6c61746572616c4d616e616765723a20496e76616c696420616d6f756e5f8201527f7400000000000000000000000000000000000000000000000000000000000000602082015250565b5f61195b6021836118f1565b915061196682611901565b604082019050919050565b5f6020820190508181035f8301526119888161194f565b9050919050565b5f6060820190506119a25f830186611890565b6119af6020830185611890565b6119bc60408301846116bc565b949350505050565b6119cd8161185d565b81146119d7575f80fd5b50565b5f815190506119e8816119c4565b92915050565b5f60208284031215611a0357611a02611777565b5b5f611a10848285016119da565b91505092915050565b7f436f6c6c61746572616c4d616e616765723a205472616e73666572206661696c5f8201527f6564000000000000000000000000000000000000000000000000000000000000602082015250565b5f611a736022836118f1565b9150611a7e82611a19565b604082019050919050565b5f6020820190508181035f830152611aa081611a67565b9050919050565b7f4e487b71000000000000000000000000000000000000000000000000000000005f52601160045260245ffd5b5f611ade826116b3565b9150611ae9836116b3565b9250828201905080821115611b0157611b00611aa7565b5b92915050565b7f436f6c6c61746572616c4d616e616765723a20496e73756666696369656e74205f8201527f62616c616e636500000000000000000000000000000000000000000000000000602082015250565b5f611b616027836118f1565b9150611b6c82611b07565b604082019050919050565b5f6020820190508181035f830152611b8e81611b55565b9050919050565b5f611b9f826116b3565b9150611baa836116b3565b9250828203905081811115611bc257611bc1611aa7565b5b92915050565b5f604082019050611bdb5f830185611890565b611be860208301846116bc565b9392505050565b5f819050919050565b611c0181611bef565b8114611c0b575f80fd5b50565b5f81519050611c1c81611bf8565b92915050565b5f60208284031215611c3757611c36611777565b5b5f611c4484828501611c0e565b91505092915050565b5f611c57826116b3565b9150611c62836116b3565b9250828202611c70816116b3565b91508282048414831517611c8757611c86611aa7565b5b5092915050565b7f4e487b71000000000000000000000000000000000000000000000000000000005f52601260045260245ffd5b5f611cc5826116b3565b9150611cd0836116b3565b925082611ce057611cdf611c8e565b5b82820490509291505056fea2646970667358221220dbdf3cf62ef1f4235e54b306b0127c21f0bc4dbc12e9460143952d545307f22b64736f6c634300081a0033",
					"opcodes": "PUSH1 0x80 PUSH1 0x40 MSTORE PUSH8 0xDE0B6B3A7640000 PUSH1 0x6 SSTORE PUSH8 0x8AC7230489E80000 PUSH1 0x7 SSTORE CALLVALUE DUP1 ISZERO PUSH2 0x27 JUMPI PUSH0 DUP1 REVERT JUMPDEST POP PUSH1 0x40 MLOAD PUSH2 0x2060 CODESIZE SUB DUP1 PUSH2 0x2060 DUP4 CODECOPY DUP2 DUP2 ADD PUSH1 0x40 MSTORE DUP2 ADD SWAP1 PUSH2 0x49 SWAP2 SWAP1 PUSH2 0x2CC JUMP JUMPDEST CALLER PUSH1 0x1 PUSH0 DUP2 SWAP1 SSTORE POP PUSH0 PUSH1 0x1 PUSH0 PUSH2 0x100 EXP DUP2 SLOAD DUP2 PUSH1 0xFF MUL NOT AND SWAP1 DUP4 ISZERO ISZERO MUL OR SWAP1 SSTORE POP PUSH0 PUSH20 0xFFFFFFFFFFFFFFFFFFFFFFFFFFFFFFFFFFFFFFFF AND DUP2 PUSH20 0xFFFFFFFFFFFFFFFFFFFFFFFFFFFFFFFFFFFFFFFF AND SUB PUSH2 0xDA JUMPI PUSH0 PUSH1 0x40 MLOAD PUSH32 0x1E4FBDF700000000000000000000000000000000000000000000000000000000 DUP2 MSTORE PUSH1 0x4 ADD PUSH2 0xD1 SWAP2 SWAP1 PUSH2 0x319 JUMP JUMPDEST PUSH1 0x40 MLOAD DUP1 SWAP2 SUB SWAP1 REVERT JUMPDEST PUSH2 0xE9 DUP2 PUSH2 0x171 PUSH1 0x20 SHL PUSH1 0x20 SHR JUMP JUMPDEST POP DUP2 PUSH1 0x2 PUSH0 PUSH2 0x100 EXP DUP2 SLOAD DUP2 PUSH20 0xFFFFFFFFFFFFFFFFFFFFFFFFFFFFFFFFFFFFFFFF MUL NOT AND SWAP1 DUP4 PUSH20 0xFFFFFFFFFFFFFFFFFFFFFFFFFFFFFFFFFFFFFFFF AND MUL OR SWAP1 SSTORE POP DUP1 PUSH1 0x3 PUSH0 PUSH2 0x100 EXP DUP2 SLOAD DUP2 PUSH20 0xFFFFFFFFFFFFFFFFFFFFFFFFFFFFFFFFFFFFFFFF MUL NOT AND SWAP1 DUP4 PUSH20 0xFFFFFFFFFFFFFFFFFFFFFFFFFFFFFFFFFFFFFFFF AND MUL OR SWAP1 SSTORE POP POP POP PUSH2 0x332 JUMP JUMPDEST PUSH0 PUSH1 0x1 DUP1 SLOAD SWAP1 PUSH2 0x100 EXP SWAP1 DIV PUSH20 0xFFFFFFFFFFFFFFFFFFFFFFFFFFFFFFFFFFFFFFFF AND SWAP1 POP DUP2 PUSH1 0x1 DUP1 PUSH2 0x100 EXP DUP2 SLOAD DUP2 PUSH20 0xFFFFFFFFFFFFFFFFFFFFFFFFFFFFFFFFFFFFFFFF MUL NOT AND SWAP1 DUP4 PUSH20 0xFFFFFFFFFFFFFFFFFFFFFFFFFFFFFFFFFFFFFFFF AND MUL OR SWAP1 SSTORE POP DUP2 PUSH20 0xFFFFFFFFFFFFFFFFFFFFFFFFFFFFFFFFFFFFFFFF AND DUP2 PUSH20 0xFFFFFFFFFFFFFFFFFFFFFFFFFFFFFFFFFFFFFFFF AND PUSH32 0x8BE0079C531659141344CD1FD0A4F28419497F9722A3DAAFE3B4186F6B6457E0 PUSH1 0x40 MLOAD PUSH1 0x40 MLOAD DUP1 SWAP2 SUB SWAP1 LOG3 POP POP JUMP JUMPDEST PUSH0 DUP1 REVERT JUMPDEST PUSH0 PUSH20 0xFFFFFFFFFFFFFFFFFFFFFFFFFFFFFFFFFFFFFFFF DUP3 AND SWAP1 POP SWAP2 SWAP1 POP JUMP JUMPDEST PUSH0 PUSH2 0x260 DUP3 PUSH2 0x237 JUMP JUMPDEST SWAP1 POP SWAP2 SWAP1 POP JUMP JUMPDEST PUSH0 PUSH2 0x271 DUP3 PUSH2 0x256 JUMP JUMPDEST SWAP1 POP SWAP2 SWAP1 POP JUMP JUMPDEST PUSH2 0x281 DUP2 PUSH2 0x267 JUMP JUMPDEST DUP2 EQ PUSH2 0x28B JUMPI PUSH0 DUP1 REVERT JUMPDEST POP JUMP JUMPDEST PUSH0 DUP2 MLOAD SWAP1 POP PUSH2 0x29C DUP2 PUSH2 0x278 JUMP JUMPDEST SWAP3 SWAP2 POP POP JUMP JUMPDEST PUSH2 0x2AB DUP2 PUSH2 0x256 JUMP JUMPDEST DUP2 EQ PUSH2 0x2B5 JUMPI PUSH0 DUP1 REVERT JUMPDEST POP JUMP JUMPDEST PUSH0 DUP2 MLOAD SWAP1 POP PUSH2 0x2C6 DUP2 PUSH2 0x2A2 JUMP JUMPDEST SWAP3 SWAP2 POP POP JUMP JUMPDEST PUSH0 DUP1 PUSH1 0x40 DUP4 DUP6 SUB SLT ISZERO PUSH2 0x2E2 JUMPI PUSH2 0x2E1 PUSH2 0x233 JUMP JUMPDEST JUMPDEST PUSH0 PUSH2 0x2EF DUP6 DUP3 DUP7 ADD PUSH2 0x28E JUMP JUMPDEST SWAP3 POP POP PUSH1 0x20 PUSH2 0x300 DUP6 DUP3 DUP7 ADD PUSH2 0x2B8 JUMP JUMPDEST SWAP2 POP POP SWAP3 POP SWAP3 SWAP1 POP JUMP JUMPDEST PUSH2 0x313 DUP2 PUSH2 0x256 JUMP JUMPDEST DUP3 MSTORE POP POP JUMP JUMPDEST PUSH0 PUSH1 0x20 DUP3 ADD SWAP1 POP PUSH2 0x32C PUSH0 DUP4 ADD DUP5 PUSH2 0x30A JUMP JUMPDEST SWAP3 SWAP2 POP POP JUMP JUMPDEST PUSH2 0x1D21 DUP1 PUSH2 0x33F PUSH0 CODECOPY PUSH0 RETURN INVALID PUSH1 0x80 PUSH1 0x40 MSTORE PUSH1 0x4 CALLDATASIZE LT PUSH2 0x13F JUMPI PUSH0 CALLDATALOAD PUSH1 0xE0 SHR DUP1 PUSH4 0x8456CB59 GT PUSH2 0xB5 JUMPI DUP1 PUSH4 0x9E30BCE7 GT PUSH2 0x6E JUMPI DUP1 PUSH4 0x9E30BCE7 EQ PUSH2 0x402 JUMPI DUP1 PUSH4 0xA98AD46C EQ PUSH2 0x43E JUMPI DUP1 PUSH4 0xC3B2A4A4 EQ PUSH2 0x468 JUMPI DUP1 PUSH4 0xD57AC70D EQ PUSH2 0x4A4 JUMPI DUP1 PUSH4 0xE3847F0E EQ PUSH2 0x4AE JUMPI DUP1 PUSH4 0xF2FDE38B EQ PUSH2 0x4EA JUMPI PUSH2 0x13F JUMP JUMPDEST DUP1 PUSH4 0x8456CB59 EQ PUSH2 0x30A JUMPI DUP1 PUSH4 0x8DA5CB5B EQ PUSH2 0x320 JUMPI DUP1 PUSH4 0x8E817EFE EQ PUSH2 0x34A JUMPI DUP1 PUSH4 0x9083BAA6 EQ PUSH2 0x372 JUMPI DUP1 PUSH4 0x96AF427D EQ PUSH2 0x39C JUMPI DUP1 PUSH4 0x99EF81BD EQ PUSH2 0x3C6 JUMPI PUSH2 0x13F JUMP JUMPDEST DUP1 PUSH4 0x5269384E GT PUSH2 0x107 JUMPI DUP1 PUSH4 0x5269384E EQ PUSH2 0x212 JUMPI DUP1 PUSH4 0x52CE9714 EQ PUSH2 0x23C JUMPI DUP1 PUSH4 0x5C975ABB EQ PUSH2 0x264 JUMPI DUP1 PUSH4 0x60B3B338 EQ PUSH2 0x28E JUMPI DUP1 PUSH4 0x6C648FC4 EQ PUSH2 0x2B8 JUMPI DUP1 PUSH4 0x715018A6 EQ PUSH2 0x2F4 JUMPI PUSH2 0x13F JUMP JUMPDEST DUP1 PUSH4 0x4885115 EQ PUSH2 0x143 JUMPI DUP1 PUSH4 0x2630C12F EQ PUSH2 0x16D JUMPI DUP1 PUSH4 0x2703EE85 EQ PUSH2 0x197 JUMPI DUP1 PUSH4 0x2F5723D5 EQ PUSH2 0x1D4 JUMPI DUP1 PUSH4 0x3F4BA83A EQ PUSH2 0x1FC JUMPI JUMPDEST PUSH0 DUP1 REVERT JUMPDEST CALLVALUE DUP1 ISZERO PUSH2 0x14E JUMPI PUSH0 DUP1 REVERT JUMPDEST POP PUSH2 0x157 PUSH2 0x512 JUMP JUMPDEST PUSH1 0x40 MLOAD PUSH2 0x164 SWAP2 SWAP1 PUSH2 0x16CB JUMP JUMPDEST PUSH1 0x40 MLOAD DUP1 SWAP2 SUB SWAP1 RETURN JUMPDEST CALLVALUE DUP1 ISZERO PUSH2 0x178 JUMPI PUSH0 DUP1 REVERT JUMPDEST POP PUSH2 0x181 PUSH2 0x518 JUMP JUMPDEST PUSH1 0x40 MLOAD PUSH2 0x18E SWAP2 SWAP1 PUSH2 0x175E JUMP JUMPDEST PUSH1 0x40 MLOAD DUP1 SWAP2 SUB SWAP1 RETURN JUMPDEST CALLVALUE DUP1 ISZERO PUSH2 0x1A2 JUMPI PUSH0 DUP1 REVERT JUMPDEST POP PUSH2 0x1BD PUSH1 0x4 DUP1 CALLDATASIZE SUB DUP2 ADD SWAP1 PUSH2 0x1B8 SWAP2 SWAP1 PUSH2 0x17B6 JUMP JUMPDEST PUSH2 0x53D JUMP JUMPDEST PUSH1 0x40 MLOAD PUSH2 0x1CB SWAP3 SWAP2 SWAP1 PUSH2 0x17E1 JUMP JUMPDEST PUSH1 0x40 MLOAD DUP1 SWAP2 SUB SWAP1 RETURN JUMPDEST CALLVALUE DUP1 ISZERO PUSH2 0x1DF JUMPI PUSH0 DUP1 REVERT JUMPDEST POP PUSH2 0x1FA PUSH1 0x4 DUP1 CALLDATASIZE SUB DUP2 ADD SWAP1 PUSH2 0x1F5 SWAP2 SWAP1 PUSH2 0x1832 JUMP JUMPDEST PUSH2 0x5C4 JUMP JUMPDEST STOP JUMPDEST CALLVALUE DUP1 ISZERO PUSH2 0x207 JUMPI PUSH0 DUP1 REVERT JUMPDEST POP PUSH2 0x210 PUSH2 0x7B9 JUMP JUMPDEST STOP JUMPDEST CALLVALUE DUP1 ISZERO PUSH2 0x21D JUMPI PUSH0 DUP1 REVERT JUMPDEST POP PUSH2 0x226 PUSH2 0x7CB JUMP JUMPDEST PUSH1 0x40 MLOAD PUSH2 0x233 SWAP2 SWAP1 PUSH2 0x16CB JUMP JUMPDEST PUSH1 0x40 MLOAD DUP1 SWAP2 SUB SWAP1 RETURN JUMPDEST CALLVALUE DUP1 ISZERO PUSH2 0x247 JUMPI PUSH0 DUP1 REVERT JUMPDEST POP PUSH2 0x262 PUSH1 0x4 DUP1 CALLDATASIZE SUB DUP2 ADD SWAP1 PUSH2 0x25D SWAP2 SWAP1 PUSH2 0x1832 JUMP JUMPDEST PUSH2 0x7D1 JUMP JUMPDEST STOP JUMPDEST CALLVALUE DUP1 ISZERO PUSH2 0x26F JUMPI PUSH0 DUP1 REVERT JUMPDEST POP PUSH2 0x278 PUSH2 0xA42 JUMP JUMPDEST PUSH1 0x40 MLOAD PUSH2 0x285 SWAP2 SWAP1 PUSH2 0x1877 JUMP JUMPDEST PUSH1 0x40 MLOAD DUP1 SWAP2 SUB SWAP1 RETURN JUMPDEST CALLVALUE DUP1 ISZERO PUSH2 0x299 JUMPI PUSH0 DUP1 REVERT JUMPDEST POP PUSH2 0x2A2 PUSH2 0xA57 JUMP JUMPDEST PUSH1 0x40 MLOAD PUSH2 0x2AF SWAP2 SWAP1 PUSH2 0x16CB JUMP JUMPDEST PUSH1 0x40 MLOAD DUP1 SWAP2 SUB SWAP1 RETURN JUMPDEST CALLVALUE DUP1 ISZERO PUSH2 0x2C3 JUMPI PUSH0 DUP1 REVERT JUMPDEST POP PUSH2 0x2DE PUSH1 0x4 DUP1 CALLDATASIZE SUB DUP2 ADD SWAP1 PUSH2 0x2D9 SWAP2 SWAP1 PUSH2 0x17B6 JUMP JUMPDEST PUSH2 0xA5D JUMP JUMPDEST PUSH1 0x40 MLOAD PUSH2 0x2EB SWAP2 SWAP1 PUSH2 0x16CB JUMP JUMPDEST PUSH1 0x40 MLOAD DUP1 SWAP2 SUB SWAP1 RETURN JUMPDEST CALLVALUE DUP1 ISZERO PUSH2 0x2FF JUMPI PUSH0 DUP1 REVERT JUMPDEST POP PUSH2 0x308 PUSH2 0xC57 JUMP JUMPDEST STOP JUMPDEST CALLVALUE DUP1 ISZERO PUSH2 0x315 JUMPI PUSH0 DUP1 REVERT JUMPDEST POP PUSH2 0x31E PUSH2 0xC6A JUMP JUMPDEST STOP JUMPDEST CALLVALUE DUP1 ISZERO PUSH2 0x32B JUMPI PUSH0 DUP1 REVERT JUMPDEST POP PUSH2 0x334 PUSH2 0xC7C JUMP JUMPDEST PUSH1 0x40 MLOAD PUSH2 0x341 SWAP2 SWAP1 PUSH2 0x189F JUMP JUMPDEST PUSH1 0x40 MLOAD DUP1 SWAP2 SUB SWAP1 RETURN JUMPDEST CALLVALUE DUP1 ISZERO PUSH2 0x355 JUMPI PUSH0 DUP1 REVERT JUMPDEST POP PUSH2 0x370 PUSH1 0x4 DUP1 CALLDATASIZE SUB DUP2 ADD SWAP1 PUSH2 0x36B SWAP2 SWAP1 PUSH2 0x1832 JUMP JUMPDEST PUSH2 0xCA3 JUMP JUMPDEST STOP JUMPDEST CALLVALUE DUP1 ISZERO PUSH2 0x37D JUMPI PUSH0 DUP1 REVERT JUMPDEST POP PUSH2 0x386 PUSH2 0xE7D JUMP JUMPDEST PUSH1 0x40 MLOAD PUSH2 0x393 SWAP2 SWAP1 PUSH2 0x16CB JUMP JUMPDEST PUSH1 0x40 MLOAD DUP1 SWAP2 SUB SWAP1 RETURN JUMPDEST CALLVALUE DUP1 ISZERO PUSH2 0x3A7 JUMPI PUSH0 DUP1 REVERT JUMPDEST POP PUSH2 0x3B0 PUSH2 0xE83 JUMP JUMPDEST PUSH1 0x40 MLOAD PUSH2 0x3BD SWAP2 SWAP1 PUSH2 0x16CB JUMP JUMPDEST PUSH1 0x40 MLOAD DUP1 SWAP2 SUB SWAP1 RETURN JUMPDEST CALLVALUE DUP1 ISZERO PUSH2 0x3D1 JUMPI PUSH0 DUP1 REVERT JUMPDEST POP PUSH2 0x3EC PUSH1 0x4 DUP1 CALLDATASIZE SUB DUP2 ADD SWAP1 PUSH2 0x3E7 SWAP2 SWAP1 PUSH2 0x17B6 JUMP JUMPDEST PUSH2 0xFFB JUMP JUMPDEST PUSH1 0x40 MLOAD PUSH2 0x3F9 SWAP2 SWAP1 PUSH2 0x16CB JUMP JUMPDEST PUSH1 0x40 MLOAD DUP1 SWAP2 SUB SWAP1 RETURN JUMPDEST CALLVALUE DUP1 ISZERO PUSH2 0x40D JUMPI PUSH0 DUP1 REVERT JUMPDEST POP PUSH2 0x428 PUSH1 0x4 DUP1 CALLDATASIZE SUB DUP2 ADD SWAP1 PUSH2 0x423 SWAP2 SWAP1 PUSH2 0x17B6 JUMP JUMPDEST PUSH2 0x10F2 JUMP JUMPDEST PUSH1 0x40 MLOAD PUSH2 0x435 SWAP2 SWAP1 PUSH2 0x16CB JUMP JUMPDEST PUSH1 0x40 MLOAD DUP1 SWAP2 SUB SWAP1 RETURN JUMPDEST CALLVALUE DUP1 ISZERO PUSH2 0x449 JUMPI PUSH0 DUP1 REVERT JUMPDEST POP PUSH2 0x452 PUSH2 0x1107 JUMP JUMPDEST PUSH1 0x40 MLOAD PUSH2 0x45F SWAP2 SWAP1 PUSH2 0x18D8 JUMP JUMPDEST PUSH1 0x40 MLOAD DUP1 SWAP2 SUB SWAP1 RETURN JUMPDEST CALLVALUE DUP1 ISZERO PUSH2 0x473 JUMPI PUSH0 DUP1 REVERT JUMPDEST POP PUSH2 0x48E PUSH1 0x4 DUP1 CALLDATASIZE SUB DUP2 ADD SWAP1 PUSH2 0x489 SWAP2 SWAP1 PUSH2 0x17B6 JUMP JUMPDEST PUSH2 0x112C JUMP JUMPDEST PUSH1 0x40 MLOAD PUSH2 0x49B SWAP2 SWAP1 PUSH2 0x16CB JUMP JUMPDEST PUSH1 0x40 MLOAD DUP1 SWAP2 SUB SWAP1 RETURN JUMPDEST PUSH2 0x4AC PUSH2 0x1141 JUMP JUMPDEST STOP JUMPDEST CALLVALUE DUP1 ISZERO PUSH2 0x4B9 JUMPI PUSH0 DUP1 REVERT JUMPDEST POP PUSH2 0x4D4 PUSH1 0x4 DUP1 CALLDATASIZE SUB DUP2 ADD SWAP1 PUSH2 0x4CF SWAP2 SWAP1 PUSH2 0x17B6 JUMP JUMPDEST PUSH2 0x1258 JUMP JUMPDEST PUSH1 0x40 MLOAD PUSH2 0x4E1 SWAP2 SWAP1 PUSH2 0x16CB JUMP JUMPDEST PUSH1 0x40 MLOAD DUP1 SWAP2 SUB SWAP1 RETURN JUMPDEST CALLVALUE DUP1 ISZERO PUSH2 0x4F5 JUMPI PUSH0 DUP1 REVERT JUMPDEST POP PUSH2 0x510 PUSH1 0x4 DUP1 CALLDATASIZE SUB DUP2 ADD SWAP1 PUSH2 0x50B SWAP2 SWAP1 PUSH2 0x17B6 JUMP JUMPDEST PUSH2 0x134F JUMP JUMPDEST STOP JUMPDEST PUSH1 0x7 SLOAD DUP2 JUMP JUMPDEST PUSH1 0x3 PUSH0 SWAP1 SLOAD SWAP1 PUSH2 0x100 EXP SWAP1 DIV PUSH20 0xFFFFFFFFFFFFFFFFFFFFFFFFFFFFFFFFFFFFFFFF AND DUP2 JUMP JUMPDEST PUSH0 DUP1 PUSH1 0x8 PUSH0 DUP5 PUSH20 0xFFFFFFFFFFFFFFFFFFFFFFFFFFFFFFFFFFFFFFFF AND PUSH20 0xFFFFFFFFFFFFFFFFFFFFFFFFFFFFFFFFFFFFFFFF AND DUP2 MSTORE PUSH1 0x20 ADD SWAP1 DUP2 MSTORE PUSH1 0x20 ADD PUSH0 KECCAK256 SLOAD PUSH1 0x9 PUSH0 DUP6 PUSH20 0xFFFFFFFFFFFFFFFFFFFFFFFFFFFFFFFFFFFFFFFF AND PUSH20 0xFFFFFFFFFFFFFFFFFFFFFFFFFFFFFFFFFFFFFFFF AND DUP2 MSTORE PUSH1 0x20 ADD SWAP1 DUP2 MSTORE PUSH1 0x20 ADD PUSH0 KECCAK256 SLOAD SWAP2 POP SWAP2 POP SWAP2 POP SWAP2 JUMP JUMPDEST PUSH2 0x5CC PUSH2 0x13D3 JUMP JUMPDEST PUSH2 0x5D4 PUSH2 0x1417 JUMP JUMPDEST PUSH1 0x6 SLOAD DUP2 GT PUSH2 0x618 JUMPI PUSH1 0x40 MLOAD PUSH32 0x8C379A000000000000000000000000000000000000000000000000000000000 DUP2 MSTORE PUSH1 0x4 ADD PUSH2 0x60F SWAP1 PUSH2 0x1971 JUMP JUMPDEST PUSH1 0x40 MLOAD DUP1 SWAP2 SUB SWAP1 REVERT JUMPDEST PUSH1 0x2 PUSH0 SWAP1 SLOAD SWAP1 PUSH2 0x100 EXP SWAP1 DIV PUSH20 0xFFFFFFFFFFFFFFFFFFFFFFFFFFFFFFFFFFFFFFFF AND PUSH20 0xFFFFFFFFFFFFFFFFFFFFFFFFFFFFFFFFFFFFFFFF AND PUSH4 0x23B872DD CALLER ADDRESS DUP5 PUSH1 0x40 MLOAD DUP5 PUSH4 0xFFFFFFFF AND PUSH1 0xE0 SHL DUP2 MSTORE PUSH1 0x4 ADD PUSH2 0x676 SWAP4 SWAP3 SWAP2 SWAP1 PUSH2 0x198F JUMP JUMPDEST PUSH1 0x20 PUSH1 0x40 MLOAD DUP1 DUP4 SUB DUP2 PUSH0 DUP8 GAS CALL ISZERO DUP1 ISZERO PUSH2 0x692 JUMPI RETURNDATASIZE PUSH0 DUP1 RETURNDATACOPY RETURNDATASIZE PUSH0 REVERT JUMPDEST POP POP POP POP PUSH1 0x40 MLOAD RETURNDATASIZE PUSH1 0x1F NOT PUSH1 0x1F DUP3 ADD AND DUP3 ADD DUP1 PUSH1 0x40 MSTORE POP DUP2 ADD SWAP1 PUSH2 0x6B6 SWAP2 SWAP1 PUSH2 0x19EE JUMP JUMPDEST PUSH2 0x6F5 JUMPI PUSH1 0x40 MLOAD PUSH32 0x8C379A000000000000000000000000000000000000000000000000000000000 DUP2 MSTORE PUSH1 0x4 ADD PUSH2 0x6EC SWAP1 PUSH2 0x1A89 JUMP JUMPDEST PUSH1 0x40 MLOAD DUP1 SWAP2 SUB SWAP1 REVERT JUMPDEST DUP1 PUSH1 0x9 PUSH0 CALLER PUSH20 0xFFFFFFFFFFFFFFFFFFFFFFFFFFFFFFFFFFFFFFFF AND PUSH20 0xFFFFFFFFFFFFFFFFFFFFFFFFFFFFFFFFFFFFFFFF AND DUP2 MSTORE PUSH1 0x20 ADD SWAP1 DUP2 MSTORE PUSH1 0x20 ADD PUSH0 KECCAK256 PUSH0 DUP3 DUP3 SLOAD PUSH2 0x741 SWAP2 SWAP1 PUSH2 0x1AD4 JUMP JUMPDEST SWAP3 POP POP DUP2 SWAP1 SSTORE POP DUP1 PUSH1 0x5 PUSH0 DUP3 DUP3 SLOAD PUSH2 0x759 SWAP2 SWAP1 PUSH2 0x1AD4 JUMP JUMPDEST SWAP3 POP POP DUP2 SWAP1 SSTORE POP CALLER PUSH20 0xFFFFFFFFFFFFFFFFFFFFFFFFFFFFFFFFFFFFFFFF AND PUSH32 0x9A4C731FF1518C7A820E31D32E673B031B8974967931AFB2EEC308066090022D DUP3 PUSH1 0x40 MLOAD PUSH2 0x7A6 SWAP2 SWAP1 PUSH2 0x16CB JUMP JUMPDEST PUSH1 0x40 MLOAD DUP1 SWAP2 SUB SWAP1 LOG2 PUSH2 0x7B6 PUSH2 0x1458 JUMP JUMPDEST POP JUMP JUMPDEST PUSH2 0x7C1 PUSH2 0x1461 JUMP JUMPDEST PUSH2 0x7C9 PUSH2 0x14E8 JUMP JUMPDEST JUMP JUMPDEST PUSH1 0x6 SLOAD DUP2 JUMP JUMPDEST PUSH2 0x7D9 PUSH2 0x13D3 JUMP JUMPDEST PUSH2 0x7E1 PUSH2 0x1417 JUMP JUMPDEST PUSH0 DUP2 GT PUSH2 0x823 JUMPI PUSH1 0x40 MLOAD PUSH32 0x8C379A000000000000000000000000000000000000000000000000000000000 DUP2 MSTORE PUSH1 0x4 ADD PUSH2 0x81A SWAP1 PUSH2 0x1971 JUMP JUMPDEST PUSH1 0x40 MLOAD DUP1 SWAP2 SUB SWAP1 REVERT JUMPDEST DUP1 PUSH1 0x9 PUSH0 CALLER PUSH20 0xFFFFFFFFFFFFFFFFFFFFFFFFFFFFFFFFFFFFFFFF AND PUSH20 0xFFFFFFFFFFFFFFFFFFFFFFFFFFFFFFFFFFFFFFFF AND DUP2 MSTORE PUSH1 0x20 ADD SWAP1 DUP2 MSTORE PUSH1 0x20 ADD PUSH0 KECCAK256 SLOAD LT ISZERO PUSH2 0x8A3 JUMPI PUSH1 0x40 MLOAD PUSH32 0x8C379A000000000000000000000000000000000000000000000000000000000 DUP2 MSTORE PUSH1 0x4 ADD PUSH2 0x89A SWAP1 PUSH2 0x1B77 JUMP JUMPDEST PUSH1 0x40 MLOAD DUP1 SWAP2 SUB SWAP1 REVERT JUMPDEST DUP1 PUSH1 0x9 PUSH0 CALLER PUSH20 0xFFFFFFFFFFFFFFFFFFFFFFFFFFFFFFFFFFFFFFFF AND PUSH20 0xFFFFFFFFFFFFFFFFFFFFFFFFFFFFFFFFFFFFFFFF AND DUP2 MSTORE PUSH1 0x20 ADD SWAP1 DUP2 MSTORE PUSH1 0x20 ADD PUSH0 KECCAK256 PUSH0 DUP3 DUP3 SLOAD PUSH2 0x8EF SWAP2 SWAP1 PUSH2 0x1B95 JUMP JUMPDEST SWAP3 POP POP DUP2 SWAP1 SSTORE POP DUP1 PUSH1 0x5 PUSH0 DUP3 DUP3 SLOAD PUSH2 0x907 SWAP2 SWAP1 PUSH2 0x1B95 JUMP JUMPDEST SWAP3 POP POP DUP2 SWAP1 SSTORE POP PUSH1 0x2 PUSH0 SWAP1 SLOAD SWAP1 PUSH2 0x100 EXP SWAP1 DIV PUSH20 0xFFFFFFFFFFFFFFFFFFFFFFFFFFFFFFFFFFFFFFFF AND PUSH20 0xFFFFFFFFFFFFFFFFFFFFFFFFFFFFFFFFFFFFFFFF AND PUSH4 0xA9059CBB CALLER DUP4 PUSH1 0x40 MLOAD DUP4 PUSH4 0xFFFFFFFF AND PUSH1 0xE0 SHL DUP2 MSTORE PUSH1 0x4 ADD PUSH2 0x96A SWAP3 SWAP2 SWAP1 PUSH2 0x1BC8 JUMP JUMPDEST PUSH1 0x20 PUSH1 0x40 MLOAD DUP1 DUP4 SUB DUP2 PUSH0 DUP8 GAS CALL ISZERO DUP1 ISZERO PUSH2 0x986 JUMPI RETURNDATASIZE PUSH0 DUP1 RETURNDATACOPY RETURNDATASIZE PUSH0 REVERT JUMPDEST POP POP POP POP PUSH1 0x40 MLOAD RETURNDATASIZE PUSH1 0x1F NOT PUSH1 0x1F DUP3 ADD AND DUP3 ADD DUP1 PUSH1 0x40 MSTORE POP DUP2 ADD SWAP1 PUSH2 0x9AA SWAP2 SWAP1 PUSH2 0x19EE JUMP JUMPDEST PUSH2 0x9E9 JUMPI PUSH1 0x40 MLOAD PUSH32 0x8C379A000000000000000000000000000000000000000000000000000000000 DUP2 MSTORE PUSH1 0x4 ADD PUSH2 0x9E0 SWAP1 PUSH2 0x1A89 JUMP JUMPDEST PUSH1 0x40 MLOAD DUP1 SWAP2 SUB SWAP1 REVERT JUMPDEST CALLER PUSH20 0xFFFFFFFFFFFFFFFFFFFFFFFFFFFFFFFFFFFFFFFF AND PUSH32 0xC01511AC0A76D7DC4D420282166E32AC9366C3F78E450661D140D248B19A4000 DUP3 PUSH1 0x40 MLOAD PUSH2 0xA2F SWAP2 SWAP1 PUSH2 0x16CB JUMP JUMPDEST PUSH1 0x40 MLOAD DUP1 SWAP2 SUB SWAP1 LOG2 PUSH2 0xA3F PUSH2 0x1458 JUMP JUMPDEST POP JUMP JUMPDEST PUSH0 PUSH1 0x1 PUSH0 SWAP1 SLOAD SWAP1 PUSH2 0x100 EXP SWAP1 DIV PUSH1 0xFF AND SWAP1 POP SWAP1 JUMP JUMPDEST PUSH1 0x4 SLOAD DUP2 JUMP JUMPDEST PUSH0 DUP1 PUSH1 0x8 PUSH0 DUP5 PUSH20 0xFFFFFFFFFFFFFFFFFFFFFFFFFFFFFFFFFFFFFFFF AND PUSH20 0xFFFFFFFFFFFFFFFFFFFFFFFFFFFFFFFFFFFFFFFF AND DUP2 MSTORE PUSH1 0x20 ADD SWAP1 DUP2 MSTORE PUSH1 0x20 ADD PUSH0 KECCAK256 SLOAD SWAP1 POP PUSH0 PUSH1 0x9 PUSH0 DUP6 PUSH20 0xFFFFFFFFFFFFFFFFFFFFFFFFFFFFFFFFFFFFFFFF AND PUSH20 0xFFFFFFFFFFFFFFFFFFFFFFFFFFFFFFFFFFFFFFFF AND DUP2 MSTORE PUSH1 0x20 ADD SWAP1 DUP2 MSTORE PUSH1 0x20 ADD PUSH0 KECCAK256 SLOAD SWAP1 POP PUSH0 PUSH1 0x3 PUSH0 SWAP1 SLOAD SWAP1 PUSH2 0x100 EXP SWAP1 DIV PUSH20 0xFFFFFFFFFFFFFFFFFFFFFFFFFFFFFFFFFFFFFFFF AND PUSH20 0xFFFFFFFFFFFFFFFFFFFFFFFFFFFFFFFFFFFFFFFF AND PUSH4 0x73544CFD PUSH1 0x40 MLOAD DUP2 PUSH4 0xFFFFFFFF AND PUSH1 0xE0 SHL DUP2 MSTORE PUSH1 0x4 ADD PUSH1 0x20 PUSH1 0x40 MLOAD DUP1 DUP4 SUB DUP2 DUP7 GAS STATICCALL ISZERO DUP1 ISZERO PUSH2 0xB4B JUMPI RETURNDATASIZE PUSH0 DUP1 RETURNDATACOPY RETURNDATASIZE PUSH0 REVERT JUMPDEST POP POP POP POP PUSH1 0x40 MLOAD RETURNDATASIZE PUSH1 0x1F NOT PUSH1 0x1F DUP3 ADD AND DUP3 ADD DUP1 PUSH1 0x40 MSTORE POP DUP2 ADD SWAP1 PUSH2 0xB6F SWAP2 SWAP1 PUSH2 0x1C22 JUMP JUMPDEST SWAP1 POP PUSH0 PUSH1 0x3 PUSH0 SWAP1 SLOAD SWAP1 PUSH2 0x100 EXP SWAP1 DIV PUSH20 0xFFFFFFFFFFFFFFFFFFFFFFFFFFFFFFFFFFFFFFFF AND PUSH20 0xFFFFFFFFFFFFFFFFFFFFFFFFFFFFFFFFFFFFFFFF AND PUSH4 0x961BDFBF PUSH1 0x40 MLOAD DUP2 PUSH4 0xFFFFFFFF AND PUSH1 0xE0 SHL DUP2 MSTORE PUSH1 0x4 ADD PUSH1 0x20 PUSH1 0x40 MLOAD DUP1 DUP4 SUB DUP2 DUP7 GAS STATICCALL ISZERO DUP1 ISZERO PUSH2 0xBDC JUMPI RETURNDATASIZE PUSH0 DUP1 RETURNDATACOPY RETURNDATASIZE PUSH0 REVERT JUMPDEST POP POP POP POP PUSH1 0x40 MLOAD RETURNDATASIZE PUSH1 0x1F NOT PUSH1 0x1F DUP3 ADD AND DUP3 ADD DUP1 PUSH1 0x40 MSTORE POP DUP2 ADD SWAP1 PUSH2 0xC00 SWAP2 SWAP1 PUSH2 0x1C22 JUMP JUMPDEST SWAP1 POP PUSH0 PUSH4 0x5F5E100 DUP4 DUP7 PUSH2 0xC14 SWAP2 SWAP1 PUSH2 0x1C4D JUMP JUMPDEST PUSH2 0xC1E SWAP2 SWAP1 PUSH2 0x1CBB JUMP JUMPDEST SWAP1 POP PUSH0 PUSH4 0x5F5E100 DUP4 DUP7 PUSH2 0xC32 SWAP2 SWAP1 PUSH2 0x1C4D JUMP JUMPDEST PUSH2 0xC3C SWAP2 SWAP1 PUSH2 0x1CBB JUMP JUMPDEST SWAP1 POP DUP1 DUP3 PUSH2 0xC4A SWAP2 SWAP1 PUSH2 0x1AD4 JUMP JUMPDEST SWAP7 POP POP POP POP POP POP POP SWAP2 SWAP1 POP JUMP JUMPDEST PUSH2 0xC5F PUSH2 0x1461 JUMP JUMPDEST PUSH2 0xC68 PUSH0 PUSH2 0x1549 JUMP JUMPDEST JUMP JUMPDEST PUSH2 0xC72 PUSH2 0x1461 JUMP JUMPDEST PUSH2 0xC7A PUSH2 0x160B JUMP JUMPDEST JUMP JUMPDEST PUSH0 PUSH1 0x1 DUP1 SLOAD SWAP1 PUSH2 0x100 EXP SWAP1 DIV PUSH20 0xFFFFFFFFFFFFFFFFFFFFFFFFFFFFFFFFFFFFFFFF AND SWAP1 POP SWAP1 JUMP JUMPDEST PUSH2 0xCAB PUSH2 0x13D3 JUMP JUMPDEST PUSH2 0xCB3 PUSH2 0x1417 JUMP JUMPDEST PUSH0 DUP2 GT PUSH2 0xCF5 JUMPI PUSH1 0x40 MLOAD PUSH32 0x8C379A000000000000000000000000000000000000000000000000000000000 DUP2 MSTORE PUSH1 0x4 ADD PUSH2 0xCEC SWAP1 PUSH2 0x1971 JUMP JUMPDEST PUSH1 0x40 MLOAD DUP1 SWAP2 SUB SWAP1 REVERT JUMPDEST DUP1 PUSH1 0x8 PUSH0 CALLER PUSH20 0xFFFFFFFFFFFFFFFFFFFFFFFFFFFFFFFFFFFFFFFF AND PUSH20 0xFFFFFFFFFFFFFFFFFFFFFFFFFFFFFFFFFFFFFFFF AND DUP2 MSTORE PUSH1 0x20 ADD SWAP1 DUP2 MSTORE PUSH1 0x20 ADD PUSH0 KECCAK256 SLOAD LT ISZERO PUSH2 0xD75 JUMPI PUSH1 0x40 MLOAD PUSH32 0x8C379A000000000000000000000000000000000000000000000000000000000 DUP2 MSTORE PUSH1 0x4 ADD PUSH2 0xD6C SWAP1 PUSH2 0x1B77 JUMP JUMPDEST PUSH1 0x40 MLOAD DUP1 SWAP2 SUB SWAP1 REVERT JUMPDEST DUP1 PUSH1 0x8 PUSH0 CALLER PUSH20 0xFFFFFFFFFFFFFFFFFFFFFFFFFFFFFFFFFFFFFFFF AND PUSH20 0xFFFFFFFFFFFFFFFFFFFFFFFFFFFFFFFFFFFFFFFF AND DUP2 MSTORE PUSH1 0x20 ADD SWAP1 DUP2 MSTORE PUSH1 0x20 ADD PUSH0 KECCAK256 PUSH0 DUP3 DUP3 SLOAD PUSH2 0xDC1 SWAP2 SWAP1 PUSH2 0x1B95 JUMP JUMPDEST SWAP3 POP POP DUP2 SWAP1 SSTORE POP DUP1 PUSH1 0x4 PUSH0 DUP3 DUP3 SLOAD PUSH2 0xDD9 SWAP2 SWAP1 PUSH2 0x1B95 JUMP JUMPDEST SWAP3 POP POP DUP2 SWAP1 SSTORE POP CALLER PUSH20 0xFFFFFFFFFFFFFFFFFFFFFFFFFFFFFFFFFFFFFFFF AND PUSH2 0x8FC DUP3 SWAP1 DUP2 ISZERO MUL SWAP1 PUSH1 0x40 MLOAD PUSH0 PUSH1 0x40 MLOAD DUP1 DUP4 SUB DUP2 DUP6 DUP9 DUP9 CALL SWAP4 POP POP POP POP ISZERO DUP1 ISZERO PUSH2 0xE23 JUMPI RETURNDATASIZE PUSH0 DUP1 RETURNDATACOPY RETURNDATASIZE PUSH0 REVERT JUMPDEST POP CALLER PUSH20 0xFFFFFFFFFFFFFFFFFFFFFFFFFFFFFFFFFFFFFFFF AND PUSH32 0xC3D79D31DC82080BAF59AB3C3058C3C7C4F88F9969422CAA1B42C51577D640B DUP3 PUSH1 0x40 MLOAD PUSH2 0xE6A SWAP2 SWAP1 PUSH2 0x16CB JUMP JUMPDEST PUSH1 0x40 MLOAD DUP1 SWAP2 SUB SWAP1 LOG2 PUSH2 0xE7A PUSH2 0x1458 JUMP JUMPDEST POP JUMP JUMPDEST PUSH1 0x5 SLOAD DUP2 JUMP JUMPDEST PUSH0 DUP1 PUSH1 0x3 PUSH0 SWAP1 SLOAD SWAP1 PUSH2 0x100 EXP SWAP1 DIV PUSH20 0xFFFFFFFFFFFFFFFFFFFFFFFFFFFFFFFFFFFFFFFF AND PUSH20 0xFFFFFFFFFFFFFFFFFFFFFFFFFFFFFFFFFFFFFFFF AND PUSH4 0x73544CFD PUSH1 0x40 MLOAD DUP2 PUSH4 0xFFFFFFFF AND PUSH1 0xE0 SHL DUP2 MSTORE PUSH1 0x4 ADD PUSH1 0x20 PUSH1 0x40 MLOAD DUP1 DUP4 SUB DUP2 DUP7 GAS STATICCALL ISZERO DUP1 ISZERO PUSH2 0xEEF JUMPI RETURNDATASIZE PUSH0 DUP1 RETURNDATACOPY RETURNDATASIZE PUSH0 REVERT JUMPDEST POP POP POP POP PUSH1 0x40 MLOAD RETURNDATASIZE PUSH1 0x1F NOT PUSH1 0x1F DUP3 ADD AND DUP3 ADD DUP1 PUSH1 0x40 MSTORE POP DUP2 ADD SWAP1 PUSH2 0xF13 SWAP2 SWAP1 PUSH2 0x1C22 JUMP JUMPDEST SWAP1 POP PUSH0 PUSH1 0x3 PUSH0 SWAP1 SLOAD SWAP1 PUSH2 0x100 EXP SWAP1 DIV PUSH20 0xFFFFFFFFFFFFFFFFFFFFFFFFFFFFFFFFFFFFFFFF AND PUSH20 0xFFFFFFFFFFFFFFFFFFFFFFFFFFFFFFFFFFFFFFFF AND PUSH4 0x961BDFBF PUSH1 0x40 MLOAD DUP2 PUSH4 0xFFFFFFFF AND PUSH1 0xE0 SHL DUP2 MSTORE PUSH1 0x4 ADD PUSH1 0x20 PUSH1 0x40 MLOAD DUP1 DUP4 SUB DUP2 DUP7 GAS STATICCALL ISZERO DUP1 ISZERO PUSH2 0xF80 JUMPI RETURNDATASIZE PUSH0 DUP1 RETURNDATACOPY RETURNDATASIZE PUSH0 REVERT JUMPDEST POP POP POP POP PUSH1 0x40 MLOAD RETURNDATASIZE PUSH1 0x1F NOT PUSH1 0x1F DUP3 ADD AND DUP3 ADD DUP1 PUSH1 0x40 MSTORE POP DUP2 ADD SWAP1 PUSH2 0xFA4 SWAP2 SWAP1 PUSH2 0x1C22 JUMP JUMPDEST SWAP1 POP PUSH0 PUSH4 0x5F5E100 DUP4 PUSH1 0x4 SLOAD PUSH2 0xFBA SWAP2 SWAP1 PUSH2 0x1C4D JUMP JUMPDEST PUSH2 0xFC4 SWAP2 SWAP1 PUSH2 0x1CBB JUMP JUMPDEST SWAP1 POP PUSH0 PUSH4 0x5F5E100 DUP4 PUSH1 0x5 SLOAD PUSH2 0xFDA SWAP2 SWAP1 PUSH2 0x1C4D JUMP JUMPDEST PUSH2 0xFE4 SWAP2 SWAP1 PUSH2 0x1CBB JUMP JUMPDEST SWAP1 POP DUP1 DUP3 PUSH2 0xFF2 SWAP2 SWAP1 PUSH2 0x1AD4 JUMP JUMPDEST SWAP5 POP POP POP POP POP SWAP1 JUMP JUMPDEST PUSH0 DUP1 PUSH1 0x9 PUSH0 DUP5 PUSH20 0xFFFFFFFFFFFFFFFFFFFFFFFFFFFFFFFFFFFFFFFF AND PUSH20 0xFFFFFFFFFFFFFFFFFFFFFFFFFFFFFFFFFFFFFFFF AND DUP2 MSTORE PUSH1 0x20 ADD SWAP1 DUP2 MSTORE PUSH1 0x20 ADD PUSH0 KECCAK256 SLOAD SWAP1 POP PUSH0 PUSH1 0x3 PUSH0 SWAP1 SLOAD SWAP1 PUSH2 0x100 EXP SWAP1 DIV PUSH20 0xFFFFFFFFFFFFFFFFFFFFFFFFFFFFFFFFFFFFFFFF AND PUSH20 0xFFFFFFFFFFFFFFFFFFFFFFFFFFFFFFFFFFFFFFFF AND PUSH4 0x961BDFBF PUSH1 0x40 MLOAD DUP2 PUSH4 0xFFFFFFFF AND PUSH1 0xE0 SHL DUP2 MSTORE PUSH1 0x4 ADD PUSH1 0x20 PUSH1 0x40 MLOAD DUP1 DUP4 SUB DUP2 DUP7 GAS STATICCALL ISZERO DUP1 ISZERO PUSH2 0x10A8 JUMPI RETURNDATASIZE PUSH0 DUP1 RETURNDATACOPY RETURNDATASIZE PUSH0 REVERT JUMPDEST POP POP POP POP PUSH1 0x40 MLOAD RETURNDATASIZE PUSH1 0x1F NOT PUSH1 0x1F DUP3 ADD AND DUP3 ADD DUP1 PUSH1 0x40 MSTORE POP DUP2 ADD SWAP1 PUSH2 0x10CC SWAP2 SWAP1 PUSH2 0x1C22 JUMP JUMPDEST SWAP1 POP PUSH4 0x5F5E100 DUP2 DUP4 PUSH2 0x10DF SWAP2 SWAP1 PUSH2 0x1C4D JUMP JUMPDEST PUSH2 0x10E9 SWAP2 SWAP1 PUSH2 0x1CBB JUMP JUMPDEST SWAP3 POP POP POP SWAP2 SWAP1 POP JUMP JUMPDEST PUSH1 0x8 PUSH1 0x20 MSTORE DUP1 PUSH0 MSTORE PUSH1 0x40 PUSH0 KECCAK256 PUSH0 SWAP2 POP SWAP1 POP SLOAD DUP2 JUMP JUMPDEST PUSH1 0x2 PUSH0 SWAP1 SLOAD SWAP1 PUSH2 0x100 EXP SWAP1 DIV PUSH20 0xFFFFFFFFFFFFFFFFFFFFFFFFFFFFFFFFFFFFFFFF AND DUP2 JUMP JUMPDEST PUSH1 0x9 PUSH1 0x20 MSTORE DUP1 PUSH0 MSTORE PUSH1 0x40 PUSH0 KECCAK256 PUSH0 SWAP2 POP SWAP1 POP SLOAD DUP2 JUMP JUMPDEST PUSH2 0x1149 PUSH2 0x13D3 JUMP JUMPDEST PUSH2 0x1151 PUSH2 0x1417 JUMP JUMPDEST PUSH1 0x6 SLOAD CALLVALUE GT PUSH2 0x1195 JUMPI PUSH1 0x40 MLOAD PUSH32 0x8C379A000000000000000000000000000000000000000000000000000000000 DUP2 MSTORE PUSH1 0x4 ADD PUSH2 0x118C SWAP1 PUSH2 0x1971 JUMP JUMPDEST PUSH1 0x40 MLOAD DUP1 SWAP2 SUB SWAP1 REVERT JUMPDEST CALLVALUE PUSH1 0x8 PUSH0 CALLER PUSH20 0xFFFFFFFFFFFFFFFFFFFFFFFFFFFFFFFFFFFFFFFF AND PUSH20 0xFFFFFFFFFFFFFFFFFFFFFFFFFFFFFFFFFFFFFFFF AND DUP2 MSTORE PUSH1 0x20 ADD SWAP1 DUP2 MSTORE PUSH1 0x20 ADD PUSH0 KECCAK256 PUSH0 DUP3 DUP3 SLOAD PUSH2 0x11E1 SWAP2 SWAP1 PUSH2 0x1AD4 JUMP JUMPDEST SWAP3 POP POP DUP2 SWAP1 SSTORE POP CALLVALUE PUSH1 0x4 PUSH0 DUP3 DUP3 SLOAD PUSH2 0x11F9 SWAP2 SWAP1 PUSH2 0x1AD4 JUMP JUMPDEST SWAP3 POP POP DUP2 SWAP1 SSTORE POP CALLER PUSH20 0xFFFFFFFFFFFFFFFFFFFFFFFFFFFFFFFFFFFFFFFF AND PUSH32 0xF5BFA8A3F6A61792F266E3E92249FACCE14EDF2B5FCEEBA5CB6CD0882593A9DA CALLVALUE PUSH1 0x40 MLOAD PUSH2 0x1246 SWAP2 SWAP1 PUSH2 0x16CB JUMP JUMPDEST PUSH1 0x40 MLOAD DUP1 SWAP2 SUB SWAP1 LOG2 PUSH2 0x1256 PUSH2 0x1458 JUMP JUMPDEST JUMP JUMPDEST PUSH0 DUP1 PUSH1 0x8 PUSH0 DUP5 PUSH20 0xFFFFFFFFFFFFFFFFFFFFFFFFFFFFFFFFFFFFFFFF AND PUSH20 0xFFFFFFFFFFFFFFFFFFFFFFFFFFFFFFFFFFFFFFFF AND DUP2 MSTORE PUSH1 0x20 ADD SWAP1 DUP2 MSTORE PUSH1 0x20 ADD PUSH0 KECCAK256 SLOAD SWAP1 POP PUSH0 PUSH1 0x3 PUSH0 SWAP1 SLOAD SWAP1 PUSH2 0x100 EXP SWAP1 DIV PUSH20 0xFFFFFFFFFFFFFFFFFFFFFFFFFFFFFFFFFFFFFFFF AND PUSH20 0xFFFFFFFFFFFFFFFFFFFFFFFFFFFFFFFFFFFFFFFF AND PUSH4 0x73544CFD PUSH1 0x40 MLOAD DUP2 PUSH4 0xFFFFFFFF AND PUSH1 0xE0 SHL DUP2 MSTORE PUSH1 0x4 ADD PUSH1 0x20 PUSH1 0x40 MLOAD DUP1 DUP4 SUB DUP2 DUP7 GAS STATICCALL ISZERO DUP1 ISZERO PUSH2 0x1305 JUMPI RETURNDATASIZE PUSH0 DUP1 RETURNDATACOPY RETURNDATASIZE PUSH0 REVERT JUMPDEST POP POP POP POP PUSH1 0x40 MLOAD RETURNDATASIZE PUSH1 0x1F NOT PUSH1 0x1F DUP3 ADD AND DUP3 ADD DUP1 PUSH1 0x40 MSTORE POP DUP2 ADD SWAP1 PUSH2 0x1329 SWAP2 SWAP1 PUSH2 0x1C22 JUMP JUMPDEST SWAP1 POP PUSH4 0x5F5E100 DUP2 DUP4 PUSH2 0x133C SWAP2 SWAP1 PUSH2 0x1C4D JUMP JUMPDEST PUSH2 0x1346 SWAP2 SWAP1 PUSH2 0x1CBB JUMP JUMPDEST SWAP3 POP POP POP SWAP2 SWAP1 POP JUMP JUMPDEST PUSH2 0x1357 PUSH2 0x1461 JUMP JUMPDEST PUSH0 PUSH20 0xFFFFFFFFFFFFFFFFFFFFFFFFFFFFFFFFFFFFFFFF AND DUP2 PUSH20 0xFFFFFFFFFFFFFFFFFFFFFFFFFFFFFFFFFFFFFFFF AND SUB PUSH2 0x13C7 JUMPI PUSH0 PUSH1 0x40 MLOAD PUSH32 0x1E4FBDF700000000000000000000000000000000000000000000000000000000 DUP2 MSTORE PUSH1 0x4 ADD PUSH2 0x13BE SWAP2 SWAP1 PUSH2 0x189F JUMP JUMPDEST PUSH1 0x40 MLOAD DUP1 SWAP2 SUB SWAP1 REVERT JUMPDEST PUSH2 0x13D0 DUP2 PUSH2 0x1549 JUMP JUMPDEST POP JUMP JUMPDEST PUSH1 0x2 PUSH0 SLOAD SUB PUSH2 0x140E JUMPI PUSH1 0x40 MLOAD PUSH32 0x3EE5AEB500000000000000000000000000000000000000000000000000000000 DUP2 MSTORE PUSH1 0x4 ADD PUSH1 0x40 MLOAD DUP1 SWAP2 SUB SWAP1 REVERT JUMPDEST PUSH1 0x2 PUSH0 DUP2 SWAP1 SSTORE POP JUMP JUMPDEST PUSH2 0x141F PUSH2 0xA42 JUMP JUMPDEST ISZERO PUSH2 0x1456 JUMPI PUSH1 0x40 MLOAD PUSH32 0xD93C066500000000000000000000000000000000000000000000000000000000 DUP2 MSTORE PUSH1 0x4 ADD PUSH1 0x40 MLOAD DUP1 SWAP2 SUB SWAP1 REVERT JUMPDEST JUMP JUMPDEST PUSH1 0x1 PUSH0 DUP2 SWAP1 SSTORE POP JUMP JUMPDEST PUSH2 0x1469 PUSH2 0x166C JUMP JUMPDEST PUSH20 0xFFFFFFFFFFFFFFFFFFFFFFFFFFFFFFFFFFFFFFFF AND PUSH2 0x1487 PUSH2 0xC7C JUMP JUMPDEST PUSH20 0xFFFFFFFFFFFFFFFFFFFFFFFFFFFFFFFFFFFFFFFF AND EQ PUSH2 0x14E6 JUMPI PUSH2 0x14AA PUSH2 0x166C JUMP JUMPDEST PUSH1 0x40 MLOAD PUSH32 0x118CDAA700000000000000000000000000000000000000000000000000000000 DUP2 MSTORE PUSH1 0x4 ADD PUSH2 0x14DD SWAP2 SWAP1 PUSH2 0x189F JUMP JUMPDEST PUSH1 0x40 MLOAD DUP1 SWAP2 SUB SWAP1 REVERT JUMPDEST JUMP JUMPDEST PUSH2 0x14F0 PUSH2 0x1673 JUMP JUMPDEST PUSH0 PUSH1 0x1 PUSH0 PUSH2 0x100 EXP DUP2 SLOAD DUP2 PUSH1 0xFF MUL NOT AND SWAP1 DUP4 ISZERO ISZERO MUL OR SWAP1 SSTORE POP PUSH32 0x5DB9EE0A495BF2E6FF9C91A7834C1BA4FDD244A5E8AA4E537BD38AEAE4B073AA PUSH2 0x1532 PUSH2 0x166C JUMP JUMPDEST PUSH1 0x40 MLOAD PUSH2 0x153F SWAP2 SWAP1 PUSH2 0x189F JUMP JUMPDEST PUSH1 0x40 MLOAD DUP1 SWAP2 SUB SWAP1 LOG1 JUMP JUMPDEST PUSH0 PUSH1 0x1 DUP1 SLOAD SWAP1 PUSH2 0x100 EXP SWAP1 DIV PUSH20 0xFFFFFFFFFFFFFFFFFFFFFFFFFFFFFFFFFFFFFFFF AND SWAP1 POP DUP2 PUSH1 0x1 DUP1 PUSH2 0x100 EXP DUP2 SLOAD DUP2 PUSH20 0xFFFFFFFFFFFFFFFFFFFFFFFFFFFFFFFFFFFFFFFF MUL NOT AND SWAP1 DUP4 PUSH20 0xFFFFFFFFFFFFFFFFFFFFFFFFFFFFFFFFFFFFFFFF AND MUL OR SWAP1 SSTORE POP DUP2 PUSH20 0xFFFFFFFFFFFFFFFFFFFFFFFFFFFFFFFFFFFFFFFF AND DUP2 PUSH20 0xFFFFFFFFFFFFFFFFFFFFFFFFFFFFFFFFFFFFFFFF AND PUSH32 0x8BE0079C531659141344CD1FD0A4F28419497F9722A3DAAFE3B4186F6B6457E0 PUSH1 0x40 MLOAD PUSH1 0x40 MLOAD DUP1 SWAP2 SUB SWAP1 LOG3 POP POP JUMP JUMPDEST PUSH2 0x1613 PUSH2 0x1417 JUMP JUMPDEST PUSH1 0x1 DUP1 PUSH0 PUSH2 0x100 EXP DUP2 SLOAD DUP2 PUSH1 0xFF MUL NOT AND SWAP1 DUP4 ISZERO ISZERO MUL OR SWAP1 SSTORE POP PUSH32 0x62E78CEA01BEE320CD4E420270B5EA74000D11B0C9F74754EBDBFC544B05A258 PUSH2 0x1655 PUSH2 0x166C JUMP JUMPDEST PUSH1 0x40 MLOAD PUSH2 0x1662 SWAP2 SWAP1 PUSH2 0x189F JUMP JUMPDEST PUSH1 0x40 MLOAD DUP1 SWAP2 SUB SWAP1 LOG1 JUMP JUMPDEST PUSH0 CALLER SWAP1 POP SWAP1 JUMP JUMPDEST PUSH2 0x167B PUSH2 0xA42 JUMP JUMPDEST PUSH2 0x16B1 JUMPI PUSH1 0x40 MLOAD PUSH32 0x8DFC202B00000000000000000000000000000000000000000000000000000000 DUP2 MSTORE PUSH1 0x4 ADD PUSH1 0x40 MLOAD DUP1 SWAP2 SUB SWAP1 REVERT JUMPDEST JUMP JUMPDEST PUSH0 DUP2 SWAP1 POP SWAP2 SWAP1 POP JUMP JUMPDEST PUSH2 0x16C5 DUP2 PUSH2 0x16B3 JUMP JUMPDEST DUP3 MSTORE POP POP JUMP JUMPDEST PUSH0 PUSH1 0x20 DUP3 ADD SWAP1 POP PUSH2 0x16DE PUSH0 DUP4 ADD DUP5 PUSH2 0x16BC JUMP JUMPDEST SWAP3 SWAP2 POP POP JUMP JUMPDEST PUSH0 PUSH20 0xFFFFFFFFFFFFFFFFFFFFFFFFFFFFFFFFFFFFFFFF DUP3 AND SWAP1 POP SWAP2 SWAP1 POP JUMP JUMPDEST PUSH0 DUP2 SWAP1 POP SWAP2 SWAP1 POP JUMP JUMPDEST PUSH0 PUSH2 0x1726 PUSH2 0x1721 PUSH2 0x171C DUP5 PUSH2 0x16E4 JUMP JUMPDEST PUSH2 0x1703 JUMP JUMPDEST PUSH2 0x16E4 JUMP JUMPDEST SWAP1 POP SWAP2 SWAP1 POP JUMP JUMPDEST PUSH0 PUSH2 0x1737 DUP3 PUSH2 0x170C JUMP JUMPDEST SWAP1 POP SWAP2 SWAP1 POP JUMP JUMPDEST PUSH0 PUSH2 0x1748 DUP3 PUSH2 0x172D JUMP JUMPDEST SWAP1 POP SWAP2 SWAP1 POP JUMP JUMPDEST PUSH2 0x1758 DUP2 PUSH2 0x173E JUMP JUMPDEST DUP3 MSTORE POP POP JUMP JUMPDEST PUSH0 PUSH1 0x20 DUP3 ADD SWAP1 POP PUSH2 0x1771 PUSH0 DUP4 ADD DUP5 PUSH2 0x174F JUMP JUMPDEST SWAP3 SWAP2 POP POP JUMP JUMPDEST PUSH0 DUP1 REVERT JUMPDEST PUSH0 PUSH2 0x1785 DUP3 PUSH2 0x16E4 JUMP JUMPDEST SWAP1 POP SWAP2 SWAP1 POP JUMP JUMPDEST PUSH2 0x1795 DUP2 PUSH2 0x177B JUMP JUMPDEST DUP2 EQ PUSH2 0x179F JUMPI PUSH0 DUP1 REVERT JUMPDEST POP JUMP JUMPDEST PUSH0 DUP2 CALLDATALOAD SWAP1 POP PUSH2 0x17B0 DUP2 PUSH2 0x178C JUMP JUMPDEST SWAP3 SWAP2 POP POP JUMP JUMPDEST PUSH0 PUSH1 0x20 DUP3 DUP5 SUB SLT ISZERO PUSH2 0x17CB JUMPI PUSH2 0x17CA PUSH2 0x1777 JUMP JUMPDEST JUMPDEST PUSH0 PUSH2 0x17D8 DUP5 DUP3 DUP6 ADD PUSH2 0x17A2 JUMP JUMPDEST SWAP2 POP POP SWAP3 SWAP2 POP POP JUMP JUMPDEST PUSH0 PUSH1 0x40 DUP3 ADD SWAP1 POP PUSH2 0x17F4 PUSH0 DUP4 ADD DUP6 PUSH2 0x16BC JUMP JUMPDEST PUSH2 0x1801 PUSH1 0x20 DUP4 ADD DUP5 PUSH2 0x16BC JUMP JUMPDEST SWAP4 SWAP3 POP POP POP JUMP JUMPDEST PUSH2 0x1811 DUP2 PUSH2 0x16B3 JUMP JUMPDEST DUP2 EQ PUSH2 0x181B JUMPI PUSH0 DUP1 REVERT JUMPDEST POP JUMP JUMPDEST PUSH0 DUP2 CALLDATALOAD SWAP1 POP PUSH2 0x182C DUP2 PUSH2 0x1808 JUMP JUMPDEST SWAP3 SWAP2 POP POP JUMP JUMPDEST PUSH0 PUSH1 0x20 DUP3 DUP5 SUB SLT ISZERO PUSH2 0x1847 JUMPI PUSH2 0x1846 PUSH2 0x1777 JUMP JUMPDEST JUMPDEST PUSH0 PUSH2 0x1854 DUP5 DUP3 DUP6 ADD PUSH2 0x181E JUMP JUMPDEST SWAP2 POP POP SWAP3 SWAP2 POP POP JUMP JUMPDEST PUSH0 DUP2 ISZERO ISZERO SWAP1 POP SWAP2 SWAP1 POP JUMP JUMPDEST PUSH2 0x1871 DUP2 PUSH2 0x185D JUMP JUMPDEST DUP3 MSTORE POP POP JUMP JUMPDEST PUSH0 PUSH1 0x20 DUP3 ADD SWAP1 POP PUSH2 0x188A PUSH0 DUP4 ADD DUP5 PUSH2 0x1868 JUMP JUMPDEST SWAP3 SWAP2 POP POP JUMP JUMPDEST PUSH2 0x1899 DUP2 PUSH2 0x177B JUMP JUMPDEST DUP3 MSTORE POP POP JUMP JUMPDEST PUSH0 PUSH1 0x20 DUP3 ADD SWAP1 POP PUSH2 0x18B2 PUSH0 DUP4 ADD DUP5 PUSH2 0x1890 JUMP JUMPDEST SWAP3 SWAP2 POP POP JUMP JUMPDEST PUSH0 PUSH2 0x18C2 DUP3 PUSH2 0x172D JUMP JUMPDEST SWAP1 POP SWAP2 SWAP1 POP JUMP JUMPDEST PUSH2 0x18D2 DUP2 PUSH2 0x18B8 JUMP JUMPDEST DUP3 MSTORE POP POP JUMP JUMPDEST PUSH0 PUSH1 0x20 DUP3 ADD SWAP1 POP PUSH2 0x18EB PUSH0 DUP4 ADD DUP5 PUSH2 0x18C9 JUMP JUMPDEST SWAP3 SWAP2 POP POP JUMP JUMPDEST PUSH0 DUP3 DUP3 MSTORE PUSH1 0x20 DUP3 ADD SWAP1 POP SWAP3 SWAP2 POP POP JUMP JUMPDEST PUSH32 0x436F6C6C61746572616C4D616E616765723A20496E76616C696420616D6F756E PUSH0 DUP3 ADD MSTORE PUSH32 0x7400000000000000000000000000000000000000000000000000000000000000 PUSH1 0x20 DUP3 ADD MSTORE POP JUMP JUMPDEST PUSH0 PUSH2 0x195B PUSH1 0x21 DUP4 PUSH2 0x18F1 JUMP JUMPDEST SWAP2 POP PUSH2 0x1966 DUP3 PUSH2 0x1901 JUMP JUMPDEST PUSH1 0x40 DUP3 ADD SWAP1 POP SWAP2 SWAP1 POP JUMP JUMPDEST PUSH0 PUSH1 0x20 DUP3 ADD SWAP1 POP DUP2 DUP2 SUB PUSH0 DUP4 ADD MSTORE PUSH2 0x1988 DUP2 PUSH2 0x194F JUMP JUMPDEST SWAP1 POP SWAP2 SWAP1 POP JUMP JUMPDEST PUSH0 PUSH1 0x60 DUP3 ADD SWAP1 POP PUSH2 0x19A2 PUSH0 DUP4 ADD DUP7 PUSH2 0x1890 JUMP JUMPDEST PUSH2 0x19AF PUSH1 0x20 DUP4 ADD DUP6 PUSH2 0x1890 JUMP JUMPDEST PUSH2 0x19BC PUSH1 0x40 DUP4 ADD DUP5 PUSH2 0x16BC JUMP JUMPDEST SWAP5 SWAP4 POP POP POP POP JUMP JUMPDEST PUSH2 0x19CD DUP2 PUSH2 0x185D JUMP JUMPDEST DUP2 EQ PUSH2 0x19D7 JUMPI PUSH0 DUP1 REVERT JUMPDEST POP JUMP JUMPDEST PUSH0 DUP2 MLOAD SWAP1 POP PUSH2 0x19E8 DUP2 PUSH2 0x19C4 JUMP JUMPDEST SWAP3 SWAP2 POP POP JUMP JUMPDEST PUSH0 PUSH1 0x20 DUP3 DUP5 SUB SLT ISZERO PUSH2 0x1A03 JUMPI PUSH2 0x1A02 PUSH2 0x1777 JUMP JUMPDEST JUMPDEST PUSH0 PUSH2 0x1A10 DUP5 DUP3 DUP6 ADD PUSH2 0x19DA JUMP JUMPDEST SWAP2 POP POP SWAP3 SWAP2 POP POP JUMP JUMPDEST PUSH32 0x436F6C6C61746572616C4D616E616765723A205472616E73666572206661696C PUSH0 DUP3 ADD MSTORE PUSH32 0x6564000000000000000000000000000000000000000000000000000000000000 PUSH1 0x20 DUP3 ADD MSTORE POP JUMP JUMPDEST PUSH0 PUSH2 0x1A73 PUSH1 0x22 DUP4 PUSH2 0x18F1 JUMP JUMPDEST SWAP2 POP PUSH2 0x1A7E DUP3 PUSH2 0x1A19 JUMP JUMPDEST PUSH1 0x40 DUP3 ADD SWAP1 POP SWAP2 SWAP1 POP JUMP JUMPDEST PUSH0 PUSH1 0x20 DUP3 ADD SWAP1 POP DUP2 DUP2 SUB PUSH0 DUP4 ADD MSTORE PUSH2 0x1AA0 DUP2 PUSH2 0x1A67 JUMP JUMPDEST SWAP1 POP SWAP2 SWAP1 POP JUMP JUMPDEST PUSH32 0x4E487B7100000000000000000000000000000000000000000000000000000000 PUSH0 MSTORE PUSH1 0x11 PUSH1 0x4 MSTORE PUSH1 0x24 PUSH0 REVERT JUMPDEST PUSH0 PUSH2 0x1ADE DUP3 PUSH2 0x16B3 JUMP JUMPDEST SWAP2 POP PUSH2 0x1AE9 DUP4 PUSH2 0x16B3 JUMP JUMPDEST SWAP3 POP DUP3 DUP3 ADD SWAP1 POP DUP1 DUP3 GT ISZERO PUSH2 0x1B01 JUMPI PUSH2 0x1B00 PUSH2 0x1AA7 JUMP JUMPDEST JUMPDEST SWAP3 SWAP2 POP POP JUMP JUMPDEST PUSH32 0x436F6C6C61746572616C4D616E616765723A20496E73756666696369656E7420 PUSH0 DUP3 ADD MSTORE PUSH32 0x62616C616E636500000000000000000000000000000000000000000000000000 PUSH1 0x20 DUP3 ADD MSTORE POP JUMP JUMPDEST PUSH0 PUSH2 0x1B61 PUSH1 0x27 DUP4 PUSH2 0x18F1 JUMP JUMPDEST SWAP2 POP PUSH2 0x1B6C DUP3 PUSH2 0x1B07 JUMP JUMPDEST PUSH1 0x40 DUP3 ADD SWAP1 POP SWAP2 SWAP1 POP JUMP JUMPDEST PUSH0 PUSH1 0x20 DUP3 ADD SWAP1 POP DUP2 DUP2 SUB PUSH0 DUP4 ADD MSTORE PUSH2 0x1B8E DUP2 PUSH2 0x1B55 JUMP JUMPDEST SWAP1 POP SWAP2 SWAP1 POP JUMP JUMPDEST PUSH0 PUSH2 0x1B9F DUP3 PUSH2 0x16B3 JUMP JUMPDEST SWAP2 POP PUSH2 0x1BAA DUP4 PUSH2 0x16B3 JUMP JUMPDEST SWAP3 POP DUP3 DUP3 SUB SWAP1 POP DUP2 DUP2 GT ISZERO PUSH2 0x1BC2 JUMPI PUSH2 0x1BC1 PUSH2 0x1AA7 JUMP JUMPDEST JUMPDEST SWAP3 SWAP2 POP POP JUMP JUMPDEST PUSH0 PUSH1 0x40 DUP3 ADD SWAP1 POP PUSH2 0x1BDB PUSH0 DUP4 ADD DUP6 PUSH2 0x1890 JUMP JUMPDEST PUSH2 0x1BE8 PUSH1 0x20 DUP4 ADD DUP5 PUSH2 0x16BC JUMP JUMPDEST SWAP4 SWAP3 POP POP POP JUMP JUMPDEST PUSH0 DUP2 SWAP1 POP SWAP2 SWAP1 POP JUMP JUMPDEST PUSH2 0x1C01 DUP2 PUSH2 0x1BEF JUMP JUMPDEST DUP2 EQ PUSH2 0x1C0B JUMPI PUSH0 DUP1 REVERT JUMPDEST POP JUMP JUMPDEST PUSH0 DUP2 MLOAD SWAP1 POP PUSH2 0x1C1C DUP2 PUSH2 0x1BF8 JUMP JUMPDEST SWAP3 SWAP2 POP POP JUMP JUMPDEST PUSH0 PUSH1 0x20 DUP3 DUP5 SUB SLT ISZERO PUSH2 0x1C37 JUMPI PUSH2 0x1C36 PUSH2 0x1777 JUMP JUMPDEST JUMPDEST PUSH0 PUSH2 0x1C44 DUP5 DUP3 DUP6 ADD PUSH2 0x1C0E JUMP JUMPDEST SWAP2 POP POP SWAP3 SWAP2 POP POP JUMP JUMPDEST PUSH0 PUSH2 0x1C57 DUP3 PUSH2 0x16B3 JUMP JUMPDEST SWAP2 POP PUSH2 0x1C62 DUP4 PUSH2 0x16B3 JUMP JUMPDEST SWAP3 POP DUP3 DUP3 MUL PUSH2 0x1C70 DUP2 PUSH2 0x16B3 JUMP JUMPDEST SWAP2 POP DUP3 DUP3 DIV DUP5 EQ DUP4 ISZERO OR PUSH2 0x1C87 JUMPI PUSH2 0x1C86 PUSH2 0x1AA7 JUMP JUMPDEST JUMPDEST POP SWAP3 SWAP2 POP POP JUMP JUMPDEST PUSH32 0x4E487B7100000000000000000000000000000000000000000000000000000000 PUSH0 MSTORE PUSH1 0x12 PUSH1 0x4 MSTORE PUSH1 0x24 PUSH0 REVERT JUMPDEST PUSH0 PUSH2 0x1CC5 DUP3 PUSH2 0x16B3 JUMP JUMPDEST SWAP2 POP PUSH2 0x1CD0 DUP4 PUSH2 0x16B3 JUMP JUMPDEST SWAP3 POP DUP3 PUSH2 0x1CE0 JUMPI PUSH2 0x1CDF PUSH2 0x1C8E JUMP JUMPDEST JUMPDEST DUP3 DUP3 DIV SWAP1 POP SWAP3 SWAP2 POP POP JUMP INVALID LOG2 PUSH5 0x6970667358 0x22 SLT KECCAK256 0xDB 0xDF EXTCODECOPY 0xF6 0x2E CALL DELEGATECALL 0x23 MCOPY SLOAD 0xB3 MOD 0xB0 SLT PUSH29 0x21F0BC4DBC12E9460143952D545307F22B64736F6C634300081A003300 "
				},
				"gasEstimates": {
					"creation": {
						"codeDepositCost": "1491400",
						"executionCost": "infinite",
						"totalCost": "infinite"
					},
					"external": {
						"depositCeloCollateral()": "infinite",
						"depositUsdtCollateral(uint256)": "infinite",
						"getCeloCollateralValue(address)": "infinite",
						"getCollateralBalance(address)": "infinite",
						"getTotalCollateralValue(address)": "infinite",
						"getTotalCollateralValueInUsd()": "infinite",
						"getUsdtCollateralValue(address)": "infinite",
						"maxCollateralAmount()": "2449",
						"minCollateralAmount()": "2448",
						"owner()": "2608",
						"pause()": "infinite",
						"paused()": "2540",
						"priceOracle()": "infinite",
						"renounceOwnership()": "infinite",
						"totalCollateralCelo()": "2514",
						"totalCollateralUsdt()": "2514",
						"transferOwnership(address)": "infinite",
						"unpause()": "infinite",
						"usdtToken()": "infinite",
						"userCollateralCelo(address)": "2824",
						"userCollateralUsdt(address)": "2868",
						"withdrawCeloCollateral(uint256)": "infinite",
						"withdrawUsdtCollateral(uint256)": "infinite"
					}
				},
				"methodIdentifiers": {
					"depositCeloCollateral()": "d57ac70d",
					"depositUsdtCollateral(uint256)": "2f5723d5",
					"getCeloCollateralValue(address)": "e3847f0e",
					"getCollateralBalance(address)": "2703ee85",
					"getTotalCollateralValue(address)": "6c648fc4",
					"getTotalCollateralValueInUsd()": "96af427d",
					"getUsdtCollateralValue(address)": "99ef81bd",
					"maxCollateralAmount()": "04885115",
					"minCollateralAmount()": "5269384e",
					"owner()": "8da5cb5b",
					"pause()": "8456cb59",
					"paused()": "5c975abb",
					"priceOracle()": "2630c12f",
					"renounceOwnership()": "715018a6",
					"totalCollateralCelo()": "60b3b338",
					"totalCollateralUsdt()": "9083baa6",
					"transferOwnership(address)": "f2fde38b",
					"unpause()": "3f4ba83a",
					"usdtToken()": "a98ad46c",
					"userCollateralCelo(address)": "9e30bce7",
					"userCollateralUsdt(address)": "c3b2a4a4",
					"withdrawCeloCollateral(uint256)": "8e817efe",
					"withdrawUsdtCollateral(uint256)": "52ce9714"
				}
			},
			"storageLayout": {
				"storage": [
					{
						"astId": 429,
						"contract": "contracts/CollateralManager.sol:CollateralManager",
						"label": "_status",
						"offset": 0,
						"slot": "0",
						"type": "t_uint256"
					},
					{
						"astId": 310,
						"contract": "contracts/CollateralManager.sol:CollateralManager",
						"label": "_paused",
						"offset": 0,
						"slot": "1",
						"type": "t_bool"
					},
					{
						"astId": 54,
						"contract": "contracts/CollateralManager.sol:CollateralManager",
						"label": "_owner",
						"offset": 1,
						"slot": "1",
						"type": "t_address"
					},
					{
						"astId": 503,
						"contract": "contracts/CollateralManager.sol:CollateralManager",
						"label": "usdtToken",
						"offset": 0,
						"slot": "2",
						"type": "t_contract(IERC20)271"
					},
					{
						"astId": 506,
						"contract": "contracts/CollateralManager.sol:CollateralManager",
						"label": "priceOracle",
						"offset": 0,
						"slot": "3",
						"type": "t_contract(MellowFiPriceOracle)1416"
					},
					{
						"astId": 508,
						"contract": "contracts/CollateralManager.sol:CollateralManager",
						"label": "totalCollateralCelo",
						"offset": 0,
						"slot": "4",
						"type": "t_uint256"
					},
					{
						"astId": 510,
						"contract": "contracts/CollateralManager.sol:CollateralManager",
						"label": "totalCollateralUsdt",
						"offset": 0,
						"slot": "5",
						"type": "t_uint256"
					},
					{
						"astId": 513,
						"contract": "contracts/CollateralManager.sol:CollateralManager",
						"label": "minCollateralAmount",
						"offset": 0,
						"slot": "6",
						"type": "t_uint256"
					},
					{
						"astId": 516,
						"contract": "contracts/CollateralManager.sol:CollateralManager",
						"label": "maxCollateralAmount",
						"offset": 0,
						"slot": "7",
						"type": "t_uint256"
					},
					{
						"astId": 520,
						"contract": "contracts/CollateralManager.sol:CollateralManager",
						"label": "userCollateralCelo",
						"offset": 0,
						"slot": "8",
						"type": "t_mapping(t_address,t_uint256)"
					},
					{
						"astId": 524,
						"contract": "contracts/CollateralManager.sol:CollateralManager",
						"label": "userCollateralUsdt",
						"offset": 0,
						"slot": "9",
						"type": "t_mapping(t_address,t_uint256)"
					}
				],
				"types": {
					"t_address": {
						"encoding": "inplace",
						"label": "address",
						"numberOfBytes": "20"
					},
					"t_bool": {
						"encoding": "inplace",
						"label": "bool",
						"numberOfBytes": "1"
					},
					"t_contract(IERC20)271": {
						"encoding": "inplace",
						"label": "contract IERC20",
						"numberOfBytes": "20"
					},
					"t_contract(MellowFiPriceOracle)1416": {
						"encoding": "inplace",
						"label": "contract MellowFiPriceOracle",
						"numberOfBytes": "20"
					},
					"t_mapping(t_address,t_uint256)": {
						"encoding": "mapping",
						"key": "t_address",
						"label": "mapping(address => uint256)",
						"numberOfBytes": "32",
						"value": "t_uint256"
					},
					"t_uint256": {
						"encoding": "inplace",
						"label": "uint256",
						"numberOfBytes": "32"
					}
				}
			},
			"userdoc": {
				"kind": "user",
				"methods": {},
				"version": 1
			}
		}
	}
}