{
	"data": {
		"bytecode": {
			"linkReferences": {},
			"object": "6080604052609660065562278d00600755620d2f0060085534801562000023575f80fd5b506040516200229e3803806200229e833981810160405281019062000049919062000309565b3360015f819055505f73ffffffffffffffffffffffffffffffffffffffff168173ffffffffffffffffffffffffffffffffffffffff1603620000c4575f6040517f1e4fbdf7000000000000000000000000000000000000000000000000000000008152600401620000bb919062000373565b60405180910390fd5b620000d5816200019f60201b60201c565b508260025f6101000a81548173ffffffffffffffffffffffffffffffffffffffff021916908373ffffffffffffffffffffffffffffffffffffffff1602179055508160035f6101000a81548173ffffffffffffffffffffffffffffffffffffffff021916908373ffffffffffffffffffffffffffffffffffffffff1602179055508060045f6101000a81548173ffffffffffffffffffffffffffffffffffffffff021916908373ffffffffffffffffffffffffffffffffffffffff1602179055505050506200038e565b5f60015f9054906101000a900473ffffffffffffffffffffffffffffffffffffffff1690508160015f6101000a81548173ffffffffffffffffffffffffffffffffffffffff021916908373ffffffffffffffffffffffffffffffffffffffff1602179055508173ffffffffffffffffffffffffffffffffffffffff168173ffffffffffffffffffffffffffffffffffffffff167f8be0079c531659141344cd1fd0a4f28419497f9722a3daafe3b4186f6b6457e060405160405180910390a35050565b5f80fd5b5f73ffffffffffffffffffffffffffffffffffffffff82169050919050565b5f620002918262000266565b9050919050565b5f620002a48262000285565b9050919050565b620002b68162000298565b8114620002c1575f80fd5b50565b5f81519050620002d481620002ab565b92915050565b620002e58162000285565b8114620002f0575f80fd5b50565b5f815190506200030381620002da565b92915050565b5f805f6060848603121562000323576200032262000262565b5b5f6200033286828701620002c4565b93505060206200034586828701620002f3565b92505060406200035886828701620002f3565b9150509250925092565b6200036d8162000285565b82525050565b5f602082019050620003885f83018462000362565b92915050565b611f02806200039c5f395ff3fe608060405234801561000f575f80fd5b506004361061011f575f3560e01c80638d5d3429116100ab578063c000bc601161006f578063c000bc60146102a9578063e9e190a3146102c5578063ebbb7de9146102fa578063f2fde38b14610316578063f5521bf1146103325761011f565b80638d5d34291461021b5780638da5cb5b1461023757806397ed71eb14610255578063ab7b1c8914610271578063ba43a9221461028d5761011f565b8063650dfa18116100f2578063650dfa181461019b578063656f9ba4146101b7578063688aef48146101d557806370f37d27146101f3578063715018a6146102115761011f565b80630ea86ad81461012357806323be345c146101415780632630c12f1461015f5780632af7e2ea1461017d575b5f80fd5b61012b610350565b6040516101389190611339565b60405180910390f35b610149610375565b6040516101569190611372565b60405180910390f35b61016761039a565b60405161017491906113ab565b60405180910390f35b6101856103bf565b60405161019291906113dc565b60405180910390f35b6101b560048036038101906101b09190611423565b6103c5565b005b6101bf610413565b6040516101cc91906113dc565b60405180910390f35b6101dd6104d0565b6040516101ea91906113dc565b60405180910390f35b6101fb6104d6565b60405161020891906113dc565b60405180910390f35b6102196104dc565b005b61023560048036038101906102309190611423565b6104ef565b005b61023f61090c565b60405161024c919061146e565b60405180910390f35b61026f600480360381019061026a9190611423565b610934565b005b61028b60048036038101906102869190611423565b610a34565b005b6102a760048036038101906102a29190611423565b610d69565b005b6102c360048036038101906102be9190611423565b610db5565b005b6102df60048036038101906102da91906114b1565b610e01565b6040516102f1969594939291906114f6565b60405180910390f35b610314600480360381019061030f91906114b1565b610e52565b005b610330600480360381019061032b91906114b1565b611097565b005b61033a61111b565b60405161034791906113dc565b60405180910390f35b60025f9054906101000a900473ffffffffffffffffffffffffffffffffffffffff1681565b60035f9054906101000a900473ffffffffffffffffffffffffffffffffffffffff1681565b60045f9054906101000a900473ffffffffffffffffffffffffffffffffffffffff1681565b60085481565b6064811015610409576040517f08c379a0000000000000000000000000000000000000000000000000000000008152600401610400906115af565b60405180910390fd5b8060068190555050565b5f8060035f9054906101000a900473ffffffffffffffffffffffffffffffffffffffff1673ffffffffffffffffffffffffffffffffffffffff166309b8aafd336040518263ffffffff1660e01b815260040161046f919061146e565b602060405180830381865afa15801561048a573d5f803e3d5ffd5b505050506040513d601f19601f820116820180604052508101906104ae91906115e1565b90506006546064826104c09190611639565b6104ca91906116a7565b91505090565b60065481565b60055481565b6104e4611121565b6104ed5f6111a8565b565b6104f761126b565b5f8111610539576040517f08c379a000000000000000000000000000000000000000000000000000000000815260040161053090611747565b60405180910390fd5b5f60095f3373ffffffffffffffffffffffffffffffffffffffff1673ffffffffffffffffffffffffffffffffffffffff1681526020019081526020015f205f0154146105ba576040517f08c379a00000000000000000000000000000000000000000000000000000000081526004016105b1906117d5565b60405180910390fd5b5f60035f9054906101000a900473ffffffffffffffffffffffffffffffffffffffff1673ffffffffffffffffffffffffffffffffffffffff166309b8aafd336040518263ffffffff1660e01b8152600401610615919061146e565b602060405180830381865afa158015610630573d5f803e3d5ffd5b505050506040513d601f19601f8201168201806040525081019061065491906115e1565b90505f8111610698576040517f08c379a000000000000000000000000000000000000000000000000000000000815260040161068f90611863565b60405180910390fd5b5f6006546064836106a99190611639565b6106b391906116a7565b9050808311156106f8576040517f08c379a00000000000000000000000000000000000000000000000000000000081526004016106ef906118f1565b60405180910390fd5b5f6040518060c00160405280858152602001600581526020014281526020018481526020015f151581526020015f151581525090508060095f3373ffffffffffffffffffffffffffffffffffffffff1673ffffffffffffffffffffffffffffffffffffffff1681526020019081526020015f205f820151815f01556020820151816001015560408201518160020155606082015181600301556080820151816004015f6101000a81548160ff02191690831515021790555060a08201518160040160016101000a81548160ff02191690831515021790555090505060025f9054906101000a900473ffffffffffffffffffffffffffffffffffffffff1673ffffffffffffffffffffffffffffffffffffffff1663a9059cbb33866040518363ffffffff1660e01b815260040161082f92919061190f565b6020604051808303815f875af115801561084b573d5f803e3d5ffd5b505050506040513d601f19601f8201168201806040525081019061086f9190611960565b6108ae576040517f08c379a00000000000000000000000000000000000000000000000000000000081526004016108a5906119fb565b60405180910390fd5b3373ffffffffffffffffffffffffffffffffffffffff167f1c793c0fda4a6b2b79dd68d91d9f7fde8f7aa0878615c36a4624e6ccdbb1ead185856040516108f6929190611a19565b60405180910390a25050506109096112af565b50565b5f60015f9054906101000a900473ffffffffffffffffffffffffffffffffffffffff16905090565b61093c611121565b60025f9054906101000a900473ffffffffffffffffffffffffffffffffffffffff1673ffffffffffffffffffffffffffffffffffffffff166323b872dd3330846040518463ffffffff1660e01b815260040161099a93929190611a40565b6020604051808303815f875af11580156109b6573d5f803e3d5ffd5b505050506040513d601f19601f820116820180604052508101906109da9190611960565b610a19576040517f08c379a0000000000000000000000000000000000000000000000000000000008152600401610a1090611ae5565b60405180910390fd5b8060055f828254610a2a9190611b03565b9250508190555050565b610a3c61126b565b5f60095f3373ffffffffffffffffffffffffffffffffffffffff1673ffffffffffffffffffffffffffffffffffffffff1681526020019081526020015f2090505f815f015411610ac1576040517f08c379a0000000000000000000000000000000000000000000000000000000008152600401610ab890611b80565b60405180910390fd5b806004015f9054906101000a900460ff1615610b12576040517f08c379a0000000000000000000000000000000000000000000000000000000008152600401610b0990611c0e565b60405180910390fd5b5f60648260010154835f0154610b289190611639565b610b3291906116a7565b825f0154610b409190611b03565b905080831015610b85576040517f08c379a0000000000000000000000000000000000000000000000000000000008152600401610b7c90611c9c565b60405180910390fd5b60025f9054906101000a900473ffffffffffffffffffffffffffffffffffffffff1673ffffffffffffffffffffffffffffffffffffffff166323b872dd3330866040518463ffffffff1660e01b8152600401610be393929190611a40565b6020604051808303815f875af1158015610bff573d5f803e3d5ffd5b505050506040513d601f19601f82011682018060405250810190610c239190611960565b610c62576040517f08c379a0000000000000000000000000000000000000000000000000000000008152600401610c5990611d2a565b60405180910390fd5b6001826004015f6101000a81548160ff02191690831515021790555060035f9054906101000a900473ffffffffffffffffffffffffffffffffffffffff1673ffffffffffffffffffffffffffffffffffffffff1663192e7a7b336040518263ffffffff1660e01b8152600401610cd8919061146e565b5f604051808303815f87803b158015610cef575f80fd5b505af1158015610d01573d5f803e3d5ffd5b505050503373ffffffffffffffffffffffffffffffffffffffff167fc7ce0a35f17b490de2a317e7fecb2cae86b1abffb03800b2f492823521382698835f01548460030154604051610d54929190611a19565b60405180910390a25050610d666112af565b50565b5f8111610dab576040517f08c379a0000000000000000000000000000000000000000000000000000000008152600401610da290611d92565b60405180910390fd5b8060078190555050565b5f8111610df7576040517f08c379a0000000000000000000000000000000000000000000000000000000008152600401610dee90611d92565b60405180910390fd5b8060088190555050565b6009602052805f5260405f205f91509050805f015490806001015490806002015490806003015490806004015f9054906101000a900460ff16908060040160019054906101000a900460ff16905086565b610e5a61126b565b5f60095f8373ffffffffffffffffffffffffffffffffffffffff1673ffffffffffffffffffffffffffffffffffffffff1681526020019081526020015f2090505f815f015411610edf576040517f08c379a0000000000000000000000000000000000000000000000000000000008152600401610ed690611b80565b60405180910390fd5b8060040160019054906101000a900460ff1615610f31576040517f08c379a0000000000000000000000000000000000000000000000000000000008152600401610f2890611e20565b60405180910390fd5b6008546007548260020154610f469190611b03565b610f509190611b03565b4211610f91576040517f08c379a0000000000000000000000000000000000000000000000000000000008152600401610f8890611eae565b60405180910390fd5b60018160040160016101000a81548160ff02191690831515021790555060035f9054906101000a900473ffffffffffffffffffffffffffffffffffffffff1673ffffffffffffffffffffffffffffffffffffffff16638e817efe82600301546040518263ffffffff1660e01b815260040161100c91906113dc565b5f604051808303815f87803b158015611023575f80fd5b505af1158015611035573d5f803e3d5ffd5b505050508173ffffffffffffffffffffffffffffffffffffffff167f0be253503c49f8fb02046da3ef57bc2f5f881eb14ba5c2c26b54bf2fb4e7db07826003015460405161108391906113dc565b60405180910390a2506110946112af565b50565b61109f611121565b5f73ffffffffffffffffffffffffffffffffffffffff168173ffffffffffffffffffffffffffffffffffffffff160361110f575f6040517f1e4fbdf7000000000000000000000000000000000000000000000000000000008152600401611106919061146e565b60405180910390fd5b611118816111a8565b50565b60075481565b6111296112b8565b73ffffffffffffffffffffffffffffffffffffffff1661114761090c565b73ffffffffffffffffffffffffffffffffffffffff16146111a65761116a6112b8565b6040517f118cdaa700000000000000000000000000000000000000000000000000000000815260040161119d919061146e565b60405180910390fd5b565b5f60015f9054906101000a900473ffffffffffffffffffffffffffffffffffffffff1690508160015f6101000a81548173ffffffffffffffffffffffffffffffffffffffff021916908373ffffffffffffffffffffffffffffffffffffffff1602179055508173ffffffffffffffffffffffffffffffffffffffff168173ffffffffffffffffffffffffffffffffffffffff167f8be0079c531659141344cd1fd0a4f28419497f9722a3daafe3b4186f6b6457e060405160405180910390a35050565b60025f54036112a6576040517f3ee5aeb500000000000000000000000000000000000000000000000000000000815260040160405180910390fd5b60025f81905550565b60015f81905550565b5f33905090565b5f73ffffffffffffffffffffffffffffffffffffffff82169050919050565b5f819050919050565b5f6113016112fc6112f7846112bf565b6112de565b6112bf565b9050919050565b5f611312826112e7565b9050919050565b5f61132382611308565b9050919050565b61133381611319565b82525050565b5f60208201905061134c5f83018461132a565b92915050565b5f61135c82611308565b9050919050565b61136c81611352565b82525050565b5f6020820190506113855f830184611363565b92915050565b5f61139582611308565b9050919050565b6113a58161138b565b82525050565b5f6020820190506113be5f83018461139c565b92915050565b5f819050919050565b6113d6816113c4565b82525050565b5f6020820190506113ef5f8301846113cd565b92915050565b5f80fd5b611402816113c4565b811461140c575f80fd5b50565b5f8135905061141d816113f9565b92915050565b5f60208284031215611438576114376113f5565b5b5f6114458482850161140f565b91505092915050565b5f611458826112bf565b9050919050565b6114688161144e565b82525050565b5f6020820190506114815f83018461145f565b92915050565b6114908161144e565b811461149a575f80fd5b50565b5f813590506114ab81611487565b92915050565b5f602082840312156114c6576114c56113f5565b5b5f6114d38482850161149d565b91505092915050565b5f8115159050919050565b6114f0816114dc565b82525050565b5f60c0820190506115095f8301896113cd565b61151660208301886113cd565b61152360408301876113cd565b61153060608301866113cd565b61153d60808301856114e7565b61154a60a08301846114e7565b979650505050505050565b5f82825260208201905092915050565b7f4c6f616e4d616e616765723a20496e76616c696420726174696f0000000000005f82015250565b5f611599601a83611555565b91506115a482611565565b602082019050919050565b5f6020820190508181035f8301526115c68161158d565b9050919050565b5f815190506115db816113f9565b92915050565b5f602082840312156115f6576115f56113f5565b5b5f611603848285016115cd565b91505092915050565b7f4e487b71000000000000000000000000000000000000000000000000000000005f52601160045260245ffd5b5f611643826113c4565b915061164e836113c4565b925082820261165c816113c4565b915082820484148315176116735761167261160c565b5b5092915050565b7f4e487b71000000000000000000000000000000000000000000000000000000005f52601260045260245ffd5b5f6116b1826113c4565b91506116bc836113c4565b9250826116cc576116cb61167a565b5b828204905092915050565b7f4c6f616e4d616e616765723a204c6f616e20616d6f756e74206d7573742062655f8201527f2067726561746572207468616e20300000000000000000000000000000000000602082015250565b5f611731602f83611555565b915061173c826116d7565b604082019050919050565b5f6020820190508181035f83015261175e81611725565b9050919050565b7f4c6f616e4d616e616765723a204578697374696e67206c6f616e206d757374205f8201527f6265207265706169642066697273740000000000000000000000000000000000602082015250565b5f6117bf602f83611555565b91506117ca82611765565b604082019050919050565b5f6020820190508181035f8301526117ec816117b3565b9050919050565b7f4c6f616e4d616e616765723a204e6f20636f6c6c61746572616c20617661696c5f8201527f61626c6500000000000000000000000000000000000000000000000000000000602082015250565b5f61184d602483611555565b9150611858826117f3565b604082019050919050565b5f6020820190508181035f83015261187a81611841565b9050919050565b7f4c6f616e4d616e616765723a20496e73756666696369656e7420636f6c6c61745f8201527f6572616c20666f7220726571756573746564206c6f616e20616d6f756e740000602082015250565b5f6118db603e83611555565b91506118e682611881565b604082019050919050565b5f6020820190508181035f830152611908816118cf565b9050919050565b5f6040820190506119225f83018561145f565b61192f60208301846113cd565b9392505050565b61193f816114dc565b8114611949575f80fd5b50565b5f8151905061195a81611936565b92915050565b5f60208284031215611975576119746113f5565b5b5f6119828482850161194c565b91505092915050565b7f4c6f616e4d616e616765723a204c6f616e207472616e73666572206661696c655f8201527f6400000000000000000000000000000000000000000000000000000000000000602082015250565b5f6119e5602183611555565b91506119f08261198b565b604082019050919050565b5f6020820190508181035f830152611a12816119d9565b9050919050565b5f604082019050611a2c5f8301856113cd565b611a3960208301846113cd565b9392505050565b5f606082019050611a535f83018661145f565b611a60602083018561145f565b611a6d60408301846113cd565b949350505050565b7f4c6f616e4d616e616765723a2046756e64207472616e73666572206661696c655f8201527f6400000000000000000000000000000000000000000000000000000000000000602082015250565b5f611acf602183611555565b9150611ada82611a75565b604082019050919050565b5f6020820190508181035f830152611afc81611ac3565b9050919050565b5f611b0d826113c4565b9150611b18836113c4565b9250828201905080821115611b3057611b2f61160c565b5b92915050565b7f4c6f616e4d616e616765723a204e6f20616374697665206c6f616e00000000005f82015250565b5f611b6a601b83611555565b9150611b7582611b36565b602082019050919050565b5f6020820190508181035f830152611b9781611b5e565b9050919050565b7f4c6f616e4d616e616765723a204c6f616e20697320616c7265616479207265705f8201527f6169640000000000000000000000000000000000000000000000000000000000602082015250565b5f611bf8602383611555565b9150611c0382611b9e565b604082019050919050565b5f6020820190508181035f830152611c2581611bec565b9050919050565b7f4c6f616e4d616e616765723a20496e73756666696369656e742072657061796d5f8201527f656e7420616d6f756e7400000000000000000000000000000000000000000000602082015250565b5f611c86602a83611555565b9150611c9182611c2c565b604082019050919050565b5f6020820190508181035f830152611cb381611c7a565b9050919050565b7f4c6f616e4d616e616765723a2052657061796d656e74207472616e73666572205f8201527f6661696c65640000000000000000000000000000000000000000000000000000602082015250565b5f611d14602683611555565b9150611d1f82611cba565b604082019050919050565b5f6020820190508181035f830152611d4181611d08565b9050919050565b7f4c6f616e4d616e616765723a20496e76616c6964206475726174696f6e0000005f82015250565b5f611d7c601d83611555565b9150611d8782611d48565b602082019050919050565b5f6020820190508181035f830152611da981611d70565b9050919050565b7f4c6f616e4d616e616765723a204c6f616e20616c72656164792064656661756c5f8201527f7465640000000000000000000000000000000000000000000000000000000000602082015250565b5f611e0a602383611555565b9150611e1582611db0565b604082019050919050565b5f6020820190508181035f830152611e3781611dfe565b9050919050565b7f4c6f616e4d616e616765723a204c6f616e206e6f742064656661756c746564205f8201527f7965740000000000000000000000000000000000000000000000000000000000602082015250565b5f611e98602383611555565b9150611ea382611e3e565b604082019050919050565b5f6020820190508181035f830152611ec581611e8c565b905091905056fea26469706673582212201b447824b89fb8e71568547e98ad21acd5c373ce790ba5d0cad91f2c65ad54e864736f6c63430008140033",
			"opcodes": "PUSH1 0x80 PUSH1 0x40 MSTORE PUSH1 0x96 PUSH1 0x6 SSTORE PUSH3 0x278D00 PUSH1 0x7 SSTORE PUSH3 0xD2F00 PUSH1 0x8 SSTORE CALLVALUE DUP1 ISZERO PUSH3 0x23 JUMPI PUSH0 DUP1 REVERT JUMPDEST POP PUSH1 0x40 MLOAD PUSH3 0x229E CODESIZE SUB DUP1 PUSH3 0x229E DUP4 CODECOPY DUP2 DUP2 ADD PUSH1 0x40 MSTORE DUP2 ADD SWAP1 PUSH3 0x49 SWAP2 SWAP1 PUSH3 0x309 JUMP JUMPDEST CALLER PUSH1 0x1 PUSH0 DUP2 SWAP1 SSTORE POP PUSH0 PUSH20 0xFFFFFFFFFFFFFFFFFFFFFFFFFFFFFFFFFFFFFFFF AND DUP2 PUSH20 0xFFFFFFFFFFFFFFFFFFFFFFFFFFFFFFFFFFFFFFFF AND SUB PUSH3 0xC4 JUMPI PUSH0 PUSH1 0x40 MLOAD PUSH32 0x1E4FBDF700000000000000000000000000000000000000000000000000000000 DUP2 MSTORE PUSH1 0x4 ADD PUSH3 0xBB SWAP2 SWAP1 PUSH3 0x373 JUMP JUMPDEST PUSH1 0x40 MLOAD DUP1 SWAP2 SUB SWAP1 REVERT JUMPDEST PUSH3 0xD5 DUP2 PUSH3 0x19F PUSH1 0x20 SHL PUSH1 0x20 SHR JUMP JUMPDEST POP DUP3 PUSH1 0x2 PUSH0 PUSH2 0x100 EXP DUP2 SLOAD DUP2 PUSH20 0xFFFFFFFFFFFFFFFFFFFFFFFFFFFFFFFFFFFFFFFF MUL NOT AND SWAP1 DUP4 PUSH20 0xFFFFFFFFFFFFFFFFFFFFFFFFFFFFFFFFFFFFFFFF AND MUL OR SWAP1 SSTORE POP DUP2 PUSH1 0x3 PUSH0 PUSH2 0x100 EXP DUP2 SLOAD DUP2 PUSH20 0xFFFFFFFFFFFFFFFFFFFFFFFFFFFFFFFFFFFFFFFF MUL NOT AND SWAP1 DUP4 PUSH20 0xFFFFFFFFFFFFFFFFFFFFFFFFFFFFFFFFFFFFFFFF AND MUL OR SWAP1 SSTORE POP DUP1 PUSH1 0x4 PUSH0 PUSH2 0x100 EXP DUP2 SLOAD DUP2 PUSH20 0xFFFFFFFFFFFFFFFFFFFFFFFFFFFFFFFFFFFFFFFF MUL NOT AND SWAP1 DUP4 PUSH20 0xFFFFFFFFFFFFFFFFFFFFFFFFFFFFFFFFFFFFFFFF AND MUL OR SWAP1 SSTORE POP POP POP POP PUSH3 0x38E JUMP JUMPDEST PUSH0 PUSH1 0x1 PUSH0 SWAP1 SLOAD SWAP1 PUSH2 0x100 EXP SWAP1 DIV PUSH20 0xFFFFFFFFFFFFFFFFFFFFFFFFFFFFFFFFFFFFFFFF AND SWAP1 POP DUP2 PUSH1 0x1 PUSH0 PUSH2 0x100 EXP DUP2 SLOAD DUP2 PUSH20 0xFFFFFFFFFFFFFFFFFFFFFFFFFFFFFFFFFFFFFFFF MUL NOT AND SWAP1 DUP4 PUSH20 0xFFFFFFFFFFFFFFFFFFFFFFFFFFFFFFFFFFFFFFFF AND MUL OR SWAP1 SSTORE POP DUP2 PUSH20 0xFFFFFFFFFFFFFFFFFFFFFFFFFFFFFFFFFFFFFFFF AND DUP2 PUSH20 0xFFFFFFFFFFFFFFFFFFFFFFFFFFFFFFFFFFFFFFFF AND PUSH32 0x8BE0079C531659141344CD1FD0A4F28419497F9722A3DAAFE3B4186F6B6457E0 PUSH1 0x40 MLOAD PUSH1 0x40 MLOAD DUP1 SWAP2 SUB SWAP1 LOG3 POP POP JUMP JUMPDEST PUSH0 DUP1 REVERT JUMPDEST PUSH0 PUSH20 0xFFFFFFFFFFFFFFFFFFFFFFFFFFFFFFFFFFFFFFFF DUP3 AND SWAP1 POP SWAP2 SWAP1 POP JUMP JUMPDEST PUSH0 PUSH3 0x291 DUP3 PUSH3 0x266 JUMP JUMPDEST SWAP1 POP SWAP2 SWAP1 POP JUMP JUMPDEST PUSH0 PUSH3 0x2A4 DUP3 PUSH3 0x285 JUMP JUMPDEST SWAP1 POP SWAP2 SWAP1 POP JUMP JUMPDEST PUSH3 0x2B6 DUP2 PUSH3 0x298 JUMP JUMPDEST DUP2 EQ PUSH3 0x2C1 JUMPI PUSH0 DUP1 REVERT JUMPDEST POP JUMP JUMPDEST PUSH0 DUP2 MLOAD SWAP1 POP PUSH3 0x2D4 DUP2 PUSH3 0x2AB JUMP JUMPDEST SWAP3 SWAP2 POP POP JUMP JUMPDEST PUSH3 0x2E5 DUP2 PUSH3 0x285 JUMP JUMPDEST DUP2 EQ PUSH3 0x2F0 JUMPI PUSH0 DUP1 REVERT JUMPDEST POP JUMP JUMPDEST PUSH0 DUP2 MLOAD SWAP1 POP PUSH3 0x303 DUP2 PUSH3 0x2DA JUMP JUMPDEST SWAP3 SWAP2 POP POP JUMP JUMPDEST PUSH0 DUP1 PUSH0 PUSH1 0x60 DUP5 DUP7 SUB SLT ISZERO PUSH3 0x323 JUMPI PUSH3 0x322 PUSH3 0x262 JUMP JUMPDEST JUMPDEST PUSH0 PUSH3 0x332 DUP7 DUP3 DUP8 ADD PUSH3 0x2C4 JUMP JUMPDEST SWAP4 POP POP PUSH1 0x20 PUSH3 0x345 DUP7 DUP3 DUP8 ADD PUSH3 0x2F3 JUMP JUMPDEST SWAP3 POP POP PUSH1 0x40 PUSH3 0x358 DUP7 DUP3 DUP8 ADD PUSH3 0x2F3 JUMP JUMPDEST SWAP2 POP POP SWAP3 POP SWAP3 POP SWAP3 JUMP JUMPDEST PUSH3 0x36D DUP2 PUSH3 0x285 JUMP JUMPDEST DUP3 MSTORE POP POP JUMP JUMPDEST PUSH0 PUSH1 0x20 DUP3 ADD SWAP1 POP PUSH3 0x388 PUSH0 DUP4 ADD DUP5 PUSH3 0x362 JUMP JUMPDEST SWAP3 SWAP2 POP POP JUMP JUMPDEST PUSH2 0x1F02 DUP1 PUSH3 0x39C PUSH0 CODECOPY PUSH0 RETURN INVALID PUSH1 0x80 PUSH1 0x40 MSTORE CALLVALUE DUP1 ISZERO PUSH2 0xF JUMPI PUSH0 DUP1 REVERT JUMPDEST POP PUSH1 0x4 CALLDATASIZE LT PUSH2 0x11F JUMPI PUSH0 CALLDATALOAD PUSH1 0xE0 SHR DUP1 PUSH4 0x8D5D3429 GT PUSH2 0xAB JUMPI DUP1 PUSH4 0xC000BC60 GT PUSH2 0x6F JUMPI DUP1 PUSH4 0xC000BC60 EQ PUSH2 0x2A9 JUMPI DUP1 PUSH4 0xE9E190A3 EQ PUSH2 0x2C5 JUMPI DUP1 PUSH4 0xEBBB7DE9 EQ PUSH2 0x2FA JUMPI DUP1 PUSH4 0xF2FDE38B EQ PUSH2 0x316 JUMPI DUP1 PUSH4 0xF5521BF1 EQ PUSH2 0x332 JUMPI PUSH2 0x11F JUMP JUMPDEST DUP1 PUSH4 0x8D5D3429 EQ PUSH2 0x21B JUMPI DUP1 PUSH4 0x8DA5CB5B EQ PUSH2 0x237 JUMPI DUP1 PUSH4 0x97ED71EB EQ PUSH2 0x255 JUMPI DUP1 PUSH4 0xAB7B1C89 EQ PUSH2 0x271 JUMPI DUP1 PUSH4 0xBA43A922 EQ PUSH2 0x28D JUMPI PUSH2 0x11F JUMP JUMPDEST DUP1 PUSH4 0x650DFA18 GT PUSH2 0xF2 JUMPI DUP1 PUSH4 0x650DFA18 EQ PUSH2 0x19B JUMPI DUP1 PUSH4 0x656F9BA4 EQ PUSH2 0x1B7 JUMPI DUP1 PUSH4 0x688AEF48 EQ PUSH2 0x1D5 JUMPI DUP1 PUSH4 0x70F37D27 EQ PUSH2 0x1F3 JUMPI DUP1 PUSH4 0x715018A6 EQ PUSH2 0x211 JUMPI PUSH2 0x11F JUMP JUMPDEST DUP1 PUSH4 0xEA86AD8 EQ PUSH2 0x123 JUMPI DUP1 PUSH4 0x23BE345C EQ PUSH2 0x141 JUMPI DUP1 PUSH4 0x2630C12F EQ PUSH2 0x15F JUMPI DUP1 PUSH4 0x2AF7E2EA EQ PUSH2 0x17D JUMPI JUMPDEST PUSH0 DUP1 REVERT JUMPDEST PUSH2 0x12B PUSH2 0x350 JUMP JUMPDEST PUSH1 0x40 MLOAD PUSH2 0x138 SWAP2 SWAP1 PUSH2 0x1339 JUMP JUMPDEST PUSH1 0x40 MLOAD DUP1 SWAP2 SUB SWAP1 RETURN JUMPDEST PUSH2 0x149 PUSH2 0x375 JUMP JUMPDEST PUSH1 0x40 MLOAD PUSH2 0x156 SWAP2 SWAP1 PUSH2 0x1372 JUMP JUMPDEST PUSH1 0x40 MLOAD DUP1 SWAP2 SUB SWAP1 RETURN JUMPDEST PUSH2 0x167 PUSH2 0x39A JUMP JUMPDEST PUSH1 0x40 MLOAD PUSH2 0x174 SWAP2 SWAP1 PUSH2 0x13AB JUMP JUMPDEST PUSH1 0x40 MLOAD DUP1 SWAP2 SUB SWAP1 RETURN JUMPDEST PUSH2 0x185 PUSH2 0x3BF JUMP JUMPDEST PUSH1 0x40 MLOAD PUSH2 0x192 SWAP2 SWAP1 PUSH2 0x13DC JUMP JUMPDEST PUSH1 0x40 MLOAD DUP1 SWAP2 SUB SWAP1 RETURN JUMPDEST PUSH2 0x1B5 PUSH1 0x4 DUP1 CALLDATASIZE SUB DUP2 ADD SWAP1 PUSH2 0x1B0 SWAP2 SWAP1 PUSH2 0x1423 JUMP JUMPDEST PUSH2 0x3C5 JUMP JUMPDEST STOP JUMPDEST PUSH2 0x1BF PUSH2 0x413 JUMP JUMPDEST PUSH1 0x40 MLOAD PUSH2 0x1CC SWAP2 SWAP1 PUSH2 0x13DC JUMP JUMPDEST PUSH1 0x40 MLOAD DUP1 SWAP2 SUB SWAP1 RETURN JUMPDEST PUSH2 0x1DD PUSH2 0x4D0 JUMP JUMPDEST PUSH1 0x40 MLOAD PUSH2 0x1EA SWAP2 SWAP1 PUSH2 0x13DC JUMP JUMPDEST PUSH1 0x40 MLOAD DUP1 SWAP2 SUB SWAP1 RETURN JUMPDEST PUSH2 0x1FB PUSH2 0x4D6 JUMP JUMPDEST PUSH1 0x40 MLOAD PUSH2 0x208 SWAP2 SWAP1 PUSH2 0x13DC JUMP JUMPDEST PUSH1 0x40 MLOAD DUP1 SWAP2 SUB SWAP1 RETURN JUMPDEST PUSH2 0x219 PUSH2 0x4DC JUMP JUMPDEST STOP JUMPDEST PUSH2 0x235 PUSH1 0x4 DUP1 CALLDATASIZE SUB DUP2 ADD SWAP1 PUSH2 0x230 SWAP2 SWAP1 PUSH2 0x1423 JUMP JUMPDEST PUSH2 0x4EF JUMP JUMPDEST STOP JUMPDEST PUSH2 0x23F PUSH2 0x90C JUMP JUMPDEST PUSH1 0x40 MLOAD PUSH2 0x24C SWAP2 SWAP1 PUSH2 0x146E JUMP JUMPDEST PUSH1 0x40 MLOAD DUP1 SWAP2 SUB SWAP1 RETURN JUMPDEST PUSH2 0x26F PUSH1 0x4 DUP1 CALLDATASIZE SUB DUP2 ADD SWAP1 PUSH2 0x26A SWAP2 SWAP1 PUSH2 0x1423 JUMP JUMPDEST PUSH2 0x934 JUMP JUMPDEST STOP JUMPDEST PUSH2 0x28B PUSH1 0x4 DUP1 CALLDATASIZE SUB DUP2 ADD SWAP1 PUSH2 0x286 SWAP2 SWAP1 PUSH2 0x1423 JUMP JUMPDEST PUSH2 0xA34 JUMP JUMPDEST STOP JUMPDEST PUSH2 0x2A7 PUSH1 0x4 DUP1 CALLDATASIZE SUB DUP2 ADD SWAP1 PUSH2 0x2A2 SWAP2 SWAP1 PUSH2 0x1423 JUMP JUMPDEST PUSH2 0xD69 JUMP JUMPDEST STOP JUMPDEST PUSH2 0x2C3 PUSH1 0x4 DUP1 CALLDATASIZE SUB DUP2 ADD SWAP1 PUSH2 0x2BE SWAP2 SWAP1 PUSH2 0x1423 JUMP JUMPDEST PUSH2 0xDB5 JUMP JUMPDEST STOP JUMPDEST PUSH2 0x2DF PUSH1 0x4 DUP1 CALLDATASIZE SUB DUP2 ADD SWAP1 PUSH2 0x2DA SWAP2 SWAP1 PUSH2 0x14B1 JUMP JUMPDEST PUSH2 0xE01 JUMP JUMPDEST PUSH1 0x40 MLOAD PUSH2 0x2F1 SWAP7 SWAP6 SWAP5 SWAP4 SWAP3 SWAP2 SWAP1 PUSH2 0x14F6 JUMP JUMPDEST PUSH1 0x40 MLOAD DUP1 SWAP2 SUB SWAP1 RETURN JUMPDEST PUSH2 0x314 PUSH1 0x4 DUP1 CALLDATASIZE SUB DUP2 ADD SWAP1 PUSH2 0x30F SWAP2 SWAP1 PUSH2 0x14B1 JUMP JUMPDEST PUSH2 0xE52 JUMP JUMPDEST STOP JUMPDEST PUSH2 0x330 PUSH1 0x4 DUP1 CALLDATASIZE SUB DUP2 ADD SWAP1 PUSH2 0x32B SWAP2 SWAP1 PUSH2 0x14B1 JUMP JUMPDEST PUSH2 0x1097 JUMP JUMPDEST STOP JUMPDEST PUSH2 0x33A PUSH2 0x111B JUMP JUMPDEST PUSH1 0x40 MLOAD PUSH2 0x347 SWAP2 SWAP1 PUSH2 0x13DC JUMP JUMPDEST PUSH1 0x40 MLOAD DUP1 SWAP2 SUB SWAP1 RETURN JUMPDEST PUSH1 0x2 PUSH0 SWAP1 SLOAD SWAP1 PUSH2 0x100 EXP SWAP1 DIV PUSH20 0xFFFFFFFFFFFFFFFFFFFFFFFFFFFFFFFFFFFFFFFF AND DUP2 JUMP JUMPDEST PUSH1 0x3 PUSH0 SWAP1 SLOAD SWAP1 PUSH2 0x100 EXP SWAP1 DIV PUSH20 0xFFFFFFFFFFFFFFFFFFFFFFFFFFFFFFFFFFFFFFFF AND DUP2 JUMP JUMPDEST PUSH1 0x4 PUSH0 SWAP1 SLOAD SWAP1 PUSH2 0x100 EXP SWAP1 DIV PUSH20 0xFFFFFFFFFFFFFFFFFFFFFFFFFFFFFFFFFFFFFFFF AND DUP2 JUMP JUMPDEST PUSH1 0x8 SLOAD DUP2 JUMP JUMPDEST PUSH1 0x64 DUP2 LT ISZERO PUSH2 0x409 JUMPI PUSH1 0x40 MLOAD PUSH32 0x8C379A000000000000000000000000000000000000000000000000000000000 DUP2 MSTORE PUSH1 0x4 ADD PUSH2 0x400 SWAP1 PUSH2 0x15AF JUMP JUMPDEST PUSH1 0x40 MLOAD DUP1 SWAP2 SUB SWAP1 REVERT JUMPDEST DUP1 PUSH1 0x6 DUP2 SWAP1 SSTORE POP POP JUMP JUMPDEST PUSH0 DUP1 PUSH1 0x3 PUSH0 SWAP1 SLOAD SWAP1 PUSH2 0x100 EXP SWAP1 DIV PUSH20 0xFFFFFFFFFFFFFFFFFFFFFFFFFFFFFFFFFFFFFFFF AND PUSH20 0xFFFFFFFFFFFFFFFFFFFFFFFFFFFFFFFFFFFFFFFF AND PUSH4 0x9B8AAFD CALLER PUSH1 0x40 MLOAD DUP3 PUSH4 0xFFFFFFFF AND PUSH1 0xE0 SHL DUP2 MSTORE PUSH1 0x4 ADD PUSH2 0x46F SWAP2 SWAP1 PUSH2 0x146E JUMP JUMPDEST PUSH1 0x20 PUSH1 0x40 MLOAD DUP1 DUP4 SUB DUP2 DUP7 GAS STATICCALL ISZERO DUP1 ISZERO PUSH2 0x48A JUMPI RETURNDATASIZE PUSH0 DUP1 RETURNDATACOPY RETURNDATASIZE PUSH0 REVERT JUMPDEST POP POP POP POP PUSH1 0x40 MLOAD RETURNDATASIZE PUSH1 0x1F NOT PUSH1 0x1F DUP3 ADD AND DUP3 ADD DUP1 PUSH1 0x40 MSTORE POP DUP2 ADD SWAP1 PUSH2 0x4AE SWAP2 SWAP1 PUSH2 0x15E1 JUMP JUMPDEST SWAP1 POP PUSH1 0x6 SLOAD PUSH1 0x64 DUP3 PUSH2 0x4C0 SWAP2 SWAP1 PUSH2 0x1639 JUMP JUMPDEST PUSH2 0x4CA SWAP2 SWAP1 PUSH2 0x16A7 JUMP JUMPDEST SWAP2 POP POP SWAP1 JUMP JUMPDEST PUSH1 0x6 SLOAD DUP2 JUMP JUMPDEST PUSH1 0x5 SLOAD DUP2 JUMP JUMPDEST PUSH2 0x4E4 PUSH2 0x1121 JUMP JUMPDEST PUSH2 0x4ED PUSH0 PUSH2 0x11A8 JUMP JUMPDEST JUMP JUMPDEST PUSH2 0x4F7 PUSH2 0x126B JUMP JUMPDEST PUSH0 DUP2 GT PUSH2 0x539 JUMPI PUSH1 0x40 MLOAD PUSH32 0x8C379A000000000000000000000000000000000000000000000000000000000 DUP2 MSTORE PUSH1 0x4 ADD PUSH2 0x530 SWAP1 PUSH2 0x1747 JUMP JUMPDEST PUSH1 0x40 MLOAD DUP1 SWAP2 SUB SWAP1 REVERT JUMPDEST PUSH0 PUSH1 0x9 PUSH0 CALLER PUSH20 0xFFFFFFFFFFFFFFFFFFFFFFFFFFFFFFFFFFFFFFFF AND PUSH20 0xFFFFFFFFFFFFFFFFFFFFFFFFFFFFFFFFFFFFFFFF AND DUP2 MSTORE PUSH1 0x20 ADD SWAP1 DUP2 MSTORE PUSH1 0x20 ADD PUSH0 KECCAK256 PUSH0 ADD SLOAD EQ PUSH2 0x5BA JUMPI PUSH1 0x40 MLOAD PUSH32 0x8C379A000000000000000000000000000000000000000000000000000000000 DUP2 MSTORE PUSH1 0x4 ADD PUSH2 0x5B1 SWAP1 PUSH2 0x17D5 JUMP JUMPDEST PUSH1 0x40 MLOAD DUP1 SWAP2 SUB SWAP1 REVERT JUMPDEST PUSH0 PUSH1 0x3 PUSH0 SWAP1 SLOAD SWAP1 PUSH2 0x100 EXP SWAP1 DIV PUSH20 0xFFFFFFFFFFFFFFFFFFFFFFFFFFFFFFFFFFFFFFFF AND PUSH20 0xFFFFFFFFFFFFFFFFFFFFFFFFFFFFFFFFFFFFFFFF AND PUSH4 0x9B8AAFD CALLER PUSH1 0x40 MLOAD DUP3 PUSH4 0xFFFFFFFF AND PUSH1 0xE0 SHL DUP2 MSTORE PUSH1 0x4 ADD PUSH2 0x615 SWAP2 SWAP1 PUSH2 0x146E JUMP JUMPDEST PUSH1 0x20 PUSH1 0x40 MLOAD DUP1 DUP4 SUB DUP2 DUP7 GAS STATICCALL ISZERO DUP1 ISZERO PUSH2 0x630 JUMPI RETURNDATASIZE PUSH0 DUP1 RETURNDATACOPY RETURNDATASIZE PUSH0 REVERT JUMPDEST POP POP POP POP PUSH1 0x40 MLOAD RETURNDATASIZE PUSH1 0x1F NOT PUSH1 0x1F DUP3 ADD AND DUP3 ADD DUP1 PUSH1 0x40 MSTORE POP DUP2 ADD SWAP1 PUSH2 0x654 SWAP2 SWAP1 PUSH2 0x15E1 JUMP JUMPDEST SWAP1 POP PUSH0 DUP2 GT PUSH2 0x698 JUMPI PUSH1 0x40 MLOAD PUSH32 0x8C379A000000000000000000000000000000000000000000000000000000000 DUP2 MSTORE PUSH1 0x4 ADD PUSH2 0x68F SWAP1 PUSH2 0x1863 JUMP JUMPDEST PUSH1 0x40 MLOAD DUP1 SWAP2 SUB SWAP1 REVERT JUMPDEST PUSH0 PUSH1 0x6 SLOAD PUSH1 0x64 DUP4 PUSH2 0x6A9 SWAP2 SWAP1 PUSH2 0x1639 JUMP JUMPDEST PUSH2 0x6B3 SWAP2 SWAP1 PUSH2 0x16A7 JUMP JUMPDEST SWAP1 POP DUP1 DUP4 GT ISZERO PUSH2 0x6F8 JUMPI PUSH1 0x40 MLOAD PUSH32 0x8C379A000000000000000000000000000000000000000000000000000000000 DUP2 MSTORE PUSH1 0x4 ADD PUSH2 0x6EF SWAP1 PUSH2 0x18F1 JUMP JUMPDEST PUSH1 0x40 MLOAD DUP1 SWAP2 SUB SWAP1 REVERT JUMPDEST PUSH0 PUSH1 0x40 MLOAD DUP1 PUSH1 0xC0 ADD PUSH1 0x40 MSTORE DUP1 DUP6 DUP2 MSTORE PUSH1 0x20 ADD PUSH1 0x5 DUP2 MSTORE PUSH1 0x20 ADD TIMESTAMP DUP2 MSTORE PUSH1 0x20 ADD DUP5 DUP2 MSTORE PUSH1 0x20 ADD PUSH0 ISZERO ISZERO DUP2 MSTORE PUSH1 0x20 ADD PUSH0 ISZERO ISZERO DUP2 MSTORE POP SWAP1 POP DUP1 PUSH1 0x9 PUSH0 CALLER PUSH20 0xFFFFFFFFFFFFFFFFFFFFFFFFFFFFFFFFFFFFFFFF AND PUSH20 0xFFFFFFFFFFFFFFFFFFFFFFFFFFFFFFFFFFFFFFFF AND DUP2 MSTORE PUSH1 0x20 ADD SWAP1 DUP2 MSTORE PUSH1 0x20 ADD PUSH0 KECCAK256 PUSH0 DUP3 ADD MLOAD DUP2 PUSH0 ADD SSTORE PUSH1 0x20 DUP3 ADD MLOAD DUP2 PUSH1 0x1 ADD SSTORE PUSH1 0x40 DUP3 ADD MLOAD DUP2 PUSH1 0x2 ADD SSTORE PUSH1 0x60 DUP3 ADD MLOAD DUP2 PUSH1 0x3 ADD SSTORE PUSH1 0x80 DUP3 ADD MLOAD DUP2 PUSH1 0x4 ADD PUSH0 PUSH2 0x100 EXP DUP2 SLOAD DUP2 PUSH1 0xFF MUL NOT AND SWAP1 DUP4 ISZERO ISZERO MUL OR SWAP1 SSTORE POP PUSH1 0xA0 DUP3 ADD MLOAD DUP2 PUSH1 0x4 ADD PUSH1 0x1 PUSH2 0x100 EXP DUP2 SLOAD DUP2 PUSH1 0xFF MUL NOT AND SWAP1 DUP4 ISZERO ISZERO MUL OR SWAP1 SSTORE POP SWAP1 POP POP PUSH1 0x2 PUSH0 SWAP1 SLOAD SWAP1 PUSH2 0x100 EXP SWAP1 DIV PUSH20 0xFFFFFFFFFFFFFFFFFFFFFFFFFFFFFFFFFFFFFFFF AND PUSH20 0xFFFFFFFFFFFFFFFFFFFFFFFFFFFFFFFFFFFFFFFF AND PUSH4 0xA9059CBB CALLER DUP7 PUSH1 0x40 MLOAD DUP4 PUSH4 0xFFFFFFFF AND PUSH1 0xE0 SHL DUP2 MSTORE PUSH1 0x4 ADD PUSH2 0x82F SWAP3 SWAP2 SWAP1 PUSH2 0x190F JUMP JUMPDEST PUSH1 0x20 PUSH1 0x40 MLOAD DUP1 DUP4 SUB DUP2 PUSH0 DUP8 GAS CALL ISZERO DUP1 ISZERO PUSH2 0x84B JUMPI RETURNDATASIZE PUSH0 DUP1 RETURNDATACOPY RETURNDATASIZE PUSH0 REVERT JUMPDEST POP POP POP POP PUSH1 0x40 MLOAD RETURNDATASIZE PUSH1 0x1F NOT PUSH1 0x1F DUP3 ADD AND DUP3 ADD DUP1 PUSH1 0x40 MSTORE POP DUP2 ADD SWAP1 PUSH2 0x86F SWAP2 SWAP1 PUSH2 0x1960 JUMP JUMPDEST PUSH2 0x8AE JUMPI PUSH1 0x40 MLOAD PUSH32 0x8C379A000000000000000000000000000000000000000000000000000000000 DUP2 MSTORE PUSH1 0x4 ADD PUSH2 0x8A5 SWAP1 PUSH2 0x19FB JUMP JUMPDEST PUSH1 0x40 MLOAD DUP1 SWAP2 SUB SWAP1 REVERT JUMPDEST CALLER PUSH20 0xFFFFFFFFFFFFFFFFFFFFFFFFFFFFFFFFFFFFFFFF AND PUSH32 0x1C793C0FDA4A6B2B79DD68D91D9F7FDE8F7AA0878615C36A4624E6CCDBB1EAD1 DUP6 DUP6 PUSH1 0x40 MLOAD PUSH2 0x8F6 SWAP3 SWAP2 SWAP1 PUSH2 0x1A19 JUMP JUMPDEST PUSH1 0x40 MLOAD DUP1 SWAP2 SUB SWAP1 LOG2 POP POP POP PUSH2 0x909 PUSH2 0x12AF JUMP JUMPDEST POP JUMP JUMPDEST PUSH0 PUSH1 0x1 PUSH0 SWAP1 SLOAD SWAP1 PUSH2 0x100 EXP SWAP1 DIV PUSH20 0xFFFFFFFFFFFFFFFFFFFFFFFFFFFFFFFFFFFFFFFF AND SWAP1 POP SWAP1 JUMP JUMPDEST PUSH2 0x93C PUSH2 0x1121 JUMP JUMPDEST PUSH1 0x2 PUSH0 SWAP1 SLOAD SWAP1 PUSH2 0x100 EXP SWAP1 DIV PUSH20 0xFFFFFFFFFFFFFFFFFFFFFFFFFFFFFFFFFFFFFFFF AND PUSH20 0xFFFFFFFFFFFFFFFFFFFFFFFFFFFFFFFFFFFFFFFF AND PUSH4 0x23B872DD CALLER ADDRESS DUP5 PUSH1 0x40 MLOAD DUP5 PUSH4 0xFFFFFFFF AND PUSH1 0xE0 SHL DUP2 MSTORE PUSH1 0x4 ADD PUSH2 0x99A SWAP4 SWAP3 SWAP2 SWAP1 PUSH2 0x1A40 JUMP JUMPDEST PUSH1 0x20 PUSH1 0x40 MLOAD DUP1 DUP4 SUB DUP2 PUSH0 DUP8 GAS CALL ISZERO DUP1 ISZERO PUSH2 0x9B6 JUMPI RETURNDATASIZE PUSH0 DUP1 RETURNDATACOPY RETURNDATASIZE PUSH0 REVERT JUMPDEST POP POP POP POP PUSH1 0x40 MLOAD RETURNDATASIZE PUSH1 0x1F NOT PUSH1 0x1F DUP3 ADD AND DUP3 ADD DUP1 PUSH1 0x40 MSTORE POP DUP2 ADD SWAP1 PUSH2 0x9DA SWAP2 SWAP1 PUSH2 0x1960 JUMP JUMPDEST PUSH2 0xA19 JUMPI PUSH1 0x40 MLOAD PUSH32 0x8C379A000000000000000000000000000000000000000000000000000000000 DUP2 MSTORE PUSH1 0x4 ADD PUSH2 0xA10 SWAP1 PUSH2 0x1AE5 JUMP JUMPDEST PUSH1 0x40 MLOAD DUP1 SWAP2 SUB SWAP1 REVERT JUMPDEST DUP1 PUSH1 0x5 PUSH0 DUP3 DUP3 SLOAD PUSH2 0xA2A SWAP2 SWAP1 PUSH2 0x1B03 JUMP JUMPDEST SWAP3 POP POP DUP2 SWAP1 SSTORE POP POP JUMP JUMPDEST PUSH2 0xA3C PUSH2 0x126B JUMP JUMPDEST PUSH0 PUSH1 0x9 PUSH0 CALLER PUSH20 0xFFFFFFFFFFFFFFFFFFFFFFFFFFFFFFFFFFFFFFFF AND PUSH20 0xFFFFFFFFFFFFFFFFFFFFFFFFFFFFFFFFFFFFFFFF AND DUP2 MSTORE PUSH1 0x20 ADD SWAP1 DUP2 MSTORE PUSH1 0x20 ADD PUSH0 KECCAK256 SWAP1 POP PUSH0 DUP2 PUSH0 ADD SLOAD GT PUSH2 0xAC1 JUMPI PUSH1 0x40 MLOAD PUSH32 0x8C379A000000000000000000000000000000000000000000000000000000000 DUP2 MSTORE PUSH1 0x4 ADD PUSH2 0xAB8 SWAP1 PUSH2 0x1B80 JUMP JUMPDEST PUSH1 0x40 MLOAD DUP1 SWAP2 SUB SWAP1 REVERT JUMPDEST DUP1 PUSH1 0x4 ADD PUSH0 SWAP1 SLOAD SWAP1 PUSH2 0x100 EXP SWAP1 DIV PUSH1 0xFF AND ISZERO PUSH2 0xB12 JUMPI PUSH1 0x40 MLOAD PUSH32 0x8C379A000000000000000000000000000000000000000000000000000000000 DUP2 MSTORE PUSH1 0x4 ADD PUSH2 0xB09 SWAP1 PUSH2 0x1C0E JUMP JUMPDEST PUSH1 0x40 MLOAD DUP1 SWAP2 SUB SWAP1 REVERT JUMPDEST PUSH0 PUSH1 0x64 DUP3 PUSH1 0x1 ADD SLOAD DUP4 PUSH0 ADD SLOAD PUSH2 0xB28 SWAP2 SWAP1 PUSH2 0x1639 JUMP JUMPDEST PUSH2 0xB32 SWAP2 SWAP1 PUSH2 0x16A7 JUMP JUMPDEST DUP3 PUSH0 ADD SLOAD PUSH2 0xB40 SWAP2 SWAP1 PUSH2 0x1B03 JUMP JUMPDEST SWAP1 POP DUP1 DUP4 LT ISZERO PUSH2 0xB85 JUMPI PUSH1 0x40 MLOAD PUSH32 0x8C379A000000000000000000000000000000000000000000000000000000000 DUP2 MSTORE PUSH1 0x4 ADD PUSH2 0xB7C SWAP1 PUSH2 0x1C9C JUMP JUMPDEST PUSH1 0x40 MLOAD DUP1 SWAP2 SUB SWAP1 REVERT JUMPDEST PUSH1 0x2 PUSH0 SWAP1 SLOAD SWAP1 PUSH2 0x100 EXP SWAP1 DIV PUSH20 0xFFFFFFFFFFFFFFFFFFFFFFFFFFFFFFFFFFFFFFFF AND PUSH20 0xFFFFFFFFFFFFFFFFFFFFFFFFFFFFFFFFFFFFFFFF AND PUSH4 0x23B872DD CALLER ADDRESS DUP7 PUSH1 0x40 MLOAD DUP5 PUSH4 0xFFFFFFFF AND PUSH1 0xE0 SHL DUP2 MSTORE PUSH1 0x4 ADD PUSH2 0xBE3 SWAP4 SWAP3 SWAP2 SWAP1 PUSH2 0x1A40 JUMP JUMPDEST PUSH1 0x20 PUSH1 0x40 MLOAD DUP1 DUP4 SUB DUP2 PUSH0 DUP8 GAS CALL ISZERO DUP1 ISZERO PUSH2 0xBFF JUMPI RETURNDATASIZE PUSH0 DUP1 RETURNDATACOPY RETURNDATASIZE PUSH0 REVERT JUMPDEST POP POP POP POP PUSH1 0x40 MLOAD RETURNDATASIZE PUSH1 0x1F NOT PUSH1 0x1F DUP3 ADD AND DUP3 ADD DUP1 PUSH1 0x40 MSTORE POP DUP2 ADD SWAP1 PUSH2 0xC23 SWAP2 SWAP1 PUSH2 0x1960 JUMP JUMPDEST PUSH2 0xC62 JUMPI PUSH1 0x40 MLOAD PUSH32 0x8C379A000000000000000000000000000000000000000000000000000000000 DUP2 MSTORE PUSH1 0x4 ADD PUSH2 0xC59 SWAP1 PUSH2 0x1D2A JUMP JUMPDEST PUSH1 0x40 MLOAD DUP1 SWAP2 SUB SWAP1 REVERT JUMPDEST PUSH1 0x1 DUP3 PUSH1 0x4 ADD PUSH0 PUSH2 0x100 EXP DUP2 SLOAD DUP2 PUSH1 0xFF MUL NOT AND SWAP1 DUP4 ISZERO ISZERO MUL OR SWAP1 SSTORE POP PUSH1 0x3 PUSH0 SWAP1 SLOAD SWAP1 PUSH2 0x100 EXP SWAP1 DIV PUSH20 0xFFFFFFFFFFFFFFFFFFFFFFFFFFFFFFFFFFFFFFFF AND PUSH20 0xFFFFFFFFFFFFFFFFFFFFFFFFFFFFFFFFFFFFFFFF AND PUSH4 0x192E7A7B CALLER PUSH1 0x40 MLOAD DUP3 PUSH4 0xFFFFFFFF AND PUSH1 0xE0 SHL DUP2 MSTORE PUSH1 0x4 ADD PUSH2 0xCD8 SWAP2 SWAP1 PUSH2 0x146E JUMP JUMPDEST PUSH0 PUSH1 0x40 MLOAD DUP1 DUP4 SUB DUP2 PUSH0 DUP8 DUP1 EXTCODESIZE ISZERO DUP1 ISZERO PUSH2 0xCEF JUMPI PUSH0 DUP1 REVERT JUMPDEST POP GAS CALL ISZERO DUP1 ISZERO PUSH2 0xD01 JUMPI RETURNDATASIZE PUSH0 DUP1 RETURNDATACOPY RETURNDATASIZE PUSH0 REVERT JUMPDEST POP POP POP POP CALLER PUSH20 0xFFFFFFFFFFFFFFFFFFFFFFFFFFFFFFFFFFFFFFFF AND PUSH32 0xC7CE0A35F17B490DE2A317E7FECB2CAE86B1ABFFB03800B2F492823521382698 DUP4 PUSH0 ADD SLOAD DUP5 PUSH1 0x3 ADD SLOAD PUSH1 0x40 MLOAD PUSH2 0xD54 SWAP3 SWAP2 SWAP1 PUSH2 0x1A19 JUMP JUMPDEST PUSH1 0x40 MLOAD DUP1 SWAP2 SUB SWAP1 LOG2 POP POP PUSH2 0xD66 PUSH2 0x12AF JUMP JUMPDEST POP JUMP JUMPDEST PUSH0 DUP2 GT PUSH2 0xDAB JUMPI PUSH1 0x40 MLOAD PUSH32 0x8C379A000000000000000000000000000000000000000000000000000000000 DUP2 MSTORE PUSH1 0x4 ADD PUSH2 0xDA2 SWAP1 PUSH2 0x1D92 JUMP JUMPDEST PUSH1 0x40 MLOAD DUP1 SWAP2 SUB SWAP1 REVERT JUMPDEST DUP1 PUSH1 0x7 DUP2 SWAP1 SSTORE POP POP JUMP JUMPDEST PUSH0 DUP2 GT PUSH2 0xDF7 JUMPI PUSH1 0x40 MLOAD PUSH32 0x8C379A000000000000000000000000000000000000000000000000000000000 DUP2 MSTORE PUSH1 0x4 ADD PUSH2 0xDEE SWAP1 PUSH2 0x1D92 JUMP JUMPDEST PUSH1 0x40 MLOAD DUP1 SWAP2 SUB SWAP1 REVERT JUMPDEST DUP1 PUSH1 0x8 DUP2 SWAP1 SSTORE POP POP JUMP JUMPDEST PUSH1 0x9 PUSH1 0x20 MSTORE DUP1 PUSH0 MSTORE PUSH1 0x40 PUSH0 KECCAK256 PUSH0 SWAP2 POP SWAP1 POP DUP1 PUSH0 ADD SLOAD SWAP1 DUP1 PUSH1 0x1 ADD SLOAD SWAP1 DUP1 PUSH1 0x2 ADD SLOAD SWAP1 DUP1 PUSH1 0x3 ADD SLOAD SWAP1 DUP1 PUSH1 0x4 ADD PUSH0 SWAP1 SLOAD SWAP1 PUSH2 0x100 EXP SWAP1 DIV PUSH1 0xFF AND SWAP1 DUP1 PUSH1 0x4 ADD PUSH1 0x1 SWAP1 SLOAD SWAP1 PUSH2 0x100 EXP SWAP1 DIV PUSH1 0xFF AND SWAP1 POP DUP7 JUMP JUMPDEST PUSH2 0xE5A PUSH2 0x126B JUMP JUMPDEST PUSH0 PUSH1 0x9 PUSH0 DUP4 PUSH20 0xFFFFFFFFFFFFFFFFFFFFFFFFFFFFFFFFFFFFFFFF AND PUSH20 0xFFFFFFFFFFFFFFFFFFFFFFFFFFFFFFFFFFFFFFFF AND DUP2 MSTORE PUSH1 0x20 ADD SWAP1 DUP2 MSTORE PUSH1 0x20 ADD PUSH0 KECCAK256 SWAP1 POP PUSH0 DUP2 PUSH0 ADD SLOAD GT PUSH2 0xEDF JUMPI PUSH1 0x40 MLOAD PUSH32 0x8C379A000000000000000000000000000000000000000000000000000000000 DUP2 MSTORE PUSH1 0x4 ADD PUSH2 0xED6 SWAP1 PUSH2 0x1B80 JUMP JUMPDEST PUSH1 0x40 MLOAD DUP1 SWAP2 SUB SWAP1 REVERT JUMPDEST DUP1 PUSH1 0x4 ADD PUSH1 0x1 SWAP1 SLOAD SWAP1 PUSH2 0x100 EXP SWAP1 DIV PUSH1 0xFF AND ISZERO PUSH2 0xF31 JUMPI PUSH1 0x40 MLOAD PUSH32 0x8C379A000000000000000000000000000000000000000000000000000000000 DUP2 MSTORE PUSH1 0x4 ADD PUSH2 0xF28 SWAP1 PUSH2 0x1E20 JUMP JUMPDEST PUSH1 0x40 MLOAD DUP1 SWAP2 SUB SWAP1 REVERT JUMPDEST PUSH1 0x8 SLOAD PUSH1 0x7 SLOAD DUP3 PUSH1 0x2 ADD SLOAD PUSH2 0xF46 SWAP2 SWAP1 PUSH2 0x1B03 JUMP JUMPDEST PUSH2 0xF50 SWAP2 SWAP1 PUSH2 0x1B03 JUMP JUMPDEST TIMESTAMP GT PUSH2 0xF91 JUMPI PUSH1 0x40 MLOAD PUSH32 0x8C379A000000000000000000000000000000000000000000000000000000000 DUP2 MSTORE PUSH1 0x4 ADD PUSH2 0xF88 SWAP1 PUSH2 0x1EAE JUMP JUMPDEST PUSH1 0x40 MLOAD DUP1 SWAP2 SUB SWAP1 REVERT JUMPDEST PUSH1 0x1 DUP2 PUSH1 0x4 ADD PUSH1 0x1 PUSH2 0x100 EXP DUP2 SLOAD DUP2 PUSH1 0xFF MUL NOT AND SWAP1 DUP4 ISZERO ISZERO MUL OR SWAP1 SSTORE POP PUSH1 0x3 PUSH0 SWAP1 SLOAD SWAP1 PUSH2 0x100 EXP SWAP1 DIV PUSH20 0xFFFFFFFFFFFFFFFFFFFFFFFFFFFFFFFFFFFFFFFF AND PUSH20 0xFFFFFFFFFFFFFFFFFFFFFFFFFFFFFFFFFFFFFFFF AND PUSH4 0x8E817EFE DUP3 PUSH1 0x3 ADD SLOAD PUSH1 0x40 MLOAD DUP3 PUSH4 0xFFFFFFFF AND PUSH1 0xE0 SHL DUP2 MSTORE PUSH1 0x4 ADD PUSH2 0x100C SWAP2 SWAP1 PUSH2 0x13DC JUMP JUMPDEST PUSH0 PUSH1 0x40 MLOAD DUP1 DUP4 SUB DUP2 PUSH0 DUP8 DUP1 EXTCODESIZE ISZERO DUP1 ISZERO PUSH2 0x1023 JUMPI PUSH0 DUP1 REVERT JUMPDEST POP GAS CALL ISZERO DUP1 ISZERO PUSH2 0x1035 JUMPI RETURNDATASIZE PUSH0 DUP1 RETURNDATACOPY RETURNDATASIZE PUSH0 REVERT JUMPDEST POP POP POP POP DUP2 PUSH20 0xFFFFFFFFFFFFFFFFFFFFFFFFFFFFFFFFFFFFFFFF AND PUSH32 0xBE253503C49F8FB02046DA3EF57BC2F5F881EB14BA5C2C26B54BF2FB4E7DB07 DUP3 PUSH1 0x3 ADD SLOAD PUSH1 0x40 MLOAD PUSH2 0x1083 SWAP2 SWAP1 PUSH2 0x13DC JUMP JUMPDEST PUSH1 0x40 MLOAD DUP1 SWAP2 SUB SWAP1 LOG2 POP PUSH2 0x1094 PUSH2 0x12AF JUMP JUMPDEST POP JUMP JUMPDEST PUSH2 0x109F PUSH2 0x1121 JUMP JUMPDEST PUSH0 PUSH20 0xFFFFFFFFFFFFFFFFFFFFFFFFFFFFFFFFFFFFFFFF AND DUP2 PUSH20 0xFFFFFFFFFFFFFFFFFFFFFFFFFFFFFFFFFFFFFFFF AND SUB PUSH2 0x110F JUMPI PUSH0 PUSH1 0x40 MLOAD PUSH32 0x1E4FBDF700000000000000000000000000000000000000000000000000000000 DUP2 MSTORE PUSH1 0x4 ADD PUSH2 0x1106 SWAP2 SWAP1 PUSH2 0x146E JUMP JUMPDEST PUSH1 0x40 MLOAD DUP1 SWAP2 SUB SWAP1 REVERT JUMPDEST PUSH2 0x1118 DUP2 PUSH2 0x11A8 JUMP JUMPDEST POP JUMP JUMPDEST PUSH1 0x7 SLOAD DUP2 JUMP JUMPDEST PUSH2 0x1129 PUSH2 0x12B8 JUMP JUMPDEST PUSH20 0xFFFFFFFFFFFFFFFFFFFFFFFFFFFFFFFFFFFFFFFF AND PUSH2 0x1147 PUSH2 0x90C JUMP JUMPDEST PUSH20 0xFFFFFFFFFFFFFFFFFFFFFFFFFFFFFFFFFFFFFFFF AND EQ PUSH2 0x11A6 JUMPI PUSH2 0x116A PUSH2 0x12B8 JUMP JUMPDEST PUSH1 0x40 MLOAD PUSH32 0x118CDAA700000000000000000000000000000000000000000000000000000000 DUP2 MSTORE PUSH1 0x4 ADD PUSH2 0x119D SWAP2 SWAP1 PUSH2 0x146E JUMP JUMPDEST PUSH1 0x40 MLOAD DUP1 SWAP2 SUB SWAP1 REVERT JUMPDEST JUMP JUMPDEST PUSH0 PUSH1 0x1 PUSH0 SWAP1 SLOAD SWAP1 PUSH2 0x100 EXP SWAP1 DIV PUSH20 0xFFFFFFFFFFFFFFFFFFFFFFFFFFFFFFFFFFFFFFFF AND SWAP1 POP DUP2 PUSH1 0x1 PUSH0 PUSH2 0x100 EXP DUP2 SLOAD DUP2 PUSH20 0xFFFFFFFFFFFFFFFFFFFFFFFFFFFFFFFFFFFFFFFF MUL NOT AND SWAP1 DUP4 PUSH20 0xFFFFFFFFFFFFFFFFFFFFFFFFFFFFFFFFFFFFFFFF AND MUL OR SWAP1 SSTORE POP DUP2 PUSH20 0xFFFFFFFFFFFFFFFFFFFFFFFFFFFFFFFFFFFFFFFF AND DUP2 PUSH20 0xFFFFFFFFFFFFFFFFFFFFFFFFFFFFFFFFFFFFFFFF AND PUSH32 0x8BE0079C531659141344CD1FD0A4F28419497F9722A3DAAFE3B4186F6B6457E0 PUSH1 0x40 MLOAD PUSH1 0x40 MLOAD DUP1 SWAP2 SUB SWAP1 LOG3 POP POP JUMP JUMPDEST PUSH1 0x2 PUSH0 SLOAD SUB PUSH2 0x12A6 JUMPI PUSH1 0x40 MLOAD PUSH32 0x3EE5AEB500000000000000000000000000000000000000000000000000000000 DUP2 MSTORE PUSH1 0x4 ADD PUSH1 0x40 MLOAD DUP1 SWAP2 SUB SWAP1 REVERT JUMPDEST PUSH1 0x2 PUSH0 DUP2 SWAP1 SSTORE POP JUMP JUMPDEST PUSH1 0x1 PUSH0 DUP2 SWAP1 SSTORE POP JUMP JUMPDEST PUSH0 CALLER SWAP1 POP SWAP1 JUMP JUMPDEST PUSH0 PUSH20 0xFFFFFFFFFFFFFFFFFFFFFFFFFFFFFFFFFFFFFFFF DUP3 AND SWAP1 POP SWAP2 SWAP1 POP JUMP JUMPDEST PUSH0 DUP2 SWAP1 POP SWAP2 SWAP1 POP JUMP JUMPDEST PUSH0 PUSH2 0x1301 PUSH2 0x12FC PUSH2 0x12F7 DUP5 PUSH2 0x12BF JUMP JUMPDEST PUSH2 0x12DE JUMP JUMPDEST PUSH2 0x12BF JUMP JUMPDEST SWAP1 POP SWAP2 SWAP1 POP JUMP JUMPDEST PUSH0 PUSH2 0x1312 DUP3 PUSH2 0x12E7 JUMP JUMPDEST SWAP1 POP SWAP2 SWAP1 POP JUMP JUMPDEST PUSH0 PUSH2 0x1323 DUP3 PUSH2 0x1308 JUMP JUMPDEST SWAP1 POP SWAP2 SWAP1 POP JUMP JUMPDEST PUSH2 0x1333 DUP2 PUSH2 0x1319 JUMP JUMPDEST DUP3 MSTORE POP POP JUMP JUMPDEST PUSH0 PUSH1 0x20 DUP3 ADD SWAP1 POP PUSH2 0x134C PUSH0 DUP4 ADD DUP5 PUSH2 0x132A JUMP JUMPDEST SWAP3 SWAP2 POP POP JUMP JUMPDEST PUSH0 PUSH2 0x135C DUP3 PUSH2 0x1308 JUMP JUMPDEST SWAP1 POP SWAP2 SWAP1 POP JUMP JUMPDEST PUSH2 0x136C DUP2 PUSH2 0x1352 JUMP JUMPDEST DUP3 MSTORE POP POP JUMP JUMPDEST PUSH0 PUSH1 0x20 DUP3 ADD SWAP1 POP PUSH2 0x1385 PUSH0 DUP4 ADD DUP5 PUSH2 0x1363 JUMP JUMPDEST SWAP3 SWAP2 POP POP JUMP JUMPDEST PUSH0 PUSH2 0x1395 DUP3 PUSH2 0x1308 JUMP JUMPDEST SWAP1 POP SWAP2 SWAP1 POP JUMP JUMPDEST PUSH2 0x13A5 DUP2 PUSH2 0x138B JUMP JUMPDEST DUP3 MSTORE POP POP JUMP JUMPDEST PUSH0 PUSH1 0x20 DUP3 ADD SWAP1 POP PUSH2 0x13BE PUSH0 DUP4 ADD DUP5 PUSH2 0x139C JUMP JUMPDEST SWAP3 SWAP2 POP POP JUMP JUMPDEST PUSH0 DUP2 SWAP1 POP SWAP2 SWAP1 POP JUMP JUMPDEST PUSH2 0x13D6 DUP2 PUSH2 0x13C4 JUMP JUMPDEST DUP3 MSTORE POP POP JUMP JUMPDEST PUSH0 PUSH1 0x20 DUP3 ADD SWAP1 POP PUSH2 0x13EF PUSH0 DUP4 ADD DUP5 PUSH2 0x13CD JUMP JUMPDEST SWAP3 SWAP2 POP POP JUMP JUMPDEST PUSH0 DUP1 REVERT JUMPDEST PUSH2 0x1402 DUP2 PUSH2 0x13C4 JUMP JUMPDEST DUP2 EQ PUSH2 0x140C JUMPI PUSH0 DUP1 REVERT JUMPDEST POP JUMP JUMPDEST PUSH0 DUP2 CALLDATALOAD SWAP1 POP PUSH2 0x141D DUP2 PUSH2 0x13F9 JUMP JUMPDEST SWAP3 SWAP2 POP POP JUMP JUMPDEST PUSH0 PUSH1 0x20 DUP3 DUP5 SUB SLT ISZERO PUSH2 0x1438 JUMPI PUSH2 0x1437 PUSH2 0x13F5 JUMP JUMPDEST JUMPDEST PUSH0 PUSH2 0x1445 DUP5 DUP3 DUP6 ADD PUSH2 0x140F JUMP JUMPDEST SWAP2 POP POP SWAP3 SWAP2 POP POP JUMP JUMPDEST PUSH0 PUSH2 0x1458 DUP3 PUSH2 0x12BF JUMP JUMPDEST SWAP1 POP SWAP2 SWAP1 POP JUMP JUMPDEST PUSH2 0x1468 DUP2 PUSH2 0x144E JUMP JUMPDEST DUP3 MSTORE POP POP JUMP JUMPDEST PUSH0 PUSH1 0x20 DUP3 ADD SWAP1 POP PUSH2 0x1481 PUSH0 DUP4 ADD DUP5 PUSH2 0x145F JUMP JUMPDEST SWAP3 SWAP2 POP POP JUMP JUMPDEST PUSH2 0x1490 DUP2 PUSH2 0x144E JUMP JUMPDEST DUP2 EQ PUSH2 0x149A JUMPI PUSH0 DUP1 REVERT JUMPDEST POP JUMP JUMPDEST PUSH0 DUP2 CALLDATALOAD SWAP1 POP PUSH2 0x14AB DUP2 PUSH2 0x1487 JUMP JUMPDEST SWAP3 SWAP2 POP POP JUMP JUMPDEST PUSH0 PUSH1 0x20 DUP3 DUP5 SUB SLT ISZERO PUSH2 0x14C6 JUMPI PUSH2 0x14C5 PUSH2 0x13F5 JUMP JUMPDEST JUMPDEST PUSH0 PUSH2 0x14D3 DUP5 DUP3 DUP6 ADD PUSH2 0x149D JUMP JUMPDEST SWAP2 POP POP SWAP3 SWAP2 POP POP JUMP JUMPDEST PUSH0 DUP2 ISZERO ISZERO SWAP1 POP SWAP2 SWAP1 POP JUMP JUMPDEST PUSH2 0x14F0 DUP2 PUSH2 0x14DC JUMP JUMPDEST DUP3 MSTORE POP POP JUMP JUMPDEST PUSH0 PUSH1 0xC0 DUP3 ADD SWAP1 POP PUSH2 0x1509 PUSH0 DUP4 ADD DUP10 PUSH2 0x13CD JUMP JUMPDEST PUSH2 0x1516 PUSH1 0x20 DUP4 ADD DUP9 PUSH2 0x13CD JUMP JUMPDEST PUSH2 0x1523 PUSH1 0x40 DUP4 ADD DUP8 PUSH2 0x13CD JUMP JUMPDEST PUSH2 0x1530 PUSH1 0x60 DUP4 ADD DUP7 PUSH2 0x13CD JUMP JUMPDEST PUSH2 0x153D PUSH1 0x80 DUP4 ADD DUP6 PUSH2 0x14E7 JUMP JUMPDEST PUSH2 0x154A PUSH1 0xA0 DUP4 ADD DUP5 PUSH2 0x14E7 JUMP JUMPDEST SWAP8 SWAP7 POP POP POP POP POP POP POP JUMP JUMPDEST PUSH0 DUP3 DUP3 MSTORE PUSH1 0x20 DUP3 ADD SWAP1 POP SWAP3 SWAP2 POP POP JUMP JUMPDEST PUSH32 0x4C6F616E4D616E616765723A20496E76616C696420726174696F000000000000 PUSH0 DUP3 ADD MSTORE POP JUMP JUMPDEST PUSH0 PUSH2 0x1599 PUSH1 0x1A DUP4 PUSH2 0x1555 JUMP JUMPDEST SWAP2 POP PUSH2 0x15A4 DUP3 PUSH2 0x1565 JUMP JUMPDEST PUSH1 0x20 DUP3 ADD SWAP1 POP SWAP2 SWAP1 POP JUMP JUMPDEST PUSH0 PUSH1 0x20 DUP3 ADD SWAP1 POP DUP2 DUP2 SUB PUSH0 DUP4 ADD MSTORE PUSH2 0x15C6 DUP2 PUSH2 0x158D JUMP JUMPDEST SWAP1 POP SWAP2 SWAP1 POP JUMP JUMPDEST PUSH0 DUP2 MLOAD SWAP1 POP PUSH2 0x15DB DUP2 PUSH2 0x13F9 JUMP JUMPDEST SWAP3 SWAP2 POP POP JUMP JUMPDEST PUSH0 PUSH1 0x20 DUP3 DUP5 SUB SLT ISZERO PUSH2 0x15F6 JUMPI PUSH2 0x15F5 PUSH2 0x13F5 JUMP JUMPDEST JUMPDEST PUSH0 PUSH2 0x1603 DUP5 DUP3 DUP6 ADD PUSH2 0x15CD JUMP JUMPDEST SWAP2 POP POP SWAP3 SWAP2 POP POP JUMP JUMPDEST PUSH32 0x4E487B7100000000000000000000000000000000000000000000000000000000 PUSH0 MSTORE PUSH1 0x11 PUSH1 0x4 MSTORE PUSH1 0x24 PUSH0 REVERT JUMPDEST PUSH0 PUSH2 0x1643 DUP3 PUSH2 0x13C4 JUMP JUMPDEST SWAP2 POP PUSH2 0x164E DUP4 PUSH2 0x13C4 JUMP JUMPDEST SWAP3 POP DUP3 DUP3 MUL PUSH2 0x165C DUP2 PUSH2 0x13C4 JUMP JUMPDEST SWAP2 POP DUP3 DUP3 DIV DUP5 EQ DUP4 ISZERO OR PUSH2 0x1673 JUMPI PUSH2 0x1672 PUSH2 0x160C JUMP JUMPDEST JUMPDEST POP SWAP3 SWAP2 POP POP JUMP JUMPDEST PUSH32 0x4E487B7100000000000000000000000000000000000000000000000000000000 PUSH0 MSTORE PUSH1 0x12 PUSH1 0x4 MSTORE PUSH1 0x24 PUSH0 REVERT JUMPDEST PUSH0 PUSH2 0x16B1 DUP3 PUSH2 0x13C4 JUMP JUMPDEST SWAP2 POP PUSH2 0x16BC DUP4 PUSH2 0x13C4 JUMP JUMPDEST SWAP3 POP DUP3 PUSH2 0x16CC JUMPI PUSH2 0x16CB PUSH2 0x167A JUMP JUMPDEST JUMPDEST DUP3 DUP3 DIV SWAP1 POP SWAP3 SWAP2 POP POP JUMP JUMPDEST PUSH32 0x4C6F616E4D616E616765723A204C6F616E20616D6F756E74206D757374206265 PUSH0 DUP3 ADD MSTORE PUSH32 0x2067726561746572207468616E20300000000000000000000000000000000000 PUSH1 0x20 DUP3 ADD MSTORE POP JUMP JUMPDEST PUSH0 PUSH2 0x1731 PUSH1 0x2F DUP4 PUSH2 0x1555 JUMP JUMPDEST SWAP2 POP PUSH2 0x173C DUP3 PUSH2 0x16D7 JUMP JUMPDEST PUSH1 0x40 DUP3 ADD SWAP1 POP SWAP2 SWAP1 POP JUMP JUMPDEST PUSH0 PUSH1 0x20 DUP3 ADD SWAP1 POP DUP2 DUP2 SUB PUSH0 DUP4 ADD MSTORE PUSH2 0x175E DUP2 PUSH2 0x1725 JUMP JUMPDEST SWAP1 POP SWAP2 SWAP1 POP JUMP JUMPDEST PUSH32 0x4C6F616E4D616E616765723A204578697374696E67206C6F616E206D75737420 PUSH0 DUP3 ADD MSTORE PUSH32 0x6265207265706169642066697273740000000000000000000000000000000000 PUSH1 0x20 DUP3 ADD MSTORE POP JUMP JUMPDEST PUSH0 PUSH2 0x17BF PUSH1 0x2F DUP4 PUSH2 0x1555 JUMP JUMPDEST SWAP2 POP PUSH2 0x17CA DUP3 PUSH2 0x1765 JUMP JUMPDEST PUSH1 0x40 DUP3 ADD SWAP1 POP SWAP2 SWAP1 POP JUMP JUMPDEST PUSH0 PUSH1 0x20 DUP3 ADD SWAP1 POP DUP2 DUP2 SUB PUSH0 DUP4 ADD MSTORE PUSH2 0x17EC DUP2 PUSH2 0x17B3 JUMP JUMPDEST SWAP1 POP SWAP2 SWAP1 POP JUMP JUMPDEST PUSH32 0x4C6F616E4D616E616765723A204E6F20636F6C6C61746572616C20617661696C PUSH0 DUP3 ADD MSTORE PUSH32 0x61626C6500000000000000000000000000000000000000000000000000000000 PUSH1 0x20 DUP3 ADD MSTORE POP JUMP JUMPDEST PUSH0 PUSH2 0x184D PUSH1 0x24 DUP4 PUSH2 0x1555 JUMP JUMPDEST SWAP2 POP PUSH2 0x1858 DUP3 PUSH2 0x17F3 JUMP JUMPDEST PUSH1 0x40 DUP3 ADD SWAP1 POP SWAP2 SWAP1 POP JUMP JUMPDEST PUSH0 PUSH1 0x20 DUP3 ADD SWAP1 POP DUP2 DUP2 SUB PUSH0 DUP4 ADD MSTORE PUSH2 0x187A DUP2 PUSH2 0x1841 JUMP JUMPDEST SWAP1 POP SWAP2 SWAP1 POP JUMP JUMPDEST PUSH32 0x4C6F616E4D616E616765723A20496E73756666696369656E7420636F6C6C6174 PUSH0 DUP3 ADD MSTORE PUSH32 0x6572616C20666F7220726571756573746564206C6F616E20616D6F756E740000 PUSH1 0x20 DUP3 ADD MSTORE POP JUMP JUMPDEST PUSH0 PUSH2 0x18DB PUSH1 0x3E DUP4 PUSH2 0x1555 JUMP JUMPDEST SWAP2 POP PUSH2 0x18E6 DUP3 PUSH2 0x1881 JUMP JUMPDEST PUSH1 0x40 DUP3 ADD SWAP1 POP SWAP2 SWAP1 POP JUMP JUMPDEST PUSH0 PUSH1 0x20 DUP3 ADD SWAP1 POP DUP2 DUP2 SUB PUSH0 DUP4 ADD MSTORE PUSH2 0x1908 DUP2 PUSH2 0x18CF JUMP JUMPDEST SWAP1 POP SWAP2 SWAP1 POP JUMP JUMPDEST PUSH0 PUSH1 0x40 DUP3 ADD SWAP1 POP PUSH2 0x1922 PUSH0 DUP4 ADD DUP6 PUSH2 0x145F JUMP JUMPDEST PUSH2 0x192F PUSH1 0x20 DUP4 ADD DUP5 PUSH2 0x13CD JUMP JUMPDEST SWAP4 SWAP3 POP POP POP JUMP JUMPDEST PUSH2 0x193F DUP2 PUSH2 0x14DC JUMP JUMPDEST DUP2 EQ PUSH2 0x1949 JUMPI PUSH0 DUP1 REVERT JUMPDEST POP JUMP JUMPDEST PUSH0 DUP2 MLOAD SWAP1 POP PUSH2 0x195A DUP2 PUSH2 0x1936 JUMP JUMPDEST SWAP3 SWAP2 POP POP JUMP JUMPDEST PUSH0 PUSH1 0x20 DUP3 DUP5 SUB SLT ISZERO PUSH2 0x1975 JUMPI PUSH2 0x1974 PUSH2 0x13F5 JUMP JUMPDEST JUMPDEST PUSH0 PUSH2 0x1982 DUP5 DUP3 DUP6 ADD PUSH2 0x194C JUMP JUMPDEST SWAP2 POP POP SWAP3 SWAP2 POP POP JUMP JUMPDEST PUSH32 0x4C6F616E4D616E616765723A204C6F616E207472616E73666572206661696C65 PUSH0 DUP3 ADD MSTORE PUSH32 0x6400000000000000000000000000000000000000000000000000000000000000 PUSH1 0x20 DUP3 ADD MSTORE POP JUMP JUMPDEST PUSH0 PUSH2 0x19E5 PUSH1 0x21 DUP4 PUSH2 0x1555 JUMP JUMPDEST SWAP2 POP PUSH2 0x19F0 DUP3 PUSH2 0x198B JUMP JUMPDEST PUSH1 0x40 DUP3 ADD SWAP1 POP SWAP2 SWAP1 POP JUMP JUMPDEST PUSH0 PUSH1 0x20 DUP3 ADD SWAP1 POP DUP2 DUP2 SUB PUSH0 DUP4 ADD MSTORE PUSH2 0x1A12 DUP2 PUSH2 0x19D9 JUMP JUMPDEST SWAP1 POP SWAP2 SWAP1 POP JUMP JUMPDEST PUSH0 PUSH1 0x40 DUP3 ADD SWAP1 POP PUSH2 0x1A2C PUSH0 DUP4 ADD DUP6 PUSH2 0x13CD JUMP JUMPDEST PUSH2 0x1A39 PUSH1 0x20 DUP4 ADD DUP5 PUSH2 0x13CD JUMP JUMPDEST SWAP4 SWAP3 POP POP POP JUMP JUMPDEST PUSH0 PUSH1 0x60 DUP3 ADD SWAP1 POP PUSH2 0x1A53 PUSH0 DUP4 ADD DUP7 PUSH2 0x145F JUMP JUMPDEST PUSH2 0x1A60 PUSH1 0x20 DUP4 ADD DUP6 PUSH2 0x145F JUMP JUMPDEST PUSH2 0x1A6D PUSH1 0x40 DUP4 ADD DUP5 PUSH2 0x13CD JUMP JUMPDEST SWAP5 SWAP4 POP POP POP POP JUMP JUMPDEST PUSH32 0x4C6F616E4D616E616765723A2046756E64207472616E73666572206661696C65 PUSH0 DUP3 ADD MSTORE PUSH32 0x6400000000000000000000000000000000000000000000000000000000000000 PUSH1 0x20 DUP3 ADD MSTORE POP JUMP JUMPDEST PUSH0 PUSH2 0x1ACF PUSH1 0x21 DUP4 PUSH2 0x1555 JUMP JUMPDEST SWAP2 POP PUSH2 0x1ADA DUP3 PUSH2 0x1A75 JUMP JUMPDEST PUSH1 0x40 DUP3 ADD SWAP1 POP SWAP2 SWAP1 POP JUMP JUMPDEST PUSH0 PUSH1 0x20 DUP3 ADD SWAP1 POP DUP2 DUP2 SUB PUSH0 DUP4 ADD MSTORE PUSH2 0x1AFC DUP2 PUSH2 0x1AC3 JUMP JUMPDEST SWAP1 POP SWAP2 SWAP1 POP JUMP JUMPDEST PUSH0 PUSH2 0x1B0D DUP3 PUSH2 0x13C4 JUMP JUMPDEST SWAP2 POP PUSH2 0x1B18 DUP4 PUSH2 0x13C4 JUMP JUMPDEST SWAP3 POP DUP3 DUP3 ADD SWAP1 POP DUP1 DUP3 GT ISZERO PUSH2 0x1B30 JUMPI PUSH2 0x1B2F PUSH2 0x160C JUMP JUMPDEST JUMPDEST SWAP3 SWAP2 POP POP JUMP JUMPDEST PUSH32 0x4C6F616E4D616E616765723A204E6F20616374697665206C6F616E0000000000 PUSH0 DUP3 ADD MSTORE POP JUMP JUMPDEST PUSH0 PUSH2 0x1B6A PUSH1 0x1B DUP4 PUSH2 0x1555 JUMP JUMPDEST SWAP2 POP PUSH2 0x1B75 DUP3 PUSH2 0x1B36 JUMP JUMPDEST PUSH1 0x20 DUP3 ADD SWAP1 POP SWAP2 SWAP1 POP JUMP JUMPDEST PUSH0 PUSH1 0x20 DUP3 ADD SWAP1 POP DUP2 DUP2 SUB PUSH0 DUP4 ADD MSTORE PUSH2 0x1B97 DUP2 PUSH2 0x1B5E JUMP JUMPDEST SWAP1 POP SWAP2 SWAP1 POP JUMP JUMPDEST PUSH32 0x4C6F616E4D616E616765723A204C6F616E20697320616C726561647920726570 PUSH0 DUP3 ADD MSTORE PUSH32 0x6169640000000000000000000000000000000000000000000000000000000000 PUSH1 0x20 DUP3 ADD MSTORE POP JUMP JUMPDEST PUSH0 PUSH2 0x1BF8 PUSH1 0x23 DUP4 PUSH2 0x1555 JUMP JUMPDEST SWAP2 POP PUSH2 0x1C03 DUP3 PUSH2 0x1B9E JUMP JUMPDEST PUSH1 0x40 DUP3 ADD SWAP1 POP SWAP2 SWAP1 POP JUMP JUMPDEST PUSH0 PUSH1 0x20 DUP3 ADD SWAP1 POP DUP2 DUP2 SUB PUSH0 DUP4 ADD MSTORE PUSH2 0x1C25 DUP2 PUSH2 0x1BEC JUMP JUMPDEST SWAP1 POP SWAP2 SWAP1 POP JUMP JUMPDEST PUSH32 0x4C6F616E4D616E616765723A20496E73756666696369656E742072657061796D PUSH0 DUP3 ADD MSTORE PUSH32 0x656E7420616D6F756E7400000000000000000000000000000000000000000000 PUSH1 0x20 DUP3 ADD MSTORE POP JUMP JUMPDEST PUSH0 PUSH2 0x1C86 PUSH1 0x2A DUP4 PUSH2 0x1555 JUMP JUMPDEST SWAP2 POP PUSH2 0x1C91 DUP3 PUSH2 0x1C2C JUMP JUMPDEST PUSH1 0x40 DUP3 ADD SWAP1 POP SWAP2 SWAP1 POP JUMP JUMPDEST PUSH0 PUSH1 0x20 DUP3 ADD SWAP1 POP DUP2 DUP2 SUB PUSH0 DUP4 ADD MSTORE PUSH2 0x1CB3 DUP2 PUSH2 0x1C7A JUMP JUMPDEST SWAP1 POP SWAP2 SWAP1 POP JUMP JUMPDEST PUSH32 0x4C6F616E4D616E616765723A2052657061796D656E74207472616E7366657220 PUSH0 DUP3 ADD MSTORE PUSH32 0x6661696C65640000000000000000000000000000000000000000000000000000 PUSH1 0x20 DUP3 ADD MSTORE POP JUMP JUMPDEST PUSH0 PUSH2 0x1D14 PUSH1 0x26 DUP4 PUSH2 0x1555 JUMP JUMPDEST SWAP2 POP PUSH2 0x1D1F DUP3 PUSH2 0x1CBA JUMP JUMPDEST PUSH1 0x40 DUP3 ADD SWAP1 POP SWAP2 SWAP1 POP JUMP JUMPDEST PUSH0 PUSH1 0x20 DUP3 ADD SWAP1 POP DUP2 DUP2 SUB PUSH0 DUP4 ADD MSTORE PUSH2 0x1D41 DUP2 PUSH2 0x1D08 JUMP JUMPDEST SWAP1 POP SWAP2 SWAP1 POP JUMP JUMPDEST PUSH32 0x4C6F616E4D616E616765723A20496E76616C6964206475726174696F6E000000 PUSH0 DUP3 ADD MSTORE POP JUMP JUMPDEST PUSH0 PUSH2 0x1D7C PUSH1 0x1D DUP4 PUSH2 0x1555 JUMP JUMPDEST SWAP2 POP PUSH2 0x1D87 DUP3 PUSH2 0x1D48 JUMP JUMPDEST PUSH1 0x20 DUP3 ADD SWAP1 POP SWAP2 SWAP1 POP JUMP JUMPDEST PUSH0 PUSH1 0x20 DUP3 ADD SWAP1 POP DUP2 DUP2 SUB PUSH0 DUP4 ADD MSTORE PUSH2 0x1DA9 DUP2 PUSH2 0x1D70 JUMP JUMPDEST SWAP1 POP SWAP2 SWAP1 POP JUMP JUMPDEST PUSH32 0x4C6F616E4D616E616765723A204C6F616E20616C72656164792064656661756C PUSH0 DUP3 ADD MSTORE PUSH32 0x7465640000000000000000000000000000000000000000000000000000000000 PUSH1 0x20 DUP3 ADD MSTORE POP JUMP JUMPDEST PUSH0 PUSH2 0x1E0A PUSH1 0x23 DUP4 PUSH2 0x1555 JUMP JUMPDEST SWAP2 POP PUSH2 0x1E15 DUP3 PUSH2 0x1DB0 JUMP JUMPDEST PUSH1 0x40 DUP3 ADD SWAP1 POP SWAP2 SWAP1 POP JUMP JUMPDEST PUSH0 PUSH1 0x20 DUP3 ADD SWAP1 POP DUP2 DUP2 SUB PUSH0 DUP4 ADD MSTORE PUSH2 0x1E37 DUP2 PUSH2 0x1DFE JUMP JUMPDEST SWAP1 POP SWAP2 SWAP1 POP JUMP JUMPDEST PUSH32 0x4C6F616E4D616E616765723A204C6F616E206E6F742064656661756C74656420 PUSH0 DUP3 ADD MSTORE PUSH32 0x7965740000000000000000000000000000000000000000000000000000000000 PUSH1 0x20 DUP3 ADD MSTORE POP JUMP JUMPDEST PUSH0 PUSH2 0x1E98 PUSH1 0x23 DUP4 PUSH2 0x1555 JUMP JUMPDEST SWAP2 POP PUSH2 0x1EA3 DUP3 PUSH2 0x1E3E JUMP JUMPDEST PUSH1 0x40 DUP3 ADD SWAP1 POP SWAP2 SWAP1 POP JUMP JUMPDEST PUSH0 PUSH1 0x20 DUP3 ADD SWAP1 POP DUP2 DUP2 SUB PUSH0 DUP4 ADD MSTORE PUSH2 0x1EC5 DUP2 PUSH2 0x1E8C JUMP JUMPDEST SWAP1 POP SWAP2 SWAP1 POP JUMP INVALID LOG2 PUSH5 0x6970667358 0x22 SLT KECCAK256 SHL PREVRANDAO PUSH25 0x24B89FB8E71568547E98AD21ACD5C373CE790BA5D0CAD91F2C PUSH6 0xAD54E864736F PUSH13 0x63430008140033000000000000 "
		},
		"gasEstimates": {
			"creation": {
				"codeDepositCost": "1587600",
				"executionCost": "infinite",
				"totalCost": "infinite"
			},
			"external": {
				"addFundToPool(uint256)": "infinite",
				"cUSDToken()": "infinite",
				"checkDefault(address)": "infinite",
				"collateralManager()": "infinite",
				"collateralToLoanRatio()": "2492",
				"defaultDuration()": "2515",
				"fundPool()": "2514",
				"getMaxLoanAmount()": "infinite",
				"loanDuration()": "2535",
				"owner()": "2560",
				"priceOracle()": "infinite",
				"renounceOwnership()": "infinite",
				"repayLoan(uint256)": "infinite",
				"requestLoan(uint256)": "infinite",
				"transferOwnership(address)": "infinite",
				"updateCollateralToLoanRatio(uint256)": "22564",
				"updateDefaultDuration(uint256)": "22559",
				"updateLoanDuration(uint256)": "22648",
				"userLoans(address)": "infinite"
			}
		},
		"methodIdentifiers": {
			"addFundToPool(uint256)": "97ed71eb",
			"cUSDToken()": "0ea86ad8",
			"checkDefault(address)": "ebbb7de9",
			"collateralManager()": "23be345c",
			"collateralToLoanRatio()": "688aef48",
			"defaultDuration()": "2af7e2ea",
			"fundPool()": "70f37d27",
			"getMaxLoanAmount()": "656f9ba4",
			"loanDuration()": "f5521bf1",
			"owner()": "8da5cb5b",
			"priceOracle()": "2630c12f",
			"renounceOwnership()": "715018a6",
			"repayLoan(uint256)": "ab7b1c89",
			"requestLoan(uint256)": "8d5d3429",
			"transferOwnership(address)": "f2fde38b",
			"updateCollateralToLoanRatio(uint256)": "650dfa18",
			"updateDefaultDuration(uint256)": "c000bc60",
			"updateLoanDuration(uint256)": "ba43a922",
			"userLoans(address)": "e9e190a3"
		}
	},
	"abi": [
		{
			"inputs": [
				{
					"internalType": "contract ERC20",
					"name": "_cUSDToken",
					"type": "address"
				},
				{
					"internalType": "address",
					"name": "_collateralManager",
					"type": "address"
				},
				{
					"internalType": "address",
					"name": "_priceOracle",
					"type": "address"
				}
			],
			"stateMutability": "nonpayable",
			"type": "constructor"
		},
		{
			"inputs": [
				{
					"internalType": "address",
					"name": "owner",
					"type": "address"
				}
			],
			"name": "OwnableInvalidOwner",
			"type": "error"
		},
		{
			"inputs": [
				{
					"internalType": "address",
					"name": "account",
					"type": "address"
				}
			],
			"name": "OwnableUnauthorizedAccount",
			"type": "error"
		},
		{
			"inputs": [],
			"name": "ReentrancyGuardReentrantCall",
			"type": "error"
		},
		{
			"anonymous": false,
			"inputs": [
				{
					"indexed": true,
					"internalType": "address",
					"name": "user",
					"type": "address"
				},
				{
					"indexed": false,
					"internalType": "uint256",
					"name": "collateralLiquidated",
					"type": "uint256"
				}
			],
			"name": "LoanDefaulted",
			"type": "event"
		},
		{
			"anonymous": false,
			"inputs": [
				{
					"indexed": true,
					"internalType": "address",
					"name": "user",
					"type": "address"
				},
				{
					"indexed": false,
					"internalType": "uint256",
					"name": "amount",
					"type": "uint256"
				},
				{
					"indexed": false,
					"internalType": "uint256",
					"name": "collateral",
					"type": "uint256"
				}
			],
			"name": "LoanIssued",
			"type": "event"
		},
		{
			"anonymous": false,
			"inputs": [
				{
					"indexed": true,
					"internalType": "address",
					"name": "user",
					"type": "address"
				},
				{
					"indexed": false,
					"internalType": "uint256",
					"name": "amount",
					"type": "uint256"
				},
				{
					"indexed": false,
					"internalType": "uint256",
					"name": "collateralReturned",
					"type": "uint256"
				}
			],
			"name": "LoanRepaid",
			"type": "event"
		},
		{
			"anonymous": false,
			"inputs": [
				{
					"indexed": true,
					"internalType": "address",
					"name": "previousOwner",
					"type": "address"
				},
				{
					"indexed": true,
					"internalType": "address",
					"name": "newOwner",
					"type": "address"
				}
			],
			"name": "OwnershipTransferred",
			"type": "event"
		},
		{
			"inputs": [
				{
					"internalType": "uint256",
					"name": "_amount",
					"type": "uint256"
				}
			],
			"name": "addFundToPool",
			"outputs": [],
			"stateMutability": "nonpayable",
			"type": "function"
		},
		{
			"inputs": [],
			"name": "cUSDToken",
			"outputs": [
				{
					"internalType": "contract ERC20",
					"name": "",
					"type": "address"
				}
			],
			"stateMutability": "view",
			"type": "function"
		},
		{
			"inputs": [
				{
					"internalType": "address",
					"name": "_user",
					"type": "address"
				}
			],
			"name": "checkDefault",
			"outputs": [],
			"stateMutability": "nonpayable",
			"type": "function"
		},
		{
			"inputs": [],
			"name": "collateralManager",
			"outputs": [
				{
					"internalType": "contract CollateralManager",
					"name": "",
					"type": "address"
				}
			],
			"stateMutability": "view",
			"type": "function"
		},
		{
			"inputs": [],
			"name": "collateralToLoanRatio",
			"outputs": [
				{
					"internalType": "uint256",
					"name": "",
					"type": "uint256"
				}
			],
			"stateMutability": "view",
			"type": "function"
		},
		{
			"inputs": [],
			"name": "defaultDuration",
			"outputs": [
				{
					"internalType": "uint256",
					"name": "",
					"type": "uint256"
				}
			],
			"stateMutability": "view",
			"type": "function"
		},
		{
			"inputs": [],
			"name": "fundPool",
			"outputs": [
				{
					"internalType": "uint256",
					"name": "",
					"type": "uint256"
				}
			],
			"stateMutability": "view",
			"type": "function"
		},
		{
			"inputs": [],
			"name": "getMaxLoanAmount",
			"outputs": [
				{
					"internalType": "uint256",
					"name": "",
					"type": "uint256"
				}
			],
			"stateMutability": "view",
			"type": "function"
		},
		{
			"inputs": [],
			"name": "loanDuration",
			"outputs": [
				{
					"internalType": "uint256",
					"name": "",
					"type": "uint256"
				}
			],
			"stateMutability": "view",
			"type": "function"
		},
		{
			"inputs": [],
			"name": "owner",
			"outputs": [
				{
					"internalType": "address",
					"name": "",
					"type": "address"
				}
			],
			"stateMutability": "view",
			"type": "function"
		},
		{
			"inputs": [],
			"name": "priceOracle",
			"outputs": [
				{
					"internalType": "contract MellowFiPriceOracle",
					"name": "",
					"type": "address"
				}
			],
			"stateMutability": "view",
			"type": "function"
		},
		{
			"inputs": [],
			"name": "renounceOwnership",
			"outputs": [],
			"stateMutability": "nonpayable",
			"type": "function"
		},
		{
			"inputs": [
				{
					"internalType": "uint256",
					"name": "_repayAmount",
					"type": "uint256"
				}
			],
			"name": "repayLoan",
			"outputs": [],
			"stateMutability": "nonpayable",
			"type": "function"
		},
		{
			"inputs": [
				{
					"internalType": "uint256",
					"name": "_loanAmount",
					"type": "uint256"
				}
			],
			"name": "requestLoan",
			"outputs": [],
			"stateMutability": "nonpayable",
			"type": "function"
		},
		{
			"inputs": [
				{
					"internalType": "address",
					"name": "newOwner",
					"type": "address"
				}
			],
			"name": "transferOwnership",
			"outputs": [],
			"stateMutability": "nonpayable",
			"type": "function"
		},
		{
			"inputs": [
				{
					"internalType": "uint256",
					"name": "_newRatio",
					"type": "uint256"
				}
			],
			"name": "updateCollateralToLoanRatio",
			"outputs": [],
			"stateMutability": "nonpayable",
			"type": "function"
		},
		{
			"inputs": [
				{
					"internalType": "uint256",
					"name": "_newDuration",
					"type": "uint256"
				}
			],
			"name": "updateDefaultDuration",
			"outputs": [],
			"stateMutability": "nonpayable",
			"type": "function"
		},
		{
			"inputs": [
				{
					"internalType": "uint256",
					"name": "_newDuration",
					"type": "uint256"
				}
			],
			"name": "updateLoanDuration",
			"outputs": [],
			"stateMutability": "nonpayable",
			"type": "function"
		},
		{
			"inputs": [
				{
					"internalType": "address",
					"name": "",
					"type": "address"
				}
			],
			"name": "userLoans",
			"outputs": [
				{
					"internalType": "uint256",
					"name": "amount",
					"type": "uint256"
				},
				{
					"internalType": "uint256",
					"name": "interestRate",
					"type": "uint256"
				},
				{
					"internalType": "uint256",
					"name": "startTime",
					"type": "uint256"
				},
				{
					"internalType": "uint256",
					"name": "collateral",
					"type": "uint256"
				},
				{
					"internalType": "bool",
					"name": "isRepaid",
					"type": "bool"
				},
				{
					"internalType": "bool",
					"name": "isDefaulted",
					"type": "bool"
				}
			],
			"stateMutability": "view",
			"type": "function"
		}
	]
}