{
  "_format": "hh-sol-artifact-1",
  "contractName": "CollateralManager",
  "sourceName": "contracts/CollateralManager.sol",
  "abi": [
    {
      "inputs": [
        {
          "internalType": "contract ERC20",
          "name": "_collateralToken",
          "type": "address"
        }
      ],
      "stateMutability": "nonpayable",
      "type": "constructor"
    },
    {
      "inputs": [],
      "name": "EnforcedPause",
      "type": "error"
    },
    {
      "inputs": [],
      "name": "ExpectedPause",
      "type": "error"
    },
    {
      "inputs": [
        {
          "internalType": "address",
          "name": "owner",
          "type": "address"
        }
      ],
      "name": "OwnableInvalidOwner",
      "type": "error"
    },
    {
      "inputs": [
        {
          "internalType": "address",
          "name": "account",
          "type": "address"
        }
      ],
      "name": "OwnableUnauthorizedAccount",
      "type": "error"
    },
    {
      "inputs": [],
      "name": "ReentrancyGuardReentrantCall",
      "type": "error"
    },
    {
      "anonymous": false,
      "inputs": [
        {
          "indexed": true,
          "internalType": "address",
          "name": "user",
          "type": "address"
        },
        {
          "indexed": false,
          "internalType": "uint256",
          "name": "amount",
          "type": "uint256"
        }
      ],
      "name": "CeloCollateralDeposited",
      "type": "event"
    },
    {
      "anonymous": false,
      "inputs": [
        {
          "indexed": true,
          "internalType": "address",
          "name": "user",
          "type": "address"
        },
        {
          "indexed": false,
          "internalType": "uint256",
          "name": "amount",
          "type": "uint256"
        }
      ],
      "name": "CeloCollateralWithdrawn",
      "type": "event"
    },
    {
      "anonymous": false,
      "inputs": [
        {
          "indexed": true,
          "internalType": "address",
          "name": "previousOwner",
          "type": "address"
        },
        {
          "indexed": true,
          "internalType": "address",
          "name": "newOwner",
          "type": "address"
        }
      ],
      "name": "OwnershipTransferred",
      "type": "event"
    },
    {
      "anonymous": false,
      "inputs": [
        {
          "indexed": false,
          "internalType": "address",
          "name": "account",
          "type": "address"
        }
      ],
      "name": "Paused",
      "type": "event"
    },
    {
      "anonymous": false,
      "inputs": [
        {
          "indexed": false,
          "internalType": "address",
          "name": "account",
          "type": "address"
        }
      ],
      "name": "Unpaused",
      "type": "event"
    },
    {
      "anonymous": false,
      "inputs": [
        {
          "indexed": true,
          "internalType": "address",
          "name": "user",
          "type": "address"
        },
        {
          "indexed": false,
          "internalType": "uint256",
          "name": "amount",
          "type": "uint256"
        }
      ],
      "name": "UsdtCollateralDeposited",
      "type": "event"
    },
    {
      "anonymous": false,
      "inputs": [
        {
          "indexed": true,
          "internalType": "address",
          "name": "user",
          "type": "address"
        },
        {
          "indexed": false,
          "internalType": "uint256",
          "name": "amount",
          "type": "uint256"
        }
      ],
      "name": "UsdtCollateralWithdrawn",
      "type": "event"
    },
    {
      "inputs": [],
      "name": "depositCeloCollateral",
      "outputs": [],
      "stateMutability": "payable",
      "type": "function"
    },
    {
      "inputs": [
        {
          "internalType": "uint256",
          "name": "_amount",
          "type": "uint256"
        }
      ],
      "name": "depositUsdtCollateral",
      "outputs": [],
      "stateMutability": "nonpayable",
      "type": "function"
    },
    {
      "inputs": [
        {
          "internalType": "address",
          "name": "_user",
          "type": "address"
        }
      ],
      "name": "getCollateralBalance",
      "outputs": [
        {
          "internalType": "uint256",
          "name": "celo",
          "type": "uint256"
        },
        {
          "internalType": "uint256",
          "name": "usdt",
          "type": "uint256"
        }
      ],
      "stateMutability": "view",
      "type": "function"
    },
    {
      "inputs": [
        {
          "internalType": "address",
          "name": "user",
          "type": "address"
        }
      ],
      "name": "liquidateCollateral",
      "outputs": [],
      "stateMutability": "nonpayable",
      "type": "function"
    },
    {
      "inputs": [],
      "name": "owner",
      "outputs": [
        {
          "internalType": "address",
          "name": "",
          "type": "address"
        }
      ],
      "stateMutability": "view",
      "type": "function"
    },
    {
      "inputs": [],
      "name": "pause",
      "outputs": [],
      "stateMutability": "nonpayable",
      "type": "function"
    },
    {
      "inputs": [],
      "name": "paused",
      "outputs": [
        {
          "internalType": "bool",
          "name": "",
          "type": "bool"
        }
      ],
      "stateMutability": "view",
      "type": "function"
    },
    {
      "inputs": [
        {
          "internalType": "address",
          "name": "user",
          "type": "address"
        }
      ],
      "name": "releaseFunds",
      "outputs": [],
      "stateMutability": "nonpayable",
      "type": "function"
    },
    {
      "inputs": [],
      "name": "renounceOwnership",
      "outputs": [],
      "stateMutability": "nonpayable",
      "type": "function"
    },
    {
      "inputs": [],
      "name": "totalCollateralCelo",
      "outputs": [
        {
          "internalType": "uint256",
          "name": "",
          "type": "uint256"
        }
      ],
      "stateMutability": "view",
      "type": "function"
    },
    {
      "inputs": [],
      "name": "totalCollateralUsdt",
      "outputs": [
        {
          "internalType": "uint256",
          "name": "",
          "type": "uint256"
        }
      ],
      "stateMutability": "view",
      "type": "function"
    },
    {
      "inputs": [
        {
          "internalType": "address",
          "name": "newOwner",
          "type": "address"
        }
      ],
      "name": "transferOwnership",
      "outputs": [],
      "stateMutability": "nonpayable",
      "type": "function"
    },
    {
      "inputs": [],
      "name": "unpause",
      "outputs": [],
      "stateMutability": "nonpayable",
      "type": "function"
    },
    {
      "inputs": [],
      "name": "usdtToken",
      "outputs": [
        {
          "internalType": "contract ERC20",
          "name": "",
          "type": "address"
        }
      ],
      "stateMutability": "view",
      "type": "function"
    },
    {
      "inputs": [
        {
          "internalType": "address",
          "name": "",
          "type": "address"
        }
      ],
      "name": "userCollateralCelo",
      "outputs": [
        {
          "internalType": "uint256",
          "name": "",
          "type": "uint256"
        }
      ],
      "stateMutability": "view",
      "type": "function"
    },
    {
      "inputs": [
        {
          "internalType": "address",
          "name": "",
          "type": "address"
        }
      ],
      "name": "userCollateralUsdt",
      "outputs": [
        {
          "internalType": "uint256",
          "name": "",
          "type": "uint256"
        }
      ],
      "stateMutability": "view",
      "type": "function"
    },
    {
      "inputs": [
        {
          "internalType": "uint256",
          "name": "_amount",
          "type": "uint256"
        }
      ],
      "name": "withdrawCeloCollateral",
      "outputs": [],
      "stateMutability": "nonpayable",
      "type": "function"
    },
    {
      "inputs": [
        {
          "internalType": "uint256",
          "name": "_amount",
          "type": "uint256"
        }
      ],
      "name": "withdrawUsdtCollateral",
      "outputs": [],
      "stateMutability": "nonpayable",
      "type": "function"
    }
  ],
  "bytecode": "0x60806040523480156200001157600080fd5b5060405162001a8938038062001a8983398181016040528101906200003791906200026b565b3360016000819055506000600160006101000a81548160ff021916908315150217905550600073ffffffffffffffffffffffffffffffffffffffff168173ffffffffffffffffffffffffffffffffffffffff1603620000d05760006040517f1e4fbdf7000000000000000000000000000000000000000000000000000000008152600401620000c79190620002ae565b60405180910390fd5b620000e1816200012a60201b60201c565b5080600260006101000a81548173ffffffffffffffffffffffffffffffffffffffff021916908373ffffffffffffffffffffffffffffffffffffffff16021790555050620002cb565b600060018054906101000a900473ffffffffffffffffffffffffffffffffffffffff169050816001806101000a81548173ffffffffffffffffffffffffffffffffffffffff021916908373ffffffffffffffffffffffffffffffffffffffff1602179055508173ffffffffffffffffffffffffffffffffffffffff168173ffffffffffffffffffffffffffffffffffffffff167f8be0079c531659141344cd1fd0a4f28419497f9722a3daafe3b4186f6b6457e060405160405180910390a35050565b600080fd5b600073ffffffffffffffffffffffffffffffffffffffff82169050919050565b60006200021f82620001f2565b9050919050565b6000620002338262000212565b9050919050565b620002458162000226565b81146200025157600080fd5b50565b60008151905062000265816200023a565b92915050565b600060208284031215620002845762000283620001ed565b5b6000620002948482850162000254565b91505092915050565b620002a88162000212565b82525050565b6000602082019050620002c560008301846200029d565b92915050565b6117ae80620002db6000396000f3fe6080604052600436106101095760003560e01c80638456cb59116100955780639e30bce7116100645780639e30bce71461030a578063a98ad46c14610347578063c3b2a4a414610372578063d57ac70d146103af578063f2fde38b146103b957610109565b80638456cb59146102745780638da5cb5b1461028b5780638e817efe146102b65780639083baa6146102df57610109565b80633f4ba83a116100dc5780633f4ba83a146101c757806352ce9714146101de5780635c975abb1461020757806360b3b33814610232578063715018a61461025d57610109565b8063192e7a7b1461010e5780631fea5a6b146101375780632703ee85146101605780632f5723d51461019e575b600080fd5b34801561011a57600080fd5b50610135600480360381019061013091906112a4565b6103e2565b005b34801561014357600080fd5b5061015e600480360381019061015991906112a4565b61055b565b005b34801561016c57600080fd5b50610187600480360381019061018291906112a4565b6105f8565b6040516101959291906112ea565b60405180910390f35b3480156101aa57600080fd5b506101c560048036038101906101c0919061133f565b610684565b005b3480156101d357600080fd5b506101dc610880565b005b3480156101ea57600080fd5b506102056004803603810190610200919061133f565b610892565b005b34801561021357600080fd5b5061021c610b0e565b6040516102299190611387565b60405180910390f35b34801561023e57600080fd5b50610247610b25565b60405161025491906113a2565b60405180910390f35b34801561026957600080fd5b50610272610b2b565b005b34801561028057600080fd5b50610289610b3f565b005b34801561029757600080fd5b506102a0610b51565b6040516102ad91906113cc565b60405180910390f35b3480156102c257600080fd5b506102dd60048036038101906102d8919061133f565b610b79565b005b3480156102eb57600080fd5b506102f4610d5d565b60405161030191906113a2565b60405180910390f35b34801561031657600080fd5b50610331600480360381019061032c91906112a4565b610d63565b60405161033e91906113a2565b60405180910390f35b34801561035357600080fd5b5061035c610d7b565b6040516103699190611446565b60405180910390f35b34801561037e57600080fd5b50610399600480360381019061039491906112a4565b610da1565b6040516103a691906113a2565b60405180910390f35b6103b7610db9565b005b3480156103c557600080fd5b506103e060048036038101906103db91906112a4565b610ed3565b005b6103ea610f59565b8073ffffffffffffffffffffffffffffffffffffffff166108fc600560008473ffffffffffffffffffffffffffffffffffffffff1673ffffffffffffffffffffffffffffffffffffffff168152602001908152602001600020549081150290604051600060405180830381858888f1935050505015801561046f573d6000803e3d6000fd5b50600260009054906101000a900473ffffffffffffffffffffffffffffffffffffffff1673ffffffffffffffffffffffffffffffffffffffff1663a9059cbb82600660008573ffffffffffffffffffffffffffffffffffffffff1673ffffffffffffffffffffffffffffffffffffffff168152602001908152602001600020546040518363ffffffff1660e01b815260040161050c929190611461565b6020604051808303816000875af115801561052b573d6000803e3d6000fd5b505050506040513d601f19601f8201168201806040525081019061054f91906114b6565b50610558610f9f565b50565b610563610f59565b6000600560008373ffffffffffffffffffffffffffffffffffffffff1673ffffffffffffffffffffffffffffffffffffffff168152602001908152602001600020819055506000600660008373ffffffffffffffffffffffffffffffffffffffff1673ffffffffffffffffffffffffffffffffffffffff168152602001908152602001600020819055506105f5610f9f565b50565b600080600560008473ffffffffffffffffffffffffffffffffffffffff1673ffffffffffffffffffffffffffffffffffffffff16815260200190815260200160002054600660008573ffffffffffffffffffffffffffffffffffffffff1673ffffffffffffffffffffffffffffffffffffffff1681526020019081526020016000205491509150915091565b61068c610f59565b610694610fa9565b600081116106d7576040517f08c379a00000000000000000000000000000000000000000000000000000000081526004016106ce90611566565b60405180910390fd5b600260009054906101000a900473ffffffffffffffffffffffffffffffffffffffff1673ffffffffffffffffffffffffffffffffffffffff166323b872dd3330846040518463ffffffff1660e01b815260040161073693929190611586565b6020604051808303816000875af1158015610755573d6000803e3d6000fd5b505050506040513d601f19601f8201168201806040525081019061077991906114b6565b6107b8576040517f08c379a00000000000000000000000000000000000000000000000000000000081526004016107af9061162f565b60405180910390fd5b80600660003373ffffffffffffffffffffffffffffffffffffffff1673ffffffffffffffffffffffffffffffffffffffff1681526020019081526020016000206000828254610807919061167e565b925050819055508060046000828254610820919061167e565b925050819055503373ffffffffffffffffffffffffffffffffffffffff167f9a4c731ff1518c7a820e31d32e673b031b8974967931afb2eec308066090022d8260405161086d91906113a2565b60405180910390a261087d610f9f565b50565b610888610fea565b610890611071565b565b61089a610f59565b6108a2610fa9565b600081116108e5576040517f08c379a00000000000000000000000000000000000000000000000000000000081526004016108dc90611566565b60405180910390fd5b80600660003373ffffffffffffffffffffffffffffffffffffffff1673ffffffffffffffffffffffffffffffffffffffff168152602001908152602001600020541015610967576040517f08c379a000000000000000000000000000000000000000000000000000000000815260040161095e90611724565b60405180910390fd5b80600660003373ffffffffffffffffffffffffffffffffffffffff1673ffffffffffffffffffffffffffffffffffffffff16815260200190815260200160002060008282546109b69190611744565b9250508190555080600460008282546109cf9190611744565b92505081905550600260009054906101000a900473ffffffffffffffffffffffffffffffffffffffff1673ffffffffffffffffffffffffffffffffffffffff1663a9059cbb33836040518363ffffffff1660e01b8152600401610a33929190611461565b6020604051808303816000875af1158015610a52573d6000803e3d6000fd5b505050506040513d601f19601f82011682018060405250810190610a7691906114b6565b610ab5576040517f08c379a0000000000000000000000000000000000000000000000000000000008152600401610aac9061162f565b60405180910390fd5b3373ffffffffffffffffffffffffffffffffffffffff167fc01511ac0a76d7dc4d420282166e32ac9366c3f78e450661d140d248b19a400082604051610afb91906113a2565b60405180910390a2610b0b610f9f565b50565b6000600160009054906101000a900460ff16905090565b60035481565b610b33610fea565b610b3d60006110d4565b565b610b47610fea565b610b4f611197565b565b600060018054906101000a900473ffffffffffffffffffffffffffffffffffffffff16905090565b610b81610f59565b610b89610fa9565b60008111610bcc576040517f08c379a0000000000000000000000000000000000000000000000000000000008152600401610bc390611566565b60405180910390fd5b80600560003373ffffffffffffffffffffffffffffffffffffffff1673ffffffffffffffffffffffffffffffffffffffff168152602001908152602001600020541015610c4e576040517f08c379a0000000000000000000000000000000000000000000000000000000008152600401610c4590611724565b60405180910390fd5b80600560003373ffffffffffffffffffffffffffffffffffffffff1673ffffffffffffffffffffffffffffffffffffffff1681526020019081526020016000206000828254610c9d9190611744565b925050819055508060036000828254610cb69190611744565b925050819055503373ffffffffffffffffffffffffffffffffffffffff166108fc829081150290604051600060405180830381858888f19350505050158015610d03573d6000803e3d6000fd5b503373ffffffffffffffffffffffffffffffffffffffff167f0c3d79d31dc82080baf59ab3c3058c3c7c4f88f9969422caa1b42c51577d640b82604051610d4a91906113a2565b60405180910390a2610d5a610f9f565b50565b60045481565b60056020528060005260406000206000915090505481565b600260009054906101000a900473ffffffffffffffffffffffffffffffffffffffff1681565b60066020528060005260406000206000915090505481565b610dc1610f59565b610dc9610fa9565b60003411610e0c576040517f08c379a0000000000000000000000000000000000000000000000000000000008152600401610e0390611566565b60405180910390fd5b34600560003373ffffffffffffffffffffffffffffffffffffffff1673ffffffffffffffffffffffffffffffffffffffff1681526020019081526020016000206000828254610e5b919061167e565b925050819055503460036000828254610e74919061167e565b925050819055503373ffffffffffffffffffffffffffffffffffffffff167ff5bfa8a3f6a61792f266e3e92249facce14edf2b5fceeba5cb6cd0882593a9da34604051610ec191906113a2565b60405180910390a2610ed1610f9f565b565b610edb610fea565b600073ffffffffffffffffffffffffffffffffffffffff168173ffffffffffffffffffffffffffffffffffffffff1603610f4d5760006040517f1e4fbdf7000000000000000000000000000000000000000000000000000000008152600401610f4491906113cc565b60405180910390fd5b610f56816110d4565b50565b600260005403610f95576040517f3ee5aeb500000000000000000000000000000000000000000000000000000000815260040160405180910390fd5b6002600081905550565b6001600081905550565b610fb1610b0e565b15610fe8576040517fd93c066500000000000000000000000000000000000000000000000000000000815260040160405180910390fd5b565b610ff26111f9565b73ffffffffffffffffffffffffffffffffffffffff16611010610b51565b73ffffffffffffffffffffffffffffffffffffffff161461106f576110336111f9565b6040517f118cdaa700000000000000000000000000000000000000000000000000000000815260040161106691906113cc565b60405180910390fd5b565b611079611201565b6000600160006101000a81548160ff0219169083151502179055507f5db9ee0a495bf2e6ff9c91a7834c1ba4fdd244a5e8aa4e537bd38aeae4b073aa6110bd6111f9565b6040516110ca91906113cc565b60405180910390a1565b600060018054906101000a900473ffffffffffffffffffffffffffffffffffffffff169050816001806101000a81548173ffffffffffffffffffffffffffffffffffffffff021916908373ffffffffffffffffffffffffffffffffffffffff1602179055508173ffffffffffffffffffffffffffffffffffffffff168173ffffffffffffffffffffffffffffffffffffffff167f8be0079c531659141344cd1fd0a4f28419497f9722a3daafe3b4186f6b6457e060405160405180910390a35050565b61119f610fa9565b60018060006101000a81548160ff0219169083151502179055507f62e78cea01bee320cd4e420270b5ea74000d11b0c9f74754ebdbfc544b05a2586111e26111f9565b6040516111ef91906113cc565b60405180910390a1565b600033905090565b611209610b0e565b61123f576040517f8dfc202b00000000000000000000000000000000000000000000000000000000815260040160405180910390fd5b565b600080fd5b600073ffffffffffffffffffffffffffffffffffffffff82169050919050565b600061127182611246565b9050919050565b61128181611266565b811461128c57600080fd5b50565b60008135905061129e81611278565b92915050565b6000602082840312156112ba576112b9611241565b5b60006112c88482850161128f565b91505092915050565b6000819050919050565b6112e4816112d1565b82525050565b60006040820190506112ff60008301856112db565b61130c60208301846112db565b9392505050565b61131c816112d1565b811461132757600080fd5b50565b60008135905061133981611313565b92915050565b60006020828403121561135557611354611241565b5b60006113638482850161132a565b91505092915050565b60008115159050919050565b6113818161136c565b82525050565b600060208201905061139c6000830184611378565b92915050565b60006020820190506113b760008301846112db565b92915050565b6113c681611266565b82525050565b60006020820190506113e160008301846113bd565b92915050565b6000819050919050565b600061140c61140761140284611246565b6113e7565b611246565b9050919050565b600061141e826113f1565b9050919050565b600061143082611413565b9050919050565b61144081611425565b82525050565b600060208201905061145b6000830184611437565b92915050565b600060408201905061147660008301856113bd565b61148360208301846112db565b9392505050565b6114938161136c565b811461149e57600080fd5b50565b6000815190506114b08161148a565b92915050565b6000602082840312156114cc576114cb611241565b5b60006114da848285016114a1565b91505092915050565b600082825260208201905092915050565b7f436f6c6c61746572616c4d616e616765723a20496e76616c696420616d6f756e60008201527f7400000000000000000000000000000000000000000000000000000000000000602082015250565b60006115506021836114e3565b915061155b826114f4565b604082019050919050565b6000602082019050818103600083015261157f81611543565b9050919050565b600060608201905061159b60008301866113bd565b6115a860208301856113bd565b6115b560408301846112db565b949350505050565b7f436f6c6c61746572616c4d616e616765723a205472616e73666572206661696c60008201527f6564000000000000000000000000000000000000000000000000000000000000602082015250565b60006116196022836114e3565b9150611624826115bd565b604082019050919050565b600060208201905081810360008301526116488161160c565b9050919050565b7f4e487b7100000000000000000000000000000000000000000000000000000000600052601160045260246000fd5b6000611689826112d1565b9150611694836112d1565b92508282019050808211156116ac576116ab61164f565b5b92915050565b7f436f6c6c61746572616c4d616e616765723a20496e73756666696369656e742060008201527f62616c616e636500000000000000000000000000000000000000000000000000602082015250565b600061170e6027836114e3565b9150611719826116b2565b604082019050919050565b6000602082019050818103600083015261173d81611701565b9050919050565b600061174f826112d1565b915061175a836112d1565b92508282039050818111156117725761177161164f565b5b9291505056fea26469706673582212208655e7720d93519117cbf1d829ba8851a4b1366d065e321a313f2a06062159d764736f6c63430008140033",
  "linkReferences": {},
  "deployedLinkReferences": {}
}