{
  "_format": "hh-sol-artifact-1",
  "contractName": "CollateralManager",
  "sourceName": "contracts/CollateralManager.sol",
  "abi": [
    {
      "inputs": [
        {
          "internalType": "contract ERC20",
          "name": "_collateralToken",
          "type": "address"
        },
        {
          "internalType": "address",
          "name": "_priceOracleAddress",
          "type": "address"
        }
      ],
      "stateMutability": "nonpayable",
      "type": "constructor"
    },
    {
      "inputs": [],
      "name": "EnforcedPause",
      "type": "error"
    },
    {
      "inputs": [],
      "name": "ExpectedPause",
      "type": "error"
    },
    {
      "inputs": [
        {
          "internalType": "address",
          "name": "owner",
          "type": "address"
        }
      ],
      "name": "OwnableInvalidOwner",
      "type": "error"
    },
    {
      "inputs": [
        {
          "internalType": "address",
          "name": "account",
          "type": "address"
        }
      ],
      "name": "OwnableUnauthorizedAccount",
      "type": "error"
    },
    {
      "inputs": [],
      "name": "ReentrancyGuardReentrantCall",
      "type": "error"
    },
    {
      "anonymous": false,
      "inputs": [
        {
          "indexed": true,
          "internalType": "address",
          "name": "user",
          "type": "address"
        },
        {
          "indexed": false,
          "internalType": "uint256",
          "name": "amount",
          "type": "uint256"
        }
      ],
      "name": "CeloCollateralDeposited",
      "type": "event"
    },
    {
      "anonymous": false,
      "inputs": [
        {
          "indexed": true,
          "internalType": "address",
          "name": "user",
          "type": "address"
        },
        {
          "indexed": false,
          "internalType": "uint256",
          "name": "amount",
          "type": "uint256"
        }
      ],
      "name": "CeloCollateralWithdrawn",
      "type": "event"
    },
    {
      "anonymous": false,
      "inputs": [
        {
          "indexed": true,
          "internalType": "address",
          "name": "previousOwner",
          "type": "address"
        },
        {
          "indexed": true,
          "internalType": "address",
          "name": "newOwner",
          "type": "address"
        }
      ],
      "name": "OwnershipTransferred",
      "type": "event"
    },
    {
      "anonymous": false,
      "inputs": [
        {
          "indexed": false,
          "internalType": "address",
          "name": "account",
          "type": "address"
        }
      ],
      "name": "Paused",
      "type": "event"
    },
    {
      "anonymous": false,
      "inputs": [
        {
          "indexed": false,
          "internalType": "address",
          "name": "account",
          "type": "address"
        }
      ],
      "name": "Unpaused",
      "type": "event"
    },
    {
      "anonymous": false,
      "inputs": [
        {
          "indexed": true,
          "internalType": "address",
          "name": "user",
          "type": "address"
        },
        {
          "indexed": false,
          "internalType": "uint256",
          "name": "amount",
          "type": "uint256"
        }
      ],
      "name": "UsdtCollateralDeposited",
      "type": "event"
    },
    {
      "anonymous": false,
      "inputs": [
        {
          "indexed": true,
          "internalType": "address",
          "name": "user",
          "type": "address"
        },
        {
          "indexed": false,
          "internalType": "uint256",
          "name": "amount",
          "type": "uint256"
        }
      ],
      "name": "UsdtCollateralWithdrawn",
      "type": "event"
    },
    {
      "inputs": [],
      "name": "depositCeloCollateral",
      "outputs": [],
      "stateMutability": "payable",
      "type": "function"
    },
    {
      "inputs": [
        {
          "internalType": "uint256",
          "name": "_amount",
          "type": "uint256"
        }
      ],
      "name": "depositUsdtCollateral",
      "outputs": [],
      "stateMutability": "nonpayable",
      "type": "function"
    },
    {
      "inputs": [
        {
          "internalType": "address",
          "name": "_user",
          "type": "address"
        }
      ],
      "name": "getCollateralBalance",
      "outputs": [
        {
          "internalType": "uint256",
          "name": "celo",
          "type": "uint256"
        },
        {
          "internalType": "uint256",
          "name": "usdt",
          "type": "uint256"
        }
      ],
      "stateMutability": "view",
      "type": "function"
    },
    {
      "inputs": [
        {
          "internalType": "address",
          "name": "_user",
          "type": "address"
        }
      ],
      "name": "getCollateralBalanceinUSD",
      "outputs": [
        {
          "internalType": "uint256",
          "name": "",
          "type": "uint256"
        }
      ],
      "stateMutability": "view",
      "type": "function"
    },
    {
      "inputs": [],
      "name": "maxCollateralAmount",
      "outputs": [
        {
          "internalType": "uint256",
          "name": "",
          "type": "uint256"
        }
      ],
      "stateMutability": "view",
      "type": "function"
    },
    {
      "inputs": [],
      "name": "minCollateralAmount",
      "outputs": [
        {
          "internalType": "uint256",
          "name": "",
          "type": "uint256"
        }
      ],
      "stateMutability": "view",
      "type": "function"
    },
    {
      "inputs": [],
      "name": "owner",
      "outputs": [
        {
          "internalType": "address",
          "name": "",
          "type": "address"
        }
      ],
      "stateMutability": "view",
      "type": "function"
    },
    {
      "inputs": [],
      "name": "pause",
      "outputs": [],
      "stateMutability": "nonpayable",
      "type": "function"
    },
    {
      "inputs": [],
      "name": "paused",
      "outputs": [
        {
          "internalType": "bool",
          "name": "",
          "type": "bool"
        }
      ],
      "stateMutability": "view",
      "type": "function"
    },
    {
      "inputs": [],
      "name": "priceOracle",
      "outputs": [
        {
          "internalType": "contract MellowFiPriceOracle",
          "name": "",
          "type": "address"
        }
      ],
      "stateMutability": "view",
      "type": "function"
    },
    {
      "inputs": [
        {
          "internalType": "address",
          "name": "user",
          "type": "address"
        }
      ],
      "name": "releaseFunds",
      "outputs": [],
      "stateMutability": "nonpayable",
      "type": "function"
    },
    {
      "inputs": [],
      "name": "renounceOwnership",
      "outputs": [],
      "stateMutability": "nonpayable",
      "type": "function"
    },
    {
      "inputs": [],
      "name": "totalCollateralCelo",
      "outputs": [
        {
          "internalType": "uint256",
          "name": "",
          "type": "uint256"
        }
      ],
      "stateMutability": "view",
      "type": "function"
    },
    {
      "inputs": [],
      "name": "totalCollateralUsdt",
      "outputs": [
        {
          "internalType": "uint256",
          "name": "",
          "type": "uint256"
        }
      ],
      "stateMutability": "view",
      "type": "function"
    },
    {
      "inputs": [
        {
          "internalType": "address",
          "name": "newOwner",
          "type": "address"
        }
      ],
      "name": "transferOwnership",
      "outputs": [],
      "stateMutability": "nonpayable",
      "type": "function"
    },
    {
      "inputs": [],
      "name": "unpause",
      "outputs": [],
      "stateMutability": "nonpayable",
      "type": "function"
    },
    {
      "inputs": [],
      "name": "usdtToken",
      "outputs": [
        {
          "internalType": "contract ERC20",
          "name": "",
          "type": "address"
        }
      ],
      "stateMutability": "view",
      "type": "function"
    },
    {
      "inputs": [
        {
          "internalType": "address",
          "name": "",
          "type": "address"
        }
      ],
      "name": "userCollateralCelo",
      "outputs": [
        {
          "internalType": "uint256",
          "name": "",
          "type": "uint256"
        }
      ],
      "stateMutability": "view",
      "type": "function"
    },
    {
      "inputs": [
        {
          "internalType": "address",
          "name": "",
          "type": "address"
        }
      ],
      "name": "userCollateralUsdt",
      "outputs": [
        {
          "internalType": "uint256",
          "name": "",
          "type": "uint256"
        }
      ],
      "stateMutability": "view",
      "type": "function"
    },
    {
      "inputs": [
        {
          "internalType": "uint256",
          "name": "_amount",
          "type": "uint256"
        }
      ],
      "name": "withdrawCeloCollateral",
      "outputs": [],
      "stateMutability": "nonpayable",
      "type": "function"
    },
    {
      "inputs": [
        {
          "internalType": "uint256",
          "name": "_amount",
          "type": "uint256"
        }
      ],
      "name": "withdrawUsdtCollateral",
      "outputs": [],
      "stateMutability": "nonpayable",
      "type": "function"
    }
  ],
  "bytecode": "0x6080604052670de0b6b3a7640000600655678ac7230489e800006007553480156200002957600080fd5b5060405162001eb738038062001eb783398181016040528101906200004f9190620002f6565b3360016000819055506000600160006101000a81548160ff021916908315150217905550600073ffffffffffffffffffffffffffffffffffffffff168173ffffffffffffffffffffffffffffffffffffffff1603620000e85760006040517f1e4fbdf7000000000000000000000000000000000000000000000000000000008152600401620000df91906200034e565b60405180910390fd5b620000f9816200018460201b60201c565b5081600260006101000a81548173ffffffffffffffffffffffffffffffffffffffff021916908373ffffffffffffffffffffffffffffffffffffffff16021790555080600360006101000a81548173ffffffffffffffffffffffffffffffffffffffff021916908373ffffffffffffffffffffffffffffffffffffffff16021790555050506200036b565b600060018054906101000a900473ffffffffffffffffffffffffffffffffffffffff169050816001806101000a81548173ffffffffffffffffffffffffffffffffffffffff021916908373ffffffffffffffffffffffffffffffffffffffff1602179055508173ffffffffffffffffffffffffffffffffffffffff168173ffffffffffffffffffffffffffffffffffffffff167f8be0079c531659141344cd1fd0a4f28419497f9722a3daafe3b4186f6b6457e060405160405180910390a35050565b600080fd5b600073ffffffffffffffffffffffffffffffffffffffff82169050919050565b600062000279826200024c565b9050919050565b60006200028d826200026c565b9050919050565b6200029f8162000280565b8114620002ab57600080fd5b50565b600081519050620002bf8162000294565b92915050565b620002d0816200026c565b8114620002dc57600080fd5b50565b600081519050620002f081620002c5565b92915050565b6000806040838503121562000310576200030f62000247565b5b60006200032085828601620002ae565b92505060206200033385828601620002df565b9150509250929050565b62000348816200026c565b82525050565b60006020820190506200036560008301846200033d565b92915050565b611b3c806200037b6000396000f3fe60806040526004361061012a5760003560e01c806360b3b338116100ab5780639083baa61161006f5780639083baa6146103955780639e30bce7146103c0578063a98ad46c146103fd578063c3b2a4a414610428578063d57ac70d14610465578063f2fde38b1461046f5761012a565b806360b3b338146102e8578063715018a6146103135780638456cb591461032a5780638da5cb5b146103415780638e817efe1461036c5761012a565b80632f5723d5116100f25780632f5723d5146102295780633f4ba83a146102525780635269384e1461026957806352ce9714146102945780635c975abb146102bd5761012a565b8063048851151461012f57806309b8aafd1461015a578063192e7a7b146101975780632630c12f146101c05780632703ee85146101eb575b600080fd5b34801561013b57600080fd5b50610144610498565b60405161015191906114a7565b60405180910390f35b34801561016657600080fd5b50610181600480360381019061017c9190611525565b61049e565b60405161018e91906114a7565b60405180910390f35b3480156101a357600080fd5b506101be60048036038101906101b99190611525565b61069e565b005b3480156101cc57600080fd5b506101d5610817565b6040516101e291906115b1565b60405180910390f35b3480156101f757600080fd5b50610212600480360381019061020d9190611525565b61083d565b6040516102209291906115cc565b60405180910390f35b34801561023557600080fd5b50610250600480360381019061024b9190611621565b6108c9565b005b34801561025e57600080fd5b50610267610ac6565b005b34801561027557600080fd5b5061027e610ad8565b60405161028b91906114a7565b60405180910390f35b3480156102a057600080fd5b506102bb60048036038101906102b69190611621565b610ade565b005b3480156102c957600080fd5b506102d2610d5a565b6040516102df9190611669565b60405180910390f35b3480156102f457600080fd5b506102fd610d71565b60405161030a91906114a7565b60405180910390f35b34801561031f57600080fd5b50610328610d77565b005b34801561033657600080fd5b5061033f610d8b565b005b34801561034d57600080fd5b50610356610d9d565b6040516103639190611693565b60405180910390f35b34801561037857600080fd5b50610393600480360381019061038e9190611621565b610dc5565b005b3480156103a157600080fd5b506103aa610fa9565b6040516103b791906114a7565b60405180910390f35b3480156103cc57600080fd5b506103e760048036038101906103e29190611525565b610faf565b6040516103f491906114a7565b60405180910390f35b34801561040957600080fd5b50610412610fc7565b60405161041f91906116cf565b60405180910390f35b34801561043457600080fd5b5061044f600480360381019061044a9190611525565b610fed565b60405161045c91906114a7565b60405180910390f35b61046d611005565b005b34801561047b57600080fd5b5061049660048036038101906104919190611525565b611120565b005b60075481565b600080600360009054906101000a900473ffffffffffffffffffffffffffffffffffffffff1673ffffffffffffffffffffffffffffffffffffffff166373544cfd6040518163ffffffff1660e01b8152600401602060405180830381865afa15801561050e573d6000803e3d6000fd5b505050506040513d601f19601f820116820180604052508101906105329190611720565b90506000600360009054906101000a900473ffffffffffffffffffffffffffffffffffffffff1673ffffffffffffffffffffffffffffffffffffffff1663961bdfbf6040518163ffffffff1660e01b8152600401602060405180830381865afa1580156105a3573d6000803e3d6000fd5b505050506040513d601f19601f820116820180604052508101906105c79190611720565b90506000670de0b6b3a764000082600960008873ffffffffffffffffffffffffffffffffffffffff1673ffffffffffffffffffffffffffffffffffffffff1681526020019081526020016000205461061f919061177c565b61062991906117ed565b670de0b6b3a764000084600860008973ffffffffffffffffffffffffffffffffffffffff1673ffffffffffffffffffffffffffffffffffffffff1681526020019081526020016000205461067d919061177c565b61068791906117ed565b610691919061181e565b9050809350505050919050565b6106a66111a6565b8073ffffffffffffffffffffffffffffffffffffffff166108fc600860008473ffffffffffffffffffffffffffffffffffffffff1673ffffffffffffffffffffffffffffffffffffffff168152602001908152602001600020549081150290604051600060405180830381858888f1935050505015801561072b573d6000803e3d6000fd5b50600260009054906101000a900473ffffffffffffffffffffffffffffffffffffffff1673ffffffffffffffffffffffffffffffffffffffff1663a9059cbb82600960008573ffffffffffffffffffffffffffffffffffffffff1673ffffffffffffffffffffffffffffffffffffffff168152602001908152602001600020546040518363ffffffff1660e01b81526004016107c8929190611852565b6020604051808303816000875af11580156107e7573d6000803e3d6000fd5b505050506040513d601f19601f8201168201806040525081019061080b91906118a7565b506108146111ec565b50565b600360009054906101000a900473ffffffffffffffffffffffffffffffffffffffff1681565b600080600860008473ffffffffffffffffffffffffffffffffffffffff1673ffffffffffffffffffffffffffffffffffffffff16815260200190815260200160002054600960008573ffffffffffffffffffffffffffffffffffffffff1673ffffffffffffffffffffffffffffffffffffffff1681526020019081526020016000205491509150915091565b6108d16111a6565b6108d96111f6565b600654811161091d576040517f08c379a000000000000000000000000000000000000000000000000000000000815260040161091490611957565b60405180910390fd5b600260009054906101000a900473ffffffffffffffffffffffffffffffffffffffff1673ffffffffffffffffffffffffffffffffffffffff166323b872dd3330846040518463ffffffff1660e01b815260040161097c93929190611977565b6020604051808303816000875af115801561099b573d6000803e3d6000fd5b505050506040513d601f19601f820116820180604052508101906109bf91906118a7565b6109fe576040517f08c379a00000000000000000000000000000000000000000000000000000000081526004016109f590611a20565b60405180910390fd5b80600960003373ffffffffffffffffffffffffffffffffffffffff1673ffffffffffffffffffffffffffffffffffffffff1681526020019081526020016000206000828254610a4d919061181e565b925050819055508060056000828254610a66919061181e565b925050819055503373ffffffffffffffffffffffffffffffffffffffff167f9a4c731ff1518c7a820e31d32e673b031b8974967931afb2eec308066090022d82604051610ab391906114a7565b60405180910390a2610ac36111ec565b50565b610ace611237565b610ad66112be565b565b60065481565b610ae66111a6565b610aee6111f6565b60008111610b31576040517f08c379a0000000000000000000000000000000000000000000000000000000008152600401610b2890611957565b60405180910390fd5b80600960003373ffffffffffffffffffffffffffffffffffffffff1673ffffffffffffffffffffffffffffffffffffffff168152602001908152602001600020541015610bb3576040517f08c379a0000000000000000000000000000000000000000000000000000000008152600401610baa90611ab2565b60405180910390fd5b80600960003373ffffffffffffffffffffffffffffffffffffffff1673ffffffffffffffffffffffffffffffffffffffff1681526020019081526020016000206000828254610c029190611ad2565b925050819055508060056000828254610c1b9190611ad2565b92505081905550600260009054906101000a900473ffffffffffffffffffffffffffffffffffffffff1673ffffffffffffffffffffffffffffffffffffffff1663a9059cbb33836040518363ffffffff1660e01b8152600401610c7f929190611852565b6020604051808303816000875af1158015610c9e573d6000803e3d6000fd5b505050506040513d601f19601f82011682018060405250810190610cc291906118a7565b610d01576040517f08c379a0000000000000000000000000000000000000000000000000000000008152600401610cf890611a20565b60405180910390fd5b3373ffffffffffffffffffffffffffffffffffffffff167fc01511ac0a76d7dc4d420282166e32ac9366c3f78e450661d140d248b19a400082604051610d4791906114a7565b60405180910390a2610d576111ec565b50565b6000600160009054906101000a900460ff16905090565b60045481565b610d7f611237565b610d896000611321565b565b610d93611237565b610d9b6113e4565b565b600060018054906101000a900473ffffffffffffffffffffffffffffffffffffffff16905090565b610dcd6111a6565b610dd56111f6565b60008111610e18576040517f08c379a0000000000000000000000000000000000000000000000000000000008152600401610e0f90611957565b60405180910390fd5b80600860003373ffffffffffffffffffffffffffffffffffffffff1673ffffffffffffffffffffffffffffffffffffffff168152602001908152602001600020541015610e9a576040517f08c379a0000000000000000000000000000000000000000000000000000000008152600401610e9190611ab2565b60405180910390fd5b80600860003373ffffffffffffffffffffffffffffffffffffffff1673ffffffffffffffffffffffffffffffffffffffff1681526020019081526020016000206000828254610ee99190611ad2565b925050819055508060046000828254610f029190611ad2565b925050819055503373ffffffffffffffffffffffffffffffffffffffff166108fc829081150290604051600060405180830381858888f19350505050158015610f4f573d6000803e3d6000fd5b503373ffffffffffffffffffffffffffffffffffffffff167f0c3d79d31dc82080baf59ab3c3058c3c7c4f88f9969422caa1b42c51577d640b82604051610f9691906114a7565b60405180910390a2610fa66111ec565b50565b60055481565b60086020528060005260406000206000915090505481565b600260009054906101000a900473ffffffffffffffffffffffffffffffffffffffff1681565b60096020528060005260406000206000915090505481565b61100d6111a6565b6110156111f6565b6006543411611059576040517f08c379a000000000000000000000000000000000000000000000000000000000815260040161105090611957565b60405180910390fd5b34600860003373ffffffffffffffffffffffffffffffffffffffff1673ffffffffffffffffffffffffffffffffffffffff16815260200190815260200160002060008282546110a8919061181e565b9250508190555034600460008282546110c1919061181e565b925050819055503373ffffffffffffffffffffffffffffffffffffffff167ff5bfa8a3f6a61792f266e3e92249facce14edf2b5fceeba5cb6cd0882593a9da3460405161110e91906114a7565b60405180910390a261111e6111ec565b565b611128611237565b600073ffffffffffffffffffffffffffffffffffffffff168173ffffffffffffffffffffffffffffffffffffffff160361119a5760006040517f1e4fbdf70000000000000000000000000000000000000000000000000000000081526004016111919190611693565b60405180910390fd5b6111a381611321565b50565b6002600054036111e2576040517f3ee5aeb500000000000000000000000000000000000000000000000000000000815260040160405180910390fd5b6002600081905550565b6001600081905550565b6111fe610d5a565b15611235576040517fd93c066500000000000000000000000000000000000000000000000000000000815260040160405180910390fd5b565b61123f611446565b73ffffffffffffffffffffffffffffffffffffffff1661125d610d9d565b73ffffffffffffffffffffffffffffffffffffffff16146112bc57611280611446565b6040517f118cdaa70000000000000000000000000000000000000000000000000000000081526004016112b39190611693565b60405180910390fd5b565b6112c661144e565b6000600160006101000a81548160ff0219169083151502179055507f5db9ee0a495bf2e6ff9c91a7834c1ba4fdd244a5e8aa4e537bd38aeae4b073aa61130a611446565b6040516113179190611693565b60405180910390a1565b600060018054906101000a900473ffffffffffffffffffffffffffffffffffffffff169050816001806101000a81548173ffffffffffffffffffffffffffffffffffffffff021916908373ffffffffffffffffffffffffffffffffffffffff1602179055508173ffffffffffffffffffffffffffffffffffffffff168173ffffffffffffffffffffffffffffffffffffffff167f8be0079c531659141344cd1fd0a4f28419497f9722a3daafe3b4186f6b6457e060405160405180910390a35050565b6113ec6111f6565b60018060006101000a81548160ff0219169083151502179055507f62e78cea01bee320cd4e420270b5ea74000d11b0c9f74754ebdbfc544b05a25861142f611446565b60405161143c9190611693565b60405180910390a1565b600033905090565b611456610d5a565b61148c576040517f8dfc202b00000000000000000000000000000000000000000000000000000000815260040160405180910390fd5b565b6000819050919050565b6114a18161148e565b82525050565b60006020820190506114bc6000830184611498565b92915050565b600080fd5b600073ffffffffffffffffffffffffffffffffffffffff82169050919050565b60006114f2826114c7565b9050919050565b611502816114e7565b811461150d57600080fd5b50565b60008135905061151f816114f9565b92915050565b60006020828403121561153b5761153a6114c2565b5b600061154984828501611510565b91505092915050565b6000819050919050565b600061157761157261156d846114c7565b611552565b6114c7565b9050919050565b60006115898261155c565b9050919050565b600061159b8261157e565b9050919050565b6115ab81611590565b82525050565b60006020820190506115c660008301846115a2565b92915050565b60006040820190506115e16000830185611498565b6115ee6020830184611498565b9392505050565b6115fe8161148e565b811461160957600080fd5b50565b60008135905061161b816115f5565b92915050565b600060208284031215611637576116366114c2565b5b60006116458482850161160c565b91505092915050565b60008115159050919050565b6116638161164e565b82525050565b600060208201905061167e600083018461165a565b92915050565b61168d816114e7565b82525050565b60006020820190506116a86000830184611684565b92915050565b60006116b98261157e565b9050919050565b6116c9816116ae565b82525050565b60006020820190506116e460008301846116c0565b92915050565b6000819050919050565b6116fd816116ea565b811461170857600080fd5b50565b60008151905061171a816116f4565b92915050565b600060208284031215611736576117356114c2565b5b60006117448482850161170b565b91505092915050565b7f4e487b7100000000000000000000000000000000000000000000000000000000600052601160045260246000fd5b60006117878261148e565b91506117928361148e565b92508282026117a08161148e565b915082820484148315176117b7576117b661174d565b5b5092915050565b7f4e487b7100000000000000000000000000000000000000000000000000000000600052601260045260246000fd5b60006117f88261148e565b91506118038361148e565b925082611813576118126117be565b5b828204905092915050565b60006118298261148e565b91506118348361148e565b925082820190508082111561184c5761184b61174d565b5b92915050565b60006040820190506118676000830185611684565b6118746020830184611498565b9392505050565b6118848161164e565b811461188f57600080fd5b50565b6000815190506118a18161187b565b92915050565b6000602082840312156118bd576118bc6114c2565b5b60006118cb84828501611892565b91505092915050565b600082825260208201905092915050565b7f436f6c6c61746572616c4d616e616765723a20496e76616c696420616d6f756e60008201527f7400000000000000000000000000000000000000000000000000000000000000602082015250565b60006119416021836118d4565b915061194c826118e5565b604082019050919050565b6000602082019050818103600083015261197081611934565b9050919050565b600060608201905061198c6000830186611684565b6119996020830185611684565b6119a66040830184611498565b949350505050565b7f436f6c6c61746572616c4d616e616765723a205472616e73666572206661696c60008201527f6564000000000000000000000000000000000000000000000000000000000000602082015250565b6000611a0a6022836118d4565b9150611a15826119ae565b604082019050919050565b60006020820190508181036000830152611a39816119fd565b9050919050565b7f436f6c6c61746572616c4d616e616765723a20496e73756666696369656e742060008201527f62616c616e636500000000000000000000000000000000000000000000000000602082015250565b6000611a9c6027836118d4565b9150611aa782611a40565b604082019050919050565b60006020820190508181036000830152611acb81611a8f565b9050919050565b6000611add8261148e565b9150611ae88361148e565b9250828203905081811115611b0057611aff61174d565b5b9291505056fea2646970667358221220092dc45b1162ac82196c5b3c4d53d40223191a7a7ac1414eff3654010d9f44ad64736f6c63430008140033",
  "linkReferences": {},
  "deployedLinkReferences": {}
}