{
  "_format": "hh-sol-artifact-1",
  "contractName": "LoanManager",
  "sourceName": "contracts/LoanManager.sol",
  "abi": [
    {
      "inputs": [
        {
          "internalType": "contract ERC20",
          "name": "_cusdToken",
          "type": "address"
        },
        {
          "internalType": "address",
          "name": "_collateralManager",
          "type": "address"
        }
      ],
      "stateMutability": "nonpayable",
      "type": "constructor"
    },
    {
      "inputs": [
        {
          "internalType": "address",
          "name": "owner",
          "type": "address"
        }
      ],
      "name": "OwnableInvalidOwner",
      "type": "error"
    },
    {
      "inputs": [
        {
          "internalType": "address",
          "name": "account",
          "type": "address"
        }
      ],
      "name": "OwnableUnauthorizedAccount",
      "type": "error"
    },
    {
      "inputs": [],
      "name": "ReentrancyGuardReentrantCall",
      "type": "error"
    },
    {
      "anonymous": false,
      "inputs": [
        {
          "indexed": true,
          "internalType": "address",
          "name": "user",
          "type": "address"
        },
        {
          "indexed": false,
          "internalType": "uint256",
          "name": "collateralLiquidated",
          "type": "uint256"
        }
      ],
      "name": "LoanDefaulted",
      "type": "event"
    },
    {
      "anonymous": false,
      "inputs": [
        {
          "indexed": true,
          "internalType": "address",
          "name": "user",
          "type": "address"
        },
        {
          "indexed": false,
          "internalType": "uint256",
          "name": "amount",
          "type": "uint256"
        },
        {
          "indexed": false,
          "internalType": "uint256",
          "name": "collateral",
          "type": "uint256"
        }
      ],
      "name": "LoanIssued",
      "type": "event"
    },
    {
      "anonymous": false,
      "inputs": [
        {
          "indexed": true,
          "internalType": "address",
          "name": "user",
          "type": "address"
        },
        {
          "indexed": false,
          "internalType": "uint256",
          "name": "amount",
          "type": "uint256"
        },
        {
          "indexed": false,
          "internalType": "uint256",
          "name": "collateralReturned",
          "type": "uint256"
        }
      ],
      "name": "LoanRepaid",
      "type": "event"
    },
    {
      "anonymous": false,
      "inputs": [
        {
          "indexed": true,
          "internalType": "address",
          "name": "previousOwner",
          "type": "address"
        },
        {
          "indexed": true,
          "internalType": "address",
          "name": "newOwner",
          "type": "address"
        }
      ],
      "name": "OwnershipTransferred",
      "type": "event"
    },
    {
      "inputs": [
        {
          "internalType": "uint256",
          "name": "_amount",
          "type": "uint256"
        }
      ],
      "name": "addFundToPool",
      "outputs": [],
      "stateMutability": "nonpayable",
      "type": "function"
    },
    {
      "inputs": [],
      "name": "cUSDToken",
      "outputs": [
        {
          "internalType": "contract ERC20",
          "name": "",
          "type": "address"
        }
      ],
      "stateMutability": "view",
      "type": "function"
    },
    {
      "inputs": [
        {
          "internalType": "address",
          "name": "_user",
          "type": "address"
        }
      ],
      "name": "checkDefault",
      "outputs": [],
      "stateMutability": "nonpayable",
      "type": "function"
    },
    {
      "inputs": [],
      "name": "collateralManager",
      "outputs": [
        {
          "internalType": "contract CollateralManager",
          "name": "",
          "type": "address"
        }
      ],
      "stateMutability": "view",
      "type": "function"
    },
    {
      "inputs": [],
      "name": "collateralToLoanRatio",
      "outputs": [
        {
          "internalType": "uint256",
          "name": "",
          "type": "uint256"
        }
      ],
      "stateMutability": "view",
      "type": "function"
    },
    {
      "inputs": [],
      "name": "defaultDuration",
      "outputs": [
        {
          "internalType": "uint256",
          "name": "",
          "type": "uint256"
        }
      ],
      "stateMutability": "view",
      "type": "function"
    },
    {
      "inputs": [],
      "name": "fundPool",
      "outputs": [
        {
          "internalType": "uint256",
          "name": "",
          "type": "uint256"
        }
      ],
      "stateMutability": "view",
      "type": "function"
    },
    {
      "inputs": [],
      "name": "getCeloPrice",
      "outputs": [
        {
          "internalType": "int256",
          "name": "",
          "type": "int256"
        }
      ],
      "stateMutability": "view",
      "type": "function"
    },
    {
      "inputs": [
        {
          "internalType": "address",
          "name": "_user",
          "type": "address"
        }
      ],
      "name": "getCollateralBalanceinUSD",
      "outputs": [
        {
          "internalType": "uint256",
          "name": "",
          "type": "uint256"
        }
      ],
      "stateMutability": "view",
      "type": "function"
    },
    {
      "inputs": [
        {
          "internalType": "address",
          "name": "_user",
          "type": "address"
        }
      ],
      "name": "getLoanBalancewithInterest",
      "outputs": [
        {
          "internalType": "uint256",
          "name": "",
          "type": "uint256"
        }
      ],
      "stateMutability": "view",
      "type": "function"
    },
    {
      "inputs": [],
      "name": "getMaxLoanAmount",
      "outputs": [
        {
          "internalType": "uint256",
          "name": "",
          "type": "uint256"
        }
      ],
      "stateMutability": "view",
      "type": "function"
    },
    {
      "inputs": [],
      "name": "getUsdtPrice",
      "outputs": [
        {
          "internalType": "int256",
          "name": "",
          "type": "int256"
        }
      ],
      "stateMutability": "view",
      "type": "function"
    },
    {
      "inputs": [
        {
          "internalType": "address",
          "name": "_user",
          "type": "address"
        }
      ],
      "name": "liquidateCollateral",
      "outputs": [],
      "stateMutability": "nonpayable",
      "type": "function"
    },
    {
      "inputs": [],
      "name": "loanDuration",
      "outputs": [
        {
          "internalType": "uint256",
          "name": "",
          "type": "uint256"
        }
      ],
      "stateMutability": "view",
      "type": "function"
    },
    {
      "inputs": [],
      "name": "owner",
      "outputs": [
        {
          "internalType": "address",
          "name": "",
          "type": "address"
        }
      ],
      "stateMutability": "view",
      "type": "function"
    },
    {
      "inputs": [],
      "name": "renounceOwnership",
      "outputs": [],
      "stateMutability": "nonpayable",
      "type": "function"
    },
    {
      "inputs": [
        {
          "internalType": "uint256",
          "name": "_repayAmount",
          "type": "uint256"
        }
      ],
      "name": "repayLoan",
      "outputs": [],
      "stateMutability": "nonpayable",
      "type": "function"
    },
    {
      "inputs": [
        {
          "internalType": "uint256",
          "name": "_loanAmount",
          "type": "uint256"
        }
      ],
      "name": "requestLoan",
      "outputs": [],
      "stateMutability": "nonpayable",
      "type": "function"
    },
    {
      "inputs": [
        {
          "internalType": "address",
          "name": "newOwner",
          "type": "address"
        }
      ],
      "name": "transferOwnership",
      "outputs": [],
      "stateMutability": "nonpayable",
      "type": "function"
    },
    {
      "inputs": [
        {
          "internalType": "uint256",
          "name": "_newRatio",
          "type": "uint256"
        }
      ],
      "name": "updateCollateralToLoanRatio",
      "outputs": [],
      "stateMutability": "nonpayable",
      "type": "function"
    },
    {
      "inputs": [
        {
          "internalType": "uint256",
          "name": "_newDuration",
          "type": "uint256"
        }
      ],
      "name": "updateDefaultDuration",
      "outputs": [],
      "stateMutability": "nonpayable",
      "type": "function"
    },
    {
      "inputs": [
        {
          "internalType": "uint256",
          "name": "_newDuration",
          "type": "uint256"
        }
      ],
      "name": "updateLoanDuration",
      "outputs": [],
      "stateMutability": "nonpayable",
      "type": "function"
    },
    {
      "inputs": [
        {
          "internalType": "address",
          "name": "",
          "type": "address"
        }
      ],
      "name": "userLoans",
      "outputs": [
        {
          "internalType": "uint256",
          "name": "amount",
          "type": "uint256"
        },
        {
          "internalType": "uint256",
          "name": "interestRate",
          "type": "uint256"
        },
        {
          "internalType": "uint256",
          "name": "startTime",
          "type": "uint256"
        },
        {
          "internalType": "uint256",
          "name": "collateral",
          "type": "uint256"
        },
        {
          "internalType": "bool",
          "name": "isRepaid",
          "type": "bool"
        },
        {
          "internalType": "bool",
          "name": "isDefaulted",
          "type": "bool"
        }
      ],
      "stateMutability": "view",
      "type": "function"
    }
  ],
  "bytecode": "0x6080604052609660055562278d006006556213c6806007553480156200002457600080fd5b5060405162002a0f38038062002a0f83398181016040528101906200004a919062000383565b336001600081905550600073ffffffffffffffffffffffffffffffffffffffff168173ffffffffffffffffffffffffffffffffffffffff1603620000c85760006040517f1e4fbdf7000000000000000000000000000000000000000000000000000000008152600401620000bf9190620003db565b60405180910390fd5b620000d9816200020e60201b60201c565b5081600260006101000a81548173ffffffffffffffffffffffffffffffffffffffff021916908373ffffffffffffffffffffffffffffffffffffffff16021790555080600360006101000a81548173ffffffffffffffffffffffffffffffffffffffff021916908373ffffffffffffffffffffffffffffffffffffffff16021790555073022f9dcc73c5fb43f2b4ef2ef9ad3edd1d853946600860006101000a81548173ffffffffffffffffffffffffffffffffffffffff021916908373ffffffffffffffffffffffffffffffffffffffff160217905550737bcb65b53d5a7ffd2119449b8cbc370c9058fd52600960006101000a81548173ffffffffffffffffffffffffffffffffffffffff021916908373ffffffffffffffffffffffffffffffffffffffff1602179055505050620003f8565b6000600160009054906101000a900473ffffffffffffffffffffffffffffffffffffffff16905081600160006101000a81548173ffffffffffffffffffffffffffffffffffffffff021916908373ffffffffffffffffffffffffffffffffffffffff1602179055508173ffffffffffffffffffffffffffffffffffffffff168173ffffffffffffffffffffffffffffffffffffffff167f8be0079c531659141344cd1fd0a4f28419497f9722a3daafe3b4186f6b6457e060405160405180910390a35050565b600080fd5b600073ffffffffffffffffffffffffffffffffffffffff82169050919050565b60006200030682620002d9565b9050919050565b60006200031a82620002f9565b9050919050565b6200032c816200030d565b81146200033857600080fd5b50565b6000815190506200034c8162000321565b92915050565b6200035d81620002f9565b81146200036957600080fd5b50565b6000815190506200037d8162000352565b92915050565b600080604083850312156200039d576200039c620002d4565b5b6000620003ad858286016200033b565b9250506020620003c0858286016200036c565b9150509250929050565b620003d581620002f9565b82525050565b6000602082019050620003f26000830184620003ca565b92915050565b61260780620004086000396000f3fe608060405234801561001057600080fd5b506004361061014d5760003560e01c80638d5d3429116100c3578063ba43a9221161007c578063ba43a92214610356578063c000bc6014610372578063e9e190a31461038e578063ebbb7de9146103c3578063f2fde38b146103df578063f5521bf1146103fb5761014d565b80638d5d3429146102965780638da5cb5b146102b2578063961bdfbf146102d057806397ed71eb146102ee578063ab7b1c891461030a578063ade8d29e146103265761014d565b8063650dfa1811610115578063650dfa18146101f8578063656f9ba414610214578063688aef481461023257806370f37d2714610250578063715018a61461026e57806373544cfd146102785761014d565b806309b8aafd146101525780630ea86ad8146101825780631fea5a6b146101a057806323be345c146101bc5780632af7e2ea146101da575b600080fd5b61016c6004803603810190610167919061197f565b610419565b60405161017991906119c5565b60405180910390f35b61018a61052e565b6040516101979190611a3f565b60405180910390f35b6101ba60048036038101906101b5919061197f565b610554565b005b6101c461075a565b6040516101d19190611a7b565b60405180910390f35b6101e2610780565b6040516101ef91906119c5565b60405180910390f35b610212600480360381019061020d9190611ac2565b610786565b005b61021c6107d4565b60405161022991906119c5565b60405180910390f35b61023a6108e7565b60405161024791906119c5565b60405180910390f35b6102586108ed565b60405161026591906119c5565b60405180910390f35b6102766108f3565b005b610280610907565b60405161028d9190611b08565b60405180910390f35b6102b060048036038101906102ab9190611ac2565b6109a8565b005b6102ba610dad565b6040516102c79190611b32565b60405180910390f35b6102d8610dd7565b6040516102e59190611b08565b60405180910390f35b61030860048036038101906103039190611ac2565b610e78565b005b610324600480360381019061031f9190611ac2565b610f7d565b005b610340600480360381019061033b919061197f565b6112c7565b60405161034d91906119c5565b60405180910390f35b610370600480360381019061036b9190611ac2565b6113ab565b005b61038c60048036038101906103879190611ac2565b6113f8565b005b6103a860048036038101906103a3919061197f565b611445565b6040516103ba96959493929190611b68565b60405180910390f35b6103dd60048036038101906103d8919061197f565b61149b565b005b6103f960048036038101906103f4919061197f565b6116eb565b005b610403611771565b60405161041091906119c5565b60405180910390f35b6000806000600360009054906101000a900473ffffffffffffffffffffffffffffffffffffffff1673ffffffffffffffffffffffffffffffffffffffff16632703ee85856040518263ffffffff1660e01b81526004016104799190611b32565b6040805180830381865afa158015610495573d6000803e3d6000fd5b505050506040513d601f19601f820116820180604052508101906104b99190611bde565b9150915060006104c7610907565b905060006104d3610dd7565b90506000670de0b6b3a764000082856104ec9190611c4d565b6104f69190611cbe565b670de0b6b3a7640000848761050b9190611c4d565b6105159190611cbe565b61051f9190611cef565b90508095505050505050919050565b600260009054906101000a900473ffffffffffffffffffffffffffffffffffffffff1681565b61055c611777565b6000600a60008373ffffffffffffffffffffffffffffffffffffffff1673ffffffffffffffffffffffffffffffffffffffff168152602001908152602001600020905060008160000154116105e6576040517f08c379a00000000000000000000000000000000000000000000000000000000081526004016105dd90611d80565b60405180910390fd5b8060040160019054906101000a900460ff16610637576040517f08c379a000000000000000000000000000000000000000000000000000000000815260040161062e90611dec565b60405180910390fd5b600360009054906101000a900473ffffffffffffffffffffffffffffffffffffffff1673ffffffffffffffffffffffffffffffffffffffff16631fea5a6b836040518263ffffffff1660e01b81526004016106929190611b32565b600060405180830381600087803b1580156106ac57600080fd5b505af11580156106c0573d6000803e3d6000fd5b50505050600a60008373ffffffffffffffffffffffffffffffffffffffff1673ffffffffffffffffffffffffffffffffffffffff1681526020019081526020016000206000808201600090556001820160009055600282016000905560038201600090556004820160006101000a81549060ff02191690556004820160016101000a81549060ff02191690555050506107576117bd565b50565b600360009054906101000a900473ffffffffffffffffffffffffffffffffffffffff1681565b60075481565b60648110156107ca576040517f08c379a00000000000000000000000000000000000000000000000000000000081526004016107c190611e58565b60405180910390fd5b8060058190555050565b6000806000600360009054906101000a900473ffffffffffffffffffffffffffffffffffffffff1673ffffffffffffffffffffffffffffffffffffffff16632703ee85336040518263ffffffff1660e01b81526004016108349190611b32565b6040805180830381865afa158015610850573d6000803e3d6000fd5b505050506040513d601f19601f820116820180604052508101906108749190611bde565b915091506000610882610907565b9050600061088e610dd7565b90506000670de0b6b3a764000082856108a79190611c4d565b6108b19190611cbe565b670de0b6b3a764000084876108c69190611c4d565b6108d09190611cbe565b6108da9190611cef565b9050809550505050505090565b60055481565b60045481565b6108fb6117c7565b610905600061184e565b565b600080600860009054906101000a900473ffffffffffffffffffffffffffffffffffffffff1673ffffffffffffffffffffffffffffffffffffffff1663feaf968c6040518163ffffffff1660e01b815260040160a060405180830381865afa158015610977573d6000803e3d6000fd5b505050506040513d601f19601f8201168201806040525081019061099b9190611ee6565b5050509150508091505090565b6109b0611777565b600081116109f3576040517f08c379a00000000000000000000000000000000000000000000000000000000081526004016109ea90611fd3565b60405180910390fd5b6000600a60003373ffffffffffffffffffffffffffffffffffffffff1673ffffffffffffffffffffffffffffffffffffffff1681526020019081526020016000206000015414610a78576040517f08c379a0000000000000000000000000000000000000000000000000000000008152600401610a6f90612065565b60405180910390fd5b600080600360009054906101000a900473ffffffffffffffffffffffffffffffffffffffff1673ffffffffffffffffffffffffffffffffffffffff16632703ee85336040518263ffffffff1660e01b8152600401610ad69190611b32565b6040805180830381865afa158015610af2573d6000803e3d6000fd5b505050506040513d601f19601f82011682018060405250810190610b169190611bde565b915091506000610b24610907565b90506000610b30610dd7565b90506000670de0b6b3a76400008386610b499190611c4d565b610b539190611cbe565b90506000670de0b6b3a76400008386610b6c9190611c4d565b610b769190611cbe565b905060008183610b869190611cef565b905060006040518060c001604052808a81526020016005815260200142815260200183815260200160001515815260200160001515815250905080600a60003373ffffffffffffffffffffffffffffffffffffffff1673ffffffffffffffffffffffffffffffffffffffff1681526020019081526020016000206000820151816000015560208201518160010155604082015181600201556060820151816003015560808201518160040160006101000a81548160ff02191690831515021790555060a08201518160040160016101000a81548160ff021916908315150217905550905050600260009054906101000a900473ffffffffffffffffffffffffffffffffffffffff1673ffffffffffffffffffffffffffffffffffffffff1663a9059cbb338b6040518363ffffffff1660e01b8152600401610cc8929190612085565b6020604051808303816000875af1158015610ce7573d6000803e3d6000fd5b505050506040513d601f19601f82011682018060405250810190610d0b91906120da565b610d4a576040517f08c379a0000000000000000000000000000000000000000000000000000000008152600401610d4190612179565b60405180910390fd5b3373ffffffffffffffffffffffffffffffffffffffff167f1c793c0fda4a6b2b79dd68d91d9f7fde8f7aa0878615c36a4624e6ccdbb1ead18a84604051610d92929190612199565b60405180910390a25050505050505050610daa6117bd565b50565b6000600160009054906101000a900473ffffffffffffffffffffffffffffffffffffffff16905090565b600080600960009054906101000a900473ffffffffffffffffffffffffffffffffffffffff1673ffffffffffffffffffffffffffffffffffffffff1663feaf968c6040518163ffffffff1660e01b815260040160a060405180830381865afa158015610e47573d6000803e3d6000fd5b505050506040513d601f19601f82011682018060405250810190610e6b9190611ee6565b5050509150508091505090565b610e806117c7565b600260009054906101000a900473ffffffffffffffffffffffffffffffffffffffff1673ffffffffffffffffffffffffffffffffffffffff166323b872dd3330846040518463ffffffff1660e01b8152600401610edf939291906121c2565b6020604051808303816000875af1158015610efe573d6000803e3d6000fd5b505050506040513d601f19601f82011682018060405250810190610f2291906120da565b610f61576040517f08c379a0000000000000000000000000000000000000000000000000000000008152600401610f589061226b565b60405180910390fd5b8060046000828254610f739190611cef565b9250508190555050565b610f85611777565b6000600a60003373ffffffffffffffffffffffffffffffffffffffff1673ffffffffffffffffffffffffffffffffffffffff1681526020019081526020016000209050600081600001541161100f576040517f08c379a000000000000000000000000000000000000000000000000000000000815260040161100690611d80565b60405180910390fd5b8060040160009054906101000a900460ff1615611061576040517f08c379a0000000000000000000000000000000000000000000000000000000008152600401611058906122fd565b60405180910390fd5b60006064826001015483600001546110799190611c4d565b6110839190611cbe565b82600001546110929190611cef565b9050808310156110d7576040517f08c379a00000000000000000000000000000000000000000000000000000000081526004016110ce9061238f565b60405180910390fd5b600260009054906101000a900473ffffffffffffffffffffffffffffffffffffffff1673ffffffffffffffffffffffffffffffffffffffff166323b872dd3330866040518463ffffffff1660e01b8152600401611136939291906121c2565b6020604051808303816000875af1158015611155573d6000803e3d6000fd5b505050506040513d601f19601f8201168201806040525081019061117991906120da565b6111b8576040517f08c379a00000000000000000000000000000000000000000000000000000000081526004016111af90612421565b60405180910390fd5b60018260040160006101000a81548160ff021916908315150217905550600360009054906101000a900473ffffffffffffffffffffffffffffffffffffffff1673ffffffffffffffffffffffffffffffffffffffff1663192e7a7b336040518263ffffffff1660e01b81526004016112309190611b32565b600060405180830381600087803b15801561124a57600080fd5b505af115801561125e573d6000803e3d6000fd5b505050503373ffffffffffffffffffffffffffffffffffffffff167fc7ce0a35f17b490de2a317e7fecb2cae86b1abffb03800b2f492823521382698836000015484600301546040516112b2929190612199565b60405180910390a250506112c46117bd565b50565b600080600a60008473ffffffffffffffffffffffffffffffffffffffff1673ffffffffffffffffffffffffffffffffffffffff1681526020019081526020016000206040518060c0016040529081600082015481526020016001820154815260200160028201548152602001600382015481526020016004820160009054906101000a900460ff161515151581526020016004820160019054906101000a900460ff161515151581525050905060648160200151826000015161138a9190611c4d565b6113949190611cbe565b81600001516113a39190611cef565b915050919050565b600081116113ee576040517f08c379a00000000000000000000000000000000000000000000000000000000081526004016113e59061248d565b60405180910390fd5b8060068190555050565b6000811161143b576040517f08c379a00000000000000000000000000000000000000000000000000000000081526004016114329061248d565b60405180910390fd5b8060078190555050565b600a6020528060005260406000206000915090508060000154908060010154908060020154908060030154908060040160009054906101000a900460ff16908060040160019054906101000a900460ff16905086565b6114a3611777565b6000600a60008373ffffffffffffffffffffffffffffffffffffffff1673ffffffffffffffffffffffffffffffffffffffff1681526020019081526020016000209050600081600001541161152d576040517f08c379a000000000000000000000000000000000000000000000000000000000815260040161152490611d80565b60405180910390fd5b8060040160019054906101000a900460ff161561157f576040517f08c379a00000000000000000000000000000000000000000000000000000000081526004016115769061251f565b60405180910390fd5b60075460065482600201546115949190611cef565b61159e9190611cef565b42116115df576040517f08c379a00000000000000000000000000000000000000000000000000000000081526004016115d6906125b1565b60405180910390fd5b60018160040160016101000a81548160ff021916908315150217905550600360009054906101000a900473ffffffffffffffffffffffffffffffffffffffff1673ffffffffffffffffffffffffffffffffffffffff16638e817efe82600301546040518263ffffffff1660e01b815260040161165b91906119c5565b600060405180830381600087803b15801561167557600080fd5b505af1158015611689573d6000803e3d6000fd5b505050508173ffffffffffffffffffffffffffffffffffffffff167f0be253503c49f8fb02046da3ef57bc2f5f881eb14ba5c2c26b54bf2fb4e7db0782600301546040516116d791906119c5565b60405180910390a2506116e86117bd565b50565b6116f36117c7565b600073ffffffffffffffffffffffffffffffffffffffff168173ffffffffffffffffffffffffffffffffffffffff16036117655760006040517f1e4fbdf700000000000000000000000000000000000000000000000000000000815260040161175c9190611b32565b60405180910390fd5b61176e8161184e565b50565b60065481565b6002600054036117b3576040517f3ee5aeb500000000000000000000000000000000000000000000000000000000815260040160405180910390fd5b6002600081905550565b6001600081905550565b6117cf611914565b73ffffffffffffffffffffffffffffffffffffffff166117ed610dad565b73ffffffffffffffffffffffffffffffffffffffff161461184c57611810611914565b6040517f118cdaa70000000000000000000000000000000000000000000000000000000081526004016118439190611b32565b60405180910390fd5b565b6000600160009054906101000a900473ffffffffffffffffffffffffffffffffffffffff16905081600160006101000a81548173ffffffffffffffffffffffffffffffffffffffff021916908373ffffffffffffffffffffffffffffffffffffffff1602179055508173ffffffffffffffffffffffffffffffffffffffff168173ffffffffffffffffffffffffffffffffffffffff167f8be0079c531659141344cd1fd0a4f28419497f9722a3daafe3b4186f6b6457e060405160405180910390a35050565b600033905090565b600080fd5b600073ffffffffffffffffffffffffffffffffffffffff82169050919050565b600061194c82611921565b9050919050565b61195c81611941565b811461196757600080fd5b50565b60008135905061197981611953565b92915050565b6000602082840312156119955761199461191c565b5b60006119a38482850161196a565b91505092915050565b6000819050919050565b6119bf816119ac565b82525050565b60006020820190506119da60008301846119b6565b92915050565b6000819050919050565b6000611a05611a006119fb84611921565b6119e0565b611921565b9050919050565b6000611a17826119ea565b9050919050565b6000611a2982611a0c565b9050919050565b611a3981611a1e565b82525050565b6000602082019050611a546000830184611a30565b92915050565b6000611a6582611a0c565b9050919050565b611a7581611a5a565b82525050565b6000602082019050611a906000830184611a6c565b92915050565b611a9f816119ac565b8114611aaa57600080fd5b50565b600081359050611abc81611a96565b92915050565b600060208284031215611ad857611ad761191c565b5b6000611ae684828501611aad565b91505092915050565b6000819050919050565b611b0281611aef565b82525050565b6000602082019050611b1d6000830184611af9565b92915050565b611b2c81611941565b82525050565b6000602082019050611b476000830184611b23565b92915050565b60008115159050919050565b611b6281611b4d565b82525050565b600060c082019050611b7d60008301896119b6565b611b8a60208301886119b6565b611b9760408301876119b6565b611ba460608301866119b6565b611bb16080830185611b59565b611bbe60a0830184611b59565b979650505050505050565b600081519050611bd881611a96565b92915050565b60008060408385031215611bf557611bf461191c565b5b6000611c0385828601611bc9565b9250506020611c1485828601611bc9565b9150509250929050565b7f4e487b7100000000000000000000000000000000000000000000000000000000600052601160045260246000fd5b6000611c58826119ac565b9150611c63836119ac565b9250828202611c71816119ac565b91508282048414831517611c8857611c87611c1e565b5b5092915050565b7f4e487b7100000000000000000000000000000000000000000000000000000000600052601260045260246000fd5b6000611cc9826119ac565b9150611cd4836119ac565b925082611ce457611ce3611c8f565b5b828204905092915050565b6000611cfa826119ac565b9150611d05836119ac565b9250828201905080821115611d1d57611d1c611c1e565b5b92915050565b600082825260208201905092915050565b7f4c6f616e4d616e616765723a204e6f20616374697665206c6f616e0000000000600082015250565b6000611d6a601b83611d23565b9150611d7582611d34565b602082019050919050565b60006020820190508181036000830152611d9981611d5d565b9050919050565b7f4c6f616e4d616e616765723a204c6f616e206e6f742064656661756c74656400600082015250565b6000611dd6601f83611d23565b9150611de182611da0565b602082019050919050565b60006020820190508181036000830152611e0581611dc9565b9050919050565b7f4c6f616e4d616e616765723a20496e76616c696420726174696f000000000000600082015250565b6000611e42601a83611d23565b9150611e4d82611e0c565b602082019050919050565b60006020820190508181036000830152611e7181611e35565b9050919050565b600069ffffffffffffffffffff82169050919050565b611e9781611e78565b8114611ea257600080fd5b50565b600081519050611eb481611e8e565b92915050565b611ec381611aef565b8114611ece57600080fd5b50565b600081519050611ee081611eba565b92915050565b600080600080600060a08688031215611f0257611f0161191c565b5b6000611f1088828901611ea5565b9550506020611f2188828901611ed1565b9450506040611f3288828901611bc9565b9350506060611f4388828901611bc9565b9250506080611f5488828901611ea5565b9150509295509295909350565b7f4c6f616e4d616e616765723a204c6f616e20616d6f756e74206d75737420626560008201527f2067726561746572207468616e20300000000000000000000000000000000000602082015250565b6000611fbd602f83611d23565b9150611fc882611f61565b604082019050919050565b60006020820190508181036000830152611fec81611fb0565b9050919050565b7f4c6f616e4d616e616765723a204578697374696e67206c6f616e206d7573742060008201527f6265207265706169642066697273740000000000000000000000000000000000602082015250565b600061204f602f83611d23565b915061205a82611ff3565b604082019050919050565b6000602082019050818103600083015261207e81612042565b9050919050565b600060408201905061209a6000830185611b23565b6120a760208301846119b6565b9392505050565b6120b781611b4d565b81146120c257600080fd5b50565b6000815190506120d4816120ae565b92915050565b6000602082840312156120f0576120ef61191c565b5b60006120fe848285016120c5565b91505092915050565b7f4c6f616e4d616e616765723a204c6f616e207472616e73666572206661696c6560008201527f6400000000000000000000000000000000000000000000000000000000000000602082015250565b6000612163602183611d23565b915061216e82612107565b604082019050919050565b6000602082019050818103600083015261219281612156565b9050919050565b60006040820190506121ae60008301856119b6565b6121bb60208301846119b6565b9392505050565b60006060820190506121d76000830186611b23565b6121e46020830185611b23565b6121f160408301846119b6565b949350505050565b7f4c6f616e4d616e616765723a2046756e64207472616e73666572206661696c6560008201527f6400000000000000000000000000000000000000000000000000000000000000602082015250565b6000612255602183611d23565b9150612260826121f9565b604082019050919050565b6000602082019050818103600083015261228481612248565b9050919050565b7f4c6f616e4d616e616765723a204c6f616e20697320616c72656164792072657060008201527f6169640000000000000000000000000000000000000000000000000000000000602082015250565b60006122e7602383611d23565b91506122f28261228b565b604082019050919050565b60006020820190508181036000830152612316816122da565b9050919050565b7f4c6f616e4d616e616765723a20496e73756666696369656e742072657061796d60008201527f656e7420616d6f756e7400000000000000000000000000000000000000000000602082015250565b6000612379602a83611d23565b91506123848261231d565b604082019050919050565b600060208201905081810360008301526123a88161236c565b9050919050565b7f4c6f616e4d616e616765723a2052657061796d656e74207472616e736665722060008201527f6661696c65640000000000000000000000000000000000000000000000000000602082015250565b600061240b602683611d23565b9150612416826123af565b604082019050919050565b6000602082019050818103600083015261243a816123fe565b9050919050565b7f4c6f616e4d616e616765723a20496e76616c6964206475726174696f6e000000600082015250565b6000612477601d83611d23565b915061248282612441565b602082019050919050565b600060208201905081810360008301526124a68161246a565b9050919050565b7f4c6f616e4d616e616765723a204c6f616e20616c72656164792064656661756c60008201527f7465640000000000000000000000000000000000000000000000000000000000602082015250565b6000612509602383611d23565b9150612514826124ad565b604082019050919050565b60006020820190508181036000830152612538816124fc565b9050919050565b7f4c6f616e4d616e616765723a204c6f616e206e6f742064656661756c7465642060008201527f7965740000000000000000000000000000000000000000000000000000000000602082015250565b600061259b602383611d23565b91506125a68261253f565b604082019050919050565b600060208201905081810360008301526125ca8161258e565b905091905056fea26469706673582212209aa6bd31f02d8cbe9d4aea77351708982b86e31bea5680ca3aa25dac580fb8b164736f6c63430008140033",
  "linkReferences": {},
  "deployedLinkReferences": {}
}