{
  "_format": "hh-sol-artifact-1",
  "contractName": "LoanManager",
  "sourceName": "contracts/LoanManager.sol",
  "abi": [
    {
      "inputs": [
        {
          "internalType": "contract ERC20",
          "name": "_cusdToken",
          "type": "address"
        },
        {
          "internalType": "address",
          "name": "_collateralManager",
          "type": "address"
        }
      ],
      "stateMutability": "nonpayable",
      "type": "constructor"
    },
    {
      "inputs": [
        {
          "internalType": "address",
          "name": "owner",
          "type": "address"
        }
      ],
      "name": "OwnableInvalidOwner",
      "type": "error"
    },
    {
      "inputs": [
        {
          "internalType": "address",
          "name": "account",
          "type": "address"
        }
      ],
      "name": "OwnableUnauthorizedAccount",
      "type": "error"
    },
    {
      "inputs": [],
      "name": "ReentrancyGuardReentrantCall",
      "type": "error"
    },
    {
      "anonymous": false,
      "inputs": [
        {
          "indexed": true,
          "internalType": "address",
          "name": "user",
          "type": "address"
        },
        {
          "indexed": false,
          "internalType": "uint256",
          "name": "collateralLiquidated",
          "type": "uint256"
        }
      ],
      "name": "LoanDefaulted",
      "type": "event"
    },
    {
      "anonymous": false,
      "inputs": [
        {
          "indexed": true,
          "internalType": "address",
          "name": "user",
          "type": "address"
        },
        {
          "indexed": false,
          "internalType": "uint256",
          "name": "amount",
          "type": "uint256"
        },
        {
          "indexed": false,
          "internalType": "uint256",
          "name": "collateral",
          "type": "uint256"
        }
      ],
      "name": "LoanIssued",
      "type": "event"
    },
    {
      "anonymous": false,
      "inputs": [
        {
          "indexed": true,
          "internalType": "address",
          "name": "user",
          "type": "address"
        },
        {
          "indexed": false,
          "internalType": "uint256",
          "name": "amount",
          "type": "uint256"
        },
        {
          "indexed": false,
          "internalType": "uint256",
          "name": "collateralReturned",
          "type": "uint256"
        }
      ],
      "name": "LoanRepaid",
      "type": "event"
    },
    {
      "anonymous": false,
      "inputs": [
        {
          "indexed": true,
          "internalType": "address",
          "name": "previousOwner",
          "type": "address"
        },
        {
          "indexed": true,
          "internalType": "address",
          "name": "newOwner",
          "type": "address"
        }
      ],
      "name": "OwnershipTransferred",
      "type": "event"
    },
    {
      "inputs": [
        {
          "internalType": "uint256",
          "name": "_amount",
          "type": "uint256"
        }
      ],
      "name": "addFundToPool",
      "outputs": [],
      "stateMutability": "nonpayable",
      "type": "function"
    },
    {
      "inputs": [],
      "name": "cUSDToken",
      "outputs": [
        {
          "internalType": "contract ERC20",
          "name": "",
          "type": "address"
        }
      ],
      "stateMutability": "view",
      "type": "function"
    },
    {
      "inputs": [
        {
          "internalType": "address",
          "name": "_user",
          "type": "address"
        }
      ],
      "name": "checkDefault",
      "outputs": [],
      "stateMutability": "nonpayable",
      "type": "function"
    },
    {
      "inputs": [],
      "name": "collateralManager",
      "outputs": [
        {
          "internalType": "contract CollateralManager",
          "name": "",
          "type": "address"
        }
      ],
      "stateMutability": "view",
      "type": "function"
    },
    {
      "inputs": [],
      "name": "collateralToLoanRatio",
      "outputs": [
        {
          "internalType": "uint256",
          "name": "",
          "type": "uint256"
        }
      ],
      "stateMutability": "view",
      "type": "function"
    },
    {
      "inputs": [],
      "name": "defaultDuration",
      "outputs": [
        {
          "internalType": "uint256",
          "name": "",
          "type": "uint256"
        }
      ],
      "stateMutability": "view",
      "type": "function"
    },
    {
      "inputs": [],
      "name": "fundPool",
      "outputs": [
        {
          "internalType": "uint256",
          "name": "",
          "type": "uint256"
        }
      ],
      "stateMutability": "view",
      "type": "function"
    },
    {
      "inputs": [],
      "name": "getCeloPrice",
      "outputs": [
        {
          "internalType": "int256",
          "name": "",
          "type": "int256"
        }
      ],
      "stateMutability": "view",
      "type": "function"
    },
    {
      "inputs": [
        {
          "internalType": "address",
          "name": "_user",
          "type": "address"
        }
      ],
      "name": "getCollateralBalanceinUSD",
      "outputs": [
        {
          "internalType": "uint256",
          "name": "",
          "type": "uint256"
        }
      ],
      "stateMutability": "view",
      "type": "function"
    },
    {
      "inputs": [
        {
          "internalType": "address",
          "name": "_user",
          "type": "address"
        }
      ],
      "name": "getLoanBalancewithInterest",
      "outputs": [
        {
          "internalType": "uint256",
          "name": "",
          "type": "uint256"
        }
      ],
      "stateMutability": "view",
      "type": "function"
    },
    {
      "inputs": [],
      "name": "getMaxLoanAmount",
      "outputs": [
        {
          "internalType": "uint256",
          "name": "",
          "type": "uint256"
        }
      ],
      "stateMutability": "view",
      "type": "function"
    },
    {
      "inputs": [],
      "name": "getUsdtPrice",
      "outputs": [
        {
          "internalType": "int256",
          "name": "",
          "type": "int256"
        }
      ],
      "stateMutability": "view",
      "type": "function"
    },
    {
      "inputs": [
        {
          "internalType": "address",
          "name": "_user",
          "type": "address"
        }
      ],
      "name": "liquidateCollateral",
      "outputs": [],
      "stateMutability": "nonpayable",
      "type": "function"
    },
    {
      "inputs": [],
      "name": "loanDuration",
      "outputs": [
        {
          "internalType": "uint256",
          "name": "",
          "type": "uint256"
        }
      ],
      "stateMutability": "view",
      "type": "function"
    },
    {
      "inputs": [],
      "name": "owner",
      "outputs": [
        {
          "internalType": "address",
          "name": "",
          "type": "address"
        }
      ],
      "stateMutability": "view",
      "type": "function"
    },
    {
      "inputs": [],
      "name": "renounceOwnership",
      "outputs": [],
      "stateMutability": "nonpayable",
      "type": "function"
    },
    {
      "inputs": [
        {
          "internalType": "uint256",
          "name": "_repayAmount",
          "type": "uint256"
        }
      ],
      "name": "repayLoan",
      "outputs": [],
      "stateMutability": "nonpayable",
      "type": "function"
    },
    {
      "inputs": [
        {
          "internalType": "uint256",
          "name": "_loanAmount",
          "type": "uint256"
        }
      ],
      "name": "requestLoan",
      "outputs": [],
      "stateMutability": "nonpayable",
      "type": "function"
    },
    {
      "inputs": [
        {
          "internalType": "address",
          "name": "newOwner",
          "type": "address"
        }
      ],
      "name": "transferOwnership",
      "outputs": [],
      "stateMutability": "nonpayable",
      "type": "function"
    },
    {
      "inputs": [
        {
          "internalType": "uint256",
          "name": "_newRatio",
          "type": "uint256"
        }
      ],
      "name": "updateCollateralToLoanRatio",
      "outputs": [],
      "stateMutability": "nonpayable",
      "type": "function"
    },
    {
      "inputs": [
        {
          "internalType": "uint256",
          "name": "_newDuration",
          "type": "uint256"
        }
      ],
      "name": "updateDefaultDuration",
      "outputs": [],
      "stateMutability": "nonpayable",
      "type": "function"
    },
    {
      "inputs": [
        {
          "internalType": "uint256",
          "name": "_newDuration",
          "type": "uint256"
        }
      ],
      "name": "updateLoanDuration",
      "outputs": [],
      "stateMutability": "nonpayable",
      "type": "function"
    },
    {
      "inputs": [
        {
          "internalType": "address",
          "name": "",
          "type": "address"
        }
      ],
      "name": "userLoans",
      "outputs": [
        {
          "internalType": "uint256",
          "name": "amount",
          "type": "uint256"
        },
        {
          "internalType": "uint256",
          "name": "interestRate",
          "type": "uint256"
        },
        {
          "internalType": "uint256",
          "name": "startTime",
          "type": "uint256"
        },
        {
          "internalType": "uint256",
          "name": "collateral",
          "type": "uint256"
        },
        {
          "internalType": "bool",
          "name": "isRepaid",
          "type": "bool"
        },
        {
          "internalType": "bool",
          "name": "isDefaulted",
          "type": "bool"
        }
      ],
      "stateMutability": "view",
      "type": "function"
    }
  ],
  "bytecode": "0x6080604052609660055562278d00600655620d2f006007553480156200002457600080fd5b5060405162002ae438038062002ae483398181016040528101906200004a919062000383565b336001600081905550600073ffffffffffffffffffffffffffffffffffffffff168173ffffffffffffffffffffffffffffffffffffffff1603620000c85760006040517f1e4fbdf7000000000000000000000000000000000000000000000000000000008152600401620000bf9190620003db565b60405180910390fd5b620000d9816200020e60201b60201c565b5081600260006101000a81548173ffffffffffffffffffffffffffffffffffffffff021916908373ffffffffffffffffffffffffffffffffffffffff16021790555080600360006101000a81548173ffffffffffffffffffffffffffffffffffffffff021916908373ffffffffffffffffffffffffffffffffffffffff16021790555073022f9dcc73c5fb43f2b4ef2ef9ad3edd1d853946600860006101000a81548173ffffffffffffffffffffffffffffffffffffffff021916908373ffffffffffffffffffffffffffffffffffffffff160217905550737bcb65b53d5a7ffd2119449b8cbc370c9058fd52600960006101000a81548173ffffffffffffffffffffffffffffffffffffffff021916908373ffffffffffffffffffffffffffffffffffffffff1602179055505050620003f8565b6000600160009054906101000a900473ffffffffffffffffffffffffffffffffffffffff16905081600160006101000a81548173ffffffffffffffffffffffffffffffffffffffff021916908373ffffffffffffffffffffffffffffffffffffffff1602179055508173ffffffffffffffffffffffffffffffffffffffff168173ffffffffffffffffffffffffffffffffffffffff167f8be0079c531659141344cd1fd0a4f28419497f9722a3daafe3b4186f6b6457e060405160405180910390a35050565b600080fd5b600073ffffffffffffffffffffffffffffffffffffffff82169050919050565b60006200030682620002d9565b9050919050565b60006200031a82620002f9565b9050919050565b6200032c816200030d565b81146200033857600080fd5b50565b6000815190506200034c8162000321565b92915050565b6200035d81620002f9565b81146200036957600080fd5b50565b6000815190506200037d8162000352565b92915050565b600080604083850312156200039d576200039c620002d4565b5b6000620003ad858286016200033b565b9250506020620003c0858286016200036c565b9150509250929050565b620003d581620002f9565b82525050565b6000602082019050620003f26000830184620003ca565b92915050565b6126dc80620004086000396000f3fe608060405234801561001057600080fd5b506004361061014d5760003560e01c80638d5d3429116100c3578063ba43a9221161007c578063ba43a92214610356578063c000bc6014610372578063e9e190a31461038e578063ebbb7de9146103c3578063f2fde38b146103df578063f5521bf1146103fb5761014d565b80638d5d3429146102965780638da5cb5b146102b2578063961bdfbf146102d057806397ed71eb146102ee578063ab7b1c891461030a578063ade8d29e146103265761014d565b8063650dfa1811610115578063650dfa18146101f8578063656f9ba414610214578063688aef481461023257806370f37d2714610250578063715018a61461026e57806373544cfd146102785761014d565b806309b8aafd146101525780630ea86ad8146101825780631fea5a6b146101a057806323be345c146101bc5780632af7e2ea146101da575b600080fd5b61016c600480360381019061016791906119c2565b610419565b6040516101799190611a08565b60405180910390f35b61018a61052e565b6040516101979190611a82565b60405180910390f35b6101ba60048036038101906101b591906119c2565b610554565b005b6101c461075a565b6040516101d19190611abe565b60405180910390f35b6101e2610780565b6040516101ef9190611a08565b60405180910390f35b610212600480360381019061020d9190611b05565b610786565b005b61021c6107d4565b6040516102299190611a08565b60405180910390f35b61023a6108e7565b6040516102479190611a08565b60405180910390f35b6102586108ed565b6040516102659190611a08565b60405180910390f35b6102766108f3565b005b610280610907565b60405161028d9190611b4b565b60405180910390f35b6102b060048036038101906102ab9190611b05565b6109a8565b005b6102ba610df0565b6040516102c79190611b75565b60405180910390f35b6102d8610e1a565b6040516102e59190611b4b565b60405180910390f35b61030860048036038101906103039190611b05565b610ebb565b005b610324600480360381019061031f9190611b05565b610fc0565b005b610340600480360381019061033b91906119c2565b61130a565b60405161034d9190611a08565b60405180910390f35b610370600480360381019061036b9190611b05565b6113ee565b005b61038c60048036038101906103879190611b05565b61143b565b005b6103a860048036038101906103a391906119c2565b611488565b6040516103ba96959493929190611bab565b60405180910390f35b6103dd60048036038101906103d891906119c2565b6114de565b005b6103f960048036038101906103f491906119c2565b61172e565b005b6104036117b4565b6040516104109190611a08565b60405180910390f35b6000806000600360009054906101000a900473ffffffffffffffffffffffffffffffffffffffff1673ffffffffffffffffffffffffffffffffffffffff16632703ee85856040518263ffffffff1660e01b81526004016104799190611b75565b6040805180830381865afa158015610495573d6000803e3d6000fd5b505050506040513d601f19601f820116820180604052508101906104b99190611c21565b9150915060006104c7610907565b905060006104d3610e1a565b90506000670de0b6b3a764000082856104ec9190611c90565b6104f69190611d01565b670de0b6b3a7640000848761050b9190611c90565b6105159190611d01565b61051f9190611d32565b90508095505050505050919050565b600260009054906101000a900473ffffffffffffffffffffffffffffffffffffffff1681565b61055c6117ba565b6000600a60008373ffffffffffffffffffffffffffffffffffffffff1673ffffffffffffffffffffffffffffffffffffffff168152602001908152602001600020905060008160000154116105e6576040517f08c379a00000000000000000000000000000000000000000000000000000000081526004016105dd90611dc3565b60405180910390fd5b8060040160019054906101000a900460ff16610637576040517f08c379a000000000000000000000000000000000000000000000000000000000815260040161062e90611e2f565b60405180910390fd5b600360009054906101000a900473ffffffffffffffffffffffffffffffffffffffff1673ffffffffffffffffffffffffffffffffffffffff16631fea5a6b836040518263ffffffff1660e01b81526004016106929190611b75565b600060405180830381600087803b1580156106ac57600080fd5b505af11580156106c0573d6000803e3d6000fd5b50505050600a60008373ffffffffffffffffffffffffffffffffffffffff1673ffffffffffffffffffffffffffffffffffffffff1681526020019081526020016000206000808201600090556001820160009055600282016000905560038201600090556004820160006101000a81549060ff02191690556004820160016101000a81549060ff0219169055505050610757611800565b50565b600360009054906101000a900473ffffffffffffffffffffffffffffffffffffffff1681565b60075481565b60648110156107ca576040517f08c379a00000000000000000000000000000000000000000000000000000000081526004016107c190611e9b565b60405180910390fd5b8060058190555050565b6000806000600360009054906101000a900473ffffffffffffffffffffffffffffffffffffffff1673ffffffffffffffffffffffffffffffffffffffff16632703ee85336040518263ffffffff1660e01b81526004016108349190611b75565b6040805180830381865afa158015610850573d6000803e3d6000fd5b505050506040513d601f19601f820116820180604052508101906108749190611c21565b915091506000610882610907565b9050600061088e610e1a565b90506000670de0b6b3a764000082856108a79190611c90565b6108b19190611d01565b670de0b6b3a764000084876108c69190611c90565b6108d09190611d01565b6108da9190611d32565b9050809550505050505090565b60055481565b60045481565b6108fb61180a565b6109056000611891565b565b600080600860009054906101000a900473ffffffffffffffffffffffffffffffffffffffff1673ffffffffffffffffffffffffffffffffffffffff1663feaf968c6040518163ffffffff1660e01b815260040160a060405180830381865afa158015610977573d6000803e3d6000fd5b505050506040513d601f19601f8201168201806040525081019061099b9190611f29565b5050509150508091505090565b6109b06117ba565b600081116109f3576040517f08c379a00000000000000000000000000000000000000000000000000000000081526004016109ea90612016565b60405180910390fd5b6000600a60003373ffffffffffffffffffffffffffffffffffffffff1673ffffffffffffffffffffffffffffffffffffffff1681526020019081526020016000206000015414610a78576040517f08c379a0000000000000000000000000000000000000000000000000000000008152600401610a6f906120a8565b60405180910390fd5b600080600360009054906101000a900473ffffffffffffffffffffffffffffffffffffffff1673ffffffffffffffffffffffffffffffffffffffff16632703ee85336040518263ffffffff1660e01b8152600401610ad69190611b75565b6040805180830381865afa158015610af2573d6000803e3d6000fd5b505050506040513d601f19601f82011682018060405250810190610b169190611c21565b915091506000610b24610907565b90506000610b30610e1a565b90506000670de0b6b3a76400008386610b499190611c90565b610b539190611d01565b90506000670de0b6b3a76400008386610b6c9190611c90565b610b769190611d01565b905060008183610b869190611d32565b905087811015610bcb576040517f08c379a0000000000000000000000000000000000000000000000000000000008152600401610bc29061213a565b60405180910390fd5b60006040518060c001604052808a81526020016005815260200142815260200183815260200160001515815260200160001515815250905080600a60003373ffffffffffffffffffffffffffffffffffffffff1673ffffffffffffffffffffffffffffffffffffffff1681526020019081526020016000206000820151816000015560208201518160010155604082015181600201556060820151816003015560808201518160040160006101000a81548160ff02191690831515021790555060a08201518160040160016101000a81548160ff021916908315150217905550905050600260009054906101000a900473ffffffffffffffffffffffffffffffffffffffff1673ffffffffffffffffffffffffffffffffffffffff1663a9059cbb338b6040518363ffffffff1660e01b8152600401610d0b92919061215a565b6020604051808303816000875af1158015610d2a573d6000803e3d6000fd5b505050506040513d601f19601f82011682018060405250810190610d4e91906121af565b610d8d576040517f08c379a0000000000000000000000000000000000000000000000000000000008152600401610d849061224e565b60405180910390fd5b3373ffffffffffffffffffffffffffffffffffffffff167f1c793c0fda4a6b2b79dd68d91d9f7fde8f7aa0878615c36a4624e6ccdbb1ead18a84604051610dd592919061226e565b60405180910390a25050505050505050610ded611800565b50565b6000600160009054906101000a900473ffffffffffffffffffffffffffffffffffffffff16905090565b600080600960009054906101000a900473ffffffffffffffffffffffffffffffffffffffff1673ffffffffffffffffffffffffffffffffffffffff1663feaf968c6040518163ffffffff1660e01b815260040160a060405180830381865afa158015610e8a573d6000803e3d6000fd5b505050506040513d601f19601f82011682018060405250810190610eae9190611f29565b5050509150508091505090565b610ec361180a565b600260009054906101000a900473ffffffffffffffffffffffffffffffffffffffff1673ffffffffffffffffffffffffffffffffffffffff166323b872dd3330846040518463ffffffff1660e01b8152600401610f2293929190612297565b6020604051808303816000875af1158015610f41573d6000803e3d6000fd5b505050506040513d601f19601f82011682018060405250810190610f6591906121af565b610fa4576040517f08c379a0000000000000000000000000000000000000000000000000000000008152600401610f9b90612340565b60405180910390fd5b8060046000828254610fb69190611d32565b9250508190555050565b610fc86117ba565b6000600a60003373ffffffffffffffffffffffffffffffffffffffff1673ffffffffffffffffffffffffffffffffffffffff16815260200190815260200160002090506000816000015411611052576040517f08c379a000000000000000000000000000000000000000000000000000000000815260040161104990611dc3565b60405180910390fd5b8060040160009054906101000a900460ff16156110a4576040517f08c379a000000000000000000000000000000000000000000000000000000000815260040161109b906123d2565b60405180910390fd5b60006064826001015483600001546110bc9190611c90565b6110c69190611d01565b82600001546110d59190611d32565b90508083101561111a576040517f08c379a000000000000000000000000000000000000000000000000000000000815260040161111190612464565b60405180910390fd5b600260009054906101000a900473ffffffffffffffffffffffffffffffffffffffff1673ffffffffffffffffffffffffffffffffffffffff166323b872dd3330866040518463ffffffff1660e01b815260040161117993929190612297565b6020604051808303816000875af1158015611198573d6000803e3d6000fd5b505050506040513d601f19601f820116820180604052508101906111bc91906121af565b6111fb576040517f08c379a00000000000000000000000000000000000000000000000000000000081526004016111f2906124f6565b60405180910390fd5b60018260040160006101000a81548160ff021916908315150217905550600360009054906101000a900473ffffffffffffffffffffffffffffffffffffffff1673ffffffffffffffffffffffffffffffffffffffff1663192e7a7b336040518263ffffffff1660e01b81526004016112739190611b75565b600060405180830381600087803b15801561128d57600080fd5b505af11580156112a1573d6000803e3d6000fd5b505050503373ffffffffffffffffffffffffffffffffffffffff167fc7ce0a35f17b490de2a317e7fecb2cae86b1abffb03800b2f492823521382698836000015484600301546040516112f592919061226e565b60405180910390a25050611307611800565b50565b600080600a60008473ffffffffffffffffffffffffffffffffffffffff1673ffffffffffffffffffffffffffffffffffffffff1681526020019081526020016000206040518060c0016040529081600082015481526020016001820154815260200160028201548152602001600382015481526020016004820160009054906101000a900460ff161515151581526020016004820160019054906101000a900460ff16151515158152505090506064816020015182600001516113cd9190611c90565b6113d79190611d01565b81600001516113e69190611d32565b915050919050565b60008111611431576040517f08c379a000000000000000000000000000000000000000000000000000000000815260040161142890612562565b60405180910390fd5b8060068190555050565b6000811161147e576040517f08c379a000000000000000000000000000000000000000000000000000000000815260040161147590612562565b60405180910390fd5b8060078190555050565b600a6020528060005260406000206000915090508060000154908060010154908060020154908060030154908060040160009054906101000a900460ff16908060040160019054906101000a900460ff16905086565b6114e66117ba565b6000600a60008373ffffffffffffffffffffffffffffffffffffffff1673ffffffffffffffffffffffffffffffffffffffff16815260200190815260200160002090506000816000015411611570576040517f08c379a000000000000000000000000000000000000000000000000000000000815260040161156790611dc3565b60405180910390fd5b8060040160019054906101000a900460ff16156115c2576040517f08c379a00000000000000000000000000000000000000000000000000000000081526004016115b9906125f4565b60405180910390fd5b60075460065482600201546115d79190611d32565b6115e19190611d32565b4211611622576040517f08c379a000000000000000000000000000000000000000000000000000000000815260040161161990612686565b60405180910390fd5b60018160040160016101000a81548160ff021916908315150217905550600360009054906101000a900473ffffffffffffffffffffffffffffffffffffffff1673ffffffffffffffffffffffffffffffffffffffff16638e817efe82600301546040518263ffffffff1660e01b815260040161169e9190611a08565b600060405180830381600087803b1580156116b857600080fd5b505af11580156116cc573d6000803e3d6000fd5b505050508173ffffffffffffffffffffffffffffffffffffffff167f0be253503c49f8fb02046da3ef57bc2f5f881eb14ba5c2c26b54bf2fb4e7db07826003015460405161171a9190611a08565b60405180910390a25061172b611800565b50565b61173661180a565b600073ffffffffffffffffffffffffffffffffffffffff168173ffffffffffffffffffffffffffffffffffffffff16036117a85760006040517f1e4fbdf700000000000000000000000000000000000000000000000000000000815260040161179f9190611b75565b60405180910390fd5b6117b181611891565b50565b60065481565b6002600054036117f6576040517f3ee5aeb500000000000000000000000000000000000000000000000000000000815260040160405180910390fd5b6002600081905550565b6001600081905550565b611812611957565b73ffffffffffffffffffffffffffffffffffffffff16611830610df0565b73ffffffffffffffffffffffffffffffffffffffff161461188f57611853611957565b6040517f118cdaa70000000000000000000000000000000000000000000000000000000081526004016118869190611b75565b60405180910390fd5b565b6000600160009054906101000a900473ffffffffffffffffffffffffffffffffffffffff16905081600160006101000a81548173ffffffffffffffffffffffffffffffffffffffff021916908373ffffffffffffffffffffffffffffffffffffffff1602179055508173ffffffffffffffffffffffffffffffffffffffff168173ffffffffffffffffffffffffffffffffffffffff167f8be0079c531659141344cd1fd0a4f28419497f9722a3daafe3b4186f6b6457e060405160405180910390a35050565b600033905090565b600080fd5b600073ffffffffffffffffffffffffffffffffffffffff82169050919050565b600061198f82611964565b9050919050565b61199f81611984565b81146119aa57600080fd5b50565b6000813590506119bc81611996565b92915050565b6000602082840312156119d8576119d761195f565b5b60006119e6848285016119ad565b91505092915050565b6000819050919050565b611a02816119ef565b82525050565b6000602082019050611a1d60008301846119f9565b92915050565b6000819050919050565b6000611a48611a43611a3e84611964565b611a23565b611964565b9050919050565b6000611a5a82611a2d565b9050919050565b6000611a6c82611a4f565b9050919050565b611a7c81611a61565b82525050565b6000602082019050611a976000830184611a73565b92915050565b6000611aa882611a4f565b9050919050565b611ab881611a9d565b82525050565b6000602082019050611ad36000830184611aaf565b92915050565b611ae2816119ef565b8114611aed57600080fd5b50565b600081359050611aff81611ad9565b92915050565b600060208284031215611b1b57611b1a61195f565b5b6000611b2984828501611af0565b91505092915050565b6000819050919050565b611b4581611b32565b82525050565b6000602082019050611b606000830184611b3c565b92915050565b611b6f81611984565b82525050565b6000602082019050611b8a6000830184611b66565b92915050565b60008115159050919050565b611ba581611b90565b82525050565b600060c082019050611bc060008301896119f9565b611bcd60208301886119f9565b611bda60408301876119f9565b611be760608301866119f9565b611bf46080830185611b9c565b611c0160a0830184611b9c565b979650505050505050565b600081519050611c1b81611ad9565b92915050565b60008060408385031215611c3857611c3761195f565b5b6000611c4685828601611c0c565b9250506020611c5785828601611c0c565b9150509250929050565b7f4e487b7100000000000000000000000000000000000000000000000000000000600052601160045260246000fd5b6000611c9b826119ef565b9150611ca6836119ef565b9250828202611cb4816119ef565b91508282048414831517611ccb57611cca611c61565b5b5092915050565b7f4e487b7100000000000000000000000000000000000000000000000000000000600052601260045260246000fd5b6000611d0c826119ef565b9150611d17836119ef565b925082611d2757611d26611cd2565b5b828204905092915050565b6000611d3d826119ef565b9150611d48836119ef565b9250828201905080821115611d6057611d5f611c61565b5b92915050565b600082825260208201905092915050565b7f4c6f616e4d616e616765723a204e6f20616374697665206c6f616e0000000000600082015250565b6000611dad601b83611d66565b9150611db882611d77565b602082019050919050565b60006020820190508181036000830152611ddc81611da0565b9050919050565b7f4c6f616e4d616e616765723a204c6f616e206e6f742064656661756c74656400600082015250565b6000611e19601f83611d66565b9150611e2482611de3565b602082019050919050565b60006020820190508181036000830152611e4881611e0c565b9050919050565b7f4c6f616e4d616e616765723a20496e76616c696420726174696f000000000000600082015250565b6000611e85601a83611d66565b9150611e9082611e4f565b602082019050919050565b60006020820190508181036000830152611eb481611e78565b9050919050565b600069ffffffffffffffffffff82169050919050565b611eda81611ebb565b8114611ee557600080fd5b50565b600081519050611ef781611ed1565b92915050565b611f0681611b32565b8114611f1157600080fd5b50565b600081519050611f2381611efd565b92915050565b600080600080600060a08688031215611f4557611f4461195f565b5b6000611f5388828901611ee8565b9550506020611f6488828901611f14565b9450506040611f7588828901611c0c565b9350506060611f8688828901611c0c565b9250506080611f9788828901611ee8565b9150509295509295909350565b7f4c6f616e4d616e616765723a204c6f616e20616d6f756e74206d75737420626560008201527f2067726561746572207468616e20300000000000000000000000000000000000602082015250565b6000612000602f83611d66565b915061200b82611fa4565b604082019050919050565b6000602082019050818103600083015261202f81611ff3565b9050919050565b7f4c6f616e4d616e616765723a204578697374696e67206c6f616e206d7573742060008201527f6265207265706169642066697273740000000000000000000000000000000000602082015250565b6000612092602f83611d66565b915061209d82612036565b604082019050919050565b600060208201905081810360008301526120c181612085565b9050919050565b7f4c6f616e4d616e616765723a20496e73756666696369656e7420636f6c6c617460008201527f6572616c00000000000000000000000000000000000000000000000000000000602082015250565b6000612124602483611d66565b915061212f826120c8565b604082019050919050565b6000602082019050818103600083015261215381612117565b9050919050565b600060408201905061216f6000830185611b66565b61217c60208301846119f9565b9392505050565b61218c81611b90565b811461219757600080fd5b50565b6000815190506121a981612183565b92915050565b6000602082840312156121c5576121c461195f565b5b60006121d38482850161219a565b91505092915050565b7f4c6f616e4d616e616765723a204c6f616e207472616e73666572206661696c6560008201527f6400000000000000000000000000000000000000000000000000000000000000602082015250565b6000612238602183611d66565b9150612243826121dc565b604082019050919050565b600060208201905081810360008301526122678161222b565b9050919050565b600060408201905061228360008301856119f9565b61229060208301846119f9565b9392505050565b60006060820190506122ac6000830186611b66565b6122b96020830185611b66565b6122c660408301846119f9565b949350505050565b7f4c6f616e4d616e616765723a2046756e64207472616e73666572206661696c6560008201527f6400000000000000000000000000000000000000000000000000000000000000602082015250565b600061232a602183611d66565b9150612335826122ce565b604082019050919050565b600060208201905081810360008301526123598161231d565b9050919050565b7f4c6f616e4d616e616765723a204c6f616e20697320616c72656164792072657060008201527f6169640000000000000000000000000000000000000000000000000000000000602082015250565b60006123bc602383611d66565b91506123c782612360565b604082019050919050565b600060208201905081810360008301526123eb816123af565b9050919050565b7f4c6f616e4d616e616765723a20496e73756666696369656e742072657061796d60008201527f656e7420616d6f756e7400000000000000000000000000000000000000000000602082015250565b600061244e602a83611d66565b9150612459826123f2565b604082019050919050565b6000602082019050818103600083015261247d81612441565b9050919050565b7f4c6f616e4d616e616765723a2052657061796d656e74207472616e736665722060008201527f6661696c65640000000000000000000000000000000000000000000000000000602082015250565b60006124e0602683611d66565b91506124eb82612484565b604082019050919050565b6000602082019050818103600083015261250f816124d3565b9050919050565b7f4c6f616e4d616e616765723a20496e76616c6964206475726174696f6e000000600082015250565b600061254c601d83611d66565b915061255782612516565b602082019050919050565b6000602082019050818103600083015261257b8161253f565b9050919050565b7f4c6f616e4d616e616765723a204c6f616e20616c72656164792064656661756c60008201527f7465640000000000000000000000000000000000000000000000000000000000602082015250565b60006125de602383611d66565b91506125e982612582565b604082019050919050565b6000602082019050818103600083015261260d816125d1565b9050919050565b7f4c6f616e4d616e616765723a204c6f616e206e6f742064656661756c7465642060008201527f7965740000000000000000000000000000000000000000000000000000000000602082015250565b6000612670602383611d66565b915061267b82612614565b604082019050919050565b6000602082019050818103600083015261269f81612663565b905091905056fea264697066735822122075c2d9ac5b4a31553b9bb0f5be440e4bb7424598b5ef3db56dc6ba55cced73ca64736f6c63430008140033",
  "linkReferences": {},
  "deployedLinkReferences": {}
}