{
  "_format": "hh-sol-artifact-1",
  "contractName": "LoanManager",
  "sourceName": "contracts/LoanManager.sol",
  "abi": [
    {
      "inputs": [
        {
          "internalType": "contract ERC20",
          "name": "_cUSDToken",
          "type": "address"
        },
        {
          "internalType": "address",
          "name": "_collateralManager",
          "type": "address"
        },
        {
          "internalType": "address",
          "name": "_priceOracle",
          "type": "address"
        }
      ],
      "stateMutability": "nonpayable",
      "type": "constructor"
    },
    {
      "inputs": [
        {
          "internalType": "address",
          "name": "owner",
          "type": "address"
        }
      ],
      "name": "OwnableInvalidOwner",
      "type": "error"
    },
    {
      "inputs": [
        {
          "internalType": "address",
          "name": "account",
          "type": "address"
        }
      ],
      "name": "OwnableUnauthorizedAccount",
      "type": "error"
    },
    {
      "inputs": [],
      "name": "ReentrancyGuardReentrantCall",
      "type": "error"
    },
    {
      "anonymous": false,
      "inputs": [
        {
          "indexed": true,
          "internalType": "address",
          "name": "user",
          "type": "address"
        },
        {
          "indexed": false,
          "internalType": "uint256",
          "name": "collateralLiquidated",
          "type": "uint256"
        }
      ],
      "name": "LoanDefaulted",
      "type": "event"
    },
    {
      "anonymous": false,
      "inputs": [
        {
          "indexed": true,
          "internalType": "address",
          "name": "user",
          "type": "address"
        },
        {
          "indexed": false,
          "internalType": "uint256",
          "name": "amount",
          "type": "uint256"
        },
        {
          "indexed": false,
          "internalType": "uint256",
          "name": "collateral",
          "type": "uint256"
        }
      ],
      "name": "LoanIssued",
      "type": "event"
    },
    {
      "anonymous": false,
      "inputs": [
        {
          "indexed": true,
          "internalType": "address",
          "name": "user",
          "type": "address"
        },
        {
          "indexed": false,
          "internalType": "uint256",
          "name": "amount",
          "type": "uint256"
        },
        {
          "indexed": false,
          "internalType": "uint256",
          "name": "collateralReturned",
          "type": "uint256"
        }
      ],
      "name": "LoanRepaid",
      "type": "event"
    },
    {
      "anonymous": false,
      "inputs": [
        {
          "indexed": true,
          "internalType": "address",
          "name": "previousOwner",
          "type": "address"
        },
        {
          "indexed": true,
          "internalType": "address",
          "name": "newOwner",
          "type": "address"
        }
      ],
      "name": "OwnershipTransferred",
      "type": "event"
    },
    {
      "inputs": [
        {
          "internalType": "uint256",
          "name": "_amount",
          "type": "uint256"
        }
      ],
      "name": "addFundToPool",
      "outputs": [],
      "stateMutability": "nonpayable",
      "type": "function"
    },
    {
      "inputs": [],
      "name": "cUSDToken",
      "outputs": [
        {
          "internalType": "contract ERC20",
          "name": "",
          "type": "address"
        }
      ],
      "stateMutability": "view",
      "type": "function"
    },
    {
      "inputs": [
        {
          "internalType": "address",
          "name": "_user",
          "type": "address"
        }
      ],
      "name": "checkDefault",
      "outputs": [],
      "stateMutability": "nonpayable",
      "type": "function"
    },
    {
      "inputs": [],
      "name": "collateralManager",
      "outputs": [
        {
          "internalType": "contract CollateralManager",
          "name": "",
          "type": "address"
        }
      ],
      "stateMutability": "view",
      "type": "function"
    },
    {
      "inputs": [],
      "name": "collateralToLoanRatio",
      "outputs": [
        {
          "internalType": "uint256",
          "name": "",
          "type": "uint256"
        }
      ],
      "stateMutability": "view",
      "type": "function"
    },
    {
      "inputs": [],
      "name": "defaultDuration",
      "outputs": [
        {
          "internalType": "uint256",
          "name": "",
          "type": "uint256"
        }
      ],
      "stateMutability": "view",
      "type": "function"
    },
    {
      "inputs": [],
      "name": "fundPool",
      "outputs": [
        {
          "internalType": "uint256",
          "name": "",
          "type": "uint256"
        }
      ],
      "stateMutability": "view",
      "type": "function"
    },
    {
      "inputs": [],
      "name": "getMaxLoanAmount",
      "outputs": [
        {
          "internalType": "uint256",
          "name": "",
          "type": "uint256"
        }
      ],
      "stateMutability": "view",
      "type": "function"
    },
    {
      "inputs": [],
      "name": "loanDuration",
      "outputs": [
        {
          "internalType": "uint256",
          "name": "",
          "type": "uint256"
        }
      ],
      "stateMutability": "view",
      "type": "function"
    },
    {
      "inputs": [],
      "name": "owner",
      "outputs": [
        {
          "internalType": "address",
          "name": "",
          "type": "address"
        }
      ],
      "stateMutability": "view",
      "type": "function"
    },
    {
      "inputs": [],
      "name": "priceOracle",
      "outputs": [
        {
          "internalType": "contract MellowFiPriceOracle",
          "name": "",
          "type": "address"
        }
      ],
      "stateMutability": "view",
      "type": "function"
    },
    {
      "inputs": [],
      "name": "renounceOwnership",
      "outputs": [],
      "stateMutability": "nonpayable",
      "type": "function"
    },
    {
      "inputs": [
        {
          "internalType": "uint256",
          "name": "_repayAmount",
          "type": "uint256"
        }
      ],
      "name": "repayLoan",
      "outputs": [],
      "stateMutability": "nonpayable",
      "type": "function"
    },
    {
      "inputs": [
        {
          "internalType": "uint256",
          "name": "_loanAmount",
          "type": "uint256"
        }
      ],
      "name": "requestLoan",
      "outputs": [],
      "stateMutability": "nonpayable",
      "type": "function"
    },
    {
      "inputs": [
        {
          "internalType": "address",
          "name": "newOwner",
          "type": "address"
        }
      ],
      "name": "transferOwnership",
      "outputs": [],
      "stateMutability": "nonpayable",
      "type": "function"
    },
    {
      "inputs": [
        {
          "internalType": "uint256",
          "name": "_newRatio",
          "type": "uint256"
        }
      ],
      "name": "updateCollateralToLoanRatio",
      "outputs": [],
      "stateMutability": "nonpayable",
      "type": "function"
    },
    {
      "inputs": [
        {
          "internalType": "uint256",
          "name": "_newDuration",
          "type": "uint256"
        }
      ],
      "name": "updateDefaultDuration",
      "outputs": [],
      "stateMutability": "nonpayable",
      "type": "function"
    },
    {
      "inputs": [
        {
          "internalType": "uint256",
          "name": "_newDuration",
          "type": "uint256"
        }
      ],
      "name": "updateLoanDuration",
      "outputs": [],
      "stateMutability": "nonpayable",
      "type": "function"
    },
    {
      "inputs": [
        {
          "internalType": "address",
          "name": "",
          "type": "address"
        }
      ],
      "name": "userLoans",
      "outputs": [
        {
          "internalType": "uint256",
          "name": "amount",
          "type": "uint256"
        },
        {
          "internalType": "uint256",
          "name": "interestRate",
          "type": "uint256"
        },
        {
          "internalType": "uint256",
          "name": "startTime",
          "type": "uint256"
        },
        {
          "internalType": "uint256",
          "name": "collateral",
          "type": "uint256"
        },
        {
          "internalType": "bool",
          "name": "isRepaid",
          "type": "bool"
        },
        {
          "internalType": "bool",
          "name": "isDefaulted",
          "type": "bool"
        }
      ],
      "stateMutability": "view",
      "type": "function"
    }
  ],
  "bytecode": "0x6080604052609660065562278d00600755620d2f006008553480156200002457600080fd5b506040516200237c3803806200237c83398181016040528101906200004a91906200031b565b336001600081905550600073ffffffffffffffffffffffffffffffffffffffff168173ffffffffffffffffffffffffffffffffffffffff1603620000c85760006040517f1e4fbdf7000000000000000000000000000000000000000000000000000000008152600401620000bf919062000388565b60405180910390fd5b620000d981620001a660201b60201c565b5082600260006101000a81548173ffffffffffffffffffffffffffffffffffffffff021916908373ffffffffffffffffffffffffffffffffffffffff16021790555081600360006101000a81548173ffffffffffffffffffffffffffffffffffffffff021916908373ffffffffffffffffffffffffffffffffffffffff16021790555080600460006101000a81548173ffffffffffffffffffffffffffffffffffffffff021916908373ffffffffffffffffffffffffffffffffffffffff160217905550505050620003a5565b6000600160009054906101000a900473ffffffffffffffffffffffffffffffffffffffff16905081600160006101000a81548173ffffffffffffffffffffffffffffffffffffffff021916908373ffffffffffffffffffffffffffffffffffffffff1602179055508173ffffffffffffffffffffffffffffffffffffffff168173ffffffffffffffffffffffffffffffffffffffff167f8be0079c531659141344cd1fd0a4f28419497f9722a3daafe3b4186f6b6457e060405160405180910390a35050565b600080fd5b600073ffffffffffffffffffffffffffffffffffffffff82169050919050565b60006200029e8262000271565b9050919050565b6000620002b28262000291565b9050919050565b620002c481620002a5565b8114620002d057600080fd5b50565b600081519050620002e481620002b9565b92915050565b620002f58162000291565b81146200030157600080fd5b50565b6000815190506200031581620002ea565b92915050565b6000806000606084860312156200033757620003366200026c565b5b60006200034786828701620002d3565b93505060206200035a8682870162000304565b92505060406200036d8682870162000304565b9150509250925092565b620003828162000291565b82525050565b60006020820190506200039f600083018462000377565b92915050565b611fc780620003b56000396000f3fe608060405234801561001057600080fd5b50600436106101215760003560e01c80638d5d3429116100ad578063c000bc6011610071578063c000bc60146102ac578063e9e190a3146102c8578063ebbb7de9146102fd578063f2fde38b14610319578063f5521bf11461033557610121565b80638d5d34291461021e5780638da5cb5b1461023a57806397ed71eb14610258578063ab7b1c8914610274578063ba43a9221461029057610121565b8063650dfa18116100f4578063650dfa181461019e578063656f9ba4146101ba578063688aef48146101d857806370f37d27146101f6578063715018a61461021457610121565b80630ea86ad81461012657806323be345c146101445780632630c12f146101625780632af7e2ea14610180575b600080fd5b61012e610353565b60405161013b9190611397565b60405180910390f35b61014c610379565b60405161015991906113d3565b60405180910390f35b61016a61039f565b604051610177919061140f565b60405180910390f35b6101886103c5565b6040516101959190611443565b60405180910390f35b6101b860048036038101906101b3919061148f565b6103cb565b005b6101c2610419565b6040516101cf9190611443565b60405180910390f35b6101e06104da565b6040516101ed9190611443565b60405180910390f35b6101fe6104e0565b60405161020b9190611443565b60405180910390f35b61021c6104e6565b005b6102386004803603810190610233919061148f565b6104fa565b005b61024261092e565b60405161024f91906114dd565b60405180910390f35b610272600480360381019061026d919061148f565b610958565b005b61028e6004803603810190610289919061148f565b610a5d565b005b6102aa60048036038101906102a5919061148f565b610da7565b005b6102c660048036038101906102c1919061148f565b610df4565b005b6102e260048036038101906102dd9190611524565b610e41565b6040516102f49695949392919061156c565b60405180910390f35b61031760048036038101906103129190611524565b610e97565b005b610333600480360381019061032e9190611524565b6110e7565b005b61033d61116d565b60405161034a9190611443565b60405180910390f35b600260009054906101000a900473ffffffffffffffffffffffffffffffffffffffff1681565b600360009054906101000a900473ffffffffffffffffffffffffffffffffffffffff1681565b600460009054906101000a900473ffffffffffffffffffffffffffffffffffffffff1681565b60085481565b606481101561040f576040517f08c379a00000000000000000000000000000000000000000000000000000000081526004016104069061162a565b60405180910390fd5b8060068190555050565b600080600360009054906101000a900473ffffffffffffffffffffffffffffffffffffffff1673ffffffffffffffffffffffffffffffffffffffff166309b8aafd336040518263ffffffff1660e01b815260040161047791906114dd565b602060405180830381865afa158015610494573d6000803e3d6000fd5b505050506040513d601f19601f820116820180604052508101906104b8919061165f565b90506006546064826104ca91906116bb565b6104d4919061172c565b91505090565b60065481565b60055481565b6104ee611173565b6104f860006111fa565b565b6105026112c0565b60008111610545576040517f08c379a000000000000000000000000000000000000000000000000000000000815260040161053c906117cf565b60405180910390fd5b6000600960003373ffffffffffffffffffffffffffffffffffffffff1673ffffffffffffffffffffffffffffffffffffffff16815260200190815260200160002060000154146105ca576040517f08c379a00000000000000000000000000000000000000000000000000000000081526004016105c190611861565b60405180910390fd5b6000600360009054906101000a900473ffffffffffffffffffffffffffffffffffffffff1673ffffffffffffffffffffffffffffffffffffffff166309b8aafd336040518263ffffffff1660e01b815260040161062791906114dd565b602060405180830381865afa158015610644573d6000803e3d6000fd5b505050506040513d601f19601f82011682018060405250810190610668919061165f565b9050600081116106ad576040517f08c379a00000000000000000000000000000000000000000000000000000000081526004016106a4906118f3565b60405180910390fd5b60006006546064836106bf91906116bb565b6106c9919061172c565b90508083111561070e576040517f08c379a000000000000000000000000000000000000000000000000000000000815260040161070590611985565b60405180910390fd5b60006040518060c001604052808581526020016005815260200142815260200184815260200160001515815260200160001515815250905080600960003373ffffffffffffffffffffffffffffffffffffffff1673ffffffffffffffffffffffffffffffffffffffff1681526020019081526020016000206000820151816000015560208201518160010155604082015181600201556060820151816003015560808201518160040160006101000a81548160ff02191690831515021790555060a08201518160040160016101000a81548160ff021916908315150217905550905050600260009054906101000a900473ffffffffffffffffffffffffffffffffffffffff1673ffffffffffffffffffffffffffffffffffffffff1663a9059cbb33866040518363ffffffff1660e01b815260040161084e9291906119a5565b6020604051808303816000875af115801561086d573d6000803e3d6000fd5b505050506040513d601f19601f8201168201806040525081019061089191906119fa565b6108d0576040517f08c379a00000000000000000000000000000000000000000000000000000000081526004016108c790611a99565b60405180910390fd5b3373ffffffffffffffffffffffffffffffffffffffff167f1c793c0fda4a6b2b79dd68d91d9f7fde8f7aa0878615c36a4624e6ccdbb1ead18585604051610918929190611ab9565b60405180910390a250505061092b611306565b50565b6000600160009054906101000a900473ffffffffffffffffffffffffffffffffffffffff16905090565b610960611173565b600260009054906101000a900473ffffffffffffffffffffffffffffffffffffffff1673ffffffffffffffffffffffffffffffffffffffff166323b872dd3330846040518463ffffffff1660e01b81526004016109bf93929190611ae2565b6020604051808303816000875af11580156109de573d6000803e3d6000fd5b505050506040513d601f19601f82011682018060405250810190610a0291906119fa565b610a41576040517f08c379a0000000000000000000000000000000000000000000000000000000008152600401610a3890611b8b565b60405180910390fd5b8060056000828254610a539190611bab565b9250508190555050565b610a656112c0565b6000600960003373ffffffffffffffffffffffffffffffffffffffff1673ffffffffffffffffffffffffffffffffffffffff16815260200190815260200160002090506000816000015411610aef576040517f08c379a0000000000000000000000000000000000000000000000000000000008152600401610ae690611c2b565b60405180910390fd5b8060040160009054906101000a900460ff1615610b41576040517f08c379a0000000000000000000000000000000000000000000000000000000008152600401610b3890611cbd565b60405180910390fd5b6000606482600101548360000154610b5991906116bb565b610b63919061172c565b8260000154610b729190611bab565b905080831015610bb7576040517f08c379a0000000000000000000000000000000000000000000000000000000008152600401610bae90611d4f565b60405180910390fd5b600260009054906101000a900473ffffffffffffffffffffffffffffffffffffffff1673ffffffffffffffffffffffffffffffffffffffff166323b872dd3330866040518463ffffffff1660e01b8152600401610c1693929190611ae2565b6020604051808303816000875af1158015610c35573d6000803e3d6000fd5b505050506040513d601f19601f82011682018060405250810190610c5991906119fa565b610c98576040517f08c379a0000000000000000000000000000000000000000000000000000000008152600401610c8f90611de1565b60405180910390fd5b60018260040160006101000a81548160ff021916908315150217905550600360009054906101000a900473ffffffffffffffffffffffffffffffffffffffff1673ffffffffffffffffffffffffffffffffffffffff1663192e7a7b336040518263ffffffff1660e01b8152600401610d1091906114dd565b600060405180830381600087803b158015610d2a57600080fd5b505af1158015610d3e573d6000803e3d6000fd5b505050503373ffffffffffffffffffffffffffffffffffffffff167fc7ce0a35f17b490de2a317e7fecb2cae86b1abffb03800b2f49282352138269883600001548460030154604051610d92929190611ab9565b60405180910390a25050610da4611306565b50565b60008111610dea576040517f08c379a0000000000000000000000000000000000000000000000000000000008152600401610de190611e4d565b60405180910390fd5b8060078190555050565b60008111610e37576040517f08c379a0000000000000000000000000000000000000000000000000000000008152600401610e2e90611e4d565b60405180910390fd5b8060088190555050565b60096020528060005260406000206000915090508060000154908060010154908060020154908060030154908060040160009054906101000a900460ff16908060040160019054906101000a900460ff16905086565b610e9f6112c0565b6000600960008373ffffffffffffffffffffffffffffffffffffffff1673ffffffffffffffffffffffffffffffffffffffff16815260200190815260200160002090506000816000015411610f29576040517f08c379a0000000000000000000000000000000000000000000000000000000008152600401610f2090611c2b565b60405180910390fd5b8060040160019054906101000a900460ff1615610f7b576040517f08c379a0000000000000000000000000000000000000000000000000000000008152600401610f7290611edf565b60405180910390fd5b6008546007548260020154610f909190611bab565b610f9a9190611bab565b4211610fdb576040517f08c379a0000000000000000000000000000000000000000000000000000000008152600401610fd290611f71565b60405180910390fd5b60018160040160016101000a81548160ff021916908315150217905550600360009054906101000a900473ffffffffffffffffffffffffffffffffffffffff1673ffffffffffffffffffffffffffffffffffffffff16638e817efe82600301546040518263ffffffff1660e01b81526004016110579190611443565b600060405180830381600087803b15801561107157600080fd5b505af1158015611085573d6000803e3d6000fd5b505050508173ffffffffffffffffffffffffffffffffffffffff167f0be253503c49f8fb02046da3ef57bc2f5f881eb14ba5c2c26b54bf2fb4e7db0782600301546040516110d39190611443565b60405180910390a2506110e4611306565b50565b6110ef611173565b600073ffffffffffffffffffffffffffffffffffffffff168173ffffffffffffffffffffffffffffffffffffffff16036111615760006040517f1e4fbdf700000000000000000000000000000000000000000000000000000000815260040161115891906114dd565b60405180910390fd5b61116a816111fa565b50565b60075481565b61117b611310565b73ffffffffffffffffffffffffffffffffffffffff1661119961092e565b73ffffffffffffffffffffffffffffffffffffffff16146111f8576111bc611310565b6040517f118cdaa70000000000000000000000000000000000000000000000000000000081526004016111ef91906114dd565b60405180910390fd5b565b6000600160009054906101000a900473ffffffffffffffffffffffffffffffffffffffff16905081600160006101000a81548173ffffffffffffffffffffffffffffffffffffffff021916908373ffffffffffffffffffffffffffffffffffffffff1602179055508173ffffffffffffffffffffffffffffffffffffffff168173ffffffffffffffffffffffffffffffffffffffff167f8be0079c531659141344cd1fd0a4f28419497f9722a3daafe3b4186f6b6457e060405160405180910390a35050565b6002600054036112fc576040517f3ee5aeb500000000000000000000000000000000000000000000000000000000815260040160405180910390fd5b6002600081905550565b6001600081905550565b600033905090565b600073ffffffffffffffffffffffffffffffffffffffff82169050919050565b6000819050919050565b600061135d61135861135384611318565b611338565b611318565b9050919050565b600061136f82611342565b9050919050565b600061138182611364565b9050919050565b61139181611376565b82525050565b60006020820190506113ac6000830184611388565b92915050565b60006113bd82611364565b9050919050565b6113cd816113b2565b82525050565b60006020820190506113e860008301846113c4565b92915050565b60006113f982611364565b9050919050565b611409816113ee565b82525050565b60006020820190506114246000830184611400565b92915050565b6000819050919050565b61143d8161142a565b82525050565b60006020820190506114586000830184611434565b92915050565b600080fd5b61146c8161142a565b811461147757600080fd5b50565b60008135905061148981611463565b92915050565b6000602082840312156114a5576114a461145e565b5b60006114b38482850161147a565b91505092915050565b60006114c782611318565b9050919050565b6114d7816114bc565b82525050565b60006020820190506114f260008301846114ce565b92915050565b611501816114bc565b811461150c57600080fd5b50565b60008135905061151e816114f8565b92915050565b60006020828403121561153a5761153961145e565b5b60006115488482850161150f565b91505092915050565b60008115159050919050565b61156681611551565b82525050565b600060c0820190506115816000830189611434565b61158e6020830188611434565b61159b6040830187611434565b6115a86060830186611434565b6115b5608083018561155d565b6115c260a083018461155d565b979650505050505050565b600082825260208201905092915050565b7f4c6f616e4d616e616765723a20496e76616c696420726174696f000000000000600082015250565b6000611614601a836115cd565b915061161f826115de565b602082019050919050565b6000602082019050818103600083015261164381611607565b9050919050565b60008151905061165981611463565b92915050565b6000602082840312156116755761167461145e565b5b60006116838482850161164a565b91505092915050565b7f4e487b7100000000000000000000000000000000000000000000000000000000600052601160045260246000fd5b60006116c68261142a565b91506116d18361142a565b92508282026116df8161142a565b915082820484148315176116f6576116f561168c565b5b5092915050565b7f4e487b7100000000000000000000000000000000000000000000000000000000600052601260045260246000fd5b60006117378261142a565b91506117428361142a565b925082611752576117516116fd565b5b828204905092915050565b7f4c6f616e4d616e616765723a204c6f616e20616d6f756e74206d75737420626560008201527f2067726561746572207468616e20300000000000000000000000000000000000602082015250565b60006117b9602f836115cd565b91506117c48261175d565b604082019050919050565b600060208201905081810360008301526117e8816117ac565b9050919050565b7f4c6f616e4d616e616765723a204578697374696e67206c6f616e206d7573742060008201527f6265207265706169642066697273740000000000000000000000000000000000602082015250565b600061184b602f836115cd565b9150611856826117ef565b604082019050919050565b6000602082019050818103600083015261187a8161183e565b9050919050565b7f4c6f616e4d616e616765723a204e6f20636f6c6c61746572616c20617661696c60008201527f61626c6500000000000000000000000000000000000000000000000000000000602082015250565b60006118dd6024836115cd565b91506118e882611881565b604082019050919050565b6000602082019050818103600083015261190c816118d0565b9050919050565b7f4c6f616e4d616e616765723a20496e73756666696369656e7420636f6c6c617460008201527f6572616c20666f7220726571756573746564206c6f616e20616d6f756e740000602082015250565b600061196f603e836115cd565b915061197a82611913565b604082019050919050565b6000602082019050818103600083015261199e81611962565b9050919050565b60006040820190506119ba60008301856114ce565b6119c76020830184611434565b9392505050565b6119d781611551565b81146119e257600080fd5b50565b6000815190506119f4816119ce565b92915050565b600060208284031215611a1057611a0f61145e565b5b6000611a1e848285016119e5565b91505092915050565b7f4c6f616e4d616e616765723a204c6f616e207472616e73666572206661696c6560008201527f6400000000000000000000000000000000000000000000000000000000000000602082015250565b6000611a836021836115cd565b9150611a8e82611a27565b604082019050919050565b60006020820190508181036000830152611ab281611a76565b9050919050565b6000604082019050611ace6000830185611434565b611adb6020830184611434565b9392505050565b6000606082019050611af760008301866114ce565b611b0460208301856114ce565b611b116040830184611434565b949350505050565b7f4c6f616e4d616e616765723a2046756e64207472616e73666572206661696c6560008201527f6400000000000000000000000000000000000000000000000000000000000000602082015250565b6000611b756021836115cd565b9150611b8082611b19565b604082019050919050565b60006020820190508181036000830152611ba481611b68565b9050919050565b6000611bb68261142a565b9150611bc18361142a565b9250828201905080821115611bd957611bd861168c565b5b92915050565b7f4c6f616e4d616e616765723a204e6f20616374697665206c6f616e0000000000600082015250565b6000611c15601b836115cd565b9150611c2082611bdf565b602082019050919050565b60006020820190508181036000830152611c4481611c08565b9050919050565b7f4c6f616e4d616e616765723a204c6f616e20697320616c72656164792072657060008201527f6169640000000000000000000000000000000000000000000000000000000000602082015250565b6000611ca76023836115cd565b9150611cb282611c4b565b604082019050919050565b60006020820190508181036000830152611cd681611c9a565b9050919050565b7f4c6f616e4d616e616765723a20496e73756666696369656e742072657061796d60008201527f656e7420616d6f756e7400000000000000000000000000000000000000000000602082015250565b6000611d39602a836115cd565b9150611d4482611cdd565b604082019050919050565b60006020820190508181036000830152611d6881611d2c565b9050919050565b7f4c6f616e4d616e616765723a2052657061796d656e74207472616e736665722060008201527f6661696c65640000000000000000000000000000000000000000000000000000602082015250565b6000611dcb6026836115cd565b9150611dd682611d6f565b604082019050919050565b60006020820190508181036000830152611dfa81611dbe565b9050919050565b7f4c6f616e4d616e616765723a20496e76616c6964206475726174696f6e000000600082015250565b6000611e37601d836115cd565b9150611e4282611e01565b602082019050919050565b60006020820190508181036000830152611e6681611e2a565b9050919050565b7f4c6f616e4d616e616765723a204c6f616e20616c72656164792064656661756c60008201527f7465640000000000000000000000000000000000000000000000000000000000602082015250565b6000611ec96023836115cd565b9150611ed482611e6d565b604082019050919050565b60006020820190508181036000830152611ef881611ebc565b9050919050565b7f4c6f616e4d616e616765723a204c6f616e206e6f742064656661756c7465642060008201527f7965740000000000000000000000000000000000000000000000000000000000602082015250565b6000611f5b6023836115cd565b9150611f6682611eff565b604082019050919050565b60006020820190508181036000830152611f8a81611f4e565b905091905056fea26469706673582212203d4a439e55644d339e9ac2fb0213d8157d03b641effaa4aff2173ab811c2ed7664736f6c63430008140033",
  "linkReferences": {},
  "deployedLinkReferences": {}
}