{
  "_format": "hh-sol-artifact-1",
  "contractName": "LoanManager",
  "sourceName": "contracts/LoanManager.sol",
  "abi": [
    {
      "inputs": [
        {
          "internalType": "contract ERC20",
          "name": "_cusdToken",
          "type": "address"
        },
        {
          "internalType": "address",
          "name": "_collateralManager",
          "type": "address"
        }
      ],
      "stateMutability": "nonpayable",
      "type": "constructor"
    },
    {
      "inputs": [
        {
          "internalType": "address",
          "name": "owner",
          "type": "address"
        }
      ],
      "name": "OwnableInvalidOwner",
      "type": "error"
    },
    {
      "inputs": [
        {
          "internalType": "address",
          "name": "account",
          "type": "address"
        }
      ],
      "name": "OwnableUnauthorizedAccount",
      "type": "error"
    },
    {
      "inputs": [],
      "name": "ReentrancyGuardReentrantCall",
      "type": "error"
    },
    {
      "anonymous": false,
      "inputs": [
        {
          "indexed": true,
          "internalType": "address",
          "name": "user",
          "type": "address"
        },
        {
          "indexed": false,
          "internalType": "uint256",
          "name": "collateralLiquidated",
          "type": "uint256"
        }
      ],
      "name": "LoanDefaulted",
      "type": "event"
    },
    {
      "anonymous": false,
      "inputs": [
        {
          "indexed": true,
          "internalType": "address",
          "name": "user",
          "type": "address"
        },
        {
          "indexed": false,
          "internalType": "uint256",
          "name": "amount",
          "type": "uint256"
        },
        {
          "indexed": false,
          "internalType": "uint256",
          "name": "collateral",
          "type": "uint256"
        }
      ],
      "name": "LoanIssued",
      "type": "event"
    },
    {
      "anonymous": false,
      "inputs": [
        {
          "indexed": true,
          "internalType": "address",
          "name": "user",
          "type": "address"
        },
        {
          "indexed": false,
          "internalType": "uint256",
          "name": "amount",
          "type": "uint256"
        },
        {
          "indexed": false,
          "internalType": "uint256",
          "name": "collateralReturned",
          "type": "uint256"
        }
      ],
      "name": "LoanRepaid",
      "type": "event"
    },
    {
      "anonymous": false,
      "inputs": [
        {
          "indexed": true,
          "internalType": "address",
          "name": "previousOwner",
          "type": "address"
        },
        {
          "indexed": true,
          "internalType": "address",
          "name": "newOwner",
          "type": "address"
        }
      ],
      "name": "OwnershipTransferred",
      "type": "event"
    },
    {
      "inputs": [
        {
          "internalType": "uint256",
          "name": "_amount",
          "type": "uint256"
        }
      ],
      "name": "addFundToPool",
      "outputs": [],
      "stateMutability": "nonpayable",
      "type": "function"
    },
    {
      "inputs": [],
      "name": "cUSDToken",
      "outputs": [
        {
          "internalType": "contract ERC20",
          "name": "",
          "type": "address"
        }
      ],
      "stateMutability": "view",
      "type": "function"
    },
    {
      "inputs": [
        {
          "internalType": "address",
          "name": "_user",
          "type": "address"
        }
      ],
      "name": "checkDefault",
      "outputs": [],
      "stateMutability": "nonpayable",
      "type": "function"
    },
    {
      "inputs": [],
      "name": "collateralManager",
      "outputs": [
        {
          "internalType": "contract CollateralManager",
          "name": "",
          "type": "address"
        }
      ],
      "stateMutability": "view",
      "type": "function"
    },
    {
      "inputs": [],
      "name": "collateralToLoanRatio",
      "outputs": [
        {
          "internalType": "uint256",
          "name": "",
          "type": "uint256"
        }
      ],
      "stateMutability": "view",
      "type": "function"
    },
    {
      "inputs": [],
      "name": "defaultDuration",
      "outputs": [
        {
          "internalType": "uint256",
          "name": "",
          "type": "uint256"
        }
      ],
      "stateMutability": "view",
      "type": "function"
    },
    {
      "inputs": [],
      "name": "fundPool",
      "outputs": [
        {
          "internalType": "uint256",
          "name": "",
          "type": "uint256"
        }
      ],
      "stateMutability": "view",
      "type": "function"
    },
    {
      "inputs": [],
      "name": "getCeloPrice",
      "outputs": [
        {
          "internalType": "int256",
          "name": "",
          "type": "int256"
        }
      ],
      "stateMutability": "view",
      "type": "function"
    },
    {
      "inputs": [
        {
          "internalType": "address",
          "name": "_user",
          "type": "address"
        }
      ],
      "name": "getLoanBalancewithInterest",
      "outputs": [
        {
          "internalType": "uint256",
          "name": "",
          "type": "uint256"
        }
      ],
      "stateMutability": "view",
      "type": "function"
    },
    {
      "inputs": [],
      "name": "getMaxLoanAmount",
      "outputs": [
        {
          "internalType": "uint256",
          "name": "",
          "type": "uint256"
        }
      ],
      "stateMutability": "view",
      "type": "function"
    },
    {
      "inputs": [],
      "name": "getUsdtPrice",
      "outputs": [
        {
          "internalType": "int256",
          "name": "",
          "type": "int256"
        }
      ],
      "stateMutability": "view",
      "type": "function"
    },
    {
      "inputs": [
        {
          "internalType": "address",
          "name": "_user",
          "type": "address"
        }
      ],
      "name": "liquidateCollateral",
      "outputs": [],
      "stateMutability": "nonpayable",
      "type": "function"
    },
    {
      "inputs": [],
      "name": "loanDuration",
      "outputs": [
        {
          "internalType": "uint256",
          "name": "",
          "type": "uint256"
        }
      ],
      "stateMutability": "view",
      "type": "function"
    },
    {
      "inputs": [],
      "name": "owner",
      "outputs": [
        {
          "internalType": "address",
          "name": "",
          "type": "address"
        }
      ],
      "stateMutability": "view",
      "type": "function"
    },
    {
      "inputs": [],
      "name": "renounceOwnership",
      "outputs": [],
      "stateMutability": "nonpayable",
      "type": "function"
    },
    {
      "inputs": [
        {
          "internalType": "uint256",
          "name": "_repayAmount",
          "type": "uint256"
        }
      ],
      "name": "repayLoan",
      "outputs": [],
      "stateMutability": "nonpayable",
      "type": "function"
    },
    {
      "inputs": [
        {
          "internalType": "uint256",
          "name": "_loanAmount",
          "type": "uint256"
        }
      ],
      "name": "requestLoan",
      "outputs": [],
      "stateMutability": "nonpayable",
      "type": "function"
    },
    {
      "inputs": [
        {
          "internalType": "address",
          "name": "newOwner",
          "type": "address"
        }
      ],
      "name": "transferOwnership",
      "outputs": [],
      "stateMutability": "nonpayable",
      "type": "function"
    },
    {
      "inputs": [
        {
          "internalType": "uint256",
          "name": "_newRatio",
          "type": "uint256"
        }
      ],
      "name": "updateCollateralToLoanRatio",
      "outputs": [],
      "stateMutability": "nonpayable",
      "type": "function"
    },
    {
      "inputs": [
        {
          "internalType": "uint256",
          "name": "_newDuration",
          "type": "uint256"
        }
      ],
      "name": "updateDefaultDuration",
      "outputs": [],
      "stateMutability": "nonpayable",
      "type": "function"
    },
    {
      "inputs": [
        {
          "internalType": "uint256",
          "name": "_newDuration",
          "type": "uint256"
        }
      ],
      "name": "updateLoanDuration",
      "outputs": [],
      "stateMutability": "nonpayable",
      "type": "function"
    },
    {
      "inputs": [
        {
          "internalType": "address",
          "name": "",
          "type": "address"
        }
      ],
      "name": "userLoans",
      "outputs": [
        {
          "internalType": "uint256",
          "name": "amount",
          "type": "uint256"
        },
        {
          "internalType": "uint256",
          "name": "interestRate",
          "type": "uint256"
        },
        {
          "internalType": "uint256",
          "name": "startTime",
          "type": "uint256"
        },
        {
          "internalType": "uint256",
          "name": "collateral",
          "type": "uint256"
        },
        {
          "internalType": "bool",
          "name": "isRepaid",
          "type": "bool"
        },
        {
          "internalType": "bool",
          "name": "isDefaulted",
          "type": "bool"
        }
      ],
      "stateMutability": "view",
      "type": "function"
    }
  ],
  "bytecode": "0x6080604052609660055562278d00600655620d2f006007553480156200002457600080fd5b506040516200298e3803806200298e83398181016040528101906200004a919062000383565b336001600081905550600073ffffffffffffffffffffffffffffffffffffffff168173ffffffffffffffffffffffffffffffffffffffff1603620000c85760006040517f1e4fbdf7000000000000000000000000000000000000000000000000000000008152600401620000bf9190620003db565b60405180910390fd5b620000d9816200020e60201b60201c565b5081600260006101000a81548173ffffffffffffffffffffffffffffffffffffffff021916908373ffffffffffffffffffffffffffffffffffffffff16021790555080600360006101000a81548173ffffffffffffffffffffffffffffffffffffffff021916908373ffffffffffffffffffffffffffffffffffffffff16021790555073022f9dcc73c5fb43f2b4ef2ef9ad3edd1d853946600860006101000a81548173ffffffffffffffffffffffffffffffffffffffff021916908373ffffffffffffffffffffffffffffffffffffffff160217905550737bcb65b53d5a7ffd2119449b8cbc370c9058fd52600960006101000a81548173ffffffffffffffffffffffffffffffffffffffff021916908373ffffffffffffffffffffffffffffffffffffffff1602179055505050620003f8565b6000600160009054906101000a900473ffffffffffffffffffffffffffffffffffffffff16905081600160006101000a81548173ffffffffffffffffffffffffffffffffffffffff021916908373ffffffffffffffffffffffffffffffffffffffff1602179055508173ffffffffffffffffffffffffffffffffffffffff168173ffffffffffffffffffffffffffffffffffffffff167f8be0079c531659141344cd1fd0a4f28419497f9722a3daafe3b4186f6b6457e060405160405180910390a35050565b600080fd5b600073ffffffffffffffffffffffffffffffffffffffff82169050919050565b60006200030682620002d9565b9050919050565b60006200031a82620002f9565b9050919050565b6200032c816200030d565b81146200033857600080fd5b50565b6000815190506200034c8162000321565b92915050565b6200035d81620002f9565b81146200036957600080fd5b50565b6000815190506200037d8162000352565b92915050565b600080604083850312156200039d576200039c620002d4565b5b6000620003ad858286016200033b565b9250506020620003c0858286016200036c565b9150509250929050565b620003d581620002f9565b82525050565b6000602082019050620003f26000830184620003ca565b92915050565b61258680620004086000396000f3fe608060405234801561001057600080fd5b50600436106101425760003560e01c80638da5cb5b116100b8578063ba43a9221161007c578063ba43a9221461031b578063c000bc6014610337578063e9e190a314610353578063ebbb7de914610388578063f2fde38b146103a4578063f5521bf1146103c057610142565b80638da5cb5b14610277578063961bdfbf1461029557806397ed71eb146102b3578063ab7b1c89146102cf578063ade8d29e146102eb57610142565b8063656f9ba41161010a578063656f9ba4146101d9578063688aef48146101f757806370f37d2714610215578063715018a61461023357806373544cfd1461023d5780638d5d34291461025b57610142565b80630ea86ad8146101475780631fea5a6b1461016557806323be345c146101815780632af7e2ea1461019f578063650dfa18146101bd575b600080fd5b61014f6103de565b60405161015c9190611888565b60405180910390f35b61017f600480360381019061017a91906118e6565b610404565b005b61018961060a565b6040516101969190611934565b60405180910390f35b6101a7610630565b6040516101b49190611968565b60405180910390f35b6101d760048036038101906101d291906119af565b610636565b005b6101e1610684565b6040516101ee9190611968565b60405180910390f35b6101ff610791565b60405161020c9190611968565b60405180910390f35b61021d610797565b60405161022a9190611968565b60405180910390f35b61023b61079d565b005b6102456107b1565b60405161025291906119f5565b60405180910390f35b610275600480360381019061027091906119af565b610852565b005b61027f610c9a565b60405161028c9190611a1f565b60405180910390f35b61029d610cc4565b6040516102aa91906119f5565b60405180910390f35b6102cd60048036038101906102c891906119af565b610d65565b005b6102e960048036038101906102e491906119af565b610e6a565b005b610305600480360381019061030091906118e6565b6111b4565b6040516103129190611968565b60405180910390f35b610335600480360381019061033091906119af565b611298565b005b610351600480360381019061034c91906119af565b6112e5565b005b61036d600480360381019061036891906118e6565b611332565b60405161037f96959493929190611a55565b60405180910390f35b6103a2600480360381019061039d91906118e6565b611388565b005b6103be60048036038101906103b991906118e6565b6115d8565b005b6103c861165e565b6040516103d59190611968565b60405180910390f35b600260009054906101000a900473ffffffffffffffffffffffffffffffffffffffff1681565b61040c611664565b6000600a60008373ffffffffffffffffffffffffffffffffffffffff1673ffffffffffffffffffffffffffffffffffffffff16815260200190815260200160002090506000816000015411610496576040517f08c379a000000000000000000000000000000000000000000000000000000000815260040161048d90611b13565b60405180910390fd5b8060040160019054906101000a900460ff166104e7576040517f08c379a00000000000000000000000000000000000000000000000000000000081526004016104de90611b7f565b60405180910390fd5b600360009054906101000a900473ffffffffffffffffffffffffffffffffffffffff1673ffffffffffffffffffffffffffffffffffffffff16631fea5a6b836040518263ffffffff1660e01b81526004016105429190611a1f565b600060405180830381600087803b15801561055c57600080fd5b505af1158015610570573d6000803e3d6000fd5b50505050600a60008373ffffffffffffffffffffffffffffffffffffffff1673ffffffffffffffffffffffffffffffffffffffff1681526020019081526020016000206000808201600090556001820160009055600282016000905560038201600090556004820160006101000a81549060ff02191690556004820160016101000a81549060ff02191690555050506106076116aa565b50565b600360009054906101000a900473ffffffffffffffffffffffffffffffffffffffff1681565b60075481565b606481101561067a576040517f08c379a000000000000000000000000000000000000000000000000000000000815260040161067190611beb565b60405180910390fd5b8060058190555050565b6000806000600360009054906101000a900473ffffffffffffffffffffffffffffffffffffffff1673ffffffffffffffffffffffffffffffffffffffff16632703ee85336040518263ffffffff1660e01b81526004016106e49190611a1f565b6040805180830381865afa158015610700573d6000803e3d6000fd5b505050506040513d601f19601f820116820180604052508101906107249190611c20565b9150915060006107326107b1565b9050600061073e610cc4565b905060006402540be40082856107549190611c8f565b61075e9190611d00565b6402540be40084876107709190611c8f565b61077a9190611d00565b6107849190611d31565b9050809550505050505090565b60055481565b60045481565b6107a56116b4565b6107af600061173b565b565b600080600860009054906101000a900473ffffffffffffffffffffffffffffffffffffffff1673ffffffffffffffffffffffffffffffffffffffff1663feaf968c6040518163ffffffff1660e01b815260040160a060405180830381865afa158015610821573d6000803e3d6000fd5b505050506040513d601f19601f820116820180604052508101906108459190611dd3565b5050509150508091505090565b61085a611664565b6000811161089d576040517f08c379a000000000000000000000000000000000000000000000000000000000815260040161089490611ec0565b60405180910390fd5b6000600a60003373ffffffffffffffffffffffffffffffffffffffff1673ffffffffffffffffffffffffffffffffffffffff1681526020019081526020016000206000015414610922576040517f08c379a000000000000000000000000000000000000000000000000000000000815260040161091990611f52565b60405180910390fd5b600080600360009054906101000a900473ffffffffffffffffffffffffffffffffffffffff1673ffffffffffffffffffffffffffffffffffffffff16632703ee85336040518263ffffffff1660e01b81526004016109809190611a1f565b6040805180830381865afa15801561099c573d6000803e3d6000fd5b505050506040513d601f19601f820116820180604052508101906109c09190611c20565b9150915060006109ce6107b1565b905060006109da610cc4565b90506000670de0b6b3a764000083866109f39190611c8f565b6109fd9190611d00565b90506000670de0b6b3a76400008386610a169190611c8f565b610a209190611d00565b905060008183610a309190611d31565b905087811015610a75576040517f08c379a0000000000000000000000000000000000000000000000000000000008152600401610a6c90611fe4565b60405180910390fd5b60006040518060c001604052808a81526020016005815260200142815260200183815260200160001515815260200160001515815250905080600a60003373ffffffffffffffffffffffffffffffffffffffff1673ffffffffffffffffffffffffffffffffffffffff1681526020019081526020016000206000820151816000015560208201518160010155604082015181600201556060820151816003015560808201518160040160006101000a81548160ff02191690831515021790555060a08201518160040160016101000a81548160ff021916908315150217905550905050600260009054906101000a900473ffffffffffffffffffffffffffffffffffffffff1673ffffffffffffffffffffffffffffffffffffffff1663a9059cbb338b6040518363ffffffff1660e01b8152600401610bb5929190612004565b6020604051808303816000875af1158015610bd4573d6000803e3d6000fd5b505050506040513d601f19601f82011682018060405250810190610bf89190612059565b610c37576040517f08c379a0000000000000000000000000000000000000000000000000000000008152600401610c2e906120f8565b60405180910390fd5b3373ffffffffffffffffffffffffffffffffffffffff167f1c793c0fda4a6b2b79dd68d91d9f7fde8f7aa0878615c36a4624e6ccdbb1ead18a84604051610c7f929190612118565b60405180910390a25050505050505050610c976116aa565b50565b6000600160009054906101000a900473ffffffffffffffffffffffffffffffffffffffff16905090565b600080600960009054906101000a900473ffffffffffffffffffffffffffffffffffffffff1673ffffffffffffffffffffffffffffffffffffffff1663feaf968c6040518163ffffffff1660e01b815260040160a060405180830381865afa158015610d34573d6000803e3d6000fd5b505050506040513d601f19601f82011682018060405250810190610d589190611dd3565b5050509150508091505090565b610d6d6116b4565b600260009054906101000a900473ffffffffffffffffffffffffffffffffffffffff1673ffffffffffffffffffffffffffffffffffffffff166323b872dd3330846040518463ffffffff1660e01b8152600401610dcc93929190612141565b6020604051808303816000875af1158015610deb573d6000803e3d6000fd5b505050506040513d601f19601f82011682018060405250810190610e0f9190612059565b610e4e576040517f08c379a0000000000000000000000000000000000000000000000000000000008152600401610e45906121ea565b60405180910390fd5b8060046000828254610e609190611d31565b9250508190555050565b610e72611664565b6000600a60003373ffffffffffffffffffffffffffffffffffffffff1673ffffffffffffffffffffffffffffffffffffffff16815260200190815260200160002090506000816000015411610efc576040517f08c379a0000000000000000000000000000000000000000000000000000000008152600401610ef390611b13565b60405180910390fd5b8060040160009054906101000a900460ff1615610f4e576040517f08c379a0000000000000000000000000000000000000000000000000000000008152600401610f459061227c565b60405180910390fd5b6000606482600101548360000154610f669190611c8f565b610f709190611d00565b8260000154610f7f9190611d31565b905080831015610fc4576040517f08c379a0000000000000000000000000000000000000000000000000000000008152600401610fbb9061230e565b60405180910390fd5b600260009054906101000a900473ffffffffffffffffffffffffffffffffffffffff1673ffffffffffffffffffffffffffffffffffffffff166323b872dd3330866040518463ffffffff1660e01b815260040161102393929190612141565b6020604051808303816000875af1158015611042573d6000803e3d6000fd5b505050506040513d601f19601f820116820180604052508101906110669190612059565b6110a5576040517f08c379a000000000000000000000000000000000000000000000000000000000815260040161109c906123a0565b60405180910390fd5b60018260040160006101000a81548160ff021916908315150217905550600360009054906101000a900473ffffffffffffffffffffffffffffffffffffffff1673ffffffffffffffffffffffffffffffffffffffff1663192e7a7b336040518263ffffffff1660e01b815260040161111d9190611a1f565b600060405180830381600087803b15801561113757600080fd5b505af115801561114b573d6000803e3d6000fd5b505050503373ffffffffffffffffffffffffffffffffffffffff167fc7ce0a35f17b490de2a317e7fecb2cae86b1abffb03800b2f4928235213826988360000154846003015460405161119f929190612118565b60405180910390a250506111b16116aa565b50565b600080600a60008473ffffffffffffffffffffffffffffffffffffffff1673ffffffffffffffffffffffffffffffffffffffff1681526020019081526020016000206040518060c0016040529081600082015481526020016001820154815260200160028201548152602001600382015481526020016004820160009054906101000a900460ff161515151581526020016004820160019054906101000a900460ff16151515158152505090506064816020015182600001516112779190611c8f565b6112819190611d00565b81600001516112909190611d31565b915050919050565b600081116112db576040517f08c379a00000000000000000000000000000000000000000000000000000000081526004016112d29061240c565b60405180910390fd5b8060068190555050565b60008111611328576040517f08c379a000000000000000000000000000000000000000000000000000000000815260040161131f9061240c565b60405180910390fd5b8060078190555050565b600a6020528060005260406000206000915090508060000154908060010154908060020154908060030154908060040160009054906101000a900460ff16908060040160019054906101000a900460ff16905086565b611390611664565b6000600a60008373ffffffffffffffffffffffffffffffffffffffff1673ffffffffffffffffffffffffffffffffffffffff1681526020019081526020016000209050600081600001541161141a576040517f08c379a000000000000000000000000000000000000000000000000000000000815260040161141190611b13565b60405180910390fd5b8060040160019054906101000a900460ff161561146c576040517f08c379a00000000000000000000000000000000000000000000000000000000081526004016114639061249e565b60405180910390fd5b60075460065482600201546114819190611d31565b61148b9190611d31565b42116114cc576040517f08c379a00000000000000000000000000000000000000000000000000000000081526004016114c390612530565b60405180910390fd5b60018160040160016101000a81548160ff021916908315150217905550600360009054906101000a900473ffffffffffffffffffffffffffffffffffffffff1673ffffffffffffffffffffffffffffffffffffffff16638e817efe82600301546040518263ffffffff1660e01b81526004016115489190611968565b600060405180830381600087803b15801561156257600080fd5b505af1158015611576573d6000803e3d6000fd5b505050508173ffffffffffffffffffffffffffffffffffffffff167f0be253503c49f8fb02046da3ef57bc2f5f881eb14ba5c2c26b54bf2fb4e7db0782600301546040516115c49190611968565b60405180910390a2506115d56116aa565b50565b6115e06116b4565b600073ffffffffffffffffffffffffffffffffffffffff168173ffffffffffffffffffffffffffffffffffffffff16036116525760006040517f1e4fbdf70000000000000000000000000000000000000000000000000000000081526004016116499190611a1f565b60405180910390fd5b61165b8161173b565b50565b60065481565b6002600054036116a0576040517f3ee5aeb500000000000000000000000000000000000000000000000000000000815260040160405180910390fd5b6002600081905550565b6001600081905550565b6116bc611801565b73ffffffffffffffffffffffffffffffffffffffff166116da610c9a565b73ffffffffffffffffffffffffffffffffffffffff1614611739576116fd611801565b6040517f118cdaa70000000000000000000000000000000000000000000000000000000081526004016117309190611a1f565b60405180910390fd5b565b6000600160009054906101000a900473ffffffffffffffffffffffffffffffffffffffff16905081600160006101000a81548173ffffffffffffffffffffffffffffffffffffffff021916908373ffffffffffffffffffffffffffffffffffffffff1602179055508173ffffffffffffffffffffffffffffffffffffffff168173ffffffffffffffffffffffffffffffffffffffff167f8be0079c531659141344cd1fd0a4f28419497f9722a3daafe3b4186f6b6457e060405160405180910390a35050565b600033905090565b600073ffffffffffffffffffffffffffffffffffffffff82169050919050565b6000819050919050565b600061184e61184961184484611809565b611829565b611809565b9050919050565b600061186082611833565b9050919050565b600061187282611855565b9050919050565b61188281611867565b82525050565b600060208201905061189d6000830184611879565b92915050565b600080fd5b60006118b382611809565b9050919050565b6118c3816118a8565b81146118ce57600080fd5b50565b6000813590506118e0816118ba565b92915050565b6000602082840312156118fc576118fb6118a3565b5b600061190a848285016118d1565b91505092915050565b600061191e82611855565b9050919050565b61192e81611913565b82525050565b60006020820190506119496000830184611925565b92915050565b6000819050919050565b6119628161194f565b82525050565b600060208201905061197d6000830184611959565b92915050565b61198c8161194f565b811461199757600080fd5b50565b6000813590506119a981611983565b92915050565b6000602082840312156119c5576119c46118a3565b5b60006119d38482850161199a565b91505092915050565b6000819050919050565b6119ef816119dc565b82525050565b6000602082019050611a0a60008301846119e6565b92915050565b611a19816118a8565b82525050565b6000602082019050611a346000830184611a10565b92915050565b60008115159050919050565b611a4f81611a3a565b82525050565b600060c082019050611a6a6000830189611959565b611a776020830188611959565b611a846040830187611959565b611a916060830186611959565b611a9e6080830185611a46565b611aab60a0830184611a46565b979650505050505050565b600082825260208201905092915050565b7f4c6f616e4d616e616765723a204e6f20616374697665206c6f616e0000000000600082015250565b6000611afd601b83611ab6565b9150611b0882611ac7565b602082019050919050565b60006020820190508181036000830152611b2c81611af0565b9050919050565b7f4c6f616e4d616e616765723a204c6f616e206e6f742064656661756c74656400600082015250565b6000611b69601f83611ab6565b9150611b7482611b33565b602082019050919050565b60006020820190508181036000830152611b9881611b5c565b9050919050565b7f4c6f616e4d616e616765723a20496e76616c696420726174696f000000000000600082015250565b6000611bd5601a83611ab6565b9150611be082611b9f565b602082019050919050565b60006020820190508181036000830152611c0481611bc8565b9050919050565b600081519050611c1a81611983565b92915050565b60008060408385031215611c3757611c366118a3565b5b6000611c4585828601611c0b565b9250506020611c5685828601611c0b565b9150509250929050565b7f4e487b7100000000000000000000000000000000000000000000000000000000600052601160045260246000fd5b6000611c9a8261194f565b9150611ca58361194f565b9250828202611cb38161194f565b91508282048414831517611cca57611cc9611c60565b5b5092915050565b7f4e487b7100000000000000000000000000000000000000000000000000000000600052601260045260246000fd5b6000611d0b8261194f565b9150611d168361194f565b925082611d2657611d25611cd1565b5b828204905092915050565b6000611d3c8261194f565b9150611d478361194f565b9250828201905080821115611d5f57611d5e611c60565b5b92915050565b600069ffffffffffffffffffff82169050919050565b611d8481611d65565b8114611d8f57600080fd5b50565b600081519050611da181611d7b565b92915050565b611db0816119dc565b8114611dbb57600080fd5b50565b600081519050611dcd81611da7565b92915050565b600080600080600060a08688031215611def57611dee6118a3565b5b6000611dfd88828901611d92565b9550506020611e0e88828901611dbe565b9450506040611e1f88828901611c0b565b9350506060611e3088828901611c0b565b9250506080611e4188828901611d92565b9150509295509295909350565b7f4c6f616e4d616e616765723a204c6f616e20616d6f756e74206d75737420626560008201527f2067726561746572207468616e20300000000000000000000000000000000000602082015250565b6000611eaa602f83611ab6565b9150611eb582611e4e565b604082019050919050565b60006020820190508181036000830152611ed981611e9d565b9050919050565b7f4c6f616e4d616e616765723a204578697374696e67206c6f616e206d7573742060008201527f6265207265706169642066697273740000000000000000000000000000000000602082015250565b6000611f3c602f83611ab6565b9150611f4782611ee0565b604082019050919050565b60006020820190508181036000830152611f6b81611f2f565b9050919050565b7f4c6f616e4d616e616765723a20496e73756666696369656e7420636f6c6c617460008201527f6572616c00000000000000000000000000000000000000000000000000000000602082015250565b6000611fce602483611ab6565b9150611fd982611f72565b604082019050919050565b60006020820190508181036000830152611ffd81611fc1565b9050919050565b60006040820190506120196000830185611a10565b6120266020830184611959565b9392505050565b61203681611a3a565b811461204157600080fd5b50565b6000815190506120538161202d565b92915050565b60006020828403121561206f5761206e6118a3565b5b600061207d84828501612044565b91505092915050565b7f4c6f616e4d616e616765723a204c6f616e207472616e73666572206661696c6560008201527f6400000000000000000000000000000000000000000000000000000000000000602082015250565b60006120e2602183611ab6565b91506120ed82612086565b604082019050919050565b60006020820190508181036000830152612111816120d5565b9050919050565b600060408201905061212d6000830185611959565b61213a6020830184611959565b9392505050565b60006060820190506121566000830186611a10565b6121636020830185611a10565b6121706040830184611959565b949350505050565b7f4c6f616e4d616e616765723a2046756e64207472616e73666572206661696c6560008201527f6400000000000000000000000000000000000000000000000000000000000000602082015250565b60006121d4602183611ab6565b91506121df82612178565b604082019050919050565b60006020820190508181036000830152612203816121c7565b9050919050565b7f4c6f616e4d616e616765723a204c6f616e20697320616c72656164792072657060008201527f6169640000000000000000000000000000000000000000000000000000000000602082015250565b6000612266602383611ab6565b91506122718261220a565b604082019050919050565b6000602082019050818103600083015261229581612259565b9050919050565b7f4c6f616e4d616e616765723a20496e73756666696369656e742072657061796d60008201527f656e7420616d6f756e7400000000000000000000000000000000000000000000602082015250565b60006122f8602a83611ab6565b91506123038261229c565b604082019050919050565b60006020820190508181036000830152612327816122eb565b9050919050565b7f4c6f616e4d616e616765723a2052657061796d656e74207472616e736665722060008201527f6661696c65640000000000000000000000000000000000000000000000000000602082015250565b600061238a602683611ab6565b91506123958261232e565b604082019050919050565b600060208201905081810360008301526123b98161237d565b9050919050565b7f4c6f616e4d616e616765723a20496e76616c6964206475726174696f6e000000600082015250565b60006123f6601d83611ab6565b9150612401826123c0565b602082019050919050565b60006020820190508181036000830152612425816123e9565b9050919050565b7f4c6f616e4d616e616765723a204c6f616e20616c72656164792064656661756c60008201527f7465640000000000000000000000000000000000000000000000000000000000602082015250565b6000612488602383611ab6565b91506124938261242c565b604082019050919050565b600060208201905081810360008301526124b78161247b565b9050919050565b7f4c6f616e4d616e616765723a204c6f616e206e6f742064656661756c7465642060008201527f7965740000000000000000000000000000000000000000000000000000000000602082015250565b600061251a602383611ab6565b9150612525826124be565b604082019050919050565b600060208201905081810360008301526125498161250d565b905091905056fea2646970667358221220c5c0726af04da804c4a8c3e3494766c21fed2ee418006c15f4e678ab9a8ce34b64736f6c63430008140033",
  "linkReferences": {},
  "deployedLinkReferences": {}
}